:1000000058C6000087C6000085C6000083C60000F1
:1000100081C600007FC600007DC600007BC60000D0
:1000200079C6000077C6000075C6000073C60000E0
:1000300071C600006FC600006DC600006BC60000F0
:1000400069C600000C945A6D0C943D6A63C60000AA
:1000500061C600005FC600005DC600000C94215818
:1000600059C600000C941B6F55C6000053C6000013
:1000700051C600004FC600004DC600004BC6000030
:1000800049C6000047C6000045C6000043C6000040
:1000900041C600003FC600003DC600003BC6000050
:1000A00039C6000037C6000035C6000033C6000060
:1000B00031C600002FC600002DC600002BC6000070
:1000C00029C6000027C6000025C6000023C6000080
:1000D00021C600001FC600001DC600001BC6000090
:1000E00019C600006F122D12C50BC50BC50BF01100
:1000F000E311961169115711D110C50BC50BC50B32
:10010000C50BC50BC50BC50BC50BC50BC50BC50B6F
:10011000C50BB710D20FC50BC50BC50BC20F6E0FA9
:100120001A0F380EC50B6A0CC50BC50B430C3E0CE1
:10013000561625161B163C0C82176416EA16C50BBC
:10014000EC15C81591157D15C50BC50B7615C50B9E
:1001500014150215BC14A4146E146714BC130213F6
:10016000CC12B01299121C12945298529C52A25264
:10017000A8529352AE52B452BA52C052C652CC5246
:10018000D252D8529352DE52E4528E52A454AC54FE
:10019000B154BB54C5549354CF54D754DF54E9548D
:1001A000F354FD540C551655935420552A55345587
:1001B000000020002300260029002C002F00320020
:1001C00000010000030106010901050505050705F9
:1001D00008080808020202020A0A080804040404C3
:1001E00001010101010101010303030303030303EF
:1001F000040707070C0C0C0C0C0C0C0C020202027E
:1002000006060606060606060B0B0B0B0B0B0B0B66
:100210000102102020080810204010204080020118
:1002200002010804020101020408102040808040FD
:1002300020100804020180040201804020100804FC
:10024000020108040201010204081020408001029A
:1002500004081020408000000A0B02090C0D0E0853
:10026000070304010000000000000000000000007F
:10027000000000000000000000000000000000007E
:10028000000012111000000000000000000000003B
:10029000000000000000000000000000441F041DDA
:1002A000671B2A1A2B195718A21706177B16001658
:1002B00092152D15D1147C142E14E513A11362137D
:1002C0002613ED12B812851255122712FC11D21105
:1002D000AA1184115F113B111911F810D910BA102D
:1002E0009C108010641049102F101510FC0FE40FA3
:1002F000CD0FB60FA00F8A0F750F610F4C0F390F7E
:10030000250F130F000FEE0EDD0ECB0EBA0EAA0E48
:10031000990E890E7A0E6A0E5B0E4C0E3E0E2F0E53
:10032000210E130E060EF80DEB0DDE0DD10DC50DD1
:10033000B80DAC0DA00D940D880D7D0D710D660DE1
:100340005B0D500D450D3B0D300D260D1B0D110D98
:10035000070DFD0CF30CEA0CE00CD70CCD0CC40C13
:10036000BB0CB20CA90CA00C980C8F0C860C7E0C4C
:10037000760C6D0C650C5D0C550C4D0C450C3D0C54
:10038000350C2E0C260C1F0C170C100C080C010C35
:10039000FA0BF30BEC0BE50BDE0BD70BD00BC90BF9
:1003A000C20BBC0BB50BAE0BA80BA10B9B0B950B9B
:1003B0008E0B880B820B7B0B750B6F0B690B630B22
:1003C0005D0B570B510B4C0B460B400B3A0B350B8F
:1003D0002F0B290B240B1E0B190B130B0E0B080BE9
:1003E000030BFE0AF80AF30AEE0AE90AE40ADE0A37
:1003F000D90AD40ACF0ACA0AC50AC00ABB0AB60A71
:10040000B10AAD0AA80AA30A9E0A990A950A900A97
:100410008B0A870A820A7E0A790A740A700A6B0AB2
:10042000670A620A5E0A5A0A550A510A4C0A480AC1
:10043000440A400A3B0A370A330A2F0A2A0A260AC4
:10044000220A1E0A1A0A160A120A0E0A0A0A060ABC
:10045000020AFE09FA09F609F209EE09EA09E609B3
:10046000E209DE09DA09D709D309CF09CB09C8099E
:10047000C409C009BC09B909B509B109AE09AA097D
:10048000A609A3099F099B099809940991098D0957
:100490008A09860983097F097C0978097509710928
:1004A0006E096B096709640960095D095A095609F3
:1004B000530950094C094909460942093F093C09B9
:1004C0003909350932092F092C0929092509220979
:1004D0001F091C091909160912090F090C09090934
:1004E000060903090009FD08FA08F708F408F108ED
:1004F000ED08EA08E708E408E108DE08DB08D908A7
:10050000D608D308D008CD08CA08C708C408C1084F
:10051000BE08BB08B808B508B308B008AD08AA08FB
:10052000A708A408A1089F089C08990896089308A2
:1005300091088E088B0888088608830880087D0843
:100540007B0878087508720870086D086A086808E2
:10055000650862085F085D085A0857085508520880
:100560004F084D084A0848084508420840083D0819
:100570003A0838083508330830082E082B082808B0
:100580002608230821081E081C0819081708140843
:1005900011080F080C080A080708050802080008D7
:1005A000FD07FB07F807F607F307F107EE07EC076F
:1005B000EA07E707E507E207E007DD07DB07D807FB
:1005C000D607D407D107CF07CC07CA07C707C50787
:1005D000C307C007BE07BB07B907B707B407B20711
:1005E000B007AD07AB07A807A607A407A1079F0799
:1005F0009D079A0798079607930791078F078C071F
:100600008A0788078507830781077E077C077A07A3
:1006100078077507730771076E076C076A07670726
:100620006507630761075E075C075A0758075507A8
:10063000530751074F074C074A0748074607430728
:1006400041073F073D073A073807360734073107A8
:100650002F072D072B072907260724072207200726
:100660001D071B07190717071507120710070E07A5
:100670000C070A070707050703070107FF06FC0623
:10068000FA06F806F606F406F206EF06ED06EB06A5
:10069000E906E706E506E206E006DE06DC06DA061F
:1006A000D806D506D306D106CF06CD06CB06C8069A
:1006B000C606C406C206C006BE06BC06B906B70614
:1006C000B506B306B106AF06AD06AA06A806A6068D
:1006D000A406A206A0069E069C0699069706950605
:1006E000930691068F068D068B068806860684067D
:1006F000820680067E067C067A06770675067306F5
:1007000071066F066D066B0669066606640662066C
:1007100060065E065C065A065806560653065106E3
:100720004F064D064B06490647064506430640065A
:100730003E063C063A0638063606340632063006D1
:100740002D062B06290627062506230621061F0649
:100750001D061A06180616061406120610060E06C0
:100760000C060A060706050603060106FF05FD0539
:10077000FB05F905F605F405F205F005EE05EC05B7
:10078000EA05E805E505E305E105DF05DD05DB052F
:10079000D905D705D405D205D005CE05CC05CA05A7
:1007A000C805C605C305C105BF05BD05BB05B9051F
:1007B000B705B405B205B005AE05AC05AA05A70599
:1007C000A505A305A1059F059D059B059805960513
:1007D0009405920590058E058B058905870585058D
:1007E000830581057E057C057A0578057605730508
:1007F00071056F056D056B05680566056405620585
:1008000060055D055B055905570555055205500501
:100810004E054C05490547054505430541053E057F
:100820003C053A0538053505330531052F052C05FE
:100830002A0528052605230521051F051C051A057F
:1008400018051605130511050F050C050A05080501
:10085000060503050105FF04FC04FA04F804F50489
:10086000F304F104EE04EC04EA04E704E504E30411
:10087000E004DE04DB04D904D704D404D204D00499
:10088000CD04CB04C804C604C404C104BF04BC0422
:10089000BA04B804B504B304B004AE04AB04A904AC
:1008A000A604A404A1049F049D049A04980495043A
:1008B000930490048E048B048904860483048104C9
:1008C0007E047C0479047704740472046F046C045D
:1008D0006A046704650462045F045D045A045804F2
:1008E0005504520450044D044A044804450442048B
:1008F00040043D043A043704350432042F042D0427
:100900002A042704240421041F041C0419041604C7
:10091000130411040E040B0408040504020400046B
:10092000FD03FA03F703F403F103EE03EB03E8031B
:10093000E503E203DF03DC03D903D603D303D003CB
:10094000CD03CA03C703C403C103BE03BB03B7037C
:10095000B403B103AE03AB03A803A403A1039E0336
:100960009B039703940391038E038A0387038403F5
:1009700080037D037903760373036F036C036803BD
:10098000650361035E035A03570353034F034C038C
:100990004803440341033D033903360332032E0366
:1009A0002A03260323031F031B03170313030F0349
:1009B0000B0307030303FF02FB02F702F302EE023D
:1009C000EA02E602E202DD02D902D502D002CC023E
:1009D000C702C302BE02BA02B502B102AC02A7024C
:1009E000A3029E02990294028F028A02850280026B
:1009F0007B02760271026C02660261025C025602A0
:100A000051024B02460240023A0234022F022902EE
:100A100023021D02160210020A020402FD01F70160
:100A2000F001E901E201DC01D501CD01C601BF0100
:100A3000B701B001A801A0019801900188018001CF
:100A400077016E0165015C0153014A0140013601E5
:100A50002C01220117010C010101F500EA00DD0063
:100A6000D100C400B600A9009A008B007C006C0085
:100A70005B004900370023000F00F9FF0000211040
:100A8000422063308440A550C660E77008812991F8
:100A90004AA16BB18CC1ADD1CEE1EFF131121002A0
:100AA00073325222B5529442F772D6623993188348
:100AB0007BB35AA3BDD39CC3FFF3DEE3622443346C
:100AC00020040114E664C774A44485546AA54BB598
:100AD00028850995EEE5CFF5ACC58DD55336722640
:100AE00011163006D776F6669556B4465BB77AA7E8
:100AF00019973887DFF7FEE79DD7BCC7C448E5588C
:100B00008668A7784008611802282338CCC9EDD937
:100B10008EE9AFF9488969990AA92BB9F55AD44ADF
:100B2000B77A966A711A500A333A122AFDDBDCCB87
:100B3000BFFB9EEB799B588B3BBB1AABA66C877CAB
:100B4000E44CC55C222C033C600C411CAEED8FFDD7
:100B5000ECCDCDDD2AAD0BBD688D499D977EB66E7F
:100B6000D55EF44E133E322E511E700E9FFFBEEF27
:100B7000DDDFFCCF1BBF3AAF599F788F8891A981E9
:100B8000CAB1EBA10CD12DC14EF16FE18010A100D3
:100B9000C230E3200450254046706760B9839893C3
:100BA000FBA3DAB33DC31CD37FE35EF3B102901223
:100BB000F322D2323542145277625672EAB5CBA58F
:100BC000A89589856EF54FE52CD50DC5E234C32473
:100BD000A01481046674476424540544DBA7FAB763
:100BE0009987B8975FE77EF71DC73CD7D326F236C3
:100BF0009106B01657667676154634564CD96DC9AF
:100C00000EF92FE9C899E9898AB9ABA94458654812
:100C100006782768C018E1088238A3287DCB5CDB02
:100C20003FEB1EFBF98BD89BBBAB9ABB754A545A62
:100C3000376A167AF10AD01AB32A923A2EFD0FEDCE
:100C40006CDD4DCDAABD8BADE89DC98D267C076CB2
:100C5000645C454CA23C832CE01CC10C1FEF3EFFA2
:100C60005DCF7CDF9BAFBABFD98FF89F176E367E02
:100C7000554E745E932EB23ED10EF01E0000210040
:100C8000240027002A002D0030003300010100005D
:100C9000040107010A0100002200250028002B00A2
:100CA0002E003100340002010000050108010B0193
:100CB000368411241FBECFEFD1E2DEBFCDBF00E0EE
:100CC0000CBF12E0A0E0B2E0ECEFFEE001E00BBFF1
:100CD00002C007900D92AC37B107D9F722E1ACE71B
:100CE000B2E001C01D92A53EB207E1F716E0C9E5EA
:100CF000D6E000E006C021970109802FFE010E9486
:100D00003B87C835D10780E00807A9F70E943673F2
:100D10000C946F8775C94F925F926F927F928F92FA
:100D20009F92AF92BF92CF92DF92EF92FF920F937A
:100D30001F93CF93DF93CDB7DEB7CC5BD2400FB616
:100D4000F894DEBF0FBECDBF8091DF109091E01010
:100D50008B3109E0900709F435C208F446C08335A9
:100D6000A9E09A0709F4E8C108F0A8C08533E9E0D2
:100D70009E0709F49EC18B34994009F071C280919D
:100D8000C10A9091C20A892BB9F482E090E0909355
:100D9000C20A8093C10A1092B0041092AF048091ED
:100DA000E5108F5F09F481E08093E51083E599E019
:100DB0009093E0108093DF1081E0C454DD4F0FB6B4
:100DC000F894DEBF0FBECDBFDF91CF911F910F9181
:100DD000FF90EF90DF90CF90BF90AF909F908F905B
:100DE0007F906F905F904F900895893D28E0920723
:100DF00009F4E1C008F4D6C0853E48E0940709F440
:100E000001C18930994009F02BC2E0911610409140
:100E10001510E41709F418C481E08E0F80931610A2
:100E2000F0E0EB5EF04F80818093EB102091E710B3
:100E30003091E8102827022E2295207F2025032EAE
:100E4000322F22952F700226269532272327220F34
:100E5000220F220F20253093E8102093E7102091D5
:100E6000E9103091EA1090E001972817390708F44B
:100E70006BC2782F8093EC10281B31093093EA1055
:100E80002093E910772309F461C2672F713108F0CC
:100E900060E16093ED108BE199E09093E010809316
:100EA000DF1080911610942F981B961708F494C2A7
:100EB0007091EC10761B7093EC1097C18D3509E0A2
:100EC000900709F4BFC08336994009F0C9C1609109
:100ED000E9107091EA108091161090911510981BEE
:100EE000562F23E0260F921708F446C2662309F412
:100EF000A9C490E02091E7103091E810DC01AB5ECE
:100F0000B04FFD0101964FEF460F840F911D8B5E90
:100F1000904F41912427022E2295207F2025032ED9
:100F2000322F22952F700226269532272327220F53
:100F3000220F220F2025E817F90759F73093E81000
:100F40002093E710890181E0850F9D01280F311D55
:100F5000F901808192E0950F9D01290F311DF90162
:100F60003081A60FB11D9C91933009F425C49430B3
:100F700009F4EAC3923009F4E8C390E0932B801798
:100F8000910709F4E4C36091E51085E00E943E7288
:100F900010921610109215101092E0101092DF109F
:100FA00081E00BCF892B09F05BC189ED98E090932C
:100FB000E0108093DF10E0911610809115108E17CD
:100FC00009F4FACE81E08E0F80931610F0E0EB5E0C
:100FD000F04F808181112DC00E94EA566093E1108C
:100FE0007093E2108093E3109093E4108FEF9FEFE3
:100FF0009093E8108093E71085EE98E09093E010CE
:101000008093DF1040911510942FE0911610842FDB
:101010008E1B823008F42CC181E08E0F8093161055
:10102000AE2FB0E0AB5EB04F2C9120932503211181
:101030003BC310921610109215101092E0101092EF
:10104000DF10BACE90911510E09116109E1709F49A
:10105000FDC181E08E0FF0E0981B80931610EB5ECF
:10106000F04F60812091E7103091E8102627022E82
:101070002295207F2025032E322F22952F700226C5
:10108000269532272327220F220F220F2025309367
:10109000E8102093E71070E0615071097093EA1036
:1010A0006093E91023E639E03093E0102093DF10DD
:1010B00017CF40911510E0911610842F8E1B8330AE
:1010C00008F460C2AE2FB0E0AB5EB04F9C91A1E0DF
:1010D000AE0FB0E0AB5EB04F8C9123E02E0F2093AB
:1010E0001610EE5FF0E0EB5EF04F30816091E7109C
:1010F0007091E810933009F437C1943009F44AC371
:10110000923009F448C390E0932B6817790709F4EB
:1011100044C36091E51085E00E943E721092161063
:10112000109215101092B2061092B1061092E010B3
:101130001092DF1081E041CE8091C10A9091C20AE5
:10114000029709F439CE8FEF9FEF90939A04809322
:1011500099048091930490919404282F291B2F3F88
:1011600009F404C1E1E0E80FA82FB0E0AF56BC4F8E
:1011700012961C922E2F291B2F3F09F4F7C0F0E086
:10118000EF56FC4F26E0228322E0280F422F50E04A
:1011900050939C0440939B04291B2F3F09F4E6C005
:1011A0008D5F80939304FA01EF56FC4F21E0228378
:1011B000891B8F3F09F4DAC0809197048F5F809379
:1011C00097043BCF6091ED1080911610409115105F
:1011D000942F981B961708F4FFC07091EC10761BA3
:1011E0007093EC10662309F44DCE0091B106109176
:1011F000B2062091E7103091E810D801AF54BB4FF0
:10120000562F580FE82FF0E0EB5EF04F90819D9342
:101210002927022E2295207F2025032E322F22956A
:101220002F700226269532272327220F220F220F06
:1012300020258F5F8513E6CF8093161090932503AA
:101240000F5F1F4F6150060F111D1093B2060093E0
:10125000B1063093E8102093E7101092ED1012CEF3
:101260008FEF9FEF9093E0108093DF1080E0A5CD8B
:101270000E94EA560091E1101091E2102091E310D3
:101280003091E410DC01CB01801B910BA20BB30B5E
:101290008B3F9105A105B10508F48ECD8091E51035
:1012A0002FEF3FEF30939A04209399049091930489
:1012B00020919404392F321B3F3F41F1E1E0E90FC7
:1012C000E0939304A92FB0E0AF56BC4F12961C9246
:1012D0003E2F321B3F3FD1F032E0390F3093930461
:1012E000F0E0EF56FC4F48E04283432F50E050932C
:1012F0009C0440939B04321B3F3F41F09D5F9093C1
:101300009304FA01EF56FC4F91E092830E94B06F74
:101310008091930490919404891B8F3F09F456C2E5
:101320008091990490919A048F3F2FEF920731F0AA
:101330009927FC01EF56FC4F8FEF82838091970431
:101340008F5F8093970475CEC90193CD8091E9108A
:101350009091EA10009709F03FC285E399E09093DD
:10136000E0108093DF10A7CE8E7FCDCE80919B04BE
:1013700082508093930461CE0E94EA560091E1105E
:101380001091E2102091E3103091E410DC01CB01C8
:10139000801B910BA20BB30B8B3F9105A105B105EF
:1013A00008F40ACD1091E51088E00E94BC70812FEE
:1013B0000E94B06F8091930490919404891B8F3F99
:1013C00009F404C28091990490919A048F3FFFEF31
:1013D0009F0709F0ADCFB2CF0E94EA560091E1100D
:1013E0001091E2102091E3103091E410DC01CB0168
:1013F000801B910BA20BB30B8B3F9105A105B1058F
:1014000008F4DACC1091E51088E00E94BC70812FBE
:101410000E94B06F8091930490919404891B8F3F38
:1014200009F4CEC18091990490919A048F3F4FEFB7
:10143000940731F09927FC01EF56FC4F8FEF828320
:10144000809197048F5F8093970468CE0E94EA563C
:101450000091E1101091E2102091E3103091E4101E
:10146000DC01CB01801B910BA20BB30B8B3F9105D1
:10147000A105B10508F4A0CC3091E5104FEF5FEF66
:101480008091930420919404982F921B9F3F11F414
:101490000C943618E1E0E80FE0939304A82FB0E035
:1014A000AF56BC4F12961C929E2F921B9F3F11F479
:1014B0000C94511892E0980F90939304F0E0EF563B
:1014C000FC4F68E06283692F70E070939C04609326
:1014D0009B04E92FE21BEF3F11F40C94031A93E0F5
:1014E000980F90939304FB01EF56FC4FDD24D394A7
:1014F000D282A92FB0E0B0939A04A0939904921BD2
:101500009F3F11F40C9461188C5F809393048D01BC
:101510000F561C4F7801D8011296DC92182F121B1F
:1015200092819F5F9283332309F495C1D70112966C
:101530009C9112979F5F12969C931F3F11F40C94FD
:101540006E1891E0980F90939304482F50E04F56F7
:101550005C4FDA0112963C9382818F5F8283921BEB
:101560009F3F09F47FC18FEFF70182838091970439
:101570008F5F80939704109215109FEFE0E0F0E0EA
:1015800081E06BCD0E94EA560091E1101091E210CB
:101590002091E3103091E410DC01CB01801B910B12
:1015A000A20BB30B8B3F9105A105B10508F404CC48
:1015B0008091E5102FEF3FEF30939A042093990428
:1015C0009091930420919404392F321B3F3F41F1B5
:1015D000E1E0E90FE0939304A92FB0E0AF56BC4FD0
:1015E00012961C923E2F321B3F3FD1F032E0390F52
:1015F00030939304F0E0EF56FC4F48E04283432FD2
:1016000050E050939C0440939B04321B3F3F41F0B9
:101610009D5F90939304FA01EF56FC4F91E0928303
:101620000E94B06F8091930490919404891B8F3F26
:1016300009F4C6C08091990490919A048F3F5FEF9E
:10164000950709F0F7CEFCCE0E94EA560091E11012
:101650001091E2102091E3103091E410DC01CB01F5
:10166000801B910BA20BB30B8B3F9105A105B1051C
:1016700008F4A2CB1091E51088E00E94BC70812F85
:101680000E94B06F8091930490919404891B8F3FC6
:1016900009F496C08091990490919A048F3F3FEF8E
:1016A000930709F0C7CECCCE6091E7107091E81097
:1016B0006227062E6295607F6025072E762F629541
:1016C0006F700626669576276727660F660F660F8A
:1016D00060257093E8106093E710EE5FE0931610BA
:1016E000A82FB0E0AB5EB04F8C918093E6108823BA
:1016F00009F49FCC6827062E6295607F6025072E2F
:10170000762F62956F700626669576276727660F97
:10171000660F660F60257093E8106093E71087FFEF
:1017200002C00C9459186091E510261347C080E060
:1017300092E09093EA108093E91089E099E0909309
:10174000E0108093DF1065CB8E7F3E7F16CC20911A
:10175000E610233809F45EC06091E51080912503FE
:1017600068132CC06F5F11F40C9431186093E5106E
:101770005093171010921810822F90E0FC01E0583F
:10178000F109E234F10508F471C0622F81E00E9492
:101790003E724FCC8E7F3E7FB6CC241731F060E195
:1017A00072E087E499E00E94BF4A8BE499E090934D
:1017B000E0108093DF10E3CA8E7FDFCB87E0E6CBBB
:1017C00080919B04825080939304A8CC80919B04C9
:1017D0008250809393042DCC2091EB102F3FB9F0D1
:1017E0002091B1063091B206B9016F5F7F4F7093BF
:1017F000B2066093B106F901ED55FB4F16860197CD
:101800009093EA108093E910892B09F4A6CDE0911A
:10181000161093CF81E08093E5105093171010922B
:1018200018100E94FD718091151090911610891B5F
:10183000833008F0FECB60E172E087ED9AE00E9411
:10184000BF4AF7CB0091E7101091E81090E0DC015F
:10185000AB5EB04F78CB50939A04409399041F3FEE
:1018600009F084CE62506093930485CE8827EE58A9
:10187000FF4F8F4F0C943B870E947B860E94007322
:101880000E94FD71D0CF0E940073182F0E94007338
:10189000282F30E0322F2227C901810F911D90930C
:1018A0000102809300020E940073843611F00C94B0
:1018B0009C1A0EEE10E10E947B86F80181939193B1
:1018C0008F01F1E1063B1F07B1F761E084EA0E9456
:1018D0003E72A9CF81EA0E94BC708091EA110E94F9
:1018E000B06F80918D0390918E03C755DD4F888333
:1018F000C95AD240C655DD4F9883CA5AD2400E9479
:10190000B06FC655DD4F8881CA5AD2400E94B06F71
:1019100080918B0390918C03C555DD4F8883CB5A02
:10192000D240C455DD4F9883CC5AD2400E94B06F4C
:10193000C455DD4F8881CC5AD2400E94B06F80914F
:10194000B7069091B806A091B906B091BA06409139
:10195000BB0A5091BC0A6091BD0A7091BE0A841BFB
:10196000950BA60BB70BC558DD4F88839983AA83C7
:10197000BB83CB57D2400E94B06FC458DD4F8881E3
:10198000CC57D2400E94B06FC358DD4F8881CD57ED
:10199000D2400E94B06FC258DD4F8881CE57D240EE
:1019A0000E94B06F8091B7063091B8062091B906B9
:1019B0009091BA06C158DD4F8883CF57D240C058A6
:1019C000DD4F3883C058D240CF57DD4F2883C158F0
:1019D000D240CE57DD4F9883C258D2400E94B06F9C
:1019E000C058DD4F8881C058D2400E94B06FCF5799
:1019F000DD4F8881C158D2400E94B06FCE57DD4F75
:101A00008881C258D2400E94B06F8091821290911A
:101A100083122091841230918512821B930BC3553F
:101A2000DD4F99838883CD5AD2400E94B06FC25552
:101A3000DD4F8881CE5AD2400E94B06F8091060F50
:101A40009091070F891B90E0A0E0B0E0CD57DD4FEB
:101A500088839983AA83BB83C358D2400E94B06F06
:101A6000CC57DD4F8881C458D2400E94B06FCB570D
:101A7000DD4F8881C558D2400E94B06FCA57DD4FF4
:101A80008881C658D2400E94B06F8091EE1190912B
:101A9000EF11C155DD4F8883CF5AD240C055DD4F7D
:101AA0009883C05BD2400E94B06FC055DD4F8881E3
:101AB000C05BD2400E94B06F8091DF129091E01223
:101AC000CF54DD4F8883C15BD240CE54DD4F988325
:101AD000C25BD2400E94B06FCE54DD4F8881C25BA2
:101AE000D2400E94B06F8091DD129091DE12CD54F1
:101AF000DD4F8883C35BD240CC54DD4F9883C45BF9
:101B0000D2400E94B06FCC54DD4F8881C45BD2407C
:101B10000E94B06F9091AB108091AC10811101C008
:101B2000892F0E94B06F80E290E0CB54DD4F998303
:101B30008883C55BD2400E94B06FCA54DD4F888154
:101B4000C65BD2400E94B06F80E094E0C954DD4F84
:101B500099838883C75BD24080E00E94B06FC854ED
:101B6000DD4F8881C85BD2400E94B06F8091210315
:101B7000309122032091230390912403C957DD4F14
:101B80008883C758D240C857DD4F3883C858D240E1
:101B9000C757DD4F2883C958D240C657DD4F9883B9
:101BA000CA58D2400E94B06FC857DD4F8881C858CC
:101BB000D2400E94B06FC757DD4F8881C958D240CC
:101BC0000E94B06FC657DD4F8881CA58D2400E942C
:101BD000B06F8091E5110E94B06F8091E6119091F5
:101BE000E711C754DD4F8883C95BD240C654DD4F2F
:101BF0009883CA5BD2400E94B06FC654DD4F888183
:101C0000CA5BD2400E94B06F8091E8119091E911B7
:101C1000C554DD4F8883CB5BD240C454DD4F9883DD
:101C2000CC5BD2400E94B06FC454DD4F8881CC5B46
:101C3000D2400E94B06F8091930490919404891BCC
:101C40008F3F11F40C94FC198091990490919A049F
:101C50008F3F3FEF930731F09927FC01EF56FC4F80
:101C60008FEF8283809197048F5F80939704DBCD01
:101C70008FE90E94BC70809115033091160320916A
:101C8000170390911803CF5FDD4F8883C150D24076
:101C9000CE5FDD4F3883C250D240CD5FDD4F288309
:101CA000C350D240CC5FDD4F9883C450D2400E94D5
:101CB000B06FCE5FDD4F8881C250D2400E94B06FBE
:101CC000CD5FDD4F8881C350D2400E94B06FCC5FA2
:101CD000DD4F8881C450D2400E94B06F80911903BB
:101CE00030911A0320911B0390911C03CF5BDD4FB1
:101CF0008883C154D240CE5BDD4F3883C254D2407A
:101D0000CD5BDD4F2883C354D240CC5BDD4F98833D
:101D1000C454D2400E94B06FCE5BDD4F8881C25464
:101D2000D2400E94B06FCD5BDD4F8881C354D2405A
:101D30000E94B06FCC5BDD4F8881C454D2400E94BA
:101D4000B06F80911D0330911E0320911F0390916D
:101D50002003CA5BDD4F8883C654D240C95BDD4F88
:101D60003883C754D240C85BDD4F2883C854D24063
:101D7000C75BDD4F9883C954D2400E94B06FC95BE6
:101D8000DD4F8881C754D2400E94B06FC85BDD4FE1
:101D90008881C854D2400E94B06FC75BDD4F8881F4
:101DA000C954D2400E94B06F809121033091220328
:101DB0002091230390912403C55BDD4F8883CB548E
:101DC000D240C45BDD4F3883CC54D240C35BDD4F7F
:101DD0002883CD54D240C25BDD4F9883CE54D2408D
:101DE0000E94B06FC45BDD4F8881CC54D2400E940A
:101DF000B06FC35BDD4F8881CD54D2400E94B06F7D
:101E0000C25BDD4F8881CE54D2400E94B06F80917A
:101E1000930490919404891B8F3F11F40C94FC1946
:101E20008091990490919A048F3F4FEF940709F0A5
:101E300013CF18CF8EE90E94BC708091DF12909171
:101E4000E012CD55DD4F8883C35AD240CC55DD4FCB
:101E50009883C45AD2400E94B06FCC55DD4F888120
:101E6000C45AD2400E94B06F8091DD129091DE1270
:101E7000CB55DD4F8883C55AD240CA55DD4F988374
:101E8000C65AD2400E94B06FCA55DD4F8881C65AEB
:101E9000D2400E94B06FC955DD4F19821882C75ACF
:101EA000D24080E00E94B06FC855DD4F8881C85A8B
:101EB000D2400E94B06F8091930490919404891B4A
:101EC0008F3F11F40C94FC198091990490919A041D
:101ED0008F3F5FEF950709F0BFCEC4CE8DE90E941A
:101EE000BC7080918D0390918E03C356DD4F888323
:101EF000CD59D240C256DD4F9883CE59D2400E9470
:101F0000B06FC256DD4F8881CE59D2400E94B06F6B
:101F100080918B0390918C03C156DD4F8883CF59FC
:101F2000D240C056DD4F9883C05AD2400E94B06F55
:101F3000C056DD4F8881C05AD2400E94B06FCF5545
:101F4000DD4F19821882C15AD24080E00E94B06FE2
:101F5000CE55DD4F8881C25AD2400E94B06F809129
:101F6000930490919404891B8F3F11F40C94FC19F5
:101F70008091990490919A048F3FAFEF9A0709F0EE
:101F80006BCE70CE0E94EA6E1092B6116FE770E0D1
:101F90008DE00E947B541092EB111092EA110E9486
:101FA000FD7141CC88E90E94BC70E0918302F09100
:101FB0008402908180918202982381E009F080E080
:101FC0000E94B06F80911503309116032091170382
:101FD00090911803C05BDD4F8883C055D240CF5A23
:101FE000DD4F3883C155D240CE5ADD4F2883C255CC
:101FF000D240CD5ADD4F9883C355D2400E94B06F76
:10200000CF5ADD4F8881C155D2400E94B06FCE5A61
:10201000DD4F8881C255D2400E94B06FCD5ADD4F4E
:102020008881C355D2400E94B06FE0918002F09148
:102030008102908180917F02982381E009F080E005
:102040000E94B06F8091190330911A0320911B03F5
:1020500090911C03CB5ADD4F8883C555D240CA5A94
:10206000DD4F3883C655D240C95ADD4F2883C75546
:10207000D240C85ADD4F9883C855D2400E94B06FF5
:10208000CA5ADD4F8881C655D2400E94B06FC95AE6
:10209000DD4F8881C755D2400E94B06FC85ADD4FCE
:1020A0008881C855D2400E94B06FE0917D02F091C6
:1020B0007E02908180917C02982381E009F080E08B
:1020C0000E94B06F80911D0330911E0320911F0369
:1020D00090912003C65ADD4F8883CA55D240C55A15
:1020E000DD4F3883CB55D240C45ADD4F2883CC55C1
:1020F000D240C35ADD4F9883CD55D2400E94B06F75
:10210000C55ADD4F8881CB55D2400E94B06FC45A6A
:10211000DD4F8881CC55D2400E94B06FC35ADD4F4D
:102120008881CD55D2400E94B06F80E00E94B06F90
:10213000C15ADD4F188219821A821B82CF55D240B4
:1021400080E00E94B06FC05ADD4F8881C056D240F7
:102150000E94B06FCF59DD4F8881C156D2400E9496
:10216000B06FCE59DD4F8881C256D24062CD87E92B
:102170000E94BC708091B6110E94B06F8091930450
:1021800090919404891B8F3F11F40C94FC19809159
:10219000990490919A048F3F2FEF920709F05CCD3C
:1021A00061CD1092E0121092DF128091DD129091B9
:1021B000DE12892B19F510929F101092A010109228
:1021C000A1101092A21080918B0390918C03919595
:1021D00081959109092E000CAA0BBB0B8093A310CB
:1021E0009093A410A093A510B093A6101092A710DE
:1021F0001092A8101092A9101092AA101092DE123C
:102200001092DD121092DE108091DF129091E01298
:10221000892B19F510929F101092A0101092A11006
:102220001092A21080918B0390918C0391958195CF
:102230009109092E000CAA0BBB0B8093A31090935D
:10224000A410A093A510B093A6101092A7101092FE
:10225000A8101092A9101092AA101092E0121092D9
:10226000DF1280916F008D7F80936F0080916F00EF
:102270008B7F80936F0081E090E09093EB118093CF
:10228000EA111092ED111092EC110E943459109243
:10229000F1111092F2111092F3111092F41160E00A
:1022A00070E087E00E947B540E94FD71BCCA0E94CE
:1022B00000731092F1111092F2111092F31110921A
:1022C000F411682F70E087E00E947B540E94FD713A
:1022D000AACA0E94C2866B017C018091EA1190918A
:1022E000EB11019731F060E172E08BED96E00E9416
:1022F000BF4A81E090E0A0E0B0E08093DD119093D0
:10230000DE11A093DF11B093E011C092E111D092E1
:10231000E211E092E311F092E41182E090E09093F8
:10232000EB118093EA110E94FD717DCA87E80E943B
:10233000BC70BE016F5F7F4F83EA94E00E94D17151
:10234000882349F08981807C11F40C94D71A803459
:1023500011F40C94AC1A80E090E0DC010197A10923
:10236000B109CD56DD4F88839983AA83BB83C359B6
:10237000D2400E94B06FCC56DD4F8881C459D24004
:102380000E94B06FCB56DD4F8881C559D2400E9464
:10239000B06FCA56DD4F8881C659D2400E94B06FD7
:1023A0008091930490919404891B8F3F11F40C94B5
:1023B000FC198091990490919A048F3F0FEF900738
:1023C00009F04ACC4FCC0E940073182F0E947B86E4
:1023D00040E0BC01812F0E94C2710E94FD7123CA9E
:1023E0000E9489862B013C010E9489864B015C0179
:1023F0000E9489866B017C010E9489860E948986E1
:1024000081E08093B61140921503509216036092BA
:102410001703709218038092190390921A03A092E6
:102420001B03B0921C03C0921D03D0921E03E092C6
:102430001F03F092200324CA81EC0E94BC7081E04B
:102440000E94B06F61E08CE192E00E9406706AE049
:102450008EE192E00E9406702ECD0E940073082F3C
:1024600010E00115110511F40C94071B8091EA117D
:102470009091EB11019731F060E172E08AE696E00D
:102480000E94BF4A83E090E09093EB118093EA11A1
:102490001093ED110093EC118FEF8093E5111092E2
:1024A000E9111092E8111092E7111092E61187E0FD
:1024B0000E943E861092EF111092EE11013011052C
:1024C00011F40C94331B80ED97E090938900809376
:1024D000880080916F00826080936F00D1C98091E5
:1024E000EA119091EB11029734F060E172E085E01F
:1024F00096E00E94BF4A1092BD110E94345981E0BB
:1025000090E09093EB118093EA116FEF70E08DE013
:102510000E947B5480E094E0A0E0B0E08093D91169
:102520009093DA11A093DB11B093DC110E94FD713E
:102530007AC90E94C2866093D9117093DA11809390
:10254000DB119093DC1121E0611574408105910548
:1025500011F40C94481B2093D8110E94FD7163C99B
:102560000E94C2866093F7117093F8118093F9115D
:102570009093FA110E94EA56DC01CB010A96A11D44
:10258000B11D8093FB119093FC11A093FD11B093AA
:10259000FE110E94FD7147C90E9489868091C10A7F
:1025A0009091C20A892B11F00C94561B60E172E0E5
:1025B00083E798E00E94BF4A83EA94E00E944C4C73
:1025C0008111FACF8EEB0E94BC70809193049091A0
:1025D0009404891B8F3F11F40C944F1B8091990434
:1025E00090919A048F3F0FEF900731F09927FC01EB
:1025F000EF56FC4F8FEF8283809197048F5F80931B
:1026000097043EC98DEB0E94BC700AEC1AE0D80119
:102610008C9111963C91119712962C9112971396CA
:102620009C91CD59DD4F8883C356D240CC59DD4FA4
:102630003883C456D240CB59DD4F2883C556D2408B
:10264000CA59DD4F9883C656D2400E94B06FCC590C
:10265000DD4F8881C456D2400E94B06FCB59DD4F08
:102660008881C556D2400E94B06FCA59DD4F88811B
:10267000C656D2400E94B06FF80184813581268110
:102680009781C959DD4F8883C756D240C859DD4F5D
:102690003883C856D240C759DD4F2883C956D24027
:1026A000C659DD4F9883CA56D2400E94B06FC859B0
:1026B000DD4F8881C856D2400E94B06FC759DD4FA8
:1026C0008881C956D2400E94B06FC659DD4F8881BB
:1026D000CA56D2400E94B06FD80118968C911897B4
:1026E00019963C9119971A962C911A971B969C91C2
:1026F000C559DD4F8883CB56D240C459DD4F38834E
:10270000CC56D240C359DD4F2883CD56D240C25952
:10271000DD4F9883CE56D2400E94B06FC459DD4F32
:102720008881CC56D2400E94B06FC359DD4F88815A
:10273000CD56D2400E94B06FC259DD4F8881CE562F
:10274000D2400E94B06F005F1F4FBBE00A301B07F2
:1027500009F05DCF8091930490919404891B8F3F81
:1027600009F44AC68091990490919A048F3FEFEF43
:102770009E0709F071CA76CA8CEB0E94BC7005E80E
:1027800012E0D80114968C91149715963C911597E8
:1027900016962C91169717969C91C159DD4F8883F8
:1027A000CF56D240C059DD4F3883C057D240CF58A2
:1027B000DD4F2883C157D240CE58DD4F9883C25792
:1027C000D2400E94B06FC059DD4F8881C057D240BF
:1027D0000E94B06FCF58DD4F8881C157D2400E9410
:1027E000B06FCE58DD4F8881C257D2400E94B06F83
:1027F000F8018085318522859385CD58DD4F88830A
:10280000C357D240CC58DD4F3883C457D240CB5841
:10281000DD4F2883C557D240CA58DD4F9883C6572D
:10282000D2400E94B06FCC58DD4F8881C457D2404F
:102830000E94B06FCB58DD4F8881C557D2400E94AF
:10284000B06FCA58DD4F8881C657D2400E94B06F22
:10285000D8011C968C911C971D963C911D971E9635
:102860002C911E971F969C91C958DD4F8883C7579E
:10287000D240C858DD4F3883C857D240C758DD4FC3
:102880002883C957D240C658DD4F9883CA57D240D3
:102890000E94B06FC858DD4F8881C857D2400E944F
:1028A000B06FC758DD4F8881C957D2400E94B06FC2
:1028B000C658DD4F8881CA57D2400E94B06F005F72
:1028C0001F4FB3E005311B0709F05BCF43CF81E019
:1028D0008093F6110E94FD710C94130C0E94C28625
:1028E0002B013C010E94C2866B017C010E94C286C2
:1028F0004B015C010E940073082F0E940073182F87
:102900000E9400734092C9115092CA116092CB117B
:102910007092CC11C092CD11D092CE11E092CF1115
:10292000F092D0118092D1119092D211A092D31135
:10293000B092D4110093D5111093D6118093D71172
:102940000E94FD710C94130C0E947B867C010E94F6
:102950007B868C010E947B86F092C411E092C311A9
:102960001093C6110093C5119093C8118093C7119D
:102970000E94FD710C94130C0E940073863308F0C2
:10298000865390917B00282F2870977F922B9093ED
:102990007B008770806480937C0080917A008064E3
:1029A00080937A0080917A0086FDFCCF10917800A8
:1029B0000091790088EB0E94BC70812F90E0902BF1
:1029C000092E000CAA0BBB0BC557DD4F88839983DA
:1029D000AA83BB83CB58D2400E94B06FC457DD4F4F
:1029E0008881CC58D2400E94B06FC357DD4F888198
:1029F000CD58D2400E94B06FC257DD4F8881CE586B
:102A0000D240BACB0E940073182F0E940073082F87
:102A100061E0812F0E943A54602F812F0E94EA5278
:102A20000E94FD710C94130C0E940073182F62E039
:102A30000E943A54212F30E0F901EA5AFD4F849167
:102A4000F901E05FFD4F1491F901E653FE4F049147
:102A5000002309F46EC581110E948252E02FF0E03C
:102A6000EE0FFF1FE055FE4FA591B491EC91E123CD
:102A700091E080E009F490E0092F182F86EB0E9486
:102A8000BC70C801110FAA0BBB0BC157DD4F888367
:102A90009983AA83BB83CF58D2400E94B06FC0579E
:102AA000DD4F8881C059D2400E94B06FCF56DD4FB4
:102AB0008881C159D2400E94B06FCE56DD4F8881C7
:102AC000C259D2400E94B06F8091930490919404B7
:102AD000891B8F3F09F490C48091990490919A04C6
:102AE0008F3F1FEF910709F0B7C8BCC881E0809302
:102AF0006F120E94FD710C94130C0E940073082F3A
:102B00000E940073182F682F70E0013009F4C3C5CC
:102B100083E00E947B541093AC100E94FD710C94D2
:102B2000130C80EB0E94BC7010E1C956DD4F198276
:102B30001882C759D24080E00E94B06FC856DD4F5E
:102B40008881C859D2400E94B06FC756DD4F1982A4
:102B50001882C959D24080E00E94B06FC656DD4F3E
:102B60008881CA59D2400E94B06FC556DD4F198284
:102B70001882CB59D24080E00E94B06FC456DD4F1E
:102B80008881CC59D2400E94B06F115071F63FC974
:102B90008FEA0E94BC702091E1123091E212CE01C6
:102BA0002115310509F0B6C4845E92419A83898368
:102BB00089819A81092E000CAA0BBB0B89839A8309
:102BC000AB83BC830E94B06F8A810E94B06F8B81FF
:102BD0000E94B06F8C812DC80E940073F82E0E9455
:102BE0000073E82E0E940073082F10E0102F0027BA
:102BF0000E0D111D21E02F1530F460E172E083EA23
:102C000096E00E94BF4AC80117FDA1C4813F91050B
:102C100034F060E172E084EA96E00E94BF4AEF2D52
:102C2000F0E0EE0FFF1FEA54FE4E128301830E9474
:102C3000FD710C94130C0E947B860E9400730E940D
:102C40007B860E94FD710C94130C0E940073182F58
:102C50000E947B8621E030E03093090F2093080F1B
:102C60001093140F90930B0F80930A0F812F0E94E3
:102C70003E868091020110FD29C582608093020189
:102C800080910B0111FD1EC5846080930B0112FD24
:102C900017C58A9A13FD12C5109A80916F0084603F
:102CA00080936F000E94FD710C94130C0E947B8630
:102CB000009709F435C42FB7F89490930B0F8093C5
:102CC0000A0F2FBF0C94400C0E94EA566093D60A5C
:102CD0007093D70A8093D80A9093D90A8E010F5F18
:102CE0001F4F780110E30E94EA566093C60A709362
:102CF000C70A8093C80A9093C90A20E030E0A9016E
:102D000061E183EA94E00E941B57882309F4B9C269
:102D10001093A3048091A604882321F083EA94E011
:102D20000E941D538091AA0481508093AA04882395
:102D300009F4CAC30E94EA568090C60A9090C70A56
:102D4000A090C80AB090C90ADC01CB018819990982
:102D5000AA09BB098090CA0A9090CB0AA090CC0A1D
:102D6000B090CD0AEFEF8E1A9E0AAE0ABE0A80928C
:102D7000CA0A9092CB0AA092CC0AB092CD0A809057
:102D8000CE0A9090CF0AA090D00AB090D10A880EB7
:102D9000991EAA1EBB1E8092CE0A9092CF0AA092C4
:102DA000D00AB092D10A8090D20A9090D30AA09013
:102DB000D40AB090D50A88169906AA06BB0608F070
:102DC00092CF8093D20A9093D30AA093D40AB0935F
:102DD000D50A89CFCE01865A9D4F0E94FC86CE012E
:102DE0008B5A9D4F0E94FC860E9489864B015C0194
:102DF000CE01805B9D4F0E94FC86CE01855B9D4F7E
:102E00000E94FC86CE018A5B9D4F0E94FC860E9438
:102E100089866B017C01CE018F5B9D4F0E94FC86F1
:102E2000CE018F5F9D4F0E94FC86CE0101960E94CD
:102E3000FC860E947B8625E0FE01E65AFD4FAEEA45
:102E4000B0E101900D922A95E1F725E0FE01EB5AE1
:102E5000FD4FA3EBB0E101900D922A95E1F780922E
:102E6000B8109092B910A092BA10B092BB1025E0A1
:102E7000FE01E05BFD4FACEBB0E101900D922A95B5
:102E8000E1F725E0FE01E55BFD4FA1ECB0E101902B
:102E90000D922A95E1F725E0FE01EA5BFD4FA6ECD5
:102EA000B0E101900D922A95E1F7C092CB10D0923B
:102EB000CC10E092CD10F092CE1025E0FE01EF5B39
:102EC000FD4FAFECB0E101900D922A95E1F725E0BE
:102ED000FE01EF5FFD4FA4EDB0E101900D922A9548
:102EE000E1F725E0FE013196A9EDB0E101900D92E8
:102EF0002A95E1F79093BC118093BB110E94FD715C
:102F00000C94130C0E940073D82E10922503882372
:102F100009F4E8C30E9400738E010F5F1D4FD801B2
:102F20008D935D0181E080932503EE24E394ED0C05
:102F300082E0F82E0CC00E940073D5018D935D01D4
:102F4000F0922503F394B1E4FB1609F4C5C2FE1018
:102F5000F2CFCE0101967C0180E4D7011D928A95C3
:102F6000E9F74D2D50E0B801C7010E9460870E942B
:102F7000EA566093F60A7093F70A8093F80A9093E2
:102F8000F90AEEEF5E2ECC24CA9466246394712C69
:102F9000A7E5DA2E0E94EA566093E60A7093E70AE4
:102FA0008093E80A9093E90A80918F0390919003AF
:102FB000892B09F098C083EA94E00E944753882344
:102FC00009F424C20E94EA568090E60A9090E70A2B
:102FD000A090E80AB090E90ADC01CB0188199909B0
:102FE000AA09BB094091EA0A5091EB0A6091EC0AE8
:102FF0007091ED0A4F5F5F4F6F4F7F4F4093EA0A2A
:103000005093EB0A6093EC0A7093ED0A4091EE0A3C
:103010005091EF0A6091F00A7091F10A480F591F20
:103020006A1F7B1F4093EE0A5093EF0A6093F00AE9
:103030007093F10A8090F20A9090F30AA090F40A3B
:10304000B090F50A88169906AA06BB0608F0A2CF2A
:103050008093F20A9093F30AA093F40AB093F50ACE
:1030600099CF81E08093E5100C94B80BA82FB0E0C5
:1030700060919B0470919C04B0939A04A09399046E
:10308000FB01FF27EF56FC4F92819F5F9283332312
:1030900009F420C31FEFAD014F565C4F7A010C9429
:1030A000960AAE2FB0E060919B0470919C048E2F25
:1030B000E3CF2DE539E03093E0102093DF100C943E
:1030C000260882E08283332309F410C3AF56BC4F35
:1030D00012968C9112978F5F12968C9382818F5FDC
:1030E00082830C94320C83EA94E00E94475381114E
:1030F00069CF20E030E0A9016DE083EA94E00E940E
:103100001B57811108C08FEF8EBD0DB407FEFDCF98
:103110008EB5882331F04091A70469E28CE00E94CB
:1031200021498091A604882321F083EA94E00E943B
:103130001D531092900310928F0385E08093AB048F
:103140000E94EA560091E60A1091E70A2091E80AE7
:103150003091E90ADC01CB01801B910BA20BB30B70
:103160000091EA0A1091EB0A2091EC0A3091ED0AE5
:103170000F5F1F4F2F4F3F4F0093EA0A1093EB0A48
:103180002093EC0A3093ED0A0091EE0A1091EF0AB9
:103190002091F00A3091F10A080F191F2A1F3B1FD6
:1031A0000093EE0A1093EF0A2093F00A3093F10A8D
:1031B0000091F20A1091F30A2091F40A3091F50A75
:1031C000081719072A073B0740F48093F20A9093E7
:1031D000F30AA093F40AB093F50A0E94EA5600910C
:1031E000F60A1091F70A2091F80A3091F90ADC01E9
:1031F000CB01801B910BA20BB30B0091FA0A10912B
:10320000FB0A2091FC0A3091FD0A0F5F1F4F2F4FE0
:103210003F4F0093FA0A1093FB0A2093FC0A309365
:10322000FD0A0091FE0A1091FF0A2091000B3091D7
:10323000010B080F191F2A1F3B1F0093FE0A109352
:10324000FF0A2093000B3093010B0091020B1091A9
:10325000030B2091040B3091050B081719072A075F
:103260003B0740F48093020B9093030BA093040B55
:10327000B093050B8AEA0E94BC7081E00E94B06F97
:1032800069CA40E052E0B70183EA94E00E9499578E
:10329000882309F43FCD8091A604811153C185E0B4
:1032A0008093AA040E94EA560091C60A1091C70AA8
:1032B0002091C80A3091C90ADC01CB01801B910B17
:1032C000A20BB30B0091CA0A1091CB0A2091CC0A31
:1032D0003091CD0A0F5F1F4F2F4F3F4F0093CA0A07
:1032E0001093CB0A2093CC0A3093CD0A0091CE0ADA
:1032F0001091CF0A2091D00A3091D10A080F191FDE
:103300002A1F3B1F0093CE0A1093CF0A2093D00AA6
:103310003093D10A0091D20A1091D30A2091D40A95
:103320003091D50A081719072A073B0740F4809304
:10333000D20A9093D30AA093D40AB093D50A0E94DC
:10334000EA560091D60A1091D70A2091D80A3091F6
:10335000D90ADC01CB01801B910BA20BB30B0091AE
:10336000DA0A1091DB0A2091DC0A3091DD0A0F5F46
:103370001F4F2F4F3F4F0093DA0A1093DB0A209321
:10338000DC0A3093DD0A0091DE0A1091DF0A2091F9
:10339000E00A3091E10A080F191F2A1F3B1F009312
:1033A000DE0A1093DF0A2093E00A3093E10A0091CD
:1033B000E20A1091E30A2091E40A3091E50A081725
:1033C00019072A073B0740F48093E20A9093E30A27
:1033D000A093E40AB093E50A8BEA0E94BC7081E0F6
:1033E0000E94B06F6FE370E0C7010E947187682F81
:1033F000C7010E94067068CB80919B048250809325
:1034000093040C94130CDB01892F36CE20E030E0BE
:10341000A90168E183EA94E00E941B5781116AC008
:10342000D70180E090E02D91E92FFF27E227EE0FF2
:10343000FF1FE458F54F25913491982F8827822754
:103440009327A017B10779F75EBC0DB407FEFDCF37
:1034500029812EBD2A81FE0133960DB407FEFDCFD2
:103460002EBD0E171F0711F02191F7CF0DB407FEE7
:10347000FDCF9EBD0DB407FEFDCF8EBD0DB407FE82
:10348000FDCFCEBC0DB407FEFDCF8EB58093A70453
:103490008F718530B1F1D092A3048091A604882366
:1034A00021F083EA94E00E941D538091AB04815087
:1034B0008093AB04811186CD4091A7046091A30451
:1034C0008CE00E9421497ECD4091A7046091A30425
:1034D00089E00E9421492ECCFE0131967F0180E4D3
:1034E000DF011D928A95E9F7BFE3BD1508F039CDDC
:1034F00040E438CD4091A70462E38CE00E9421496A
:103500008FCF83EA94E00E942E53709290036092D2
:103510008F0358CD0196821B930B9A83898348CBE6
:103520000E94EA6E80916F008B7F80936F000C94F5
:10353000400C00E010E0A2CA62E084EA0E943E7201
:103540000C94130C83EA94E00E941D53A8CE8827A4
:103550009927801B910B5ACB8A8590E0A0E0B0E0C0
:10356000AC01BD014F5F5F4F6F4F7F4F898590E08A
:10357000A0E0B0E0BA2FA92F982F8827840F951FBD
:10358000A61FB71F48854F7350E060E070E0BA0196
:1035900055274427840F951FA61FB71F2AE0880FC1
:1035A000991FAA1FBB1F2A95D1F70C94AE118F81CA
:1035B000837090E09C01322F2227330F330F8885D0
:1035C000F4E08F9FC0011124822B932B2985229533
:1035D000269526952370822B0196A0E0B0E04A85BF
:1035E0004370440F2B8527FB222720F9422B2E8185
:1035F0002F7030E0240F311D2750310904C0880F8F
:10360000991FAA1FBB1F2A95D2F70C94AE1160E137
:1036100072E089E696E00E94BF4A8091EA1190919B
:10362000EB11019711F00C943C1283E090E0909321
:10363000EB118093EA111092ED111092EC118FEFC3
:103640008093E5111092E9111092E8111092E711A0
:103650001092E61187E00E943E861092EF111092C0
:10366000EE110C9463121092090F1092080F80ED66
:1036700097E090938B0080938A00909389008093C9
:10368000880080916F00846080936F000C94400CE0
:1036900020E00C94AB1282E00E947B543CCA8091E3
:1036A0009B048250809393040C94400C60E172E080
:1036B00082E798E00E94BF4A0C94D6121098EDCA97
:1036C0008A98E8CA8B7F80930B01E1CA8D7F809333
:1036D0000201D6CA8FEF9FEF90939A0480939904CA
:1036E0000C94320C8E010F5F1D4F33CC50939A0413
:1036F000409399040C94320CCF92DF92EF92FF9298
:103700000F931F93CF93DF938091FF11909100123D
:10371000883B23E0920711F40C948D2D08F464C1CA
:103720008E3AF4E09F0711F40C94682708F087C1E3
:103730008531A4E09A0711F40C94133408F020C5E5
:10374000823EE3E09E0709F467C010F40C94DF3179
:103750008D3FB3E09B0711F40C9480298C30E4E09A
:103760009E0711F40C94C329813F934011F00C94EF
:10377000772980916E12815080936E12882309F40C
:1037800023C120917C1230917D1280910C0F909179
:103790000D0FA0910E0FB0910F0F820F931FA11D5F
:1037A000B11D80930C0F90930D0FA0930E0FB0934B
:1037B0000F0FE091060F81E08E0F8093060FF0E06F
:1037C000EE0FFF1FEE0FFF1FEA5FF44F80917A129A
:1037D00090917B12A0917C12B0917D128083918395
:1037E000A283B3838091101290911112019790934C
:1037F000111280931012892B11F40C94752E1092D3
:103800007F1210927E1281E08093861282EE93E006
:10381000909300128093FF110E9408698111DAC011
:1038200080917912E0918D12F0918E12882311F41B
:103830000C94F837A0812091701230917112409150
:10384000721250917312B0E00E944387DC01CB01E9
:103850002AE0B695A795979587952A95D1F79093E5
:103860007D1280937C1290910B1290937B12809129
:103870000A12882311F40C946C3540912612509151
:103880002712609128127091291277FF02C00C94C0
:10389000513D00914E1210914F12209150123091D3
:1038A0005112400F511F621F731F409326125093F5
:1038B00027126093281270932912916090937B12C3
:1038C000813011F00C946C3540912E1250912F12D2
:1038D000609130127091311277FF02C00C949E3BC0
:1038E000009156121091571220915812309159128E
:1038F000400F511F621F731F40932E1250932F12BF
:10390000609330127093311290917B129460909377
:103910007B12833039F14091321250913312609111
:1039200034127091351277FF02C00C94B43B0091B1
:103930005A1210915B1220915C1230915D12400F6F
:10394000511F621F731F40933212509333126093C2
:1039500034127093351290917B12986090937B1281
:10396000843029F18091361290913712A09138124B
:10397000B0913912B7FF02C00C94D43C40915E1252
:1039800050915F126091601270916112840F951FC7
:10399000A61FB71F8093361290933712A093381248
:1039A000B093391280917B12806180937B1281EFFA
:1039B00093E0909300128093FF1180916E128150DA
:1039C00080936E128111DDCE8EE692E10E94416FEE
:1039D0008111D7CE81E0DF91CF911F910F91FF90A0
:1039E000EF90DF90CF900895863AB2E09B0711F4F4
:1039F0000C94682808F0ECC08338F2E09F0709F4C3
:103A0000CBC708F46CC68F38A2E09A0711F40C9467
:103A1000312510F40C94C531873922E0920711F456
:103A20000C9415288B39A2E09A0711F40C944428C1
:103A30008339924011F00C9477290C945325873FD9
:103A4000B4E09B0711F40C94263108F08DC48D3C32
:103A5000F4E09F0709F477C010F40C94D2318F3D45
:103A6000E4E09E07E1F08B3EF4E09F0711F40C9434
:103A70003B348A3D944011F00C9477290E940869E8
:103A80008111A8CFE0918D12F0918E1280818093E8
:103A90007B128FED94E0909300128093FF11809140
:103AA0006E12815080936E12882311F40C94BD36EF
:103AB00020917C1230917D1280910C0F90910D0F0E
:103AC000A0910E0FB0910F0F820F931FA11DB11D7A
:103AD00080930C0F90930D0FA0930E0FB0930F0FC8
:103AE000E091060F81E08E0F8093060FF0E0EE0F5D
:103AF000FF1FEE0FFF1FEA5FF44F80917A12909143
:103B00007B12A0917C12B0917D1280839183A2835D
:103B1000B38380916A1290916B12019790936B120C
:103B200080936A12892B11F40C94843310927F12C3
:103B300010927E1281E0809386128DEC94E0909337
:103B400000128093FF110E940869811143CFE09118
:103B50008D12F0918E128081A0910412B091051205
:103B6000A80FB11D87FDBA95B0930512A09304125A
:103B700080917912882311F40C94E138209170120D
:103B80003091711240917212509173120E944387CA
:103B9000DC01CB014AE0B695A795979587954A95A4
:103BA000D1F790937D1280937C1210927F12109225
:103BB0007E1281E0809386128AED94E09093001249
:103BC0008093FF110E940869882309F45BCF02CF1C
:103BD0008F34E3E09E0709F4C7C108F03DC48A3082
:103BE00023E0920711F40C94502910F40C947733CD
:103BF0008733F3E09F0709F48DC0863423E09207F2
:103C000009F459C18E30934011F00C9477290E9429
:103C100008698111DFCEE0918D12F0918E12208122
:103C2000318130930F1220930E1200910A12E02F6F
:103C3000F0E0EE0FFF1FEE0FFF1FE150FE4EC388B6
:103C4000D488E588F688C0926212D0926312E0921E
:103C50006412F0926512C2E1D2E1EAE3F2E110E00F
:103C60000117F1F0488159816A817B81440F551F0A
:103C7000661F771FDB01CA018C199D09AE09BF09B8
:103C80008C8B9D8BAE8BBF8B408351836283738300
:103C90008C199D09AE09BF09848B958BA68BB78BB8
:103CA0001F5F249634961530D9F6609106127091F4
:103CB00007128091081290910912FC01E60FF71F7C
:103CC00040911012509111124E0F5F1F240F351F9B
:103CD000C21AD30AE108F108C0926612D0926712A4
:103CE000E0926812F0926912672B11F40C94312F54
:103CF00080917A128F7B80937A1210927F121092A9
:103D00007E1282E08093861287E393E09093001204
:103D10008093FF110E94086981115CCE8091791215
:103D2000E0918D12F0918E12882311F40C94433798
:103D3000A081B18120917012309171124091721264
:103D4000509173120E944387DC01CB012AE0B695A3
:103D5000A795979587952A95D1F790937D12809393
:103D60007C1290910B1290937B1280910A128823FF
:103D700011F40C94BE344091261250912712609198
:103D800028127091291277FF02C00C94163D009101
:103D90004E1210914F122091501230915112400F3B
:103DA000511F621F731F4093261250932712609376
:103DB000281270932912916090937B12813011F038
:103DC0000C94BE3440912E1250912F1260913012FB
:103DD0007091311277FF02C00C94D13A00915612C3
:103DE000109157122091581230915912400F511FC3
:103DF000621F731F40932E1250932F126093301244
:103E00007093311290917B12946090937B12833067
:103E100039F1409132125091331260913412709105
:103E2000351277FF02C00C94FC3A00915A1210919F
:103E30005B1220915C1230915D12400F511F621F86
:103E4000731F409332125093331260933412709365
:103E5000351290917B12986090937B12843029F1F7
:103E60008091361290913712A0913812B091391288
:103E7000B7FF02C00C948A3C40915E1250915F12D1
:103E80006091601270916112840F951FA61FB71F79
:103E90008093361290933712A0933812B093391250
:103EA00080917B12806180937B1286E493E09093F3
:103EB00000128093FF1180916E12815080936E12D8
:103EC000882311F40C941B3720917C1230917D12C1
:103ED00080910C0F90910D0FA0910E0FB0910F0FCC
:103EE000820F931FA11DB11D80930C0F90930D0F96
:103EF000A0930E0FB0930F0FE091060F81E08E0F8D
:103F00008093060FF0E0EE0FFF1FEE0FFF1FEA5F3A
:103F1000F44F80917A1290917B12A0917C12B09113
:103F20007D1280839183A283B38380917A128F77ED
:103F300080937A12809106129091071201979093C4
:103F4000071280930612892B11F40C942D2F1092D6
:103F50007F1210927E1282E0809386128FE493E0AB
:103F6000909300128093FF110E940869811132CD55
:103F700080917912E0918D12F0918E12882311F4C4
:103F80000C945238A081B18120917012309171123D
:103F900040917212509173120E944387DC01CB0151
:103FA0001AE0B695A795979587951A95D1F79093AE
:103FB0007D1280937C1290910B1290937B128091D2
:103FC0000A12882311F40C94BE35409126125091A8
:103FD0002712609128127091291277FF02C00C9469
:103FE000A53D00914E1210914F1220915012309128
:103FF0005112400F511F621F731F4093261250939E
:1040000027126093281270932912916090937B126B
:10401000813011F00C94BE3540912E1250912F1228
:10402000609130127091311277FF02C00C94213CE4
:104030000091561210915712209158123091591236
:10404000400F511F621F731F40932E1250932F1267
:10405000609330127093311290917B129460909320
:104060007B12833039F140913212509133126091BA
:1040700034127091351277FF02C00C940B3C009102
:104080005A1210915B1220915C1230915D12400F18
:10409000511F621F731F409332125093331260936B
:1040A00034127093351290917B12986090937B122A
:1040B000843029F18091361290913712A0913812F4
:1040C000B0913912B7FF02C00C943B3D40915E1293
:1040D00050915F126091601270916112840F951F70
:1040E000A61FB71F8093361290933712A0933812F1
:1040F000B093391280917B12806180937B128EE5A0
:1041000093E0909300128093FF1180916E12815082
:1041100080936E12882311F40C94393720917C120D
:1041200030917D1280910C0F90910D0FA0910E0F88
:10413000B0910F0F820F931FA11DB11D80930C0F23
:1041400090930D0FA0930E0FB0930F0FE091060FF9
:1041500081E08E0F8093060FF0E0EE0FFF1FEE0F51
:10416000FF1FEA5FF44F80917A1290917B12A09129
:104170007C12B0917D1280839183A283B383DACEC7
:104180008D3324E0920711F40C94E03310F40C9476
:10419000EA318C35F4E09F0709F446C5803624E007
:1041A000920711F40C94FA338135944011F00C9479
:1041B000772980917E1290917F12863AA1E09A072A
:1041C00011F40C940A33873BB1E09B0711F40C9473
:1041D0006836892B11F40C94FA3EE0918D12F0911F
:1041E0008E128FEF9FEF90937F1280937E128081CB
:1041F000918190936B1280936A1210927912809140
:10420000011285FF58C610927F1210927E1284E030
:10421000809386128CE594E0909300128093FF11B6
:104220006091841270918512809182129091831214
:10423000FC01E61BF70BF0938C12E0938B12A0911C
:1042400086122A2F30E0E217F30710F00C94773B28
:10425000309711F40C94083880918012909181125B
:1042600040E050E020E0680F791F80E090E0A1502E
:10427000EB01C40FD51F3881EC01C258DD4E3987E0
:104280008A2F821B809386122F5F822F90E0AC01D1
:104290008E179F0768F386EA91E090937F128093D0
:1042A0007E128091C30A882309F494CB8091C40ABA
:1042B0009091C50A8B5B964011F40C94B93E8BEB40
:1042C00096E09093C50A8093C40ADC018091BF0AEE
:1042D0009091C00A4091BB0A5091BC0A6091BD0AFE
:1042E0007091BE0A480F591F611D711D4093BB0A92
:1042F0005093BC0A6093BD0A7093BE0A1092C30A21
:104300009093831280938212B0938112A0938012B3
:10431000409186124423A9F080918B1290918C12C7
:10432000FC01E957FD4E9C01265F3F4F8FEF840F44
:10433000280F311D22583D4E8D918193E217F307CE
:10434000D9F787E892E190938E1280938D12842F93
:1043500090E09093851280938412E7E8F2E18091D7
:104360008212909183127AC48C31A5E09A0711F4DD
:104370000C94BA3310F40C945530863325E0920730
:1043800009F460C08F33A5E09A0711F40C949733B9
:104390008C32954009F0ABC70E94086981111ACB95
:1043A000E0918D12F0918E128081918110927B129A
:1043B00020E533EC30937D1220937C1233C02091A2
:1043C0007C1230917D1280910C0F90910D0FA09175
:1043D0000E0FB0910F0F820F931FA11DB11D80937F
:1043E0000C0F90930D0FA0930E0FB0930F0F81E061
:1043F0008E0F8093060FF0E0EE0FFF1FEE0FFF1FF2
:10440000EA5FF44F80917A1290917B12A0917C1216
:10441000B0917D1280839183A283B38380916C12CB
:1044200090916D129C012150310930936D122093AF
:104430006C12892B09F4F3C586E395E09093001282
:104440008093FF11E091060F8091070FFE2FF81B5C
:10445000FF3F09F0B4CFBECA8937B3E09B0711F420
:104460000C94153010F40C946B338139A3E09A0747
:1044700009F4DBC08D3AB3E09B0711F40C948B2C4C
:104480008238934009F033C70E9408698111A2CA9B
:1044900080917912E0918D12F0918E12882311F49F
:1044A0000C940038A08120917012309171124091CB
:1044B000721250917312B0E00E944387DC01CB016D
:1044C000EAE0B695A79597958795EA95D1F79093E9
:1044D0007D1280937C1290910B1290937B128091AD
:1044E0000A12882311F40C949535409126125091AC
:1044F0002712609128127091291277FF02C00C9444
:104500008F3D00914E1210914F1220915012309118
:104510005112400F511F621F731F40932612509378
:1045200027126093281270932912916090937B1246
:10453000813011F00C94953540912E1250912F122C
:10454000609130127091311277FF02C00C94E03B01
:104550000091561210915712209158123091591211
:10456000400F511F621F731F40932E1250932F1242
:10457000609330127093311290917B1294609093FB
:104580007B12833039F14091321250913312609195
:1045900034127091351277FF02C00C94CA3B00911F
:1045A0005A1210915B1220915C1230915D12400FF3
:1045B000511F621F731F4093321250933312609346
:1045C00034127093351290917B12986090937B1205
:1045D000843029F18091361290913712A0913812CF
:1045E000B0913912B7FF02C00C94EA3C40915E12C0
:1045F00050915F126091601270916112840F951F4B
:10460000A61FB71F8093361290933712A0933812CB
:10461000B093391280917B12806180937B1281E983
:1046200093E0909300128093FF1180916E1281505D
:1046300080936E12882311F40C942F3720917C12F2
:1046400030917D1280910C0F90910D0FA0910E0F63
:10465000B0910F0F820F931FA11DB11D80930C0FFE
:1046600090930D0FA0930E0FB0930F0FE091060FD4
:1046700081E08E0F8093060FF0E0EE0FFF1FEE0F2C
:10468000FF1FEA5FF44F80917A1290917B12A09104
:104690007C12B0917D1280839183A283B383809139
:1046A00008129091091201979093091280930812B1
:1046B000892B11F40C94C52B10927F1210927E124C
:1046C00081E08093861282E893E0909300128093B9
:1046D000FF110E940869882309F4DACE7BC9843669
:1046E000A2E09A0709F401C108F0F8C5009711F497
:1046F0000C942C348234924009F0F9C50E94086968
:10470000811168C9E0918D12F0918E12C081CC3078
:1047100011F40C942C3D10F00C94DE37C73009F4E2
:10472000DEC0CB3011F40C94AD33C33011F40C94D3
:10473000383980E00E940A7189E292E00E94F270AA
:1047400081E00E940A7181E392E00E94F2704AE0E7
:1047500065E070E080E090E00E941E7182E00E94BF
:104760000A718AE392E00E94F2708C2F90E0A0E040
:10477000B0E04AE0BC01CD010E941E7183E00E94BE
:104780000A7183E492E00E94F27082E492E00E9457
:10479000F2708091930490919404282F291B2F3F4D
:1047A00041F1E1E0E80FE0939304A82FB0E0AF56A9
:1047B000BC4F12961C922E2F291B2F3FD1F022E0C6
:1047C000280F20939304F0E0EF56FC4F33E0328340
:1047D000422F50E050939C0440939B04291B2F3F91
:1047E00041F08D5F80939304FA01EF56FC4F81E016
:1047F000828380919304282F30E030939A04209391
:104800009904482F491B4F3F11F40C94C23E8F5F0F
:1048100080939304D901AF56BC4F81E012968C93DC
:10482000129720919B0430919C04F901FF27EF56C9
:10483000FC4F82818F5F828312968C9112978F5FDB
:1048400012968C93A09193048A2F891B8F3F11F4A9
:104850000C94F43E81E08A0F80939304B0E0AF564D
:10486000BC4F45E012964C9342814F5F4283CC236C
:1048700011F40C94763E0091990410919A04A801C9
:1048800055274F565C4FDA0112966C9112976F5F65
:1048900012966C93682F691B6F3F11F40C94F03ED5
:1048A00061E0680F60939304A82FB0E0AF56BC4F4F
:1048B0001296CC9382818F5F8283691B6F3F11F4C4
:1048C0000C94813E0F3F1F4F19F08FEFFA01828346
:1048D000809197048F5F809397040E94B64784E687
:1048E00092E0909300128093FF118091060F9091B7
:1048F000070F891B809580936E12882309F46AC87C
:1049000010927F1210927E1282E08093861288E6C7
:1049100092E0909300128093FF110E940869811128
:1049200059C8E0918D12F0918E128081918180930F
:1049300001129093021287FF03C08F7980937A123D
:1049400010927F1210927E1281E0809386128AE785
:1049500092E0909300128093FF110E9408698111E8
:1049600039C8E0918D12F0918E12908190930A12C5
:1049700081E001C0880F9A95EAF780930B1210929C
:104980007F1210927E1284E08093861283E892E078
:10499000909300128093FF110E94086981111AC838
:1049A000E0918D12F0918E1280819181A281B3816C
:1049B0008093121290931312A0931412B0931512B5
:1049C00010927F1210927E1284E08093861287E804
:1049D00092E0909300128093FF110E940869811168
:1049E0000C94EA1CE0918D12F0918E1280819181DD
:1049F000A281B3818093161290931712A09318127C
:104A0000B093191210927F1210927E1284E080935C
:104A100086128BE892E0909300128093FF110E941F
:104A2000086981110C94EA1CE0918D12F0918E12AC
:104A300080819181A281B38180931A1290931B127D
:104A4000A0931C12B0931D1210927F1210927E122E
:104A500084E0809386128FE892E090930012809316
:104A6000FF110E94086981110C94EA1CE0918D12DB
:104A7000F0918E1280819181A281B38180931E1268
:104A800090931F12A0932012B093211210927F12C4
:104A900010927E1284E08093861283E992E09093D4
:104AA00000128093FF110E94086981110C94EA1C86
:104AB000E0918D12F0918E1280819181A281B3815B
:104AC0008093221290932312A0932412B093251264
:104AD00010927F1210927E1282E08093861287E9F4
:104AE00092E0909300128093FF1180918412909134
:104AF00085126091821270918312681B790B7093FA
:104B00008C1260938B12A09186122A2F30E06217CC
:104B1000730710F00C94EC396115710511F40C94C5
:104B2000E734E0918012F091811240E050E020E003
:104B3000E80FF91F80E090E0A150EF01C40FD51FEE
:104B40003881EC01C258DD4E39878A2F821B809351
:104B500086122F5F822F90E0AC018617970768F3CB
:104B600086EA91E090937F1280937E128091C30A2F
:104B7000882311F40C94EA1C8091C40A9091C50A10
:104B80008B5B964011F40C94413E8BEB96E0909336
:104B9000C50A8093C40ADC018091BF0A9091C00AC3
:104BA0004091BB0A5091BC0A6091BD0A7091BE0A47
:104BB000480F591F611D711D4093BB0A5093BC0AD9
:104BC0006093BD0A7093BE0A1092C30A9093831239
:104BD00080938212B0938112A093801290918612DA
:104BE0009923A1F020918B1230918C12F901E95791
:104BF000FD4E265F3F4F8FEF890F280F311D225842
:104C00003D4E8D918193E217F307D9F727E832E102
:104C100030938E1220938D12892F90E090938512FD
:104C200080938412F90117C280917E1290917F12B5
:104C3000863AF1E09F0709F434CB873B21E09207E5
:104C400011F40C940E38892B09F4EACAE0918D1204
:104C5000F0918E1280918212909183124081518145
:104C6000628173814093741250937512609376122F
:104C70007093771210927F1210927E1221E020938F
:104C8000861220E634E0309300122093FF116091E9
:104C9000841270918512DC01A61BB70BB0938C12A5
:104CA000A0938B1280918612282F30E0A217B307B1
:104CB00010F00C94323A109711F40C94D136C09144
:104CC0008012D091811240E050E090E020E030E08E
:104CD00081504C0F5D1FFA01E60FF71F4081F9016B
:104CE000E258FD4E4187282F291B209386129F5F93
:104CF000292F30E0A9012A173B0758F386EA91E0F3
:104D000090937F1280937E128091C30A882311F4BE
:104D10000C94EA1C8091C40A9091C50A8B5B964062
:104D200011F40C948E3E8BEB96E09093C50A809321
:104D3000C40ADC018091BF0A9091C00A4091BB0A6D
:104D40005091BC0A6091BD0A7091BE0A480F591F6C
:104D5000611D711D4093BB0A5093BC0A6093BD0A4C
:104D60007093BE0A1092C30A9093831280938212AA
:104D7000B0938112A0938012409186124423A9F02F
:104D800080918B1290918C12FC01E957FD4E9C0191
:104D9000265F3F4F8FEF840F280F311D22583D4E65
:104DA0008D918193E217F307D9F787E892E1909309
:104DB0008E1280938D12842F90E0909385128093B1
:104DC0008412E7E8F2E18FEF9FEF90937F128093D8
:104DD0007E12C081C093781280918B0390918C03D6
:104DE00095958795959587959595879595958795AB
:104DF0002091000230910102821B930B97FF02C0A9
:104E00000C94E4398436910514F40C948D38209177
:104E1000B4113091B51140E050E06091741270917E
:104E2000751280917612909177120E940A87DC01A8
:104E3000CB0104C0B695A79597958795CA95D2F7EB
:104E40008130E0E19E07A105B10520F080E090E10E
:104E5000A0E0B0E08093701290937112A093721250
:104E6000B09373128130F4E09F07A105B10510F0F3
:104E70000C9465352091D811222311F40C946535DA
:104E80008091D9119091DA11A091DB11B091DC11D0
:104E90008093701290937112A0937212B093731258
:104EA00021E0209379128F3F9105A105B10509F00A
:104EB00010F40C94183A10927F1210927E1282E035
:104EC000809386128EEA94E0909300128093FF11F3
:104ED0000E94086981110C94EA1CE0918D12F091F6
:104EE0008E12A081B181B0930512A093041280911B
:104EF0007912882311F40C9480342091701230912F
:104F0000711240917212509173120E944387DC011A
:104F1000CB016AE0B695A795979587956A95D1F7E5
:104F200090937D1280937C1210927F1210927E12C9
:104F300081E0809386128BEB94E090930012809333
:104F4000FF110E94086981110C94EA1CE0918D12F6
:104F5000F0918E12808180937B1280EC94E090938C
:104F600000128093FF1180916E12815080936E1217
:104F7000882311F40C94323520917C1230917D12EB
:104F800080910C0F90910D0FA0910E0FB0910F0F0B
:104F9000820F931FA11DB11D80930C0F90930D0FD5
:104FA000A0930E0FB0930F0FE091060F81E08E0FCC
:104FB0008093060FF0E0EE0FFF1FEE0FFF1FEA5F7A
:104FC000F44F80917A1290917B12A0917C12B09153
:104FD0007D1280839183A283B38380917A128F772D
:104FE00080937A12809101129091021286FD02C084
:104FF0000C94AF3420916A1230916B122150310918
:1050000030936B1220936A12232B11F00C94961D8F
:1050100091FF05C080916F1281110E94C4611092AE
:1050200000121092FF110C94EA1C80917E12909154
:105030007F12863AF1E09F0709F498CD873B21E083
:10504000920711F40C94ED34892B09F44ECDE091C4
:105050008D12F0918E128FEF9FEF90937F128093BD
:105060007E12808191819093071280930612109294
:105070007F1210927E1282E0809386128BE992E07A
:10508000909300128093FF110E94086981110C9483
:10509000EA1CE0918D12F0918E12808191819093A3
:1050A0000912809308121092791280910112909146
:1050B000021290FFB3C010927F1210927E1284E011
:1050C0008093861286EA92E0909300128093FF11FB
:1050D0000E94086981110C94EA1CE0918D12F091F4
:1050E0008E1280819181A281B381809374129093FA
:1050F0007512A0937612B093771210927F121092CD
:105100007E1281E0809386128AEA92E090930012E8
:105110008093FF110E94086981110C94EA1CE091B0
:105120008D12F0918E12C081C0937812609174122A
:1051300070917512809176129091771261157105B8
:105140008105910511F40C94D03320918B0330919B
:105150008C03A901559547955595479555954795C4
:10516000559547952091000230910102DA01A21B6A
:10517000B30B9D01B7FF02C00C94B63CA436B10539
:1051800014F40C94853A2091B4113091B51140E09B
:1051900050E00E940A87DC01CB0104C0B695A795B8
:1051A00097958795CA95D2F78130E0E19E07A105D2
:1051B000B10520F080E090E1A0E0B0E080937012B3
:1051C00090937112A0937212B09373128130944035
:1051D000A105B10510F00C94D0338091D81188232B
:1051E00011F40C94D0338091D9119091DA11A091DF
:1051F000DB11B091DC118093701290937112A09327
:105200007212B093731221E0209379128F3F9105AF
:10521000A105B10509F010F40C94FE3910927F122B
:1052200010927E1282E08093861280E093E0909349
:1052300000128093FF110E94086981110C94EA1CEE
:1052400080917912E0918D12F0918E12882311F4E1
:105250000C945134A081B18120917012309171125F
:1052600040917212509173120E944387DC01CB016E
:10527000CAE0B695A79597958795CA95D1F790936B
:105280000D1280930C1210927F1210927E1282E007
:10529000809386128AE093E0909300128093FF112E
:1052A0000E94086981110C94EA1CE0918D12F09122
:1052B0008E1280819181909311128093101210921E
:1052C0007F1210927E1282E0809386128EE093E02D
:1052D000909300128093FF110C94071E8836F2E021
:1052E0009F0709F41ACB8A37924009F436CB8FEF27
:1052F0009FEF909300128093FF1180E00C94EB1CC1
:1053000080917E1290917F12863AB1E09B0709F45A
:1053100044C5873BE1E09E0711F40C94ED35892BE1
:1053200009F4FBC4E0918D12F0918E128FEF9FEF84
:1053300090937F1280937E1280917912882311F4CA
:105340000C943236A081B18120917012309171128B
:1053500040917212509173120E944387DC01CB017D
:105360001AE0B695A795979587951A95D1F79093DA
:105370007D1280937C120E9493608CE094E0909365
:1053800000128093FF1180916E12815080936E12F3
:10539000882311F40C943A3620917C1230917D12BE
:1053A00080910C0F90910D0FA0910E0FB0910F0FE7
:1053B000820F931FA11DB11D80930C0F90930D0FB1
:1053C000A0930E0FB0930F0FE091060F81E08E0FA8
:1053D0008093060FF0E0EE0FFF1FEE0FFF1FEA5F56
:1053E000F44F80917A1290917B12A0917C12B0912F
:1053F0007D1280839183A283B38380917A128F7709
:1054000080937A1280910E1290910F1201979093CF
:105410000F1280930E12892B09F460C410927F1230
:1054200010927E1282E08093861285E194E0909340
:1054300000128093FF1180918412909185126091E7
:10544000821270918312681B790B70938C12609397
:105450008B12A09186122A2F30E06217730710F08A
:105460000C94243B6115710511F40C944B37E091B9
:105470008012F091811240E050E020E0E80FF91F27
:1054800080E090E0A150EF01C40FD51F3881EC01FE
:10549000C258DD4E39878A2F821B809386122F5F78
:1054A000822F90E0AC018617970768F386EA91E0B7
:1054B00090937F1280937E128091C30A882311F407
:1054C0000C94EA1C8091C40A9091C50A8B5B9640AB
:1054D00011F40C94B03E8BEB96E09093C50A809348
:1054E000C40ADC018091BF0A9091C00A4091BB0AB6
:1054F0005091BC0A6091BD0A7091BE0A480F591FB5
:10550000611D711D4093BB0A5093BC0A6093BD0A94
:105510007093BE0A1092C30A9093831280938212F2
:10552000B0938112A0938012409186124423A9F077
:1055300080918B1290918C12FC01E957FD4E9C01D9
:10554000265F3F4F8FEF840F280F311D22583D4EAD
:105550008D918193E217F307D9F787E892E1909351
:105560008E1280938D12842F90E0909385128093F9
:105570008412E7E8F2E18FEF9FEF90937F12809320
:105580007E1280917912882311F40C94F037A08157
:10559000B18120917012309171124091721250912C
:1055A00073120E944387DC01CB01CAE0B695A79530
:1055B00097958795CA95D1F790937D1280937C1229
:1055C00090910B1290937B1280910A12882311F410
:1055D0000C943C354091261250912712609128126C
:1055E0007091291277FF02C00C94673D00914E1212
:1055F00010914F122091501230915112400F511FB3
:10560000621F731F40932612509327126093281233
:1056100070932912916090937B12813011F00C9459
:105620003C3540912E1250912F12609130127091A2
:10563000311277FF02C00C94613B00915612109119
:1056400057122091581230915912400F511F621F6A
:10565000731F40932E1250932F1260933012709349
:10566000311290917B12946090937B12833039F1C8
:105670004091321250913312609134127091351270
:1056800077FF02C00C944B3B00915A1210915B12B1
:1056900020915C1230915D12400F511F621F731FE9
:1056A0004093321250933312609334127093351238
:1056B00090917B12986090937B12843029F18091B5
:1056C000361290913712A0913812B0913912B7FF6B
:1056D00002C00C94BE3C40915E1250915F126091EA
:1056E000601270916112840F951FA61FB71F8093DF
:1056F000361290933712A0933812B09339128091DA
:105700007B12806180937B1284E294E0909300127C
:105710008093FF1180916E12815080936E128823C6
:1057200011F40C94253720917C1230917D128091D8
:105730000C0F90910D0FA0910E0FB0910F0F820FD3
:10574000931FA11DB11D80930C0F90930D0FA0937B
:105750000E0FB0930F0FE091060F81E08E0F809334
:10576000060FF0E0EE0FFF1FEE0FFF1FEA5FF44F92
:1057700080917A1290917B12A0917C12B0917D124F
:1057800080839183A283B3833DCE809166129091F2
:105790006712A0916812B0916912892B8A2B8B2B0A
:1057A00009F412C280917A1283FF03C0806480934F
:1057B0007A1280910C1290910D1290937D12809329
:1057C0007C1290910B1290937B1280910A12882385
:1057D00011F40C9486344091261250912712609156
:1057E00028127091291277FF02C00C94003D00919D
:1057F0004E1210914F122091501230915112400FC1
:10580000511F621F731F40932612509327126093FB
:10581000281270932912916090937B12813011F0BD
:105820000C94863440912E1250912F1260913012B8
:105830007091311277FF02C00C94BB3A009156125E
:10584000109157122091581230915912400F511F48
:10585000621F731F40932E1250932F1260933012C9
:105860007093311290917B12946090937B128330ED
:1058700039F140913212509133126091341270918B
:10588000351277FF02C00C94903A00915A12109191
:105890005B1220915C1230915D12400F511F621F0C
:1058A000731F4093321250933312609334127093EB
:1058B000351290917B12986090937B12843029F17D
:1058C0008091361290913712A0913812B09139120E
:1058D000B7FF02C00C94623C40915E1250915F127F
:1058E0006091601270916112840F951FA61FB71FFF
:1058F0008093361290933712A0933812B0933912D6
:1059000080917B12806180937B128DEA93E090936B
:1059100000128093FF1180916E12815080936E125D
:10592000882311F40C94AC3620917C1230917D12B6
:1059300080910C0F90910D0FA0910E0FB0910F0F51
:10594000820F931FA11DB11D80930C0F90930D0F1B
:10595000A0930E0FB0930F0FE091060F81E08E0F12
:105960008093060FF0E0EE0FFF1FEE0FFF1FEA5FC0
:10597000F44F80917A1290917B12A0917C12B09199
:105980007D1280839183A283B38380917A128F7773
:1059900080937A124091661250916712609168125A
:1059A0007091691241505109610971094093661261
:1059B000509367126093681270936912452B462BBF
:1059C000472B09F4FEC090910B1290937B128091AB
:1059D0000A12882311F40C946438409126125091D5
:1059E0002712609128127091291277FF02C00C943F
:1059F0002B3E00914E1210914F1220915012309177
:105A00005112400F511F621F731F40932612509373
:105A100027126093281270932912916090937B1241
:105A2000813011F00C94643840912E1250912F1255
:105A3000609130127091311277FF02C00C94FF3DDB
:105A4000009156121091571220915812309159120C
:105A5000400F511F621F731F40932E1250932F123D
:105A6000609330127093311290917B1294609093F6
:105A70007B12833039F14091321250913312609190
:105A800034127091351277FF02C00C94D43D00910E
:105A90005A1210915B1220915C1230915D12400FEE
:105AA000511F621F731F4093321250933312609341
:105AB00034127093351290917B12986090937B1200
:105AC000843029F18091361290913712A0913812CA
:105AD000B0913912B7FF02C00C94153E40915E128E
