:1000000058C6000087C6000085C6000083C60000F1
:1000100081C600007FC600007DC600007BC60000D0
:1000200079C6000077C6000075C6000073C60000E0
:1000300071C600006FC600006DC600006BC60000F0
:1000400069C600000C94AC6C0C94C96963C60000CE
:1000500061C600005FC600005DC600000C94AB578F
:1000600059C600000C946D6E55C6000053C60000C2
:1000700051C600004FC600004DC600004BC6000030
:1000800049C6000047C6000045C6000043C6000040
:1000900041C600003FC600003DC600003BC6000050
:1000A00039C6000037C6000035C6000033C6000060
:1000B00031C600002FC600002DC600002BC6000070
:1000C00029C6000027C6000025C6000023C6000080
:1000D00021C600001FC600001DC600001BC6000090
:1000E00019C6000049120712680B680B680B8C11C7
:1000F0007F114611191107118110680B680B680BED
:10010000680B680B680B680B680B680B680B680B57
:10011000680B67106E0F680B680B680B5E0F0A0F99
:10012000B60ED40D680B060C680B680BDF0BDA0BF0
:100130001314DF13D513D80B3F152114A714680B24
:10014000A61372134B133813680B680B3213680B2A
:10015000E112D0128A127312081701173E172316E4
:10016000CC16EF150C16B8111E52225226522C52E4
:1001700032521D5238523E5244524A5250525652F6
:100180005C5262521D5268526E5218522E543654AE
:100190003B5445544F541D5459546154695473543D
:1001A0007D5487549654A0541D54AA54B454BE543C
:1001B000000020002300260029002C002F00320020
:1001C00000010000030106010901050505050705F9
:1001D00008080808020202020A0A080804040404C3
:1001E00001010101010101010303030303030303EF
:1001F000040707070C0C0C0C0C0C0C0C020202027E
:1002000006060606060606060B0B0B0B0B0B0B0B66
:100210000102102020080810204010204080020118
:1002200002010804020101020408102040808040FD
:1002300020100804020180040201804020100804FC
:10024000020108040201010204081020408001029A
:1002500004081020408000000A0B02090C0D0E0853
:10026000070304010000000000000000000000007F
:10027000000000000000000000000000000000007E
:10028000000012111000000000000000000000003B
:10029000000000000000000000000000441F041DDA
:1002A000671B2A1A2B195718A21706177B16001658
:1002B00092152D15D1147C142E14E513A11362137D
:1002C0002613ED12B812851255122712FC11D21105
:1002D000AA1184115F113B111911F810D910BA102D
:1002E0009C108010641049102F101510FC0FE40FA3
:1002F000CD0FB60FA00F8A0F750F610F4C0F390F7E
:10030000250F130F000FEE0EDD0ECB0EBA0EAA0E48
:10031000990E890E7A0E6A0E5B0E4C0E3E0E2F0E53
:10032000210E130E060EF80DEB0DDE0DD10DC50DD1
:10033000B80DAC0DA00D940D880D7D0D710D660DE1
:100340005B0D500D450D3B0D300D260D1B0D110D98
:10035000070DFD0CF30CEA0CE00CD70CCD0CC40C13
:10036000BB0CB20CA90CA00C980C8F0C860C7E0C4C
:10037000760C6D0C650C5D0C550C4D0C450C3D0C54
:10038000350C2E0C260C1F0C170C100C080C010C35
:10039000FA0BF30BEC0BE50BDE0BD70BD00BC90BF9
:1003A000C20BBC0BB50BAE0BA80BA10B9B0B950B9B
:1003B0008E0B880B820B7B0B750B6F0B690B630B22
:1003C0005D0B570B510B4C0B460B400B3A0B350B8F
:1003D0002F0B290B240B1E0B190B130B0E0B080BE9
:1003E000030BFE0AF80AF30AEE0AE90AE40ADE0A37
:1003F000D90AD40ACF0ACA0AC50AC00ABB0AB60A71
:10040000B10AAD0AA80AA30A9E0A990A950A900A97
:100410008B0A870A820A7E0A790A740A700A6B0AB2
:10042000670A620A5E0A5A0A550A510A4C0A480AC1
:10043000440A400A3B0A370A330A2F0A2A0A260AC4
:10044000220A1E0A1A0A160A120A0E0A0A0A060ABC
:10045000020AFE09FA09F609F209EE09EA09E609B3
:10046000E209DE09DA09D709D309CF09CB09C8099E
:10047000C409C009BC09B909B509B109AE09AA097D
:10048000A609A3099F099B099809940991098D0957
:100490008A09860983097F097C0978097509710928
:1004A0006E096B096709640960095D095A095609F3
:1004B000530950094C094909460942093F093C09B9
:1004C0003909350932092F092C0929092509220979
:1004D0001F091C091909160912090F090C09090934
:1004E000060903090009FD08FA08F708F408F108ED
:1004F000ED08EA08E708E408E108DE08DB08D908A7
:10050000D608D308D008CD08CA08C708C408C1084F
:10051000BE08BB08B808B508B308B008AD08AA08FB
:10052000A708A408A1089F089C08990896089308A2
:1005300091088E088B0888088608830880087D0843
:100540007B0878087508720870086D086A086808E2
:10055000650862085F085D085A0857085508520880
:100560004F084D084A0848084508420840083D0819
:100570003A0838083508330830082E082B082808B0
:100580002608230821081E081C0819081708140843
:1005900011080F080C080A080708050802080008D7
:1005A000FD07FB07F807F607F307F107EE07EC076F
:1005B000EA07E707E507E207E007DD07DB07D807FB
:1005C000D607D407D107CF07CC07CA07C707C50787
:1005D000C307C007BE07BB07B907B707B407B20711
:1005E000B007AD07AB07A807A607A407A1079F0799
:1005F0009D079A0798079607930791078F078C071F
:100600008A0788078507830781077E077C077A07A3
:1006100078077507730771076E076C076A07670726
:100620006507630761075E075C075A0758075507A8
:10063000530751074F074C074A0748074607430728
:1006400041073F073D073A073807360734073107A8
:100650002F072D072B072907260724072207200726
:100660001D071B07190717071507120710070E07A5
:100670000C070A070707050703070107FF06FC0623
:10068000FA06F806F606F406F206EF06ED06EB06A5
:10069000E906E706E506E206E006DE06DC06DA061F
:1006A000D806D506D306D106CF06CD06CB06C8069A
:1006B000C606C406C206C006BE06BC06B906B70614
:1006C000B506B306B106AF06AD06AA06A806A6068D
:1006D000A406A206A0069E069C0699069706950605
:1006E000930691068F068D068B068806860684067D
:1006F000820680067E067C067A06770675067306F5
:1007000071066F066D066B0669066606640662066C
:1007100060065E065C065A065806560653065106E3
:100720004F064D064B06490647064506430640065A
:100730003E063C063A0638063606340632063006D1
:100740002D062B06290627062506230621061F0649
:100750001D061A06180616061406120610060E06C0
:100760000C060A060706050603060106FF05FD0539
:10077000FB05F905F605F405F205F005EE05EC05B7
:10078000EA05E805E505E305E105DF05DD05DB052F
:10079000D905D705D405D205D005CE05CC05CA05A7
:1007A000C805C605C305C105BF05BD05BB05B9051F
:1007B000B705B405B205B005AE05AC05AA05A70599
:1007C000A505A305A1059F059D059B059805960513
:1007D0009405920590058E058B058905870585058D
:1007E000830581057E057C057A0578057605730508
:1007F00071056F056D056B05680566056405620585
:1008000060055D055B055905570555055205500501
:100810004E054C05490547054505430541053E057F
:100820003C053A0538053505330531052F052C05FE
:100830002A0528052605230521051F051C051A057F
:1008400018051605130511050F050C050A05080501
:10085000060503050105FF04FC04FA04F804F50489
:10086000F304F104EE04EC04EA04E704E504E30411
:10087000E004DE04DB04D904D704D404D204D00499
:10088000CD04CB04C804C604C404C104BF04BC0422
:10089000BA04B804B504B304B004AE04AB04A904AC
:1008A000A604A404A1049F049D049A04980495043A
:1008B000930490048E048B048904860483048104C9
:1008C0007E047C0479047704740472046F046C045D
:1008D0006A046704650462045F045D045A045804F2
:1008E0005504520450044D044A044804450442048B
:1008F00040043D043A043704350432042F042D0427
:100900002A042704240421041F041C0419041604C7
:10091000130411040E040B0408040504020400046B
:10092000FD03FA03F703F403F103EE03EB03E8031B
:10093000E503E203DF03DC03D903D603D303D003CB
:10094000CD03CA03C703C403C103BE03BB03B7037C
:10095000B403B103AE03AB03A803A403A1039E0336
:100960009B039703940391038E038A0387038403F5
:1009700080037D037903760373036F036C036803BD
:10098000650361035E035A03570353034F034C038C
:100990004803440341033D033903360332032E0366
:1009A0002A03260323031F031B03170313030F0349
:1009B0000B0307030303FF02FB02F702F302EE023D
:1009C000EA02E602E202DD02D902D502D002CC023E
:1009D000C702C302BE02BA02B502B102AC02A7024C
:1009E000A3029E02990294028F028A02850280026B
:1009F0007B02760271026C02660261025C025602A0
:100A000051024B02460240023A0234022F022902EE
:100A100023021D02160210020A020402FD01F70160
:100A2000F001E901E201DC01D501CD01C601BF0100
:100A3000B701B001A801A0019801900188018001CF
:100A400077016E0165015C0153014A0140013601E5
:100A50002C01220117010C010101F500EA00DD0063
:100A6000D100C400B600A9009A008B007C006C0085
:100A70005B004900370023000F00F9FF0000211040
:100A8000422063308440A550C660E77008812991F8
:100A90004AA16BB18CC1ADD1CEE1EFF131121002A0
:100AA00073325222B5529442F772D6623993188348
:100AB0007BB35AA3BDD39CC3FFF3DEE3622443346C
:100AC00020040114E664C774A44485546AA54BB598
:100AD00028850995EEE5CFF5ACC58DD55336722640
:100AE00011163006D776F6669556B4465BB77AA7E8
:100AF00019973887DFF7FEE79DD7BCC7C448E5588C
:100B00008668A7784008611802282338CCC9EDD937
:100B10008EE9AFF9488969990AA92BB9F55AD44ADF
:100B2000B77A966A711A500A333A122AFDDBDCCB87
:100B3000BFFB9EEB799B588B3BBB1AABA66C877CAB
:100B4000E44CC55C222C033C600C411CAEED8FFDD7
:100B5000ECCDCDDD2AAD0BBD688D499D977EB66E7F
:100B6000D55EF44E133E322E511E700E9FFFBEEF27
:100B7000DDDFFCCF1BBF3AAF599F788F8891A981E9
:100B8000CAB1EBA10CD12DC14EF16FE18010A100D3
:100B9000C230E3200450254046706760B9839893C3
:100BA000FBA3DAB33DC31CD37FE35EF3B102901223
:100BB000F322D2323542145277625672EAB5CBA58F
:100BC000A89589856EF54FE52CD50DC5E234C32473
:100BD000A01481046674476424540544DBA7FAB763
:100BE0009987B8975FE77EF71DC73CD7D326F236C3
:100BF0009106B01657667676154634564CD96DC9AF
:100C00000EF92FE9C899E9898AB9ABA94458654812
:100C100006782768C018E1088238A3287DCB5CDB02
:100C20003FEB1EFBF98BD89BBBAB9ABB754A545A62
:100C3000376A167AF10AD01AB32A923A2EFD0FEDCE
:100C40006CDD4DCDAABD8BADE89DC98D267C076CB2
:100C5000645C454CA23C832CE01CC10C1FEF3EFFA2
:100C60005DCF7CDF9BAFBABFD98FF89F176E367E02
:100C7000554E745E932EB23ED10EF01E0000210040
:100C8000240027002A002D0030003300010100005D
:100C9000040107010A0100002200250028002B00A2
:100CA0002E003100340002010000050108010B0193
:100CB0008E8211241FBECFEFD1E2DEBFCDBF00E098
:100CC0000CBF12E0A0E0B2E0E4EBFBE001E00BBF00
:100CD00002C007900D92A837B107D9F722E1A8E723
:100CE000B2E001C01D92AC3DB207E1F716E0C9E5E4
:100CF000D6E000E006C021970109802FFE010E9486
:100D00009785C835D10780E00807A9F70E94D271FE
:100D10000C94CB8575C94F925F926F927F928F92A0
:100D20009F92AF92BF92CF92DF92EF92FF920F937A
:100D30001F93CF93DF93CDB7DEB7CC5BD2400FB616
:100D4000F894DEBF0FBECDBF8091F4109091F510E6
:100D5000843129E0920709F434C208F446C08C3487
:100D6000E9E09E0709F4E7C108F0A8C08E3229E047
:100D7000920709F49DC18434994009F070C28091B2
:100D8000D50A9091D60A892BB9F482E090E090932D
:100D9000D60A8093D50A1092C4041092C30480919D
:100DA000FA108F5F09F481E08093FA108CE499E0E7
:100DB0009093F5108093F41081E0C454DD4F0FB68A
:100DC000F894DEBF0FBECDBFDF91CF911F910F9181
:100DD000FF90EF90DF90CF90BF90AF909F908F905B
:100DE0007F906F905F904F900895823D48E0940708
:100DF00009F4E0C008F4D5C08E3DA8E09A0709F4D4
:100E000000C18230994009F02AC2E091F11040916E
:100E1000F010E41709F4BCC381E08E0F8093F11049
:100E2000F0E0E051F04F8081809300112091FC10A0
:100E30003091FD102827022E2295207F2025032E99
:100E4000322F22952F700226269532272327220F34
:100E5000220F220F20253093FD102093FC102091AB
:100E6000FE103091FF1090E001972817390708F421
:100E70006AC2782F80930111281B31093093FF102B
:100E80002093FE10772309F460C2672F713108F0B8
:100E900060E16093021184E199E09093F5108093F2
:100EA000F4108091F110942F981B961708F4C5C286
:100EB00070910111761B7093011196C1863549E03E
:100EC000940709F4BEC08C35994009F0C8C16091FF
:100ED000FE107091FF108091F1109091F010981B0E
:100EE000562F23E0260F921708F445C2662309F413
:100EF0004CC490E02091FC103091FD10DC01A05119
:100F0000B04FFD0101964FEF460F840F911D8051A8
:100F1000904F41912427022E2295207F2025032ED9
:100F2000322F22952F700226269532272327220F53
:100F3000220F220F2025E817F90759F73093FD10EB
:100F40002093FC10890181E0850FFD01E80FF11D60
:100F5000808192E0950F9D01290F311DF9013081AB
:100F6000A60FB11D9C91933009F4C9C3943009F4C4
:100F70008FC3923009F48DC390E0932B80179107B3
:100F800009F489C36091FA1085E00E94DA7010922A
:100F9000F1101092F0101092F5101092F41081E000
:100FA0000CCF892B09F05BC182ED98E09093F5108E
:100FB0008093F410E091F1108091F0108E1709F4F5
:100FC000FBCE81E08E0F8093F110F0E0E051F04F06
:100FD000808181112DC00E9474566093F610709329
:100FE000F7108093F8109093F9108FEF9FEF909384
:100FF000FD108093FC108EED98E09093F510809397
:10100000F4104091F010942FE091F110842F8E1B7A
:10101000823008F42CC181E08E0F8093F110AE2F46
:10102000B0E0A051B04F2C91209321032111E0C2D8
:101030001092F1101092F0101092F5101092F4101E
:10104000BBCE9091F010E091F1109E1709F42FC2E1
:1010500081E08E0FF0E0981B8093F110E051F04F8B
:1010600060812091FC103091FD102627022E2295E0
:10107000207F2025032E322F22952F7002262695C1
:1010800032272327220F220F220F20253093FD1015
:101090002093FC1070E0615071097093FF10609311
:1010A000FE102CE539E03093F5102093F41018CFA2
:1010B0004091F010E091F110842F8E1B833008F4E2
:1010C00037C2AE2FB0E0A051B04F9C91A1E0AE0F5F
:1010D000B0E0A051B04F8C9123E02E0F2093F1107F
:1010E000EE5FF0E0E051F04F30816091FC107091C4
:1010F000FD10933009F437C1943009F4EEC29230F8
:1011000009F4ECC290E0932B6817790709F4E8C260
:101110006091FA1085E00E94DA701092F11010923E
:10112000F0101092C6061092C5061092F51010929B
:10113000F41081E042CE8091D50A9091D60A0297B0
:1011400009F43ACE8FEF9FEF9093AE048093AD04F5
:101150008091A7049091A804282F291B2F3F09F400
:1011600004C1E1E0E80FA82FB0E0AB55BC4F1296E8
:101170001C922E2F291B2F3F09F4F7C0F0E0EB55EE
:10118000FC4F26E0228322E0280F422F50E05093AC
:10119000B0044093AF04291B2F3F09F4E6C08D5FD4
:1011A0008093A704FA01EB55FC4F21E02283891BB1
:1011B0008F3F09F4DAC08091AB048F5F8093AB045A
:1011C0003BCF609102118091F1104091F010942F6B
:1011D000981B961708F431C170910111761B70931A
:1011E0000111662309F44ECE0091C5061091C60682
:1011F0002091FC103091FD10D801AB53BB4F562FFE
:10120000580FE82FF0E0E051F04F90819D9329278F
:10121000022E2295207F2025032E322F22952F701B
:101220000226269532272327220F220F220F202560
:101230008F5F8513E6CF8093F110909321030F5FAA
:101240001F4F6150060F111D1093C6060093C5066F
:101250003093FD102093FC101092021113CE8FEFEB
:101260009FEF9093F5108093F41080E0A6CD0E943C
:1012700074560091F6101091F7102091F8103091EB
:10128000F910DC01CB01801B910BA20BB30B8B3F40
:101290009105A105B10508F48FCD8091FA102FEFCB
:1012A0003FEF3093AE042093AD049091A7042091BA
:1012B000A804392F321B3F3F41F1E1E0E90FE093F1
:1012C000A704A92FB0E0AB55BC4F12961C923E2F3D
:1012D000321B3F3FD1F032E0390F3093A704F0E0EA
:1012E000EB55FC4F48E04283432F50E05093B0044D
:1012F0004093AF04321B3F3F41F09D5F9093A704A2
:10130000FA01EB55FC4F91E092830E94026F8091AD
:10131000A7049091A804891B8F3F09F4FAC180911A
:10132000AD049091AE048F3FAFEF9A0731F099274B
:10133000FC01EB55FC4F8FEF82838091AB048F5FF4
:101340008093AB0475CEC90194CD8091FE1090912D
:10135000FF10009709F0E3C18EE299E09093F51039
:101360008093F410A7CE8E7FCDCE8091AF048250B3
:101370008093A70461CE0E9474560091F6101091DC
:10138000F7102091F8103091F910DC01CB01801B8F
:10139000910BA20BB30B8B3F9105A105B10508F48E
:1013A0000BCD8091FA102FEF3FEF3093AE042093D6
:1013B000AD049091A7042091A804392F321B3F3F20
:1013C00041F1E1E0E90FE093A704A92FB0E0AB55AC
:1013D000BC4F12961C923E2F321B3F3FD1F032E0A1
:1013E000390F3093A704F0E0EB55FC4F48E04283FF
:1013F000432F50E05093B0044093AF04321B3F3F63
:1014000041F09D5F9093A704FA01EB55FC4F91E0EA
:1014100092830E94026F8091A7049091A804891B77
:101420008F3F09F476C18091AD049091AE048F3F57
:101430003FEF930709F07BCF80CF0E947456009155
:10144000F6101091F7102091F8103091F910DC018E
:10145000CB01801B910BA20BB30B8B3F9105A10518
:10146000B10508F4A9CC1091FA1088E00E94586FD9
:10147000812F0E94026F8091A7049091A804891B7C
:101480008F3F09F440C18091AD049091AE048F3F2D
:10149000EFEF9E0731F09927FC01EB55FC4F8FEFE2
:1014A00082838091AB048F5F8093AB0436CE0E9421
:1014B00074560091F6101091F7102091F8103091A9
:1014C000F910DC01CB01801B910BA20BB30B8B3FFE
:1014D0009105A105B10508F46FCC1091FA1088E0D0
:1014E0000E94586F812F0E94026F8091A7049091F3
:1014F000A804891B8F3F11F40C94E9178091AD0467
:101500009091AE048F3F2FEF920731F09927FC01A5
:10151000EB55FC4F8FEF82838091AB048F5F8093FC
:10152000AB041092F0109FEFE0E0F0E081E094CD8A
:101530000E9474560091F6101091F7102091F81047
:101540003091F910DC01CB01801B910BA20BB30B86
:101550008B3F9105A105B10508F42ECC1091FA102E
:1015600088E00E94586F812F0E94026F8091A7042B
:101570009091A804891B8F3F09F4C5C08091AD04E8
:101580009091AE048F3FFFEF9F0709F084CF89CF82
:101590000E9474560091F6101091F7102091F810E7
:1015A0003091F910DC01CB01801B910BA20BB30B26
:1015B0008B3F9105A105B10508F4FECB1091FA10FF
:1015C00088E00E94586F812F0E94026F8091A704CB
:1015D0009091A804891B8F3F09F495C08091AD04B8
:1015E0009091AE048F3FBFEF9B0709F054CF59CFC6
:1015F0006091FC107091FD106227062E6295607F4D
:101600006025072E762F62956F70062666957627E1
:101610006727660F660F660F60257093FD10609355
:10162000FC10EE5FE093F110A82FB0E0A051B04F96
:101630008C918093FB10882309F4FACC6827062E3E
:101640006295607F6025072E762F62956F70062663
:10165000669576276727660F660F660F602570937D
:10166000FD106093FC1087FF02C00C94F01760918E
:10167000FA10261346C080E092E09093FF1080930A
:10168000FE1082E099E09093F5108093F410C1CBA6
:101690008E7F3E7F71CC2091FB10233809F45DC012
:1016A0006091FA108091210368132BC06F5F09F4D9
:1016B00075C06093FA105093F2101092F310822FBD
:1016C00090E0FC01E058F109E234F10508F46AC049
:1016D000622F81E00E94DA70ABCC8E7F3E7F12CD0C
:1016E000241731F068E172E080E499E00E94494AF1
:1016F00084E499E09093F5108093F41040CB8E7FB2
:101700003BCC87E042CC8091AF0482508093A70409
:1017100004CD8091AF0482508093A70489CC20919E
:1017200000112F3FB9F02091C5063091C606B901CE
:101730006F5F7F4F7093C6066093C506F901E95449
:10174000FB4F168601979093FF108093FE10892B14
:1017500009F402CEE091F11094CF81E08093FA1069
:101760005093F2101092F3100E9499708091F01033
:101770009091F110891B833008F05ACC68E172E037
:1017800080ED9AE00E94494A53CC0091FC101091E0
:10179000FD1090E0DC01A051B04FD5CB81E08093EB
:1017A000FA1089CF8827EE58FF4F8F4F0C949785FA
:1017B0000E94D7840E949C710E949970D7CF0E948A
:1017C0009C71182F0E949C71282F30E0322F222705
:1017D000C901810F911D90930102809300020E9424
:1017E0009C71843611F00C946D1A03E011E10E9493
:1017F000D784D8018D939D938D01B1E10B3C1B07DC
:10180000B1F761E084EA0E94DA70B0CF81EA0E9409
:10181000586F8091FF110E94026F8091A1039091F7
:10182000A203C755DD4F8883C95AD240C655DD4F44
:101830009883CA5AD2400E94026FC655DD4F8881F4
:10184000CA5AD2400E94026F80919F039091A003D8
:10185000C555DD4F8883CB5AD240C455DD4F9883A0
:10186000CC5AD2400E94026FC455DD4F8881CC5AB9
:10187000D2400E94026F8091CB069091CC06A0913D
:10188000CD06B091CE064091CF0A5091D00A60911A
:10189000D10A7091D20A841B950BA60BB70BC158C5
:1018A000DD4F88839983AA83BB83CF57D2400E94A0
:1018B000026FC058DD4F8881C058D2400E94026F2D
:1018C000CF57DD4F8881C158D2400E94026FCE575A
:1018D000DD4F8881C258D2400E94026F8091CB06B2
:1018E0003091CC062091CD069091CE06CD57DD4F9C
:1018F0008883C358D240CC57DD4F3883C458D24078
:10190000CB57DD4F2883C558D240CA57DD4F988347
:10191000C658D2400E94026FCC57DD4F8881C45810
:10192000D2400E94026FCB57DD4F8881C558D2400C
:101930000E94026FCA57DD4F8881C658D2400E946C
:10194000026F809197129091981220919912309184
:101950009A12821B930BC355DD4F99838883CD5A0E
:10196000D2400E94026FC255DD4F8881CE5AD240CC
:101970000E94026F80911A0F90911B0F891B90E0BB
:10198000A0E0B0E0C957DD4F88839983AA83BB8369
:10199000C758D2400E94026FC857DD4F8881C8588F
:1019A000D2400E94026FC757DD4F8881C958D2408C
:1019B0000E94026FC657DD4F8881CA58D2400E94EC
:1019C000026F8091031290910412C155DD4F8883FC
:1019D000CF5AD240C055DD4F9883C05BD2400E94A1
:1019E000026FC055DD4F8881C05BD2400E94026FFC
:1019F0008091D6129091D712CF54DD4F8883C15B6E
:101A0000D240CE54DD4F9883C25BD2400E94026F19
:101A1000CE54DD4F8881C25BD2400E94026F80911C
:101A2000D4129091D512CD54DD4F8883C35BD24040
:101A3000CC54DD4F9883C45BD2400E94026FCC54DB
:101A4000DD4F8881C45BD2400E94026F9091BC0F31
:101A50008091BD0F811101C0892F0E94026F80E229
:101A600090E0CB54DD4F99838883C55BD2400E94C0
:101A7000026FCA54DD4F8881C65BD2400E94026F5C
:101A800080E094E0C954DD4F99838883C75BD240DE
:101A900080E00E94026FC854DD4F8881C85BD2404D
:101AA0000E94026F80911D0330911E0320911F033D
:101AB00090912003C557DD4F8883CB58D240C4573F
:101AC000DD4F3883CC58D240C357DD4F2883CD58E3
:101AD000D240C257DD4F9883CE58D2400E94026F49
:101AE000C457DD4F8881CC58D2400E94026FC35743
:101AF000DD4F8881CD58D2400E94026FC257DD4F22
:101B00008881CE58D2400E94026F8091FA110E94C3
:101B1000026F8091FB119091FC11C754DD4F8883B7
:101B2000C95BD240C654DD4F9883CA5BD2400E9445
:101B3000026FC654DD4F8881CA5BD2400E94026F9B
:101B40008091FD119091FE11C554DD4F8883CB5BD0
:101B5000D240C454DD4F9883CC5BD2400E94026FC8
:101B6000C454DD4F8881CC5BD2400E94026F8091CB
:101B7000A7049091A804891B8F3F11F40C94A2191B
:101B80008091AD049091AE048F3F6FEF960731F0D6
:101B90009927FC01EB55FC4F8FEF82838091AB04BA
:101BA0008F5F8093AB04E2CD8FE90E94586F8091E4
:101BB0001103309112032091130390911403CF5B12
:101BC000DD4F8883C154D240CE5BDD4F3883C25491
:101BD000D240CD5BDD4F2883C354D240CC5BDD4F78
:101BE0009883C454D2400E94026FCE5BDD4F88813F
:101BF000C254D2400E94026FCD5BDD4F8881C35436
:101C0000D2400E94026FCC5BDD4F8881C454D24029
:101C10000E94026F809115033091160320911703E3
:101C200090911803CA5BDD4F8883C654D240C95BCC
:101C3000DD4F3883C754D240C85BDD4F2883C8547A
:101C4000D240C75BDD4F9883C954D2400E94026FD7
:101C5000C95BDD4F8881C754D2400E94026FC85BC8
:101C6000DD4F8881C854D2400E94026FC75BDD4FB0
:101C70008881C954D2400E94026F8091190330912B
:101C80001A0320911B0390911C03C55BDD4F8883D1
:101C9000CB54D240C45BDD4F3883CC54D240C35BBD
:101CA000DD4F2883CD54D240C25BDD4F9883CE54A4
:101CB000D2400E94026FC45BDD4F8881CC54D24079
:101CC0000E94026FC35BDD4F8881CD54D2400E94D9
:101CD000026FC25BDD4F8881CE54D2400E94026FFA
:101CE00080911D0330911E0320911F0390912003CA
:101CF000C05BDD4F8883C055D240CF5ADD4F38835B
:101D0000C155D240CE5ADD4F2883C255D240CD5A5C
:101D1000DD4F9883C355D2400E94026FCF5ADD4FEA
:101D20008881C155D2400E94026FCE5ADD4F888112
:101D3000C255D2400E94026FCD5ADD4F8881C355F3
:101D4000D2400E94026F8091A7049091A804891B41
:101D50008F3F11F40C94A2198091AD049091AE04C0
:101D60008F3F2FEF920709F013CF18CF8EE90E9413
:101D7000586F8091D6129091D712CD55DD4F888340
:101D8000C35AD240CC55DD4F9883C45AD2400E94EA
:101D9000026FCC55DD4F8881C45AD2400E94026F39
:101DA0008091D4129091D512CB55DD4F8883C55ABE
:101DB000D240CA55DD4F9883C65AD2400E94026F66
:101DC000CA55DD4F8881C65AD2400E94026FC9555C
:101DD000DD4F19821882C75AD24080E00E94026FFC
:101DE000C855DD4F8881C85AD2400E94026F809149
:101DF000A7049091A804891B8F3F11F40C94A21999
:101E00008091AD049091AE048F3F3FEF930709F0AE
:101E1000BFCEC4CE8DE90E94586F8091A1039091EE
:101E2000A203C356DD4F8883CD59D240C256DD4F41
:101E30009883CE59D2400E94026FC256DD4F8881EE
:101E4000CE59D2400E94026F80919F039091A003CF
:101E5000C156DD4F8883CF59D240C056DD4F98839D
:101E6000C05AD2400E94026FC056DD4F8881C05ACE
:101E7000D2400E94026FCF55DD4F19821882C15A9D
:101E8000D24080E00E94026FCE55DD4F8881C25A59
:101E9000D2400E94026F8091A7049091A804891BF0
:101EA0008F3F11F40C94A2198091AD049091AE046F
:101EB0008F3F4FEF940709F06BCE70CE0E943C6EBF
:101EC0001092CB116FE770E08DE00E9405541092E4
:101ED00000121092FF110E94997048CC88E90E946C
:101EE000586FE0917F02F0918002908180917E0294
:101EF000982381E009F080E00E94026F8091110335
:101F0000309112032091130390911403CB5ADD4FAB
:101F10008883C555D240CA5ADD4F3883C655D24052
:101F2000C95ADD4F2883C755D240C85ADD4F988320
:101F3000C855D2400E94026FCA5ADD4F8881C655EB
:101F4000D2400E94026FC95ADD4F8881C755D240E6
:101F50000E94026FC85ADD4F8881C855D2400E9446
:101F6000026FE0917C02F0917D02908180917B0272
:101F7000982381E009F080E00E94026F80911503B0
:101F8000309116032091170390911803C65ADD4F24
:101F90008883CA55D240C55ADD4F3883CB55D240CD
:101FA000C45ADD4F2883CC55D240C35ADD4F9883A5
:101FB000CD55D2400E94026FC55ADD4F8881CB5566
:101FC000D2400E94026FC45ADD4F8881CC55D24066
:101FD0000E94026FC35ADD4F8881CD55D2400E94C6
:101FE000026FE0917902F0917A02908180917802FB
:101FF000982381E009F080E00E94026F809119032C
:1020000030911A0320911B0390911C03C15ADD4F9C
:102010008883CF55D240C05ADD4F3883C056D24056
:10202000CF59DD4F2883C156D240CE59DD4F98831A
:10203000C256D2400E94026FC05ADD4F8881C056FE
:10204000D2400E94026FCF59DD4F8881C156D240E5
:102050000E94026FCE59DD4F8881C256D2400E9445
:10206000026F80E00E94026FCD59DD4F1882198205
:102070001A821B82C356D24080E00E94026FCC5964
:10208000DD4F8881C456D2400E94026FCB59DD4F8C
:102090008881C556D2400E94026FCA59DD4F88819F
:1020A000C656D2400E94026F8091A7049091A80466
:1020B000891B8F3F11F40C94A2198091AD0490916B
:1020C000AE048F3FFFEF9F0709F062CD67CD87E930
:1020D0000E94586F8091CB110E94026F8091A704DB
:1020E0009091A804891B8F3F11F40C94A219809140
:1020F000AD049091AE048F3FEFEF9E0709F048CDFD
:102100004DCD1092D7121092D6128091D412909188
:10211000D512892B19F51092B00F1092B10F1092B1
:10212000B20F1092B30F80919F039091A0039195ED
:1021300081959109092E000CAA0BBB0B8093B40F5B
:102140009093B50FA093B60FB093B70F1092B80F3E
:102150001092B90F1092BA0F1092BB0F1092D512B5
:102160001092D4121092EF0F8091D6129091D71244
:10217000892B19F51092B00F1092B10F1092B20F77
:102180001092B30F80919F039091A0039195819538
:102190009109092E000CAA0BBB0B8093B40F9093EE
:1021A000B50FA093B60FB093B70F1092B80F10925F
:1021B000B90F1092BA0F1092BB0F1092D712109253
:1021C000D61280916F008D7F80936F0080916F0099
:1021D0008B7F80936F0081E090E09093001280935A
:1021E000FF1110920212109201120E94BE5810921A
:1021F000061210920712109208121092091260E053
:1022000070E087E00E9405540E949970AFCA0E9456
:102210009C711092061210920712109208121092DE
:102220000912682F70E087E00E9405540E9499709F
:102230009DCA0E941E856B017C018091FF119091C7
:102240000012019731F068E172E085ED96E00E949E
:10225000494A81E090E0A0E0B0E08093F2119093D1
:10226000F311A093F411B093F511C092F611D0922E
:10227000F711E092F811F092F91182E090E090935A
:1022800000128093FF110E94997070CA87E80E9423
:10229000586FBE016F5F7F4F87EB94E00E946D70B7
:1022A000882349F08981807C11F40C949E1A803433
:1022B00011F40C94731A80E090E0DC010197A109FD
:1022C000B109C956DD4F88839983AA83BB83C75957
:1022D000D2400E94026FC856DD4F8881C859D24053
:1022E0000E94026FC756DD4F8881C959D2400E94B3
:1022F000026FC656DD4F8881CA59D24022CD0E9456
:102300009C71182F0E94D78440E0BC01812F0E944D
:102310005E700E9499702ACA0E94E5842B013C01DC
:102320000E94E5844B015C010E94E5846B017C0105
:102330000E94E5840E94E58481E08093CB11409265
:10234000110350921203609213037092140380924F
:10235000150390921603A0921703B0921803C0922F
:102360001903D0921A03E0921B03F0921C0324CAB3
:1023700081EC0E94586F81E00E94026F87E00E940A
:10238000026F0091A804E091A7048091AD049091A0
:10239000AE047E2F2091AF043091B004332740E18A
:1023A00052E0FE2FF01B2B553C4FFF24F39422C02C
:1023B000DC01BB27AB55BC4F12966C9112976F5F37
:1023C00012966C93FF3F49F071E07E0FF0E0EB5501
:1023D000FC4F1283E72FF72FF01BD90112966C9157
:1023E00012976F5F12966C93B2E047315B0711F45E
:1023F0000C941D1ADA011D91AD018F3FBFEF9B07B1
:1024000009F4A7C71111D4CF8FEF9FEFEDCF0E9432
:102410009C71082F10E00115110511F40C94E51AB8
:102420008091FF1190910012019731F068E172E004
:1024300084E696E00E94494A83E090E0909300127F
:102440008093FF1110930212009301128FEF80937B
:10245000FA111092FE111092FD111092FC111092BF
:10246000FB1187E00E949A841092041210920312CA
:102470000130110511F40C94111B80ED97E090933D
:1024800089008093880080916F00826080936F0044
:1024900093C98091FF1190910012029734F068E186
:1024A00072E083E096E00E94494A1092D2110E94A5
:1024B000BE5881E090E0909300128093FF116FEF7F
:1024C00070E08DE00E94055480E094E0A0E0B0E070
:1024D0008093EE119093EF11A093F011B093F1114E
:1024E0000E94997043C90E94D7847C010E94D784BE
:1024F0008C010E94D784F092D911E092D8111093E8
:10250000DB110093DA119093DD118093DC110E94AE
:1025100099702CC90E949C71863308F08653909163
:102520007B00282F2870977F922B90937B008770D9
:10253000806480937C0080917A00806480937A002C
:1025400080917A0086FDFCCF10917800009179008F
:1025500088EB0E94586F812F90E0902B092E000C81
:10256000AA0BBB0BC157DD4F88839983AA83BB831A
:10257000CF58D2400E94026FC057DD4F8881C059AA
:10258000D2400E94026FCF56DD4F8881C159D240A0
:102590000E94026FCE56DD4F8881C259D24079CC5D
:1025A0000E949C71182F0E949C71082F61E0812F5E
:1025B0000E94C453602F812F0E9474520E94997010
:1025C000D5C80E949C71182F62E00E94C453212F2D
:1025D00030E0F901EA5AFD4F8491F901E05FFD4FC7
:1025E0001491F901E653FE4F0491002309F453C7F7
:1025F00081110E940C52E02FF0E0EE0FFF1FE0551A
:10260000FE4FA591B491EC91E12391E080E009F4B3
:1026100090E0092F182F86EB0E94586FC801110F08
:10262000AA0BBB0BCD56DD4F88839983AA83BB834E
:10263000C359D2400E94026FCC56DD4F8881C459E5
:10264000D2400E94026FCB56DD4F8881C559D240DF
:102650000E94026FCA56DD4F8881C659D2400E943F
:10266000026FC5CB81E0809384120E9499707EC86E
:102670000E949C71082F0E949C71182F682F70E097
:10268000013009F490C783E00E9405541093BD0FF8
:102690000E9499706BC880EB0E94586F1AE01982F3
:1026A0001A821B821C8280E00E94026F8A810E9433
:1026B000026F8B810E94026F8C810E94026FC5564F
:1026C000DD4F19821882CB59D24080E00E94026F00
:1026D000C456DD4F8881CC59D2400E94026F115000
:1026E000F1F685CB8FEA0E94586F2091D812309175
:1026F000D912CE012115310509F0E4C68B5D924156
:102700009A83898389819A81092E000CAA0BBB0BBD
:10271000CF5FDD4F88839983AA83BB83C150D240AA
:102720000E94026FCE5FDD4F8881C250D2400E946E
:10273000026FCD5FDD4F8881C350D2400E94026F8F
:10274000CC5FDD4F8881C450D240FBCA0E949C718F
:10275000F82E0E949C71E82E0E949C71082F10E0B8
:10276000102F00270E0D111DF1E0FF1530F468E168
:1027700072E08DE996E00E94494AC80117FD0EC734
:10278000813F910534F068E172E08EE996E00E94A5
:10279000494AEF2DF0E0EE0FFF1FE553FE4E128386
:1027A00001830E9499700C94B60B0E94D7840E94FA
:1027B0009C710E94D7840E9499700C94B60B0E9461
:1027C0009C71182F0E94D78421E030E030931D0FB8
:1027D00020931C0F1093280F90931F0F80931E0FB0
:1027E000812F0E949A848091020110FD39C7826076
:1027F0008093020180910B0111FD2EC784608093AC
:102800000B0112FD27C78A9A13FD22C7109A8091E7
:102810006F00846080936F0081E08093290F0E9495
:1028200099700C94B60B0E94D784009709F43FC6A8
:102830002FB7F89490931F0F80931E0F2FBF0C9407
:10284000DC0B0E9474566093EA0A7093EB0A809343
:10285000EC0A9093ED0A9E012F5F3F4F790110E340
:102860000E9474566093DA0A7093DB0A8093DC0A44
:102870009093DD0A20E030E0A90161E187EB94E06C
:102880000E94A556882309F480C41093B704809150
:10289000BA04882321F087EB94E00E94A75280912C
:1028A000BE0481508093BE04882309F4D7C50E94DA
:1028B00074568090DA0A9090DB0AA090DC0AB090FF
:1028C000DD0ADC01CB0188199909AA09BB098090AE
:1028D000DE0A9090DF0AA090E00AB090E10AEFEFE4
:1028E0008E1A9E0AAE0ABE0A8092DE0A9092DF0A13
:1028F000A092E00AB092E10A8090E20A9090E30A86
:10290000A090E40AB090E50A880E991EAA1EBB1E8C
:102910008092E20A9092E30AA092E40AB092E50A59
:102920008090E60A9090E70AA090E80AB090E90A41
:1029300088169906AA06BB0608F092CF8093E60A8D
:102940009093E70AA093E80AB093E90A89CFCE01F1
:10295000865A9D4F0E945885CE018B5A9D4F0E94EA
:1029600058850E94E5844B015C01CE01805B9D4F40
:102970000E945885CE01855B9D4F0E945885CE01EF
:102980008A5B9D4F0E9458850E94E5846B017C0103
:10299000CE018F5B9D4F0E945885CE018F5F9D4F6A
:1029A0000E945885CE0101960E9458850E94D784C6
:1029B00025E0FE01E65AFD4FAFEBBFE001900D921E
:1029C0002A95E1F725E0FE01EB5AFD4FA4ECBFE0AC
:1029D00001900D922A95E1F78092C90F9092CA0F4B
:1029E000A092CB0FB092CC0F25E0FE01E05BFD4F33
:1029F000ADECBFE001900D922A95E1F725E0FE01D4
:102A0000E55BFD4FA2EDBFE001900D922A95E1F745
:102A100025E0FE01EA5BFD4FA7EDBFE001900D92BE
:102A20002A95E1F7C092DC0FD092DD0FE092DE0F25
:102A3000F092DF0F25E0FE01EF5BFD4FA0EEBFE05F
:102A400001900D922A95E1F725E0FE01EF5FFD4F21
:102A5000A5EEBFE001900D922A95E1F725E0FE0179
:102A60003196AAEEBFE001900D922A95E1F790937E
:102A7000D1118093D0110E9499700C94B60B0E94D2
:102A80009C71D82E10922103882309F4EDC50E9471
:102A90009C718E010F5F1D4FD8018D935D0181E008
:102AA00080932103EE24E394ED0C82E0F82E0CC019
:102AB0000E949C71D5018D935D01F0922103F394E6
:102AC000B1E4FB1609F4D9C4FE10F2CF9E012F5FCA
:102AD0003F4F790180E4D9011D928A95E9F74D2D88
:102AE00050E0B801C7010E94BC850E9474566093F3
:102AF0000A0B70930B0B80930C0B90930D0BEEEF66
:102B00005E2ECC24CA9466246394712CA7E5DA2E39
:102B10000E9474566093FA0A7093FB0A8093FC0A31
:102B20009093FD0A8091A3039091A403892B09F04F
:102B30005FC287EB94E00E94D152882309F41EC43F
:102B40000E9474568090FA0A9090FB0AA090FC0AAA
:102B5000B090FD0ADC01CB0188199909AA09BB09CB
:102B60004091FE0A5091FF0A6091000B7091010B99
:102B70004F5F5F4F6F4F7F4F4093FE0A5093FF0AA6
:102B80006093000B7093010B4091020B5091030B6B
:102B90006091040B7091050B480F591F6A1F7B1F32
:102BA0004093020B5093030B6093040B7093050B3F
:102BB0008090060B9090070BA090080BB090090B2B
:102BC00088169906AA06BB0608F0A2CF8093060BCA
:102BD0009093070BA093080BB093090B99CF0E9419
:102BE0001E8560930C1270930D1280930E129093B9
:102BF0000F120E947456DC01CB010A96A11DB11D73
:102C00008093101290931112A0931212B09313128A
:102C10000E9499700C94B60B0E941E856093EE1171
:102C20007093EF118093F0119093F11121E06115F1
:102C300074408105910509F409C52093ED110E94A6
:102C400099700C94B60B8DEB0E94586F0EED1AE044
:102C5000D8018C9111963C91119712962C91129754
:102C600013969C91C959DD4F8883C756D240C859E5
:102C7000DD4F3883C856D240C759DD4F2883C95627
:102C8000D240C659DD4F9883CA56D2400E94026F87
:102C9000C859DD4F8881C856D2400E94026FC7597B
:102CA000DD4F8881C956D2400E94026FC659DD4F60
:102CB0008881CA56D2400E94026FF8018481358112
:102CC00026819781C559DD4F8883CB56D240C459A0
:102CD000DD4F3883CC56D240C359DD4F2883CD56C3
:102CE000D240C259DD4F9883CE56D2400E94026F27
:102CF000C459DD4F8881CC56D2400E94026FC3591F
:102D0000DD4F8881CD56D2400E94026FC259DD4FFF
:102D10008881CE56D2400E94026FD80118968C91BD
:102D2000189719963C9119971A962C911A971B96F9
:102D30009C91C159DD4F8883CF56D240C059DD4F99
:102D40003883C057D240CF58DD4F2883C157D24077
:102D5000CE58DD4F9883C257D2400E94026FC059AF
:102D6000DD4F8881C057D2400E94026FCF58DD4F9F
:102D70008881C157D2400E94026FCE58DD4F8881B2
:102D8000C257D2400E94026F005F1F4FBBE00E315E
:102D90001B0709F05DCFA2C90E94E5848091D50A86
:102DA0009091D60A892B09F009C468E172E08CE69B
:102DB00098E00E94494A87EB94E00E94D64B81112B
:102DC000FACF8EEB0E94586F8091A7049091A804CF
:102DD000891B8F3F09F4EBC38091AD049091AE0441
:102DE0008F3FEFEF9E0731F09927FC01EB55FC4F29
:102DF0008FEF82838091AB048F5F8093AB040C9440
:102E0000DC0B81E080930B120E9499700C94B60B3E
:102E10000E941E852B013C010E941E856B017C01D6
:102E20000E941E854B015C010E949C71082F0E942C
:102E30009C71182F0E949C714092DE115092DF11FC
:102E40006092E0117092E111C092E211D092E31110
:102E5000E092E411F092E5118092E6119092E71170
:102E6000A092E811B092E9110093EA111093EB11CE
:102E70008093EC110E9499700C94B60B8CEB0E941D
:102E8000586F01E812E0D80114968C9114971596AA
:102E90003C91159716962C91169717969C91CD58A4
:102EA000DD4F8883C357D240CC58DD4F3883C45799
:102EB000D240CB58DD4F2883C557D240CA58DD4F8A
:102EC0009883C657D2400E94026FCC58DD4F88814C
:102ED000C457D2400E94026FCB58DD4F8881C5573E
:102EE000D2400E94026FCA58DD4F8881C657D24037
:102EF0000E94026FF8018085318522859385C9582B
:102F0000DD4F8883C757D240C858DD4F3883C85734
:102F1000D240C758DD4F2883C957D240C658DD4F2D
:102F20009883CA57D2400E94026FC858DD4F8881EB
:102F3000C857D2400E94026FC758DD4F8881C957D9
:102F4000D2400E94026FC658DD4F8881CA57D240D6
:102F50000E94026FD8011C968C911C971D963C9183
:102F60001D971E962C911E971F969C91C558DD4F5C
:102F70008883CB57D240C458DD4F3883CC57D240DA
:102F8000C358DD4F2883CD57D240C258DD4F9883B8
:102F9000CE57D2400E94026FC458DD4F8881CC5773
:102FA000D2400E94026FC358DD4F8881CD57D24076
:102FB0000E94026FC258DD4F8881CE57D2400E94D6
:102FC000026F005F1F4FB3E001311B0709F05BCFB9
:102FD00085C88091AF0482508093A7040C94910A15
:102FE00026E539E03093F5102093F4100C94250871
:102FF00087EB94E00E94D1528111A2CD20E030E015
:10300000A9016DE087EB94E00E94A556811108C0EC
:103010008FEF8EBD0DB407FEFDCF8EB5882331F046
:103020004091BB0469E28CE00E94AB488091BA04F5
:10303000882321F087EB94E00E94A7521092A4030A
:103040001092A30385E08093BF040E947456009100
:10305000FA0A1091FB0A2091FC0A3091FD0ADC016A
:10306000CB01801B910BA20BB30B0091FE0A1091B8
:10307000FF0A2091000B3091010B0F5F1F4F2F4F64
:103080003F4F0093FE0A1093FF0A2093000B3093EA
:10309000010B0091020B1091030B2091040B309156
:1030A000050B080F191F2A1F3B1F0093020B1093DB
:1030B000030B2093040B3093050B0091060B10912A
:1030C000070B2091080B3091090B081719072A07E5
:1030D0003B0740F48093060B9093070BA093080BDB
:1030E000B093090B0E94745600910A0B10910B0BC0
:1030F00020910C0B30910D0BDC01CB01801B910B4F
:10310000A20BB30B00910E0B10910F0B2091100B23
:103110003091110B0F5F1F4F2F4F3F4F00930E0B3E
:1031200010930F0B2093100B3093110B0091120B87
:103130001091130B2091140B3091150B080F191FD0
:103140002A1F3B1F0093120B1093130B2093140B99
:103150003093150B0091160B1091170B2091180B43
:103160003091190B081719072A073B0740F4809381
:10317000160B9093170BA093180BB093190B8AEAB8
:103180000E94586F81E00C946C1040E052E0B7014F
:1031900087EB94E00E942357882309F478CB809131
:1031A000BA04811195C185E08093BE040E947456D3
:1031B0000091DA0A1091DB0A2091DC0A3091DD0AD5
:1031C000DC01CB01801B910BA20BB30B0091DE0A3B
:1031D0001091DF0A2091E00A3091E10A0F5F1F4F42
:1031E0002F4F3F4F0093DE0A1093DF0A2093E00A2F
:1031F0003093E10A0091E20A1091E30A2091E40A77
:103200003091E50A080F191F2A1F3B1F0093E20A9D
:103210001093E30A2093E40A3093E50A0091E60A4A
:103220001091E70A2091E80A3091E90A0817190776
:103230002A073B0740F48093E60A9093E70AA0939D
:10324000E80AB093E90A0E9474560091EA0A1091C4
:10325000EB0A2091EC0A3091ED0ADC01CB01801BD6
:10326000910BA20BB30B0091EE0A1091EF0A209183
:10327000F00A3091F10A0F5F1F4F2F4F3F4F00931D
:10328000EE0A1093EF0A2093F00A3093F10A0091AE
:10329000F20A1091F30A2091F40A3091F50A080F0E
:1032A000191F2A1F3B1F0093F20A1093F30A209361
:1032B000F40A3093F50A0091F60A1091F70A20916A
:1032C000F80A3091F90A081719072A073B0740F452
:1032D0008093F60A9093F70AA093F80AB093F90A3C
:1032E0008BEA0E94586F81E00E94026F6FE370E0EA
:1032F000C7010E94CD85182F0E94026F112379F01B
:103300000FEF010F10E00F5F1F4F0E0D1F1DD701B4
:103310008D917D010E94026FE016F106C1F7809148
:10332000A7049091A804891B8F3F61F08091AD04A0
:103330009091AE048F3FBFEF9B0711F00C94C80D26
:103340000C94CE0D8091AF0482508093A7040C940E
:10335000B60B8E2F90E0FF3F49F071E07E0FFC012D
:10336000EB55FC4FF282E72FF72FF01BD901129695
:103370006C9112976F5F12966C9344C820E030E016
:10338000A90168E187EB94E00E94A55681116EC007
:10339000D70180E090E02D91E92FFF27E227EE0F83
:1033A000FF1FE458F54F25913491982F88278227E5
:1033B0009327A017B10779F75EBC0DB407FEFDCFC8
:1033C00029812EBD2A81FE0133960DB407FEFDCF63
:1033D0002EBDE017F10711F02191F7CF0DB407FED4
:1033E000FDCF9EBD0DB407FEFDCF8EBD0DB407FE13
:1033F000FDCFCEBC0DB407FEFDCF8EB58093BB04D0
:103400008F71853009F44AC0D092B7048091BA0414
:10341000882321F087EB94E00E94A7528091BF049B
:1034200081508093BF0481118BCB4091BB0460918C
:10343000B7048CE00E94AB4883CB9093AE0480939A
:10344000AD047093A704FF3F09F47CCF8F3FEFEFEB
:103450009E0711F00C94C80D0C94CE0D4091BB0446
:103460006091B70489E00E94AB4821CA4091BB0437
:1034700062E38CE00E94AB488BCFFE0131967F0166
:1034800080E4DF011D928A95E9F7BFE3BD1508F0DE
:1034900026CB40E425CB00E010E0BDC887EB94E0EC
:1034A0000E94B8527092A4036092A30349CB109279
:1034B000290F0E943C6E80916F008B7F80936F007C
:1034C0000C94DC0B0196821B930B9A8389831AC997
:1034D00087EB94E00E94A75266CE62E084EA0E94E5
:1034E000DA700C94B60B8A8590E0A0E0B0E0AC01F5
:1034F000BD014F5F5F4F6F4F7F4F898590E0A0E028
:10350000B0E0BA2FA92F982F8827840F951FA61FE8
:10351000B71F48854F7350E060E070E0BA0155274F
:103520004427840F951FA61FB71F2AE0880F991FF5
:10353000AA1FBB1F2A95D1F70C945E118F8183704F
:1035400090E09C01322F2227330F330F8885F4E05F
:103550008F9FC0011124822B932B298522952695BC
:1035600026952370822B0196A0E0B0E04A85437037
:10357000440F2B8527FB222720F9422B2E812F7009
:1035800030E0240F311D2750310904C0880F991FE6
:10359000AA1FBB1F2A95D2F70C945E118827992782
:1035A000801B910BEDC882E00E9405546FC880918A
:1035B000AF0482508093A7040C94DC0B68E172E0A6
:1035C0008BE698E00E94494AF0CB68E172E083E61E
:1035D00096E00E94494A8091FF1190910012019754
:1035E00011F00C94161283E090E0909300128093F7
:1035F000FF1110920212109201128FEF8093FA11B4
:103600001092FE111092FD111092FC111092FB11FC
:1036100087E00E949A8410920412109203120C9474
:103620003D1210921D0F10921C0F80ED97E09093A9
:103630008B0080938A00909389008093880080910A
:103640006F00846080936F000C94DC0B20E0F5CA5F
:103650001098DDC88A98D8C88B7F80930B01D1C899
:103660008D7F80930201C6C88E010F5F1D4F2ECA49
:10367000CF92DF92EF92FF920F931F93CF93DF933E
:103680008091141290911512863B23E0920711F459
:103690000C94772C08F4ECC18C3AF4E09F0709F401
:1036A00058C708F011C28331A4E09A0711F40C94B2
:1036B000A32908F059C6803EE3E09E0711F40C945C
:1036C000D43110F40C949C318B3FB3E09B0711F480
:1036D0000C941C298A30E4E09E0711F40C944B29C9
:1036E0008F3E934011F00C94FB28809183128150FF
:1036F00080938312882311F40C94C9342091911281
:10370000309192128091200F9091210FA091220F61
:10371000B091230F820F931FA11DB11D8093200F25
:103720009093210FA093220FB093230FE0911A0FD3
:1037300081E08E0F80931A0FF0E0EE0FFF1FEE0F67
:10374000FF1FE65EF44F80918F1290919012A0912E
:103750009112B091921280839183A283B38380915E
:10376000251290912612019790932612809325128C
:10377000892B11F40C940329109294121092931235
:1037800081E080939B1280EE93E0909315128093DA
:1037900014128091991290919A12609197127091DF
:1037A0009812681B790B7093A1126093A012A091DC
:1037B0009B122A2F30E06217730710F00C947D3AA9
:1037C0006115710511F40C940135E0919512F09199
:1037D000961240E050E020E0E80FF91F80E090E012
:1037E000A150EF01C40FD51F3881EC01CD56DD4E3D
:1037F00039878A2F821B80939B122F5F822F90E044
:10380000AC018617970768F384EA91E090939412CD
:10381000809393128091D70A882309F442C780913C
:10382000D80A9091D90A8F5C964011F40C941F3EEF
:103830008FEC96E09093D90A8093D80ADC018091AE
:10384000D30A9091D40A4091CF0A5091D00A609146
:10385000D10A7091D20A480F591F611D711D409302
:10386000CF0A5093D00A6093D10A7093D20A109273
:10387000D70A9093981280939712B0939612A093C0
:10388000951240919B124423A9F08091A01290912F
:10389000A112FC01E456FD4E9C01265F3F4F8FEFC5
:1038A000840F280F311D2D563D4E8D918193E217C7
:1038B000F307D9F78CE992E19093A3128093A212B7
:1038C000842F90E090939A1280939912ECE9F2E1A0
:1038D0008FEF9FEF909394128093931280918E12AA
:1038E000882311F40C949E35A0812091851230918B
:1038F00086124091871250918812B0E00E949F85F5
:10390000DC01CB010AE0B695A795979587950A95B6
:10391000D1F79093921280939112909120129093EC
:10392000901280911F12882311F40C94B0334091AF
:103930003B1250913C1260913D1270913E1277FF04
:1039400002C00C94083D0091631210916412209102
:10395000651230916612400F511F621F731F409312
:103960003B1250933C1260933D1270933E12916053
:1039700090939012813011F00C94B0334091431227
:1039800050914412609145127091461277FF02C027
:103990000C940D3B00916B1210916C1220916D12E2
:1039A00030916E12400F511F621F731F40934312DC
:1039B0005093441260934512709346129091901266
:1039C000946090939012833039F140914712509156
:1039D00048126091491270914A1277FF02C00C940C
:1039E000F73A00916F12109170122091711230917C
:1039F0007212400F511F621F731F40934712509362
:103A000048126093491270934A12909190129860F4
:103A100090939012843029F180914B1290914C1226
:103A2000A0914D12B0914E12B7FF02C00C943F3CD2
:103A300040917312509174126091751270917612C8
:103A4000840F951FA61FB71F80934B1290934C12A3
:103A5000A0934D12B0934E1280919012806180938A
:103A600090128FEE93E090931512809314123DCE36
:103A7000843AB2E09B0711F40C94542708F086C1F5
:103A80008138F2E09F0711F40C94712608F4CCC73A
:103A90008D38A2E09A0711F40C94D42610F40C94FB
:103AA0008F31853922E0920711F40C941627893959
:103AB000A2E09A0711F40C9431278139924011F059
:103AC0000C94FB280C94F526853FB4E09B0711F479
:103AD0000C946F2F08F0EFC58B3CF4E09F0711F4B6
:103AE0000C94543210F40C94922E8D3DE4E09E0719
:103AF000E1F0893EF4E09F0711F40C942F32883DE9
:103B0000944011F00C94FB280E9494688111C9C55F
:103B1000E091A212F091A3128081809390128DED1A
:103B200094E0909315128093141280918312815027
:103B300080938312882311F40C94AB34209191125A
:103B4000309192128091200F9091210FA091220F1D
:103B5000B091230F820F931FA11DB11D8093200FE1
:103B60009093210FA093220FB093230FE0911A0F8F
:103B700081E08E0F80931A0FF0E0EE0FFF1FEE0F23
:103B8000FF1FE65EF44F80918F1290919012A091EA
:103B90009112B091921280839183A283B38380911A
:103BA0007F129091801201979093801280937F12E0
:103BB000892B11F40C94BE3110929412109293122E
:103BC00081E080939B128BEC94E09093151280938C
:103BD00014128091991290919A126091971270919B
:103BE0009812681B790B7093A1126093A012A09198
:103BF0009B122A2F30E06217730710F00C94D13B10
:103C00006115710511F40C943E36E0919512F09116
:103C1000961240E050E020E0E80FF91F80E090E0CD
:103C2000A150EF01C40FD51F3881EC01CD56DD4EF8
:103C300039878A2F821B80939B122F5F822F90E0FF
:103C4000AC018617970768F384EA91E09093941289
:103C5000809393128091D70A882309F422C580911A
:103C6000D80A9091D90A8F5C964011F40C942D3E9D
:103C70008FEC96E09093D90A8093D80ADC0180916A
:103C8000D30A9091D40A4091CF0A5091D00A609102
:103C9000D10A7091D20A480F591F611D711D4093BE
:103CA000CF0A5093D00A6093D10A7093D20A10922F
:103CB000D70A9093981280939712B0939612A0937C
:103CC000951240919B124423A9F08091A0129091EB
:103CD000A112FC01E456FD4E9C01265F3F4F8FEF81
:103CE000840F280F311D2D563D4E8D918193E21783
:103CF000F307D9F78CE992E19093A3128093A21273
:103D0000842F90E090939A1280939912ECE9F2E15B
:103D10008FEF9FEF90939412809393128081A091E4
:103D20001912B0911A12A80FB11D87FDBA95B09360
:103D30001A12A093191280918E12882311F40C94F8
:103D40008F362091851230918612409187125091C2
:103D500088120E949F85DC01CB016AE0B695A79589
:103D6000979587956A95D1F79093921280939112C7
:103D7000109294121092931281E080939B1288ED1E
:103D800094E09093151280931412BECE8D34E3E02C
:103D90009E0709F4DDC108F006C5883023E09207CC
:103DA00011F40C94382810F40C94882E8533F3E029
:103DB0009F0709F4A3C0843423E0920709F46FC17C
:103DC0008C30934011F00C94FB28809193129091C9
:103DD0009412843AF1E09F0711F40C949428853BE7
:103DE00021E0920711F40C94D032892B11F40C9439
:103DF0005328E091A212F091A3128FEF9FEF9093BE
:103E00009412809393122081318130932412209355
:103E1000231200911F12E02FF0E0EE0FFF1FEE0FB4
:103E2000FF1FEC5EFD4EC388D488E588F688C092FB
:103E30007712D0927812E0927912F0927A12C7E259
:103E4000D2E1EFE4F2E110E00117F1F0488159818D
:103E50006A817B81440F551F661F771FDB01CA01F2
:103E60008C199D09AE09BF098C8B9D8BAE8BBF8BC6
:103E700040835183628373838C199D09AE09BF0906
:103E8000848B958BA68BB78B1F5F24963496153049
:103E9000D9F660911B1270911C1280911D129091A5
:103EA0001E12FC01E60FF71F4091251250912612B9
:103EB0004E0F5F1F240F351FC21AD30AE108F10805
:103EC000C0927B12D0927C12E0927D12F0927E1210
:103ED000672B11F40C94642D80918F128F7B80934B
:103EE0008F12109294121092931282E080939B1280
:103EF00085E393E090931512809314120E949468C6
:103F00008111CFC380918E12E091A212F091A31281
:103F1000882311F40C94E734A081B181209185129B
:103F20003091861240918712509188120E949F858D
:103F3000DC01CB011AE0B695A795979587951A9560
:103F4000D1F79093921280939112909120129093B6
:103F5000901280911F12882311F40C944D334091DC
:103F60003B1250913C1260913D1270913E1277FFCE
:103F700002C00C94A63C009163121091641220912F
:103F8000651230916612400F511F621F731F4093DC
:103F90003B1250933C1260933D1270933E1291601D
:103FA00090939012813011F00C944D334091431254
:103FB00050914412609145127091461277FF02C0F1
:103FC0000C943C3A00916B1210916C1220916D127E
:103FD00030916E12400F511F621F731F40934312A6
:103FE0005093441260934512709346129091901230
:103FF000946090939012833039F140914712509120
:1040000048126091491270914A1277FF02C00C94D5
:10401000523A00916F1210917012209171123091EA
:104020007212400F511F621F731F4093471250932B
:1040300048126093491270934A12909190129860BE
:1040400090939012843029F180914B1290914C12F0
:10405000A0914D12B0914E12B7FF02C00C940B3CD0
:104060004091731250917412609175127091761292
:10407000840F951FA61FB71F80934B1290934C126D
:10408000A0934D12B0934E12809190128061809354
:10409000901284E493E0909315128093141280910F
:1040A0008312815080938312882311F40C94B534C9
:1040B00020919112309192128091200F9091210FB6
:1040C000A091220FB091230F820F931FA11DB11D4C
:1040D0008093200F9093210FA093220FB093230F72
:1040E000E0911A0F81E08E0F80931A0FF0E0EE0F2F
:1040F000FF1FEE0FFF1FE65EF44F80918F1290912D
:104100009012A0919112B091921280839183A28318
:10411000B38380918F128F7780938F1280911B12BF
:1041200090911C12019790931C1280931B12892B63
:1041300011F40C94602D109294121092931282E05C
:1041400080939B128DE493E0909315128093141248
:104150000E9494688111A5C280918E12E091A212F2
:10416000F091A312882311F40C94AE35A081B18193
:1041700020918512309186124091871250918812B9
:104180000E949F85DC01CB01CAE0B695A795979563
:104190008795CA95D1F7909392128093911290913E
:1041A00020129093901280911F12882311F40C9486
:1041B000023440913B1250913C1260913D1270913B
:1041C0003E1277FF02C00C941E3D009163121091C5
:1041D00064122091651230916612400F511F621FC8
:1041E000731F40933B1250933C1260933D127093A7
:1041F0003E12916090939012813011F00C94023431
:1042000040914312509144126091451270914612B0
:1042100077FF02C00C94643B00916B1210916C12FA
:1042200020916D1230916E12400F511F621F731F4B
:104230004093431250934412609345127093461278
:1042400090919012946090939012833039F1409144
:104250004712509148126091491270914A1277FFAB
:1042600002C00C947A3B00916F1210917012209151
:10427000711230917212400F511F621F731F4093D1
:104280004712509348126093491270934A129091CA
:104290009012986090939012843029F180914B1283
:1042A00090914C12A0914D12B0914E12B7FF02C0E6
:1042B0000C94903C4091731250917412609175125D
:1042C00070917612840F951FA61FB71F80934B1213
:1042D00090934C12A0934D12B0934E128091901275
:1042E0008061809390128CE593E0909315128093F7
:1042F000141280918312815080938312882311F4C9
:104300000C94DD3420919112309192128091200F03
:104310009091210FA091220FB091230F820F931F34
:10432000A11DB11D8093200F9093210FA093220F08
:10433000B093230FE0911A0F81E08E0F80931A0F34
:10434000F0E0EE0FFF1FEE0FFF1FE65EF44F8091CF
:104350008F1290919012A0919112B091921280833D
:104360009183A283B383DACE8B3324E0920711F4D6
:104370000C94ED3110F40C940E308A35F4E09F0764
:1043800009F440C08E3524E0920709F45CC08F34F4
:10439000944009F030C78091931290919412843A1E
:1043A000E1E09E0711F40C942E31853BF1E09F076C
:1043B00011F40C944C34892B11F40C948A3EE09146
:1043C000A212F091A3128FEF9FEF9093941280931B
:1043D0009312808191819093801280937F1210922A
:1043E0008E128091161285FFA7C01092941210921F
:1043F000931284E080939B128AE594E090931512C7
:10440000809314120E94946881114BC1E091A21212
:10441000F091A31280819181A281B381809389124E
:1044200090938A12A0938B12B0938C1210929412D4
:104430001092931281E080939B128EE594E090930A
:104440001512809314120E94946881112AC1E09180
:10445000A212F091A312C081C0938D1280919F038C
:104460009091A003959587959595879595958795B6
:10447000959587952091000230910102821B930B44
:1044800097FF02C00C9485398436910514F40C947E
:10449000E9352091C9113091CA1140E050E0609196
:1044A000891270918A1280918B1290918C120E94C5
:1044B0006685DC01CB0104C0B695A79597958795D5
:1044C000CA95D2F78130F0E19F07A105B10520F030
:1044D00080E090E1A0E0B0E0809385129093861296
:1044E000A0938712B0938812813024E09207A1052F
:1044F000B10510F00C9480332091ED11222311F4BA
:104500000C9480338091EE119091EF11A091F011F5
:10451000B091F1118093851290938612A093871227
:10452000B093881221E020938E1281159240A1054C
:10453000B10510F40C9495391092941210929312C4
:1045400082E080939B128CEA94E090931512809302
:1045500014120E9494688111A4C0E091A212F091FB
:10456000A312A081B181B0931A12A0931912809165
:104570008E12882311F40C94C4322091851230914C
:10458000861240918712509188120E949F85DC010B
:10459000CB01EAE0B695A79597958795EA95D1F76F
:1045A00090939212809391121092941210929312FF
:1045B00081E080939B1289EB94E090931512809395
:1045C00014120E94946881116CC0E091A212F091C3
:1045D000A3128081809390128EEB94E09093151239
:1045E00080931412809183128150809383128823C8
:1045F00011F40C94763320919112309192128091A3
:10460000200F9091210FA091220FB091230F820FC4
:10461000931FA11DB11D8093200F9093210FA09394
:10462000220FB093230FE0911A0F81E08E0F809339
:104630001A0FF0E0EE0FFF1FEE0FFF1FE65EF44FC4
:1046400080918F1290919012A0919112B09192123C
:1046500080839183A283B38380918F128F7780931D
:104660008F12809116129091171286FD02C00C9441
:104670003E3320917F1230918012215031093093C6
:10468000801220937F12232B09F096CA91FF05C058
:104690008091841281110E94506110921512109223
:1046A000141281E0DF91CF911F910F91FF90EF9055
:1046B000DF90CF9008958A31A5E09A0711F40C9409
:1046C0006D3210F40C949E2E843325E0920709F489
:1046D00060C08D33A5E09A0711F40C9407328A323A
:1046E000954009F088C50E9494688111DACFE09165
:1046F000A212F091A312808191811092901220E574
:1047000033EC309392122093911233C02091911286
:10471000309192128091200F9091210FA091220F41
:10472000B091230F820F931FA11DB11D8093200F05
:104730009093210FA093220FB093230F81E08E0F4F
:1047400080931A0FF0E0EE0FFF1FEE0FFF1FE65EE3
:10475000F44F80918F1290919012A0919112B0918C
:10476000921280839183A283B3838091811290916E
:1047700082129C01215031093093821220938112C0
:10478000892B09F48ACF84E395E0909315128093E6
:104790001412E0911A0F80911B0FBE2FB81BBF3F60
:1047A00009F0B4CF7ECF8737B3E09B0711F40C94A8
:1047B000482E10F40C94A7318F38A3E09A0709F41F
:1047C000DAC08B3AB3E09B0709F48FC78038934077
:1047D00009F011C50E949468811163CF80918E12F7
:1047E000E091A212F091A312882311F40C94A63543
:1047F000A0812091851230918612409187125091AC
:104800008812B0E00E949F85DC01CB016AE0B6957A
:10481000A795979587956A95D1F790939212809373
:104820009112909120129093901280911F128823E0
:1048300011F40C94D93340913B1250913C12609189
:104840003D1270913E1277FF02C00C94343D0091EE
:104850006312109164122091651230916612400F1C
:10486000511F621F731F40933B1250933C12609381
:104870003D1270933E12916090939012813011F02E
:104880000C94D933409143125091441260914512D7
:104890007091461277FF02C00C944E3B00916B1250
:1048A00010916C1220916D1230916E12400F511FB9
:1048B000621F731F4093431250934412609345123A
:1048C000709346129091901294609093901283305E
:1048D00039F14091471250914812609149127091FC
:1048E0004A1277FF02C00C94233B00916F12109183
:1048F00070122091711230917212400F511F621F7D
:10490000731F40934712509348126093491270935B
:104910004A1290919012986090939012843029F1ED
:1049200080914B1290914C12A0914D12B0914E1269
:10493000B7FF02C00C946B3C4091731250917412FB
:104940006091751270917612840F951FA61FB71F84
:1049500080934B1290934C12A0934D12B0934E1231
:10496000809190128061809390128FE893E09093F1
:1049700015128093141280918312815080938312B8
:10498000882311F40C94D334209191123091921217
:104990008091200F9091210FA091220FB091230FB1
:1049A000820F931FA11DB11D8093200F9093210FA3
:1049B000A093220FB093230FE0911A0F81E08E0F86
:1049C00080931A0FF0E0EE0FFF1FEE0FFF1FE65E61
:1049D000F44F80918F1290919012A0919112B0910A
:1049E000921280839183A283B38380911D12909150
:1049F0001E12019790931E1280931D12892B09F4A9
:104A0000AEC5109294121092931281E080939B1283
:104A100080E893E090931512809314120E9494689A
:104A2000882309F4DBCE3DCE8236A2E09A0709F452
:104A300001C108F0D7C3009711F40C9445328034BB
:104A4000924009F0D8C30E94946881112ACEE09167
:104A5000A212F091A312C081CC3011F40C94813CCD
:104A600010F00C94EF34C73009F4DEC0CB3011F4F1
:104A70000C94DE36C33011F40C94C73880E00E94E9
:104A8000A66F84E292E00E948E6F81E00E94A66F82
:104A90008CE292E00E948E6F4AE065E070E080E078
:104AA00090E00E94BA6F82E00E94A66F85E392E0D8
:104AB0000E948E6F8C2F90E0A0E0B0E04AE0BC0135
:104AC000CD010E94BA6F83E00E94A66F8EE392E050
:104AD0000E948E6F8DE392E00E948E6F8091A704FA
:104AE0009091A804282F291B2F3F41F1E1E0E80F06
:104AF000E093A704A82FB0E0AB55BC4F12961C92D0
:104B00002E2F291B2F3FD1F022E0280F2093A7043E
:104B1000F0E0EB55FC4F33E03283422F50E05093EE
:104B2000B0044093AF04291B2F3F41F08D5F809369
:104B3000A704FA01EB55FC4F81E082838091A70422
:104B4000282F30E03093AE042093AD04482F491B4A
:104B50004F3F11F40C94283E8F5F8093A704D90136
:104B6000AB55BC4F81E012968C9312972091AF0405
:104B70003091B004F901FF27EB55FC4F82818F5F24
:104B8000828312968C9112978F5F12968C93A091CC
:104B9000A7048A2F891B8F3F11F40C94843E81E077
:104BA0008A0F8093A704B0E0AB55BC4F45E0129646
:104BB0004C9342814F5F4283CC2311F40C94E23D2D
:104BC0000091AD041091AE04A80155274B555C4FE0
:104BD000DA0112966C9112976F5F12966C93682FA0
:104BE000691B6F3F11F40C94803E61E0680F609385
:104BF000A704A82FB0E0AB55BC4F1296CC9382818E
:104C00008F5F8283691B6F3F11F40C94ED3D0F3F62
:104C10001F4F19F08FEFFA0182838091AB048F5FF1
:104C20008093AB040E94404782E692E09093151275
:104C30008093141280911A0F90911B0F891B8095FD
:104C400080938312882309F42CCD10929412109231
:104C5000931282E080939B1286E692E09093151265
:104C6000809314120E94946881111BCDE091A212CE
:104C7000F091A31280819181809316129093171264
:104C800087FF03C08F7980938F1210929412109235
:104C9000931281E080939B1288E792E09093151223
:104CA000809314120E9494688111FBCCE091A212AF
:104CB000F091A312908190931F1281E001C0880FA0
:104CC0009A95EAF780932012109294121092931200
:104CD00084E080939B1281E892E090931512809378
:104CE00014120E9494688111DCCCE091A212F09120
:104CF000A31280819181A281B38180932712909326
:104D00002812A0932912B0932A1210929412109292
:104D1000931284E080939B1285E892E090931512A1
:104D2000809314120E9494688111BBCCE091A2126E
:104D3000F091A31280819181A281B38180932B1283
:104D400090932C12A0932D12B0932E1210929412C5
:104D50001092931284E080939B1289E892E09093E2
:104D60001512809314120E94946881119ACCE091DC
:104D7000A212F091A31280819181A281B3818093CC
:104D80002F1290933012A0933112B09332121092DE
:104D900094121092931284E080939B128DE892E01B
:104DA00090931512809314120E949468811179CC0B
:104DB000E091A212F091A31280819181A281B3812E
:104DC0008093331290933412A0933512B09336121D
:104DD000109294121092931284E080939B1281E9B6
:104DE00092E090931512809314120E94946881119E
:104DF00058CCE091A212F091A31280819181A281FE
:104E0000B3818093371290933812A0933912B093E4
:104E10003A12109294121092931282E080939B1295
:104E200085E992E090931512809314120E94946881
:104E3000811137CCE091A212F091A312808191816F
:104E400090931C1280931B12109294121092931242
:104E500082E080939B1289E992E0909315128093EF
:104E600014120E94946881111CCCE091A212F0915E
:104E7000A3128081918190931E1280931D12109233
:104E80008E12809116129091171290FFB0C010925E
:104E900094121092931284E080939B1284EA92E021
:104EA00090931512809314120E9494688111F9CB8B
:104EB000E091A212F091A31280819181A281B3812D
:104EC0008093891290938A12A0938B12B0938C12C4
:104ED000109294121092931281E080939B1288EAB0
:104EE00092E090931512809314120E94946881119D
:104EF000D8CBE091A212F091A312C081C0938D1281
:104F00006091891270918A1280918B1290918C120B
:104F1000611571058105910511F40C94C43120913E
:104F20009F033091A003A901559547955595479545
:104F3000559547955595479520910002309101026E
:104F4000DA01A21BB30B9D01B7FF02C00C94213CF8
:104F5000A436B10514F40C94313A2091C911309162
:104F6000CA1140E050E00E946685DC01CB0104C01C
:104F7000B695A79597958795CA95D2F78130E0E1C8
:104F80009E07A105B10520F080E090E1A0E0B0E02F
:104F90008093851290938612A0938712B093881203
:104FA00081309440A105B10510F00C94C43180917A
:104FB000ED11882311F40C94C4318091EE1190917D
:104FC000EF11A091F011B091F1118093851290939F
:104FD0008612A0938712B093881221E020938E123C
:104FE00081159240A105B10510F40C948D391092F1
:104FF00094121092931282E080939B128EEF92E0B3
:1050000090931512809314120E949468811149CBD9
:1050100080918E12E091A212F091A312882311F4D4
:105020000C949532A081B181209185123091861225
:1050300040918712509188120E949F85DC01CB011C
:105040002AE0B695A795979587952A95D1F79093DD
:10505000221280932112109294121092931282E0E5
:1050600080939B1288E093E0909315128093141222
:105070000E949468811115CBE091A212F091A312C5
:105080008081918190932612809325121092941220
:105090001092931282E080939B128CE093E09093A5
:1050A0001512809314128091991290919A12609126
:1050B000971270919812681B790B7093A1126093EC
:1050C000A012A0919B122A2F30E06217730710F0F4
:1050D0000C9473396115710511F40C94CA32E09186
:1050E0009512F091961240E050E020E0E80FF91F91
:1050F00080E090E0A150EF01C40FD51F3881EC0192
:10510000CD56DD4E39878A2F821B80939B122F5FED
:10511000822F90E0AC018617970768F384EA91E04C
:1051200090939412809393128091D70A882309F464
:10513000B8CA8091D80A9091D90A8F5C964011F430
:105140000C94D93D8FEC96E09093D90A8093D80ABD
:10515000DC018091D30A9091D40A4091CF0A5091FA
:10516000D00A6091D10A7091D20A480F591F611D6F
:10517000711D4093CF0A5093D00A6093D10A709367
:10518000D20A1092D70A9093981280939712B093F4
:105190009612A093951290919B129923A1F02091C1
:1051A000A0123091A112F901E456FD4E265F3F4F47
:1051B0008FEF890F280F311D2D563D4E8D91819314
:1051C000E217F307D9F72CE932E13093A3122093C9
:1051D000A212892F90E090939A1280939912F9016C
:1051E0000C94FD1E8636F2E09F0709F43BCD88370C
:1051F000924009F457CD8FEF9FEF90931512809353
:10520000141280E04FCA8091231290912412892BAE
:1052100009F44CC480918F128F7B80938F1210926F
:1052200094121092931282E080939B128BEF93E082
:1052300090931512809314120E949468811131CAC0
:1052400080918E12E091A212F091A312882311F4A2
:105250000C942B34A081B18120918512309186125B
:1052600040918712509188120E949F85DC01CB01EA
:10527000DAE0B695A79597958795DA95D1F790934B
:105280009212809391120E941F608AE094E09093A2
:10529000151280931412809183128150809383128F
:1052A000882311F40C94B331209191123091921211
:1052B0008091200F9091210FA091220FB091230F88
:1052C000820F931FA11DB11D8093200F9093210F7A
:1052D000A093220FB093230FE0911A0F81E08E0F5D
:1052E00080931A0FF0E0EE0FFF1FEE0FFF1FE65E38
:1052F000F44F80918F1290919012A0919112B091E1
:10530000921280839183A283B38380918F128F77CF
:1053100080938F1280912312909124120197909381
:10532000241280932312892B09F4C0C31092941283
:105330001092931282E080939B1283E194E0909309
:105340001512809314120E9494688111AAC9809149
:105350008E12E091A212F091A312882311F40C9402
:105360009635A081B18120918512309186124091AD
:105370008712509188120E949F85DC01CB01CAE000
:10538000B695A79597958795CA95D1F79093921260
:1053900080939112909120129093901280911F12FD
:1053A000882311F40C94873340913B1250913C12A6
:1053B00060913D1270913E1277FF02C00C94BC3C8C
:1053C000009163121091641220916512309166125F
:1053D000400F511F621F731F40933B1250933C12AA
:1053E00060933D1270933E129160909390128130C1
:1053F00011F00C9487334091431250914412609104
:1054000045127091461277FF02C00C94CB3A00917E
:105410006B1210916C1220916D1230916E12400F30
:10542000511F621F731F40934312509344126093A5
:10543000451270934612909190129460909390123E
:10544000833039F1409147125091481260914912CE
:1054500070914A1277FF02C00C94E13A00916F12EA
:10546000109170122091711230917212400F511FE1
:10547000621F731F40934712509348126093491262
:1054800070934A1290919012986090939012843089
:1054900029F180914B1290914C12A0914D12B09134
:1054A0004E12B7FF02C00C94553C409173125091BC
:1054B00074126091751270917612840F951FA61F59
:1054C000B71F80934B1290934C12A0934D12B09340
:1054D0004E128091901280618093901282E294E04B
:1054E00090931512809314128091831281508093AF
:1054F0008312882311F40C94BF34209191123091BF
:1055000092128091200F9091210FA091220FB091C3
:10551000230F820F931FA11DB11D8093200F909325
:10552000210FA093220FB093230FE0911A0F81E077
:105530008E0F80931A0FF0E0EE0FFF1FEE0FFF1F8C
:10554000E65EF44F80918F1290919012A09191128B
:10555000B091921280839183A283B383DBCE80913A
:105560007B1290917C12A0917D12B0917E12892BBA
:105570008A2B8B2B09F412C280918F1283FF03C0F8
:10558000806480938F1280912112909122129093C7
:105590009212809391129091201290939012809188
:1055A0001F12882311F40C94153340913B12509133
:1055B0003C1260913D1270913E1277FF02C00C9434
:1055C000293C009163121091641220916512309170
:1055D0006612400F511F621F731F40933B1250937E
:1055E0003C1260933D1270933E1291609093901222
:1055F000813011F00C9415334091431250914412B4
:10560000609145127091461277FF02C00C941B3ACC
:1056100000916B1210916C1220916D1230916E12EC
:10562000400F511F621F731F409343125093441247
:1056300060934512709346129091901294609093EB
:105640009012833039F14091471250914812609185
:10565000491270914A1277FF02C00C94053A0091EA
:105660006F12109170122091711230917212400FCE
:10567000511F621F731F409347125093481260934B
:10568000491270934A1290919012986090939012E0
:10569000843029F180914B1290914C12A0914D12BF
:1056A000B0914E12B7FF02C00C94BB3B40917312F5
:1056B000509174126091751270917612840F951F3B
:1056C000A61FB71F80934B1290934C12A0934D12BC
:1056D000B0934E12809190128061809390128BEA69
:1056E00093E090931512809314128091831281504D
:1056F00080938312882311F40C9491342091911299
:10570000309192128091200F9091210FA091220F41
:10571000B091230F820F931FA11DB11D8093200F05
:105720009093210FA093220FB093230FE0911A0FB3
:1057300081E08E0F80931A0FF0E0EE0FFF1FEE0F47
:10574000FF1FE65EF44F80918F1290919012A0910E
:105750009112B091921280839183A283B38380913E
:105760008F128F7780938F1240917B1250917C1211
:1057700060917D1270917E12415051096109710949
:1057800040937B1250937C1260937D1270937E1233
:10579000452B462B472B09F4FEC090912012909385
:1057A000901280911F12882311F40C94C0354091FF
:1057B0003B1250913C1260913D1270913E1277FF66
:1057C00002C00C94BA3D00916312109164122091B2
:1057D000651230916612400F511F621F731F409374
:1057E0003B1250933C1260933D1270933E129160B5
:1057F00090939012813011F00C94C0354091431277
:1058000050914412609145127091461277FF02C088
:105810000C948E3D00916B1210916C1220916D12C0
:1058200030916E12400F511F621F731F409343123D
:1058300050934412609345127093461290919012C7
:10584000946090939012833039F1409147125091B7
:1058500048126091491270914A1277FF02C00C946D
:10586000783D00916F121091701220917112309159
:105870007212400F511F621F731F409347125093C3
:1058800048126093491270934A1290919012986056
:1058900090939012843029F180914B1290914C1288
:1058A000A0914D12B0914E12B7FF02C00C94A43DCE
:1058B000409173125091741260917512709176122A
:1058C000840F951FA61FB71F80934B1290934C1205
:1058D000A0934D12B0934E128091901280618093EC
:1058E000901286EB93E0909315128093141280919E
:1058F0008312815080938312882311F40C94B6355F
:1059000020919112309192128091200F9091210F4D
:10591000A091220FB091230F820F931FA11DB11DE3
:105920008093200F9093210FA093220FB093230F09
:10593000E0911A0F81E08E0F80931A0FF0E0EE0FC6
:10594000FF1FEE0FFF1FE65EF44F80918F129091C4
:105950009012A0919112B091921280839183A283B0
:10596000B38380917B1290917C12A0917D12B091B3
:105970007E120197A109B10980937B1290937C124A
:10598000A0937D12B0937E12892B8A2B8B2B09F06A
:1059900004CF80918F128F7B80938F12809125127C
:1059A00090912612892B09F42ECC80918F128F7B37
:1059B00080938F12109294121092931281E0809330
:1059C0009B1288EC93E090931512809314120E941E
:1059D000946881110C94512380918E12E091A2124F
:1059E000F091A312882309F447C7A0812091851262
:1059F000309186124091871250918812B0E00E9437
:105A00009F85DC01CB012AE0B695A79597958795F0
:105A10002A95D1F790939212809391120E941F6061
:105A200087ED93E090931512809314128091831266
:105A3000815080938312882309F415C72091911215
:105A4000309192128091200F9091210FA091220FFE
:105A5000B091230F820F931FA11DB11D8093200FC2
:105A60009093210FA093220FB093230FE0911A0F70
:105A700081E08E0F80931A0FF0E0EE0FFF1FEE0F04
:105A8000FF1FE65EF44F80918F1290919012A091CB
:105A90009112B091921280839183A283B3838091FB
:105AA0008F128F7780938F120C94AF1B80911612F8
:105AB0009091171292FF02C00C9448230C944D232E
:105AC00080911D1290911E12892B09F448CD80916E
:105AD0008F128F7B80938F121092941210929312D8
