:100000000C944B0A0C947C0A0C947C0A0C947C0A89
:100010000C947C0A0C947C0A0C947C0A0C947C0A48
:100020000C947C0A0C947C0A0C947C0A0C947C0A38
:100030000C947C0A0C947C0A0C947C0A0C947C0A28
:100040000C947C0A0C948B590C94F5460C947C0A05
:100050000C947C0A0C947C0A0C947C0A0C94224626
:100060000C947C0A0C94635B0C947C0A0C947C0AC0
:100070000C947C0A0C947C0A0C947C0A0C947C0AE8
:100080000C947C0A0C947C0A0C947C0A0C947C0AD8
:100090000C947C0A0C947C0A0C947C0A0C947C0AC8
:1000A0000C947C0A0C947C0A0C947C0A0C947C0AB8
:1000B0000C947C0A0C947C0A0C947C0A0C947C0AA8
:1000C0000C947C0A0C947C0A0C947C0A0C947C0A98
:1000D0000C947C0A0C947C0A0C947C0A0C947C0A88
:1000E0000C947C0A17730874ED71ED71ED71B8739F
:1000F000AB735F73327320731C73ED71ED71ED712F
:10010000ED71ED71ED71ED71ED71ED71ED71ED71FF
:10011000ED71EE74EC74ED71ED71ED71E174DF74FD
:10012000DD74DB74ED71D974D674ED71CB74C07469
:10013000B474A8749374857468746574C775ED712C
:100140009975437631752375ED71ED711D75ED71FE
:100150001875077586756F753A75347563746174B3
:100160008B7545740173E673524456445A44604497
:10017000664451446C44724478447E4484448A44C6
:100180009044964451449C44A2444C4445454D45BA
:1001900052455C45664534457045784580458A45FD
:1001A00094459E45AD45B7453445C145CB45D545FC
:1001B000441F041D671B2A1A2B195718A21706176C
:1001C0007B16001692152D15D1147C142E14E513F0
:1001D000A11362132613ED12B812851255122712BD
:1001E000FC11D211AA1184115F113B111911F810E1
:1001F000D910BA109C108010641049102F101510DF
:10020000FC0FE40FCD0FB60FA00F8A0F750F610F13
:100210004C0F390F250F130F000FEE0EDD0ECB0E16
:10022000BA0EAA0E990E890E7A0E6A0E5B0E4C0E4D
:100230003E0E2F0E210E130E060EF80DEB0DDE0DE9
:10024000D10DC50DB80DAC0DA00D940D880D7D0D13
:10025000710D660D5B0D500D450D3B0D300D260DDE
:100260001B0D110D070DFD0CF30CEA0CE00CD70C67
:10027000CD0CC40CBB0CB20CA90CA00C980C8F0CB0
:10028000860C7E0C760C6D0C650C5D0C550C4D0CC3
:10029000450C3D0C350C2E0C260C1F0C170C100CAD
:1002A000080C010CFA0BF30BEC0BE50BDE0BD70B78
:1002B000D00BC90BC20BBC0BB50BAE0BA80BA10B23
:1002C0009B0B950B8E0B880B820B7B0B750B6F0BAF
:1002D000690B630B5D0B570B510B4C0B460B400B23
:1002E0003A0B350B2F0B290B240B1E0B190B130B81
:1002F0000E0B080B030BFE0AF80AF30AEE0AE90AD2
:10030000E40ADE0AD90AD40ACF0ACA0AC50AC00A10
:10031000BB0AB60AB10AAD0AA80AA30A9E0A990A3C
:10032000950A900A8B0A870A820A7E0A790A740A59
:10033000700A6B0A670A620A5E0A5A0A550A510A6B
:100340004C0A480A440A400A3B0A370A330A2F0A71
:100350002A0A260A220A1E0A1A0A160A120A0E0A6D
:100360000A0A060A020AFE09FA09F609F209EE0962
:10037000EA09E609E209DE09DA09D709D309CF0952
:10038000CB09C809C409C009BC09B909B509B10933
:10039000AE09AA09A609A3099F099B09980994090E
:1003A00091098D098A09860983097F097C097809E1
:1003B000750971096E096B096709640960095D09AE
:1003C0005A095609530950094C0949094609420975
:1003D0003F093C093909350932092F092C09290936
:1003E000250922091F091C091909160912090F09F3
:1003F0000C090909060903090009FD08FA08F708AC
:10040000F408F108ED08EA08E708E408E108DE0866
:10041000DB08D908D608D308D008CD08CA08C70811
:10042000C408C108BE08BB08B808B508B308B008BE
:10043000AD08AA08A708A408A1089F089C08990865
:100440009608930891088E088B0888088608830808
:1004500080087D087B0878087508720870086D08A8
:100460006A086808650862085F085D085A08570846
:10047000550852084F084D084A08480845084208E0
:1004800040083D083A0838083508330830082E0877
:100490002B0828082608230821081E081C0819080C
:1004A0001708140811080F080C080A08070805089F
:1004B00002080008FD07FB07F807F607F307F10736
:1004C000EE07EC07EA07E707E507E207E007DD07C5
:1004D000DB07D807D607D407D107CF07CC07CA0751
:1004E000C707C507C307C007BE07BB07B907B707DC
:1004F000B407B207B007AD07AB07A807A607A40764
:10050000A1079F079D079A079807960793079107EA
:100510008F078C078A0788078507830781077E076F
:100520007C077A0778077507730771076E076C07F2
:100530006A0767076507630761075E075C075A0775
:1005400058075507530751074F074C074A074807F5
:100550004607430741073F073D073A073807360775
:10056000340731072F072D072B07290726072407F4
:10057000220720071D071B07190717071507120772
:1005800010070E070C070A070707050703070107EF
:10059000FF06FC06FA06F806F606F406F206EF0673
:1005A000ED06EB06E906E706E506E206E006DE06EE
:1005B000DC06DA06D806D506D306D106CF06CD0668
:1005C000CB06C806C606C406C206C006BE06BC06E2
:1005D000B906B706B506B306B106AF06AD06AA065C
:1005E000A806A606A406A206A0069E069C069906D4
:1005F00097069506930691068F068D068B0688064C
:1006000086068406820680067E067C067A067706C3
:100610007506730671066F066D066B06690666063B
:100620006406620660065E065C065A0658065606B2
:10063000530651064F064D064B064906470645062A
:10064000430640063E063C063A06380636063406A1
:10065000320630062D062B06290627062506230618
:1006600021061F061D061A0618061606140612068F
:1006700010060E060C060A06070605060306010606
:10068000FF05FD05FB05F905F605F405F205F00586
:10069000EE05EC05EA05E805E505E305E105DF05FE
:1006A000DD05DB05D905D705D405D205D005CE0576
:1006B000CC05CA05C805C605C305C105BF05BD05EE
:1006C000BB05B905B705B405B205B005AE05AC0567
:1006D000AA05A705A505A305A1059F059D059B05E1
:1006E000980596059405920590058E058B0589055C
:1006F00087058505830581057E057C057A057805D6
:100700007605730571056F056D056B056805660552
:100710006405620560055D055B05590557055505CE
:10072000520550054E054C0549054705450543054D
:1007300041053E053C053A053805350533053105CB
:100740002F052C052A0528052605230521051F054B
:100750001C051A0518051605130511050F050C05CE
:100760000A050805060503050105FF04FC04FA0453
:10077000F804F504F304F104EE04EC04EA04E704DD
:10078000E504E304E004DE04DB04D904D704D40464
:10079000D204D004CD04CB04C804C604C404C104EC
:1007A000BF04BC04BA04B804B504B304B004AE0476
:1007B000AB04A904A604A404A1049F049D049A0404
:1007C00098049504930490048E048B048904860491
:1007D000830481047E047C04790477047404720425
:1007E0006F046C046A046704650462045F045D04BA
:1007F0005A0458045504520450044D044A04480451
:100800004504420440043D043A04370435043204EC
:100810002F042D042A042704240421041F041C048B
:1008200019041604130411040E040B04080405042F
:1008300002040004FD03FA03F703F403F103EE03DB
:10084000EB03E803E503E203DF03DC03D903D6038C
:10085000D303D003CD03CA03C703C403C103BE033C
:10086000BB03B703B403B103AE03AB03A803A403F4
:10087000A1039E039B039703940391038E038A03B2
:100880008703840380037D037903760373036F0377
:100890006C036803650361035E035A035703530344
:1008A0004F034C034803440341033D03390336031C
:1008B00032032E032A03260323031F031B031703FC
:1008C00013030F030B0307030303FF02FB02F702EB
:1008D000F302EE02EA02E602E202DD02D902D502EA
:1008E000D002CC02C702C302BE02BA02B502B102F4
:1008F000AC02A702A3029E02990294028F028A020E
:10090000850280027B02760271026C02660261023D
:100910005C02560251024B02460240023A02340285
:100920002F02290223021D02160210020A020402EB
:10093000FD01F701F001E901E201DC01D501CD0182
:10094000C601BF01B701B001A801A0019801900143
:100950008801800177016E0165015C0153014A0144
:10096000400136012C01220117010C010101F500A3
:10097000EA00DD00D100C400B600A9009A008B0097
:100980007C006C005B004900370023000F00F9FF7A
:100990000F20E91CE81A77195A187417B5161116A2
:1009A0008315061596143114D51382133413ED12E2
:1009B000AA126C123212FB11C811971168113C1166
:1009C0001211EA10C4109F107C105A1039101A101E
:1009D000FC0FDE0FC20FA70F8C0F730F5A0F420FC1
:1009E0002A0F130FFD0EE80ED30EBE0EAA0E970EA1
:1009F000840E710E5F0E4D0E3C0E2B0E1A0E0A0E5B
:100A0000FA0DEA0DDA0DCB0DBD0DAE0DA00D920D58
:100A1000840D760D690D5C0D4F0D430D360D2A0DBD
:100A20001E0D120D060DFB0CEF0CE40CD90CCE0CB8
:100A3000C40CB90CAF0CA40C9A0C900C860C7C0C5A
:100A4000730C690C600C560C4D0C440C3B0C320CB6
:100A50002A0C210C180C100C070CFF0BF70BEF0BDA
:100A6000E70BDF0BD70BCF0BC70BC00BB80BB10BD2
:100A7000A90BA20B9B0B930B8C0B850B7E0B770B9F
:100A8000700B6A0B630B5C0B550B4F0B480B420B47
:100A90003B0B350B2F0B280B220B1C0B160B100BD3
:100AA0000A0B040BFE0AF80AF20AEC0AE60AE10A4B
:100AB000DB0AD50AD00ACA0AC50ABF0ABA0AB40AAA
:100AC000AF0AAA0AA40A9F0A9A0A950A8F0A8A0AF2
:100AD000850A800A7B0A760A710A6C0A670A620A2A
:100AE0005D0A590A540A4F0A4A0A460A410A3C0A50
:100AF000380A330A2E0A2A0A250A210A1C0A180A69
:100B0000140A0F0A0B0A060A020AFE09F909F50976
:100B1000F109ED09E809E409E009DC09D809D4097B
:100B2000D009CC09C809C409C009BC09B809B4096D
:100B3000B009AC09A809A409A0099C09980995095C
:100B400091098D098909860982097E097A0977093F
:100B500073096F096C096809650961095D095A091A
:100B6000560953094F094C094809450941093E09ED
:100B70003B093709340930092D092A0926092309B7
:100B80001F091C091909160912090F090C0908097E
:100B900005090209FF08FC08F808F508F208EF0843
:100BA000EC08E908E508E208DF08DC08D908D608FF
:100BB000D308D008CD08CA08C708C408C108BE08B1
:100BC000BB08B808B508B208AF08AC08A908A60861
:100BD000A308A0089D089A089708940891088F0810
:100BE0008C0889088608830880087E087B087808B6
:100BF0007508720870086D086A0867086508620859
:100C00005F085C085A085708540851084F084C08F8
:100C100049084708440841083F083C083908370894
:100C2000340831082F082C082A082708240822082D
:100C30001F081D081A0817081508120810080D08C3
:100C40000B080808060803080108FE07FC07F90757
:100C5000F707F407F207EF07ED07EA07E807E507EC
:100C6000E307E007DE07DB07D907D607D407D2077B
:100C7000CF07CD07CA07C807C607C307C107BE0706
:100C8000BC07BA07B707B507B207B007AE07AB078F
:100C9000A907A707A407A207A0079D079B07990715
:100CA0009607940792078F078D078B07880786079B
:100CB000840782077F077D077B077807760774071D
:100CC00072076F076D076B0769076607640762079E
:100CD00060075D075B07590757075507520750071D
:100CE0004E074C07490747074507430741073E079B
:100CF0003C073A0738073607340731072F072D0717
:100D00002B07290726072407220720071E071C0791
:100D10001A0717071507130711070F070D070B070A
:100D200008070607040702070007FE06FC06FA0686
:100D3000F706F506F306F106EF06ED06EB06E90603
:100D4000E706E406E206E006DE06DC06DA06D8067A
:100D5000D606D406D206D006CE06CB06C906C706EE
:100D6000C506C306C106BF06BD06BB06B906B70663
:100D7000B506B306B106AF06AD06AA06A806A606D6
:100D8000A406A206A0069E069C069A06980696064B
:100D90009406920690068E068C068A0688068606BB
:100DA0008406820680067E067C067A06780676062B
:100DB0007406720670066E066B066906670665069F
:100DC000630661065F065D065B0659065706550613
:100DD000530651064F064D064B0649064706450683
:100DE000430641063F063D063B06390637063506F3
:100DF000330631062F062D062B0629062706250663
:100E0000230621061F061D061B06190617061506D2
:100E10001306120610060E060C060A06080606063B
:100E2000040602060006FE05FC05FA05F805F605AF
:100E3000F405F205F005EE05EC05EA05E805E60522
:100E4000E405E205E005DE05DC05DA05D805D60592
:100E5000D405D205D005CE05CC05CA05C805C60502
:100E6000C405C205C005BE05BC05BA05B805B60572
:100E7000B405B205B005AE05AC05AA05A805A605E2
:100E8000A405A205A0059E059C059A059805960552
:100E90009405920590058E058C058A0588058605C2
:100EA0008405820580057E057C057A057805760532
:100EB000730571056F056D056B05690567056505AA
:100EC000630561055F055D055B055905570555051A
:100ED000530551054F054D054B054905470545058A
:100EE000420540053E053C053A0538053605340502
:100EF000320530052E052C052A0528052505230574
:100F000021051F051D051B051905170515051305E9
:100F100010050E050C050A05080506050405020561
:100F20000005FD04FB04F904F704F504F304F104DF
:100F3000EE04EC04EA04E804E604E404E104DF045B
:100F4000DD04DB04D904D704D404D204D004CE04D5
:100F5000CC04CA04C704C504C304C104BE04BC0451
:100F6000BA04B804B604B304B104AF04AD04AA04CF
:100F7000A804A604A404A1049F049D049B0498044F
:100F80009604940492048F048D048B0488048604D0
:100F9000840481047F047D047A0478047604730455
:100FA00071046F046C046A046804650463046104DA
:100FB0005E045C04590457045504520450044D0463
:100FC0004B0448044604440441043F043C043A04EE
:100FD00037043504320430042D042B04280426047D
:100FE000230421041E041C0419041604140411040F
:100FF0000F040C040A04070404040204FF03FC03A6
:10100000FA03F703F503F203EF03ED03EA03E70343
:10101000E403E203DF03DC03DA03D703D403D103E1
:10102000CE03CC03C903C603C303C003BE03BB0383
:10103000B803B503B203AF03AC03AA03A703A40329
:10104000A1039E039B039803950392038F038C03D4
:1010500089038603830380037C0379037603730388
:1010600070036D036A036603630360035D035A0341
:101070005603530350034C034903460342033F0303
:101080003C033803350331032E032A0327032303CC
:1010900020031C031903150312030E030A0307039D
:1010A0000303FF02FB02F802F402F002EC02E80282
:1010B000E402E002DC02D802D402D002CC02C80270
:1010C000C402C002BC02B802B302AF02AB02A60265
:1010D000A2029E029902950290028C02870282026D
:1010E0007E02790274026F026A02650261025C028A
:1010F000560251024C02470242023C0237023202BF
:101100002C02270221021B02150210020A0204020D
:10111000FE01F801F101EB01E501DE01D801D10189
:10112000CA01C301BC01B501AE01A7019F0198012D
:101130009001880180017801700168015F0156010A
:101140004D0144013B01310127011D01130108013B
:10115000FD00F200E600DA00CE00C100B400A600F7
:1011600098008A007A006A00590048003500220081
:101170000D00F7FF00002110422063308440A5508D
:10118000C660E770088129914AA16BB18CC1ADD1CD
:10119000CEE1EFF13112100273325222B552944275
:1011A000F772D662399318837BB35AA3BDD39CC31D
:1011B000FFF3DEE36224433420040114E664C774C1
:1011C000A44485546AA54BB528850995EEE5CFF56D
:1011D000ACC58DD55336722611163006D776F66615
:1011E0009556B4465BB77AA719973887DFF7FEE7BD
:1011F0009DD7BCC7C448E5588668A77840086118E1
:1012000002282338CCC9EDD98EE9AFF9488969990C
:101210000AA92BB9F55AD44AB77A966A711A500AB4
:10122000333A122AFDDBDCCBBFFB9EEB799B588B5C
:101230003BBB1AABA66C877CE44CC55C222C033C00
:10124000600C411CAEED8FFDECCDCDDD2AAD0BBDAC
:10125000688D499D977EB66ED55EF44E133E322E54
:10126000511E700E9FFFBEEFDDDFFCCF1BBF3AAFFC
:10127000599F788F8891A981CAB1EBA10CD12DC15A
:101280004EF16FE18010A100C230E32004502540F0
:1012900046706760B9839893FBA3DAB33DC31CD350
:1012A0007FE35EF3B1029012F322D2323542145240
:1012B00077625672EAB5CBA5A89589856EF54FE59C
:1012C0002CD50DC5E234C324A01481046674476490
:1012D00024540544DBA7FAB79987B8975FE77EF7F0
:1012E0001DC73CD7D326F2369106B01657667676E0
:1012F000154634564CD96DC90EF92FE9C899E989BC
:101300008AB9ABA94458654806782768C018E1082F
:101310008238A3287DCB5CDB3FEB1EFBF98BD89B8F
:10132000BBAB9ABB754A545A376A167AF10AD01A7F
:10133000B32A923A2EFD0FED6CDD4DCDAABD8BADDB
:10134000E89DC98D267C076C645C454CA23C832CCF
:10135000E01CC10C1FEF3EFF5DCF7CDF9BAFBABF2F
:10136000D98FF89F176E367E554E745E932EB23E1F
:10137000D10EF01E00002100240027002A002D00BD
:101380003000330001010000040107010A010000E0
:101390002200250028002B002E003100340002011D
:1013A0000000050108010B010000200023002600B9
:1013B00029002C002F00320000010000030106016B
:1013C00009010505050507050808080802020202CB
:1013D0000A0A0808040404040101010101010101D1
:1013E0000303030303030303040707070C0C0C0C9C
:1013F0000C0C0C0C02020202060606060606060685
:101400000B0B0B0B0B0B0B0B010210202008081011
:101410002040102040800201020108040201010264
:10142000040810204080804020100804020180043D
:101430000201804020100804020108040201010298
:1014400004081020408001020408102040800000A1
:101450000A0B02090C0D0E0807030401000000002E
:10146000000000000000000000000000000000007C
:101470000000000000000000000012111000000039
:10148000000000000000000000000000000000005C
:1014900000000000237711241FBECFEFD1E2DEBF92
:1014A000CDBF00E00CBF12E0A0E0B2E0ECECFBE04E
:1014B00001E00BBF02C007900D92A835B107D9F724
:1014C00023E1A8E5B2E001C01D92A533B207E1F720
:1014D0001AE0CBE4DAE000E006C021970109802F92
:1014E000FE010E949B85CA34D10780E00807A9F756
:1014F0000E94F95D0C94D7850C940000CF92DF9286
:10150000EF92FF920F931F93CF93DF938091B311CC
:101510009091B411883B23E0920711F40C94F319D5
:1015200008F463C18E3AE4E09E0709F435C608F07A
:1015300088C1853124E0920711F40C94271708F034
:1015400021C5823EF3E09F0709F467C010F40C94B4
:101550001C1C8D3F23E0920711F40C949F168C30D5
:10156000E4E09E0711F40C94CF16813F934011F0F4
:101570000C947D1680912212815080932212882330
:1015800009F423C120913012309131128091410E23
:101590009091420EA091430EB091440E820F931F82
:1015A000A11DB11D8093410E9093420EA093430E56
:1015B000B093440EE0913B0E81E08E0F80933B0E82
:1015C000F0E0EE0FFF1FEE0FFF1FE55CF54F80917F
:1015D0002E1290912F12A0913012B091311280836F
:1015E0009183A283B3838091C4119091C511019717
:1015F0009093C5118093C411892B11F40C94861615
:10160000109233121092321281E080933A1282EEDD
:1016100093E09093B4118093B3110E94C45C811144
:10162000DAC080912D12E0914112F091421288238C
:1016300011F40C94961FA081209124123091251250
:101640004091261250912712B0E00E94AF85DC0134
:10165000CB012AE0B695A795979587952A95D1F75E
:1016600090933112809330129091BF1190932F126A
:101670008091BE11882311F40C94621E4091DA11FE
:101680005091DB116091DC117091DD1177FF02C088
:101690000C945A230091021210910312209104120B
:1016A00030910512400F511F621F731F4093DA11D2
:1016B0005093DB116093DC117093DD119160909376
:1016C0002F12813011F00C94621E4091E211509162
:1016D000E3116091E4117091E51177FF02C00C9461
:1016E0001B2100910A1210910B1220910C123091C3
:1016F0000D12400F511F621F731F4093E211509350
:10170000E3116093E4117093E51190912F129460AE
:1017100090932F12833039F14091E6115091E711E7
:101720006091E8117091E91177FF02C00C943121AA
:1017300000910E1210910F1220911012309111127F
:10174000400F511F621F731F4093E6115093E71122
:101750006093E8117093E91190912F129860909323
:101760002F12843029F18091EA119091EB11A09110
:10177000EC11B091ED11B7FF02C00C94DD22409145
:101780001212509113126091141270911512840F5D
:10179000951FA61FB71F8093EA119093EB11A0939A
:1017A000EC11B093ED1180912F12806180932F1274
:1017B00081EF93E09093B4118093B3118091221242
:1017C0008150809322128111DDCE82E292E10E944B
:1017D000895B8111D7CE81E0DF91CF911F910F916D
:1017E000FF90EF90DF90CF900895863AF2E09F0748
:1017F00011F40C94431508F0EDC08338E2E09E0725
:1018000011F40C94591408F429C78F38F2E09F079B
:1018100011F40C94BF1410F40C94FB1B873922E0D4
:10182000920711F40C9403158B39E2E09E0711F432
:101830000C941F158339924011F00C947D160C9472
:10184000E114873FE4E09E0711F40C94171D08F0A3
:101850004CC58D3C24E0920709F477C010F40C9439
:10186000051C8F3DE4E09E07E1F08B3EF4E09F070E
:1018700011F40C94E31C8A3D944011F00C947D16F5
:101880000E94C45C8111A7CFE0914112F0914212F5
:10189000808180932F128FED94E09093B411809308
:1018A000B31180912212815080932212882311F467
:1018B0000C941F1F20913012309131128091410EF3
:1018C0009091420EA091430EB091440E820F931F4F
:1018D000A11DB11D8093410E9093420EA093430E23
:1018E000B093440EE0913B0E81E08E0F80933B0E4F
:1018F000F0E0EE0FFF1FEE0FFF1FE55CF54F80914C
:101900002E1290912F12A0913012B091311280833B
:101910009183A283B38380911E1290911F1201972D
:1019200090931F1280931E12892B11F40C94431D67
:10193000109233121092321281E080933A128DECA1
:1019400094E09093B4118093B3110E94C45C811110
:1019500042CFE0914112F09142128081A091B811E2
:10196000B091B911A80FB11D87FDBA95B093B91107
:10197000A093B81180912D12882311F40C94F21FBA
:101980002091241230912512409126125091271255
:101990000E94AF85DC01CB014AE0B695A7959795EB
:1019A00087954A95D1F79093311280933012109217
:1019B00033121092321281E080933A128AED94E051
:1019C0009093B4118093B3110E94C45C882309F4EE
:1019D0005BCF01CF8F3423E0920709F4C7C108F031
:1019E000FCC48A30F3E09F0711F40C94561610F4EF
:1019F0000C94391D873323E0920709F48DC0863497
:101A0000E3E09E0709F459C18E30934011F00C9425
:101A10007D160E94C45C8111DECEE0914112F091EE
:101A20004212208131813093C3112093C211009161
:101A3000BE11E02FF0E0EE0FFF1FEE0FFF1FED5481
:101A4000FE4EC388D488E588F688C0921612D092DC
:101A50001712E0921812F0921912C6ECD1E1EEEED4
:101A6000F1E110E00117F1F0488159816A817B8131
:101A7000440F551F661F771FDB01CA018C199D0992
:101A8000AE09BF098C8B9D8BAE8BBF8B408351837E
:101A9000628373838C199D09AE09BF09848B958B72
:101AA000A68BB78B1F5F249634961530D9F66091BC
:101AB000BA117091BB118091BC119091BD11FC01C4
:101AC000E60FF71F4091C4115091C5114E0F5F1FD3
:101AD000240F351FC21AD30AE108F108C0921A1266
:101AE000D0921B12E0921C12F0921D12672B11F47F
:101AF0000C94DF1A80912E128F7B80932E121092FD
:101B000033121092321282E080933A1287E393E00C
:101B10009093B4118093B3110E94C45C81115BCE89
:101B200080912D12E0914112F0914212882311F41C
:101B30000C94741FA081B181209124123091251240
:101B400040912612509127120E94AF85DC01CB01F3
:101B50002AE0B695A795979587952A95D1F7909302
:101B60003112809330129091BF1190932F12809177
:101B7000BE11882311F40C94081E4091DA11509183
:101B8000DB116091DC117091DD1177FF02C00C94C4
:101B9000012300910212109103122091041230913E
:101BA0000512400F511F621F731F4093DA115093AB
:101BB000DB116093DC117093DD11916090932F1213
:101BC000813011F00C94081E4091E2115091E31104
:101BD0006091E4117091E51177FF02C00C94EF2041
:101BE00000910A1210910B1220910C1230910D12DB
:101BF000400F511F621F731F4093E2115093E31176
:101C00006093E4117093E51190912F12946090937A
:101C10002F12833039F14091E6115091E711609114
:101C2000E8117091E91177FF02C00C940521009131
:101C30000E1210910F122091101230911112400FBC
:101C4000511F621F731F4093E6115093E711609379
:101C5000E8117093E91190912F12986090932F12D0
:101C6000843029F18091EA119091EB11A091EC114F
:101C7000B091ED11B7FF02C00C945F224091121297
:101C8000509113126091141270911512840F951FC8
:101C9000A61FB71F8093EA119093EB11A093EC114C
:101CA000B093ED1180912F12806180932F1286E402
:101CB00093E09093B4118093B311809122128150DC
:101CC00080932212882311F40C94291F2091301242
:101CD000309131128091410E9091420EA091430EAD
:101CE000B091440E820F931FA11DB11D8093410E30
:101CF0009093420EA093430EB093440EE0913B0E9E
:101D000081E08E0F80933B0EF0E0EE0FFF1FEE0F91
:101D1000FF1FE55CF54F80912E1290912F12A0913C
:101D20003012B091311280839183A283B38380916A
:101D30002E128F7780932E128091BA119091BB1141
:101D400001979093BB118093BA11892B11F40C94D5
:101D5000DB1A109233121092321282E080933A1200
:101D60008FE493E09093B4118093B3110E94C45C0C
:101D7000811131CD80912D12E0914112F0914212EA
:101D8000882311F40C94A81FA081B1812091241202
:101D90003091251240912612509127120E94AF8552
:101DA000DC01CB011AE0B695A795979587951A9512
:101DB000D1F790933112809330129091BF1190938C
:101DC0002F128091BE11882311F40C94B41E4091FF
:101DD000DA115091DB116091DC117091DD1177FF08
:101DE00002C00C94862300910212109103122091DC
:101DF000041230910512400F511F621F731F409350
:101E0000DA115093DB116093DC117093DD11916056
:101E100090932F12813011F00C94B41E4091E21176
:101E20005091E3116091E4117091E51177FF02C0C8
:101E30000C94092200910A1210910B1220910C129D
:101E400030910D12400F511F621F731F4093E2111A
:101E50005093E3116093E4117093E51190912F1268
:101E6000946090932F12833039F14091E611509194
:101E7000E7116091E8117091E91177FF02C00C94AD
:101E8000DE2100910E1210910F122091101230914C
:101E90001112400F511F621F731F4093E6115093A0
:101EA000E7116093E8117093E91190912F129860F7
:101EB00090932F12843029F18091EA119091EB11C7
:101EC000A091EC11B091ED11B7FF02C00C942E233C
:101ED00040911212509113126091141270911512C8
:101EE000840F951FA61FB71F8093EA119093EB11E3
:101EF000A093EC11B093ED1180912F12806180932B
:101F00002F128EE593E09093B4118093B3118091DA
:101F10002212815080932212882311F40C946A1F9C
:101F200020913012309131128091410E9091420EE9
:101F3000A091430EB091440E820F931FA11DB11DBD
:101F40008093410E9093420EA093430EB093440EA3
:101F5000E0913B0E81E08E0F80933B0EF0E0EE0FA0
:101F6000FF1FEE0FFF1FE55CF54F80912E12909141
:101F70002F12A0913012B091311280839183A283ED
:101F8000B383DACE8D3324E0920711F40C94481C0D
:101F900010F40C94261C8C35E4E09E0751F1803639
:101FA000F4E09F0709F446C08135944009F0A5C6C6
:101FB0000E94C45C81110FCCE0914112F091421259
:101FC0008081918190931F1280931E1210922D1286
:101FD0008091B51185FFD3C0109233121092321246
:101FE00084E080933A128CE594E09093B41180934E
:101FF000B3110E94C45C8111EECBE0914112F091CB
:10200000421280819181A281B381809328129093A2
:102010002912A0932A12B0932B121092331210920D
:10202000321281E080933A1280E694E09093B411EA
:102030008093B3110E94C45C8111CDCBE091411219
:10204000F0914212C081C0932C128091C0029091F5
:10205000C1029595879595958795959587959595C1
:1020600087952091020230910302821B930B97FF08
:1020700002C00C94F81F8436910514F40C94E01FF0
:10208000209168113091691140E050E06091281270
:102090007091291280912A1290912B120E944E85E4
:1020A0009B01AC0104C05695479537952795CA9575
:1020B000D2F7213080E138074105510520F020E0BA
:1020C00030E140E050E020932412309325124093F9
:1020D00026125093271280915D0F213094E039072A
:1020E0004105510510F40C94331F882331F1A09160
:1020F0005E0FB0915F0F0E94AF85DC01CB017AE0EB
:10210000B695A795979587957A95D1F780932412E0
:1021100090932512A0932612B093271280919C11C0
:1021200090919D118E3FEFEF9E0711F40C9429249E
:10213000019690939D1180939C1181E080932D12C4
:1021400080919A1190919B118E3FFFEF9F0711F4A0
:102150000C947D22019690939B1180939A1180910B
:10216000241290912512A0912612B09127128F3F30
:102170009105A105B10509F010F40C9448201092C6
:1021800033121092321282E080933A128EEA94E077
:102190009093B4118093B3110E94C45C81111BCB46
:1021A000E0914112F0914212A081B181B093B91136
:1021B000A093B81180912D12882311F40C94CC1D9A
:1021C000209124123091251240912612509127120D
:1021D0000E94AF85DC01CB016AE0B695A795979583
:1021E00087956A95D1F790933112809330121092AF
:1021F00033121092321281E080933A128BEB94E00A
:102200009093B4118093B3110E94C45C8111E3CA0E
:10221000E0914112F0914212808180932F1280EC64
:1022200094E09093B4118093B31180912212815065
:1022300080932212882311F40C94311E20913012C5
:10224000309131128091410E9091420EA091430E37
:10225000B091440E820F931FA11DB11D8093410EBA
:102260009093420EA093430EB093440EE0913B0E28
:1022700081E08E0F80933B0EF0E0EE0FFF1FEE0F1C
:10228000FF1FE55CF54F80912E1290912F12A091C7
:102290003012B091311280839183A283B3838091F5
:1022A0002E128F7780932E128091B5119091B611D6
:1022B00086FD02C00C94F91D20911E1230911F1250
:1022C0002150310930931F1220931E12232B09F045
:1022D0002FCB91FF05C08091231281110E94492CC0
:1022E0001092B4111092B31176CA8C31E5E09E07BA
:1022F00011F40C94561D10F40C946D1C8633F5E00B
:102300009F0709F460C08F3325E0920711F40C9405
:10231000791D8C32954009F0F0C40E94C45C811193
:102320005ACAE0914112F09142128081918110923B
:102330002F1220E533EC309331122093301233C04A
:1023400020913012309131128091410E9091420EC5
:10235000A091430EB091440E820F931FA11DB11D99
:102360008093410E9093420EA093430EB093440E7F
:1023700081E08E0F80933B0EF0E0EE0FFF1FEE0F1B
:10238000FF1FE55CF54F80912E1290912F12A091C6
:102390003012B091311280839183A283B3838091F4
:1023A0002012909121129C01215031093093211269
:1023B00020932012892B09F493CF86E395E0909324
:1023C000B4118093B311E0913B0E80913C0E9E2F8F
:1023D000981B9F3F09F0B4CFFEC9893723E09207CD
:1023E00011F40C94BB1B10F40C94111C8139E3E024
:1023F0009E0709F4DAC08D3AF3E09F0709F4F4C6AA
:102400008238934009F079C40E94C45C8111E3C909
:1024100080912D12E0914112F0914212882311F423
:102420000C94A01FA081209124123091251240917C
:10243000261250912712B0E00E94AF85DC01CB013B
:10244000EAE0B695A79597958795EA95D1F7909389
:102450003112809330129091BF1190932F1280917E
:10246000BE11882311F40C948B1E4091DA11509107
:10247000DB116091DC117091DD1177FF02C00C94CB
:1024800070230091021210910312209104123091D6
:102490000512400F511F621F731F4093DA115093B2
:1024A000DB116093DC117093DD11916090932F121A
:1024B000813011F00C948B1E4091E2115091E31188
:1024C0006091E4117091E51177FF02C00C94B22184
:1024D00000910A1210910B1220910C1230910D12E2
:1024E000400F511F621F731F4093E2115093E3117D
:1024F0006093E4117093E51190912F129460909382
:102500002F12833039F14091E6115091E71160911B
:10251000E8117091E91177FF02C00C94C821009175
:102520000E1210910F122091101230911112400FC3
:10253000511F621F731F4093E6115093E711609380
:10254000E8117093E91190912F12986090932F12D7
:10255000843029F18091EA119091EB11A091EC1156
:10256000B091ED11B7FF02C00C948122409112127C
:10257000509113126091141270911512840F951FCF
:10258000A61FB71F8093EA119093EB11A093EC1153
:10259000B093ED1180912F12806180932F1281E909
:1025A00093E09093B4118093B311809122128150E3
:1025B00080932212882311F40C94601F2091301212
:1025C000309131128091410E9091420EA091430EB4
:1025D000B091440E820F931FA11DB11D8093410E37
:1025E0009093420EA093430EB093440EE0913B0EA5
:1025F00081E08E0F80933B0EF0E0EE0FFF1FEE0F99
:10260000FF1FE55CF54F80912E1290912F12A09143
:102610003012B091311280839183A283B383809171
:10262000BC119091BD1101979093BD118093BC1185
:10263000892B09F416C5109233121092321281E0E0
:1026400080933A1282E893E09093B4118093B3118F
:102650000E94C45C882309F4DBCEBDC8843622E026
:10266000920709F4CCC008F03FC3009711F40C9412
:102670008F1D8234924009F040C30E94C45C8111D6
:10268000AAC8E0914112F091421280818C3011F47D
:102690000C94172310F00C947C1F873009F4A9C008
:1026A0008B3011F40C94491D833011F40C94F322F7
:1026B0009091C8032091C903392F321B3F3F41F14C
:1026C000E1E0E90FE093C803A92FB0E0AA53BD4FA2
:1026D00012961C923E2F321B3F3FD1F032E0390F51
:1026E0003093C803F0E0EA53FD4F43E04283432FA9
:1026F00050E05093D1034093D003321B3F3F41F051
:102700009D5F9093C803FA01EA53FD4F91E09283D5
:102710009091C803492F50E05093CF034093CE03CC
:10272000392F321B3F3F11F40C9444249F5F909348
:10273000C803DA01AA53BD4F91E012969C931297F9
:102740004091D0035091D103FA01FF27EA53FD4F86
:1027500092819F5F928312969C9112979F5F12962F
:102760009C93A091C8039A2F921B9F3F11F40C9445
:102770004D2491E09A0F9093C803B0E0AA53BD4F47
:1027800035E012963C9332813F5F3283882311F407
:102790000C942D246091CE037091CF03EB01DD27C3
:1027A000CA53DD4F3A813F5F3A83392F321B3F3F97
:1027B00011F40C94492431E0390F3093C803A92F48
:1027C000B0E0AA53BD4F12968C9382818F5F8283B3
:1027D000321B3F3F11F40C9438246F3F7F4F11F0B0
:1027E0008FEF8A838091CC038F5F8093CC030E940C
:1027F000064B84E692E09093B4118093B3118091DC
:102800003B0E90913C0E891B809580932212882369
:1028100011F40C94EB0B109233121092321282E0EE
:1028200080933A1288E692E09093B4118093B311AA
:102830000E94C45C81110C94EB0BE0914112F09169
:102840004212808191818093B5119093B61187FFD8
:1028500003C08F7980932E1210923312109232128D
:1028600081E080933A128AE792E09093B4118093CA
:10287000B3110E94C45C81110C94EB0BE0914112E6
:10288000F091421290819093BE1181E001C0880FB7
:102890009A95EAF78093BF11109233121092321278
:1028A00084E080933A1283E892E09093B41180938D
:1028B000B3110E94C45C81110C94EB0BE0914112A6
:1028C000F091421280819181A281B3818093C611DF
:1028D0009093C711A093C811B093C91110923312ED
:1028E0001092321284E080933A1287E892E090933B
:1028F000B4118093B3110E94C45C81110C94EB0B52
:10290000E0914112F091421280819181A281B381C4
:102910008093CA119093CB11A093CC11B093CD1199
:10292000109233121092321284E080933A128BE8A4
:1029300092E09093B4118093B3110E94C45C811112
:102940000C94EB0BE0914112F09142128081918145
:10295000A281B3818093CE119093CF11A093D01117
:10296000B093D111109233121092321284E08093FE
:102970003A128FE892E09093B4118093B3110E94C1
:10298000C45C81110C94EB0BE0914112F091421266
:1029900080819181A281B3818093D2119093D311D0
:1029A000A093D411B093D511109233121092321219
:1029B00084E080933A1283E992E09093B41180937B
:1029C000B3110E94C45C81110C94EB0BE091411295
:1029D000F091421280819181A281B3818093D611BE
:1029E0009093D711A093D811B093D91110923312AC
:1029F0001092321282E080933A1287E992E090932B
:102A0000B4118093B3110E94C45C81110C94EB0B40
:102A1000E0914112F0914212808191819093BB111B
:102A20008093BA11109233121092321282E0809386
:102A30003A128BE992E09093B4118093B3110E9403
:102A4000C45C81110C94EB0BE0914112F0914212A5
:102A5000808191819093BD118093BC1110922D12B1
:102A60008091B5119091B61190FFDFC01092331292
:102A70001092321284E080933A1286EA92E09093A8
:102A8000B4118093B3110E94C45C81110C94EB0BC0
:102A9000E0914112F091421280819181A281B38133
:102AA0008093281290932912A0932A12B0932B128C
:102AB000109233121092321281E080933A128AEA15
:102AC00092E09093B4118093B3110E94C45C811181
:102AD0000C94EB0BE0914112F0914212C081C09333
:102AE0002C12609128127091291280912A129091D3
:102AF0002B12611571058105910511F40C94DD1EF1
:102B00002091C0023091C102A90155954795559574
:102B100047955595479555954795209102023091D7
:102B20000302FA01E21BF30B9F01F7FF02C00C94B2
:102B30007522E436F10514F40C94BA202091681142
:102B40003091691140E050E00E944E859B01AC013C
:102B500004C05695479537952795CA95D2F72130E9
:102B6000F0E13F074105510520F020E030E140E071
:102B700050E0209324123093251240932612509354
:102B80002712213084E038074105510510F40C94D8
:102B9000002080915D0F882331F1A0915E0FB091EC
:102BA0005F0F0E94AF85DC01CB01DAE0B695A795F7
:102BB00097958795DA95D1F78093241290932512F3
:102BC000A0932612B093271280919C1190919D1191
:102BD0008E3FEFEF9E0711F40C94402401969093E2
:102BE0009D1180939C1181E080932D1280919A1108
:102BF00090919B118E3FFFEF9F0711F40C940C24D2
:102C0000019690939B1180939A1180912412909138
:102C10002512A0912612B09127128F3F9105A10590
:102C2000B10509F010F40C94402010923312109268
:102C3000321282E080933A1280E093E09093B411D4
:102C40008093B3110E94C45C81110C94EB0B8091B2
:102C50002D12E0914112F0914212882309F46EC7BF
:102C6000A081B18120912412309125124091261229
:102C7000509127120E94AF85DC01CB01CAE0B695C6
:102C8000A79597958795CA95D1F79093C111809391
:102C9000C011109233121092321282E080933A12D5
:102CA0008AE093E09093B4118093B3110E94C45CC6
:102CB00081110C94EB0BE0914112F0914212808152
:102CC00091819093C5118093C41110923312109288
:102CD000321282E080933A128EE093E09093B41126
:102CE0008093B3110C94090D883622E0920709F401
:102CF0009FCD8A37924009F4BCCD8FEF9FEF909320
:102D0000B4118093B31180E00C94EC0B8091C2114C
:102D10009091C311892B09F444C480912E128F7BAA
:102D200080932E12109233121092321282E080930E
:102D30003A128DEF93E09093B4118093B3110E94F7
:102D4000C45C81110C94EB0B80912D12E091411227
:102D5000F0914212882311F40C94EE1EA081B181EF
:102D60002091241230912512409126125091271261
:102D70000E94AF85DC01CB011AE0B695A795979527
:102D800087951A95D1F790933112809330120E9453
:102D9000935B8CE094E09093B4118093B311809195
:102DA0002212815080932212882311F40C94E41E85
:102DB00020913012309131128091410E9091420E4B
:102DC000A091430EB091440E820F931FA11DB11D1F
:102DD0008093410E9093420EA093430EB093440E05
:102DE000E0913B0E81E08E0F80933B0EF0E0EE0F02
:102DF000FF1FEE0FFF1FE55CF54F80912E129091A3
:102E00002F12A0913012B091311280839183A2834E
:102E1000B38380912E128F7780932E128091C211EE
:102E20009091C31101979093C3118093C211892B84
:102E300009F4B7C3109233121092321282E08093D9
:102E40003A1285E194E09093B4118093B3110E94FB
:102E5000C45C81110C94EB0B80912D12E091411216
:102E6000F0914212882311F40C948E1FA081B1813D
:102E70002091241230912512409126125091271250
:102E80000E94AF85DC01CB01CAE0B695A795979566
:102E90008795CA95D1F79093311280933012909113
:102EA000BF1190932F128091BE11882309F4E3C6BD
:102EB0004091DA115091DB116091DC117091DD11BC
:102EC00077FF02C00C944423009102121091031268
:102ED0002091041230910512400F511F621F731F81
:102EE0004093DA115093DB116093DC117093DD1184
:102EF000916090932F12813009F0BDC64091E2118C
:102F00005091E3116091E4117091E51177FF02C0D7
:102F10000C945C2100910A1210910B1220910C125A
:102F200030910D12400F511F621F731F4093E21129
:102F30005093E3116093E4117093E51190912F1277
:102F4000946090932F12833039F14091E6115091A3
:102F5000E7116091E8117091E91177FF02C00C94BC
:102F6000722100910E1210910F12209110123091C7
:102F70001112400F511F621F731F4093E6115093AF
:102F8000E7116093E8117093E91190912F12986006
:102F900090932F12843029F18091EA119091EB11D6
:102FA000A091EC11B091ED11B7FF02C00C94AD22CD
:102FB00040911212509113126091141270911512D7
:102FC000840F951FA61FB71F8093EA119093EB11F2
:102FD000A093EC11B093ED1180912F12806180933A
:102FE0002F1284E294E09093B4118093B3118091F6
:102FF0002212815080932212882309F458C720910D
:103000003012309131128091410E9091420EA09178
:10301000430EB091440E820F931FA11DB11D8093EA
:10302000410E9093420EA093430EB093440EE09154
:103030003B0E81E08E0F80933B0EF0E0EE0FFF1F02
:10304000EE0FFF1FE55CF54F80912E1290912F122D
:10305000A0913012B091311280839183A283B38307
:10306000DDCE80911A1290911B12A0911C12B0918A
:103070001D12892B8A2B8B2B09F40BC280912E12E7
:1030800083FF03C0806480932E128091C0119091C1
:10309000C11190933112809330129091BF1190938F
:1030A0002F128091BE11882309F47CC54091DA115A
:1030B0005091DB116091DC117091DD1177FF02C03E
:1030C0000C94972200910212109103122091041285
:1030D00030910512400F511F621F731F4093DA1188
:1030E0005093DB116093DC117093DD11916090932C
:1030F0002F12813009F056C54091E2115091E31131
:103100006091E4117091E51177FF02C00C948F205B
:1031100000910A1210910B1220910C1230910D1295
:10312000400F511F621F731F4093E2115093E31130
:103130006093E4117093E51190912F129460909335
:103140002F12833031F14091E6115091E7116091D7
:10315000E8117091E91177FF01C0F7C700910E12D5
:1031600010910F122091101230911112400F511F27
:10317000621F731F4093E6115093E7116093E811AB
:103180007093E91190912F12986090932F128430D0
:1031900029F18091EA119091EB11A091EC11B0917D
:1031A000ED11B7FF02C00C943422409112125091DD
:1031B00013126091141270911512840F951FA61F9F
:1031C000B71F8093EA119093EB11A093EC11B09389
:1031D000ED1180912F12806180932F128DEA93E080
:1031E0009093B4118093B3118091221281508093F7
:1031F0002212882309F413C6209130123091311223
:103200008091410E9091420EA091430EB091440ED8
:10321000820F931FA11DB11D8093410E9093420E0A
:10322000A093430EB093440EE0913B0E81E08E0FCD
:1032300080933B0EF0E0EE0FFF1FEE0FFF1FE55CEB
:10324000F54F80912E1290912F12A0913012B091D3
:10325000311280839183A283B38380912E128F7762
:1032600080932E1240911A1250911B1260911C12E1
:1032700070911D12415051096109710940931A1250
:1032800050931B1260931C1270931D12452B462BFA
:10329000472B09F4FBC09091BF1190932F1280919E
:1032A000BE11882309F465C64091DA115091DB11F3
:1032B0006091DC117091DD1177FF02C00C94102435
:1032C0000091021210910312209104123091051204
:1032D000400F511F621F731F4093DA115093DB118F
:1032E0006093DC117093DD11916090932F12813007
:1032F00009F03FC64091E2115091E3116091E41151
:103300007091E51177FF02C00C94CA2300910A1254
:1033100010910B1220910C1230910D12400F511F81
:10332000621F731F4093E2115093E3116093E41105
:103330007093E51190912F12946090932F12833027
:1033400039F14091E6115091E7116091E8117091C7
:10335000E91177FF02C00C94E02300910E12109146
:103360000F122091101230911112400F511F621F45
:10337000731F4093E6115093E7116093E811709327
:10338000E91190912F12986090932F12843029F1B7
:103390008091EA119091EB11A091EC11B091ED1197
:1033A000B7FF02C00C94F6234091121250911312F1
:1033B0006091141270911512840F951FA61FB71FEC
:1033C0008093EA119093EB11A093EC11B093ED115F
:1033D00080912F12806180932F1288EB93E090935D
:1033E000B4118093B31180912212815080932212E4
:1033F000882309F4B5C520913012309131128091A3
:10340000410E9091420EA091430EB091440E820F56
:10341000931FA11DB11D8093410E9093420EA09366
:10342000430EB093440EE0913B0E81E08E0F8093EB
:103430003B0EF0E0EE0FFF1FEE0FFF1FE55CF54FB8
:1034400080912E1290912F12A0913012B0913112D2
:1034500080839183A283B38380911A1290911B126F
:10346000A0911C12B0911D120197A109B10980937E
:103470001A1290931B12A0931C12B0931D12892B49
:103480008A2B8B2B09F007CF80912E128F7B809394
:103490002E128091C4119091C511892B09F436CC5C
:1034A00080912E128F7B80932E12109233121092E5
:1034B000321281E080933A128AEC93E09093B41137
:1034C0008093B3110E94C45C81110C94EB0B80912A
:1034D0002D12E0914112F0914212882309F48FC419
:1034E000A0812091241230912512409126125091F2
:1034F0002712B0E00E94AF85DC01CB014AE0B6950F
:10350000A795979587954A95D1F790933112809317
:1035100030120E94935B89ED93E09093B4118093F5
:10352000B31180912212815080932212882309F4D2
:103530005DC420913012309131128091410E9091F2
:10354000420EA091430EB091440E820F931FA11D15
:10355000B11D8093410E9093420EA093430EB09301
:10356000440EE0913B0E81E08E0F80933B0EF0E025
:10357000EE0FFF1FEE0FFF1FE55CF54F80912E123F
:1035800090912F12A0913012B091311280839183CB
:10359000A283B38380912E128F7780932E120C9486
:1035A000F30A8091B5119091B61192FF02C00C946C
:1035B0006B110C9470118091BC119091BD11892BED
:1035C00009F44FCD80912E128F7B80932E12109292
:1035D00033121092321281E080933A128AE693E01D
:1035E0009093B4118093B3110E94C45C81110C9428
:1035F000EB0B80912D12E0914112F0914212882341
:1036000009F416C4A0812091241230912512409112
:10361000261250912712B0E00E94AF85DC01CB0149
:10362000CAE0B695A79597958795CA95D1F79093D7
:103630003112809330129091BF1190932F1280918C
:10364000BE11882309F481C24091DA115091DB1137
:103650006091DC117091DD1177FD1CC700910212A1
:10366000109103122091041230910512400F511F46
:10367000621F731F4093DA115093DB116093DC11CA
:103680007093DD11916090932F12813009F05DC22B
:103690004091E2115091E3116091E4117091E511B4
:1036A00077FD13C500910A1210910B1220910C1294
:1036B00030910D12400F511F621F731F4093E21192
:1036C0005093E3116093E4117093E51190912F12E0
:1036D000946090932F12833029F14091E61150911C
:1036E000E7116091E8117091E91177FDD9C400915B
:1036F0000E1210910F122091101230911112400FE2
:10370000511F621F731F4093E6115093E71160939E
:10371000E8117093E91190912F12986090932F12F5
:10372000843019F18091EA119091EB11A091EC1184
:10373000B091ED11B7FD83C6409112125091131252
:103740006091141270911512840F951FA61FB71F58
:103750008093EA119093EB11A093EC11B093ED11CB
:1037600080912F12806180932F1289E793E09093CC
:10377000B4118093B3118091221281508093221250
:10378000882309F443C32091301230913112809183
:10379000410E9091420EA091430EB091440E820FC3
:1037A000931FA11DB11D8093410E9093420EA093D3
:1037B000430EB093440EE0913B0E81E08E0F809358
:1037C0003B0EF0E0EE0FFF1FEE0FFF1FE55CF54F25
:1037D00080912E1290912F12A0913012B09131123F
:1037E00080839183A283B38380912E128F778093FD
:1037F0002E120C940F138738E2E09E0709F47BC861
:103800008B38924009F499C878CA8B3BF4E09F0743
:1038100011F40C940411803C944011F40C94151193
:103820006CCA8E35F3E09F0711F40C94870F8A362B
:10383000934009F4D9CE61CA8A3CE3E09E0709F4BB
:1038400041CE893D934009F46CCE57CA8432F4E0EE
:103850009F0709F4CCCB8933944009F04ECA80917C
:103860003B0E90913C0E891B8095809322128823F9
:1038700011F40C94EB0B109233121092321282E07E
:1038800080933A128DE394E09093B4118093B31136
:103890000E94C45C81110C94EB0BE0914112F091F9
:1038A0004212808191818093B5119093B61187FD6A
:1038B00045C380912E128F7B80932E12109233126B
:1038C0001092321282E080933A1281E594E0909354
:1038D000B4118093B3110C94D80F8C3F24E092075D
:1038E00001F18331954009F008CA0E94C45C81113E
:1038F0000C94EB0BE0914112F0914212D181C08106
:10390000D1111AC71092A5111092A6111092A711E9
:103910001092A8116C2F70E089E00E941C450C9455
:10392000701180912212815080932212882309F411
:1039300097C020913012309131128091410E9091B8
:10394000420EA091430EB091440E820F931FA11D11
:10395000B11D8093410E9093420EA093430EB093FD
:10396000440EE0913B0E81E08E0F80933B0EF0E021
:10397000EE0FFF1FEE0FFF1FE55CF54F80912E123B
:1039800090912F12A0913012B091311280839183C7
:10399000A283B38380911E1290911F12019790937E
:1039A0001F1280931E12892B09F46DC010923312DE
:1039B0001092321282E080933A128BEE94E0909350
:1039C000B4118093B3110E94C45C81110C94EB0B71
:1039D00080912D12E0914112F0914212882309F456
:1039E000FAC2A081B1812091241230912512409118
:1039F0002612509127120E94AF85DC01CB012AE0EC
:103A0000B695A795979587952A95D1F790933112FA
:103A100080933012109233121092321281E0809310
:103A20003A1287EF94E09093B4118093B3110E94FF
:103A3000C45C81110C94EB0BE0914112F0914212A5
:103A4000808180932F128CEF94E09093B411809337
:103A5000B31180912212815080932212811169CF7B
:103A600082E292E10E94895B882311F40C94EB0BB3
:103A700060CF8A3AE2E09E0709F427C88115934097
:103A800009F4E0C83AC98091B5119091B6110C942F
:103A90006911109233121092321283E080933A121D
:103AA0008CE195E09093B4118093B3110E94C45CB3
:103AB00081110C94EB0BE0914112F0914212618163
:103AC000728140E080810E94D2551092B411109210
:103AD000B31181E00C94EC0B10923312109232125D
:103AE00084E080933A128FE395E09093B411809331
:103AF000B3110E94C45C81110C94EB0BE091411254
:103B0000F091421261817281438180810E94D2557D
:103B10001092B4111092B31181E00C94EC0B10923E
:103B200033121092321281E080933A1282E492E0D2
:103B30009093B4118093B3110C943D1380819181C3
:103B40009093C1118093C011A4C84091DE1150918F
:103B5000DF116091E0117091E11177FDCBC200910E
:103B60000612109107122091081230910912400F8D
:103B7000511F621F731F4093DE115093DF1160933A
:103B8000E0117093E11190912F12926090932F1297
:103B9000823009F07DCDA1CDB0933112A0933012C7
:103BA0000C94F7104091DE115091DF116091E011FB
:103BB0007091E11177FDE9C2009106121091071290
:103BC0002091081230910912400F511F621F731F7C
:103BD0004093DE115093DF116093E0117093E11177
:103BE00090912F12926090932F12823009F084CA24
:103BF000AACA20911E1230911F1221503109309310
:103C00001F1220931E12232B11F40C946911CECE97
:103C10004091DE115091DF116091E0117091E1113E
:103C200077FDC8C200910612109107122091081268
:103C300030910912400F511F621F731F4093DE1114
:103C40005093DF116093E0117093E11190912F1266
:103C5000926090932F12823011F00C94E40D0C942A
:103C60000B0E82E292E10E94895B882311F40C948E
:103C7000EB0B0C941E114091DE115091DF116091FD
:103C8000E0117091E11177FD02C3009106121091CD
:103C900007122091081230910912400F511F621F24
:103CA000731F4093DE115093DF116093E011709306
:103CB000E11190912F12926090932F12823009F0AF
:103CC0001DC943C94091DE115091DF116091E0118F
:103CD0007091E11177FD1CC300910612109107123B
:103CE0002091081230910912400F511F621F731F5B
:103CF0004093DE115093DF116093E0117093E11156
:103D000090912F12926090932F12823011F00C94A8
:103D1000650B0C948C0B4091DE115091DF1160917A
:103D2000E0117091E11177FD5FC3009106121091CF
:103D300007122091081230910912400F511F621F83
:103D4000731F4093DE115093DF116093E011709365
:103D5000E11190912F12926090932F12823011F006
:103D60000C945C120C9483124091DE115091DF117F
:103D70006091E0117091E11177FDDFC200910612B0
:103D8000109107122091081230910912400F511F13
:103D9000621F731F4093DE115093DF116093E01197
:103DA0007093E11190912F12926090932F128230B4
:103DB00011F00C940E0F0C94350F80912D1281117F
:103DC0000C9405160C94151682E292E10E94895B10
:103DD000882311F40C94EB0B0C94D81680819181FC
:103DE00090933112809330120C94C71682E292E1C4
:103DF0000E94895B882311F40C94EB0B9ACB808191
:103E000090E0909331128093301283CB82E292E162
:103E10000E94895B882311F40C94EB0BB4CC82E2F2
:103E200092E10E94895B882311F40C94EB0BE4C9A6
:103E3000808190E09093311280933012FCCB82E22B
:103E400092E10E94895B882311F40C94EB0B0C9493
:103E50005A0C82E292E10E94895B882311F40C944F
:103E6000EB0B0C94660E882309F4F0C080915E0F72
:103E700090915F0FA0E0B0E0809324129093251200
:103E8000A0932612B093271281E080932D12809187
:103E90009C1190919D118E3F2FEF920709F4D6C48B
:103EA000019690939D1180939C110C94AF1082E227
:103EB00092E10E94895B882311F40C94EB0B9FC85C
:103EC00082E292E10E94895B882311F40C94EB0B4F
:103ED0000C94DE1282E292E10E94895B882311F445
:103EE0000C94EB0B0C94900F808191819093311284
:103EF000809330120C94B30D813109F4EDCD8737E6
:103F000011F40C9470118D3011F00C94581389E356
:103F100094E09093B4118093B311A1CC80819181EE
:103F200090933112809330120C944F17808190E05F
:103F300090933112809330120C94340B8F79BBCC58
:103F4000808190E090933112809330120C942B1268
:103F50008081918190933112809330120C94DD0E08
:103F600082E292E10E94895B882311F40C94EB0BAE
:103F700042CA4091DE115091DF116091E0117091C1
:103F8000E11177FDF2C30091061210910712209102
:103F9000081230910912400F511F621F731F409386
:103FA000DE115093DF116093E0117093E111909155
:103FB0002F12926090932F12823009F09BC9C1C9D1
:103FC000880F991FFC01EE55FF4E2081318140E0A2
:103FD00050E00C944610808191819093311280932F
:103FE000301218CDB0933112A09330120C94D70C2C
:103FF0002091A2103091A31040E050E00C944610A4
:1040000080915D0F882309F4BEC280915E0F90916C
:104010005F0FA0E0B0E08093241290932512A0934C
:104020002612B093271281E080932D1280919C116B
:1040300090919D118E3F2FEF920709F41EC40196B7
:1040400090939D1180939C110C94051680918C1176
:10405000882309F4FBC280918D1190918E11A0915B
:104060008F11B09190118093241290932512A093F8
:104070002612B093271221E020932D120C94B71032
:1040800065E172E08AEF92E00E946A4C0C9415168A
:1040900065E172E087EA94E00E946A4C0C94BF10DC
:1040A0000091FA111091FB112091FC113091FD113A
:1040B000400F511F621F731F4093E6115093E71189
:1040C0006093E8117093E9112BCB0091F6111091D8
:1040D000F7112091F8113091F911400F511F621F13
:1040E000731F4093E2115093E3116093E4117093B6
:1040F000E511F1CA0091F2111091F3112091F41120
:104100003091F511400F511F621F731F4093DE1154
:104110005093DF116093E0117093E11139CD00915C
:10412000F6111091F7112091F8113091F911400F0B
:10413000511F621F731F4093E2115093E31160936C
:10414000E4117093E5110C94A1180091FA111091EB
:10415000FB112091FC113091FD11400F511F621F86
:10416000731F4093E6115093E7116093E811709329
:10417000E9110DC8220F331FF901EE55FF4E2081C2
:10418000318140E050E00C94A4150091F21110919F
:10419000F3112091F4113091F511400F511F621F5E
:1041A000731F4093DE115093DF116093E011709301
:1041B000E1111BCD0091F2111091F3112091F41136
:1041C0003091F511400F511F621F731F4093DE1194
:1041D0005093DF116093E0117093E1113CCD009199
:1041E000F6111091F7112091F8113091F911400F4B
:1041F000511F621F731F4093E2115093E3116093AC
:10420000E4117093E5110C94090E0091FA111091CC
:10421000FB112091FC113091FD11400F511F621FC5
:10422000731F4093E6115093E7116093E811709368
:10423000E9110C94300E0091F6111091F7112091B4
:10424000F8113091F911400F511F621F731F4093F5
:10425000E2115093E3116093E4117093E5110C9413
:104260008A0B0091FA111091FB112091FC113091F1
:10427000FD11400F511F621F731F4093E6115093B1
:10428000E7116093E8117093E9110C94B10B009160
:10429000F2111091F3112091F4113091F511400FAA
:1042A000511F621F731F4093DE115093DF11609303
:1042B000E0117093E11102CD0091F6111091F71108
:1042C0002091F8113091F911400F511F621F731F97
:1042D0004093E2115093E3116093E4117093E51160
:1042E0000C94A3170091FA111091FB112091FC116D
:1042F0003091FD11400F511F621F731F4093E61153
:104300005093E7116093E8117093E9110C94CA1768
:104310000091F2111091F3112091F4113091F511E7
:10432000400F511F621F731F4093DE115093DF1126
:104330006093E0117093E111E8CC0091F2111091BB
:10434000F3112091F4113091F511400F511F621FAC
:10435000731F4093DE115093DF116093E01170934F
:10436000E11125CD0091F6111091F7112091F8116E
:104370003091F911400F511F621F731F4093E211DA
:104380005093E3116093E4117093E5110C94811242
:104390000091FA111091FB112091FC113091FD1147
:1043A000400F511F621F731F4093E6115093E71196
:1043B0006093E8117093E9110C94A8120091FA111E
:1043C0001091FB112091FC113091FD11400F511FF4
:1043D000621F731F4093E6115093E7116093E81139
:1043E0007093E9110C945A0F0091F2111091F3118E
:1043F0002091F4113091F511400F511F621F731F6E
:104400004093DE115093DF116093E0117093E1113E
:10441000A5CC0091F6111091F7112091F81130916F
:10442000F911400F511F621F731F4093E211509307
:10443000E3116093E4117093E5110C94330F4091F4
:10444000FE115091FF116091001270910112840FC2
:10445000951FA61FB71F8093EA119093EB11A093AD
:10446000EC11B093ED1181C94091FE115091FF11F3
:104470006091001270910112840F951FA61FB71F43
:104480008093EA119093EB11A093EC11B093ED118E
:104490000C94EE180091EE111091EF112091F01193
:1044A0003091F111400F511F621F731F4093DA11B9
:1044B0005093DB116093DC117093DD11E6C84091DD
:1044C000FE115091FF116091001270910112840F42
:1044D000951FA61FB71F8093EA119093EB11A0932D
:1044E000EC11B093ED110C94570E2091A210309165
:1044F000A31040E050E00C94A4158FEF9FEF0C94B4
:10450000AB104091FE115091FF116091001270911B
:104510000112840F951FA61FB71F8093EA11909375
:10452000EB11A093EC11B093ED110C94CF1200910C
:10453000EE111091EF112091F0113091F111400F17
:10454000511F621F731F4093DA115093DB11609368
:10455000DC117093DD110C9479184091FE1150918B
:10456000FF116091001270910112840F951FA61F18
:10457000B71F8093EA119093EB11A093EC11B093C5
:10458000ED110C94F11780918C11882309F415CC4E
:1045900080918D1190918E11A0918F11B0919011F9
:1045A0008093241290932512A0932612B093271281
:1045B00021E020932D120C940D164091FE11509184
:1045C000FF116091001270910112840F951FA61FB8
:1045D000B71F8093EA119093EB11A093EC11B09365
:1045E000ED110C94D80B109233121092321282E01B
:1045F00080933A1283E195E09093B4118093B311C4
:1046000074C90091EE111091EF112091F0113091C9
:10461000F111400F511F621F731F4093DA11509325
:10462000DB116093DC117093DD110C94E00D10929E
:1046300033121092321282E080933A128CE295E0AB
:104640009093B4118093B3110C948D1180912D121D
:10465000882311F40C94BF100C94AF104091FE11FC
:104660005091FF116091001270910112840F951FFB
:10467000A61FB71F8093EA119093EB11A093EC1142
:10468000B093ED110C94810F0091EE111091EF1188
:104690002091F0113091F111400F511F621F731FD3
:1046A0004093DA115093DB116093DC117093DD11AC
:1046B0000C947B170091EE111091EF112091F011E5
:1046C0003091F111400F511F621F731F4093DA1197
:1046D0005093DB116093DC117093DD110C94610B2E
:1046E0000091EE111091EF112091F0113091F11124
:1046F000400F511F621F731F4093DA115093DB115B
:104700006093DC117093DD110C9458120091EE113E
:104710001091EF112091F0113091F111400F511FC4
:10472000621F731F4093DA115093DB116093DC1109
:104730007093DD110C940A0F6FEF70E089E00E9416
:104740001C45C093A4110E941646DC01CB018D0FBD
:10475000911DA11DB11D8093A5119093A611A09349
:10476000A711B093A8110C9470110091F21110913F
:10477000F3112091F4113091F511400F511F621F78
:10478000731F4093DE115093DF116093E01170931B
:10479000E11112CC0091F6111091F7112091F8114E
:1047A0003091F911400F511F621F731F4093E211A6
:1047B0005093E3116093E4117093E5110C949F19E9
:1047C0000091FA111091FB112091FC113091FD1113
:1047D000400F511F621F731F4093E6115093E71162
:1047E0006093E8117093E9110C94C6194091FE1181
:1047F0005091FF116091001270910112840F951F6A
:10480000A61FB71F8093EA119093EB11A093EC11B0
:10481000B093ED110C94ED198FEF9FEF0C940116EE
:104820000091EE111091EF112091F0113091F111E2
:10483000400F511F621F731F4093DA115093DB1119
:104840006093DC117093DD110C9477198FEF9FEF5B
:1048500028CB8FEF9FEF0C9499106FEF7FEF709341
:10486000CF036093CE03921B9F3F11F00C94F21381
:1048700042504093C8030C94F7138FEF9FEFE0CBA7
:104880008FEF9FEF0C94EF15DA01AA53BD4F0C94F4
:10489000A01382818F5F8283EBCF92819F5F92838F
:1048A0009A2F0C94C6132F923F924F925F926F9261
:1048B0007F928F929F92AF92BF92DF92EF92FF9280
:1048C0000F931F93CF93DF93CDB7DEB760970FB6EB
:1048D000F894DEBF0FBECDBFF89498E288E10FB622
:1048E000F894A895809360000FBE9093600080912B
:1048F00081008F7E80938100809181008860809309
:104900008100809180008D7F809380008091800065
:104910008E7F80938000809180008F7380938000D1
:10492000809180008F7C8093800080918100887FBF
:1049300082608093810080E090E49093890080936E
:10494000880090938B0080938A00109285001092CB
:104950008400EEEEF3E1849190E0880F991FFC0152
:10496000E855FC4E259134913093770220937602DE
:10497000FC01E257FC4E2591349130935A0220936A
:1049800059028C589C4EFC0185919491909375022C
:1049900080937402E4E3F4E1E491E09358029FB75A
:1049A000F894E0917402F091750220818091580290
:1049B000822B80839FBF2FB7F894E0915902F0912A
:1049C0005A028081909158029095892380832FBF4D
:1049D000E9ECF3E1849190E0880F991FFC01E85520
:1049E000FC4E2591349130937B0220937A02FC0196
:1049F000E257FC4E259134913093301320932F13BE
:104A00008C589C4EFC0185919491909379028093EF
:104A10007802EFE0F4E1E491E0932E139FB7F8946D
:104A2000E0917802F0917902208180912E13822BFF
:104A300080839FBF2FB7F894E0912F13F09130132C
:104A4000808190912E139095892380832FBFEBEC6A
:104A5000F3E1849190E0880F991FFC01E855FC4E2A
:104A6000259134913093820220938102FC01E25718
:104A7000FC4E259134913093800220937F028C5814
:104A80009C4EFC018591949190937E0280937D02CF
:104A9000E1E1F4E1E491E0937C029FB7F894E091C6
:104AA0007D02F0917E02208180917C02822B8083A6
:104AB0009FBF9FB7F894E0918802F091890220810E
:104AC00080918702822B80839FBFE7EFF3E184917F
:104AD00090E0880F991FFC01E855FC4E2591349118
:104AE0003093860220938502FC01E257FC4E25910B
:104AF000349130938902209388028C589C4EFC019B
:104B0000859194919093840280938302EDE3F4E184
:104B1000E491E09387029FB7F894E0918302F091CB
:104B20008402208180918702822B80839FBF9FB760
:104B3000F894E0918802F0918902208180918702A7
:104B4000822B80839FBF9FB7F894E0911913F09157
:104B50001A13208180911813822B80839FBFEDEC64
:104B6000F3E1849190E0880F991FFC01E855FC4E19
:104B70002591349130938D0220938C02FC01E257F1
:104B8000FC4E2591349130931A13209319138C58AD
:104B90009C4EFC018591949190938B0280938A02A4
:104BA000E3E1F4E1E491E09318139FB7F894E09106
:104BB0008A02F0918B02208180911813822B8083CE
:104BC0009FBF9FB7F894E0911913F0911A132081B9
:104BD00080911813822B80839FBFE6EFF3E18491CD
:104BE00090E0880F991FFC01E855FC4E2591349107
:104BF0003093910220939002FC01E257FC4E2591E4
:104C0000349130939402209393028C589C4EFC0173
:104C10008591949190938F0280938E02ECE3F4E15E
:104C2000E491E09392029FB7F894E0918E02F091A4
:104C30008F02208180919202822B80839FBF2FB7A9
:104C4000F894E0919302F091940280819091920205
:104C50009095892380832FBFE5EFF3E1849190E065
:104C6000880F991FFC01E855FC4E25913491309333
:104C7000980220939702FC01E257FC4E2591349153
:104C800030939B0220939A028C589C4EFC01859194
:104C900094919093960280939502EBE3F4E1E49172
:104CA000E09399029FB7F894E0919502F0919602F3
:104CB000208180919902822B80839FBF2FB7F89427
:104CC000E0919A02F0919B028081909199029095D7
:104CD000892380832FBF62E082E30E94DB4410922D
:104CE000C0001092C50081E08093C4008091C10093
:104CF00080618093C1008091C10088608093C10071
:104D00008091C10080688093C100ECECF3E1849154
:104D100090E0880F991FFC01E855FC4E25913491D5
:104D20003093EC122093EB12FC01E257FC4E2591DC
:104D300034913093EA122093E9128C589C4EFC0176
:104D4000859194919093E8128093E712E2E1F4E167
:104D5000E491E093E6129FB7F894E091E712F091A6
:104D6000E81220818091E612822B80839FBFEAECBB
:104D7000F3E1849190E0880F991FFC01E855FC4E07
:104D8000259134913093E5122093E412FC01E2570F
:104D9000FC4E259134913093E3122093E2128C580B
:104DA0009C4EFC01859194919093E1128093E012C6
:104DB000E0E1F4E1E491E093DF129FB7F894E09131
:104DC000E012F091E11220818091DF12822B80832A
:104DD0009FBF2FB7F894E091E212F091E312808127
:104DE0009091DF129095892380832FBF10927E00CF
:104DF00010927D0080917D00806280937D00809183
:104E00007D00806480937D0087EC80937A008091A0
:104E10007A0086FDFCCF109253101092541010921D
:104E20005510109256101092571010925810109260
:104E3000591010925A1010925B1010925C10109240
:104E40005D1010925E1010925F1080E590E09093DC
:104E5000C1028093C00282E690E190935210809349
:104E60005110819A899A879A8F9880910A0182605D
:104E700080930A0180910B018D7F80930B013B9AF7
:104E800043980E9A16989FB7F894E0912C13F091DE
:104E90002D13208180912B13822B80839FBFE8EEFE
:104EA000F3E1849190E0880F991FFC01E855FC4ED6
:104EB0002591349130939F0220939E02FC01E2578A
:104EC000FC4E2591349130932D1320932C138C5844
:104ED0009C4EFC018591949190939D0280939C023D
:104EE000EEE2F4E1E491E0932B139FB7F894E091A4
:104EF0009C02F0919D02208180912B13822B808354
:104F00009FBF9FB7F894E0912C13F0912D1320814F
:104F100080912B13822B80839FBF9FB7F894E091E1
:104F20002913F0912A13208180912813822B8083EA
:104F30009FBFEAEFF3E1849190E0880F991FFC0195
:104F4000E855FC4E259134913093A3022093A202A0
:104F5000FC01E257FC4E2591349130932A132093A3
:104F600029138C589C4EFC01859194919093A10239
:104F70008093A002E0E4F4E1E491E09328139FB76A
:104F8000F894E091A002F091A10220818091281371
:104F9000822B80839FBF9FB7F894E0912913F091F3
:104FA0002A13208180912813822B80839FBF9FB773
:104FB000F894E0912613F091271320818091251316
:104FC000822B80839FBFE0E0F4E1849190E0880F22
:104FD000991FFC01E855FC4E259134913093A702AE
:104FE0002093A602FC01E257FC4E259134913093A8
:104FF0002713209326138C589C4EFC018591949185
:105000009093A5028093A402E6E4F4E1E491E09396
:1050100025139FB7F894E091A402F091A502208196
:1050200080912513822B80839FBF9FB7F894E091D6
:105030002613F0912713208180912513822B8083E2
:105040009FBF9FB7F894E0912313F0912413208120
:1050500080912213822B80839FBFE0EEF3E1849145
:1050600090E0880F991FFC01E855FC4E2591349182
:105070003093AB022093AA02FC01E257FC4E25912B
:10508000349130932413209323138C589C4EFC01AD
:10509000859194919093A9028093A802E6E2F4E1AD
:1050A000E491E09322139FB7F894E091A802F09165
:1050B000A902208180912213822B80839FBF9FB7FA
:1050C000F894E0912313F09124132081809122130E
:1050D000822B80839FBF9FB7F894E0912013F091BB
:1050E0002113208180911F13822B80839FBFEAEDC3
:1050F000F3E1849190E0880F991FFC01E855FC4E84
:10510000259134913093AF022093AE02FC01E25717
:10511000FC4E2591349130932113209320138C5809
:105120009C4EFC01859194919093AD028093AC02CA
:10513000E0E2F4E1E491E0931F139FB7F894E0916B
:10514000AC02F091AD02208180911F13822B8083ED
:105150009FBF9FB7F894E0912013F0912113208115
:1051600080911F13822B80839FBFE5ECF3E1849134
:1051700090E0880F991FFC01E855FC4E2591349171
:105180003093DE122093DD12FC01E257FC4E259194
:1051900034913093B3022093B2028C589C4EFC01A0
:1051A000859194919093B1028093B002EBE0F4E189
:1051B000E491E093DC122FB7F894E091B002F09103
:1051C000B10280819091DC129095892380832FBF5A
:1051D0009FB7F894E091B202F091B30220818091E0
:1051E000DC12822B80839FBFECEEF3E1849190E090
:1051F000880F991FFC01E855FC4E2591349130939E
:10520000DB122093DA12FC01E257FC4E2591349117
:105210003093B7022093B6028C589C4EFC018591C6
:1052200094919093B5028093B402E2E3F4E1E491A7
:10523000E093D9122FB7F894E091B402F091B5023F
:1052400080819091D9129095892380832FBF9FB739
:10525000F894E091B602F091B70220818091D912C2
:10526000822B80839FBFE4EDF3E1849190E0880F6F
:10527000991FFC01E855FC4E259134913093D812CA
:105280002093D712FC01E257FC4E259134913093C4
:10529000BB022093BA028C589C4EFC0185919491DC
:1052A0009093B9028093B802EAE1F4E1E491E093CB
:1052B000D6122FB7F894E091B802F091B90280812C
:1052C0009091D6129095892380832FBF9FB7F89431
:1052D000E091BA02F091BB0220818091D612822B1C
:1052E00080839FBFEDEEF3E1849190E0880F991FDA
:1052F000FC01E855FC4E259134913093D512209352
:10530000D412FC01E257FC4E259134913093BF0238
:105310002093BE028C589C4EFC01859194919093F1
:10532000BD028093BC02E3E3F4E1E491E093D31285
:105330002FB7F894E091BC02F091BD02808190916A
:10534000D3129095892380832FBF9FB7F894E09163
:10535000BE02F091BF0220818091D312822B808304
:105360009FBF809A8898869A8E9880910A0188605B
:1053700080930A0180910B01877F80930B01399AFA
:1053800041980C9A14987894D12C50EA252E312CFF
:105390001092DB031092D8031092DD0381EE93E0AC
:1053A0009093DA038093D9030E9416464B015C0167
:1053B0000091D9031091DA0385E3F801828361E05B
:1053C0000E94DB4461E0F80182810E94A844E091E0
:1053D000D903F091DA0382E5808311828091DB03A7
:1053E000882309F485C1E091D903F091DA0361E0E3
:1053F00082810E94A8448AE09FEF9EBD0DB407FE03
:10540000FDCF8150D1F7E091D903F091DA0360E04C
:1054100082810E94A8440AE07DEFF72E1FEF20E072
:1054200030E0A90160E088ED93E00E94C243813042
:1054300009F46EC1015071F0FEBC0DB407FEFDCF42
:1054400088E092E01EBD0DB407FEFDCF2EB501979A
:10545000C9F7E5CF80E28093D8038091DB038823EE
:1054600021F088ED93E00E9499426091D80370E0AA
:1054700080E090E00E94E1556091CC0383E0682ECB
:10548000712C01E010E092E0892E912C24E0A22EF4
:10549000B12C44244A94542C42E7E42EF12C662388
:1054A00089F18091C6029091C7028B37910509F46A
:1054B0006AC008F4ECC0833A910509F4CBC008F443
:1054C00012C1863A910509F4D3C0893A910509F0D1
:1054D000E6C061506093CC0361110EC09091C80387
:1054E0008091C903981741F06AE072E08EEA90E07B
:1054F0000E946A4C6091CC031092C7021092C602BF
:105500006111CFCF1092CC031092C9031092C8033F
:10551000A89568EB7BE080E090E00E94DF45D394A3
:10552000F5E0DF1235CF68E083E00E9433530E943C
:10553000064B0E94C8570E94164660934312709310
:105540004412809345129093461260960FB6F894D9
:10555000DEBF0FBECDBFDF91CF911F910F91FF90A6
:10556000EF90DF90BF90AF909F908F907F906F9063
:105570005F904F903F902F9008958BE790E090932D
:10558000C7028093C6028091C00085FF88CF20911A
:10559000CD032093C600E091C903EF5FE093C903F8
:1055A0008091CA039091CB038227082E8295807F39
:1055B0008025092E982F82958F700826869598272A
:1055C0008927880F880F880F80259093CB038093BD
:1055D000CA032091C803E21761F0F0E0EA53FD4FDF
:1055E00082818093CD038111C8CF8091CA039091AD
:1055F000CB03492F55275093D5034093D4039C01E7
:1056000033273093D7032093D603892B09F075C035
:10561000B092D303A092D2034F5F5F4F5093D50354
:105620004093D4032F5F3F4F3093D7032093D6038B
:105630003092C7022092C6028091C00085FF2FCF12
:105640008091D2038093C600E3EAF0E0F093C702B2
:10565000E093C6028091C00085FF21CF8091D603E0
:105660008093C60086EA90E09093C7028093C602BA
:105670008091C00085FF13CF8091D4038093C60032
:10568000E9EAF0E0F093C702E093C60222CF8C363D
:10569000910551F082379105B9F0892B29F050928C
:1056A000C7024092C602FBCEE091C90381E08E0F93
:1056B0008093C903F0E0EA53FD4F82818093CD03CC
:1056C000F092C702E092C6028091C00085FFE7CE4B
:1056D0008091CD038093C6005092CB034092CA03C1
:1056E000E091C9037ACF803A910509F4A5CFD7CFCD
:1056F00088ED93E00E94AA4276CE452BC9F49092A1
:10570000D3038092D2031093D5030093D40390CF98
:1057100021E030E040E050E06BE388ED93E00E9450
:10572000C243182F813059F088E38093D80395CE77
:10573000232B09F11093D3030093D20379CF2AEAE4
:1057400031E040E050E068E088ED93E00E94C24321
:105750008530D1F084E02FEF2EBD0DB407FEFDCFD4
:105760009EB59093DC038150B9F79A3A71F185E2C6
:105770008093D80372CE7092D3036092D2031093B9
:10578000D7030093D60354CF1093DD03412C512C43
:10579000320120E030E0A90167E388ED93E00E9448
:1057A000C243A301920169E288ED93E00E94C243E3
:1057B0008823A1F00E94164668197909613D774057
:1057C00040F383E48093D80348CE82E08093DD03E6
:1057D000412C512C612C60E4762EDBCF8091DD03CF
:1057E000823049F18091DB03882321F088ED93E03A
:1057F0000E949942E091D903F091DA0380E5808319
:1058000081E081838091DD03833051F189E08093D1
:10581000DE03BE016F5F7F4F88ED93E00E94F35778
:105820008823B9F08B8586FF14C085E08093DF0361
:105830008093E0037ECE20E030E0A9016AE388EDAA
:1058400093E00E94C243882371F087E38093D803DA
:1058500004CE63E372E086E991E00E946A4CE5CFF2
:105860001092DE03D6CF8FEF8EBD0DB407FEFDCFB5
:105870008EB5807C803C19F483E08093DD0383E067
:105880009FEF9EBD0DB407FEFDCF2EB58150C9F729
:10589000A9CF2F923F924F925F926F927F928F92F9
:1058A0009F92AF92BF92CF92DF92EF92FF920F93AF
:1058B0001F93CF93DF9300D01F92CDB7DEB7109226
:1058C000391210923812109237121092361220911B
:1058D000F6093091F7090FEF1FEF66246A947724D9
:1058E0007394E9E05E2EF2E04F2EEE24E394F12C67
:1058F000B9EE2B2E312C8CEBC82ED12C2115310575
:10590000B1F08091E4039091E5038C3B910509F49B
:1059100055C0893E910509F4CEC1892B09F43DC2D9
:105920001093E5030093E4032115310551F710921C
:10593000EC051092ED051092EE051092EF05109215
:10594000E7051092E6051092F0091092F109109205
:10595000F2091092F3091092F80981E090E0A0E0BA
:10596000B0E08093E8059093E905A093EA05B09331
:10597000EB050F900F900F900F90DF91CF911F913B
:105980000F91FF90EF90DF90CF90BF90AF909F90DE
:105990008F907F906F905F904F903F902F900895E1
:1059A0000E94164660930B0A70930C0A80930D0AAE
:1059B00090930E0AD092E503C092E4030E9416462B
:1059C0006093FB097093FC098093FD099093FE0995
:1059D0008091F9099091FA09805F954009F406C514
:1059E0008091F0099091F109A091F209B091F30929
:1059F00029E0B695A795979587952A95D1F79C01AB
:105A0000AD012F5F3F4F4F4F5F4F8091DD038330DC
:105A100039F089E0220F331F441F551F8A95D1F7B3
:105A200061E188ED93E00E94C243882309F4C7C274
:105A300080E38093D8038091DB03882321F088EDF5
:105A400093E00E9499428091DF0381508093DF03AD
:105A5000882309F478C50E9416468090FB0990902F
:105A6000FC09A090FD09B090FE09DC01CB0188196A
:105A70009909AA09BB094091FF095091000A609158
:105A8000010A7091020A4F5F5F4F6F4F7F4F409343
:105A9000FF095093000A6093010A7093020A409133
:105AA000030A5091040A6091050A7091060A480F92
:105AB000591F6A1F7B1F4093030A5093040A609387
:105AC000050A7093060A4091070A5091080A6091EE
:105AD000090A70910A0A481759076A077B0740F4B8
