:100000000C944B0A0C947C0A0C947C0A0C947C0A89
:100010000C947C0A0C947C0A0C947C0A0C947C0A48
:100020000C947C0A0C947C0A0C947C0A0C947C0A38
:100030000C947C0A0C947C0A0C947C0A0C947C0A28
:100040000C947C0A0C943B510C94B34D0C947C0A98
:100050000C947C0A0C947C0A0C947C0A0C94055633
:100060000C947C0A0C941F530C947C0A0C947C0A0C
:100070000C947C0A0C947C0A0C947C0A0C947C0AE8
:100080000C947C0A0C947C0A0C947C0A0C947C0AD8
:100090000C947C0A0C947C0A0C947C0A0C947C0AC8
:1000A0000C947C0A0C947C0A0C947C0A0C947C0AB8
:1000B0000C947C0A0C947C0A0C947C0A0C947C0AA8
:1000C0000C947C0A0C947C0A0C947C0A0C947C0A98
:1000D0000C947C0A0C947C0A0C947C0A0C947C0A88
:1000E0000C947C0A47722273207120712071737204
:1000F0006672AE736F739C7362722071207120718F
:100100002071207120712071207120712071207167
:100110002071BF75BD75207120712071B275B075E9
:10012000AE75AC752071AA75A77520714376F07510
:10013000E375D8750976FB751E76A475CE742071AB
:10014000BA746575B774A97420712071A374207195
:100150009E748D748874717424741E741C741A7463
:100160001374F7734C72AB72355439543D54435485
:10017000495434544F5455545B54615467546D542E
:100180007354795434547F5485542F542855305522
:1001900035553F554955175553555B5563556D5565
:1001A0007755815590559A551755A455AE55B85564
:1001B000441F041D671B2A1A2B195718A21706176C
:1001C0007B16001692152D15D1147C142E14E513F0
:1001D000A11362132613ED12B812851255122712BD
:1001E000FC11D211AA1184115F113B111911F810E1
:1001F000D910BA109C108010641049102F101510DF
:10020000FC0FE40FCD0FB60FA00F8A0F750F610F13
:100210004C0F390F250F130F000FEE0EDD0ECB0E16
:10022000BA0EAA0E990E890E7A0E6A0E5B0E4C0E4D
:100230003E0E2F0E210E130E060EF80DEB0DDE0DE9
:10024000D10DC50DB80DAC0DA00D940D880D7D0D13
:10025000710D660D5B0D500D450D3B0D300D260DDE
:100260001B0D110D070DFD0CF30CEA0CE00CD70C67
:10027000CD0CC40CBB0CB20CA90CA00C980C8F0CB0
:10028000860C7E0C760C6D0C650C5D0C550C4D0CC3
:10029000450C3D0C350C2E0C260C1F0C170C100CAD
:1002A000080C010CFA0BF30BEC0BE50BDE0BD70B78
:1002B000D00BC90BC20BBC0BB50BAE0BA80BA10B23
:1002C0009B0B950B8E0B880B820B7B0B750B6F0BAF
:1002D000690B630B5D0B570B510B4C0B460B400B23
:1002E0003A0B350B2F0B290B240B1E0B190B130B81
:1002F0000E0B080B030BFE0AF80AF30AEE0AE90AD2
:10030000E40ADE0AD90AD40ACF0ACA0AC50AC00A10
:10031000BB0AB60AB10AAD0AA80AA30A9E0A990A3C
:10032000950A900A8B0A870A820A7E0A790A740A59
:10033000700A6B0A670A620A5E0A5A0A550A510A6B
:100340004C0A480A440A400A3B0A370A330A2F0A71
:100350002A0A260A220A1E0A1A0A160A120A0E0A6D
:100360000A0A060A020AFE09FA09F609F209EE0962
:10037000EA09E609E209DE09DA09D709D309CF0952
:10038000CB09C809C409C009BC09B909B509B10933
:10039000AE09AA09A609A3099F099B09980994090E
:1003A00091098D098A09860983097F097C097809E1
:1003B000750971096E096B096709640960095D09AE
:1003C0005A095609530950094C0949094609420975
:1003D0003F093C093909350932092F092C09290936
:1003E000250922091F091C091909160912090F09F3
:1003F0000C090909060903090009FD08FA08F708AC
:10040000F408F108ED08EA08E708E408E108DE0866
:10041000DB08D908D608D308D008CD08CA08C70811
:10042000C408C108BE08BB08B808B508B308B008BE
:10043000AD08AA08A708A408A1089F089C08990865
:100440009608930891088E088B0888088608830808
:1004500080087D087B0878087508720870086D08A8
:100460006A086808650862085F085D085A08570846
:10047000550852084F084D084A08480845084208E0
:1004800040083D083A0838083508330830082E0877
:100490002B0828082608230821081E081C0819080C
:1004A0001708140811080F080C080A08070805089F
:1004B00002080008FD07FB07F807F607F307F10736
:1004C000EE07EC07EA07E707E507E207E007DD07C5
:1004D000DB07D807D607D407D107CF07CC07CA0751
:1004E000C707C507C307C007BE07BB07B907B707DC
:1004F000B407B207B007AD07AB07A807A607A40764
:10050000A1079F079D079A079807960793079107EA
:100510008F078C078A0788078507830781077E076F
:100520007C077A0778077507730771076E076C07F2
:100530006A0767076507630761075E075C075A0775
:1005400058075507530751074F074C074A074807F5
:100550004607430741073F073D073A073807360775
:10056000340731072F072D072B07290726072407F4
:10057000220720071D071B07190717071507120772
:1005800010070E070C070A070707050703070107EF
:10059000FF06FC06FA06F806F606F406F206EF0673
:1005A000ED06EB06E906E706E506E206E006DE06EE
:1005B000DC06DA06D806D506D306D106CF06CD0668
:1005C000CB06C806C606C406C206C006BE06BC06E2
:1005D000B906B706B506B306B106AF06AD06AA065C
:1005E000A806A606A406A206A0069E069C069906D4
:1005F00097069506930691068F068D068B0688064C
:1006000086068406820680067E067C067A067706C3
:100610007506730671066F066D066B06690666063B
:100620006406620660065E065C065A0658065606B2
:10063000530651064F064D064B064906470645062A
:10064000430640063E063C063A06380636063406A1
:10065000320630062D062B06290627062506230618
:1006600021061F061D061A0618061606140612068F
:1006700010060E060C060A06070605060306010606
:10068000FF05FD05FB05F905F605F405F205F00586
:10069000EE05EC05EA05E805E505E305E105DF05FE
:1006A000DD05DB05D905D705D405D205D005CE0576
:1006B000CC05CA05C805C605C305C105BF05BD05EE
:1006C000BB05B905B705B405B205B005AE05AC0567
:1006D000AA05A705A505A305A1059F059D059B05E1
:1006E000980596059405920590058E058B0589055C
:1006F00087058505830581057E057C057A057805D6
:100700007605730571056F056D056B056805660552
:100710006405620560055D055B05590557055505CE
:10072000520550054E054C0549054705450543054D
:1007300041053E053C053A053805350533053105CB
:100740002F052C052A0528052605230521051F054B
:100750001C051A0518051605130511050F050C05CE
:100760000A050805060503050105FF04FC04FA0453
:10077000F804F504F304F104EE04EC04EA04E704DD
:10078000E504E304E004DE04DB04D904D704D40464
:10079000D204D004CD04CB04C804C604C404C104EC
:1007A000BF04BC04BA04B804B504B304B004AE0476
:1007B000AB04A904A604A404A1049F049D049A0404
:1007C00098049504930490048E048B048904860491
:1007D000830481047E047C04790477047404720425
:1007E0006F046C046A046704650462045F045D04BA
:1007F0005A0458045504520450044D044A04480451
:100800004504420440043D043A04370435043204EC
:100810002F042D042A042704240421041F041C048B
:1008200019041604130411040E040B04080405042F
:1008300002040004FD03FA03F703F403F103EE03DB
:10084000EB03E803E503E203DF03DC03D903D6038C
:10085000D303D003CD03CA03C703C403C103BE033C
:10086000BB03B703B403B103AE03AB03A803A403F4
:10087000A1039E039B039703940391038E038A03B2
:100880008703840380037D037903760373036F0377
:100890006C036803650361035E035A035703530344
:1008A0004F034C034803440341033D03390336031C
:1008B00032032E032A03260323031F031B031703FC
:1008C00013030F030B0307030303FF02FB02F702EB
:1008D000F302EE02EA02E602E202DD02D902D502EA
:1008E000D002CC02C702C302BE02BA02B502B102F4
:1008F000AC02A702A3029E02990294028F028A020E
:10090000850280027B02760271026C02660261023D
:100910005C02560251024B02460240023A02340285
:100920002F02290223021D02160210020A020402EB
:10093000FD01F701F001E901E201DC01D501CD0182
:10094000C601BF01B701B001A801A0019801900143
:100950008801800177016E0165015C0153014A0144
:10096000400136012C01220117010C010101F500A3
:10097000EA00DD00D100C400B600A9009A008B0097
:100980007C006C005B004900370023000F00F9FF7A
:100990000F20E91CE81A77195A187417B5161116A2
:1009A0008315061596143114D51382133413ED12E2
:1009B000AA126C123212FB11C811971168113C1166
:1009C0001211EA10C4109F107C105A1039101A101E
:1009D000FC0FDE0FC20FA70F8C0F730F5A0F420FC1
:1009E0002A0F130FFD0EE80ED30EBE0EAA0E970EA1
:1009F000840E710E5F0E4D0E3C0E2B0E1A0E0A0E5B
:100A0000FA0DEA0DDA0DCB0DBD0DAE0DA00D920D58
:100A1000840D760D690D5C0D4F0D430D360D2A0DBD
:100A20001E0D120D060DFB0CEF0CE40CD90CCE0CB8
:100A3000C40CB90CAF0CA40C9A0C900C860C7C0C5A
:100A4000730C690C600C560C4D0C440C3B0C320CB6
:100A50002A0C210C180C100C070CFF0BF70BEF0BDA
:100A6000E70BDF0BD70BCF0BC70BC00BB80BB10BD2
:100A7000A90BA20B9B0B930B8C0B850B7E0B770B9F
:100A8000700B6A0B630B5C0B550B4F0B480B420B47
:100A90003B0B350B2F0B280B220B1C0B160B100BD3
:100AA0000A0B040BFE0AF80AF20AEC0AE60AE10A4B
:100AB000DB0AD50AD00ACA0AC50ABF0ABA0AB40AAA
:100AC000AF0AAA0AA40A9F0A9A0A950A8F0A8A0AF2
:100AD000850A800A7B0A760A710A6C0A670A620A2A
:100AE0005D0A590A540A4F0A4A0A460A410A3C0A50
:100AF000380A330A2E0A2A0A250A210A1C0A180A69
:100B0000140A0F0A0B0A060A020AFE09F909F50976
:100B1000F109ED09E809E409E009DC09D809D4097B
:100B2000D009CC09C809C409C009BC09B809B4096D
:100B3000B009AC09A809A409A0099C09980995095C
:100B400091098D098909860982097E097A0977093F
:100B500073096F096C096809650961095D095A091A
:100B6000560953094F094C094809450941093E09ED
:100B70003B093709340930092D092A0926092309B7
:100B80001F091C091909160912090F090C0908097E
:100B900005090209FF08FC08F808F508F208EF0843
:100BA000EC08E908E508E208DF08DC08D908D608FF
:100BB000D308D008CD08CA08C708C408C108BE08B1
:100BC000BB08B808B508B208AF08AC08A908A60861
:100BD000A308A0089D089A089708940891088F0810
:100BE0008C0889088608830880087E087B087808B6
:100BF0007508720870086D086A0867086508620859
:100C00005F085C085A085708540851084F084C08F8
:100C100049084708440841083F083C083908370894
:100C2000340831082F082C082A082708240822082D
:100C30001F081D081A0817081508120810080D08C3
:100C40000B080808060803080108FE07FC07F90757
:100C5000F707F407F207EF07ED07EA07E807E507EC
:100C6000E307E007DE07DB07D907D607D407D2077B
:100C7000CF07CD07CA07C807C607C307C107BE0706
:100C8000BC07BA07B707B507B207B007AE07AB078F
:100C9000A907A707A407A207A0079D079B07990715
:100CA0009607940792078F078D078B07880786079B
:100CB000840782077F077D077B077807760774071D
:100CC00072076F076D076B0769076607640762079E
:100CD00060075D075B07590757075507520750071D
:100CE0004E074C07490747074507430741073E079B
:100CF0003C073A0738073607340731072F072D0717
:100D00002B07290726072407220720071E071C0791
:100D10001A0717071507130711070F070D070B070A
:100D200008070607040702070007FE06FC06FA0686
:100D3000F706F506F306F106EF06ED06EB06E90603
:100D4000E706E406E206E006DE06DC06DA06D8067A
:100D5000D606D406D206D006CE06CB06C906C706EE
:100D6000C506C306C106BF06BD06BB06B906B70663
:100D7000B506B306B106AF06AD06AA06A806A606D6
:100D8000A406A206A0069E069C069A06980696064B
:100D90009406920690068E068C068A0688068606BB
:100DA0008406820680067E067C067A06780676062B
:100DB0007406720670066E066B066906670665069F
:100DC000630661065F065D065B0659065706550613
:100DD000530651064F064D064B0649064706450683
:100DE000430641063F063D063B06390637063506F3
:100DF000330631062F062D062B0629062706250663
:100E0000230621061F061D061B06190617061506D2
:100E10001306120610060E060C060A06080606063B
:100E2000040602060006FE05FC05FA05F805F605AF
:100E3000F405F205F005EE05EC05EA05E805E60522
:100E4000E405E205E005DE05DC05DA05D805D60592
:100E5000D405D205D005CE05CC05CA05C805C60502
:100E6000C405C205C005BE05BC05BA05B805B60572
:100E7000B405B205B005AE05AC05AA05A805A605E2
:100E8000A405A205A0059E059C059A059805960552
:100E90009405920590058E058C058A0588058605C2
:100EA0008405820580057E057C057A057805760532
:100EB000730571056F056D056B05690567056505AA
:100EC000630561055F055D055B055905570555051A
:100ED000530551054F054D054B054905470545058A
:100EE000420540053E053C053A0538053605340502
:100EF000320530052E052C052A0528052505230574
:100F000021051F051D051B051905170515051305E9
:100F100010050E050C050A05080506050405020561
:100F20000005FD04FB04F904F704F504F304F104DF
:100F3000EE04EC04EA04E804E604E404E104DF045B
:100F4000DD04DB04D904D704D404D204D004CE04D5
:100F5000CC04CA04C704C504C304C104BE04BC0451
:100F6000BA04B804B604B304B104AF04AD04AA04CF
:100F7000A804A604A404A1049F049D049B0498044F
:100F80009604940492048F048D048B0488048604D0
:100F9000840481047F047D047A0478047604730455
:100FA00071046F046C046A046804650463046104DA
:100FB0005E045C04590457045504520450044D0463
:100FC0004B0448044604440441043F043C043A04EE
:100FD00037043504320430042D042B04280426047D
:100FE000230421041E041C0419041604140411040F
:100FF0000F040C040A04070404040204FF03FC03A6
:10100000FA03F703F503F203EF03ED03EA03E70343
:10101000E403E203DF03DC03DA03D703D403D103E1
:10102000CE03CC03C903C603C303C003BE03BB0383
:10103000B803B503B203AF03AC03AA03A703A40329
:10104000A1039E039B039803950392038F038C03D4
:1010500089038603830380037C0379037603730388
:1010600070036D036A036603630360035D035A0341
:101070005603530350034C034903460342033F0303
:101080003C033803350331032E032A0327032303CC
:1010900020031C031903150312030E030A0307039D
:1010A0000303FF02FB02F802F402F002EC02E80282
:1010B000E402E002DC02D802D402D002CC02C80270
:1010C000C402C002BC02B802B302AF02AB02A60265
:1010D000A2029E029902950290028C02870282026D
:1010E0007E02790274026F026A02650261025C028A
:1010F000560251024C02470242023C0237023202BF
:101100002C02270221021B02150210020A0204020D
:10111000FE01F801F101EB01E501DE01D801D10189
:10112000CA01C301BC01B501AE01A7019F0198012D
:101130009001880180017801700168015F0156010A
:101140004D0144013B01310127011D01130108013B
:10115000FD00F200E600DA00CE00C100B400A600F7
:1011600098008A007A006A00590048003500220081
:101170000D00F7FF00002110422063308440A5508D
:10118000C660E770088129914AA16BB18CC1ADD1CD
:10119000CEE1EFF13112100273325222B552944275
:1011A000F772D662399318837BB35AA3BDD39CC31D
:1011B000FFF3DEE36224433420040114E664C774C1
:1011C000A44485546AA54BB528850995EEE5CFF56D
:1011D000ACC58DD55336722611163006D776F66615
:1011E0009556B4465BB77AA719973887DFF7FEE7BD
:1011F0009DD7BCC7C448E5588668A77840086118E1
:1012000002282338CCC9EDD98EE9AFF9488969990C
:101210000AA92BB9F55AD44AB77A966A711A500AB4
:10122000333A122AFDDBDCCBBFFB9EEB799B588B5C
:101230003BBB1AABA66C877CE44CC55C222C033C00
:10124000600C411CAEED8FFDECCDCDDD2AAD0BBDAC
:10125000688D499D977EB66ED55EF44E133E322E54
:10126000511E700E9FFFBEEFDDDFFCCF1BBF3AAFFC
:10127000599F788F8891A981CAB1EBA10CD12DC15A
:101280004EF16FE18010A100C230E32004502540F0
:1012900046706760B9839893FBA3DAB33DC31CD350
:1012A0007FE35EF3B1029012F322D2323542145240
:1012B00077625672EAB5CBA5A89589856EF54FE59C
:1012C0002CD50DC5E234C324A01481046674476490
:1012D00024540544DBA7FAB79987B8975FE77EF7F0
:1012E0001DC73CD7D326F2369106B01657667676E0
:1012F000154634564CD96DC90EF92FE9C899E989BC
:101300008AB9ABA94458654806782768C018E1082F
:101310008238A3287DCB5CDB3FEB1EFBF98BD89B8F
:10132000BBAB9ABB754A545A376A167AF10AD01A7F
:10133000B32A923A2EFD0FED6CDD4DCDAABD8BADDB
:10134000E89DC98D267C076C645C454CA23C832CCF
:10135000E01CC10C1FEF3EFF5DCF7CDF9BAFBABF2F
:10136000D98FF89F176E367E554E745E932EB23E1F
:10137000D10EF01E000020002300260029002C00C2
:101380002F003200000100000301060109010505DC
:101390000505070508080808020202020A0A0808EB
:1013A0000404040401010101010101010303030319
:1013B00003030303040707070C0C0C0C0C0C0C0CA8
:1013C0000202020206060606060606060B0B0B0BB9
:1013D0000B0B0B0B010210202008081020401020DE
:1013E00040800201020108040201010204081020E9
:1013F00040808040201008040201800402018040E7
:10140000201008040201080402010102040810204F
:101410004080010204081020408000000A0B0209ED
:101420000C0D0E080703040100000000000000007E
:1014300000000000000000000000000000000000AC
:101440000000000000001211100000000000000069
:10145000000000000000000000000000000000008C
:1014600000002100240027002A002D003000330056
:1014700001010000040107010A010000220025000B
:1014800028002B002E00310034000201000005016D
:1014900008010B01077711241FBECFEFD1E2DEBF99
:1014A000CDBF00E00CBF12E0A0E0B2E0ECEEFAE04D
:1014B00001E00BBF02C007900D92AC34B107D9F721
:1014C00023E1ACE4B2E001C01D92A030B207E1F725
:1014D0001AE0CBE4DAE000E006C021970109802F92
:1014E000FE010E942B85CA34D10780E00807A9F7C6
:1014F0000E94215D0C9467850C940000CF92DF92CE
:10150000EF92FF920F931F93CF93DF9380918611F9
:1015100090918711863B23E0920711F40C94F11906
:1015200008F463C18C3AE4E09E0709F434C608F07D
:1015300088C1833124E0920711F40C94251708F038
:1015400021C5803EF3E09F0709F467C010F40C94B6
:101550001A1C8B3F23E0920711F40C949D168A30DD
:10156000E4E09E0711F40C94CD168F3E934011F0E9
:101570000C947B168091F51181508093F51188238E
:1015800009F423C120910312309104128091920E2C
:101590009091930EA091940EB091950E820F931F8F
:1015A000A11DB11D8093920E9093930EA093940E63
:1015B000B093950EE0918C0E81E08E0F80938C0E8F
:1015C000F0E0EE0FFF1FEE0FFF1FE457F54F809185
:1015D000011290910212A0910312B0910412808323
:1015E0009183A283B3838091971190919811019771
:1015F0009093981180939711892B11F40C94841671
:10160000109206121092051281E080930D1280EE66
:1016100093E090938711809386110E94EC5B811177
:10162000DAC080910012E0911412F0911512882313
:1016300011F40C94961FA0812091F7113091F811AC
:101640004091F9115091FA11B0E00E943F85DC0100
:10165000CB012AE0B695A795979587952A95D1F75E
:10166000909304128093031290919211909302121E
:1016700080919111882311F40C94601E4091AD115A
:101680005091AE116091AF117091B01177FF02C00F
:101690000C945A230091D5111091D6112091D71195
:1016A0003091D811400F511F621F731F4093AD112D
:1016B0005093AE116093AF117093B01191609093FD
:1016C0000212813011F00C94601E4091B5115091BE
:1016D000B6116091B7117091B81177FF02C00C94E8
:1016E0001B210091DD111091DE112091DF1130914D
:1016F000E011400F511F621F731F4093B5115093AB
:10170000B6116093B7117093B81190910212946062
:1017100090930212833039F14091B9115091BA116E
:101720006091BB117091BC1177FF02C00C94312104
:101730000091E1111091E2112091E3113091E41137
:10174000400F511F621F731F4093B9115093BA117C
:101750006093BB117093BC119091021298609093AA
:101760000212843029F18091BD119091BE11A09197
:10177000BF11B091C011B7FF02C00C94DD2240919F
:10178000E5115091E6116091E7117091E811840F15
:10179000951FA61FB71F8093BD119093BE11A093F4
:1017A000BF11B093C0118091021280618093021228
:1017B0008FEE93E090938711809386118091F511BD
:1017C00081508093F5118111DDCE85EF91E10E946A
:1017D00045538111D7CE81E0DF91CF911F910F91B9
:1017E000FF90EF90DF90CF900895843AF2E09F074A
:1017F00011F40C94421508F0EDC08138E2E09E0728
:1018000011F40C94581408F428C78D38F2E09F079F
:1018100011F40C94BE1410F40C94F91B853922E0D9
:10182000920711F40C9402158939E2E09E0711F435
:101830000C941E158139924011F00C947B160C9477
:10184000E014853FE4E09E0711F40C94151D08F0A8
:101850004BC58B3C24E0920709F477C010F40C943C
:10186000031C8D3DE4E09E07E1F0893EF4E09F0714
:1018700011F40C94E11C883D944011F00C947B16FB
:101880000E94EC5B8111A7CFE0911412F091151228
:101890008081809302128DED94E090938711809364
:1018A00086118091F51181508093F511882311F4F0
:1018B0000C941D1F20910312309104128091920EFE
:1018C0009091930EA091940EB091950E820F931F5C
:1018D000A11DB11D8093920E9093930EA093940E30
:1018E000B093950EE0918C0E81E08E0F80938C0E5C
:1018F000F0E0EE0FFF1FEE0FFF1FE457F54F809152
:10190000011290910212A0910312B09104128083EF
:101910009183A283B3838091F1119091F211019789
:101920009093F2118093F111892B11F40C94411DC5
:10193000109206121092051281E080930D128BEC2A
:1019400094E090938711809386110E94EC5B811143
:1019500042CFE0911412F09115128081A0918B1169
:10196000B0918C11A80FB11D87FDBA95B0938C1161
:10197000A0938B1180910012882311F40C94F21F14
:101980002091F7113091F8114091F9115091FA110D
:101990000E943F85DC01CB014AE0B695A79597955B
:1019A00087954A95D1F79093041280930312109271
:1019B00006121092051281E080930D1288ED94E0DA
:1019C00090938711809386110E94EC5B882309F421
:1019D0005BCF01CF8D3423E0920709F4C7C108F033
:1019E000FBC48830F3E09F0711F40C94541610F4F4
:1019F0000C94371D853323E0920709F48DC084349D
:101A0000E3E09E0709F459C18C30934011F00C9427
:101A10007B160E94EC5B8111DECEE0911412F091F6
:101A200015122081318130939611209395110091E8
:101A30009111E02FF0E0EE0FFF1FEE0FFF1FEA57AE
:101A4000FE4EC388D488E588F688C092E911D0920A
:101A5000EA11E092EB11F092EC11C9E9D1E1E1EC6D
:101A6000F1E110E00117F1F0488159816A817B8131
:101A7000440F551F661F771FDB01CA018C199D0992
:101A8000AE09BF098C8B9D8BAE8BBF8B408351837E
:101A9000628373838C199D09AE09BF09848B958B72
:101AA000A68BB78B1F5F249634961530D9F66091BC
:101AB0008D1170918E1180918F1190919011FC0178
:101AC000E60FF71F40919711509198114E0F5F1F2D
:101AD000240F351FC21AD30AE108F108C092ED1194
:101AE000D092EE11E092EF11F092F011672B11F409
:101AF0000C94DD1A809101128F7B80930112109259
:101B000006121092051282E080930D1285E393E095
:101B100090938711809386110E94EC5B81115BCEBC
:101B200080910012E0911412F0911512882311F4A3
:101B30000C94741FA081B1812091F7113091F8119C
:101B40004091F9115091FA110E943F85DC01CB01BF
:101B50002AE0B695A795979587952A95D1F7909302
:101B6000041280930312909192119093021280912B
:101B70009111882311F40C94061E4091AD115091DF
:101B8000AE116091AF117091B01177FF02C00C944B
:101B900001230091D5111091D6112091D7113091C8
:101BA000D811400F511F621F731F4093AD11509306
:101BB000AE116093AF117093B011916090930212C7
:101BC000813011F00C94061E4091B5115091B61160
:101BD0006091B7117091B81177FF02C00C94EF209B
:101BE0000091DD111091DE112091DF113091E01193
:101BF000400F511F621F731F4093B5115093B611D0
:101C00006093B7117093B811909102129460909301
:101C10000212833039F14091B9115091BA1160919B
:101C2000BB117091BC1177FF02C00C94052100918B
:101C3000E1111091E2112091E3113091E411400F74
:101C4000511F621F731F4093B9115093BA116093D3
:101C5000BB117093BC119091021298609093021284
:101C6000843029F18091BD119091BE11A091BF11D6
:101C7000B091C011B7FF02C00C945F224091E511F2
:101C80005091E6116091E7117091E811840F951F52
:101C9000A61FB71F8093BD119093BE11A093BF11D3
:101CA000B093C0118091021280618093021284E48B
:101CB00093E090938711809386118091F511815064
:101CC0008093F511882311F40C94271F209103129F
:101CD000309104128091920E9091930EA091940EE7
:101CE000B091950E820F931FA11DB11D8093920E8E
:101CF0009093930EA093940EB093950EE0918C0E5A
:101D000081E08E0F80938C0EF0E0EE0FFF1FEE0F40
:101D1000FF1FE457F54F8091011290910212A0919C
:101D20000312B091041280839183A283B3838091C4
:101D300001128F778093011280918D1190918E11F5
:101D4000019790938E1180938D11892B11F40C942F
:101D5000D91A109206121092051282E080930D1289
:101D60008DE493E090938711809386110E94EC5B41
:101D7000811131CD80910012E0911412F091151271
:101D8000882311F40C94A81FA081B1812091F71130
:101D90003091F8114091F9115091FA110E943F854C
:101DA000DC01CB011AE0B695A795979587951A9512
:101DB000D1F7909304128093031290919211909313
:101DC000021280919111882311F40C94B21E40915B
:101DD000AD115091AE116091AF117091B01177FFBC
:101DE00002C00C9486230091D5111091D611209138
:101DF000D7113091D811400F511F621F731F4093AC
:101E0000AD115093AE116093AF117093B01191600A
:101E100090930212813011F00C94B21E4091B511D2
:101E20005091B6116091B7117091B81177FF02C04F
:101E30000C9409220091DD111091DE112091DF1127
:101E40003091E011400F511F621F731F4093B51175
:101E50005093B6116093B7117093B811909102121C
:101E6000946090930212833039F14091B9115091EE
:101E7000BA116091BB117091BC1177FF02C00C9434
:101E8000DE210091E1111091E2112091E3113091D6
:101E9000E411400F511F621F731F4093B9115093FB
:101EA000BA116093BB117093BC11909102129860AB
:101EB00090930212843029F18091BD119091BE114E
:101EC000A091BF11B091C011B7FF02C00C942E2396
:101ED0004091E5115091E6116091E7117091E81180
:101EE000840F951FA61FB71F8093BD119093BE113D
:101EF000A093BF11B093C0118091021280618093B2
:101F000002128CE593E09093871180938611809163
:101F1000F51181508093F511882311F40C946A1FF8
:101F200020910312309104128091920E9091930EA1
:101F3000A091940EB091950E820F931FA11DB11D1B
:101F40008093920E9093930EA093940EB093950E5F
:101F5000E0918C0E81E08E0F80938C0EF0E0EE0FFE
:101F6000FF1FEE0FFF1FE457F54F80910112909174
:101F70000212A0910312B091041280839183A28374
:101F8000B383DACE8B3324E0920711F40C94461C11
:101F900010F40C94241C8A35E4E09E0751F18E3530
:101FA000F4E09F0709F446C08F34944009F0A3C6BB
:101FB0000E94EC5B81110FCCE0911412F09115128C
:101FC000808191819093F2118093F111109200120F
:101FD0008091881185FFD2C01092061210920512CE
:101FE00084E080930D128AE594E0909387118093AA
:101FF00086110E94EC5B8111EECBE0911412F091FE
:10200000151280819181A281B3818093FB119093FD
:10201000FC11A093FD11B093FE11109206121092C4
:10202000051281E080930D128EE594E09093871164
:10203000809386110E94EC5B8111CDCBE09114124C
:10204000F0911512C081C093FF11809111039091FE
:10205000120395958795959587959595879595956F
:1020600087952091000230910102821B930B97FF0C
:1020700002C00C94F81F8436910514F40C94E01FF0
:1020800020913B1130913C1140E050E06091FB11F8
:102090007091FC118091FD119091FE110E94DE84DF
:1020A0009B01AC0104C05695479537952795CA9575
:1020B000D2F72130F0E13F074105510520F020E043
:1020C00030E140E050E02093F7113093F811409355
:1020D000F9115093FA11213084E038074105510578
:1020E00010F40C94311F8091BF02882331F1A0912C
:1020F000C002B091C1020E943F85DC01CB017AE0B1
:10210000B695A795979587957A95D1F78093F7110E
:102110009093F811A093F911B093FA1180916F1177
:10212000909170118E3FEFEF9E0711F40C942924CB
:1021300001969093701180936F1181E0809300124B
:1021400080916D1190916E118E3FFFEF9F0711F4FA
:102150000C947D22019690936E1180936D11809165
:10216000F7119091F811A091F911B091FA11811520
:102170009240A105B10510F40C944820109206126B
:102180001092051282E080930D128CEA94E09093F5
:102190008711809386110E94EC5B81111CCBE0912A
:1021A0001412F0911512A081B181B0938C11A093FB
:1021B0008B1180910012882311F40C94CA1D209178
:1021C000F7113091F8114091F9115091FA110E94D4
:1021D0003F85DC01CB016AE0B695A7959795879579
:1021E0006A95D1F79093041280930312109206120D
:1021F0001092051281E080930D1289EB94E0909388
:102200008711809386110E94EC5B8111E4CAE091F2
:102210001412F09115128081809302128EEB94E0DB
:1022200090938711809386118091F511815080934E
:10223000F511882311F40C942F1E20910312309174
:1022400004128091920E9091930EA091940EB091F1
:10225000950E820F931FA11DB11D8093920E909336
:10226000930EA093940EB093950EE0918C0E81E0A6
:102270008E0F80938C0EF0E0EE0FFF1FEE0FFF1F0E
:10228000E457F54F8091011290910212A091031230
:10229000B091041280839183A283B3838091011251
:1022A0008F7780930112809188119091891186FD1A
:1022B00002C00C94F71D2091F1113091F2112150C0
:1022C00031093093F2112093F111232B09F030CB17
:1022D00091FF05C08091F61181110E940D37109277
:1022E00087111092861177CA8A31E5E09E0711F4B2
:1022F0000C94541D10F40C946B1C8433F5E09F0770
:1023000009F460C08D3325E0920711F40C94771D19
:102310008A32954009F0EFC40E94EC5B81115BCAE0
:10232000E0911412F09115128081918110920212A5
:1023300020E533EC309304122093031233C0209134
:102340000312309104128091920E9091930EA091FD
:10235000940EB091950E820F931FA11DB11D809315
:10236000920E9093930EA093940EB093950E81E0ED
:102370008E0F80938C0EF0E0EE0FFF1FEE0FFF1F0D
:10238000E457F54F8091011290910212A09103122F
:10239000B091041280839183A283B3838091F3115F
:1023A0009091F4119C01215031093093F411209344
:1023B000F311892B09F493CF84E395E0909387116F
:1023C00080938611E0918C0E80918D0EFE2FF81B6C
:1023D000FF3F09F0B4CFFFC9873723E0920711F41C
:1023E0000C94B91B10F40C940F1C8F38E3E09E077B
:1023F00009F4DAC08B3AF3E09F0709F4F3C680389A
:10240000934009F078C40E94EC5B8111E4C980918B
:102410000012E0911412F0911512882311F40C941B
:10242000A01FA0812091F7113091F8114091F9116E
:102430005091FA11B0E00E943F85DC01CB01EAE047
:10244000B695A79597958795EA95D1F7909304123D
:1024500080930312909192119093021280919111A6
:10246000882311F40C94891E4091AD115091AE1146
:102470006091AF117091B01177FF02C00C9470237E
:102480000091D5111091D6112091D7113091D8110A
:10249000400F511F621F731F4093AD115093AE1137
:1024A0006093AF117093B0119160909302128130DC
:1024B00011F00C94891E4091B5115091B6116091A4
:1024C000B7117091B81177FF02C00C94B22100913E
:1024D000DD111091DE112091DF113091E011400FDC
:1024E000511F621F731F4093B5115093B611609333
:1024F000B7117093B81190910212946090930212E8
:10250000833039F14091B9115091BA116091BB11EA
:102510007091BC1177FF02C00C94C8210091E111A9
:102520001091E2112091E3113091E411400F511FFD
:10253000621F731F4093B9115093BA116093BB117E
:102540007093BC11909102129860909302128430A3
:1025500029F18091BD119091BE11A091BF11B09150
:10256000C011B7FF02C00C9481224091E511509137
:10257000E6116091E7117091E811840F951FA61F75
:10258000B71F8093BD119093BE11A093BF11B0935C
:10259000C011809102128061809302128FE893E053
:1025A00090938711809386118091F51181508093CB
:1025B000F511882311F40C94601F209103123091BF
:1025C00004128091920E9091930EA091940EB0916E
:1025D000950E820F931FA11DB11D8093920E9093B3
:1025E000930EA093940EB093950EE0918C0E81E023
:1025F0008E0F80938C0EF0E0EE0FFF1FEE0FFF1F8B
:10260000E457F54F8091011290910212A0910312AC
:10261000B091041280839183A283B38380918F1140
:102620009091901101979093901180938F11892B25
:1026300009F415C5109206121092051281E08093DC
:102640000D1280E893E090938711809386110E9489
:10265000EC5B882309F4DBCEBEC8823622E0920709
:1026600009F4CCC008F03EC3009711F40C948D1D02
:102670008034924009F03FC30E94EC5B8111ABC8EB
:10268000E0911412F091151280818C3011F40C94A9
:10269000172310F00C947C1F873009F4A9C08B30ED
:1026A00011F40C94471D833011F40C94F322909193
:1026B000190420911A04392F321B3F3F41F1E1E008
:1026C000E90FE0931904A92FB0E0A95EBC4F129660
:1026D0001C923E2F321B3F3FD1F032E0390F309336
:1026E0001904F0E0E95EFC4F43E04283432F50E0E1
:1026F0005093220440932104321B3F3F41F09D5FE1
:1027000090931904FA01E95EFC4F91E09283909155
:102710001904492F50E05093200440931F04392F8F
:10272000321B3F3F11F40C9444249F5F9093190493
:10273000DA01A95EBC4F91E012969C9312974091EA
:10274000210450912204FA01FF27E95EFC4F928197
:102750009F5F928312969C9112979F5F12969C9313
:10276000A09119049A2F921B9F3F11F40C944D24B1
:1027700091E09A0F90931904B0E0A95EBC4F35E048
:1027800012963C9332813F5F3283882311F40C947C
:102790002D2460911F0470912004EB01DD27C95E98
:1027A000DC4F3A813F5F3A83392F321B3F3F11F4B0
:1027B0000C94492431E0390F30931904A92FB0E06B
:1027C000A95EBC4F12968C9382818F5F8283321BED
:1027D0003F3F11F40C9438246F3F7F4F11F08FEF7F
:1027E0008A8380911D048F5F80931D040E948A4418
:1027F00082E692E0909387118093861180918C0EEF
:1028000090918D0E891B80958093F511882311F48A
:102810000C94EB0B109206121092051282E080933A
:102820000D1286E692E090938711809386110E94A4
:10283000EC5B81110C94EB0BE0911412F0911512EA
:1028400080819181809388119093891187FF03C0C3
:102850008F7980930112109206121092051281E076
:1028600080930D1288E792E09093871180938611F0
:102870000E94EC5B81110C94EB0BE0911412F0912F
:10288000151290819093911181E001C0880F9A9563
:10289000EAF780939211109206121092051284E0CA
:1028A00080930D1281E892E09093871180938611B6
:1028B0000E94EC5B81110C94EB0BE0911412F091EF
:1028C000151280819181A281B38180939911909397
:1028D0009A11A0939B11B0939C1110920612109222
:1028E000051284E080930D1285E892E090938711A1
:1028F000809386110E94EC5B81110C94EB0BE091AC
:102900001412F091151280819181A281B38180937C
:102910009D1190939E11A0939F11B093A0111092BE
:1029200006121092051284E080930D1289E892E05D
:1029300090938711809386110E94EC5B81110C9417
:10294000EB0BE0911412F091151280819181A2811C
:10295000B3818093A1119093A211A093A311B0937E
:10296000A411109206121092051284E080930D12A9
:102970008DE892E090938711809386110E94EC5B22
:1029800081110C94EB0BE0911412F09115128081DF
:102990009181A281B3818093A5119093A611A093F8
:1029A000A711B093A811109206121092051284E09C
:1029B00080930D1281E992E09093871180938611A4
:1029C0000E94EC5B81110C94EB0BE0911412F091DE
:1029D000151280819181A281B3818093A911909376
:1029E000AA11A093AB11B093AC11109206121092E1
:1029F000051282E080930D1285E992E09093871191
:102A0000809386110E94EC5B81110C94EB0BE0919A
:102A10001412F09115128081918190938E11809300
:102A20008D11109206121092051282E080930D1201
:102A300089E992E090938711809386110E94EC5B64
:102A400081110C94EB0BE0911412F091151280811E
:102A500091819093901180938F1110920012809128
:102A600088119091891190FFDEC010920612109289
:102A7000051284E080930D1284EA92E0909387110E
:102A8000809386110E94EC5B81110C94EB0BE0911A
:102A90001412F091151280819181A281B3818093EB
:102AA000FB119093FC11A093FD11B093FE111092B5
:102AB00006121092051281E080930D1288EA92E0CE
:102AC00090938711809386110E94EC5B81110C9486
:102AD000EB0BE0911412F0911512C081C093FF111D
:102AE0006091FB117091FC118091FD119091FE118C
:102AF000611571058105910511F40C94DB1E20917F
:102B0000110330911203A9015595479555954795A5
:102B100055954795559547952091000230910102B2
:102B2000FA01E21BF30B9F01F7FF02C00C94752220
:102B3000E436F10514F40C94BA2020913B11309145
:102B40003C1140E050E00E94DE849B01AC0104C0D7
:102B50005695479537952795CA95D2F72130F0E1DC
:102B60003F074105510520F020E030E140E050E012
:102B70002093F7113093F8114093F9115093FA1103
:102B8000213084E038074105510510F40C940020F1
:102B90008091BF02882331F1A091C002B091C1029F
:102BA0000E943F85DC01CB01DAE0B695A7959795A9
:102BB0008795DA95D1F78093F7119093F811A09348
:102BC000F911B093FA1180916F11909170118E3FAD
:102BD000EFEF9E0711F40C9440240196909370112E
:102BE00080936F1181E08093001280916D1190911C
:102BF0006E118E3FFFEF9F0711F40C940C24019689
:102C000090936E1180936D118091F7119091F8114E
:102C1000A091F911B091FA1181159240A105B10569
:102C200010F40C944020109206121092051282E0CB
:102C300080930D128EEF92E090938711809386110E
:102C40000E94EC5B81110C94EB0B80910012E091DF
:102C50001412F0911512882309F46EC7A081B18176
:102C60002091F7113091F8114091F9115091FA111A
:102C70000E943F85DC01CB01CAE0B695A7959795E8
:102C80008795CA95D1F790939411809393111092E0
:102C900006121092051282E080930D1288E093E0F4
:102CA00090938711809386110E94EC5B81110C94A4
:102CB000EB0BE0911412F0911512808191819093A9
:102CC000981180939711109206121092051282E0CB
:102CD00080930D128CE093E090938711809386117E
:102CE0000C94090D863622E0920709F4A0CD8837AE
:102CF000924009F4BDCD8FEF9FEF909387118093A1
:102D0000861180E00C94EC0B8091951190919611B6
:102D1000892B09F444C4809101128F7B80930112A6
:102D2000109206121092051282E080930D128BEF22
:102D300093E090938711809386110E94EC5B811140
:102D40000C94EB0B80910012E0911412F09115128B
:102D5000882311F40C94EC1EA081B1812091F7110D
:102D60003091F8114091F9115091FA110E943F856C
:102D7000DC01CB011AE0B695A795979587951A9532
:102D8000D1F790930412809303120E94BB5A8AE0F9
:102D900094E090938711809386118091F511815072
:102DA0008093F511882311F40C94E21E20910312F4
:102DB000309104128091920E9091930EA091940EF6
:102DC000B091950E820F931FA11DB11D8093920E9D
:102DD0009093930EA093940EB093950EE0918C0E69
:102DE00081E08E0F80938C0EF0E0EE0FFF1FEE0F50
:102DF000FF1FE457F54F8091011290910212A091AC
:102E00000312B091041280839183A283B3838091D3
:102E100001128F77809301128091951190919611F4
:102E200001979093961180939511892B09F4B7C35C
:102E3000109206121092051282E080930D1283E127
:102E400094E090938711809386110E94EC5B81112E
:102E50000C94EB0B80910012E0911412F09115127A
:102E6000882311F40C948E1FA081B1812091F71159
:102E70003091F8114091F9115091FA110E943F855B
:102E8000DC01CB01CAE0B695A79597958795CA95C1
:102E9000D1F7909304128093031290919211909322
:102EA000021280919111882309F4E3C64091AD117B
:102EB0005091AE116091AF117091B01177FF02C0C7
:102EC0000C9444230091D5111091D6112091D71163
:102ED0003091D811400F511F621F731F4093AD11E5
:102EE0005093AE116093AF117093B01191609093B5
:102EF0000212813009F0BDC64091B5115091B61152
:102F00006091B7117091B81177FF02C00C945C21E9
:102F10000091DD111091DE112091DF113091E0114F
:102F2000400F511F621F731F4093B5115093B6118C
:102F30006093B7117093B8119091021294609093BE
:102F40000212833039F14091B9115091BA11609158
:102F5000BB117091BC1177FF02C00C9472210091DB
:102F6000E1111091E2112091E3113091E411400F31
:102F7000511F621F731F4093B9115093BA11609390
:102F8000BB117093BC119091021298609093021241
:102F9000843029F18091BD119091BE11A091BF1193
:102FA000B091C011B7FF02C00C94AD224091E51161
:102FB0005091E6116091E7117091E811840F951F0F
:102FC000A61FB71F8093BD119093BE11A093BF1190
:102FD000B093C0118091021280618093021282E24C
:102FE00094E090938711809386118091F511815020
:102FF0008093F511882309F45AC720910312309168
:1030000004128091920E9091930EA091940EB09123
:10301000950E820F931FA11DB11D8093920E909368
:10302000930EA093940EB093950EE0918C0E81E0D8
:103030008E0F80938C0EF0E0EE0FFF1FEE0FFF1F40
:10304000E457F54F8091011290910212A091031262
:10305000B091041280839183A283B383DDCE8091EB
:10306000ED119091EE11A091EF11B091F011892B1B
:103070008A2B8B2B09F40BC28091011283FF03C0B2
:103080008064809301128091931190919411909398
:1030900004128093031290919211909302128091E6
:1030A0009111882309F47CC54091AD115091AE1166
:1030B0006091AF117091B01177FF02C00C9497220C
:1030C0000091D5111091D6112091D7113091D811BE
:1030D000400F511F621F731F4093AD115093AE11EB
:1030E0006093AF117093B011916090930212813090
:1030F00009F056C54091B5115091B6116091B711C4
:103100007091B81177FF02C00C948F200091DD11EF
:103110001091DE112091DF113091E011400F511F0D
:10312000621F731F4093B5115093B6116093B7118E
:103130007093B811909102129460909302128330B0
:1031400031F14091B9115091BA116091BB11709158
:10315000BC1177FF01C0F9C70091E1111091E21194
:103160002091E3113091E411400F511F621F731F32
:103170004093B9115093BA116093BB117093BC1175
:1031800090910212986090930212843029F18091FC
:10319000BD119091BE11A091BF11B091C011B7FFA8
:1031A00002C00C9434224091E5115091E6116091D7
:1031B000E7117091E811840F951FA61FB71F809328
:1031C000BD119093BE11A093BF11B093C011809117
:1031D00002128061809302128BEA93E09093871130
:1031E000809386118091F51181508093F511882389
:1031F00009F413C620910312309104128091920EAB
:103200009091930EA091940EB091950E820F931F02
:10321000A11DB11D8093920E9093930EA093940ED6
:10322000B093950EE0918C0E81E08E0F80938C0E02
:10323000F0E0EE0FFF1FEE0FFF1FE457F54F8091F8
:10324000011290910212A0910312B0910412808396
:103250009183A283B383809101128F7780930112AF
:103260004091ED115091EE116091EF117091F011BC
:1032700041505109610971094093ED115093EE11CC
:103280006093EF117093F011452B462B472B09F4F7
:10329000FBC090919211909302128091911188231A
:1032A00009F467C64091AD115091AE116091AF1114
:1032B0007091B01177FF02C00C9410240091D511C9
:1032C0001091D6112091D7113091D811400F511F74
:1032D000621F731F4093AD115093AE116093AF11F5
:1032E0007093B011916090930212813009F041C641
:1032F0004091B5115091B6116091B7117091B8110C
:1033000077FF02C00C94CA230091DD111091DE11E9
:103310002091DF113091E011400F511F621F731F88
:103320004093B5115093B6116093B7117093B811D3
:1033300090910212946090930212833039F140917F
:10334000B9115091BA116091BB117091BC1177FF06
:1033500002C00C94E0230091E1111091E211209140
:10336000E3113091E411400F511F621F731F40930E
:10337000B9115093BA116093BB117093BC11909125
:103380000212986090930212843029F18091BD114D
:103390009091BE11A091BF11B091C011B7FF02C0B2
:1033A0000C94F6234091E5115091E6116091E711DC
:1033B0007091E811840F951FA61FB71F8093BD1150
:1033C0009093BE11A093BF11B093C01180910212CF
:1033D00080618093021286EB93E090938711809333
:1033E00086118091F51181508093F511882309F49D
:1033F000B7C520910312309104128091920E9091E2
:10340000930EA091940EB091950E820F931FA11D63
:10341000B11D8093920E9093930EA093940EB0934F
:10342000950EE0918C0E81E08E0F80938C0EF0E073
:10343000EE0FFF1FEE0FFF1FE457F54F80910112B3
:1034400090910212A0910312B09104128083918393
:10345000A283B3838091ED119091EE11A091EF11B1
:10346000B091F0110197A109B1098093ED119093EA
:10347000EE11A093EF11B093F011892B8A2B8B2BB7
:1034800009F007CF809101128F7B80930112809108
:10349000971190919811892B09F436CC80910112E3
:1034A0008F7B80930112109206121092051281E018
:1034B00080930D1288EC93E090938711809386118E
:1034C0000E94EC5B81110C94EB0B80910012E09157
:1034D0001412F0911512882309F48FC4A081209151
:1034E000F7113091F8114091F9115091FA11B0E0B3
:1034F0000E943F85DC01CB014AE0B695A7959795E0
:1035000087954A95D1F790930412809303120E94F5
:10351000BB5A87ED93E09093871180938611809139
:10352000F51181508093F511882309F45DC4209131
:103530000312309104128091920E9091930EA091FB
:10354000940EB091950E820F931FA11DB11D809313
:10355000920E9093930EA093940EB093950EE091DB
:103560008C0E81E08E0F80938C0EF0E0EE0FFF1F2B
:10357000EE0FFF1FE457F54F809101129091021258
:10358000A0910312B091041280839183A283B3832C
:10359000809101128F77809301120C94F30A80912D
:1035A00088119091891192FF02C00C946A110C94B9
:1035B0006F1180918F1190919011892B09F44FCD4B
:1035C000809101128F7B809301121092061210924B
:1035D000051281E080930D1288E693E090938711A5
:1035E000809386110E94EC5B81110C94EB0B80910F
:1035F0000012E0911412F0911512882309F416C4F8
:10360000A0812091F7113091F8114091F91150915A
:10361000FA11B0E00E943F85DC01CB01CAE0B6950B
:10362000A79597958795CA95D1F7909304128093A3
:10363000031290919211909302128091911188231C
:1036400009F481C24091AD115091AE116091AF115A
:103650007091B01177FD1EC70091D5111091D61150
:103660002091D7113091D811400F511F621F731F45
:103670004093AD115093AE116093AF117093B011A0
:10368000916090930212813009F05DC24091B511B2
:103690005091B6116091B7117091B81177FD15C5B1
:1036A0000091DD111091DE112091DF113091E011B8
:1036B000400F511F621F731F4093B5115093B611F5
:1036C0006093B7117093B811909102129460909327
:1036D0000212833029F14091B9115091BA116091D1
:1036E000BB117091BC1177FDDBC40091E111109109
:1036F000E2112091E3113091E411400F511F621F3C
:10370000731F4093B9115093BA116093BB1170931A
:10371000BC1190910212986090930212843019F1BA
:103720008091BD119091BE11A091BF11B091C011B7
:10373000B7FD85C64091E5115091E6116091E71102
:103740007091E811840F951FA61FB71F8093BD11BC
:103750009093BE11A093BF11B093C011809102123B
:1037600080618093021287E793E0909387118093A2
:1037700086118091F51181508093F511882309F409
:1037800043C320910312309104128091920E9091C4
:10379000930EA091940EB091950E820F931FA11DD0
:1037A000B11D8093920E9093930EA093940EB093BC
:1037B000950EE0918C0E81E08E0F80938C0EF0E0E0
:1037C000EE0FFF1FEE0FFF1FE457F54F8091011220
:1037D00090910212A0910312B09104128083918300
:1037E000A283B383809101128F77809301120C948E
:1037F0000E138538E2E09E0709F47CC889389240B0
:1038000009F49AC878CA893BF4E09F0711F40C9434
:1038100003118E3B944011F40C9414116CCA8C3536
:10382000F3E09F0711F40C94870F8836934009F456
:10383000D9CE61CA883CE3E09E0709F441CE873DBA
:10384000934009F46CCE57CA8232F4E09F0709F422
:10385000CCCB8733944009F04ECA80918C0E909166
:103860008D0E891B80958093F511882311F40C949B
:10387000EB0B109206121092051282E080930D124B
:103880008BE394E090938711809386110E94EC5B08
:1038900081110C94EB0BE0911412F09115128081C0
:1038A0009181809388119093891187FD47C38091FE
:1038B00001128F7B80930112109206121092051252
:1038C00082E080930D128FE494E0909387118093AF
:1038D00086110C94D80F8A3F24E0920701F18131C0
:1038E000954009F008CA0E94EC5B81110C94EB0B27
:1038F000E0911412F0911512D181C081D1111CC731
:10390000109278111092791110927A1110927B1105
:103910006C2F70E089E00E94FF540C946F1180912D
:10392000F51181508093F511882309F497C02091F7
:103930000312309104128091920E9091930EA091F7
:10394000940EB091950E820F931FA11DB11D80930F
:10395000920E9093930EA093940EB093950EE091D7
:103960008C0E81E08E0F80938C0EF0E0EE0FFF1F27
:10397000EE0FFF1FE457F54F809101129091021254
:10398000A0910312B091041280839183A283B38328
:103990008091F1119091F21101979093F21180931F
:1039A000F111892B09F46DC01092061210920512C4
:1039B00082E080930D1289EE94E0909387118093BA
:1039C00086110E94EC5B81110C94EB0B809100122C
:1039D000E0911412F0911512882309F4FCC2A08121
:1039E000B1812091F7113091F8114091F911509166
:1039F000FA110E943F85DC01CB012AE0B695A7951C
:103A0000979587952A95D1F7909304128093031286
:103A1000109206121092051281E080930D1285EF2C
:103A200094E090938711809386110E94EC5B811142
:103A30000C94EB0BE0911412F0911512808180939D
:103A400002128AEF94E090938711809386118091FF
:103A5000F51181508093F511811169CF85EF91E1C6
:103A60000E944553882311F40C94EB0B60CF883AE5
:103A7000E2E09E0709F428C88E3F924009F4E0C8AE
:103A80003AC980918811909189110C946811109213
:103A900006121092051283E080930D128AE195E0E0
:103AA00090938711809386110E94EC5B81110C9496
:103AB000EB0BE0911412F09115126181728140E0DC
:103AC00080810E94C957109287111092861181E05F
:103AD0000C94EC0B109206121092051284E0809365
:103AE0000D128DE395E090938711809386110E94CB
:103AF000EC5B81110C94EB0BE0911412F091151218
:103B000061817281438180810E94C957109287111F
:103B10001092861181E00C94EC0B10920612109218
:103B2000051281E080930D1280E492E0909387115A
:103B3000809386110C943C13808191819093941111
:103B400080939311A4C84091B1115091B21160912A
:103B5000B3117091B41177FDCDC20091D9111091BC
:103B6000DA112091DB113091DC11400F511F621FDF
:103B7000731F4093B1115093B2116093B3117093BE
:103B8000B41190910212926090930212823009F067
:103B90007DCDA1CDB0930412A09303120C94F61026
:103BA0004091B1115091B2116091B3117091B41163
:103BB00077FDEBC20091D9111091DA112091DB1140
:103BC0003091DC11400F511F621F731F4093B111E0
:103BD0005093B2116093B3117093B411909102128B
:103BE000926090930212823009F084CAAACA20918E
:103BF000F1113091F211215031093093F2112093DB
:103C0000F111232B11F40C946811CECE4091B11117
:103C10005091B2116091B3117091B41177FDCAC285
:103C20000091D9111091DA112091DB113091DC1142
:103C3000400F511F621F731F4093B1115093B21177
:103C40006093B3117093B4119091021292609093AB
:103C50000212823011F00C94E40D0C940B0E85EFDF
:103C600091E10E944553882311F40C94EB0B0C94C2
:103C70001D114091B1115091B2116091B311709129
:103C8000B41177FD04C30091D9111091DA1120917C
:103C9000DB113091DC11400F511F621F731F4093E5
:103CA000B1115093B2116093B3117093B41190910C
:103CB0000212926090930212823009F01DC943C92A
:103CC0004091B1115091B2116091B3117091B41142
:103CD00077FD1EC30091D9111091DA112091DB11EB
:103CE0003091DC11400F511F621F731F4093B111BF
:103CF0005093B2116093B3117093B411909102126A
:103D0000926090930212823011F00C94650B0C9427
:103D10008C0B4091B1115091B2116091B31170911F
:103D2000B41177FD61C30091D9111091DA1120917E
:103D3000DB113091DC11400F511F621F731F409344
:103D4000B1115093B2116093B3117093B41190916B
:103D50000212926090930212823011F00C945B1266
:103D60000C9482124091B1115091B2116091B31133
:103D70007091B41177FDE1C20091D9111091DA115F
:103D80002091DB113091DC11400F511F621F731F16
:103D90004093B1115093B2116093B3117093B41169
:103DA00090910212926090930212823011F00C9462
:103DB0000E0F0C94350F8091001281110C94041693
:103DC0000C94131685EF91E10E944553882311F45A
:103DD0000C94EB0B0C94D616808191819093041275
:103DE000809303120C94C51685EF91E10E94455310
:103DF000882311F40C94EB0B9ACB808190E0909384
:103E000004128093031283CB85EF91E10E94455306
:103E1000882311F40C94EB0BB4CC85EF91E10E9454
:103E20004553882311F40C94EB0BE4C9808190E096
:103E30009093041280930312FCCB85EF91E10E94D2
:103E40004553882311F40C94EB0B0C945A0C85EF1A
:103E500091E10E944553882311F40C94EB0B0C94D0
:103E6000660E8091BF02882309F4F0C08091C002E1
:103E70009091C102A0E0B0E08093F7119093F81107
:103E8000A093F911B093FA1181E080930012809110
:103E90006F11909170118E3F2FEF920709F4D6C4E5
:103EA00001969093701180936F110C94AF1085EF71
:103EB00091E10E944553882311F40C94EB0B9DC8AB
:103EC00085EF91E10E944553882311F40C94EB0B8C
:103ED0000C94DD1285EF91E10E944553882311F483
:103EE0000C94EB0B0C94900F8081918190930412B1
:103EF000809303120C94B30D813109F4EBCD873715
:103F000011F40C946F118D3011F00C94571387E35A
:103F100094E090938711809386119FCC808191814A
:103F200090930412809303120C944D17808190E0BB
:103F300090930412809303120C94340B8F79B9CCB4
:103F4000808190E090930412809303120C942A12C3
:103F50008081918190930412809303120C94DD0E62
:103F600085EF91E10E944553882311F40C94EB0BEB
:103F700040CA4091B1115091B2116091B31170914A
:103F8000B41177FDF2C30091D9111091DA1120918B
:103F9000DB113091DC11400F511F621F731F4093E2
:103FA000B1115093B2116093B3117093B411909109
:103FB0000212926090930212823009F099C9BFC92F
:103FC000880F991FFC01EB58FF4E2081318140E0A2
:103FD00050E00C944610808191819093041280935C
:103FE000031216CDB0930412A09303120C94D70CB5
:103FF000209175103091761040E050E00C944610FE
:104000008091BF02882309F4BEC28091C0029091C2
:10401000C102A0E0B0E08093F7119093F811A09353
:10402000F911B093FA1181E08093001280916F1121
:10403000909170118E3F2FEF920709F41EC40196E4
:104040009093701180936F110C94041680915F11FE
:10405000882309F4FBC28091601190916111A091B5
:104060006211B09163118093F7119093F811A093AE
:10407000F911B093FA1121E0209300120C94B710BB
:104080006BE172E088EF92E00E94F0450C94131609
:104090006BE172E085EA94E00E94F0450C94BE105A
:1040A0000091CD111091CE112091CF113091D011EE
:1040B000400F511F621F731F4093B9115093BA11E3
:1040C0006093BB117093BC1129CB0091C911109161
:1040D000CA112091CB113091CC11400F511F621F9A
:1040E000731F4093B5115093B6116093B71170933D
:1040F000B811EFCA0091C5111091C6112091C711D6
:104100003091C811400F511F621F731F4093B111AE
:104110005093B2116093B3117093B41137CD0091E5
:10412000C9111091CA112091CB113091CC11400FBF
:10413000511F621F731F4093B5115093B6116093C6
:10414000B7117093B8110C949F180091CD11109174
:10415000CE112091CF113091D011400F511F621F0D
:10416000731F4093B9115093BA116093BB117093B0
:10417000BC110BC8220F331FF901EB58FF4E2081F1
:10418000318140E050E00C94A3150091C5111091CD
:10419000C6112091C7113091C811400F511F621FE5
:1041A000731F4093B1115093B2116093B311709388
:1041B000B41119CD0091C5111091C6112091C711EC
:1041C0003091C811400F511F621F731F4093B111EE
:1041D0005093B2116093B3117093B4113ACD009122
:1041E000C9111091CA112091CB113091CC11400FFF
:1041F000511F621F731F4093B5115093B611609306
:10420000B7117093B8110C94090E0091CD11109153
:10421000CE112091CF113091D011400F511F621F4C
:10422000731F4093B9115093BA116093BB117093EF
:10423000BC110C94300E0091C9111091CA1120913B
:10424000CB113091CC11400F511F621F731F40934F
:10425000B5115093B6116093B7117093B8110C94C7
:104260008A0B0091CD111091CE112091CF11309178
:10427000D011400F511F621F731F4093B91150930B
:10428000BA116093BB117093BC110C94B10B0091E7
:10429000C5111091C6112091C7113091C811400F5E
:1042A000511F621F731F4093B1115093B21160935D
:1042B000B3117093B41100CD0091C9111091CA11BE
:1042C0002091CB113091CC11400F511F621F731FF1
:1042D0004093B5115093B6116093B7117093B81114
:1042E0000C94A1170091CD111091CE112091CF11F6
:1042F0003091D011400F511F621F731F4093B911AD
:104300005093BA116093BB117093BC110C94C817F1
:104310000091C5111091C6112091C7113091C8119B
:10432000400F511F621F731F4093B1115093B21180
:104330006093B3117093B411E6CC0091C511109144
:10434000C6112091C7113091C811400F511F621F33
:10435000731F4093B1115093B2116093B3117093D6
:10436000B41123CD0091C9111091CA112091CB1124
:104370003091CC11400F511F621F731F4093B51134
:104380005093B6116093B7117093B8110C948012CA
:104390000091CD111091CE112091CF113091D011FB
:1043A000400F511F621F731F4093B9115093BA11F0
:1043B0006093BB117093BC110C94A7120091CD11A6
:1043C0001091CE112091CF113091D011400F511F7B
:1043D000621F731F4093B9115093BA116093BB11C0
:1043E0007093BC110C945A0F0091C5111091C61115
:1043F0002091C7113091C811400F511F621F731FC8
:104400004093B1115093B2116093B3117093B411F2
:10441000A3CC0091C9111091CA112091CB113091F8
:10442000CC11400F511F621F731F4093B511509361
:10443000B6116093B7117093B8110C94330F40917B
:10444000D1115091D2116091D3117091D411840F78
:10445000951FA61FB71F8093BD119093BE11A09307
:10446000BF11B093C0117FC94091D1115091D211A9
:104470006091D3117091D411840F951FA61FB71F9F
:104480008093BD119093BE11A093BF11B093C01142
:104490000C94EC180091C1111091C2112091C3111C
:1044A0003091C411400F511F621F731F4093AD1113
:1044B0005093AE116093AF117093B011E4C8409166
:1044C000D1115091D2116091D3117091D411840FF8
:1044D000951FA61FB71F8093BD119093BE11A09387
:1044E000BF11B093C0110C94570E209175103091EC
:1044F000761040E050E00C94A3158FEF9FEF0C94E2
:10450000AB104091D1115091D2116091D3117091A3
:10451000D411840F951FA61FB71F8093BD119093D0
:10452000BE11A093BF11B093C0110C94CE12009194
:10453000C1111091C2112091C3113091C411400FCB
:10454000511F621F731F4093AD115093AE116093C2
:10455000AF117093B0110C9477184091D111509114
:10456000D2116091D3117091D411840F951FA61FA1
:10457000B71F8093BD119093BE11A093BF11B0934C
:10458000C0110C94EF1780915F11882309F413CCAC
:104590008091601190916111A0916211B0916311AD
:1045A0008093F7119093F811A093F911B093FA1139
:1045B00021E0209300120C940C164091D1115091DF
:1045C000D2116091D3117091D411840F951FA61F41
:1045D000B71F8093BD119093BE11A093BF11B093EC
:1045E000C0110C94D80B109206121092051282E0A2
:1045F00080930D1281E195E090938711809386114D
:1046000072C90091C1111091C2112091C311309152
:10461000C411400F511F621F731F4093AD1150937F
:10462000AE116093AF117093B0110C94E00D109225
:1046300006121092051282E080930D128AE295E034
:1046400090938711809386110C948C1180910012A5
:10465000882311F40C94BE100C94AF104091D1112A
:104660005091D2116091D3117091D411840F951F84
:10467000A61FB71F8093BD119093BE11A093BF11C9
:10468000B093C0110C94810F0091C1111091C2110F
:104690002091C3113091C411400F511F621F731F2D
:1046A0004093AD115093AE116093AF117093B01160
:1046B0000C9479170091C1111091C2112091C3116E
:1046C0003091C411400F511F621F731F4093AD11F1
:1046D0005093AE116093AF117093B0110C94610BB5
:1046E0000091C1111091C2112091C3113091C411D8
:1046F000400F511F621F731F4093AD115093AE11B5
:104700006093AF117093B0110C9457120091C111C6
:104710001091C2112091C3113091C411400F511F4B
:10472000621F731F4093AD115093AE116093AF1190
:104730007093B0110C940A0F6FEF70E089E00E9443
:10474000FF54C09377110E94F955DC01CB018D0F06
:10475000911DA11DB11D8093781190937911A093A3
:104760007A11B0937B110C946F110091C5111091C7
:10477000C6112091C7113091C811400F511F621FFF
:10478000731F4093B1115093B2116093B3117093A2
:10479000B41112CC0091C9111091CA112091CB1102
:1047A0003091CC11400F511F621F731F4093B51100
:1047B0005093B6116093B7117093B8110C949D1972
:1047C0000091CD111091CE112091CF113091D011C7
:1047D000400F511F621F731F4093B9115093BA11BC
:1047E0006093BB117093BC110C94C4194091D1110A
:1047F0005091D2116091D3117091D411840F951FF3
:10480000A61FB71F8093BD119093BE11A093BF1137
:10481000B093C0110C94EB198FEF9FEF0C9400161E
:104820000091C1111091C2112091C3113091C41196
:10483000400F511F621F731F4093AD115093AE1173
:104840006093AF117093B0110C9475198FEF9FEFB7
:1048500028CB8FEF9FEF0C9499106FEF7FEF709341
:10486000200460931F04921B9F3F11F00C94F113DE
:104870004250409319040C94F6138FEF9FEFE0CB56
:104880008FEF9FEF0C94EE15DA01A95EBC4F0C94EC
:104890009F1382818F5F8283EBCF92819F5F928390
:1048A0009A2F0C94C5132F923F924F925F926F9262
:1048B0007F928F929F92AF92BF92DF92EF92FF9280
:1048C0000F931F93CF93DF93CDB7DEB760970FB6EB
:1048D000F894DEBF0FBECDBFF89498E288E10FB622
:1048E000F894A895809360000FBE9093600080912B
:1048F00081008F7E80938100809181008860809309
:104900008100809180008D7F809380008091800065
:104910008E7F80938000809180008F7380938000D1
:10492000809180008F7C8093800080918100887FBF
:1049300082608093810080E090E49093890080936E
:10494000880090938B0080938A00109285001092CB
:104950008400EAEBF3E1849190E0880F991FFC0159
:10496000EC58FC4E2591349130936B0220936A02EF
:10497000FC01E658FB4E2591349130934E02209372
:104980004D02805A9B4EFC0185919491909369024F
:1049900080936802E0E0F4E1E491E0934C029FB779
:1049A000F894E0916802F0916902208180914C02B4
:1049B000822B80839FBF2FB7F894E0914D02F09136
:1049C0004E02808190914C029095892380832FBF65
:1049D000E5E9F3E1849190E0880F991FFC01EC5820
:1049E000FC4E2591349130936F0220936E02FC01AE
:1049F000E658FB4E259134913093FB122093FA1226
:104A0000805A9B4EFC018591949190936D02809306
:104A10006C02EBEDF3E1E491E093F9129FB7F894A7
:104A2000E0916C02F0916D0220818091F912822B4D
:104A300080839FBF2FB7F894E091FA12F091FB1298
:104A400080819091F9129095892380832FBFE7E9A7
:104A5000F3E1849190E0880F991FFC01EC58FC4E23
:104A6000259134913093760220937502FC01E6582B
:104A7000FB4E259134913093740220937302805A37
:104A80009B4EFC01859194919093720280937102E8
:104A9000EDEDF3E1E491E09370029FB7F894E091BB
:104AA0007102F0917202208180917002822B8083CA
:104AB0009FBF9FB7F894E0917C02F0917D02208126
:104AC00080917B02822B80839FBFE3ECF3E1849192
:104AD00090E0880F991FFC01EC58FC4E2591349111
:104AE00030937A0220937902FC01E658FB4E25911F
:104AF000349130937D0220937C02805A9B4EFC01BE
:104B0000859194919093780280937702E9E0F4E1A3
:104B1000E491E0937B029FB7F894E0917702F091E3
:104B20007802208180917B02822B80839FBF9FB778
:104B3000F894E0917C02F0917D02208180917B02CB
:104B4000822B80839FBF9FB7F894E0911712F0915A
:104B50001812208180911612822B80839FBFE9E971
:104B6000F3E1849190E0880F991FFC01EC58FC4E12
:104B7000259134913093810220938002FC01E65804
:104B8000FB4E259134913093181220931712805ABE
:104B90009B4EFC018591949190937F0280937E02BD
:104BA000EFEDF3E1E491E09316129FB7F894E091F2
:104BB0007E02F0917F02208180911612822B8083E9
:104BC0009FBF9FB7F894E0911712F09118122081BF
:104BD00080911612822B80839FBFE2ECF3E18491D7
:104BE00090E0880F991FFC01EC58FC4E2591349100
:104BF0003093850220938402FC01E658FB4E2591F8
:104C000034913093880220938702805A9B4EFC0196
:104C1000859194919093830280938202E8E0F4E17D
:104C2000E491E09386029FB7F894E0918202F091BC
:104C30008302208180918602822B80839FBF2FB7C1
:104C4000F894E0918702F091880280819091860229
:104C50009095892380832FBFE1ECF3E1849190E06C
:104C6000880F991FFC01EC58FC4E2591349130932C
:104C70008C0220938B02FC01E658FB4E2591349167
:104C800030938F0220938E02805A9B4EFC018591B7
:104C9000949190938A0280938902E7E0F4E1E49191
:104CA000E0938D029FB7F894E0918902F0918A0217
:104CB000208180918D02822B80839FBF2FB7F89433
:104CC000E0918E02F0918F02808190918D029095FB
:104CD000892380832FBF62E082E30E94BE5410923A
:104CE000C0001092C50081E08093C4008091C10093
:104CF00080618093C1008091C10088608093C10071
:104D00008091C10080688093C100E8E9F3E184915B
:104D100090E0880F991FFC01EC58FC4E25913491CE
:104D20003093EB122093EA12FC01E658FB4E2591DA
:104D300034913093E9122093E812805A9B4EFC0183
:104D4000859194919093E7128093E612EEEDF3E152
:104D5000E491E093E5129FB7F894E091E612F091A8
:104D6000E71220818091E512822B80839FBFE6E9C4
:104D7000F3E1849190E0880F991FFC01EC58FC4E00
:104D8000259134913093E4122093E312FC01E6580C
:104D9000FB4E259134913093E2122093E112805A18
:104DA0009B4EFC01859194919093E0128093DF12C9
:104DB000ECEDF3E1E491E093DE129FB7F894E0911B
:104DC000DF12F091E01220818091DE12822B80832D
:104DD0009FBF2FB7F894E091E112F091E212808129
:104DE0009091DE129095892380832FBF10927E00D0
:104DF00010927D0080917D00806280937D00809183
:104E00007D00806480937D0087EC80937A008091A0
:104E10007A0086FDFCCF1092220F1092230F109281
:104E2000240F1092250F1092260F1092270F109228
:104E3000280F1092290F10922A0F10922B0F109208
:104E40002C0F10922D0F10922E0F80E590E0909372
:104E500012038093110381E39FE09093210F8093CD
:104E6000200F819A899A879A8F9880910A0182608F
:104E700080930A0180910B018D7F80930B013B9AF7
:104E800043980E9A16989FB7F894E091D212F09139
:104E9000D31220818091D112822B80839FBFE4EBBB
:104EA000F3E1849190E0880F991FFC01EC58FC4ECF
:104EB000259134913093930220939202FC01E6589D
:104EC000FB4E259134913093D3122093D212805A05
:104ED0009B4EFC0185919491909391028093900256
:104EE000EAEFF3E1E491E093D1129FB7F894E091F7
:104EF0009002F091910220818091D112822B8083C7
:104F00009FBF9FB7F894E091D212F091D312208105
:104F10008091D112822B80839FBF9FB7F894E0913C
:104F2000CF12F091D01220818091CE12822B8083FB
:104F30009FBFE6ECF3E1849190E0880F991FFC019C
:104F4000EC58FC4E259134913093970220939602B1
:104F5000FC01E658FB4E259134913093D0122093FA
:104F6000CF12805A9B4EFC018591949190939502AB
:104F700080939402ECE0F4E1E491E093CE129FB7C9
:104F8000F894E0919402F091950220818091CE12E4
:104F9000822B80839FBF9FB7F894E091CF12F0914E
:104FA000D01220818091CE12822B80839FBF9FB729
:104FB000F894E091CC12F091CD1220818091CB1227
:104FC000822B80839FBFECECF3E1849190E0880F0B
:104FD000991FFC01EC58FC4E2591349130939B02B3
:104FE00020939A02FC01E658FB4E259134913093B0
:104FF000CD122093CC12805A9B4EFC018591949146
:105000009093990280939802E2E1F4E1E491E093B5
:10501000CB129FB7F894E0919802F0919902208109
:105020008091CB12822B80839FBF9FB7F894E09131
:10503000CC12F091CD1220818091CB12822B8083F3
:105040009FBF9FB7F894E091C912F091CA122081D6
:105050008091C812822B80839FBFECEAF3E1849198
:1050600090E0880F991FFC01EC58FC4E259134917B
:1050700030939F0220939E02FC01E658FB4E25913F
:1050800034913093CA122093C912805A9B4EFC016E
:105090008591949190939D0280939C02E2EFF3E1BD
:1050A000E491E093C8129FB7F894E0919C02F091CC
:1050B0009D0220818091C812822B80839FBF9FB761
:1050C000F894E091C912F091CA1220818091C8121F
:1050D000822B80839FBF9FB7F894E091C612F09116
:1050E000C71220818091C512822B80839FBFE6EA80
:1050F000F3E1849190E0880F991FFC01EC58FC4E7D
:10510000259134913093A3022093A202FC01E6582A
:10511000FB4E259134913093C7122093C612805ACA
:105120009B4EFC01859194919093A1028093A002E3
:10513000ECEEF3E1E491E093C5129FB7F894E091AF
:10514000A002F091A10220818091C512822B808360
:105150009FBF9FB7F894E091C612F091C7122081CB
:105160008091C512822B80839FBFE1E9F3E1849196
:1051700090E0880F991FFC01EC58FC4E259134916A
:105180003093C4122093C312FC01E658FB4E2591C4
:1051900034913093A7022093A602805A9B4EFC01C3
:1051A000859194919093A5028093A402E7EDF3E199
:1051B000E491E093C2122FB7F894E091A402F09129
:1051C000A50280819091C2129095892380832FBF80
:1051D0009FB7F894E091A602F091A70220818091F8
:1051E000C212822B80839FBFE8EBF3E1849190E0B1
:1051F000880F991FFC01EC58FC4E25913491309397
:10520000B1122093B012FC01E658FB4E2591349167
:105210003093AB022093AA02805A9B4EFC018591E9
:1052200094919093A9028093A802EEEFF3E1E491A8
:10523000E093AF122FB7F894E091A802F091A90281
:1052400080819091AF129095892380832FBF9FB763
:10525000F894E091AA02F091AB0220818091AF1204
:10526000822B80839FBFE0EAF3E1849190E0880F76
:10527000991FFC01EC58FC4E259134913093AE12ED
:105280002093AD12FC01E658FB4E259134913093EA
:10529000AF022093AE02805A9B4EFC0185919491FF
:1052A0009093AD028093AC02E6EEF3E1E491E093DB
:1052B000AC122FB7F894E091AC02F091AD0280816E
:1052C0009091AC129095892380832FBF9FB7F8945B
:1052D000E091AE02F091AF0220818091AC12822B5E
:1052E00080839FBFE9EBF3E1849190E0880F991FE1
:1052F000FC01EC58FC4E259134913093AB12209375
:10530000AA12FC01E658FB4E259134913093B3026A
:105310002093B202805A9B4EFC0185919491909308
:10532000B1028093B002EFEFF3E1E491E093A912B0
:105330002FB7F894E091B002F091B1028081909182
:10534000A9129095892380832FBF9FB7F894E0918D
:10535000B202F091B30220818091A912822B808346
:105360009FBF809A8898869A8E9880910A0188605B
:1053700080930A0180910B01877F80930B01399AFA
:1053800041980C9A14987894D12C50EA252E312CFF
:1053900010922C041092290410922E0482E394E0BF
:1053A00090932B0480932A040E94F9554B015C01D1
:1053B00000912A0410912B0485E3F801828361E0B7
:1053C0000E94BE5461E0F80182810E948B54E091FA
:1053D0002A04F0912B0482E58083118280912C04B1
:1053E000882309F483C1E0912A04F0912B0461E041
:1053F00082810E948B548AE09FEF9EBD0DB407FE10
:10540000FDCF8150D1F7E0912A04F0912B0460E0A8
:1054100082810E948B540AE07DEFF72E1FEF20E07F
:1054200030E0A90160E089E294E00E94A35381305A
:1054300009F46CC1015071F0FEBC0DB407FEFDCF44
:1054400088E092E01EBD0DB407FEFDCF2EB501979A
:10545000C9F7E5CF80E28093290480912C0488234A
:1054600021F089E294E00E94AD436091290470E04C
:1054700080E090E00E94D85760911D0483E0682E80
:10548000712C01E010E092E0892E912C24E0A22EF4
:10549000B12C44244A94542C42E7E42EF12C662388
:1054A00089F180911703909118038B37910509F4C6
:1054B00068C008F4EAC0833A910509F4C9C008F449
:1054C00010C1863A910509F4D1C0893A910509F0D5
:1054D000E4C0615060931D0461110EC090911904E5
:1054E00080911A04981741F060E172E08EEA90E032
:1054F0000E94F04560911D0410921803109217034A
:105500006111CFCF10921D0410921A041092190449
:10551000A89568EB7BE080E090E00E94C255D394B0
:10552000F5E0DF1235CF68E083E00E94BB4C0E94BB
:105530008A440E94F9556093191270931A1280934D
:105540001B1290931C1260960FB6F894DEBF0FBE2C
:10555000CDBFDF91CF911F910F91FF90EF90DF9022
:10556000BF90AF909F908F907F906F905F904F9083
:105570003F902F9008958BE790E0909318038093CD
:1055800017038091C00085FF8ACF20911E042093CD
:10559000C600E0911A04EF5FE0931A0480911B04A7
:1055A00090911C048227082E8295807F8025092EE9
:1055B000982F82958F700826869598278927880FBF
:1055C000880F880F802590931C0480931B042091E2
:1055D0001904E21761F0F0E0E95EFC4F82818093EC
:1055E0001E048111C8CF80911B0490911C04492F87
:1055F000552750932604409325049C01332730936C
:10560000280420932704892B09F075C0B092240444
:10561000A09223044F5F5F4F5093260440932504CC
:105620002F5F3F4F309328042093270430921803B4
:10563000209217038091C00085FF31CF8091230411
:105640008093C600E3EAF0E0F0931803E0931703B9
:105650008091C00085FF23CF809127048093C600EE
:1056600086EA90E090931803809317038091C0001E
:1056700085FF15CF809125048093C600E9EAF0E00C
:10568000F0931803E093170324CF8C36910551F063
:1056900082379105B9F0892B29F050921803409276
:1056A0001703FDCEE0911A0481E08E0F80931A0457
:1056B000F0E0E95EFC4F828180931E04F0921803B3
:1056C000E09217038091C00085FFE9CE80911E040F
:1056D0008093C60050921C0440921B04E0911A046F
:1056E0007ACF803A910509F4A5CFD7CF89E294E02B
:1056F0000E94BF4378CE452BC9F490922404809237
:105700002304109326040093250490CF21E030E079
:1057100040E050E06BE389E294E00E94A353182F2D
:10572000813059F088E38093290497CE232B09F127
:10573000109324040093230479CF2AEA31E040E057
:1057400050E068E089E294E00E94A3538530D1F0F4
:1057500084E02FEF2EBD0DB407FEFDCF9EB59093D4
:105760002D048150B9F79A3A71F185E280932904AA
:1057700074CE709224046092230410932804009342
:10578000270454CF10932E04412C512C320120E0D9
:1057900030E0A90167E389E294E00E94A353A301EA
:1057A000920169E289E294E00E94A3538823A1F068
:1057B0000E94F95568197909613D774040F383E407
:1057C000809329044ACE82E080932E04412C512CF0
:1057D000612C60E4762EDBCF80912E04823049F17B
:1057E00080912C04882321F089E294E00E94AD434B
:1057F000E0912A04F0912B0480E5808381E081838D
:1058000080912E04833051F189E080932F04BE01F2
:105810006F5F7F4F89E294E00E9424598823B9F09A
:105820008B8586FF14C085E080933004809331041B
:1058300080CE20E030E0A9016AE389E294E00E9492
:10584000A353882371F087E38093290406CE67E28F
:1058500072E086E991E00E94F045E5CF10922F04B6
:10586000D6CF8FEF8EBD0DB407FEFDCF8EB5807CF9
:10587000803C19F483E080932E0483E09FEF9EBD6B
:105880000DB407FEFDCF2EB58150C9F7A9CF2F92D9
:105890003F924F925F926F927F928F929F92AF92C0
:1058A000BF92CF92DF92EF92FF920F931F93CF930D
:1058B000DF9300D01F92CDB7DEB781E090E09093E8
:1058C000F2118093F11181E090E0A0E0B0E08093CC
:1058D000ED119093EE11A093EF11B093F01110928F
:1058E000F611109287111092861110920C121092DC
:1058F0000B1210920A12109209122091470A30914D
:10590000480A0FEF1FEF66246A9477247394E9E046
:105910005E2EF2E04F2EEE24E394F12CB9EE2B2E06
:10592000312C8CEBC82ED12C21153105B1F0809192
:105930003504909136048C3B910509F46BC0893E87
:10594000910509F4E4C1892B09F453C2109336047C
:10595000009335042115310551F710923D06109240
:105960003E0610923F0610924006109238061092A2
:1059700037061092410A1092420A1092430A10927E
:10598000440A1092490A81E090E0A0E0B0E08093E0
:10599000390690933A06A0933B06B0933C061092CA
:1059A0008D0E10928C0E1092960E1092970E1092F1
:1059B000980E1092990E1092920E1092930E1092D1
:1059C000940E1092950E10929B0E0F900F900F90C8
:1059D0000F90DF91CF911F910F91FF90EF90DF908B
:1059E000CF90BF90AF909F908F907F906F905F907F
:1059F0004F903F902F9008950E94F95560935C0A54
:105A000070935D0A80935E0A90935F0AD092360489
:105A1000C09235040E94F95560934C0A70934D0A68
:105A200080934E0A90934F0A80914A0A90914B0AB4
:105A30008154964009F406C58091410A9091420A2A
:105A4000A091430AB091440A29E0B695A79597958D
:105A500087952A95D1F79C01AD012F5F3F4F4F4F9E
:105A60005F4F80912E04833039F089E0220F331F7D
:105A7000441F551F8A95D1F761E189E294E00E94A5
:105A8000A353882309F4C7C280E38093290480913B
:105A90002C04882321F089E294E00E94AD43809198
:105AA0003004815080933004882309F478C50E9423
:105AB000F95580904C0A90904D0AA0904E0AB090F3
:105AC0004F0ADC01CB0188199909AA09BB09409149
:105AD000500A5091510A6091520A7091530A4F5FD7
