:100000000C944B0A0C947C0A0C947C0A0C947C0A89
:100010000C947C0A0C947C0A0C947C0A0C947C0A48
:100020000C947C0A0C947C0A0C947C0A0C947C0A38
:100030000C947C0A0C947C0A0C947C0A0C947C0A28
:100040000C947C0A0C9493590C940B560C947C0AD7
:100050000C947C0A0C947C0A0C947C0A0C940E611F
:100060000C947C0A0C942F680C947C0A0C947C0AE7
:100070000C947C0A0C947C0A0C947C0A0C947C0AE8
:100080000C947C0A0C947C0A0C947C0A0C947C0AD8
:100090000C947C0A0C947C0A0C947C0A0C947C0AC8
:1000A0000C947C0A0C947C0A0C947C0A0C947C0AB8
:1000B0000C947C0A0C947C0A0C947C0A0C947C0AA8
:1000C0000C947C0A0C947C0A0C947C0A0C947C0A98
:1000D0000C947C0A0C947C0A0C947C0A0C947C0A88
:1000E0000C947C0AF916A516890F890F890FE71A57
:1000F0003018F717CA17B8173217890F890F890FE9
:10010000890F890F890F890F890F890F890F890F2F
:10011000890F2A17C918890F890F890FBD187D18F3
:100120003D18E419890FE019B21A890F7E16EC15F3
:10013000DE15A61591151F157014F715D913890F23
:1001400066152D1589137A13890F890F7413890F7A
:100150001013FF12A5128E1259125312A811E31098
:10016000AB108F107810141B485C4C5C505C565CD4
:100170005C5C475C625C685C6E5C745C7A5C805C56
:10018000865C8C5C475C925C985C425C915D995D9E
:100190009E5DA85DB25D805DBC5DC45DCC5DD65DDD
:1001A000E05DEA5DF95D035E805D0D5E175E215ED8
:1001B000000020002300260029002C002F00320020
:1001C00000010000030106010901050505050705F9
:1001D00008080808020202020A0A080804040404C3
:1001E00001010101010101010303030303030303EF
:1001F000040707070C0C0C0C0C0C0C0C020202027E
:1002000006060606060606060B0B0B0B0B0B0B0B66
:100210000102102020080810204010204080020118
:1002200002010804020101020408102040808040FD
:1002300020100804020180040201804020100804FC
:10024000020108040201010204081020408001029A
:1002500004081020408000000A0B02090C0D0E0853
:10026000070304010000000000000000000000007F
:10027000000000000000000000000000000000007E
:10028000000012111000000000000000000000003B
:10029000000000000000000000000000441F041DDA
:1002A000671B2A1A2B195718A21706177B16001658
:1002B00092152D15D1147C142E14E513A11362137D
:1002C0002613ED12B812851255122712FC11D21105
:1002D000AA1184115F113B111911F810D910BA102D
:1002E0009C108010641049102F101510FC0FE40FA3
:1002F000CD0FB60FA00F8A0F750F610F4C0F390F7E
:10030000250F130F000FEE0EDD0ECB0EBA0EAA0E48
:10031000990E890E7A0E6A0E5B0E4C0E3E0E2F0E53
:10032000210E130E060EF80DEB0DDE0DD10DC50DD1
:10033000B80DAC0DA00D940D880D7D0D710D660DE1
:100340005B0D500D450D3B0D300D260D1B0D110D98
:10035000070DFD0CF30CEA0CE00CD70CCD0CC40C13
:10036000BB0CB20CA90CA00C980C8F0C860C7E0C4C
:10037000760C6D0C650C5D0C550C4D0C450C3D0C54
:10038000350C2E0C260C1F0C170C100C080C010C35
:10039000FA0BF30BEC0BE50BDE0BD70BD00BC90BF9
:1003A000C20BBC0BB50BAE0BA80BA10B9B0B950B9B
:1003B0008E0B880B820B7B0B750B6F0B690B630B22
:1003C0005D0B570B510B4C0B460B400B3A0B350B8F
:1003D0002F0B290B240B1E0B190B130B0E0B080BE9
:1003E000030BFE0AF80AF30AEE0AE90AE40ADE0A37
:1003F000D90AD40ACF0ACA0AC50AC00ABB0AB60A71
:10040000B10AAD0AA80AA30A9E0A990A950A900A97
:100410008B0A870A820A7E0A790A740A700A6B0AB2
:10042000670A620A5E0A5A0A550A510A4C0A480AC1
:10043000440A400A3B0A370A330A2F0A2A0A260AC4
:10044000220A1E0A1A0A160A120A0E0A0A0A060ABC
:10045000020AFE09FA09F609F209EE09EA09E609B3
:10046000E209DE09DA09D709D309CF09CB09C8099E
:10047000C409C009BC09B909B509B109AE09AA097D
:10048000A609A3099F099B099809940991098D0957
:100490008A09860983097F097C0978097509710928
:1004A0006E096B096709640960095D095A095609F3
:1004B000530950094C094909460942093F093C09B9
:1004C0003909350932092F092C0929092509220979
:1004D0001F091C091909160912090F090C09090934
:1004E000060903090009FD08FA08F708F408F108ED
:1004F000ED08EA08E708E408E108DE08DB08D908A7
:10050000D608D308D008CD08CA08C708C408C1084F
:10051000BE08BB08B808B508B308B008AD08AA08FB
:10052000A708A408A1089F089C08990896089308A2
:1005300091088E088B0888088608830880087D0843
:100540007B0878087508720870086D086A086808E2
:10055000650862085F085D085A0857085508520880
:100560004F084D084A0848084508420840083D0819
:100570003A0838083508330830082E082B082808B0
:100580002608230821081E081C0819081708140843
:1005900011080F080C080A080708050802080008D7
:1005A000FD07FB07F807F607F307F107EE07EC076F
:1005B000EA07E707E507E207E007DD07DB07D807FB
:1005C000D607D407D107CF07CC07CA07C707C50787
:1005D000C307C007BE07BB07B907B707B407B20711
:1005E000B007AD07AB07A807A607A407A1079F0799
:1005F0009D079A0798079607930791078F078C071F
:100600008A0788078507830781077E077C077A07A3
:1006100078077507730771076E076C076A07670726
:100620006507630761075E075C075A0758075507A8
:10063000530751074F074C074A0748074607430728
:1006400041073F073D073A073807360734073107A8
:100650002F072D072B072907260724072207200726
:100660001D071B07190717071507120710070E07A5
:100670000C070A070707050703070107FF06FC0623
:10068000FA06F806F606F406F206EF06ED06EB06A5
:10069000E906E706E506E206E006DE06DC06DA061F
:1006A000D806D506D306D106CF06CD06CB06C8069A
:1006B000C606C406C206C006BE06BC06B906B70614
:1006C000B506B306B106AF06AD06AA06A806A6068D
:1006D000A406A206A0069E069C0699069706950605
:1006E000930691068F068D068B068806860684067D
:1006F000820680067E067C067A06770675067306F5
:1007000071066F066D066B0669066606640662066C
:1007100060065E065C065A065806560653065106E3
:100720004F064D064B06490647064506430640065A
:100730003E063C063A0638063606340632063006D1
:100740002D062B06290627062506230621061F0649
:100750001D061A06180616061406120610060E06C0
:100760000C060A060706050603060106FF05FD0539
:10077000FB05F905F605F405F205F005EE05EC05B7
:10078000EA05E805E505E305E105DF05DD05DB052F
:10079000D905D705D405D205D005CE05CC05CA05A7
:1007A000C805C605C305C105BF05BD05BB05B9051F
:1007B000B705B405B205B005AE05AC05AA05A70599
:1007C000A505A305A1059F059D059B059805960513
:1007D0009405920590058E058B058905870585058D
:1007E000830581057E057C057A0578057605730508
:1007F00071056F056D056B05680566056405620585
:1008000060055D055B055905570555055205500501
:100810004E054C05490547054505430541053E057F
:100820003C053A0538053505330531052F052C05FE
:100830002A0528052605230521051F051C051A057F
:1008400018051605130511050F050C050A05080501
:10085000060503050105FF04FC04FA04F804F50489
:10086000F304F104EE04EC04EA04E704E504E30411
:10087000E004DE04DB04D904D704D404D204D00499
:10088000CD04CB04C804C604C404C104BF04BC0422
:10089000BA04B804B504B304B004AE04AB04A904AC
:1008A000A604A404A1049F049D049A04980495043A
:1008B000930490048E048B048904860483048104C9
:1008C0007E047C0479047704740472046F046C045D
:1008D0006A046704650462045F045D045A045804F2
:1008E0005504520450044D044A044804450442048B
:1008F00040043D043A043704350432042F042D0427
:100900002A042704240421041F041C0419041604C7
:10091000130411040E040B0408040504020400046B
:10092000FD03FA03F703F403F103EE03EB03E8031B
:10093000E503E203DF03DC03D903D603D303D003CB
:10094000CD03CA03C703C403C103BE03BB03B7037C
:10095000B403B103AE03AB03A803A403A1039E0336
:100960009B039703940391038E038A0387038403F5
:1009700080037D037903760373036F036C036803BD
:10098000650361035E035A03570353034F034C038C
:100990004803440341033D033903360332032E0366
:1009A0002A03260323031F031B03170313030F0349
:1009B0000B0307030303FF02FB02F702F302EE023D
:1009C000EA02E602E202DD02D902D502D002CC023E
:1009D000C702C302BE02BA02B502B102AC02A7024C
:1009E000A3029E02990294028F028A02850280026B
:1009F0007B02760271026C02660261025C025602A0
:100A000051024B02460240023A0234022F022902EE
:100A100023021D02160210020A020402FD01F70160
:100A2000F001E901E201DC01D501CD01C601BF0100
:100A3000B701B001A801A0019801900188018001CF
:100A400077016E0165015C0153014A0140013601E5
:100A50002C01220117010C010101F500EA00DD0063
:100A6000D100C400B600A9009A008B007C006C0085
:100A70005B004900370023000F00F9FF0F20E91C3D
:100A8000E81A77195A187417B51611168315061532
:100A900096143114D51382133413ED12AA126C126A
:100AA0003212FB11C811971168113C111211EA1092
:100AB000C4109F107C105A1039101A10FC0FDE0F52
:100AC000C20FA70F8C0F730F5A0F420F2A0F130F6D
:100AD000FD0EE80ED30EBE0EAA0E970E840E710EFA
:100AE0005F0E4D0E3C0E2B0E1A0E0A0EFA0DEA0D7D
:100AF000DA0DCB0DBD0DAE0DA00D920D840D760D52
:100B0000690D5C0D4F0D430D360D2A0D1E0D120D96
:100B1000060DFB0CEF0CE40CD90CCE0CC40CB90C7C
:100B2000AF0CA40C9A0C900C860C7C0C730C690C0A
:100B3000600C560C4D0C440C3B0C320C2A0C210C56
:100B4000180C100C070CFF0BF70BEF0BE70BDF0B70
:100B5000D70BCF0BC70BC00BB80BB10BA90BA20B5C
:100B60009B0B930B8C0B850B7E0B770B700B6A0B1F
:100B7000630B5C0B550B4F0B480B420B3B0B350BC0
:100B80002F0B280B220B1C0B160B100B0A0B040B44
:100B9000FE0AF80AF20AEC0AE60AE10ADB0AD50ABA
:100BA000D00ACA0AC50ABF0ABA0AB40AAF0AAA0A10
:100BB000A40A9F0A9A0A950A8F0A8A0A850A800A55
:100BC0007B0A760A710A6C0A670A620A5D0A590A88
:100BD000540A4F0A4A0A460A410A3C0A380A330AAA
:100BE0002E0A2A0A250A210A1C0A180A140A0F0AC0
:100BF0000B0A060A020AFE09F909F509F109ED09CD
:100C0000E809E409E009DC09D809D409D009CC09CC
:100C1000C809C409C009BC09B809B409B009AC09BC
:100C2000A809A409A0099C099809950991098D09A9
:100C30008909860982097E097A09770973096F098A
:100C40006C096809650961095D095A095609530962
:100C50004F094C094809450941093E093B09370933
:100C6000340930092D092A09260923091F091C09FD
:100C70001909160912090F090C09080905090209C1
:100C8000FF08FC08F808F508F208EF08EC08E90886
:100C9000E508E208DF08DC08D908D608D308D00840
:100CA000CD08CA08C708C408C108BE08BB08B808F0
:100CB000B508B208AF08AC08A908A608A308A008A0
:100CC0009D089A089708940891088F088C0889084D
:100CD0008608830880087E087B08780875087208F3
:100CE00070086D086A086708650862085F085C0894
:100CF0005A085708540851084F084C084908470833
:100D0000440841083F083C083908370834083108CE
:100D10002F082C082A082708240822081F081D0865
:100D20001A0817081508120810080D080B080808FB
:100D3000060803080108FE07FC07F907F707F40790
:100D4000F207EF07ED07EA07E807E507E307E00723
:100D5000DE07DB07D907D607D407D207CF07CD07B1
:100D6000CA07C807C607C307C107BE07BC07BA073B
:100D7000B707B507B207B007AE07AB07A907A707C4
:100D8000A407A207A0079D079B079907960794074A
:100D900092078F078D078B078807860784078207CE
:100DA0007F077D077B0778077607740772076F0751
:100DB0006D076B07690766076407620760075D07D1
:100DC0005B07590757075507520750074E074C074F
:100DD000490747074507430741073E073C073A07CE
:100DE00038073607340731072F072D072B07290748
:100DF00026072407220720071E071C071A071707C4
:100E00001507130711070F070D070B07080706073C
:100E1000040702070007FE06FC06FA06F706F506B9
:100E2000F306F106EF06ED06EB06E906E706E40633
:100E3000E206E006DE06DC06DA06D806D606D406AA
:100E4000D206D006CE06CB06C906C706C506C3061F
:100E5000C106BF06BD06BB06B906B706B506B30692
:100E6000B106AF06AD06AA06A806A606A406A20607
:100E7000A0069E069C069A0698069606940692067A
:100E800090068E068C068A068806860684068206EA
:100E900080067E067C067A0678067606740672065A
:100EA00070066E066B0669066706650663066106D0
:100EB0005F065D065B065906570655065306510642
:100EC0004F064D064B0649064706450643064106B2
:100ED0003F063D063B063906370635063306310622
:100EE0002F062D062B062906270625062306210692
:100EF0001F061D061B061906170615061306120601
:100F000010060E060C060A06080606060406020669
:100F10000006FE05FC05FA05F805F605F405F205E0
:100F2000F005EE05EC05EA05E805E605E405E20551
:100F3000E005DE05DC05DA05D805D605D405D205C1
:100F4000D005CE05CC05CA05C805C605C405C20531
:100F5000C005BE05BC05BA05B805B605B405B205A1
:100F6000B005AE05AC05AA05A805A605A405A20511
:100F7000A0059E059C059A05980596059405920581
:100F800090058E058C058A058805860584058205F1
:100F900080057E057C057A05780576057305710563
:100FA0006F056D056B0569056705650563056105D9
:100FB0005F055D055B055905570555055305510549
:100FC0004F054D054B0549054705450542054005BB
:100FD0003E053C053A053805360534053205300531
:100FE0002E052C052A0528052505230521051F05A5
:100FF0001D051B05190517051505130510050E051B
:101000000C050A0508050605040502050005FD0492
:10101000FB04F904F704F504F304F104EE04EC0412
:10102000EA04E804E604E404E104DF04DD04DB048C
:10103000D904D704D404D204D004CE04CC04CA0406
:10104000C704C504C304C104BE04BC04BA04B80484
:10105000B604B304B104AF04AD04AA04A804A60402
:10106000A404A1049F049D049B0498049604940482
:1010700092048F048D048B04880486048404810404
:101080007F047D047A0478047604730471046F0489
:101090006C046A0468046504630461045E045C040F
:1010A000590457045504520450044D044B04480499
:1010B0004604440441043F043C043A043704350424
:1010C000320430042D042B042804260423042104B4
:1010D0001E041C0419041604140411040F040C0447
:1010E0000A04070404040204FF03FC03FA03F703E1
:1010F000F503F203EF03ED03EA03E703E403E2037E
:10110000DF03DC03DA03D703D403D103CE03CC031C
:10111000C903C603C303C003BE03BB03B803B503BF
:10112000B203AF03AC03AA03A703A403A1039E0366
:101130009B039803950392038F038C038903860313
:10114000830380037C0379037603730370036D03C9
:101150006A036603630360035D035A035603530384
:1011600050034C034903460342033F033C03380347
:10117000350331032E032A032703230320031C0313
:101180001903150312030E030A0307030303FF02E7
:10119000FB02F802F402F002EC02E802E402E002D0
:1011A000DC02D802D402D002CC02C802C402C002BF
:1011B000BC02B802B302AF02AB02A602A2029E02B8
:1011C0009902950290028C02870282027E027902C5
:1011D00074026F026A02650261025C0256025102E9
:1011E0004C02470242023C02370232022C02270222
:1011F00021021B02150210020A020402FE01F8017C
:10120000F101EB01E501DE01D801D101CA01C30101
:10121000BC01B501AE01A7019F01980190018801B1
:1012200080017801700168015F0156014D014401A0
:101230003B01310127011D0113010801FD00F200EE
:10124000E600DA00CE00C100B400A60098008A00D3
:101250007A006A0059004800350022000D00F7FFAF
:1012600000002110422063308440A550C660E77022
:10127000088129914AA16BB18CC1ADD1CEE1EFF1CA
:101280003112100273325222B5529442F772D66272
:10129000399318837BB35AA3BDD39CC3FFF3DEE31A
:1012A0006224433420040114E664C774A4448554C2
:1012B0006AA54BB528850995EEE5CFF5ACC58DD56A
:1012C0005336722611163006D776F6669556B44612
:1012D0005BB77AA719973887DFF7FEE79DD7BCC7BA
:1012E000C448E5588668A778400861180228233862
:1012F000CCC9EDD98EE9AFF9488969990AA92BB90A
:10130000F55AD44AB77A966A711A500A333A122AB1
:10131000FDDBDCCBBFFB9EEB799B588B3BBB1AAB59
:10132000A66C877CE44CC55C222C033C600C411C01
:10133000AEED8FFDECCDCDDD2AAD0BBD688D499DA9
:10134000977EB66ED55EF44E133E322E511E700E51
:101350009FFFBEEFDDDFFCCF1BBF3AAF599F788FF9
:101360008891A981CAB1EBA10CD12DC14EF16FE1D9
:101370008010A100C230E320045025404670676011
:10138000B9839893FBA3DAB33DC31CD37FE35EF329
:10139000B1029012F322D232354214527762567261
:1013A000EAB5CBA5A89589856EF54FE52CD50DC579
:1013B000E234C324A01481046674476424540544B1
:1013C000DBA7FAB79987B8975FE77EF71DC73CD7C9
:1013D000D326F2369106B016576676761546345601
:1013E0004CD96DC90EF92FE9C899E9898AB9ABA919
:1013F0004458654806782768C018E1088238A32851
:101400007DCB5CDB3FEB1EFBF98BD89BBBAB9ABB68
:10141000754A545A376A167AF10AD01AB32A923AA0
:101420002EFD0FED6CDD4DCDAABD8BADE89DC98DB8
:10143000267C076C645C454CA23C832CE01CC10CF0
:101440001FEF3EFF5DCF7CDF9BAFBABFD98FF89F08
:10145000176E367E554E745E932EB23ED10EF01E40
:1014600000002100240027002A002D003000330056
:1014700001010000040107010A010000220025000B
:1014800028002B002E00310034000201000005016D
:1014900008010B01FF8111241FBECFEFD1E2DEBF97
:1014A000CDBF00E00CBF12E0A0E0B2E0EEEFFBE049
:1014B00001E00BBF02C007900D92AC34B107D9F721
:1014C00023E1ACE4B2E001C01D92A130B207E1F724
:1014D0001AE0CBE4DAE000E006C021970109802F92
:1014E000FE010E94B485CA34D10780E00807A9F73D
:1014F0000E9486690C94F0850C9400004F925F92D4
:101500006F927F928F929F92AF92BF92CF92DF9213
:10151000EF92FF920F931F93CF93DF93CDB7DEB778
:10152000CA59D2400FB6F894DEBF0FBECDBF80912E
:10153000061190910711863F08E0900709F434C224
:1015400008F446C08E32A9E09A0709F4E7C108F012
:10155000A8C08031E9E09E0709F49DC18632994018
:1015600009F070C28091730990917409892BB9F4C4
:1015700082E090E090937409809373091092620363
:101580001092610380910C118F5F09F481E08093C8
:101590000C118EE299E0909307118093061181E07F
:1015A000C656DD4F0FB6F894DEBF0FBECDBFDF913C
:1015B000CF911F910F91FF90EF90DF90CF90BF9050
:1015C000AF909F908F907F906F905F904F90089515
:1015D000843B28E0920709F4E0C008F4D5C0803CC1
:1015E00048E0940709F400C1843E984009F02AC2FB
:1015F000E091031140910211E41709F4E9C381E07D
:101600008E0F80930311F0E0EE5FFF4E8081809398
:10161000121120910E1130910F112827022E2295C0
:10162000207F2025032E322F22952F70022626950B
:1016300032272327220F220F220F202530930F114C
:1016400020930E11209110113091111190E001970B
:101650002817390708F46AC2782F80931311281BC2
:1016600031093093111120931011772309F460C2CE
:10167000672F713108F060E16093141186EF98E0F4
:10168000909307118093061180910311942F981B5A
:10169000961708F493C270911311761B709313116F
:1016A00096C1883309E0900709F4BEC08E33994093
:1016B00009F0C8C16091101170911111809103114E
:1016C00090910211981B562F23E0260F921708F4D1
:1016D00045C2662309F4F2C490E020910E113091C6
:1016E0000F11DC01AE5FBF4EFD0101964FEF460FBB
:1016F000840F911D8E5F9F4E41912427022E2295CB
:10170000207F2025032E322F22952F70022626952A
:1017100032272327220F220F220F2025E817F9074F
:1017200059F730930F1120930E11890181E0850F35
:10173000FD01E80FF11D808192E0950F9D01290FB9
:10174000311DF9013081A60FB11D9C91933009F430
:10175000F6C3943009F4BDC3923009F4BBC390E0E2
:10176000932B8017910709F4B7C360910C1185E0A2
:101770000E9402661092031110920211109207113A
:101780001092061181E00CCF892B09F05BC184EB2C
:1017900098E09093071180930611E09103118091D6
:1017A00002118E1709F4FBCE81E08E0F8093031196
:1017B000F0E0EE5FFF4E808181112DC00E94D75F67
:1017C000609308117093091180930A1190930B1183
:1017D0008FEF9FEF90930F1180930E1180EC98E0A4
:1017E000909307118093061140910211942FE0917C
:1017F0000311842F8E1B823008F42CC181E08E0FE0
:1018000080930311AE2FB0E0AE5FBF4E2C912093BA
:10181000EB0221110DC310920311109202111092CC
:10182000071110920611BBCE90910211E0910311A5
:101830009E1709F4FDC181E08E0FF0E0981B8093A4
:101840000311EE5FFF4E608120910E1130910F1158
:101850002627022E2295207F2025032E322F229527
:101860002F700226269532272327220F220F220FC0
:10187000202530930F1120930E1170E061507109F3
:1018800070931111609310112EE339E0309307111A
:101890002093061118CF40910211E0910311842F7B
:1018A0008E1B833008F464C2AE2FB0E0AE5FBF4E33
:1018B0009C91A1E0AE0FB0E0AE5FBF4E8C9123E0F3
:1018C0002E0F20930311EE5FF0E0EE5FFF4E3081AC
:1018D00060910E1170910F11933009F437C194305B
:1018E00009F41BC3923009F419C390E0932B6817D5
:1018F000790709F415C360910C1185E00E94026616
:101900001092031110920211109264051092630557
:10191000109207111092061181E042CE8091730956
:1019200090917409029709F43ACE8FEF9FEF90934C
:10193000230B8093220B80911C0B90911D0B282F61
:10194000291B2F3F09F404C1E1E0E80FA82FB0E004
:10195000A65EB54F12961C922E2F291B2F3F09F41D
:10196000F7C0F0E0E65EF54F26E0228322E0280F84
:10197000422F50E05093250B4093240B291B2F3FFF
:1019800009F4E6C08D5F80931C0BFA01E65EF54F0B
:1019900021E02283891B8F3F09F4DAC08091200B5C
:1019A0008F5F8093200B3BCF6091141180910311C6
:1019B00040910211942F981B961708F4FFC0709164
:1019C0001311761B70931311662309F44ECE009108
:1019D00063051091640520910E1130910F11D8010B
:1019E000AD59BC4F562F580FE82FF0E0EE5FFF4E79
:1019F00090819D932927022E2295207F2025032E5A
:101A0000322F22952F700226269532272327220F68
:101A1000220F220F20258F5F8513E6CF80930311BD
:101A20009093EB020F5F1F4F6150060F111D109333
:101A300064050093630530930F1120930E111092EB
:101A4000141113CE8FEF9FEF90930711809306111F
:101A500080E0A6CD0E94D75F009108111091091176
:101A600020910A1130910B11DC01CB01801B910BED
:101A7000A20BB30B8B3F9105A105B10508F48FCDE7
:101A800080910C112FEF3FEF3093230B2093220B0B
:101A900090911C0B20911D0B392F321B3F3F41F1C0
:101AA000E1E0E90FE0931C0BA92FB0E0A65EB54F73
:101AB00012961C923E2F321B3F3FD1F032E0390F7D
:101AC00030931C0BF0E0E65EF54F48E04283432F75
:101AD00050E05093250B4093240B321B3F3F41F0C5
:101AE0009D5F90931C0BFA01E65EF54F91E09283A7
:101AF0000E94466280911C0B90911D0B891B8F3FA9
:101B000009F425C28091220B9091230B8F3F2FEF78
:101B1000920731F09927FC01E65EF54F8FEF828343
:101B20008091200B8F5F8093200B75CEC90194CDDF
:101B30008091101190911111009709F00EC280E16F
:101B400099E09093071180930611A7CE8E7FCDCE9A
:101B50008091240B825080931C0B61CE0E94D75F32
:101B6000009108111091091120910A1130910B1167
:101B7000DC01CB01801B910BA20BB30B8B3F9105BA
:101B8000A105B10508F40BCD10910C1188E00E945D
:101B90009C62812F0E94466280911C0B90911D0BCC
:101BA000891B8F3F09F4D3C18091220B9091230BA5
:101BB0008F3FBFEF9B0709F0ADCFB2CF0E94D75F39
:101BC000009108111091091120910A1130910B1107
:101BD000DC01CB01801B910BA20BB30B8B3F91055A
:101BE000A105B10508F4DBCC10910C1188E00E942E
:101BF0009C62812F0E94466280911C0B90911D0B6C
:101C0000891B8F3F09F49DC18091220B9091230B7A
:101C10008F3F4FEF940731F09927FC01E65EF54FB7
:101C20008FEF82838091200B8F5F8093200B68CE93
:101C30000E94D75F009108111091091120910A119B
:101C400030910B11DC01CB01801B910BA20BB30B6C
:101C50008B3F9105A105B10508F4A1CC00910C11B1
:101C60004FEF5FEF80911C0B10911D0B982F911B74
:101C70009F3F11F40C945C1BE1E0E80FE0931C0B18
:101C8000A82FB0E0A65EB54F12961C929E2F911B16
:101C90009F3F11F40C947A1B92E0980F90931C0BC9
:101CA000F0E0E65EF54F28E02283292F30E0309304
:101CB000250B2093240B692F611B6F3F11F40C94AB
:101CC0007A1D93E0980F90931C0BD901A65EB54F37
:101CD000FF24F3941296FC921297692F70E0709390
:101CE000230B6093220B911B9F3F11F40C949A1BC2
:101CF0008C5F80931C0B665E754FFB01F282F82EA1
:101D0000F11A12969C9112979F5F12969C931297CC
:101D1000002309F4DCC1FB0192819F5F9283FFEFF6
:101D2000FF1611F40C94A71B91E0980F90931C0BD5
:101D3000482F50E0465E554FFA01028312968C916F
:101D400012978F5F12968C93911B9F3F09F4C6C127
:101D50008FEFDB0112968C938091200B8F5F809325
:101D6000200B109202119FEFE0E0F0E081E067CDE0
:101D70000E94D75F009108111091091120910A115A
:101D800030910B11DC01CB01801B910BA20BB30B2B
:101D90008B3F9105A105B10508F401CC10910C1100
:101DA00088E00E949C62812F0E94466280911C0BF9
:101DB00090911D0B891B8F3F09F4C3C08091220BAA
:101DC0009091230B8F3F6FEF960709F025CF2ACF15
:101DD0000E94D75F009108111091091120910A11FA
:101DE00030910B11DC01CB01801B910BA20BB30BCB
:101DF0008B3F9105A105B10508F4D1CB10910C11D1
:101E000088E00E949C62812F0E94466280911C0B98
:101E100090911D0B891B8F3F09F493C08091220B79
:101E20009091230B8F3F3FEF930709F0F5CEFACE49
:101E300060910E1170910F116227062E6295607FDE
:101E40006025072E762F62956F7006266695762799
:101E50006727660F660F660F602570930F116093FA
:101E60000E11EE5FE0930311A82FB0E0AE5FBF4EFE
:101E70008C9180930D11882309F4CDCC6827062E10
:101E80006295607F6025072E762F62956F7006261B
:101E9000669576276727660F660F660F6025709335
:101EA0000F1160930E1187FF02C00C94921B60917A
:101EB0000C1126130C948F1B80E092E0909311116B
:101EC0008093101184EE98E090930711809306118F
:101ED00093CB8E7F3E7F43CC60910D11633809F424
:101EE000D5C080910C119091EB02891354C08F5F83
:101EF00009F481E080930C115093041110920511A4
:101F0000862F90E0FC01E058F109E234F10508F475
:101F1000E9C081E00E9402667ECC8E7F3E7FE5CCE8
:101F2000241731F060E172E082E299E00E947B4F79
:101F300086E299E0909307118093061113CB8E7F70
:101F40000ECC8091240B825080931C0BD9CC8091B5
:101F5000240B825080931C0B5ECC209112112F3FDA
:101F6000B9F02091630530916405B9016F5F7F4F2F
:101F70007093640560936305F901EB5AFC4F168674
:101F800001979093111180931011892B09F4D7CDEB
:101F9000E091031197CF2FEF3FEF90911C0B6091D1
:101FA0001D0B492F461B4F3F11F40C94411DE1E0DE
:101FB000E90FE0931C0BA92FB0E0A65EB54F129677
:101FC0001C924E2F461B4F3F11F40C945C1D72E087
:101FD000790F70931C0BF0E0E65EF54F47E042830B
:101FE000472F50E05093250B4093240BE72FE61B1F
:101FF000EF3F11F40C94F41E73E0790F70931C0BF7
:10200000FA01E65EF54FDD24D394D282A72FB0E02B
:10201000B093230BA093220B761B7F3F11F40C94FB
:10202000691D9C5F90931C0B8D01065E154F780116
:10203000D8011296DC92792F761B12811F5F1283D2
:10204000882311F40C94821BD70112962C911297BD
:102050002F5F12962C937F3F11F40C94761D21E094
:10206000290F20931C0B092F10E0065E154FD80195
:1020700012968C9382818F5F8283261B2F3F11F4EF
:102080000C948A1B8FEFF70182834ACD81E0809305
:102090000C1150930411109205110E94C16580919A
:1020A000021190910311891B833008F0B4CB60E1D9
:1020B00072E082EB9AE00E947B4FADCB00910E1153
:1020C00010910F1190E0DC01AE5FBF4E2FCB50930B
:1020D000230B4093220BFFEFFF123ECE22502093A2
:1020E0001C0B3FCE8827EE58FF4F8F4F0C94B485C2
:1020F0000E94C784609300127093011280930212B1
:102100009093031221E0611574408105910511F44B
:102110000C94CC1F2093FF110E94C165C0CF0E9478
:10212000C78460931E1270931F12809320129093A5
:1021300021120E94D75FDC01CB010A96A11DB11DBF
:102140008093221290932312A0932412B09325120D
:102150000E94C165A4CF0E948E84809173099091E2
:102160007409892B11F00C94C41F60E172E08EE4B5
:1021700098E00E947B4F85E593E00E94DF5081113B
:10218000FACF8EEB0E949C6280911C0B90911D0BEC
:10219000891B8F3F11F40C94BD1F8091220B9091ED
:1021A000230B8F3FFFEF9F0731F09927FC01E65E7D
:1021B000F54F8FEF82838091200B8F5F8093200BF0
:1021C0000E94C1656CCF8DEB0E949C620CE719E008
:1021D000D8018C9111963C91119712962C911297DF
:1021E00013969C91C959DD4F8883C756D240C85970
:1021F000DD4F3883C856D240C759DD4F2883C956B2
:10220000D240C659DD4F9883CA56D2400E944662DA
:10221000C859DD4F8881C856D2400E944662C759CE
:10222000DD4F8881C956D2400E944662C659DD4FB3
:102230008881CA56D2400E944662F8018481358165
:1022400026819781C559DD4F8883CB56D240C4592A
:10225000DD4F3883CC56D240C359DD4F2883CD564D
:10226000D240C259DD4F9883CE56D2400E9446627A
:10227000C459DD4F8881CC56D2400E944662C35972
:10228000DD4F8881CD56D2400E944662C259DD4F53
:102290008881CE56D2400E944662D80118968C9111
:1022A000189719963C9119971A962C911A971B9684
:1022B0009C91C159DD4F8883CF56D240C059DD4F24
:1022C0003883C057D240CF58DD4F2883C157D24002
:1022D000CE58DD4F9883C257D2400E944662C05903
:1022E000DD4F8881C057D2400E944662CF58DD4FF3
:1022F0008881C157D2400E944662CE58DD4F888106
:10230000C257D2400E944662005F1F4FB9E00C3BAB
:102310001B0709F05DCF80911C0B90911D0B891B51
:102320008F3F11F40C94621D8091220B9091230B2E
:102330008F3FEFEF9E0731F09927FC01E65EF54FE6
:102340008FEF82838091200B8F5F8093200BA7CE2D
:102350008CEB0E949C6208E512E0D80114968C91E7
:10236000149715963C91159716962C9116971796DB
:102370009C91CD58DD4F8883C357D240CC58DD4F58
:102380003883C457D240CB58DD4F2883C557D2403D
:10239000CA58DD4F9883C657D2400E944662CC5837
:1023A000DD4F8881C457D2400E944662CB58DD4F32
:1023B0008881C557D2400E944662CA58DD4F888145
:1023C000C657D2400E944662F80180853185228539
:1023D0009385C958DD4F8883C757D240C858DD4F11
:1023E0003883C857D240C758DD4F2883C957D240D9
:1023F000C658DD4F9883CA57D2400E944662C858DB
:10240000DD4F8881C857D2400E944662C758DD4FD1
:102410008881C957D2400E944662C658DD4F8881E4
:10242000CA57D2400E944662D8011C968C911C97D4
:102430001D963C911D971E962C911E971F969C9160
:10244000C558DD4F8883CB57D240C458DD4F388301
:10245000CC57D240C358DD4F2883CD57D240C25805
:10246000DD4F9883CE57D2400E944662C458DD4F5C
:102470008881CC57D2400E944662C358DD4F888184
:10248000CD57D2400E944662C258DD4F8881CE5758
:10249000D2400E944662005F1F4FB2E0083E1B0719
:1024A00009F05BCF38CF81E080931D120E94C16597
:1024B000F6CD0E94C7842B013C010E94C7844B01CA
:1024C0005C010E94C7846B017C010E94C466082FD6
:1024D0000E94C466182F0E94C4664092F011509268
:1024E000F1116092F2117092F3118092F4119092B6
:1024F000F511A092F611B092F711C092F811D09296
:10250000F911E092FA11F092FB110093FC11109373
:10251000FD118093FE110E94C165C1CD0E945283BE
:102520007C010E9452838C010E945283F092EB1135
:10253000E092EA111093ED110093EC119093EF11DA
:102540008093EE110E94C165AACD0E94C4668633B5
:1025500008F0865390917B00282F2870977F922B4C
:1025600090937B008770806480937C0080917A00D8
:10257000806480937A0080917A0086FDFCCF109170
:1025800078000091790088EB0E949C62812F90E096
:10259000902B092E000CAA0BBB0BC158DD4F888372
:1025A0009983AA83BB83CF57D2400E944662C0580A
:1025B000DD4F8881C058D2400E944662CF57DD4F20
:1025C0008881C158D2400E944662CE57DD4F888133
:1025D000C258D2400E94466280911C0B90911D0B04
:1025E000891B8F3F11F40C94621D8091220B9091F6
:1025F000230B8F3F2FEF920709F09ECEA3CE0E94B0
:10260000C466182F0E94C466082F61E0812F0E94C3
:10261000275D602F812F0E949E5C0E94C1653FCD87
:102620000E94C466182F62E00E94275D212F30E0CF
:10263000F901EA5AFD4F8491F901E05FFD4F1491D1
:10264000F901E653FE4F0491002311F40C947C1F12
:1026500081110E94365CE02FF0E0EE0FFF1FE05585
:10266000FE4FA591B491EC91E12391E080E009F453
:1026700090E0092F182F86EB0E949C62C801110F71
:10268000AA0BBB0BCD57DD4F88839983AA83BB83ED
:10269000C358D2400E944662CC57DD4F8881C4584F
:1026A000D2400E944662CB57DD4F8881C558D24048
:1026B0000E944662CA57DD4F8881C658D2400E94A8
:1026C000466280911C0B90911D0B891B8F3F11F46A
:1026D0000C94621D8091220B9091230B8F3F1FEF72
:1026E000910709F029CE2ECE81E0809396120E94A8
:1026F000C165D5CC0E94C466082F0E94C466182FFD
:10270000013011F40C94B61F1093CF0F0E94C165D5
:10271000C6CC80EB0E949C62E090140A8091150A5E
:10272000E81A19E01E1510F40C943B1FEE2009F472
:1027300033C6F12C0091150A81E0800F8093150AB1
:102740000F7010E0000F111F000F111F0C52164FD9
:10275000D8018C9111969C91C557DD4F8883CB5839
:10276000D240C457DD4F9883CC58D2400E94466275
:10277000C457DD4F8881CC58D2400E944662F80190
:1027800082819381C357DD4F8883CD58D240C25791
:10279000DD4F9883CE58D2400E944662C257DD4F2B
:1027A0008881CE58D2400E944662F394FE1410F203
:1027B000F3C5CE01865A9D4F0E940185CE018B5AEA
:1027C0009D4F0E9401850E948E844B015C01CE01C9
:1027D000805B9D4F0E940185CE01855B9D4F0E94CD
:1027E0000185CE018A5B9D4F0E9401850E948E84E7
:1027F0006B017C01CE018F5B9D4F0E940185CE0154
:102800008F5F9D4F0E940185CE0101960E94018538
:102810000E94528325E0FE01E65AFD4FA1EDBFE084
:1028200001900D922A95E1F725E0FE01EB5AFD4F4C
:10283000A6EDBFE001900D922A95E1F78092DB0FA3
:102840009092DC0FA092DD0FB092DE0F25E0FE012A
:10285000E05BFD4FAFEDBFE001900D922A95E1F7EF
:1028600025E0FE01E55BFD4FA4EEBFE001900D9277
:102870002A95E1F725E0FE01EA5BFD4FA9EEBFE0F6
:1028800001900D922A95E1F7C092EE0FD092EF0FD2
:10289000E092F00FF092F10F25E0FE01EF5BFD4FAB
:1028A000A2EFBFE001900D922A95E1F725E0FE012D
:1028B000EF5FFD4FA7EFBFE001900D922A95E1F782
:1028C00025E0FE013196ACEFBFE001900D922A9514
:1028D000E1F79093E3118093E2110E94C165DFCB91
:1028E0000E94C466C82E1092EB02882311F40C9447
:1028F000A5200E94C4668E010F5F1D4FF8018193D1
:102900007F0181E08093EB02DD24D3940DC00E940F
:10291000C466D7018D937D01D394D092EB02B0E4CD
:10292000DB1611F40C94491FDC10F1CF9E012F5FD0
:102930003F4F790180E4D9011D928A95E9F7DC2C9B
:102940004D2D50E0B801C7010E94E1850E94D75F7C
:102950006093A8097093A9098093AA099093AB0981
:10296000DD24DA9488248394912CF7E5AF2E0E941D
:10297000D75F609398097093990980939A0990930F
:102980009B098091530390915403892B09F0E7C66A
:1029900085E593E00E94FB5C882311F40C946D1E86
:1029A0000E94D75F409098095090990960909A09C9
:1029B00070909B09DC01CB0184199509A609B70920
:1029C00040919C0950919D0960919E0970919F09C9
:1029D0004F5F5F4F6F4F7F4F40939C0950939D090E
:1029E00060939E0970939F094091A0095091A1099D
:1029F0006091A2097091A309480F591F6A1F7B1F9C
:102A00004093A0095093A1096093A2097093A30970
:102A10004090A4095090A5096090A6097090A7095C
:102A2000481659066A067B0608F0A1CF8093A409D0
:102A30009093A509A093A609B093A70998CF0E94E7
:102A400052838C010E94C4661093CD090093CC0977
:102A50008093CE090E94C16522CB8FEA0E949C62BE
:102A60002091FD123091FE12CE012115310511F099
:102A70000C94591F805093419A83898389819A814C
:102A8000092E000CAA0BBB0B89839A83AB83BC83F2
:102A90000E9446628A810E9446628B810E94466241
:102AA0008C810E94466280911C0B90911D0B891BAA
:102AB0008F3F11F40C94621D8091220B9091230B97
:102AC0008F3F0FEF900709F037CC3CCC0E94C466D3
:102AD000182F0E94C466082F0E94C466E82EF12CAD
:102AE000FE2CEE24E00EF11C123030F060E172E0BA
:102AF0008FE796E00E947B4FC7010F964F9730F00B
:102B000060E172E080E896E00E947B4FE12FF0E008
:102B1000EE0FFF1FE352FE4EF282E1820E94C1657A
:102B2000BECA0E9452837C010E94C466182F0E9474
:102B30005283F092CD09E092CC091093CE09909384
:102B4000D3098093D2090E94C165A9CA0E94C466B4
:102B5000182F0E94528321E030E030932F0F2093F2
:102B60002E0F10933A0F9093310F8093300F812FD7
:102B70000E940F8510FF02C00C94D21F899A11FF8A
:102B800002C00C94CF1F8F9880910B0112FF02C0DE
:102B90000C94601F8D7F80930B01439813FF02C03C
:102BA0000C942820169880916F00846080936F00A9
:102BB00081E080933B0F0E94C16571CA0E945283DD
:102BC000009711F40C94661F2FB7F8949093310F6F
:102BD0008093300F2FBFF4CA0E94C46691E0811128
:102BE00001C090E09093C2090E94C16558CA0E943A
:102BF000D75F609388097093890980938A099093BD
:102C00008B098E010F5F1F4F780110E30FEF0E94B9
:102C1000D75F609378097093790980937A099093CC
:102C20007B0920E030E0A90161E185E593E00E94A5
:102C30000860882309F461C71093550380915803F5
:102C4000882321F085E593E00E94D15C80915C03AC
:102C5000815080935C03882311F40C940D1F0E9413
:102C6000D75F8090780990907909A0907A09B09008
:102C70007B09DC01CB0188199909AA09BB0940919C
:102C80007C0950917D0960917E0970917F094F5FA9
:102C90005F4F6F4F7F4F40937C0950937D09609346
:102CA0007E0970937F09409180095091810960915C
:102CB000820970918309480F591F6A1F7B1F409337
:102CC00080095093810960938209709383098090F1
:102CD000840990908509A0908609B090870988168C
:102CE0009906AA06BB0608F092CF809384099093B8
:102CF0008509A0938609B093870989CF0E94C4668D
:102D0000182F0E94C466282F30E0322F2227C901D5
:102D1000810F911D90930102809300020E94C4666E
:102D2000843611F00C94761F05E111E10E94528364
:102D3000D8018D939D938D01B1E10D3D1B07B1F736
:102D400061E084EA0E940266AAC90E94C466082F54
:102D500010E00115110511F40C94D51F809111128A
:102D600090911212019731F060E172E086E496E0F2
:102D70000E947B4F83E090E0909312128093111297
:102D800010931412009313128FEF80930C12109271
:102D9000101210920F1210920E1210920D128FE05C
:102DA0000E940F85109216121092151280E290E088
:102DB0009093CB098093CA0980E094E09093C50971
:102DC0008093C4091092C3091092D0091092CF09C0
:102DD0000130110511F40C94132080ED97E09093CD
:102DE00089008093880080916F00826080936F00DB
:102DF000E7C98091111290911212029734F060E1AC
:102E000072E085EE95E00E947B4F1092E4110E94E3
:102E1000BC3881E090E090931212809311129FB71A
:102E2000F894E091E902F091EA0220818091E802B1
:102E3000822B80839FBF80E094E0A0E0B0E080938D
:102E4000001290930112A0930212B09303120E94F9
:102E5000C16525C987E90E949C628091DD110E94AD
:102E6000466259CA1092EC121092EB128091E9124C
:102E70009091EA12892B19F51092C20F1092C30F8C
:102E80001092C40F1092C50F8091160A9091170AE4
:102E9000919581959109092E000CAA0BBB0B80938B
:102EA000C60F9093C70FA093C80FB093C90F10928D
:102EB000CA0F1092CB0F1092CC0F1092CD0F109220
:102EC000EA121092E912109201108091EB12909187
:102ED000EC12892B19F51092C20F1092C30F1092A9
:102EE000C40F1092C50F8091160A9091170A919500
:102EF00081959109092E000CAA0BBB0B8093C60F7C
:102F00009093C70FA093C80FB093C90F1092CA0F28
:102F10001092CB0F1092CC0F1092CD0F1092EC129A
:102F20001092EB1280916F008D7F80936F008091E3
:102F30006F008B7F80936F0081E090E0909312127E
:102F40008093111210921412109213120E94BC3826
:102F5000109218121092191210921A1210921B123B
:102F600060E070E089E00E94685D0E94C16597C8DA
:102F70000E94C466109218121092191210921A121E
:102F800010921B12682F70E089E00E94685D0E9419
:102F9000C16585C80E94C7846B017C0180911112B4
:102FA00090911212019731F060E172E087EB96E0A8
:102FB0000E947B4F81E090E0A0E0B0E0809304129B
:102FC00090930512A0930612B0930712C0920812B4
:102FD000D0920912E0920A12F0920B1282E090E075
:102FE00090931212809311120E94C16558C887E80D
:102FF0000E949C62BE016F5F7F4F85E593E00E9457
:103000002D64882349F08981807C11F40C945C2024
:10301000803411F40C94312080E090E0DC010197C1
:10302000A109B109C957DD4F88839983AA83BB835E
:10303000C758D2400E944662C857DD4F8881C858A1
:10304000D2400E944662C757DD4F8881C958D2409E
:103050000E944662C657DD4F8881CA58D24021CDB2
:103060000E94C466182F0E94528340E0BC01812F49
:103070000E94D2620E94C16512C88EE90E949C62C1
:103080008091EB129091EC12CB56DD4F8883C5599D
:10309000D240CA56DD4F9883C659D2400E9446623C
:1030A000CA56DD4F8881C659D2400E94466280913F
:1030B000E9129091EA12C956DD4F8883C759D24070
:1030C000C856DD4F9883C859D2400E944662C85600
:1030D000DD4F8881C859D2400E944662C756DD4FF5
:1030E00019821882C959D24080E00E944662C656B1
:1030F000DD4F8881CA59D240E2CA8DE90E949C62A4
:103100008091180A9091190AC157DD4F8883CF58D2
:10311000D240C057DD4F9883C059D2400E944662CA
:10312000C057DD4F8881C059D2400E9446628091CD
:10313000160A9091170ACF56DD4F8883C159D240A5
:10314000CE56DD4F9883C259D2400E944662CE5679
:10315000DD4F8881C259D2400E944662CD56DD4F74
:1031600019821882C359D24080E00E944662CC5630
:10317000DD4F8881C459D2402DCA0E942D5B109228
:10318000DD1110921212109211120E94C1650C945E
:103190004F1088E90E949C62E0915602F09157021C
:1031A000908180915502982381E009F080E00E948F
:1031B00046628091ED123091EE122091EF129091C3
:1031C000F012CB5ADD4F8883C555D240CA5ADD4F25
:1031D0003883C655D240C95ADD4F2883C755D240DF
:1031E000C85ADD4F9883C855D2400E944662CA5AD9
:1031F000DD4F8881C655D2400E944662C95ADD4FD4
:103200008881C755D2400E944662C85ADD4F8881E6
:10321000C855D2400E944662E0915302F091540298
:10322000908180915202982381E009F080E00E9411
:1032300046628091F1123091F2122091F312909136
:10324000F412C65ADD4F8883CA55D240C55ADD4FA5
:103250003883CB55D240C45ADD4F2883CC55D24059
:10326000C35ADD4F9883CD55D2400E944662C55A5D
:10327000DD4F8881CB55D2400E944662C45ADD4F53
:103280008881CC55D2400E944662C35ADD4F888166
:10329000CD55D2400E944662E0915002F091510219
:1032A000908180914F02982381E009F080E00E9494
:1032B00046628091F5123091F6122091F7129091AA
:1032C000F812C15ADD4F8883CF55D240C05ADD4F26
:1032D0003883C056D240CF59DD4F2883C156D240E3
:1032E000CE59DD4F9883C256D2400E944662C05AE2
:1032F000DD4F8881C056D2400E944662CF59DD4FD3
:103300008881C156D2400E944662CE59DD4F8881E5
:10331000C256D2400E944662E0914D02F0914E02A8
:10332000908180914C02982381E009F080E00E9416
:1033300046628091F5123091F6122091F712909129
:10334000F812CD59DD4F8883C356D240CC59DD4F9A
:103350003883C456D240CB59DD4F2883C556D2405E
:10336000CA59DD4F9883C656D2400E944662CC5956
:10337000DD4F8881C456D2400E944662CB59DD4F52
:103380008881C556D2400E944662CA59DD4F888165
:10339000C656D2400E94466280911C0B90911D0B34
:1033A000891B8F3F09F48EC38091220B9091230BD0
:1033B0008F3FFFEF9F0711F00C949C110C94A2110A
:1033C0000E9460830C944F108FE90E949C62809150
:1033D000ED123091EE122091EF129091F012CF5B2E
:1033E000DD4F8883C154D240CE5BDD4F3883C25459
:1033F000D240CD5BDD4F2883C354D240CC5BDD4F40
:103400009883C454D2400E944662CE5BDD4F8881CF
:10341000C254D2400E944662CD5BDD4F8881C354C6
:10342000D2400E944662CC5BDD4F8881C454D240BA
:103430000E9446628091F1123091F2122091F312B3
:103440009091F412CA5BDD4F8883C654D240C95BA9
:10345000DD4F3883C754D240C85BDD4F2883C85442
:10346000D240C75BDD4F9883C954D2400E94466268
:10347000C95BDD4F8881C754D2400E944662C85B59
:10348000DD4F8881C854D2400E944662C75BDD4F41
:103490008881C954D2400E9446628091F5123091D1
:1034A000F6122091F7129091F812C55BDD4F8883D8
:1034B000CB54D240C45BDD4F3883CC54D240C35B85
:1034C000DD4F2883CD54D240C25BDD4F9883CE546C
:1034D000D2400E944662C45BDD4F8881CC54D2400A
:1034E0000E944662C35BDD4F8881CD54D2400E946A
:1034F0004662C25BDD4F8881CE54D2400E94466254
:103500008091F9123091FA122091FB129091FC12E5
:10351000C05BDD4F8883C055D240CF5ADD4F388322
:10352000C155D240CE5ADD4F2883C255D240CD5A24
:10353000DD4F9883C355D2400E944662CF5ADD4F7B
:103540008881C155D2400E944662CE5ADD4F8881A3
:10355000C255D2400E944662CD5ADD4F8881C35584
:10356000D2409FCA82EA0E949C628091C609309133
:10357000C7092091C8099091C909CF5FDD4F8883A1
:10358000C150D240CE5FDD4F3883C250D240CD5FB4
:10359000DD4F2883C350D240CC5FDD4F9883C450A9
:1035A000D2400E944662CE5FDD4F8881C250D24039
:1035B0000E944662CD5FDD4F8881C350D2400E9499
:1035C0004662CC5FDD4F8881C450D24048CC0E9417
:1035D0008E842B013C010E948E844B015C010E9471
:1035E0008E846B017C010E948E840E948E8481E017
:1035F0008093DD114092ED125092EE126092EF1224
:103600007092F0128092F1129092F212A092F31244
:10361000B092F412C092F512D092F612E092F71224
:10362000F092F8120C94E01081EC0E949C6281E010
:103630000E94466287E00E94466200911D0BE09066
:103640001C0B8091220B9091230B1E2D2091240B9B
:103650003091250B3327A8E0B2E05E2D501B265E8B
:10366000354FFF24F3941DC0BC017727665E754F6C
:10367000FB01D280D394D2825F3F51F011E01E0D46
:10368000EE2DF0E0E65EF54F4283E12E512F501B08
:10369000F90142814F5F4283F2E0AF30BF0709F486
:1036A000A5C34D918F3F6FEF960709F404C34111F5
:1036B000DBCF8FEF9FEFF0CF682F70E02091240BCE
:1036C0003091250B7093230B6093220BD901BB27FC
:1036D000A65EB54F12969C9112979F5F12969C938F
:1036E0001297002309F41EC5FF24FA94665E754FF5
:1036F0000C948B0E6E2F70E02091240B3091250BD3
:103700008E2FE0CF3093230B2093220B7F3F11F0BD
:103710000C94900D425040931C0B0C940B0C87E0C2
:103720000C94B80B28E339E030930711209306116D
:103730000C94180C82E012968C931297002309F4D3
:10374000FEC4FB01E65EF54F82818F5F8283129695
:103750008C9112978F5F12968C930C946E1085E566
:1037600093E00E94FB5C81111BC920E030E0A901BD
:103770006DE085E593E00E940860811109C08FEF3C
:103780008EBD0DB407FEFDCF8EB5882309F4C9C0E8
:103790006091590380911C0B90911D0B282F291BC0
:1037A0002F3F41F1E1E0E80FE0931C0BA82FB0E0C0
:1037B000A65EB54F12961C922E2F291B2F3FD1F0DB
:1037C00022E0280F20931C0BF0E0E65EF54F33E07B
:1037D0003283422F50E05093250B4093240B291B3A
:1037E0002F3F41F08D5F80931C0BFA01E65EF54F91
:1037F00081E0828380911C0BA82FB0E0B093230B53
:10380000A093220B282F291B2F3F09F4ACC38F5FF5
:1038100080931C0BA65EB54F81E012968C93129795
:103820002091240B3091250BF901FF27E65EF54F1F
:1038300082818F5F828312968C9112978F5F12968E
:103840008C9380911C0B482F491B4F3F61F041E046
:10385000480F40931C0BA82FB0E0A65EB54F8CE03C
:1038600012968C93842F42814F5F42834091220BAA
:103870005091230BDA01BB27A65EB54F12967C91BF
:1038800012977F5F12967C93782F791B7F3F59F0B8
:1038900071E0780F70931C0BA82FB0E0A65EB54FB7
:1038A00089E212968C9382818F5F82834F3F5F4FB4
:1038B00009F440C3662309F42DC3E090220BF09075
:1038C000230B87011127065E154FD80112968C91A4
:1038D00012978F5F12968C9380911C0B482F491B77
:1038E0004F3F59F041E0480F40931C0BA82FB0E028
:1038F000A65EB54F12966C93842F42814F5F428330
:10390000891B8F3F09F412C3EF20E09419F08FEF69
:10391000F80182838091200B8F5F8093200B0E949F
:10392000154E80915803882321F085E593E00E948D
:10393000D15C109254031092530385E080935D0391
:103940000E94D75F009198091091990920919A09D6
:1039500030919B09DC01CB01801B910BA20BB30BB7
:1039600000919C0910919D0920919E0930919F0919
:103970000F5F1F4F2F4F3F4F00939C0910939D09DE
:1039800020939E0930939F090091A0091091A109ED
:103990002091A2093091A309080F191F2A1F3B1F6C
:1039A0000093A0091093A1092093A2093093A309C1
:1039B0000091A4091091A5092091A6093091A709A9
:1039C000081719072A073B0740F48093A40990932E
:1039D000A509A093A609B093A7090E94D75F0091FB
:1039E000A8091091A9092091AA093091AB09DC011D
:1039F000CB01801B910BA20BB30B0091AC09109172
:103A0000AD092091AE093091AF090F5F1F4F2F4FC5
:103A10003F4F0093AC091093AD092093AE0930934A
:103A2000AF090091B0091091B1092091B20930910C
:103A3000B309080F191F2A1F3B1F0093B0091093E9
:103A4000B1092093B2093093B3090091B4091091E0
:103A5000B5092091B6093091B709081719072A0747
:103A60003B0740F48093B4099093B509A093B6093D
:103A7000B093B7098AEA0E949C6281E00E94466284
:103A80008BCC4091240B5091250BA92FB0E0B09323
:103A9000230BA093220BFA01FF27E65EF54F22814C
:103AA0002F5F2283882309F455C37FEF8D01065EC3
:103AB000154F78010C9424104091240B5091250B44
:103AC0009E2FE3CF8091240B825080931C0B0C948B
:103AD0004F1092E09283882309F42CC3A65EB54F61
:103AE00012968C9112978F5F12968C9382818F5FC2
:103AF000828310CEB901892FE5CD40E052E0B701B5
:103B000085E593E00E948660882309F497C8809138
:103B100058038111E6C185E080935C030E94D75F62
:103B2000009178091091790920917A0930917B09E7
:103B3000DC01CB01801B910BA20BB30B00917C0924
:103B400010917D0920917E0930917F090F5F1F4FF1
:103B50002F4F3F4F00937C0910937D0920937E09DE
:103B600030937F0900918009109181092091820989
:103B700030918309080F191F2A1F3B1F00938009EA
:103B8000109381092093820930938309009184095D
:103B90001091850920918609309187090817190726
:103BA0002A073B0740F48093840990938509A093EA
:103BB0008609B09387090E94D75F00918809109108
:103BC000890920918A0930918B09DC01CB01801B86
:103BD000910BA20BB30B00918C0910918D092091D0
:103BE0008E0930918F090F5F1F4F2F4F3F4F00936A
:103BF0008C0910938D0920938E0930938F090091C1
:103C00009009109191092091920930919309080F20
:103C1000191F2A1F3B1F00939009109391092093AD
:103C2000920930939309009194091091950920917C
:103C3000960930919709081719072A073B0740F49E
:103C40008093940990939509A0939609B09397094E
:103C50008BEA0E949C6281E00E9446626FE370E002
:103C6000C7010E94F285182F0E944662112379F045
:103C70000FEF010F10E00F5F1F4F0E0D1F1DD7013B
:103C80008D917D010E944662E016F106C1F7809198
:103C90001C0B90911D0B891B8F3F09F413CF809152
:103CA000220B9091230B8F3FBFEF9B0711F00C94D9
:103CB0009C110C94A2118E2D90E05F3F49F011E011
:103CC0001E0DFC01E65EF54FF282E12E512F501BD6
:103CD000F90162816F5F6283EACC20E030E0A901E4
:103CE00068E185E593E00E9408608111C8C0D701B2
:103CF00080E090E02D91E92FFF27E227EE0FFF1FD4
:103D0000E05AFD4E25913491982F882782279327DA
:103D1000A017B10779F72EEF2EBD0DB407FEFDCF2A
:103D200029812EBD2A81FE0133960DB407FEFDCFF9
:103D30002EBD0E171F0711F02191F7CF0DB407FE0E
:103D4000FDCF9EBD0DB407FEFDCF8EBD0DB407FEA9
:103D5000FDCFDEBC0DB407FEFDCF8EB580935903B9
:103D60008F71853009F4CCC0A0925503809158031F
:103D7000882321F085E593E00E94D15C80915D036A
:103D8000815080935D0381110C94D014C09059032D
:103D9000B090550383E00E949C628CE00E944662D2
:103DA0008B2D0E9446628C2D0E94466280911C0BD6
:103DB00090911D0B891B8F3F09F4AEC18091220B9E
:103DC0009091230B8F3F3FEF930729F09927FC0138
:103DD000E65EF54FD2828091200B8F5F8093200B9F
:103DE0000E94154E0C94D014972F4FCE9093230B16
:103DF0008093220B10931C0B5F3F09F463CE8F3F1F
:103E00000FEF900711F40C94A211FC01FF27E65E5E
:103E1000F54F8FEF82830C94A211D0905903C0907C
:103E2000550383E00E949C6289E00E9446628C2DCB
:103E30000E9446628D2D0E94466280911C0B9091DB
:103E40001D0B891B8F3F09F406C18091220B9091B5
:103E5000230B8F3F2FEF920729F09927FC01E65E95
:103E6000F54F02838091200B8F5F8093200B0E947F
:103E7000154E0C942F169AE0E92E0C94991320916C
:103E8000590342E36CE083E00E9455640E94154EA2
:103E90002ECFFE0131967F01DF01ED2D1D92EA95B7
:103EA000E9F7FFE3FC1510F40C94A014DC2C0C943F
:103EB000A0140196821B930B9A8389830C943E1560
:103EC000826080930B01439A0C94CE1510923B0FA5
:103ED0000E942D5B80916F008B7F80936F000C940C
:103EE000E01085E593E00E94D15C15CE62E084EAA3
:103EF0000E9402660C944F1000E010E00C943B13FB
:103F000085E593E00E94E25C909254038092530313
:103F10000C94D0144FEF5FEF5093230B4093220B80
:103F200080911C0B891B8F3F09F0F4CC2250209309
:103F30001C0BF5CC80911C0B482F50E05093230BA9
:103F40004093220B782F791B7F3F49F08F5F80933E
:103F50001C0BDA01A65EB54F81E012968C9382812C
:103F60008F5F8283A7CCA65EB54F5ACC682F70E0D6
:103F70008AE00E94685D0C9484138091240B825027
:103F800080931C0B0C94E01060E172E08DE498E0EB
:103F90000E947B4F0C94B51020E00C948A108F9AED
:103FA0000C94C41589980C94BF1560E172E085E407
:103FB00096E00E947B4F809111129091121201970E
:103FC00011F00C94B41683E090E090931212809359
:103FD000111210921412109213128FEF80930C1280
:103FE0001092101210920F1210920E1210920D12C7
:103FF0008FE00E940F85109216121092151280E227
:1040000090E09093CB098093CA0980E094E090936C
:10401000C5098093C4091092C3091092D009109267
:10402000CF090C94ED1610922F0F10922E0F80EDE9
:1040300097E090938B0080938A00909389008093FF
:10404000880080916F00846080936F000C94E01072
:10405000169A0C94D3158091240B825080931C0BDC
:1040600006CF8A8590E0A0E0B0E0AC01BD014F5FD3
:104070005F4F6F4F7F4F898590E0A0E0B0E0BA2F8F
:10408000A92F982F8827840F951FA61FB71F488533
:104090004F7350E060E070E0BA0155274427840F69
:1040A000951FA61FB71F2AE0880F991FAA1FBB1FC5
:1040B0002A95D1F70C940F188F81837090E09C01A2
:1040C000322F2227330F330F8885F4E08F9FC001F2
:1040D0001124822B932B29852295269526952370D2
:1040E000822B0196A0E0B0E04A854370440F2B85F7
:1040F00027FB222720F9422B2E812F7030E0240F3E
:10410000311D2750310904C0880F991FAA1FBB1FFA
:104110002A95D2F70C940F188091240B825080932B
:104120001C0B5ECE8FEF9FEF9093230B8093220B9F
:104130000C946E103093230B2093220BEBCA5093F8
:10414000230B4093220B0C946E108E010F5F1D4FBA
:104150000C9496148FEF9FEF9093230B8093220B78
:10416000D9CACF92DF92EF92FF920F931F93CF9312
:10417000DF938091261290912712863A23E09207CE
:1041800011F40C94532E08F45DC18439E4E09E07C9
:1041900009F42FC608F082C18D3F23E0920711F485
:1041A0000C944B2D08F01CC58E3CF3E09F0709F4DE
:1041B00067C010F40C946F31873E23E0920711F42E
:1041C0000C94C42C843FE3E09E0711F40C94F32C70
:1041D0008B3D934011F00C94A72C80919512815047
:1041E00080939512882309F423C12091A312309162
:1041F000A4128091320F9091330FA091340FB0919F
:10420000350F820F931FA11DB11D8093320F909324
:10421000330FA093340FB093350FE0912C0F81E052
:104220008E0F80932C0FF0E0EE0FFF1FEE0FFF1F9D
:10423000E45DF44F8091A1129091A212A091A3127B
:10424000B091A41280839183A283B38380913712AB
:104250009091381201979093381280933712892BDE
:1042600011F40C94B02C1092A6121092A51281E0B9
:104270008093AD128EEC93E09093271280932612D8
:104280000E94FA668111D1C18091A012E091B4120E
:10429000F091B512882311F40C947034A081209110
:1042A0009712309198124091991250919A12B0E061
:1042B0000E94C885DC01CB01CAE0B695A795979509
:1042C0008795CA95D1F79093A4128093A3129091E9
:1042D00032129093A21280913112882311F40C941F
:1042E000643340914D1250914E1260914F12709173
:1042F000501277FF02C00C94C337009175121091D1
:1043000076122091771230917812400F511F621F60
:10431000731F40934D1250934E1260934F1270933F
:10432000501291609093A212813011F00C9464337A
:104330004091551250915612609157127091581237
:1043400077FF02C00C94F13500917D1210917E121E
:1043500020917F1230918012400F511F621F731FF6
:1043600040935512509356126093571270935812FF
:104370009091A21294609093A212833039F14091EF
:10438000591250915A1260915B1270915C1277FF32
:1043900002C00C9407360091811210918212209174
:1043A000831230918412400F511F621F731F40937C
:1043B000591250935A1260935B1270935C12909151
:1043C000A21298609093A212843029F180915D121C
:1043D00090915E12A0915F12B0916012B7FF02C07F
:1043E0000C9400374091851250918612609187128B
:1043F00070918812840F951FA61FB71F80935D12BE
:1044000090935E12A0935F12B09360128091A212FB
:1044100080618093A2128BED93E09093271280939A
:104420002612809195128150809395128111DDCED4
:1044300080912C0F90912D0F891B80958093951260
:1044400081E0F4C0843AF2E09F0711F40C946E2BE3
:1044500008F0F5C08138E2E09E0711F40C94892A37
:1044600008F427C78D38F2E09F0711F40C94EC2A6A
:1044700010F40C94CD31853922E0920711F40C949C
:104480002E2B8939E2E09E0711F40C944A2B8139D6
:10449000924011F00C94A72C0C940D2B873DE4E076
:1044A0009E0711F40C94823208F04BC5813B24E046
:1044B000920709F476C010F40C946331813CE4E077
:1044C0009E07E1F08D3CF4E09F0711F40C944E320E
:1044D0008C3B944011F00C94A72C0E94FA66811139
:1044E000A4C0E091B412F091B51280818093A21221
:1044F00081EC94E09093271280932612809195127C
:10450000815080939512882309F492CF2091A312B1
:104510003091A4128091320F9091330FA091340FFB
:10452000B091350F820F931FA11DB11D8093320FE3
:104530009093330FA093340FB093350FE0912C0F6D
:1045400081E08E0F80932C0FF0E0EE0FFF1FEE0F37
:10455000FF1FE45DF44F8091A1129091A212A091EF
:10456000A312B091A41280839183A283B38380911C
:1045700091129091921201979093921280939112BE
:10458000892B11F40C949D321092A6121092A51250
:1045900081E08093AD1281EB94E090932712809399
:1045A00026120E94FA66811140C0E091B412F09187
:1045B000B5128081A0912B12B0912C12A80FB11DC1
:1045C00087FDBA95B0932C12A0932B128091A01264
:1045D000882311F40C94C1342091971230919812D1
:1045E0004091991250919A120E94C885DC01CB012A
:1045F0003AE0B695A795979587953A95D1F7909318
:10460000A4128093A3121092A6121092A51281E018
:104610008093AD128CEB94E0909327128093261236
:104620000E94FA66882309F45CCF81E0DF91CF9184
:104630001F910F91FF90EF90DF90CF9008958B34F2
:1046400023E0920709F4C1C108F0F3C48830F3E015
:104650009F0711F40C94802C10F40C94593185337D
:1046600023E0920709F488C08234E3E09E0709F44E
:1046700054C18C30934011F00C94A72C0E94FA6620
:104680008111D3CFE091B412F091B5122081318124
:10469000309336122093351200913112E02FF0E062
:1046A000EE0FFF1FEE0FFF1FEA5DFD4EC388D4889B
:1046B000E588F688C0928912D0928A12E0928B1215
:1046C000F0928C12C9E3D2E1E1E6F2E110E00117C9
:1046D000F1F0488159816A817B81440F551F661F23
:1046E000771FDB01CA018C199D09AE09BF098C8BAC
:1046F0009D8BAE8BBF8B40835183628373838C19F8
:104700009D09AE09BF09848B958BA68BB78B1F5F64
:10471000249634961530D9F660912D1270912E1290
:1047200080912F1290913012FC01E60FF71F4091FB
:104730003712509138124E0F5F1F240F351FC21AC7
:10474000D30AE108F108C0928D12D0928E12E09245
:104750008F12F0929012672B11F40C94413010924A
:10476000A6121092A51282E08093AD1285E393E029
:1047700090932712809326120E94FA66811155CFDA
:104780008091A012E091B412F091B512882311F437
:104790000C944634A081B1812091971230919812E7
:1047A0004091991250919A120E94C885DC01CB0168
:1047B0003AE0B695A795979587953A95D1F7909356
:1047C000A4128093A312909132129093A21280911E
:1047D0003112882311F40C943B3340914D125091C7
:1047E0004E1260914F127091501277FF02C00C94DC
:1047F0005C370091751210917612209177123091EA
:104800007812400F511F621F731F40934D12509337
:104810004E1260934F127093501291609093A212B7
:10482000813011F00C943B33409155125091561247
:10483000609157127091581277FF02C00C949B350B
:1048400000917D1210917E1220917F123091801282
:10485000400F511F621F731F409355125093561201
:1048600060935712709358129091A2129460909393
:10487000A212833039F14091591250915A1260912D
:104880005B1270915C1277FF02C00C948535009129
:104890008112109182122091831230918412400F64
:1048A000511F621F731F4093591250935A12609305
:1048B0005B1270935C129091A21298609093A21276
:1048C000843029F180915D1290915E12A0915F1267
:1048D000B0916012B7FF02C00C94C93640918512A6
:1048E000509186126091871270918812840F951FE3
:1048F000A61FB71F80935D1290935E12A0935F1264
:10490000B09360128091A21280618093A21282E41F
:1049100093E09093271280932612809195128150F4
:1049200080939512882309F483CD2091A3123091AE
:10493000A4128091320F9091330FA091340FB09157
:10494000350F820F931FA11DB11D8093320F9093DD
:10495000330FA093340FB093350FE0912C0F81E00B
:104960008E0F80932C0FF0E0EE0FFF1FEE0FFF1F56
:10497000E45DF44F8091A1129091A212A091A31234
:10498000B091A41280839183A283B3838091A112FA
:104990008F778093A11280912D1290912E12019702
:1049A00090932E1280932D12892B11F40C943D308C
:1049B0001092A6121092A51282E08093AD128BE4A1
:1049C00093E090932712809326120E94FA66811139
:1049D0002CCE8091A012E091B412F091B5128823F0
:1049E00011F40C948734A081B181209197123091F9
:1049F00098124091991250919A120E94C885DC0138
:104A0000CB012AE0B695A795979587952A95D1F77A
:104A10009093A4128093A312909132129093A212B9
:104A200080913112882311F40C94DD3340914D12A2
:104A300050914E1260914F127091501277FF02C048
:104A40000C94D9370091751210917612209177123B
:104A500030917812400F511F621F731F40934D1207
:104A600050934E1260934F12709350129160909336
:104A7000A212813011F00C94DD3340915512509107
:104A80005612609157127091581277FF02C00C9421
:104A9000323600917D1210917E1220917F1230915A
:104AA0008012400F511F621F731F40935512509385
:104AB000561260935712709358129091A2129460FC
:104AC0009093A212833039F14091591250915A12A9
:104AD00060915B1270915C1277FF02C00C944836B3
:104AE00000918112109182122091831230918412D0
:104AF000400F511F621F731F4093591250935A1257
:104B000060935B1270935C129091A21298609093E4
:104B1000A212843029F180915D1290915E12A091D1
:104B20005F12B0916012B7FF02C00C9489374091B8
:104B30008512509186126091871270918812840FAD
:104B4000951FA61FB71F80935D1290935E12A093CE
:104B50005F12B09360128091A21280618093A212C2
:104B600088E593E090932712809326128091951206
:104B7000815080939512882309F45ACC2091A31276
:104B80003091A4128091320F9091330FA091340F85
:104B9000B091350F820F931FA11DB11D8093320F6D
:104BA0009093330FA093340FB093350FE0912C0FF7
:104BB00081E08E0F80932C0FF0E0EE0FFF1FEE0FC1
:104BC000FF1FE45DF44F8091A1129091A212A09179
:104BD000A312B091A41280839183A283B383DBCE0E
:104BE000833224E0920711F40C94A63110F40C9453
:104BF00084318234E4E09E0751F18634F4E09F076B
:104C000009F446C08733944009F0A1C60E94FA66B1
:104C100081110BCDE091B412F091B5128081918198
:104C200090939212809391121092A0128091281268
:104C300085FFD2C01092A6121092A51284E0809334
:104C4000AD1282E494E090932712809326120E9482
:104C5000FA668111EACCE091B412F091B51280812C
:104C60009181A281B38180939B1290939C12A09317
:104C70009D12B0939E121092A6121092A51281E07E
:104C80008093AD1286E494E09093271280932612CD
:104C90000E94FA668111C9CCE091B412F091B5126C
:104CA000C081C0939F128091160A9091170A959522
:104CB0008795959587959595879595958795209155
:104CC000000230910102821B930B97FF02C00C94EB
:104CD000CE348436910514F40C94B6342091DB1153
:104CE0003091DC1140E050E060919B1270919C1279
:104CF00080919D1290919E120E9467859B01AC014C
:104D000004C05695479537952795CA95D2F7213017
:104D1000F0E13F074105510520F020E030E140E09F
:104D200050E0209397123093981240939912509329
:104D30009A12213084E038074105510510F40C9493
:104D400020348091C309882331F1A091C409B09126
:104D5000C5090E94C885DC01CB015AE0B695A7952C
:104D6000979587955A95D1F78093971290939812BB
:104D7000A0939912B0939A1280910F1290911012F1
:104D80008E3FEFEF9E0711F40C94923801969093AA
:104D9000101280930F1281E08093A01280910D1267
:104DA00090910E128E3FFFEF9F0711F40C94F43692
:104DB000019690930E1280930D128091971290910C
:104DC0009812A0919912B0919A1281159240A10562
:104DD000B10510F40C941E351092A6121092A51273
:104DE00082E08093AD1284E994E09093271280933F
:104DF00026120E94FA66811118CCE091B412F0914B
:104E0000B512A081B181B0932C12A0932B12809186
:104E1000A012882311F40C9426332091971230911C
:104E200098124091991250919A120E94C885DC0103
:104E3000CB014AE0B695A795979587954A95D1F706
:104E40009093A4128093A3121092A6121092A5120E
:104E500081E08093AD128FE994E0909327128093C4
:104E600026120E94FA668111E0CBE091B412F09113
:104E7000B51280818093A21284EA94E09093271265
:104E800080932612809195128150809395128823E9
:104E900009F4CECA2091A3123091A4128091320F4E
:104EA0009091330FA091340FB091350F820F931F63
:104EB000A11DB11D8093320F9093330FA093340F37
:104EC000B093350FE0912C0F81E08E0F80932C0F63
:104ED000F0E0EE0FFF1FEE0FFF1FE45DF44F809137
:104EE000A1129091A212A091A312B091A41280835A
:104EF0009183A283B3838091A1128F778093A112B3
:104F0000809128129091291286FD02C00C942C33B6
:104F100020919112309192122150310930939212C6
:104F200020939112232B09F02FCB91FF05C0809184
:104F3000961281110E94824310922712109226121B
:104F400074CB8C3FE4E09E0711F40C94B03210F463
:104F50000C94D7318631F5E09F0709F460C08F319A
:104F600025E0920711F40C94D3328C30954009F06F
:104F7000EEC40E94FA66811158CBE091B412F09110
:104F8000B512808191811092A21220E533EC30930A
:104F9000A4122093A31233C02091A3123091A41223
:104FA0008091320F9091330FA091340FB091350F53
:104FB000820F931FA11DB11D8093320F9093330F69
:104FC000A093340FB093350F81E08E0F80932C0F98
:104FD000F0E0EE0FFF1FEE0FFF1FE45DF44F809136
:104FE000A1129091A212A091A312B091A412808359
:104FF0009183A283B38380919312909194129C0128
:10500000215031093093941220939312892B09F483
:1050100093CF86E195E09093271280932612E0913A
:105020002C0F80912D0FFE2FF81BFF3F09F0B4CFFE
:10503000FCCA813723E0920711F40C94183110F464
:105040000C9479318738E3E09E0709F4DAC08B3994
:10505000F3E09F0709F4D1C78A37934009F077C47A
:105060000E94FA668111E1CA8091A012E091B41207
:10507000F091B512882311F40C947F34A081209113
:105080009712309198124091991250919A12B0E073
:105090000E94C885DC01CB011AE0B695A7959795CB
:1050A00087951A95D1F79093A4128093A3129091AB
:1050B00032129093A21280913112882311F40C9431
:1050C000B43340914D1250914E1260914F12709135
:1050D000501277FF02C00C94EF37009175121091B7
:1050E00076122091771230917812400F511F621F73
:1050F000731F40934D1250934E1260934F12709352
:10510000501291609093A212813011F00C94B4333C
:105110004091551250915612609157127091581249
:1051200077FF02C00C945E3600917D1210917E12C2
:1051300020917F1230918012400F511F621F731F08
:105140004093551250935612609357127093581211
:105150009091A21294609093A212833039F1409101
:10516000591250915A1260915B1270915C1277FF44
:1051700002C00C9474360091811210918212209119
:10518000831230918412400F511F621F731F40938E
:10519000591250935A1260935B1270935C12909163
:1051A000A21298609093A212843029F180915D122E
:1051B00090915E12A0915F12B0916012B7FF02C091
:1051C0000C94463740918512509186126091871257
:1051D00070918812840F951FA61FB71F80935D12D0
:1051E00090935E12A0935F12B09360128091A2120E
:1051F00080618093A21287E893E0909327128093B6
:10520000261280919512815080939512882309F47B
:105210000FC92091A3123091A4128091320F909166
:10522000330FA091340FB091350F820F931FA11D42
:10523000B11D8093320F9093330FA093340FB0932E
:10524000350FE0912C0F81E08E0F80932C0FF0E052
:10525000EE0FFF1FEE0FFF1FE45DF44F8091A112D0
:105260009091A212A091A312B091A4128083918375
:10527000A283B38380912F12909130120197909363
:10528000301280932F12892B09F4FAC51092A612BE
:105290001092A51281E08093AD128AE793E090937B
:1052A0002712809326120E94FA66882309F4DCCE26
:1052B000BCC9823622E0920709F4CCC008F03EC394
:1052C000009711F40C94E9328034924009F03FC306
:1052D0000E94FA668111A9C9E091B412F091B51249
:1052E00080818C3011F40C94723710F00C945E3481
:1052F000873009F4A9C08B3011F40C94A3328330A9
:1053000011F40C949F3790911C0B20911D0B392F99
:10531000321B3F3F41F1E1E0E90FE0931C0BA92F65
:10532000B0E0A65EB54F12961C923E2F321B3F3F57
:10533000D1F032E0390F30931C0BF0E0E65EF54F10
:1053400043E04283432F50E05093250B4093240BBE
:10535000321B3F3F41F09D5F90931C0BFA01E65ECC
:10536000F54F91E0928390911C0B492F50E05093A0
:10537000230B4093220B392F321B3F3F11F40C9427
:10538000AD389F5F90931C0BDA01A65EB54F91E09C
:1053900012969C9312974091240B5091250BFA0181
:1053A000FF27E65EF54F92819F5F928312969C9154
:1053B00012979F5F12969C93A0911C0B9A2F921BA1
:1053C0009F3F11F40C94B63891E09A0F90931C0B08
:1053D000B0E0A65EB54F35E012963C9332813F5F58
:1053E0003283882311F40C9496386091220B7091CB
:1053F000230BEB01DD27C65ED54F3A813F5F3A8331
:10540000392F321B3F3F11F40C94B23831E0390F81
:1054100030931C0BA92FB0E0A65EB54F12968C936B
:1054200082818F5F8283321B3F3F11F40C94A1383D
:105430006F3F7F4F11F08FEF8A838091200B8F5F3A
:105440008093200B0E94154E82E692E090932712E3
:105450008093261280912C0F90912D0F891B80959F
:1054600080939512882309F4E0C81092A612109236
:10547000A51282E08093AD1286E692E09093271207
:10548000809326120E94FA668111CFC8E091B4126F
:10549000F091B51280819181909329128093281206
:1054A00087FF02C00C944E342091A11291FD02C0DE
:1054B0000C94523420642093A1121092A6121092E0
:1054C000A51281E08093AD1288E792E090932712B5
:1054D000809326120E94FA668111A7C8E091B41247
:1054E000F091B51290819093311281E001C0880F44
:1054F0009A95EAF7809332121092A6121092A51292
:1055000084E08093AD1281E892E09093271280931B
:1055100026120E94FA66811188C8E091B412F091B7
:10552000B51280819181A281B381809339129093C9
:105530003A12A0933B12B0933C121092A612109212
:10554000A51284E08093AD1285E892E09093271233
:10555000809326120E94FA66811167C8E091B41206
:10556000F091B51280819181A281B38180933D1227
:1055700090933E12A0933F12B09340121092A61245
:105580001092A51284E08093AD1289E892E0909386
:105590002712809326120E94FA66811146C8E09174
:1055A000B412F091B51280819181A281B381809370
:1055B000411290934212A0934312B093441210925E
:1055C000A6121092A51284E08093AD128DE892E0AD
:1055D00090932712809326120E94FA66811125C8A3
:1055E000E091B412F091B51280819181A281B381D2
:1055F0008093451290934612A0934712B09348129D
:105600001092A6121092A51284E08093AD1281E947
:1056100092E090932712809326120E94FA668111DD
:1056200004C8E091B412F091B51280819181A281F9
:10563000B3818093491290934A12A0934B12B09376
:105640004C121092A6121092A51282E08093AD1215
:1056500085E992E090932712809326120E94FA66C1
:1056600081110C941523E091B412F091B512808150
:10567000918190932E1280932D121092A612109267
:10568000A51282E08093AD1289E992E090932712EF
:10569000809326120E94FA6681110C941523E091E2
:1056A000B412F091B5128081918190933012809361
:1056B0002F121092A012809128129091291290FF1F
:1056C000DEC01092A6121092A51284E08093AD1253
:1056D00084EA92E090932712809326120E94FA6641
:1056E00081110C941523E091B412F091B5128081D0
:1056F0009181A281B38180939B1290939C12A0937D
:105700009D12B0939E121092A6121092A51281E0E3
:105710008093AD1288EA92E090932712809326122C
:105720000E94FA6681110C941523E091B412F09155
:10573000B512C081C0939F1260919B1270919C1210
:1057400080919D1290919E126115710581059105C0
:1057500011F40C9406342091160A3091170AA9010D
:105760005595479555954795559547955595479521
:105770002091000230910102FA01E21BF30B9F011C
:10578000F7FF02C00C94F836E436F10514F40C94DB
:1057900065352091DB113091DC1140E050E00E9432
:1057A00067859B01AC0104C05695479537952795B1
:1057B000CA95D2F72130F0E13F074105510520F0AD
:1057C00020E030E140E050E02093971230939812AF
:1057D0004093991250939A12213084E03807410582
:1057E000510510F40C94D6348091C309882331F10B
:1057F000A091C409B091C5090E94C885DC01CB0104
:10580000DAE0B695A79597958795DA95D1F78093C5
:10581000971290939812A0939912B0939A12809134
:105820000F12909110128E3FEFEF9E0711F40C941F
:10583000A63801969093101280930F1281E0809306
:10584000A01280910D1290910E128E3FFFEF9F07D4
:1058500011F40C948B38019690930E1280930D12D4
:105860008091971290919812A0919912B0919A12EA
:1058700081159240A105B10510F40C9416351092D3
:10588000A6121092A51282E08093AD128EEF92E0E4
:1058900090932712809326120E94FA6681110C942D
:1058A00015238091A012E091B412F091B5128823D3
:1058B00009F49EC6A081B18120919712309198126F
:1058C0004091991250919A120E94C885DC01CB0137
:1058D000CAE0B695A79597958795CA95D1F7909305
:1058E0003412809333121092A6121092A51282E005
:1058F0008093AD1288E093E0909327128093261254
:105900000E94FA6681110C941523E091B412F09173
:10591000B512808191819093381280933712109242
:10592000A6121092A51282E08093AD128CE093E053
:1059300090932712809326120C943E23863622E001
:10594000920709F49FCD8837924009F4C3CD8FEFB9
:105950009FEF909327128093261280E00C941623D9
:105960008091351290913612892B09F4FEC1109264
:10597000A6121092A51282E08093AD1287EE93E0FA
:1059800090932712809326120E94FA6681110C943C
:1059900015238091A012E091B412F091B5128823E2
:1059A00009F439C7A081B1812091971230919812E2
:1059B0004091991250919A120E94C885DC01CB0146
:1059C000FAE0B695A79597958795FA95D1F79093B4
:1059D000A4128093A3120E94556884EF93E09093E1
:1059E00027128093261280919512815080939512F0
:1059F000882311F40C9418222091A3123091A41240
:105A00008091320F9091330FA091340FB091350FE8
:105A1000820F931FA11DB11D8093320F9093330FFE
:105A2000A093340FB093350FE0912C0F81E08E0FCF
:105A300080932C0FF0E0EE0FFF1FEE0FFF1FE45DD1
:105A4000F44F8091A1129091A212A091A312B09153
:105A5000A41280839183A283B3838091A1128F7754
:105A60008093A112809135129091361201979093F4
:105A7000361280933512892B09F477C11092A61241
:105A80001092A51282E08093AD128DEF93E0909377
:105A90002712809326120E94FA6681110C94152316
:105AA0008091A012E091B412F091B512882309F40C
:105AB000FEC6A081B1812091971230919812409139
:105AC000991250919A120E94C885DC01CB01EAE03C
:105AD000B695A79597958795EA95D1F79093A412D7
