:100000000C944B0A0C947C0A0C947C0A0C947C0A89
:100010000C947C0A0C947C0A0C947C0A0C947C0A48
:100020000C947C0A0C947C0A0C947C0A0C947C0A38
:100030000C947C0A0C947C0A0C947C0A0C947C0A28
:100040000C947C0A0C946B500C94E34C0C947C0A3A
:100050000C947C0A0C947C0A0C947C0A0C94C55574
:100060000C947C0A0C944F520C947C0A0C947C0ADD
:100070000C947C0A0C947C0A0C947C0A0C947C0AE8
:100080000C947C0A0C947C0A0C947C0A0C947C0AD8
:100090000C947C0A0C947C0A0C947C0A0C947C0AC8
:1000A0000C947C0A0C947C0A0C947C0A0C947C0AB8
:1000B0000C947C0A0C947C0A0C947C0A0C947C0AA8
:1000C0000C947C0A0C947C0A0C947C0A0C947C0A98
:1000D0000C947C0A0C947C0A0C947C0A0C947C0A88
:1000E0000C947C0AB7720273837183718371887375
:1000F0007B73B673D2729E759975837183718371A8
:10010000837183718371837183718371837183714F
:100110008371977594758371837183718975867501
:10012000837580758371C075BE758371BB75B0753D
:10013000CF75C375DB7572751875167596748371F6
:100140008C74337589747B74837183717574837156
:1001500070745F745A7443740E7408740574027476
:100160006D735173BC72FF726C53705374537A5336
:1001700080536B5386538C53925398539E53A4537E
:10018000AA53B0536B53B653BC5366535F54675472
:100190006C54765480544E548A5492549A54A454B5
:1001A000AE54B854C754D1544E54DB54E554EF54B4
:1001B000441F041D671B2A1A2B195718A21706176C
:1001C0007B16001692152D15D1147C142E14E513F0
:1001D000A11362132613ED12B812851255122712BD
:1001E000FC11D211AA1184115F113B111911F810E1
:1001F000D910BA109C108010641049102F101510DF
:10020000FC0FE40FCD0FB60FA00F8A0F750F610F13
:100210004C0F390F250F130F000FEE0EDD0ECB0E16
:10022000BA0EAA0E990E890E7A0E6A0E5B0E4C0E4D
:100230003E0E2F0E210E130E060EF80DEB0DDE0DE9
:10024000D10DC50DB80DAC0DA00D940D880D7D0D13
:10025000710D660D5B0D500D450D3B0D300D260DDE
:100260001B0D110D070DFD0CF30CEA0CE00CD70C67
:10027000CD0CC40CBB0CB20CA90CA00C980C8F0CB0
:10028000860C7E0C760C6D0C650C5D0C550C4D0CC3
:10029000450C3D0C350C2E0C260C1F0C170C100CAD
:1002A000080C010CFA0BF30BEC0BE50BDE0BD70B78
:1002B000D00BC90BC20BBC0BB50BAE0BA80BA10B23
:1002C0009B0B950B8E0B880B820B7B0B750B6F0BAF
:1002D000690B630B5D0B570B510B4C0B460B400B23
:1002E0003A0B350B2F0B290B240B1E0B190B130B81
:1002F0000E0B080B030BFE0AF80AF30AEE0AE90AD2
:10030000E40ADE0AD90AD40ACF0ACA0AC50AC00A10
:10031000BB0AB60AB10AAD0AA80AA30A9E0A990A3C
:10032000950A900A8B0A870A820A7E0A790A740A59
:10033000700A6B0A670A620A5E0A5A0A550A510A6B
:100340004C0A480A440A400A3B0A370A330A2F0A71
:100350002A0A260A220A1E0A1A0A160A120A0E0A6D
:100360000A0A060A020AFE09FA09F609F209EE0962
:10037000EA09E609E209DE09DA09D709D309CF0952
:10038000CB09C809C409C009BC09B909B509B10933
:10039000AE09AA09A609A3099F099B09980994090E
:1003A00091098D098A09860983097F097C097809E1
:1003B000750971096E096B096709640960095D09AE
:1003C0005A095609530950094C0949094609420975
:1003D0003F093C093909350932092F092C09290936
:1003E000250922091F091C091909160912090F09F3
:1003F0000C090909060903090009FD08FA08F708AC
:10040000F408F108ED08EA08E708E408E108DE0866
:10041000DB08D908D608D308D008CD08CA08C70811
:10042000C408C108BE08BB08B808B508B308B008BE
:10043000AD08AA08A708A408A1089F089C08990865
:100440009608930891088E088B0888088608830808
:1004500080087D087B0878087508720870086D08A8
:100460006A086808650862085F085D085A08570846
:10047000550852084F084D084A08480845084208E0
:1004800040083D083A0838083508330830082E0877
:100490002B0828082608230821081E081C0819080C
:1004A0001708140811080F080C080A08070805089F
:1004B00002080008FD07FB07F807F607F307F10736
:1004C000EE07EC07EA07E707E507E207E007DD07C5
:1004D000DB07D807D607D407D107CF07CC07CA0751
:1004E000C707C507C307C007BE07BB07B907B707DC
:1004F000B407B207B007AD07AB07A807A607A40764
:10050000A1079F079D079A079807960793079107EA
:100510008F078C078A0788078507830781077E076F
:100520007C077A0778077507730771076E076C07F2
:100530006A0767076507630761075E075C075A0775
:1005400058075507530751074F074C074A074807F5
:100550004607430741073F073D073A073807360775
:10056000340731072F072D072B07290726072407F4
:10057000220720071D071B07190717071507120772
:1005800010070E070C070A070707050703070107EF
:10059000FF06FC06FA06F806F606F406F206EF0673
:1005A000ED06EB06E906E706E506E206E006DE06EE
:1005B000DC06DA06D806D506D306D106CF06CD0668
:1005C000CB06C806C606C406C206C006BE06BC06E2
:1005D000B906B706B506B306B106AF06AD06AA065C
:1005E000A806A606A406A206A0069E069C069906D4
:1005F00097069506930691068F068D068B0688064C
:1006000086068406820680067E067C067A067706C3
:100610007506730671066F066D066B06690666063B
:100620006406620660065E065C065A0658065606B2
:10063000530651064F064D064B064906470645062A
:10064000430640063E063C063A06380636063406A1
:10065000320630062D062B06290627062506230618
:1006600021061F061D061A0618061606140612068F
:1006700010060E060C060A06070605060306010606
:10068000FF05FD05FB05F905F605F405F205F00586
:10069000EE05EC05EA05E805E505E305E105DF05FE
:1006A000DD05DB05D905D705D405D205D005CE0576
:1006B000CC05CA05C805C605C305C105BF05BD05EE
:1006C000BB05B905B705B405B205B005AE05AC0567
:1006D000AA05A705A505A305A1059F059D059B05E1
:1006E000980596059405920590058E058B0589055C
:1006F00087058505830581057E057C057A057805D6
:100700007605730571056F056D056B056805660552
:100710006405620560055D055B05590557055505CE
:10072000520550054E054C0549054705450543054D
:1007300041053E053C053A053805350533053105CB
:100740002F052C052A0528052605230521051F054B
:100750001C051A0518051605130511050F050C05CE
:100760000A050805060503050105FF04FC04FA0453
:10077000F804F504F304F104EE04EC04EA04E704DD
:10078000E504E304E004DE04DB04D904D704D40464
:10079000D204D004CD04CB04C804C604C404C104EC
:1007A000BF04BC04BA04B804B504B304B004AE0476
:1007B000AB04A904A604A404A1049F049D049A0404
:1007C00098049504930490048E048B048904860491
:1007D000830481047E047C04790477047404720425
:1007E0006F046C046A046704650462045F045D04BA
:1007F0005A0458045504520450044D044A04480451
:100800004504420440043D043A04370435043204EC
:100810002F042D042A042704240421041F041C048B
:1008200019041604130411040E040B04080405042F
:1008300002040004FD03FA03F703F403F103EE03DB
:10084000EB03E803E503E203DF03DC03D903D6038C
:10085000D303D003CD03CA03C703C403C103BE033C
:10086000BB03B703B403B103AE03AB03A803A403F4
:10087000A1039E039B039703940391038E038A03B2
:100880008703840380037D037903760373036F0377
:100890006C036803650361035E035A035703530344
:1008A0004F034C034803440341033D03390336031C
:1008B00032032E032A03260323031F031B031703FC
:1008C00013030F030B0307030303FF02FB02F702EB
:1008D000F302EE02EA02E602E202DD02D902D502EA
:1008E000D002CC02C702C302BE02BA02B502B102F4
:1008F000AC02A702A3029E02990294028F028A020E
:10090000850280027B02760271026C02660261023D
:100910005C02560251024B02460240023A02340285
:100920002F02290223021D02160210020A020402EB
:10093000FD01F701F001E901E201DC01D501CD0182
:10094000C601BF01B701B001A801A0019801900143
:100950008801800177016E0165015C0153014A0144
:10096000400136012C01220117010C010101F500A3
:10097000EA00DD00D100C400B600A9009A008B0097
:100980007C006C005B004900370023000F00F9FF7A
:100990000F20E91CE81A77195A187417B5161116A2
:1009A0008315061596143114D51382133413ED12E2
:1009B000AA126C123212FB11C811971168113C1166
:1009C0001211EA10C4109F107C105A1039101A101E
:1009D000FC0FDE0FC20FA70F8C0F730F5A0F420FC1
:1009E0002A0F130FFD0EE80ED30EBE0EAA0E970EA1
:1009F000840E710E5F0E4D0E3C0E2B0E1A0E0A0E5B
:100A0000FA0DEA0DDA0DCB0DBD0DAE0DA00D920D58
:100A1000840D760D690D5C0D4F0D430D360D2A0DBD
:100A20001E0D120D060DFB0CEF0CE40CD90CCE0CB8
:100A3000C40CB90CAF0CA40C9A0C900C860C7C0C5A
:100A4000730C690C600C560C4D0C440C3B0C320CB6
:100A50002A0C210C180C100C070CFF0BF70BEF0BDA
:100A6000E70BDF0BD70BCF0BC70BC00BB80BB10BD2
:100A7000A90BA20B9B0B930B8C0B850B7E0B770B9F
:100A8000700B6A0B630B5C0B550B4F0B480B420B47
:100A90003B0B350B2F0B280B220B1C0B160B100BD3
:100AA0000A0B040BFE0AF80AF20AEC0AE60AE10A4B
:100AB000DB0AD50AD00ACA0AC50ABF0ABA0AB40AAA
:100AC000AF0AAA0AA40A9F0A9A0A950A8F0A8A0AF2
:100AD000850A800A7B0A760A710A6C0A670A620A2A
:100AE0005D0A590A540A4F0A4A0A460A410A3C0A50
:100AF000380A330A2E0A2A0A250A210A1C0A180A69
:100B0000140A0F0A0B0A060A020AFE09F909F50976
:100B1000F109ED09E809E409E009DC09D809D4097B
:100B2000D009CC09C809C409C009BC09B809B4096D
:100B3000B009AC09A809A409A0099C09980995095C
:100B400091098D098909860982097E097A0977093F
:100B500073096F096C096809650961095D095A091A
:100B6000560953094F094C094809450941093E09ED
:100B70003B093709340930092D092A0926092309B7
:100B80001F091C091909160912090F090C0908097E
:100B900005090209FF08FC08F808F508F208EF0843
:100BA000EC08E908E508E208DF08DC08D908D608FF
:100BB000D308D008CD08CA08C708C408C108BE08B1
:100BC000BB08B808B508B208AF08AC08A908A60861
:100BD000A308A0089D089A089708940891088F0810
:100BE0008C0889088608830880087E087B087808B6
:100BF0007508720870086D086A0867086508620859
:100C00005F085C085A085708540851084F084C08F8
:100C100049084708440841083F083C083908370894
:100C2000340831082F082C082A082708240822082D
:100C30001F081D081A0817081508120810080D08C3
:100C40000B080808060803080108FE07FC07F90757
:100C5000F707F407F207EF07ED07EA07E807E507EC
:100C6000E307E007DE07DB07D907D607D407D2077B
:100C7000CF07CD07CA07C807C607C307C107BE0706
:100C8000BC07BA07B707B507B207B007AE07AB078F
:100C9000A907A707A407A207A0079D079B07990715
:100CA0009607940792078F078D078B07880786079B
:100CB000840782077F077D077B077807760774071D
:100CC00072076F076D076B0769076607640762079E
:100CD00060075D075B07590757075507520750071D
:100CE0004E074C07490747074507430741073E079B
:100CF0003C073A0738073607340731072F072D0717
:100D00002B07290726072407220720071E071C0791
:100D10001A0717071507130711070F070D070B070A
:100D200008070607040702070007FE06FC06FA0686
:100D3000F706F506F306F106EF06ED06EB06E90603
:100D4000E706E406E206E006DE06DC06DA06D8067A
:100D5000D606D406D206D006CE06CB06C906C706EE
:100D6000C506C306C106BF06BD06BB06B906B70663
:100D7000B506B306B106AF06AD06AA06A806A606D6
:100D8000A406A206A0069E069C069A06980696064B
:100D90009406920690068E068C068A0688068606BB
:100DA0008406820680067E067C067A06780676062B
:100DB0007406720670066E066B066906670665069F
:100DC000630661065F065D065B0659065706550613
:100DD000530651064F064D064B0649064706450683
:100DE000430641063F063D063B06390637063506F3
:100DF000330631062F062D062B0629062706250663
:100E0000230621061F061D061B06190617061506D2
:100E10001306120610060E060C060A06080606063B
:100E2000040602060006FE05FC05FA05F805F605AF
:100E3000F405F205F005EE05EC05EA05E805E60522
:100E4000E405E205E005DE05DC05DA05D805D60592
:100E5000D405D205D005CE05CC05CA05C805C60502
:100E6000C405C205C005BE05BC05BA05B805B60572
:100E7000B405B205B005AE05AC05AA05A805A605E2
:100E8000A405A205A0059E059C059A059805960552
:100E90009405920590058E058C058A0588058605C2
:100EA0008405820580057E057C057A057805760532
:100EB000730571056F056D056B05690567056505AA
:100EC000630561055F055D055B055905570555051A
:100ED000530551054F054D054B054905470545058A
:100EE000420540053E053C053A0538053605340502
:100EF000320530052E052C052A0528052505230574
:100F000021051F051D051B051905170515051305E9
:100F100010050E050C050A05080506050405020561
:100F20000005FD04FB04F904F704F504F304F104DF
:100F3000EE04EC04EA04E804E604E404E104DF045B
:100F4000DD04DB04D904D704D404D204D004CE04D5
:100F5000CC04CA04C704C504C304C104BE04BC0451
:100F6000BA04B804B604B304B104AF04AD04AA04CF
:100F7000A804A604A404A1049F049D049B0498044F
:100F80009604940492048F048D048B0488048604D0
:100F9000840481047F047D047A0478047604730455
:100FA00071046F046C046A046804650463046104DA
:100FB0005E045C04590457045504520450044D0463
:100FC0004B0448044604440441043F043C043A04EE
:100FD00037043504320430042D042B04280426047D
:100FE000230421041E041C0419041604140411040F
:100FF0000F040C040A04070404040204FF03FC03A6
:10100000FA03F703F503F203EF03ED03EA03E70343
:10101000E403E203DF03DC03DA03D703D403D103E1
:10102000CE03CC03C903C603C303C003BE03BB0383
:10103000B803B503B203AF03AC03AA03A703A40329
:10104000A1039E039B039803950392038F038C03D4
:1010500089038603830380037C0379037603730388
:1010600070036D036A036603630360035D035A0341
:101070005603530350034C034903460342033F0303
:101080003C033803350331032E032A0327032303CC
:1010900020031C031903150312030E030A0307039D
:1010A0000303FF02FB02F802F402F002EC02E80282
:1010B000E402E002DC02D802D402D002CC02C80270
:1010C000C402C002BC02B802B302AF02AB02A60265
:1010D000A2029E029902950290028C02870282026D
:1010E0007E02790274026F026A02650261025C028A
:1010F000560251024C02470242023C0237023202BF
:101100002C02270221021B02150210020A0204020D
:10111000FE01F801F101EB01E501DE01D801D10189
:10112000CA01C301BC01B501AE01A7019F0198012D
:101130009001880180017801700168015F0156010A
:101140004D0144013B01310127011D01130108013B
:10115000FD00F200E600DA00CE00C100B400A600F7
:1011600098008A007A006A00590048003500220081
:101170000D00F7FF00002110422063308440A5508D
:10118000C660E770088129914AA16BB18CC1ADD1CD
:10119000CEE1EFF13112100273325222B552944275
:1011A000F772D662399318837BB35AA3BDD39CC31D
:1011B000FFF3DEE36224433420040114E664C774C1
:1011C000A44485546AA54BB528850995EEE5CFF56D
:1011D000ACC58DD55336722611163006D776F66615
:1011E0009556B4465BB77AA719973887DFF7FEE7BD
:1011F0009DD7BCC7C448E5588668A77840086118E1
:1012000002282338CCC9EDD98EE9AFF9488969990C
:101210000AA92BB9F55AD44AB77A966A711A500AB4
:10122000333A122AFDDBDCCBBFFB9EEB799B588B5C
:101230003BBB1AABA66C877CE44CC55C222C033C00
:10124000600C411CAEED8FFDECCDCDDD2AAD0BBDAC
:10125000688D499D977EB66ED55EF44E133E322E54
:10126000511E700E9FFFBEEFDDDFFCCF1BBF3AAFFC
:10127000599F788F8891A981CAB1EBA10CD12DC15A
:101280004EF16FE18010A100C230E32004502540F0
:1012900046706760B9839893FBA3DAB33DC31CD350
:1012A0007FE35EF3B1029012F322D2323542145240
:1012B00077625672EAB5CBA5A89589856EF54FE59C
:1012C0002CD50DC5E234C324A01481046674476490
:1012D00024540544DBA7FAB79987B8975FE77EF7F0
:1012E0001DC73CD7D326F2369106B01657667676E0
:1012F000154634564CD96DC90EF92FE9C899E989BC
:101300008AB9ABA94458654806782768C018E1082F
:101310008238A3287DCB5CDB3FEB1EFBF98BD89B8F
:10132000BBAB9ABB754A545A376A167AF10AD01A7F
:10133000B32A923A2EFD0FED6CDD4DCDAABD8BADDB
:10134000E89DC98D267C076C645C454CA23C832CCF
:10135000E01CC10C1FEF3EFF5DCF7CDF9BAFBABF2F
:10136000D98FF89F176E367E554E745E932EB23E1F
:10137000D10EF01E000020002300260029002C00C2
:101380002F003200000100000301060109010505DC
:101390000505070508080808020202020A0A0808EB
:1013A0000404040401010101010101010303030319
:1013B00003030303040707070C0C0C0C0C0C0C0CA8
:1013C0000202020206060606060606060B0B0B0BB9
:1013D0000B0B0B0B010210202008081020401020DE
:1013E00040800201020108040201010204081020E9
:1013F00040808040201008040201800402018040E7
:10140000201008040201080402010102040810204F
:101410004080010204081020408000000A0B0209ED
:101420000C0D0E080703040100000000000000007E
:1014300000000000000000000000000000000000AC
:101440000000000000001211100000000000000069
:10145000000000000000000000000000000000008C
:1014600000002100240027002A002D003000330056
:1014700001010000040107010A010000220025000B
:1014800028002B002E00310034000201000005016D
:1014900008010B01BA7611241FBECFEFD1E2DEBFE7
:1014A000CDBF00E00CBF12E0A0E0B2E0E8E7FCE056
:1014B00001E00BBF02C007900D92AC34B107D9F721
:1014C00023E1ACE4B2E001C01D92A230B207E1F723
:1014D0001AE0CBE4DAE000E006C021970109802F92
:1014E000FE010E94F185CA34D10780E00807A9F700
:1014F0000E94E05C0C942D860C940000CF92DF9249
:10150000EF92FF920F931F93CF93DF9380918711F8
:10151000909188118B3923E0920711F40C943118C3
:1015200008F463C18338E4E09E0709F434C608F088
:1015300088C1823F23E0920711F40C94271708F02A
:1015400021C5833CF3E09F0709F467C010F40C94B5
:10155000EC1B8C3D23E0920711F40C94A016893EFD
:10156000E3E09E0711F40C94D016803D934011F0F7
:101570000C947E168091F61181508093F611882389
:1015800009F423C120910512309106128091930E27
:101590009091940EA091950EB091960E820F931F8C
:1015A000A11DB11D8093930E9093940EA093950E60
:1015B000B093960EE0918D0E81E08E0F80938D0E8C
:1015C000F0E0EE0FFF1FEE0FFF1FE357F54F809186
:1015D000031290910412A0910512B091061280831B
:1015E0009183A283B383809198119091991101976F
:1015F0009093991180939811892B11F40C9487166C
:10160000109208121092071281E080930F1283EC5F
:1016100093E090938811809387110E94AB5B8111B6
:10162000DAC080910212E0911612F091171288230D
:1016300011F40C94871FA0812091F9113091FA11B7
:101640004091FB115091FC11B0E00E940586DC0135
:10165000CB012AE0B695A795979587952A95D1F75E
:101660009093061280930512909193119093041217
:1016700080919211882311F40C94511E4091AE1167
:101680005091AF116091B0117091B11177FF02C00C
:101690000C9429230091D6111091D7112091D811C3
:1016A0003091D911400F511F621F731F4093AE112B
:1016B0005093AF116093B0117093B11191609093FA
:1016C0000412813011F00C94511E4091B6115091CA
:1016D000B7116091B8117091B91177FF02C00C94E5
:1016E00041210091DE111091DF112091E011309124
:1016F000E111400F511F621F731F4093B6115093A9
:10170000B7116093B8117093B9119091041294605D
:1017100090930412833039F14091BA115091BB116A
:101720006091BC117091BD1177FF02C00C945721DC
:101730000091E2111091E3112091E4113091E51133
:10174000400F511F621F731F4093BA115093BB117A
:101750006093BC117093BD119091041298609093A6
:101760000412843029F18091BE119091BF11A09193
:10177000C011B091C111B7FF02C00C9496224091E4
:10178000E6115091E7116091E8117091E911840F11
:10179000951FA61FB71F8093BE119093BF11A093F2
:1017A000C011B093C1118091041280618093041222
:1017B00080ED93E090938811809387118091F611CA
:1017C00081508093F6118111DDCE86EF91E10E9468
:1017D00075528111D7CE81E0DF91CF911F910F918A
:1017E000FF90EF90DF90CF9008958939F2E09F0746
:1017F00011F40C94451508F0EDC08637E2E09E0721
:1018000011F40C945B1408F429C78238F2E09F07A6
:1018100011F40C94C11410F40C94471C8A3822E083
:10182000920711F40C9405158E38E2E09E0711F42E
:101830000C9421158638924011F00C947E160C946D
:10184000E314883CE4E09E0711F40C94061D08F0B4
:101850004BC5823A24E0920709F477C010F40C9447
:10186000F61B823BE4E09E07E1F08E3BF4E09F072D
:1018700011F40C94D21C8D3A944011F00C947E1605
:101880000E94AB5B8111A7CFE0911612F091171265
:1018900080818093041282EB94E09093881180936E
:1018A00087118091F61181508093F611882311F4ED
:1018B0000C940E1F20910512309106128091930E08
:1018C0009091940EA091950EB091960E820F931F59
:1018D000A11DB11D8093930E9093940EA093950E2D
:1018E000B093960EE0918D0E81E08E0F80938D0E59
:1018F000F0E0EE0FFF1FEE0FFF1FE357F54F809153
:10190000031290910412A0910512B09106128083E7
:101910009183A283B3838091F2119091F311019787
:101920009093F3118093F211892B11F40C94321DD2
:10193000109208121092071281E080930F1282EA2F
:1019400094E090938811809387110E94AB5B811182
:1019500042CFE0911612F09117128081A0918C1164
:10196000B0918D11A80FB11D87FDBA95B0938D115F
:10197000A0938C1180910212882311F40C94D81F2B
:101980002091F9113091FA114091FB115091FC1105
:101990000E940586DC01CB014AE0B695A795979594
:1019A00087954A95D1F7909306128093051210926D
:1019B00008121092071281E080930F128DEA94E0D2
:1019C00090938811809387110E94AB5B882309F460
:1019D0005BCF01CF803423E0920709F4C7C108F040
:1019E000FBC48D3FF2E09F0711F40C94571610F4DE
:1019F0000C94281D8A3223E0920709F48DC08733A6
:101A0000E3E09E0709F459C18130934011F00C9432
:101A10007E160E94AB5B8111DECEE0911612F09132
:101A200017122081318130939711209396110091E4
:101A30009211E02FF0E0EE0FFF1FEE0FFF1FE957AE
:101A4000FE4EC388D488E588F688C092EA11D09209
:101A5000EB11E092EC11F092ED11CAE9D1E1E2EC68
:101A6000F1E110E00117F1F0488159816A817B8131
:101A7000440F551F661F771FDB01CA018C199D0992
:101A8000AE09BF098C8B9D8BAE8BBF8B408351837E
:101A9000628373838C199D09AE09BF09848B958B72
:101AA000A68BB78B1F5F249634961530D9F66091BC
:101AB0008E1170918F118091901190919111FC0174
:101AC000E60FF71F40919811509199114E0F5F1F2B
:101AD000240F351FC21AD30AE108F108C092EE1193
:101AE000D092EF11E092F011F092F111672B11F406
:101AF0000C94D01A809103128F7B80930312109262
:101B000008121092071282E080930F128AE293E08B
:101B100090938811809387110E94AB5B81115BCEFB
:101B200080910212E0911612F0911712882311F49D
:101B30000C94651FA081B1812091F9113091FA11A7
:101B40004091FB115091FC110E940586DC01CB01F4
:101B50002AE0B695A795979587952A95D1F7909302
:101B60000612809305129091931190930412809124
:101B70009211882311F40C94F71D4091AE115091ED
:101B8000AF116091B0117091B11177FF02C00C9448
:101B9000FD220091D6111091D7112091D8113091CA
:101BA000D911400F511F621F731F4093AE11509304
:101BB000AF116093B0117093B111916090930412C2
:101BC000813011F00C94F71D4091B6115091B7116E
:101BD0006091B8117091B91177FF02C00C94D420B4
:101BE0000091DE111091DF112091E0113091E1118F
:101BF000400F511F621F731F4093B6115093B711CE
:101C00006093B8117093B9119091041294609093FD
:101C10000412833039F14091BA115091BB11609197
:101C2000BC117091BD1177FF02C00C94EA200091A5
:101C3000E2111091E3112091E4113091E511400F70
:101C4000511F621F731F4093BA115093BB116093D1
:101C5000BC117093BD11909104129860909304127E
:101C6000843029F18091BE119091BF11A091C011D3
:101C7000B091C111B7FF02C00C943B224091E61114
:101C80005091E7116091E8117091E911840F951F4F
:101C9000A61FB71F8093BE119093BF11A093C011D0
:101CA000B093C1118091041280618093041287E384
:101CB00093E090938811809387118091F611815061
:101CC0008093F611882311F40C94181F20910512AB
:101CD000309106128091930E9091940EA091950EE2
:101CE000B091960E820F931FA11DB11D8093930E8C
:101CF0009093940EA093950EB093960EE0918D0E56
:101D000081E08E0F80938D0EF0E0EE0FFF1FEE0F3F
:101D1000FF1FE357F54F8091031290910412A09199
:101D20000512B091061280839183A283B3838091C0
:101D300003128F778093031280918E1190918F11EF
:101D4000019790938F1180938E11892B11F40C942D
:101D5000CC1A109208121092071282E080930F1290
:101D600080E493E090938811809387110E94AB5B8D
:101D7000811131CD80910212E0911612F09117126B
:101D8000882311F40C94971FA081B1812091F9113F
:101D90003091FA114091FB115091FC110E9405867F
:101DA000DC01CB011AE0B695A795979587951A9512
:101DB000D1F790930612809305129091931190930E
:101DC000041280919211882311F40C94A31E409167
:101DD000AE115091AF116091B0117091B11177FFB8
:101DE00002C00C946B230091D6111091D711209151
:101DF000D8113091D911400F511F621F731F4093AA
:101E0000AE115093AF116093B0117093B111916006
:101E100090930412813011F00C94A31E4091B611DE
:101E20005091B7116091B8117091B91177FF02C04C
:101E30000C94C3210091DE111091DF112091E0116B
:101E40003091E111400F511F621F731F4093B61173
:101E50005093B7116093B8117093B9119091041217
:101E6000946090930412833039F14091BA115091EB
:101E7000BB116091BC117091BD1177FF02C00C9431
:101E8000D9210091E2111091E3112091E4113091D8
:101E9000E511400F511F621F731F4093BA115093F9
:101EA000BB116093BC117093BD11909104129860A6
:101EB00090930412843029F18091BE119091BF114A
:101EC000A091C011B091C111B7FF02C00C941323AF
:101ED0004091E6115091E7116091E8117091E9117C
:101EE000840F951FA61FB71F8093BE119093BF113B
:101EF000A093C011B093C1118091041280618093AE
:101F000004128DE493E0909388118093871180915F
:101F1000F61181508093F611882311F40C945B1F05
:101F200020910512309106128091930E9091940E9B
:101F3000A091950EB091960E820F931FA11DB11D19
:101F40008093930E9093940EA093950EB093960E5B
:101F5000E0918D0E81E08E0F80938D0EF0E0EE0FFC
:101F6000FF1FEE0FFF1FE357F54F80910312909173
:101F70000412A0910512B091061280839183A2836E
:101F8000B383DACE883124E0920711F40C94241C38
:101F900010F40C94021C8133E4E09E0751F1853368
:101FA000F4E09F0709F446C08632944009F0A6C6C3
:101FB0000E94AB5B81110FCCE0911612F0911712C9
:101FC000808191819093F3118093F211109202120B
:101FD0008091891185FFD2C01092081210920712C9
:101FE00084E080930F1281E394E0909388118093B2
:101FF00087110E94AB5B8111EECBE0911612F0913C
:10200000171280819181A281B3818093FD119093F9
:10201000FE11A093FF11B0930012109208121092BB
:10202000071281E080930F1285E394E0909388116A
:10203000809387110E94AB5B8111CDCBE09116128A
:10204000F0911712C081C09301128091770990918D
:102050007809959587959595879595958795959503
:1020600087952091000230910102821B930B97FF0C
:1020700002C00C94DE1F8436910514F40C94C61F24
:1020800020913C1130913D1140E050E06091FD11F4
:102090007091FE118091FF11909100120E94A48511
:1020A0009B01AC0104C05695479537952795CA9575
:1020B000D2F72130F0E13F074105510520F020E043
:1020C00030E140E050E02093F9113093FA11409351
:1020D000FB115093FC11213084E038074105510574
:1020E00010F40C94221F80912409882331F1A091CF
:1020F0002509B09126090E940586DC01CB017AE012
:10210000B695A795979587957A95D1F78093F9110C
:102110009093FA11A093FB11B093FC118091701170
:10212000909171118E3FEFEF9E0711F40C940E24E5
:102130000196909371118093701181E08093021247
:1021400080916E1190916F118E3FFFEF9F0711F4F8
:102150000C943722019690936F1180936E118091A9
:10216000F9119091FA11A091FB11B091FC11811518
:102170009240A105B10510F40C942E201092081283
:102180001092071282E080930F1283E894E09093FC
:102190008811809387110E94AB5B81111CCBE09169
:1021A0001612F0911712A081B181B0938D11A093F6
:1021B0008C1180910212882311F40C94BB1D209184
:1021C000F9113091FA114091FB115091FC110E94CC
:1021D0000586DC01CB016AE0B695A79597958795B2
:1021E0006A95D1F790930612809305121092081207
:1021F0001092071281E080930F128EE894E0909382
:102200008811809387110E94AB5B8111E4CAE09131
:102210001612F091171280818093041283E994E0E2
:1022200090938811809387118091F611815080934B
:10223000F611882311F40C94201E20910512309180
:1022400006128091930E9091940EA091950EB091EC
:10225000960E820F931FA11DB11D8093930E909334
:10226000940EA093950EB093960EE0918D0E81E0A2
:102270008E0F80938D0EF0E0EE0FFF1FEE0FFF1F0D
:10228000E357F54F8091031290910412A09105122B
:10229000B091061280839183A283B383809103124D
:1022A0008F73809303128091891190918A1186FD1A
:1022B00002C00C94E81D2091F2113091F3112150CD
:1022C00031093093F3112093F211232B09F030CB15
:1022D00091FF05C08091F81181110E942C2C109261
:1022E00088111092871177CA8D3EE4E09E0711F4A1
:1022F0000C94451D10F40C945C1C8730F5E09F078E
:1023000009F460C0803125E0920711F40C94681D37
:102310008D3F944009F0F2C40E94AB5B81115BCA0F
:10232000E0911612F091171280819181109204129F
:1023300020E533EC309306122093051233C0209130
:102340000512309106128091930E9091940EA091F7
:10235000950EB091960E820F931FA11DB11D809313
:10236000930E9093940EA093950EB093960E81E0E9
:102370008E0F80938D0EF0E0EE0FFF1FEE0FFF1F0C
:10238000E357F54F8091031290910412A09105122A
:10239000B091061280839183A283B3838091F4115C
:1023A0009091F5119C01215031093093F511209342
:1023B000F411892B09F493CF87E095E0909388116D
:1023C00080938711E0918D0E80918E0EFE2FF81B69
:1023D000FF3F09F0B4CFFFC9863623E0920711F41E
:1023E0000C94AC1B10F40C94511C8C37E3E09E074A
:1023F00009F4DBC08039F3E09F0711F40C94051A4F
:102400008F36934009F07AC40E94AB5B8111E3C917
:1024100080910212E0911612F0911712882311F4A4
:102420000C948F1FA0812091F9113091FA114091E5
:10243000FB115091FC11B0E00E940586DC01CB013C
:10244000EAE0B695A79597958795EA95D1F7909389
:10245000061280930512909193119093041280912B
:102460009211882311F40C947A1E4091AE11509170
:10247000AF116091B0117091B11177FF02C00C944F
:1024800055230091D6111091D7112091D811309178
:10249000D911400F511F621F731F4093AE1150930B
:1024A000AF116093B0117093B111916090930412C9
:1024B000813011F00C947A1E4091B6115091B711F1
:1024C0006091B8117091B91177FF02C00C949721F7
:1024D0000091DE111091DF112091E0113091E11196
:1024E000400F511F621F731F4093B6115093B711D5
:1024F0006093B8117093B911909104129460909305
:102500000412833039F14091BA115091BB1160919E
:10251000BC117091BD1177FF02C00C94AD210091E8
:10252000E2111091E3112091E4113091E511400F77
:10253000511F621F731F4093BA115093BB116093D8
:10254000BC117093BD119091041298609093041285
:10255000843029F18091BE119091BF11A091C011DA
:10256000B091C111B7FF02C00C94C2224091E61194
:102570005091E7116091E8117091E911840F951F56
:10258000A61FB71F8093BE119093BF11A093C011D7
:10259000B093C111809104128061809304128CE782
:1025A00093E090938811809387118091F611815068
:1025B0008093F611882311F40C94511F2091051279
:1025C000309106128091930E9091940EA091950EE9
:1025D000B091960E820F931FA11DB11D8093930E93
:1025E0009093940EA093950EB093960EE0918D0E5D
:1025F00081E08E0F80938D0EF0E0EE0FFF1FEE0F47
:10260000FF1FE357F54F8091031290910412A091A0
:102610000512B091061280839183A283B3838091C7
:102620009011909191110197909391118093901135
:10263000892B09F426C6109208121092071281E025
:1026400080930F128FE693E0909388118093871107
:102650000E94AB5B882309F4DBCEBDC88C3522E039
:10266000920709F4CCC008F040C3009711F40C9411
:102670007E1D8A33924009F041C30E94AB5B8111F9
:10268000AAC8E0911612F091171280818C3011F4D3
:102690000C94E62210F00C946D1F873009F4A9C049
:1026A0008B3011F40C94381D833011F40C94D82223
:1026B00090917D0A20917E0A392F321B3F3F41F1D4
:1026C000E1E0E90FE0937D0AA92FB0E0A558B64FED
:1026D00012961C923E2F321B3F3FD1F032E0390F51
:1026E00030937D0AF0E0E558F64F43E04283432FF4
:1026F00050E05093860A4093850A321B3F3F41F0D9
:102700009D5F90937D0AFA01E558F64F91E0928320
:1027100090917D0A492F50E05093840A4093830A98
:10272000392F321B3F3F11F40C9422249F5F90936A
:102730007D0ADA01A558B64F91E012969C93129744
:102740004091850A5091860AFA01FF27E558F64F15
:1027500092819F5F928312969C9112979F5F12962F
:102760009C93A0917D0A9A2F921B9F3F11F40C9489
:10277000322491E09A0F90937D0AB0E0A558B64FAD
:1027800035E012963C9332813F5F3283882311F407
:102790000C9412246091830A7091840AEB01DD2766
:1027A000C558D64F3A813F5F3A83392F321B3F3F9E
:1027B00011F40C942E2431E0390F30937D0AA92FA7
:1027C000B0E0A558B64F12968C9382818F5F8283BA
:1027D000321B3F3F11F40C941D246F3F7F4F11F0CB
:1027E0008FEF8A838091810A8F5F8093810A0E9494
:1027F000F3448CE592E09093881180938711809147
:102800008D0E90918E0E891B80958093F6118823F2
:1028100011F40C94EB0B109208121092071282E044
:1028200080930F1280E692E0909388118093871135
:102830000E94AB5B81110C94EB0BE0911612F091AE
:102840001712808191818093891190938A1187FF5B
:1028500003C08F798093031281E08093F711109267
:1028600008121092071280930F128DE692E0909357
:102870008811809387110E94AB5B81110C94EB0B44
:10288000E0911612F091171290819093921181E0CD
:1028900001C0880F9A95EAF780939311109208125D
:1028A0001092071284E080930F1286E792E09093D3
:1028B0008811809387110E94AB5B81110C94EB0B04
:1028C000E0911612F091171280819181A281B3815B
:1028D00080939A1190939B11A0939C11B0939D119A
:1028E000109208121092071284E080930F128AE768
:1028F00092E090938811809387110E94AB5B8111C5
:102900000C94EB0BE0911612F091171280819181DB
:10291000A281B38180939E1190939F11A093A011E7
:10292000B093A111109208121092071284E08093C4
:102930000F128EE792E090938811809387110E9486
:10294000AB5B81110C94EB0BE0911612F091171216
:1029500080819181A281B3818093A2119093A31170
:10296000A093A411B093A51110920812109207120F
:1029700084E080930F1282E892E090938811809314
:1029800087110E94AB5B81110C94EB0BE091161246
:10299000F091171280819181A281B3818093A61159
:1029A0009093A711A093A811B093A91110920812A7
:1029B0001092071284E080930F1286E892E09093C1
:1029C0008811809387110E94AB5B81110C94EB0BF3
:1029D000E0911612F091171280819181A281B3814A
:1029E0008093AA119093AB11A093AC11B093AD1149
:1029F000109208121092071282E080930F128AE858
:102A000092E090938811809387110E94AB5B8111B3
:102A10000C94EB0BE0911612F091171280819181CA
:102A200090938F1180938E111092081210920712BA
:102A300082E080930F128EE892E090938811809349
:102A400087110E94AB5B81110C94EB0BE091161285
:102A5000F091171280819181909391118093901140
:102A6000109202128091891190918A1190FFDEC01C
:102A7000109208121092071284E080930F1289E9D5
:102A800092E090938811809387110E94AB5B811133
:102A90000C94EB0BE0911612F0911712808191814A
:102AA000A281B3818093FD119093FE11A093FF1139
:102AB000B0930012109208121092071281E08093D6
:102AC0000F128DE992E090938811809387110E94F4
:102AD000AB5B81110C94EB0BE0911612F091171285
:102AE000C081C09301126091FD117091FE1180911F
:102AF000FF1190910012611571058105910511F486
:102B00000C94CC1E2091770930917809A901559534
:102B100047955595479555954795559547952091D6
:102B2000000230910102FA01E21BF30B9F01F7FF53
:102B300002C00C942F22E436F10514F40C949F206B
:102B400020913C1130913D1140E050E00E94A4855D
:102B50009B01AC0104C05695479537952795CA95BA
:102B6000D2F72130F0E13F074105510520F020E088
:102B700030E140E050E02093F9113093FA11409396
:102B8000FB115093FC11213084E0380741055105B9
:102B900010F40C94E61F80912409882331F1A09150
:102BA0002509B09126090E940586DC01CB01DAE0F7
:102BB000B695A79597958795DA95D1F78093F911F2
:102BC0009093FA11A093FB11B093FC1180917011B6
:102BD000909171118E3FEFEF9E0711F40C942A240F
:102BE0000196909371118093701181E0809302128D
:102BF00080916E1190916F118E3FFFEF9F0711F43E
:102C00000C940724019690936F1180936E1180911C
:102C1000F9119091FA11A091FB11B091FC1181155D
:102C20009240A105B10510F40C94262010920812D0
:102C30001092071282E080930F1283EF92E090933C
:102C40008811809387110E94AB5B81110C94EB0B70
:102C500080910212E0911612F0911712882309F464
:102C60005CC7A081B1812091F9113091FA11409196
:102C7000FB115091FC110E940586DC01CB01CAE0DA
:102C8000B695A79597958795CA95D1F79093951185
:102C900080939411109208121092071282E0809390
:102CA0000F128DEF92E090938811809387110E940C
:102CB000AB5B81110C94EB0BE0911612F0911712A3
:102CC00080819181909399118093981110920812AC
:102CD0001092071282E080930F1281E093E09093AC
:102CE0008811809387110C94090D803622E0920799
:102CF00009F49ECD8D36924009F4BDCD8FEF9FEF44
:102D0000909388118093871180E00C94EC0B809154
:102D1000961190919711892B09F4ACC280910312FE
:102D20008F7B80930312109208121092071282E098
:102D300080930F128CED93E090938811809387110C
:102D40000E94AB5B81110C94EB0B80910212E0911D
:102D50001612F0911712882311F40C94DD1EA08135
:102D6000B1812091F9113091FA114091FB115091EC
:102D7000FC110E940586DC01CB011AE0B695A795EF
:102D8000979587951A95D1F790930612809305121F
:102D90000E947A5A89EE93E090938811809387116C
:102DA0008091F61181508093F611882309F4FBC7B6
:102DB00020910512309106128091930E9091940EFD
:102DC000A091950EB091960E820F931FA11DB11D7B
:102DD0008093930E9093940EA093950EB093960EBD
:102DE000E0918D0E81E08E0F80938D0EF0E0EE0F5E
:102DF000FF1FEE0FFF1FE357F54F809103129091D5
:102E00000412A0910512B091061280839183A283CF
:102E1000B383809103128F77809303128091961170
:102E20009091971101979093971180939611892B08
:102E300009F420C2109208121092071282E08093C7
:102E40000F1282EF93E090938811809387110E9474
:102E5000AB5B81110C94EB0B80910212E091161286
:102E6000F0911712882311F40C947F1FA081B18177
:102E70002091F9113091FA114091FB115091FC1100
:102E80000E940586DC01CB01CAE0B695A79597950F
:102E90008795CA95D1F79093061280930512909169
:102EA00093119093041280919211882309F4D2C651
:102EB0004091AE115091AF116091B0117091B1116C
:102EC00077FF02C00C943F230091D6111091D711C7
:102ED0002091D8113091D911400F511F621F731FDB
:102EE0004093AE115093AF116093B0117093B11134
:102EF000916090930412813009F0ACC64091B611F4
:102F00005091B7116091B8117091B91177FF02C05B
:102F10000C9415210091DE111091DF112091E01128
:102F20003091E111400F511F621F731F4093B61182
:102F30005093B7116093B8117093B9119091041226
:102F4000946090930412833039F14091BA115091FA
:102F5000BB116091BC117091BD1177FF02C00C9440
:102F60002B210091E2111091E3112091E411309195
:102F7000E511400F511F621F731F4093BA11509308
:102F8000BB116093BC117093BD11909104129860B5
:102F900090930412843029F18091BE119091BF1159
:102FA000A091C011B091C111B7FF02C00C94AC2226
:102FB0004091E6115091E7116091E8117091E9118B
:102FC000840F951FA61FB71F8093BE119093BF114A
:102FD000A093C011B093C1118091041280618093BD
:102FE00004128FEF93E09093881180938711809162
:102FF000F61181508093F611882309F449C7209176
:103000000512309106128091930E9091940EA0912A
:10301000950EB091960E820F931FA11DB11D809346
:10302000930E9093940EA093950EB093960EE0910C
:103030008D0E81E08E0F80938D0EF0E0EE0FFF1F5E
:10304000EE0FFF1FE357F54F80910312909104128A
:10305000A0910512B091061280839183A283B3835D
:10306000DDCE8091F61181508093F611882309F40A
:10307000F8C020910512309106128091930E909124
:10308000940EA091950EB091960E820F931FA11DE4
:10309000B11D8093930E9093940EA093950EB093D0
:1030A000960EE0918D0E81E08E0F80938D0EF0E0F4
:1030B000EE0FFF1FEE0FFF1FE357F54F8091031236
:1030C00090910412A0910512B09106128083918311
:1030D000A283B3838091EE119091EF11A091F01132
:1030E000B091F1110197A109B1098093EE1190936C
:1030F000EF11A093F011B093F111892B8A2B8B2B38
:1031000009F4C2C19091931190930412809192118D
:10311000882309F414C74091AE115091AF1160910A
:10312000B0117091B11177FF02C00C94F12300919E
:10313000D6111091D7112091D8113091D911400F8B
:10314000511F621F731F4093AE115093AF116093D4
:10315000B0117093B111916090930412813009F015
:10316000EEC64091B6115091B7116091B8117091AF
:10317000B91177FF02C00C94C5230091DE111091A4
:10318000DF112091E0113091E111400F511F621FBA
:10319000731F4093B6115093B7116093B811709399
:1031A000B91190910412946090930412833039F114
:1031B0004091BA115091BB116091BC117091BD1139
:1031C00077FF02C00C949A230091E2111091E31151
:1031D0002091E4113091E511400F511F621F731FC0
:1031E0004093BA115093BB116093BC117093BD1101
:1031F00090910412986090930412843029F1809188
:10320000BE119091BF11A091C011B091C111B7FF33
:1032100002C00C94DB234091E6115091E7116091BC
:10322000E8117091E911840F951FA61FB71F8093B5
:10323000BE119093BF11A093C011B093C1118091A2
:1032400004128061809304128BE993E090938811BB
:10325000809387118091F61181508093F61181112E
:1032600008CF86EF91E10E947552882311F40C94E7
:10327000EB0BFFCE8091891190918A1192FD2AC8A3
:103280002EC88091EE119091EF11A091F011B091A4
:10329000F111892B8A2B8B2B09F4F6C080918911AF
:1032A00090918A1191FF05C08091031280648093F0
:1032B000031280919411909195119093061280932E
:1032C000051290919311909304128091921188238A
:1032D00009F457C44091AE115091AF116091B011F3
:1032E0007091B11177FF02C00C9466220091D61143
:1032F0001091D7112091D8113091D911400F511F41
:10330000621F731F4093AE115093AF116093B011C1
:103310007093B111916090930412813009F031C41F
:103320004091B6115091B7116091B8117091B911D7
:1033300077FDDBC60091DE111091DF112091E011C5
:103340003091E111400F511F621F731F4093B6115E
:103350005093B7116093B8117093B9119091041202
:10336000946090930412833029F14091BA115091E6
:10337000BB116091BC117091BD1177FDEBC600913E
:10338000E2111091E3112091E4113091E511400F09
:10339000511F621F731F4093BA115093BB1160936A
:1033A000BC117093BD119091041298609093041217
:1033B000843029F18091BE119091BF11A091C0116C
:1033C000B091C111B7FF02C00C9419224091E611CF
:1033D0005091E7116091E8117091E911840F951FE8
:1033E000A61FB71F8093BE119093BF11A093C01169
:1033F000B093C1118091041280618093041280E91E
:1034000093E090938811809387118091F6118150F9
:103410008093F611882309F4F1C4209105123091AC
:1034200006128091930E9091940EA091950EB091FA
:10343000960E820F931FA11DB11D8093930E909342
:10344000940EA093950EB093960EE0918D0E81E0B0
:103450008E0F80938D0EF0E0EE0FFF1FEE0FFF1F1B
:10346000E357F54F8091031290910412A091051239
:10347000B091061280839183A283B383809103125B
:103480008F778093031226CE809198119091991195
:10349000892B09F43CCC809103128F7B809303121B
:1034A000109208121092071281E080930F128DEA99
:1034B00093E090938811809387110E94AB5B8111F8
:1034C0000C94EB0B80910212E0911612F0911712FE
:1034D000882309F483C4A0812091F9113091FA1155
:1034E0004091FB115091FC11B0E00E940586DC0177
:1034F000CB014AE0B695A795979587954A95D1F760
:1035000090930612809305120E947A5A8AEB93E0F8
:1035100090938811809387118091F6118150809348
:10352000F611882309F451C4209105123091061236
:103530008091930E9091940EA091950EB091960E5D
:10354000820F931FA11DB11D8093930E9093940E33
:10355000A093950EB093960EE0918D0E81E08E0FA4
:1035600080938D0EF0E0EE0FFF1FEE0FFF1FE3576D
:10357000F54F8091031290910412A0910512B09121
:10358000061280839183A283B383809103128F7785
:10359000809303120C94F30A8091901190919111F1
:1035A000892B09F46ECE809103128F7B80930312D6
:1035B000109208121092071281E080930F1289E591
:1035C00093E090938811809387110E94AB5B8111E7
:1035D0000C94EB0B80910212E0911612F0911712ED
:1035E000882309F414C4A0812091F9113091FA11B3
:1035F0004091FB115091FC11B0E00E940586DC0166
:10360000CB01CAE0B695A79597958795CA95D1F74E
:103610009093061280930512909193119093041247
:1036200080919211882309F47FC24091AE1150918C
:10363000AF116091B0117091B11177FD32C7009157
:10364000D6111091D7112091D8113091D911400F76
:10365000511F621F731F4093AE115093AF116093BF
:10366000B0117093B111916090930412813009F000
:103670005BC24091B6115091B7116091B811709131
:10368000B91177FD1DC50091DE111091DF11209158
:10369000E0113091E111400F511F621F731F4093E1
:1036A000B6115093B7116093B8117093B9119091FE
:1036B0000412946090930412833029F14091BA115E
:1036C0005091BB116091BC117091BD1177FDE3C4A5
:1036D0000091E2111091E3112091E4113091E51174
:1036E000400F511F621F731F4093BA115093BB11BB
:1036F0006093BC117093BD119091041298609093E7
:103700000412843019F18091BE119091BF11A091E3
:10371000C011B091C111B7FD77C64091E61150912B
:10372000E7116091E8117091E911840F951FA61FB0
:10373000B71F8093BE119093BF11A093C011B09397
:10374000C1118091041280618093041286E693E097
:1037500090938811809387118091F6118150809306
:10376000F611882309F441C3209105123091061205
:103770008091930E9091940EA091950EB091960E1B
:10378000820F931FA11DB11D8093930E9093940EF1
:10379000A093950EB093960EE0918D0E81E08E0F62
:1037A00080938D0EF0E0EE0FFF1FEE0FFF1FE3572B
:1037B000F54F8091031290910412A0910512B091DF
:1037C000061280839183A283B383809103128F7743
:1037D000809303120C940F138D3AE3E09E0709F4D3
:1037E0006CCE8A3B934009F497CE88CA8E38F4E0B9
:1037F0009F0711F40C9403118339944011F40C9435
:1038000014117CCA8F3FF3E09F0709F4F0CB843199
:10381000944009F073CA80918D0E90918E0E891B91
:1038200080958093F611882311F40C94EB0B109281
:1038300008121092071282E080930F1288E194E040
:1038400090938811809387110E94AB5B81110C9437
:10385000EB0BE0911612F091171280819181809309
:10386000891190938A1187FF03C08F798093031287
:10387000109208121092071282E080930F1286E2D3
:1038800094E090938811809387110C94D80F8A3715
:10389000E2E09E0709F431C88E37924009F44FC820
:1038A0002DCA8D34F3E09F0711F40C94870F8935EE
:1038B000934009F48ACE22CA8D3C24E0920701F19C
:1038C000843E944009F01ACA0E94AB5B81110C94AB
:1038D000EB0BE0911612F0911712D181C081D1113A
:1038E00010C71092791110927A1110927B111092D8
:1038F0007C116C2F70E089E00E9436540C946F119B
:103900008091F61181508093F611882309F497C0B5
:1039100020910512309106128091930E9091940E91
:10392000A091950EB091960E820F931FA11DB11D0F
:103930008093930E9093940EA093950EB093960E51
:10394000E0918D0E81E08E0F80938D0EF0E0EE0FF2
:10395000FF1FEE0FFF1FE357F54F80910312909169
:103960000412A0910512B091061280839183A28364
:10397000B3838091F2119091F31101979093F31119
:103980008093F211892B09F46DC0109208121092E5
:10399000071282E080930F128EEB94E090938811CF
:1039A000809387110E94AB5B81110C94EB0B80918B
:1039B0000212E0911612F0911712882309F4F1C255
:1039C000A081B1812091F9113091FA114091FB1140
:1039D0005091FC110E940586DC01CB012AE0B695CE
:1039E000A795979587952A95D1F79093061280937E
:1039F0000512109208121092071281E080930F12A4
:103A000088EC94E090938811809387110E94AB5BBF
:103A100081110C94EB0BE0911612F091171280813A
:103A2000809304128DEC94E0909388118093871119
:103A30008091F61181508093F611811169CF86EF44
:103A400091E10E947552882311F40C94EB0B60CF26
:103A50008D39E2E09E0709F43AC8833F924009F4A9
:103A6000F2C84CC98091891190918A110C94681107
:103A7000109208121092071283E080930F128DEEBD
:103A800094E090938811809387110E94AB5B811121
:103A90000C94EB0BE0911612F09117126181728178
:103AA00040E080810E9489571092881110928711FE
:103AB00081E00C94EC0B109208121092071284E033
:103AC00080930F1280E195E0909388118093871185
:103AD0000E94AB5B81110C94EB0BE0911612F091FC
:103AE000171261817281438180810E9489571092EF
:103AF00088111092871181E00C94EC0B109208123F
:103B00001092071281E080930F128AE392E0909363
:103B10008811809387110C943D138081918190933B
:103B2000951180939411B6C84091B2115091B31180
:103B30006091B4117091B51177FD98C20091DA11BE
:103B40001091DB112091DC113091DD11400F511FDC
:103B5000621F731F4093B2115093B3116093B4115D
:103B60007093B51190910412926090930412823078
:103B700009F07FCDA3CDB0930612A09305120C944B
:103B8000F6104091B2115091B3116091B41170913F
:103B9000B51177FDBFC20091DA111091DB112091B0
:103BA000DC113091DD11400F511F621F731F4093D4
:103BB000B2115093B3116093B4117093B5119091F9
:103BC0000412926090930412823009F0A9CBCDCBFD
:103BD0002091F2113091F311215031093093F311FA
:103BE0002093F211232B11F40C946811CECE409146
:103BF000B2115091B3116091B4117091B51177FD6C
:103C0000BEC20091DA111091DB112091DC113091CC
:103C1000DD11400F511F621F731F4093B21150936B
:103C2000B3116093B4117093B51190910412926026
:103C300090930412823011F00C94E40D0C940B0E4E
:103C400086EF91E10E947552882311F40C94EB0BDE
:103C50000C941D114091B2115091B3116091B411A7
:103C60007091B51177FD39C30091DA111091DB1114
:103C70002091DC113091DD11400F511F621F731F25
:103C80004093B2115093B3116093B4117093B51176
:103C900090910412926090930412823009F02EC920
:103CA00054C94091B2115091B3116091B411709107
:103CB000B51177FDA5C20091DA111091DB112091A9
:103CC000DC113091DD11400F511F621F731F4093B3
:103CD000B2115093B3116093B4117093B5119091D8
:103CE0000412926090930412823011F00C94650BD0
:103CF0000C948C0B4091B2115091B3116091B4119E
:103D00007091B51177FDFEC20091DA111091DB11AF
:103D10002091DC113091DD11400F511F621F731F84
:103D20004093B2115093B3116093B4117093B511D5
:103D300090910412926090930412823011F00C94CE
:103D40005C120C9483124091B2115091B3116091A6
:103D5000B4117091B51177FD42C30091DA11109141
:103D6000DB112091DC113091DD11400F511F621FDA
:103D7000731F4093B2115093B3116093B4117093B9
:103D8000B51190910412926090930412823011F058
:103D90000C940E0F0C94350F8091021281110C942B
:103DA00007160C94161686EF91E10E94755288232F
:103DB00011F40C94EB0B0C94D816808191819093A4
:103DC0000612809305120C94C81686EF91E10E94AA
:103DD0007552882311F40C94EB0BA6CB808190E0F4
:103DE00090930612809305128FCB86EF91E10E948B
:103DF0007552882311F40C94EB0BB6CC86EF91E14D
:103E00000E947552882311F40C94EB0B06CB808131
:103E100090E09093061280930512FECB86EF91E11D
:103E20000E947552882311F40C94EB0B0C945A0CDD
:103E300086EF91E10E947552882311F40C94EB0BEC
:103E40000C94660E80912409882309F4E5C08091C2
:103E5000250990912609A0E0B0E08093F911909394
:103E6000FA11A093FB11B093FC1181E08093021230
:103E700080917011909171118E3F2FEF920709F48C
:103E8000CAC4019690937111809370110C94AF1075
:103E900086EF91E10E947552882311F40C94EB0B8C
:103EA000AEC886EF91E10E947552882311F40C94FC
:103EB000EB0B0C94DE1286EF91E10E947552882381
:103EC00011F40C94EB0B0C94900F808191819093E2
:103ED0000612809305120C94B30D813109F4EBCDD9
:103EE000873711F40C946F118D3011F00C94581326
:103EF00084E194E090938811809387118CCC808129
:103F0000918190930612809305120C944F17808133
:103F100090E090930612809305120C94340B8081EC
:103F200090E090930612809305120C942B128081DE
:103F3000918190930612809305120C94DD0E4091AE
:103F4000B2115091B3116091B4117091B51177FD18
:103F500007C40091DA111091DB112091DC1130912E
:103F6000DD11400F511F621F731F4093B211509318
:103F7000B3116093B4117093B511909104129260D3
:103F800090930412823009F0ECC812C9880F991F6F
:103F9000FC01EA58FF4E2081318140E050E00C9452
:103FA000461080819181909306128093051221CD55
:103FB000B0930612A09305120C94D70C20917610A2
:103FC0003091771040E050E00C9446108091240925
:103FD000882309F491C28091250990912609A0E0D7
:103FE000B0E08093F9119093FA11A093FB11B09374
:103FF000FC1181E0809302128091701190917111F7
:104000008E3F2FEF920709F422C40196909371110D
:10401000809370110C94071680916011882309F425
:10402000E4C28091611190916211A0916311B091ED
:1040300064118093F9119093FA11A093FB11B0933E
:10404000FC1121E0209302120C94B71063E172E09E
:104050008DEE92E00E9459460C94161663E172E0D0
:104060008CE794E00E9459460C94BE100091C61152
:104070001091C7112091C8113091C911400F511FE3
:10408000621F731F4093B2115093B3116093B41128
:104090007093B5116CCD0091CE111091CF1120917C
:1040A000D0113091D111400F511F621F731F4093E7
:1040B000BA115093BB116093BC117093BD1121CB09
:1040C0000091CA111091CB112091CC113091CD11DA
:1040D000400F511F621F731F4093B6115093B711C9
:1040E0006093B8117093B911E7CA0091CA11109189
:1040F000CB112091CC113091CD11400F511F621F77
:10410000731F4093B6115093B7116093B811709319
:10411000B91129C90091C6111091C7112091C81178
:104120003091C911400F511F621F731F4093B2118C
:104130005093B3116093B4117093B51145CD220F14
:10414000331FF901EA58FF4E2081318140E050E0F1
:104150000C94A6150091CE111091CF112091D01181
:104160003091D111400F511F621F731F4093BA113C
:104170005093BB116093BC117093BD1119C900918C
:10418000C6111091C7112091C8113091C911400F6B
:10419000511F621F731F4093B2115093B31160936C
:1041A000B4117093B51146CD0091CA111091CB1185
:1041B0002091CC113091CD11400F511F621F731F00
:1041C0004093B6115093B7116093B8117093B91121
:1041D0000C94090E0091CE111091CF112091D011A5
:1041E0003091D111400F511F621F731F4093BA11BC
:1041F0005093BB116093BC117093BD110C94300EA1
:104200000091C6111091C7112091C8113091C911A8
:10421000400F511F621F731F4093B2115093B3118F
:104220006093B4117093B5115FCD0091CA111091D4
:10423000CB112091CC113091CD11400F511F621F35
:10424000731F4093B6115093B7116093B8117093D8
:10425000B9110C94A3170091CE111091CF11209198
:10426000D0113091D111400F511F621F731F409325
:10427000BA115093BB116093BC117093BD110C9493
:10428000CA170091CA111091CB112091CC11309115
:10429000CD11400F511F621F731F4093B6115093F1
:1042A000B7116093B8117093B9110C948A0B0091F7
:1042B000CE111091CF112091D0113091D111400F1A
:1042C000511F621F731F4093BA115093BB1160932B
:1042D000BC117093BD110C94B10B0091C6111091DB
:1042E000C7112091C8113091C911400F511F621F91
:1042F000731F4093B2115093B3116093B411709334
:10430000B511CBCC0091C6111091C7112091C811E5
:104310003091C911400F511F621F731F4093B2119A
:104320005093B3116093B4117093B51106CD009101
:10433000CA111091CB112091CC113091CD11400FA9
:10434000511F621F731F4093B6115093B7116093B2
:10435000B8117093B9110C9481120091CE11109183
:10436000CF112091D0113091D111400F511F621FF8
:10437000731F4093BA115093BB116093BC1170939B
:10438000BD110C94A8120091CA111091CB1120916B
:10439000CC113091CD11400F511F621F731F4093FC
:1043A000B6115093B7116093B8117093B9110C9472
:1043B000330F0091CE111091CF112091D011309177
:1043C000D111400F511F621F731F4093BA115093B8
:1043D000BB116093BC117093BD110C945A0F0091E6
:1043E000C6111091C7112091C8113091C911400F09
:1043F000511F621F731F4093B2115093B31160930A
:10440000B4117093B511C2CC4091D2115091D31117
:104410006091D4117091D511840F951FA61FB71FFD
:104420008093BE119093BF11A093C011B093C1119E
:104430008DC94091D2115091D3116091D4117091D6
:10444000D511840F951FA61FB71F8093BE1190939F
:10445000BF11A093C011B093C1110C94FF1920910A
:1044600076103091771040E050E00C94A6158FEF55
:104470009FEF0C94AB104091D2115091D3116091E9
:10448000D4117091D511840F951FA61FB71F80936B
:10449000BE119093BF11A093C011B093C1110C94A1
:1044A000570E0091C2111091C3112091C411309187
:1044B000C511400F511F621F731F4093AE115093DF
:1044C000AF116093B0117093B111D0C80091C211B7
:1044D0001091C3112091C4113091C511400F511F8B
:1044E000621F731F4093AE115093AF116093B011D0
:1044F0007093B1110C948D1980916011882309F487
:104500004BCC8091611190916211A0916311B09197
:1045100064118093F9119093FA11A093FB11B09359
:10452000FC1121E0209302120C940F164091D2113D
:104530005091D3116091D4117091D511840F951FB2
:10454000A61FB71F8093BE119093BF11A093C011F7
:10455000B093C1110C94D80B4091D2115091D3114A
:104560006091D4117091D511840F951FA61FB71FAC
:104570008093BE119093BF11A093C011B093C1114D
:104580000C94F1174091D2115091D3116091D41134
:104590007091D511840F951FA61FB71F8093BE1170
:1045A0009093BF11A093C011B093C1110C94CF127E
:1045B000109208121092071282E080930F1284EE7C
:1045C00094E090938811809387117EC9109208120D
:1045D0001092071282E080930F128DEF94E0909377
:1045E0008811809387110C948C118091021288237A
:1045F00011F40C94BE100C94AF100091C2111091E4
:10460000C3112091C4113091C511400F511F621F79
:10461000731F4093AE115093AF116093B01170931C
:10462000B1110C94E00D4091D2115091D3116091D1
:10463000D4117091D511840F951FA61FB71F8093B9
:10464000BE119093BF11A093C011B093C1110C94EF
:10465000810F0091C2111091C3112091C4113091AA
:10466000C511400F511F621F731F4093AE1150932D
:10467000AF116093B0117093B1110C94610B009164
:10468000C2111091C3112091C4113091C511400F76
:10469000511F621F731F4093AE115093AF1160936F
:1046A000B0117093B1110C947B170091C21110914D
:1046B000C3112091C4113091C511400F511F621FC9
:1046C000731F4093AE115093AF116093B01170936C
:1046D000B1110C9458120091C2111091C311209184
:1046E000C4113091C511400F511F621F731F4093B9
:1046F000AE115093AF116093B0117093B1110C943F
:104700000A0F6FEF70E089E00E943654C093781171
:104710000E943055DC01CB018D0F911DA11DB11DF3
:104720008093791190937A11A0937B11B0937C11AF
:104730000C946F110091CE111091CF112091D011D6
:104740003091D111400F511F621F731F4093BA1156
:104750005093BB116093BC117093BD110C94FD1864
:104760000091C6111091C7112091C8113091C91143
:10477000400F511F621F731F4093B2115093B3112A
:104780006093B4117093B511FDCB0091CA111091D3
:10479000CB112091CC113091CD11400F511F621FD0
:1047A000731F4093B6115093B7116093B811709373
:1047B000B9110C94D6184091D2115091D311609137
:1047C000D4117091D511840F951FA61FB71F809328
:1047D000BE119093BF11A093C011B093C1110C945E
:1047E00024190091C2111091C3112091C41130916C
:1047F000C511400F511F621F731F4093AE1150939C
:10480000AF116093B0117093B1110C94AE188FEF8B
:104810009FEF0C9403168FEF9FEF34CB8FEF9FEF3A
:104820000C9499106FEF7FEF7093840A6093830A62
:10483000921B9F3F11F00C94F213425040937D0A5B
:104840000C94F713DA01A558B64F0C94A0138FEF10
:104850009FEFDCCB8FEF9FEF0C94F11582818F5F80
:104860008283EBCF92819F5F92839A2F0C94C61321
:104870002F923F924F925F926F927F928F929F9270
:10488000AF92BF92DF92EF92FF920F931F93CF935D
:10489000DF93CDB7DEB760970FB6F894DEBF0FBEDB
:1048A000CDBFF89498E288E10FB6F894A89580936C
:1048B00060000FBE90936000809181008F7E809396
:1048C00081008091810088608093810080918000C8
:1048D0008D7F80938000809180008E7F8093800008
:1048E000809180008F7380938000809180008F7C06
:1048F0008093800080918100887F82608093810016
:1049000080E090E4909389008093880090938B00DE
:1049100080938A001092850010928400EAEBF3E104
:10492000849190E0880F991FFC01EC58FC4E259172
:10493000349130936B0220936A02FC01E658FB4EDF
:104940002591349130934E0220934D02805A9B4E14
:10495000FC01859194919093690280936802E0E054
:10496000F4E1E491E0934C029FB7F894E09168027F
:10497000F0916902208180914C02822B80839FBF3D
:104980002FB7F894E0914D02F0914E028081909102
:104990004C029095892380832FBFE5E9F3E1849150
:1049A00090E0880F991FFC01EC58FC4E2591349142
:1049B00030936F0220936E02FC01E658FB4E259166
:1049C00034913093FD122093FC12805A9B4EFC01CF
:1049D0008591949190936D0280936C02EBEDF3E1DD
:1049E000E491E093FB129FB7F894E0916C02F09190
:1049F0006D0220818091FB12822B80839FBF2FB795
:104A0000F894E091FC12F091FD1280819091FB12DC
:104A10009095892380832FBFE7E9F3E1849190E0AB
:104A2000880F991FFC01EC58FC4E2591349130936E
:104A3000760220937502FC01E658FB4E25913491D5
:104A40003093740220937302805A9B4EFC0185912F
:104A500094919093720280937102EDEDF3E1E491F1
:104A6000E09370029FB7F894E0917102F0917202A6
:104A7000208180917002822B80839FBF9FB7F89422
:104A8000E0917C02F0917D02208180917B02822B5B
:104A900080839FBFE3ECF3E1849190E0880F991F3E
:104AA000FC01EC58FC4E2591349130937A0220930E
:104AB0007902FC01E658FB4E2591349130937D023A
:104AC00020937C02805A9B4EFC0185919491909397
:104AD000780280937702E9E0F4E1E491E0937B02CD
:104AE0009FB7F894E0917702F0917802208180914D
:104AF0007B02822B80839FBF9FB7F894E0917C025A
:104B0000F0917D02208180917B02822B80839FBF68
:104B10009FB7F894E0911912F0911A1220818091B8
:104B20001812822B80839FBFE9E9F3E1849190E022
:104B3000880F991FFC01EC58FC4E2591349130935D
:104B4000810220938002FC01E658FB4E25913491AE
:104B500030931A1220931912805A9B4EFC018591B2
:104B6000949190937F0280937E02EFEDF3E1E491C4
:104B7000E09318129FB7F894E0917E02F0917F02C3
:104B8000208180911812822B80839FBF9FB7F89459
:104B9000E0911912F0911A12208180911812822B43
:104BA00080839FBFE2ECF3E1849190E0880F991F2E
:104BB000FC01EC58FC4E25913491309385022093F2
:104BC0008402FC01E658FB4E259134913093880213
:104BD00020938702805A9B4EFC018591949190937B
:104BE000830280938202E8E0F4E1E491E09386029C
:104BF0009FB7F894E0918202F09183022081809126
:104C00008602822B80839FBF2FB7F894E0918702A2
:104C1000F09188028081909186029095892380830B
:104C20002FBFE1ECF3E1849190E0880F991FFC0124
:104C3000EC58FC4E2591349130938C0220938B02DA
:104C4000FC01E658FB4E2591349130938F0220935E
:104C50008E02805A9B4EFC018591949190938A021A
:104C600080938902E7E0F4E1E491E0938D029FB73D
:104C7000F894E0918902F0918A02208180918D025E
:104C8000822B80839FBF2FB7F894E0918E02F09122
:104C90008F02808190918D029095892380832FBF10
:104CA00062E082E30E94F5531092C0001092C500AA
:104CB00081E08093C4008091C10080618093C10035
:104CC0008091C10088608093C1008091C10080689C
:104CD0008093C100E8E9F3E1849190E0880F991F87
:104CE000FC01EC58FC4E259134913093ED12209349
:104CF000EC12FC01E658FB4E259134913093EB12F7
:104D00002093EA12805A9B4EFC01859194919093D6
:104D1000E9128093E812EEEDF3E1E491E093E712FB
:104D20009FB7F894E091E812F091E9122081809108
:104D3000E712822B80839FBFE6E9F3E1849190E044
:104D4000880F991FFC01EC58FC4E2591349130934B
:104D5000E6122093E512FC01E658FB4E25913491B2
:104D60003093E4122093E312805A9B4EFC0185910C
:104D700094919093E2128093E112ECEDF3E1E491CF
:104D8000E093E0129FB7F894E091E112F091E21203
:104D900020818091E012822B80839FBF2FB7F894EF
:104DA000E091E312F091E41280819091E0129095ED
:104DB000892380832FBF10927E0010927D00809106
:104DC0007D00806280937D0080917D00806480936F
:104DD0007D0087EC80937A0080917A0086FDFCCF7D
:104DE0001092230F1092240F1092250F1092260F6D
:104DF0001092270F1092280F1092290F10922A0F4D
:104E000010922B0F10922C0F10922D0F10922E0F2C
:104E100010922F0F80E590E09093780980937709A6
:104E200082E39FE09093220F8093210F819A899AC9
:104E3000879A8F9880910A01826080930A018091FD
:104E40000B018D7F80930B013B9A43980E9A169825
:104E50009FB7F894E091D412F091D51220818091FF
:104E6000D312822B80839FBFE4EBF3E1849190E027
:104E7000880F991FFC01EC58FC4E2591349130931A
:104E8000930220939202FC01E658FB4E2591349147
:104E90003093D5122093D412805A9B4EFC018591F9
:104EA00094919093910280939002EAEFF3E1E49160
:104EB000E093D3129FB7F894E0919002F0919102A1
:104EC00020818091D312822B80839FBF9FB7F8945B
:104ED000E091D412F091D51220818091D312822BCF
:104EE00080839FBF9FB7F894E091D112F091D212C6
:104EF00020818091D012822B80839FBFE6ECF3E16A
:104F0000849190E0880F991FFC01EC58FC4E25918C
:104F100034913093970220939602FC01E658FB4EA1
:104F2000259134913093D2122093D112805A9B4E06
:104F3000FC01859194919093950280939402ECE00A
:104F4000F4E1E491E093D0129FB7F894E0919402D9
:104F5000F091950220818091D012822B80839FBF97
:104F60009FB7F894E091D112F091D21220818091F4
:104F7000D012822B80839FBF9FB7F894E091CE120E
:104F8000F091CF1220818091CD12822B80839FBF20
:104F9000ECECF3E1849190E0880F991FFC01EC5850
:104FA000FC4E2591349130939B0220939A02FC0190
:104FB000E658FB4E259134913093CF122093CE12B8
:104FC000805A9B4EFC018591949190939902809315
:104FD0009802E2E1F4E1E491E093CD129FB7F894F6
:104FE000E0919802F091990220818091CD12822B5C
:104FF00080839FBF9FB7F894E091CE12F091CF12BB
:1050000020818091CD12822B80839FBF9FB7F8941F
:10501000E091CB12F091CC1220818091CA12822BA8
:1050200080839FBFECEAF3E1849190E0880F991FA1
:10503000FC01EC58FC4E2591349130939F02209353
:105040009E02FC01E658FB4E259134913093CC1220
:105050002093CB12805A9B4EFC01859194919093A2
:105060009D0280939C02E2EFF3E1E491E093CA1287
:105070009FB7F894E0919C02F0919D02208180916D
:10508000CA12822B80839FBF9FB7F894E091CB1206
:10509000F091CC1220818091CA12822B80839FBF15
:1050A0009FB7F894E091C812F091C91220818091C5
:1050B000C712822B80839FBFE6EAF3E1849190E0E0
:1050C000880F991FFC01EC58FC4E259134913093C8
:1050D000A3022093A202FC01E658FB4E25913491D5
:1050E0003093C9122093C812805A9B4EFC018591BF
:1050F00094919093A1028093A002ECEEF3E1E491ED
:10510000E093C7129FB7F894E091A002F091A1023A
:1051100020818091C712822B80839FBF9FB7F89414
:10512000E091C812F091C91220818091C712822BA0
:1051300080839FBFE1E9F3E1849190E0880F991F9C
:10514000FC01EC58FC4E259134913093C61220930B
:10515000C512FC01E658FB4E259134913093A7020D
:105160002093A602805A9B4EFC01859194919093C6
:10517000A5028093A402E7EDF3E1E491E093C41269
:105180002FB7F894E091A402F091A502808190914C
:10519000C4129095892380832FBF9FB7F894E09124
:1051A000A602F091A70220818091C412822B8083F5
:1051B0009FBFE8EBF3E1849190E0880F991FFC0119
:1051C000EC58FC4E259134913093B3122093B212D7
:1051D000FC01E658FB4E259134913093AB022093AD
:1051E000AA02805A9B4EFC01859194919093A9024A
:1051F0008093A802EEEFF3E1E491E093B1122FB7B0
:10520000F894E091A802F091A90280819091B112E6
:105210009095892380832FBF9FB7F894E091AA02CD
:10522000F091AB0220818091B112822B80839FBFCD
:10523000E0EAF3E1849190E0880F991FFC01EC58BB
:10524000FC4E259134913093B0122093AF12FC01A3
:10525000E658FB4E259134913093AF022093AE0275
:10526000805A9B4EFC01859194919093AD0280935E
:10527000AC02E6EEF3E1E491E093AE122FB7F894BE
:10528000E091AC02F091AD0280819091AE129095C8
:10529000892380832FBF9FB7F894E091AE02F091ED
:1052A000AF0220818091AE12822B80839FBFE9EBF9
:1052B000F3E1849190E0880F991FFC01EC58FC4EBB
:1052C000259134913093AD122093AC12FC01E65835
:1052D000FB4E259134913093B3022093B202805A51
:1052E0009B4EFC01859194919093B1028093B00202
:1052F000EFEFF3E1E491E093AB122FB7F894E09174
:10530000B002F091B10280819091AB129095892307
:1053100080832FBF9FB7F894E091B202F091B3025F
:1053200020818091AB12822B80839FBF809A8898C6
:10533000869A8E9880910A01886080930A018091F4
:105340000B01877F80930B01399A41980C9A14982E
:105350007894D12C50EA252E312C1092B90210925B
:10536000B6021092BB028FEB92E09093B80280934A
:10537000B7020E9430554B015C010091B7021091B9
:10538000B80285E3F801828361E00E94F55361E091
:10539000F80182810E94C253E091B702F091B802F5
:1053A00082E5808311828091B902882309F483C148
:1053B000E091B702F091B80261E082810E94C2538D
:1053C0008AE09FEF9EBD0DB407FEFDCF8150D1F75F
:1053D000E091B702F091B80260E082810E94C2536E
:1053E0000AE07DEFF72E1FEF20E030E0A90160E03A
:1053F00086EB92E00E94DA52813009F46CC10150D0
:1054000071F0FEBC0DB407FEFDCF88E092E01EBD3A
:105410000DB407FEFDCF2EB50197C9F7E5CF80E2A9
:105420008093B6028091B902882321F086EB92E046
:105430000E94A6446091B60270E080E090E00E9475
:1054400098576091810A83E0682E712C01E010E08A
:1054500092E0892E912C24E0A22EB12C44244A946F
:10546000542C42E7E42EF12C662389F180917B09CC
:1054700090917C098B37910509F468C008F4EAC063
:10548000833A910509F4C9C008F410C1863A910520
:1054900009F4D1C0893A910509F0E4C061506093E4
:1054A000810A61110EC090917D0A80917E0A981741
:1054B00041F068E072E08EEA90E00E945946609107
:1054C000810A10927C0910927B096111CFCF109252
:1054D000810A10927E0A10927D0AA89568EB7BE003
:1054E00080E090E00E94F954D394F5E0DF1235CFCC
:1054F00068E083E00E94A0410E94F3440E9430557E
:1055000060931B1270931C1280931D1290931E12B5
:1055100060960FB6F894DEBF0FBECDBFDF91CF917E
:105520001F910F91FF90EF90DF90BF90AF909F90F1
:105530008F907F906F905F904F903F902F90089545
:105540008BE790E090937C0980937B098091C00069
:1055500085FF8ACF2091820A2093C600E0917E0ABF
:10556000EF5FE0937E0A80917F0A9091800A822704
:10557000082E8295807F8025092E982F82958F7026
:105580000826869598278927880F880F880F8025F9
:105590009093800A80937F0A20917D0AE21761F040
:1055A000F0E0E558F64F82818093820A8111C8CFDE
:1055B00080917F0A9091800A492F552750938A0A3B
:1055C0004093890A9C01332730938C0A20938B0ADD
:1055D000892B09F075C0B092880AA092870A4F5FA4
:1055E0005F4F50938A0A4093890A2F5F3F4F309351
:1055F0008C0A20938B0A30927C0920927B0980913F
:10560000C00085FF31CF8091870A8093C600E3EA0E
:10561000F0E0F0937C09E0937B098091C00085FF66
:1056200023CF80918B0A8093C60086EA90E0909306
:105630007C0980937B098091C00085FF15CF809104
:10564000890A8093C600E9EAF0E0F0937C09E093D0
:105650007B0924CF8C36910551F082379105B9F042
:10566000892B29F050927C0940927B09FDCEE09174
:105670007E0A81E08E0F80937E0AF0E0E558F64FB7
:1056800082818093820AF0927C09E0927B0980916A
:10569000C00085FFE9CE8091820A8093C6005092B7
:1056A000800A40927F0AE0917E0A7ACF803A910583
:1056B00009F4A5CFD7CF86EB92E00E94B84478CE0C
:1056C000452BC9F49092880A8092870A10938A0A1F
:1056D0000093890A90CF21E030E040E050E06BE396
:1056E00086EB92E00E94DA52182F813059F088E35D
:1056F0008093B60297CE232B09F11093880A00936A
:10570000870A79CF2AEA31E040E050E068E086EB92
:1057100092E00E94DA528530D1F084E02FEF2EBD66
:105720000DB407FEFDCF9EB59093BA028150B9F734
:105730009A3A71F185E28093B60274CE7092880A2B
:105740006092870A10938C0A00938B0A54CF1093AF
:10575000BB02412C512C320120E030E0A90167E36B
:1057600086EB92E00E94DA52A301920169E286EB95
:1057700092E00E94DA528823A1F00E943055681905
:105780007909613D774040F383E48093B6024ACEC5
:1057900082E08093BB02412C512C612C60E4762E78
:1057A000DBCF8091BB02823049F18091B90288231E
:1057B00021F086EB92E00E94A644E091B702F091BE
:1057C000B80280E5808381E081838091BB028330D1
:1057D00051F189E08093BC02BE016F5F7F4F86EB81
:1057E00092E00E94E4588823B9F08B8586FF14C0AC
:1057F00085E08093BD028093BE0280CE20E030E041
:10580000A9016AE386EB92E00E94DA52882371F0E4
:1058100087E38093B60206CE6FE172E086E991E0FD
:105820000E945946E5CF1092BC02D6CF8FEF8EBDB5
:105830000DB407FEFDCF8EB5807C803C19F483E06B
:105840008093BB0283E09FEF9EBD0DB407FEFDCFAA
:105850002EB58150C9F7A9CF2F923F924F925F92F8
:105860006F927F928F929F92AF92BF92CF92DF9270
:10587000EF92FF920F931F93CF93DF9300D01F926D
:10588000CDB7DEB710920E1210920D1210920C12BC
:1058900010920B122091D4083091D5080FEF1FEF12
:1058A00066246A9477247394E9E05E2EF2E04F2E2A
:1058B000EE24E394F12CB9EE2B2E312C8CEBC82E78
:1058C000D12C21153105B1F08091C2029091C30213
:1058D0008C3B910509F455C0893E910509F4CEC170
:1058E000892B09F43DC21093C3020093C202211513
:1058F000310551F71092CA041092CB041092CC04D7
:105900001092CD041092C5041092C4041092CE08D7
:105910001092CF081092D0081092D1081092D60899
:1059200081E090E0A0E0B0E08093C6049093C704CB
:10593000A093C804B093C9040F900F900F900F90DC
:10594000DF91CF911F910F91FF90EF90DF90CF905B
:10595000BF90AF909F908F907F906F905F904F908F
:105960003F902F9008950E9430556093E9087093FE
:10597000EA088093EB089093EC08D092C302C0929F
:10598000C2020E9430556093D9087093DA08809360
:10599000DB089093DC088091D7089091D8088E5C42
:1059A000944009F406C58091CE089091CF08A0914B
:1059B000D008B091D10829E0B695A795979587951D
:1059C0002A95D1F79C01AD012F5F3F4F4F4F5F4F9D
:1059D0008091BB02833039F089E0220F331F441FCE
:1059E000551F8A95D1F761E186EB92E00E94DA5269
:1059F000882309F4C7C280E38093B6028091B9027C
:105A0000882321F086EB92E00E94A6448091BD029B
:105A100081508093BD02882309F478C50E943055D7
:105A20008090D9089090DA08A090DB08B090DC084C
:105A3000DC01CB0188199909AA09BB094091DD084D
:105A40005091DE086091DF087091E0084F5F5F4F72
:105A50006F4F7F4F4093DD085093DE086093DF085F
:105A60007093E0084091E1085091E2086091E308EA
:105A70007091E408480F591F6A1F7B1F4093E1088B
:105A80005093E2086093E3087093E4084091E508BE
:105A90005091E6086091E7087091E80848175907A7
:105AA0006A077B0740F48093E5089093E608A0938B
:105AB000E708B093E8088090BA029090B60270911F
:105AC0007D0A60917E0A872F861B8F3F11F40C940C
:105AD0009E35E1E0E70FE0937D0AA72FB0E0A558DF
