:100000000C944B0A0C947C0A0C947C0A0C947C0A89
:100010000C947C0A0C947C0A0C947C0A0C947C0A48
:100020000C947C0A0C947C0A0C947C0A0C947C0A38
:100030000C947C0A0C947C0A0C947C0A0C947C0A28
:100040000C947C0A0C94F64D0C94FC490C947C0A9C
:100050000C947C0A0C947C0A0C947C0A0C9408582E
:100060000C947C0A0C94CE4F0C947C0A0C947C0A61
:100070000C947C0A0C947C0A0C947C0A0C947C0AE8
:100080000C947C0A0C947C0A0C947C0A0C947C0AD8
:100090000C947C0A0C947C0A0C947C0A0C947C0AC8
:1000A0000C947C0A0C947C0A0C947C0A0C947C0AB8
:1000B0000C947C0A0C947C0A0C947C0A0C947C0AA8
:1000C0000C947C0A0C947C0A0C947C0A0C947C0A98
:1000D0000C947C0A0C947C0A0C947C0A0C947C0A88
:1000E0000C947C0A6B722C722F702F702F70FB7126
:1000F000EE71EB71BE71AC7122742F702F702F7086
:100100002F702F702F702F702F702F702F702F70F7
:100110002F701F741D742F702F702F701274107435
:100120000E740C742F700A7407742F700474F173BA
:10013000E573DA73C573B7739B7398731C732F7071
:10014000087305730373F5722F702F70EF722F70A1
:10015000EA72D972D472BD728872827280727E72B3
:10016000777290717A71297238563C5640564656CD
:100170004C563756525658565E5664566A56705606
:1001800076567C5637568256885632562B573357FA
:10019000385742574C571A5756575E57665770573D
:1001A0007A57845793579D571A57A757B157BB573C
:1001B000441F041D671B2A1A2B195718A21706176C
:1001C0007B16001692152D15D1147C142E14E513F0
:1001D000A11362132613ED12B812851255122712BD
:1001E000FC11D211AA1184115F113B111911F810E1
:1001F000D910BA109C108010641049102F101510DF
:10020000FC0FE40FCD0FB60FA00F8A0F750F610F13
:100210004C0F390F250F130F000FEE0EDD0ECB0E16
:10022000BA0EAA0E990E890E7A0E6A0E5B0E4C0E4D
:100230003E0E2F0E210E130E060EF80DEB0DDE0DE9
:10024000D10DC50DB80DAC0DA00D940D880D7D0D13
:10025000710D660D5B0D500D450D3B0D300D260DDE
:100260001B0D110D070DFD0CF30CEA0CE00CD70C67
:10027000CD0CC40CBB0CB20CA90CA00C980C8F0CB0
:10028000860C7E0C760C6D0C650C5D0C550C4D0CC3
:10029000450C3D0C350C2E0C260C1F0C170C100CAD
:1002A000080C010CFA0BF30BEC0BE50BDE0BD70B78
:1002B000D00BC90BC20BBC0BB50BAE0BA80BA10B23
:1002C0009B0B950B8E0B880B820B7B0B750B6F0BAF
:1002D000690B630B5D0B570B510B4C0B460B400B23
:1002E0003A0B350B2F0B290B240B1E0B190B130B81
:1002F0000E0B080B030BFE0AF80AF30AEE0AE90AD2
:10030000E40ADE0AD90AD40ACF0ACA0AC50AC00A10
:10031000BB0AB60AB10AAD0AA80AA30A9E0A990A3C
:10032000950A900A8B0A870A820A7E0A790A740A59
:10033000700A6B0A670A620A5E0A5A0A550A510A6B
:100340004C0A480A440A400A3B0A370A330A2F0A71
:100350002A0A260A220A1E0A1A0A160A120A0E0A6D
:100360000A0A060A020AFE09FA09F609F209EE0962
:10037000EA09E609E209DE09DA09D709D309CF0952
:10038000CB09C809C409C009BC09B909B509B10933
:10039000AE09AA09A609A3099F099B09980994090E
:1003A00091098D098A09860983097F097C097809E1
:1003B000750971096E096B096709640960095D09AE
:1003C0005A095609530950094C0949094609420975
:1003D0003F093C093909350932092F092C09290936
:1003E000250922091F091C091909160912090F09F3
:1003F0000C090909060903090009FD08FA08F708AC
:10040000F408F108ED08EA08E708E408E108DE0866
:10041000DB08D908D608D308D008CD08CA08C70811
:10042000C408C108BE08BB08B808B508B308B008BE
:10043000AD08AA08A708A408A1089F089C08990865
:100440009608930891088E088B0888088608830808
:1004500080087D087B0878087508720870086D08A8
:100460006A086808650862085F085D085A08570846
:10047000550852084F084D084A08480845084208E0
:1004800040083D083A0838083508330830082E0877
:100490002B0828082608230821081E081C0819080C
:1004A0001708140811080F080C080A08070805089F
:1004B00002080008FD07FB07F807F607F307F10736
:1004C000EE07EC07EA07E707E507E207E007DD07C5
:1004D000DB07D807D607D407D107CF07CC07CA0751
:1004E000C707C507C307C007BE07BB07B907B707DC
:1004F000B407B207B007AD07AB07A807A607A40764
:10050000A1079F079D079A079807960793079107EA
:100510008F078C078A0788078507830781077E076F
:100520007C077A0778077507730771076E076C07F2
:100530006A0767076507630761075E075C075A0775
:1005400058075507530751074F074C074A074807F5
:100550004607430741073F073D073A073807360775
:10056000340731072F072D072B07290726072407F4
:10057000220720071D071B07190717071507120772
:1005800010070E070C070A070707050703070107EF
:10059000FF06FC06FA06F806F606F406F206EF0673
:1005A000ED06EB06E906E706E506E206E006DE06EE
:1005B000DC06DA06D806D506D306D106CF06CD0668
:1005C000CB06C806C606C406C206C006BE06BC06E2
:1005D000B906B706B506B306B106AF06AD06AA065C
:1005E000A806A606A406A206A0069E069C069906D4
:1005F00097069506930691068F068D068B0688064C
:1006000086068406820680067E067C067A067706C3
:100610007506730671066F066D066B06690666063B
:100620006406620660065E065C065A0658065606B2
:10063000530651064F064D064B064906470645062A
:10064000430640063E063C063A06380636063406A1
:10065000320630062D062B06290627062506230618
:1006600021061F061D061A0618061606140612068F
:1006700010060E060C060A06070605060306010606
:10068000FF05FD05FB05F905F605F405F205F00586
:10069000EE05EC05EA05E805E505E305E105DF05FE
:1006A000DD05DB05D905D705D405D205D005CE0576
:1006B000CC05CA05C805C605C305C105BF05BD05EE
:1006C000BB05B905B705B405B205B005AE05AC0567
:1006D000AA05A705A505A305A1059F059D059B05E1
:1006E000980596059405920590058E058B0589055C
:1006F00087058505830581057E057C057A057805D6
:100700007605730571056F056D056B056805660552
:100710006405620560055D055B05590557055505CE
:10072000520550054E054C0549054705450543054D
:1007300041053E053C053A053805350533053105CB
:100740002F052C052A0528052605230521051F054B
:100750001C051A0518051605130511050F050C05CE
:100760000A050805060503050105FF04FC04FA0453
:10077000F804F504F304F104EE04EC04EA04E704DD
:10078000E504E304E004DE04DB04D904D704D40464
:10079000D204D004CD04CB04C804C604C404C104EC
:1007A000BF04BC04BA04B804B504B304B004AE0476
:1007B000AB04A904A604A404A1049F049D049A0404
:1007C00098049504930490048E048B048904860491
:1007D000830481047E047C04790477047404720425
:1007E0006F046C046A046704650462045F045D04BA
:1007F0005A0458045504520450044D044A04480451
:100800004504420440043D043A04370435043204EC
:100810002F042D042A042704240421041F041C048B
:1008200019041604130411040E040B04080405042F
:1008300002040004FD03FA03F703F403F103EE03DB
:10084000EB03E803E503E203DF03DC03D903D6038C
:10085000D303D003CD03CA03C703C403C103BE033C
:10086000BB03B703B403B103AE03AB03A803A403F4
:10087000A1039E039B039703940391038E038A03B2
:100880008703840380037D037903760373036F0377
:100890006C036803650361035E035A035703530344
:1008A0004F034C034803440341033D03390336031C
:1008B00032032E032A03260323031F031B031703FC
:1008C00013030F030B0307030303FF02FB02F702EB
:1008D000F302EE02EA02E602E202DD02D902D502EA
:1008E000D002CC02C702C302BE02BA02B502B102F4
:1008F000AC02A702A3029E02990294028F028A020E
:10090000850280027B02760271026C02660261023D
:100910005C02560251024B02460240023A02340285
:100920002F02290223021D02160210020A020402EB
:10093000FD01F701F001E901E201DC01D501CD0182
:10094000C601BF01B701B001A801A0019801900143
:100950008801800177016E0165015C0153014A0144
:10096000400136012C01220117010C010101F500A3
:10097000EA00DD00D100C400B600A9009A008B0097
:100980007C006C005B004900370023000F00F9FF7A
:100990000F20E91CE81A77195A187417B5161116A2
:1009A0008315061596143114D51382133413ED12E2
:1009B000AA126C123212FB11C811971168113C1166
:1009C0001211EA10C4109F107C105A1039101A101E
:1009D000FC0FDE0FC20FA70F8C0F730F5A0F420FC1
:1009E0002A0F130FFD0EE80ED30EBE0EAA0E970EA1
:1009F000840E710E5F0E4D0E3C0E2B0E1A0E0A0E5B
:100A0000FA0DEA0DDA0DCB0DBD0DAE0DA00D920D58
:100A1000840D760D690D5C0D4F0D430D360D2A0DBD
:100A20001E0D120D060DFB0CEF0CE40CD90CCE0CB8
:100A3000C40CB90CAF0CA40C9A0C900C860C7C0C5A
:100A4000730C690C600C560C4D0C440C3B0C320CB6
:100A50002A0C210C180C100C070CFF0BF70BEF0BDA
:100A6000E70BDF0BD70BCF0BC70BC00BB80BB10BD2
:100A7000A90BA20B9B0B930B8C0B850B7E0B770B9F
:100A8000700B6A0B630B5C0B550B4F0B480B420B47
:100A90003B0B350B2F0B280B220B1C0B160B100BD3
:100AA0000A0B040BFE0AF80AF20AEC0AE60AE10A4B
:100AB000DB0AD50AD00ACA0AC50ABF0ABA0AB40AAA
:100AC000AF0AAA0AA40A9F0A9A0A950A8F0A8A0AF2
:100AD000850A800A7B0A760A710A6C0A670A620A2A
:100AE0005D0A590A540A4F0A4A0A460A410A3C0A50
:100AF000380A330A2E0A2A0A250A210A1C0A180A69
:100B0000140A0F0A0B0A060A020AFE09F909F50976
:100B1000F109ED09E809E409E009DC09D809D4097B
:100B2000D009CC09C809C409C009BC09B809B4096D
:100B3000B009AC09A809A409A0099C09980995095C
:100B400091098D098909860982097E097A0977093F
:100B500073096F096C096809650961095D095A091A
:100B6000560953094F094C094809450941093E09ED
:100B70003B093709340930092D092A0926092309B7
:100B80001F091C091909160912090F090C0908097E
:100B900005090209FF08FC08F808F508F208EF0843
:100BA000EC08E908E508E208DF08DC08D908D608FF
:100BB000D308D008CD08CA08C708C408C108BE08B1
:100BC000BB08B808B508B208AF08AC08A908A60861
:100BD000A308A0089D089A089708940891088F0810
:100BE0008C0889088608830880087E087B087808B6
:100BF0007508720870086D086A0867086508620859
:100C00005F085C085A085708540851084F084C08F8
:100C100049084708440841083F083C083908370894
:100C2000340831082F082C082A082708240822082D
:100C30001F081D081A0817081508120810080D08C3
:100C40000B080808060803080108FE07FC07F90757
:100C5000F707F407F207EF07ED07EA07E807E507EC
:100C6000E307E007DE07DB07D907D607D407D2077B
:100C7000CF07CD07CA07C807C607C307C107BE0706
:100C8000BC07BA07B707B507B207B007AE07AB078F
:100C9000A907A707A407A207A0079D079B07990715
:100CA0009607940792078F078D078B07880786079B
:100CB000840782077F077D077B077807760774071D
:100CC00072076F076D076B0769076607640762079E
:100CD00060075D075B07590757075507520750071D
:100CE0004E074C07490747074507430741073E079B
:100CF0003C073A0738073607340731072F072D0717
:100D00002B07290726072407220720071E071C0791
:100D10001A0717071507130711070F070D070B070A
:100D200008070607040702070007FE06FC06FA0686
:100D3000F706F506F306F106EF06ED06EB06E90603
:100D4000E706E406E206E006DE06DC06DA06D8067A
:100D5000D606D406D206D006CE06CB06C906C706EE
:100D6000C506C306C106BF06BD06BB06B906B70663
:100D7000B506B306B106AF06AD06AA06A806A606D6
:100D8000A406A206A0069E069C069A06980696064B
:100D90009406920690068E068C068A0688068606BB
:100DA0008406820680067E067C067A06780676062B
:100DB0007406720670066E066B066906670665069F
:100DC000630661065F065D065B0659065706550613
:100DD000530651064F064D064B0649064706450683
:100DE000430641063F063D063B06390637063506F3
:100DF000330631062F062D062B0629062706250663
:100E0000230621061F061D061B06190617061506D2
:100E10001306120610060E060C060A06080606063B
:100E2000040602060006FE05FC05FA05F805F605AF
:100E3000F405F205F005EE05EC05EA05E805E60522
:100E4000E405E205E005DE05DC05DA05D805D60592
:100E5000D405D205D005CE05CC05CA05C805C60502
:100E6000C405C205C005BE05BC05BA05B805B60572
:100E7000B405B205B005AE05AC05AA05A805A605E2
:100E8000A405A205A0059E059C059A059805960552
:100E90009405920590058E058C058A0588058605C2
:100EA0008405820580057E057C057A057805760532
:100EB000730571056F056D056B05690567056505AA
:100EC000630561055F055D055B055905570555051A
:100ED000530551054F054D054B054905470545058A
:100EE000420540053E053C053A0538053605340502
:100EF000320530052E052C052A0528052505230574
:100F000021051F051D051B051905170515051305E9
:100F100010050E050C050A05080506050405020561
:100F20000005FD04FB04F904F704F504F304F104DF
:100F3000EE04EC04EA04E804E604E404E104DF045B
:100F4000DD04DB04D904D704D404D204D004CE04D5
:100F5000CC04CA04C704C504C304C104BE04BC0451
:100F6000BA04B804B604B304B104AF04AD04AA04CF
:100F7000A804A604A404A1049F049D049B0498044F
:100F80009604940492048F048D048B0488048604D0
:100F9000840481047F047D047A0478047604730455
:100FA00071046F046C046A046804650463046104DA
:100FB0005E045C04590457045504520450044D0463
:100FC0004B0448044604440441043F043C043A04EE
:100FD00037043504320430042D042B04280426047D
:100FE000230421041E041C0419041604140411040F
:100FF0000F040C040A04070404040204FF03FC03A6
:10100000FA03F703F503F203EF03ED03EA03E70343
:10101000E403E203DF03DC03DA03D703D403D103E1
:10102000CE03CC03C903C603C303C003BE03BB0383
:10103000B803B503B203AF03AC03AA03A703A40329
:10104000A1039E039B039803950392038F038C03D4
:1010500089038603830380037C0379037603730388
:1010600070036D036A036603630360035D035A0341
:101070005603530350034C034903460342033F0303
:101080003C033803350331032E032A0327032303CC
:1010900020031C031903150312030E030A0307039D
:1010A0000303FF02FB02F802F402F002EC02E80282
:1010B000E402E002DC02D802D402D002CC02C80270
:1010C000C402C002BC02B802B302AF02AB02A60265
:1010D000A2029E029902950290028C02870282026D
:1010E0007E02790274026F026A02650261025C028A
:1010F000560251024C02470242023C0237023202BF
:101100002C02270221021B02150210020A0204020D
:10111000FE01F801F101EB01E501DE01D801D10189
:10112000CA01C301BC01B501AE01A7019F0198012D
:101130009001880180017801700168015F0156010A
:101140004D0144013B01310127011D01130108013B
:10115000FD00F200E600DA00CE00C100B400A600F7
:1011600098008A007A006A00590048003500220081
:101170000D00F7FF00002110422063308440A5508D
:10118000C660E770088129914AA16BB18CC1ADD1CD
:10119000CEE1EFF13112100273325222B552944275
:1011A000F772D662399318837BB35AA3BDD39CC31D
:1011B000FFF3DEE36224433420040114E664C774C1
:1011C000A44485546AA54BB528850995EEE5CFF56D
:1011D000ACC58DD55336722611163006D776F66615
:1011E0009556B4465BB77AA719973887DFF7FEE7BD
:1011F0009DD7BCC7C448E5588668A77840086118E1
:1012000002282338CCC9EDD98EE9AFF9488969990C
:101210000AA92BB9F55AD44AB77A966A711A500AB4
:10122000333A122AFDDBDCCBBFFB9EEB799B588B5C
:101230003BBB1AABA66C877CE44CC55C222C033C00
:10124000600C411CAEED8FFDECCDCDDD2AAD0BBDAC
:10125000688D499D977EB66ED55EF44E133E322E54
:10126000511E700E9FFFBEEFDDDFFCCF1BBF3AAFFC
:10127000599F788F8891A981CAB1EBA10CD12DC15A
:101280004EF16FE18010A100C230E32004502540F0
:1012900046706760B9839893FBA3DAB33DC31CD350
:1012A0007FE35EF3B1029012F322D2323542145240
:1012B00077625672EAB5CBA5A89589856EF54FE59C
:1012C0002CD50DC5E234C324A01481046674476490
:1012D00024540544DBA7FAB79987B8975FE77EF7F0
:1012E0001DC73CD7D326F2369106B01657667676E0
:1012F000154634564CD96DC90EF92FE9C899E989BC
:101300008AB9ABA94458654806782768C018E1082F
:101310008238A3287DCB5CDB3FEB1EFBF98BD89B8F
:10132000BBAB9ABB754A545A376A167AF10AD01A7F
:10133000B32A923A2EFD0FED6CDD4DCDAABD8BADDB
:10134000E89DC98D267C076C645C454CA23C832CCF
:10135000E01CC10C1FEF3EFF5DCF7CDF9BAFBABF2F
:10136000D98FF89F176E367E554E745E932EB23E1F
:10137000D10EF01E000020002300260029002C00C2
:101380002F003200000100000301060109010505DC
:101390000505070508080808020202020A0A0808EB
:1013A0000404040401010101010101010303030319
:1013B00003030303040707070C0C0C0C0C0C0C0CA8
:1013C0000202020206060606060606060B0B0B0BB9
:1013D0000B0B0B0B010210202008081020401020DE
:1013E00040800201020108040201010204081020E9
:1013F00040808040201008040201800402018040E7
:10140000201008040201080402010102040810204F
:101410004080010204081020408000000A0B0209ED
:101420000C0D0E080703040100000000000000007E
:1014300000000000000000000000000000000000AC
:101440000000000000001211100000000000000069
:10145000000000000000000000000000000000008C
:1014600000002100240027002A002D003000330056
:1014700001010000040107010A010000220025000B
:1014800028002B002E00310034000201000005016D
:1014900008010B01717411241FBECFEFD1E2DEBF32
:1014A000CDBF00E00CBF12E0A0E0B2E0E2EDF9E059
:1014B00001E00BBF02C007900D92A835B107D9F724
:1014C00023E1A8E5B2E001C01D92AF32B207E1F717
:1014D0001AE0CBE4DAE000E006C021970109802F92
:1014E000FE010E949E84CA34D10780E00807A9F754
:1014F0000E94415B0C94DA840C940000CF92DF923E
:10150000EF92FF920F931F93CF93DF93809160111F
:10151000909161118A3A23E0920711F40C946B1CAC
:1015200008F44FC18839E4E09E0711F40C940314C9
:1015300008F09CC3813024E0920711F40C94C11987
:1015400008F0A2C7823DF3E09F0709F453C010F4EE
:101550000C944D1F8B3E23E0920711F40C944E190E
:10156000883FE3E09E0711F40C947D198F3D934072
:1015700011F00C942D198091CF119091D0110097FA
:1015800009F411C101979093D0118093CF11E0918C
:10159000EF0D81E08E0F8093EF0DF0E0EE0FFF1F57
:1015A000EE0FFF1FE151F64F8091DC119091DD119C
:1015B000A091DE11B091DF1180839183A283B38368
:1015C0008091711190917211019790937211809393
:1015D0007111892B11F40C9435191092E1111092AC
:1015E000E01181E08093E81182ED93E09093611126
:1015F000809360110E94DB5881110C9497148091A4
:10160000DB11E091EF11F091F011882311F40C94AB
:101610008024A0812091D2113091D3114091D41116
:101620005091D511B0E00E94B284DC01CB012AE0D8
:10163000B695A795979587952A95D1F79093DF1141
:101640008093DE1190916C119093DD1180916B115C
:10165000882311F40C9477224091871150918811BE
:101660006091891170918A1177FF02C00C94372A1A
:101670000091AF111091B0112091B1113091B211C0
:10168000400F511F621F731F4093871150938811A1
:101690006093891170938A1191609093DD1181306C
:1016A00011F00C94772240918F115091901160911C
:1016B00091117091921177FF02C00C944C28009107
:1016C000B7111091B8112091B9113091BA11400F92
:1016D000511F621F731F40938F115093901160939D
:1016E0009111709392119091DD1194609093DD119E
:1016F000833039F14091931150919411609195117B
:101700007091961177FF02C00C94F6270091BB11DF
:101710001091BC112091BD113091BE11400F511F8D
:10172000621F731F4093931150939411609395110E
:10173000709396119091DD1198609093DD11843033
:1017400029F18091971190919811A0919911B091E0
:101750009A11B7FF02C00C94B2294091BF11509169
:10176000C0116091C1117091C211840F951FA61F05
:10177000B71F8093971190939811A0939911B093EC
:101780009A118091DD1180618093DD118FED93E0DE
:1017900090936111809360118091CF119091D0113D
:1017A000009709F0EFCE8091EF0D9091F00D891B1D
:1017B000809590E09093D0118093CF1181E00C94AC
:1017C0009814843AF2E09F0709F484C008F09BC3A0
:1017D0008138E2E09E0711F40C94071810F40C9481
:1017E000DB168D38F2E09F0711F40C94011910F408
:1017F0000C942C1F853922E0920761F18939E2E0CF
:101800009E0709F443C08139924011F00C942D19C0
:101810000E94DB5881110C949714E091EF11F09124
:10182000F01180819181A281B38180938311909383
:101830008411A0938511B09386111092E11110923A
:10184000E01182E08093E81185E992E090936111C4
:10185000809360110E94DB5881110C949714E091E1
:10186000EF11F091F0118081918190936811809334
:1018700067111092E1111092E01182E08093E8115B
:1018800089E992E090936111809360110E94DB5886
:1018900081110C949714E091EF11F091F011808177
:1018A000918190936A11809369111092DB1180915C
:1018B00062119091631190FFDFC01092E1111092BC
:1018C000E01184E08093E81184EA92E09093611142
:1018D000809360110E94DB5881110C949714E09161
:1018E000EF11F091F01180819181A281B3818093F9
:1018F000D6119093D711A093D811B093D91110920B
:10190000E1111092E01181E08093E81188EA92E001
:1019100090936111809360110E94DB5881110C94A7
:101920009714E091EF11F091F011C081C093DA119A
:101930006091D6117091D7118091D8119091D911E1
:10194000611571058105910511F40C943D232091D9
:10195000740230917502A9015595479555954795A3
:101960005595479555954795209102023091030270
:10197000FA01E21BF30B9F01F7FF02C00C944E2902
:10198000E436F10514F40C946C2720911411309175
:10199000151140E050E00E9451849B01AC0104C04D
:1019A0005695479537952795CA95D2F72130F0E19E
:1019B0003F074105510520F020E030E140E050E0D4
:1019C0002093D2113093D3114093D4115093D51159
:1019D000213084E038074105510510F40C947A2633
:1019E0008091090F882331F1A0910A0FB0910B0F5C
:1019F0000E94B284DC01CB01DAE0B695A7959795F9
:101A00008795DA95D1F78093D2119093D311A09353
:101A1000D411B093D5118091491190914A118E3F04
:101A2000EFEF9E0711F40C94862B019690934A11C8
:101A30008093491181E08093DB118091471190914F
:101A400048118E3FFFEF9F0711F40C94112B019664
:101A500090934811809347118091D2119091D311A6
:101A6000A091D411B091D5118F3F9105A105B10579
:101A700009F010F40C94CC261092E1111092E011B0
:101A800082E08093E8118EEF92E090936111809351
:101A900060110E94DB5881114AC78091DB11E091EF
:101AA000EF11F091F011882311F40C947921A081A9
:101AB000B1812091D2113091D3114091D411509124
:101AC000D5110E94B284DC01CB01CAE0B695A7957E
:101AD00097958795CA95D1F790936E1180936D1164
:101AE0001092E1111092E01182E08093E81188E0F9
:101AF00093E090936111809360110E94DB588111F3
:101B000016C7E091EF11F091F011808191819093CF
:101B10007211809371111092E1111092E01182E024
:101B20008093E8118CE093E09093611180936011B1
:101B30008091E6119091E7116091E4117091E511A7
:101B4000681B790B7093EE116093ED11A091E81171
:101B50002A2F30E06217730710F00C94602661158D
:101B6000710511F40C94AE21E091E211F091E311B2
:101B700040E050E020E0E80FF91F80E090E0A15045
:101B8000EF01C40FD51F3881EC01C052DE4E3987FA
:101B90008A2F821B8093E8112F5F822F90E0AC0187
:101BA0008617970768F386EA91E09093E111809396
:101BB000E0118091AC09882309F4B9C68091AD0980
:101BC0009091AE09845A954011F40C941C2B84EA30
:101BD00095E09093AE098093AD09DC018091A8094E
:101BE0009091A9094091A4095091A5096091A60975
:101BF0007091A709480F591F611D711D4093A409D9
:101C00005093A5096093A6097093A7091092AC0997
:101C10009093E5118093E411B093E311A093E21146
:101C20009091E8119923A1F02091ED113091EE11DE
:101C3000F901E751FE4E265F3F4F8FEF890F280FC6
:101C4000311D20523E4E8D918193E217F307D9F753
:101C500029EE31E13093F0112093EF11892F90E0BC
:101C60009093E7118093E611F90181C18D3DE4E085
:101C70009E0711F40C94312008F063C6853B24E0E4
:101C8000920711F40C944A2110F40C94571F853CD0
:101C9000E4E09E07E1F0813DF4E09F0711F40C942D
:101CA0006321823C944011F00C942D190E94DB5862
:101CB00081113DC6E091EF11F091F0118081809388
:101CC000DD1185EC94E09093611180936011809117
:101CD000CF119091D011009709F465CD01979093A1
:101CE000D0118093CF11E091EF0D81E08E0F8093A2
:101CF000EF0DF0E0EE0FFF1FEE0FFF1FE151F64F6B
:101D00008091DC119091DD11A091DE11B091DF1175
:101D100080839183A283B3838091CB119091CC1166
:101D200001979093CC118093CB11892B11F40C94D3
:101D3000BD201092E1111092E01181E08093E81132
:101D400085EB94E090936111809360118091E6118E
:101D50009091E7116091E4117091E511681B790B86
:101D60007093EE116093ED11A091E8112A2F30E0ED
:101D70006217730710F00C9422296115710511F494
:101D80000C94CC24E091E211F091E31140E050E09A
:101D900020E0E80FF91F80E090E0A150EF01C40FB0
:101DA000D51F3881EC01C052DE4E39878A2F821B45
:101DB0008093E8112F5F822F90E0AC018617970780
:101DC00068F386EA91E09093E1118093E0118091AD
:101DD000AC09882309F4ABC58091AD099091AE0997
:101DE000845A954011F40C948F2B84EA95E09093DB
:101DF000AE098093AD09DC018091A8099091A909F1
:101E00004091A4095091A5096091A6097091A70974
:101E1000480F591F611D711D4093A4095093A509D6
:101E20006093A6097093A7091092AC099093E511ED
:101E30008093E411B093E311A093E2114091E81173
:101E40004423A9F08091ED119091EE11FC01E7512E
:101E5000FE4E9C01265F3F4F8FEF840F280F311DF0
:101E600020523E4E8D918193E217F307D9F789EE08
:101E700091E19093F0118093EF11842F90E0909373
:101E8000E7118093E611E9EEF1E18FEF9FEF909378
:101E9000E1118093E0118081A0916511B0916611EC
:101EA000A80FB11D87FDBA95B0936611A093651177
:101EB0008091DB11882311F40C945F252091D211BD
:101EC0003091D3114091D4115091D5110E94B28418
:101ED000DC01CB014AE0B695A795979587954A9581
:101EE000D1F79093DF118093DE111092E1111092DF
:101EF000E01181E08093E81182EC94E0909361110D
:101F000080936011D3CE8B3423E0920709F4C5C1CE
:101F100008F076C58830F3E09F0709F4EECD10F4A1
:101F20000C94361F853323E0920709F4A1C0823454
:101F3000E3E09E0709F46DC18C30934011F00C94DE
:101F40002D198091E0119091E111863AF1E09F07FF
:101F500009F42FCE873B21E0920711F40C94B421B1
:101F6000892B09F4E5CDE091EF11F091F0118FEF9D
:101F70009FEF9093E1118093E011208131813093A4
:101F8000701120936F1100916B11E02FF0E0EE0FB4
:101F9000FF1FEE0FFF1FE05AFE4EC388D488E5886E
:101FA000F688C092C311D092C411E092C511F0928C
:101FB000C611C3E7D1E1EBE9F1E110E00117F1F05F
:101FC000488159816A817B81440F551F661F771FA5
:101FD000DB01CA018C199D09AE09BF098C8B9D8B51
:101FE000AE8BBF8B40835183628373838C199D09B1
:101FF000AE09BF09848B958BA68BB78B1F5F249688
:1020000034961530D9F660916711709168118091FE
:10201000691190916A11FC01E60FF71F409171114F
:10202000509172114E0F5F1F240F351FC21AD30A31
:10203000E108F108C092C711D092C811E092C9110D
:10204000F092CA11672B11F40C94311D8091DC11B0
:102050008F7B8093DC111092E1111092E01182E0ED
:102060008093E81185E393E0909361118093601170
:102070000E94DB5881115BC48091DB11E091EF116C
:10208000F091F011882311F40C941224A081B181F5
:102090002091D2113091D3114091D4115091D5118A
:1020A0000E94B284DC01CB012AE0B695A7959795F2
:1020B00087952A95D1F79093DF118093DE11909147
:1020C0006C119093DD1180916B11882311F40C94A5
:1020D000252240918711509188116091891170914A
:1020E0008A1177FF02C00C94DE290091AF11109184
:1020F000B0112091B1113091B211400F511F621FE8
:10210000731F4093871150938811609389117093C6
:102110008A1191609093DD11813011F00C94252289
:1021200040918F1150919011609191117091921185
:1021300077FF02C00C948D270091B7111091B81150
:102140002091B9113091BA11400F511F621F731FB6
:1021500040938F115093901160939111709392114D
:102160009091DD1194609093DD11833039F14091AD
:10217000931150919411609195117091961177FF80
:1021800002C00C94A3270091BB111091BC112091A7
:10219000BD113091BE11400F511F621F731F40933C
:1021A000931150939411609395117093961190919F
:1021B000DD1198609093DD11843029F180919711A1
:1021C00090919811A0919911B0919A11B7FF02C006
:1021D0000C9434294091BF115091C0116091C111EC
:1021E0007091C211840F951FA61FB71F809397117E
:1021F00090939811A0939911B0939A118091DD1149
:1022000080618093DD1182E493E09093611180936B
:1022100060118091CF119091D011009709F4C3CA39
:1022200001979093D0118093CF11E091EF0D81E051
:102230008E0F8093EF0DF0E0EE0FFF1FEE0FFF1FEC
:10224000E151F64F8091DC119091DD11A091DE11EA
:10225000B091DF1180839183A283B3838091DC11DD
:102260008F778093DC1180916711909168110197AD
:102270009093681180936711892B11F40C942D1D94
:102280001092E1111092E01182E08093E8118BE44A
:1022900093E090936111809360110E94DB5881114B
:1022A00046C38091DB11E091EF11F091F01188238A
:1022B00011F40C949024A081B1812091D21130911D
:1022C000D3114091D4115091D5110E94B284DC01F8
:1022D000CB011AE0B695A795979587951A95D1F7F2
:1022E0009093DF118093DE1190916C119093DD112A
:1022F00080916B11882311F40C9414234091871161
:10230000509188116091891170918A1177FF02C0F4
:102310000C94752A0091AF111091B0112091B11158
:102320003091B211400F511F621F731F40938711EC
:10233000509388116093891170938A1191609093E2
:10234000DD11813011F00C94142340918F115091C4
:102350009011609191117091921177FF02C00C94CD
:1023600062280091B7111091B8112091B9113091E4
:10237000BA11400F511F621F731F40938F1150936A
:10238000901160939111709392119091DD1194606E
:102390009093DD11833039F1409193115091941154
:1023A000609195117091961177FF02C00C948D2861
:1023B0000091BB111091BC112091BD113091BE1143
:1023C000400F511F621F731F40939311509394113C
:1023D00060939511709396119091DD119860909390
:1023E000DD11843029F18091971190919811A0917D
:1023F0009911B0919A11B7FF02C00C940B2A409129
:10240000BF115091C0116091C1117091C211840F20
:10241000951FA61FB71F8093971190939811A093B3
:102420009911B0939A118091DD1180618093DD1133
:1024300088E593E090936111809360118091CF11B2
:102440009091D011009709F4AEC901979093D011E3
:102450008093CF11E091EF0D81E08E0F8093EF0D0F
:10246000F0E0EE0FFF1FEE0FFF1FE151F64F8091DE
:10247000DC119091DD11A091DE11B091DF1180830C
:102480009183A283B383EFCE873224E0920711F4C5
:102490000C94681E10F40C94421E8634E4E09E07EF
:1024A00009F441C08A34F4E09F0711F40C94092127
:1024B0008B33944009F0D1C68091E0119091E111E5
:1024C000863AE1E09E0711F40C94CB1E873BF1E0C5
:1024D0009F0711F40C945923892B11F40C948B1E33
:1024E000E091EF11F091F0118FEF9FEF9093E111D8
:1024F0008093E011808191819093CC118093CB11D6
:102500001092DB118091621185FF70C11092E11170
:102510001092E01184E08093E81186E494E09093B7
:102520006111809360110E94DB58811100C2E0911B
:10253000EF11F091F01180819181A281B38180939C
:10254000D6119093D711A093D811B093D9111092AE
:10255000E1111092E01181E08093E8118AE494E0A7
:102560009093611180936011A091E611B091E711F1
:102570006091E4117091E5116A1B7B0B7093EE1171
:102580006093ED115091E811852F90E0681779075D
:1025900010F00C94EE266115710511F40C94A4232F
:1025A000C091E211D091E31120E030E040E080E002
:1025B00090E051502C0F3D1FF901EA0FFB1F2081C5
:1025C000FC01E052FE4E2187852F841B8093E81189
:1025D0004F5F842F90E09C018617970758F386EA97
:1025E00091E09093E1118093E0118091AC098823F0
:1025F00009F49DC18091AD099091AE09845A95402E
:1026000011F40C94692B84EA95E09093AE098093C1
:10261000AD09DC018091A8099091A9094091A40914
:102620005091A5096091A6097091A709480F591FFB
:10263000611D711D4093A4095093A5096093A609DB
:102640007093A7091092AC099093E5118093E4115F
:10265000B093E311A093E2114091E8114423A9F053
:102660008091ED119091EE11FC01E751FE4E9C011D
:10267000265F3F4F8FEF840F280F311D20523E4EB3
:102680008D918193E217F307D9F789EE91E1909349
:10269000F0118093EF11842F90E09093E7118093D5
:1026A000E611E9EEF1E18FEF9FEF9093E111809356
:1026B000E011C081C093DA1180917402909175028B
:1026C00095958795959587959595879595958795F2
:1026D0002091020230910302821B930B97FF02C0EC
:1026E0000C9472268436910514F40C94C124209124
:1026F00014113091151140E050E06091D6117091A5
:10270000D7118091D8119091D9110E9451849B01C9
:10271000AC0104C05695479537952795CA95D2F7D1
:10272000213080E138074105510520F020E030E1FB
:1027300040E050E02093D2113093D3114093D41154
:102740005093D5118091090F213094E0390741054C
:10275000510510F40C94EE23882331F1A0910A0F57
:10276000B0910B0F0E94B284DC01CB017AE0B695E8
:10277000A795979587957A95D1F78093D2119093E5
:10278000D311A093D411B093D51180914911909198
:102790004A118E3FEFEF9E0711F40C94182B01960F
:1027A00090934A118093491181E08093DB118091CD
:1027B0004711909148118E3FFFEF9F0711F40C9441
:1027C0004A29019690934811809347118091D21124
:1027D0009091D311A091D411B091D5118F3F910553
:1027E000A105B10509F010F40C94D4261092E11162
:1027F0001092E01182E08093E81188E994E09093D0
:102800006111809360110E94DB58811190C0E091AA
:10281000EF11F091F011A081B181B0936611A093F6
:1028200065118091DB11882311F40C94A82120916B
:10283000D2113091D3114091D4115091D5110E94F1
:10284000B284DC01CB016AE0B695A7959795879590
:102850006A95D1F79093DF118093DE111092E11108
:102860001092E01181E08093E81185EA94E0909362
:102870006111809360110E94DB58811158C0E09172
:10288000EF11F091F01180818093DD1188EA94E0DE
:1028900090936111809360118091CF119091D0112C
:1028A000009711F40C94D30B01979093D01180935F
:1028B000CF11E091EF0D81E08E0F8093EF0DF0E0EE
:1028C000EE0FFF1FEE0FFF1FE151F64F8091DC115D
:1028D0009091DD11A091DE11B091DF118083918381
:1028E000A283B3838091DC118F778093DC11809178
:1028F0006211909163112091CB113091CC11215034
:1029000031093093CC112093CB1186FD02C00C9479
:102910002022232B09F00DCA91FF05C08091D1110F
:1029200081110E94C133109261111092601181E0F7
:10293000DF91CF911F910F91FF90EF90DF90CF909B
:1029400008958115E5E09E0711F40C94F32010F42E
:102950000C94631F8931F5E09F0709F448C0823267
:1029600025E0920711F40C94D0208031954009F0B5
:1029700074C40E94DB588111DACFE091EF11F0911D
:10298000F011808191811092DD1120E533EC3093BC
:10299000DF112093DE111BC081E08E0F8093EF0DBD
:1029A000F0E0EE0FFF1FEE0FFF1FE151F64F809199
:1029B000DC119091DD11A091DE11B091DF118083C7
:1029C0009183A283B3838091CD119091CE119C010C
:1029D000215031093093CE112093CD11892B09F468
:1029E000A2CF89E195E09093611180936011E0910D
:1029F000EF0D8091F00D9E2F981B9F3F69F697CFAA
:102A0000813723E0920711F40C94151E10F40C94F6
:102A1000421F8738E3E09E0709F4EEC0813AF3E0F5
:102A20009F0709F46AC68A37934009F016C480915B
:102A3000E0119091E111863A21E0920709F45CC11E
:102A4000873BE1E09E0711F40C943A24892B09F4AA
:102A500012C1E091EF11F091F0118FEF9FEF909381
:102A6000E1118093E0118091DB11882311F40C9423
:102A70008824A0812091D2113091D3114091D4119A
:102A80005091D511B0E00E94B284DC01CB01EAE0A4
:102A9000B695A79597958795EA95D1F79093DF110D
:102AA0008093DE1190916C119093DD1180916B11E8
:102AB000882311F40C94EB224091871150918811D6
:102AC0006091891170918A1177FF02C00C945F2A7E
:102AD0000091AF111091B0112091B1113091B2114C
:102AE000400F511F621F731F40938711509388112D
:102AF0006093891170938A1191609093DD118130F8
:102B000011F00C94EB2240918F1150919011609133
:102B100091117091921177FF02C00C94A32800913B
:102B2000B7111091B8112091B9113091BA11400F1D
:102B3000511F621F731F40938F1150939011609328
:102B40009111709392119091DD1194609093DD1129
:102B5000833039F140919311509194116091951106
:102B60007091961177FF02C00C94B9280091BB11A7
:102B70001091BC112091BD113091BE11400F511F19
:102B8000621F731F4093931150939411609395119A
:102B9000709396119091DD1198609093DD118430BF
:102BA00029F18091971190919811A0919911B0916C
:102BB0009A11B7FF02C00C946C294091BF1150913B
:102BC000C0116091C1117091C211840F951FA61F91
:102BD000B71F8093971190939811A0939911B09378
:102BE0009A118091DD1180618093DD1187E893E077
:102BF00090936111809360118091CF119091D011C9
:102C0000009711F40C94D30B01979093D0118093FB
:102C1000CF11E091EF0D81E08E0F8093EF0DF0E08A
:102C2000EE0FFF1FEE0FFF1FE151F64F8091DC11F9
:102C30009091DD11A091DE11B091DF11808391831D
:102C4000A283B3838091691190916A110197909347
:102C50006A1180936911892B09F48BC41092E111D8
:102C60001092E01181E08093E8118AE793E090935D
:102C70006111809360118091E6119091E71160914C
:102C8000E4117091E511681B790B7093EE1160935C
:102C9000ED11A091E8112A2F30E06217730710F0B0
:102CA0000C94CE276115710511F40C943424E09135
:102CB000E211F091E31140E050E020E0E80FF91F4D
:102CC00080E090E0A150EF01C40FD51F3881EC01E6
:102CD000C052DE4E39878A2F821B8093E8112F5F06
:102CE000822F90E0AC018617970768F386EA91E09F
:102CF0009093E1118093E0118091AC09882309F44D
:102D000016CE8091AD099091AE09845A954011F488
:102D10000C94722B84EA95E09093AE098093AD09F0
:102D2000DC018091A8099091A9094091A4095091D2
:102D3000A5096091A6097091A709480F591F611D47
:102D4000711D4093A4095093A5096093A60970933F
:102D5000A7091092AC099093E5118093E411B09308
:102D6000E311A093E2114091E8114423A9F080916E
:102D7000ED119091EE11FC01E751FE4E9C01265F92
:102D80003F4F8FEF840F280F311D20523E4E8D9103
:102D90008193E217F307D9F789EE91E19093F0114F
:102DA0008093EF11842F90E09093E7118093E611C8
:102DB000E9EEF1E152CE823622E0920709F4CCC06E
:102DC00008F042C2009711F40C943B2180349240E9
:102DD00009F043C20E94DB588111A9CDE091EF11A7
:102DE000F091F01180818C3011F40C94FC2910F0DA
:102DF0000C941A24873009F4A9C08B3011F40C9478
:102E0000E620833011F40C94B52590917C03209139
:102E10007D03392F321B3F3F41F1E1E0E90FE093A1
:102E20007C03A92FB0E0A658BD4F12961C923E2FEE
:102E3000321B3F3FD1F032E0390F30937C03F0E09A
:102E4000E658FD4F43E04283432F50E05093850303
:102E500040938403321B3F3F41F09D5F90937C037E
:102E6000FA01E658FD4F91E0928390917C03492F3F
:102E700050E05093830340938203392F321B3F3F2E
:102E800011F40C948A2B9F5F90937C03DA01A6586F
:102E9000BD4F91E012969C931297409184035091FC
:102EA0008503FA01FF27E658FD4F92819F5F9283C9
:102EB00012969C9112979F5F12969C93A0917C030F
:102EC0009A2F921B9F3F11F40C94C52B91E09A0FFF
:102ED00090937C03B0E0A658BD4F35E012963C932A
:102EE00032813F5F3283882311F40C94512B60911F
:102EF000820370918303EB01DD27C658DD4F3A81D1
:102F00003F5F3A83392F321B3F3F11F40C94C12BA2
:102F100031E0390F30937C03A92FB0E0A658BD4FA4
:102F200012968C9382818F5F8283321B3F3F11F414
:102F30000C945C2B6F3F7F4F11F08FEF8A83809151
:102F400080038F5F809380030E94D34082E692E0EB
:102F500090936111809360118091EF0D9091F00D2D
:102F6000891B8095282F30E03093D0112093CF110A
:102F7000882309F4DCCC1092E1111092E01182E078
:102F80008093E81186E692E090936111809360113E
:102F90000E94DB588111CBCCE091EF11F091F01140
:102FA00080819181809362119093631187FF03C0A8
:102FB0008F798093DC111092E1111092E01181E081
:102FC0008093E81188E792E09093611180936011FB
:102FD0000E94DB588111ABCCE091EF11F091F01120
:102FE000908190936B1181E001C0880F9A95EAF768
:102FF00080936C111092E1111092E01184E08093A3
:10300000E81181E892E090936111809360110E9431
:10301000DB5881118CCCE091EF11F091F01180819F
:103020009181A281B3818093731190937411A093C5
:103030007511B09376111092E1111092E01184E0B5
:103040008093E81185E892E090936111809360117C
:103050008091E6119091E7116091E4117091E51172
:10306000681B790B7093EE116093ED11A091E8113C
:103070002A2F30E06217730710F00C94BA266115FE
:10308000710511F40C94A022E091E211F091E3118A
:1030900040E050E020E0E80FF91F80E090E0A15010
:1030A000EF01C40FD51F3881EC01C052DE4E3987C5
:1030B0008A2F821B8093E8112F5F822F90E0AC0152
:1030C0008617970768F386EA91E09093E111809361
:1030D000E0118091AC09882309F429CC8091AD09D5
:1030E0009091AE09845A954011F40C94372B84EAE0
:1030F00095E09093AE098093AD09DC018091A80919
:103100009091A9094091A4095091A5096091A6093F
:103110007091A709480F591F611D711D4093A409A3
:103120005093A5096093A6097093A7091092AC0962
:103130009093E5118093E411B093E311A093E21111
:103140004091E8114423A9F08091ED119091EE1186
:10315000FC01E751FE4E9C01265F3F4F8FEF840F2D
:10316000280F311D20523E4E8D918193E217F307B7
:10317000D9F789EE91E19093F0118093EF11842FAC
:1031800090E09093E7118093E611E9EEF1E1808100
:103190009181A281B3818093771190937811A0934C
:1031A0007911B0937A111092E1111092E01184E03C
:1031B0008093E81189E892E0909361118093601107
:1031C0000E94DB588111B3CBE091EF11F091F01127
:1031D00080819181A281B38180937B1190937C1136
:1031E000A0937D11B0937E111092E1111092E01125
:1031F00084E08093E8118DE892E0909361118093D0
:1032000060110E94DB58811192CBE091EF11F09197
:10321000F01180819181A281B38180937F1190937D
:103220008011A0938111B09382111092E11110923C
:10323000E01184E08093E81181E992E090936111BC
:10324000809360110C94080C863622E0920709F4F2
:103250009FCE8837924009F4BBCE8FEF9FEF9093BB
:1032600061118093601180E063CB80916F11909128
:103270007011892B09F4E7C38091DC118F7B809357
:10328000DC111092E1111092E01182E08093E811BC
:103290008BEE93E090936111809360110E94DB5854
:1032A000811145CB8091DB11E091EF11F091F0118C
:1032B000882311F40C944423A081B1812091D21170
:1032C0003091D3114091D4115091D5110E94B28404
:1032D000DC01CB011AE0B695A795979587951A95CD
:1032E000D1F79093DF118093DE110E94105A88EF7E
:1032F00093E090936111809360118091CF11909130
:10330000D011009711F40C94D30B01979093D01126
:103310008093CF11E091EF0D81E08E0F8093EF0D40
:10332000F0E0EE0FFF1FEE0FFF1FE151F64F80910F
:10333000DC119091DD11A091DE11B091DF1180833D
:103340009183A283B3838091DC118F778093DC110A
:1033500080916F11909170110197909370118093EB
:103360006F11892B09F46FC31092E1111092E011D3
:1033700082E08093E81181E094E090936111809362
:1033800060110E94DB588111D2CA8091DB11E0915B
:10339000EF11F091F011882311F40C942C24A081EA
:1033A000B1812091D2113091D3114091D41150911B
:1033B000D5110E94B284DC01CB01CAE0B695A79575
:1033C00097958795CA95D1F79093DF118093DE1179
:1033D00090916C119093DD1180916B11882311F401
:1033E0000C944E224091871150918811609189115F
:1033F00070918A1177FF02C00C94212A0091AF11BD
:103400001091B0112091B1113091B211400F511FA4
:10341000621F731F40938711509388116093891125
:1034200070938A1191609093DD11813011F00C94AA
:103430004E2240918F115091901160919111709195
:10344000921177FF02C00C94E0270091B711109100
:10345000B8112091B9113091BA11400F511F621F5C
:10346000731F40938F11509390116093911170933B
:1034700092119091DD1194609093DD11833039F1B8
:103480004091931150919411609195117091961102
:1034900077FF02C00C940C280091BB111091BC1155
:1034A0002091BD113091BE11400F511F621F731F3B
:1034B00040939311509394116093951170939611CA
:1034C0009091DD1198609093DD11843029F1809105
:1034D000971190919811A0919911B0919A11B7FFFD
:1034E00002C00C94C8294091BF115091C011609145
:1034F000C1117091C211840F951FA61FB71F809331
:10350000971190939811A0939911B0939A1180916B
:10351000DD1180618093DD118EE094E09093611164
:10352000809360118091CF119091D011009711F488
:103530000C94D30B01979093D0118093CF11E0910D
:10354000EF0D81E08E0F8093EF0DF0E0EE0FFF1F87
:10355000EE0FFF1FE151F64F8091DC119091DD11CC
:10356000A091DE11B091DF1180839183A283B38398
:10357000EFCE8091C7119091C811A091C911B0915F
:10358000CA11892B8A2B8B2B09F4E8C18091DC119D
:1035900083FF03C080648093DC1180916D11909152
:1035A0006E119093DF118093DE1190916C119093C6
:1035B000DD1180916B11882309F41BC7409187119D
:1035C000509188116091891170918A1177FF02C022
:1035D0000C9482290091AF111091B0112091B1117A
:1035E0003091B211400F511F621F731F409387111A
:1035F000509388116093891170938A119160909310
:10360000DD11813009F0F5C640918F115091901174
:10361000609191117091921177FF02C00C947727FD
:103620000091B7111091B8112091B9113091BA11D0
:10363000400F511F621F731F40938F1150939011C1
:1036400060939111709392119091DD119460909319
:10365000DD11833039F140919311509194116091B3
:1036600095117091961177FF02C00C945627009126
:10367000BB111091BC112091BD113091BE11400FB2
:10368000511F621F731F40939311509394116093C5
:103690009511709396119091DD1198609093DD11C2
:1036A000843029F18091971190919811A0919911EE
:1036B000B0919A11B7FF02C00C94FA284091BF1143
:1036C0005091C0116091C1117091C211840F951F6A
:1036D000A61FB71F8093971190939811A0939911EB
:1036E000B0939A118091DD1180618093DD1181EAA0
:1036F00093E090936111809360118091CF1190912C
:10370000D011009711F40C94D30B01979093D01122
:103710008093CF11E091EF0D81E08E0F8093EF0D3C
:10372000F0E0EE0FFF1FEE0FFF1FE151F64F80910B
:10373000DC119091DD11A091DE11B091DF11808339
:103740009183A283B3838091DC118F778093DC1106
:103750004091C7115091C8116091C9117091CA115F
:1037600041505109610971094093C7115093C81123
:103770006093C9117093CA11452B462B472B09F44E
:10378000EAC090916C119093DD1180916B118823A8
:1037900011F40C94982440918711509188116091F4
:1037A000891170918A1177FF02C00C94FB2A009155
:1037B000AF111091B0112091B1113091B211400FA1
:1037C000511F621F731F409387115093881160939C
:1037D000891170938A1191609093DD11813011F0FD
:1037E0000C94982440918F115091901160919111F7
:1037F0007091921177FF02C00C94A42A0091B71126
:103800001091B8112091B9113091BA11400F511F88
:10381000621F731F40938F11509390116093911109
:10382000709392119091DD1194609093DD1183302B
:1038300039F14091931150919411609195117091CB
:10384000961177FF02C00C94BA2A0091BB11109117
:10385000BC112091BD113091BE11400F511F621F4C
:10386000731F40939311509394116093951170932B
:1038700096119091DD1198609093DD11843029F1BB
:103880008091971190919811A0919911B0919A11EE
:10389000B7FF02C00C94E52A4091BF115091C011AE
:1038A0006091C1117091C211840F951FA61FB71F9F
:1038B0008093971190939811A0939911B0939A11B6
:1038C0008091DD1180618093DD118AEA93E090930D
:1038D0006111809360118091CF119091D011009768
:1038E00011F40C94D30B01979093D0118093CF11C6
:1038F000E091EF0D81E08E0F8093EF0DF0E0EE0F81
:10390000FF1FEE0FFF1FE151F64F8091DC119091E8
:10391000DD11A091DE11B091DF1180839183A2832C
:10392000B3838091C7119091C811A091C911B09132
:10393000CA110197A109B1098093C7119093C811C9
:10394000A093C911B093CA11892B8A2B8B2B09F034
:1039500018CF8091DC118F7B8093DC1180917111E5
:1039600090917211892B09F480CC8091DC118F7BAE
:103970008093DC111092E1111092E01181E08093AC
:10398000E8118CEB93E090936111809360110E9499
:10399000DB5881110C9497148091DB11E091EF11A9
:1039A000F091F011882309F477C6A0812091D211FB
:1039B0003091D3114091D4115091D511B0E00E94B3
:1039C000B284DC01CB014AE0B695A795979587951F
:1039D0004A95D1F79093DF118093DE110E94105A1F
:1039E00089EC93E090936111809360118091CF11E5
:1039F0009091D011009711F40C94D30B01979093F0
:103A0000D0118093CF11E091EF0D81E08E0F809364
:103A1000EF0DF0E0EE0FFF1FEE0FFF1FE151F64F2D
:103A20008091DC119091DD11A091DE11B091DF1138
:103A300080839183A283B3838091DC118F778093FD
:103A4000DC110C94E00A809162119091631192FF55
:103A500002C00C948E140C9493148091691190916F
:103A60006A11892B09F485CD8091DC118F7B8093BD
:103A7000DC111092E1111092E01181E08093E811C5
:103A800084E693E090936111809360110E94DB586B
:103A900081110C9497148091DB11E091EF11F0915A
:103AA000F011882309F449C6A0812091D2113091E8
:103AB000D3114091D4115091D511B0E00E94B2843D
:103AC000DC01CB01CAE0B695A79597958795CA9575
:103AD000D1F79093DF118093DE1190916C11909348
:103AE000DD1180916B11882309F40BC4409187117B
:103AF000509188116091891170918A1177FF02C0ED
:103B00000C9456290091AF111091B0112091B11170
:103B10003091B211400F511F621F731F40938711E4
:103B2000509388116093891170938A1191609093DA
:103B3000DD11813009F0E5C340918F115091901152
:103B4000609191117091921177FF02C00C9400273F
:103B50000091B7111091B8112091B9113091BA119B
:103B6000400F511F621F731F40938F11509390118C
:103B700060939111709392119091DD1194609093E4
:103B8000DD11833039F1409193115091941160917E
:103B900095117091961177FF02C00C942B2700911C
:103BA000BB111091BC112091BD113091BE11400F7D
:103BB000511F621F731F4093931150939411609390
:103BC0009511709396119091DD1198609093DD118D
:103BD000843029F18091971190919811A0919911B9
:103BE000B0919A11B7FF02C00C94E4284091BF1124
:103BF0005091C0116091C1117091C211840F951F35
:103C0000A61FB71F8093971190939811A0939911B5
:103C1000B0939A118091DD1180618093DD1181E76D
:103C200093E090936111809360118091CF119091F6
:103C3000D011009711F40C94D30B01979093D011ED
:103C40008093CF11E091EF0D81E08E0F8093EF0D07
:103C5000F0E0EE0FFF1FEE0FFF1FE151F64F8091D6
:103C6000DC119091DD11A091DE11B091DF11808304
:103C70009183A283B3838091DC118F778093DC11D1
:103C80000C9422168E30F4E09F0709F44BCC83325B
:103C9000944009F0E2CA8091EF0D9091F00D891BDC
:103CA0008095282F30E03093D0112093CF118823B6
:103CB00011F40C9497141092E1111092E01182E02B
:103CC0008093E81187E294E09093611180936011F2
:103CD0000E94DB5881110C949714E091EF11F09140
:103CE000F01180819181809362119093631187FD1F
:103CF00005C68091DC118F7B8093DC111092E1115D
:103D00001092E01182E08093E8118BE394E09093AD
:103D10006111809360118091E6119091E71160919B
:103D2000E4117091E511681B790B7093EE116093AB
:103D3000ED11A091E8112A2F30E06217730710F0FF
:103D40000C94DC266115710509F4ADC4E091E21113
:103D5000F091E31140E050E020E0E80FF91F80E02F
:103D600090E0A150EF01C40FD51F3881EC01C05283
:103D7000DE4E39878A2F821B8093E8112F5F822FB6
:103D800090E0AC018617970768F386EA91E090937C
:103D9000E1118093E0118091AC09882311F40C9417
:103DA00097148091AD099091AE09845A954011F411
:103DB0000C94402B84EA95E09093AE098093AD0972
:103DC000DC018091A8099091A9094091A409509122
:103DD000A5096091A6097091A709480F591F611D97
:103DE000711D4093A4095093A5096093A60970938F
:103DF000A7091092AC099093E5118093E411B09358
:103E0000E311A093E2114091E8114423A9F08091BD
:103E1000ED119091EE11FC01E751FE4E9C01265FE1
:103E20003F4F8FEF840F280F311D20523E4E8D9152
:103E30008193E217F307D9F789EE91E19093F0119E
:103E40008093EF11842F90E09093E7118093E61117
:103E5000E9EEF1E10C9474128538E2E09E0709F472
:103E6000F1C18938924009F4ABC9F7C9883AE2E058
:103E70009E0711F40C948C0C8E3F924011F40C941C
:103E8000490DEBC98835F3E09F0711F40C941E121D
:103E90008436934009F4FACDE0C98C3BE3E09E07F9
:103EA00009F475CD893C934009F4A0CDD6C9853A73
:103EB000F4E09F0711F40C943B14883A944011F4F9
:103EC0000C944C14CAC9803E24E0920709F4DBC06C
:103ED000873F944009F0C1C98091E0119091E111B0
:103EE000863AF1E09F0709F48CC6873B21E09207F0
:103EF00009F4F8C5892B09F445C6E091EF11F0915A
:103F0000F0118FEF9FEF9093E1118093E011C18149
:103F1000D081C1110C948B2A10925211109253111E
:103F200010925411109255116D2F70E089E00E948B
:103F300002570C94931486EA91E09093E1118093D8
:103F4000E0118091AC09882311F40C9497148091AE
:103F5000AD099091AE09845A954011F40C94A02BB0
:103F600084EA95E09093AE098093AD09DC018091DD
:103F7000A8099091A9094091A4095091A5096091BF
:103F8000A6097091A709480F591F611D711D409323
:103F9000A4095093A5096093A6097093A7091092EC
:103FA000AC099093E5118093E411B093E311A093D1
:103FB000E2114091E8114423A9F08091ED11909114
:103FC000EE11FC01E751FE4E9C01265F3F4F8FEF43
:103FD000840F280F311D20523E4E8D918193E217A0
:103FE000F307D9F789EE91E19093F0118093EF11E7
:103FF000842F90E09093E7118093E611E9EEF1E1D0
:104000008FEF9FEF9093E1118093E0118091DB118E
:10401000882309F45AC5A081B1812091D211309131
:10402000D3114091D4115091D5110E94B284DC017A
:10403000CB012AE0B695A795979587952A95D1F754
:104040009093DF118093DE111092E1111092E01134
:1040500081E08093E8118DED94E09093611180935D
:1040600060110E94DB5881110C949714E091EF11BC
:10407000F091F01180818093DD1180EE94E09093B7
:104080006111809360118091CF119091D0110097B0
:1040900011F40C94D30B01979093D0118093CF110E
:1040A000E091EF0D81E08E0F8093EF0DF0E0EE0FC9
:1040B000FF1FEE0FFF1FE151F64F8091DC11909131
:1040C000DD11A091DE11B091DF1180839183A28375
:1040D000B3838091CB119091CC1101979093CC1127
:1040E0008093CB11892B09F448C01092E1111092F2
:1040F000E01182E08093E81181ED94E090936111EA
:10410000809360118091E6119091E7116091E41124
:104110007091E511681B790B7093EE116093ED11AE
:10412000A091E8112A2F30E06217730710F00C9469
:1041300010296115710509F479C4E091E211F0913B
:10414000E31140E050E020E0E80FF91F80E090E04C
:10415000A150EF01C40FD51F3881EC01C052DE4ED3
:1041600039878A2F821B8093E8112F5F822F90E07E
:10417000AC018617970768F3DECE809162119091AB
:1041800063110C948C141092E1111092E01184E0F0
:104190008093E81182E295E0909361118093601121
:1041A0000E94DB5881110C949714E091EF11F0916B
:1041B000F01161817281438180810E949B51109234
:1041C00061111092601181E00C9498141092E11129
:1041D0001092E01183E08093E81180E095E09093E5
:1041E0006111809360110E94DB5881110C94971427
:1041F000E091EF11F091F0116181728140E08081D6
:104200000E949B51109261111092601181E00C94F8
:1042100098148091E0119091E111863AF1E09F07A6
:1042200011F40C94F512873B21E0920709F492C235
:10423000892B11F40C94B412E091EF11F091F0116C
:104240000C9453138091E0119091E111863AE1E0D2
:104250009E0711F40C946918873BF1E09F0709F45D
:1042600075C1892B11F40C942818E091EF11F0918D
:10427000F0110C94C7181092E1111092E01181E036
:104280008093E81180E492E0909361118093601133
:104290000C94EA168091E0119091E111863A21E0A8
:1042A000920711F40C94E70E873BE1E09E0709F4B6
:1042B00079C3892B11F40C94A60EE091EF11F091C3
:1042C000F0110C94450F8091E0119091E111863A24
:1042D000E1E09E0709F435CE873BF1E09F0709F442
:1042E000ABC3892B09F40ECFE091EF11F091F011DF
:1042F00087CE8081918190936E1180936D110C9483
:10430000700D40918B1150918C1160918D117091B5
:104310008E1177FD8BC50091B3111091B4112091CE
:10432000B5113091B611400F511F621F731F40939A
:104330008B1150938C1160938D1170938E1190910D
:10434000DD1192609093DD11823009F0F5CB1BCC2A
:10435000B093DF11A093DE110C942E1487EB91E043
:104360009093E1118093E0118091AC09882311F4BE
:104370000C9497148091AD099091AE09845A9540A0
:1043800011F40C94252B84EA95E09093AE09809368
:10439000AD09FC012091A8093091A9098091A409D7
:1043A0009091A509A091A609B091A709820F931F2A
:1043B000A11DB11D8093A4099093A509A093A609FE
:1043C000B093A7091092AC093093E5112093E41142
:1043D000F093E311E093E211F093F011E093EF1109
:1043E0008091E81190E09093E7118093E6110C948E
:1043F000B70F40918B1150918C1160918D1170917C
:104400008E1177FD3EC50091B3111091B41120912A
:10441000B5113091B611400F511F621F731F4093A9
:104420008B1150938C1160938D1170938E1190911C
:10443000DD1192609093DD11823009F0E5C80BC95F
:10444000232B11F40C948C1450CE40918B1150916D
:104450008C1160918D1170918E1177FD8AC500913C
:10446000B3111091B4112091B5113091B611400FD4
:10447000511F621F731F40938B1150938C116093D7
:104480008D1170938E119091DD1192609093DD11DA
:10449000823011F00C9490100C94B71040918B1155
:1044A00050918C1160918D1170918E1177FDDFC547
:1044B0000091B3111091B4112091B5113091B61142
:1044C000400F511F621F731F40938B1150938C112B
:1044D00060938D1170938E119091DD119260909385
:1044E000DD11823011F00C94191A0C94401A40918D
:1044F0008B1150918C1160918D1170918E1177FDFF
:10450000A1C50091B3111091B4112091B511309152
:10451000B611400F511F621F731F40938B115093B0
:104520008C1160938D1170938E119091DD119260BA
:104530009093DD11823011F00C94530B0C947A0B94
:1045400087EB91E09093E1118093E0118091AC09A9
:10455000882311F40C9497148091AD099091AE09C1
:10456000845A954011F40C942E2B84EA95E0909394
:10457000AE098093AD09FC012091A8093091A909E9
:104580008091A4099091A509A091A609B091A709CD
:10459000820F931FA11DB11D8093A4099093A509BB
:1045A000A093A609B093A7091092AC093093E51126
:1045B0002093E411F093E311E093E211F093F011F2
:1045C000E093EF118091E81190E09093E7118093D0
:1045D000E6110C94C71840918B1150918C11609189
:1045E0008D1170918E1177FD83C50091B3111091DB
:1045F000B4112091B5113091B611400F511F621FB7
:10460000731F40938B1150938C1160938D11709395
:104610008E119091DD1192609093DD11823011F036
:104620000C9483150C94AA1540918B1150918C1108
:1046300060918D1170918E1177FDB1C50091B3110C
:104640001091B4112091B5113091B611400F511F46
:10465000621F731F40938B1150938C1160938D11C7
:1046600070938E119091DD1192609093DD118230E4
:1046700011F00C94A5110C94CC118091DB118111D7
:104680000C942C0D0C943C0D808191819093DF1142
:104690008093DE110C947519808190E09093DF1166
:1046A0008093DE119BC987EB91E09093E111809399
:1046B000E0118091AC09882311F40C949714809137
:1046C000AD099091AE09845A954009F4E2C784EA95
:1046D00095E09093AE098093AD09FC012091A80963
:1046E0003091A9098091A4099091A509A091A609EA
:1046F000B091A709820F931FA11DB11D8093A4093A
:104700009093A509A093A609B093A7091092AC09AC
:104710003093E5112093E411F093E311E093E2115B
:10472000F093F011E093EF118091E81190E09093F5
:10473000E7118093E6110C947412808190E09093BD
:10474000DF118093DE11C9C987EB91E09093E111ED
:104750008093E0118091AC09882311F40C94971494
:104760008091AD099091AE09845A954009F4A9C78A
:1047700084EA95E09093AE098093AD09FC01209105
:10478000A8093091A9098091A4099091A509A09147
:10479000A609B091A709820F931FA11DB11D809397
:1047A000A4099093A509A093A609B093A709109214
:1047B000AC093093E5112093E411F093E311E093F9
:1047C000E211F093F011E093EF118091E81190E085
:1047D0009093E7118093E6110C945313882309F406
:1047E000AFC280910A0F90910B0FA0E0B0E08093D0
:1047F000D2119093D311A093D411B093D51181E02D
:104800008093DB118091491190914A118E3F2FEFD7
:10481000920709F40AC7019690934A1180934911AF
:104820000C94E613808191819093DF118093DE11C7
:104830000C945F10813109F4A6CC873711F40C94E5
:1048400093148D3011F00C94051783E294E090934B
:104850006111809360111FCA808191819093DF1153
:104860008093DE110C94E81987EB91E09093E111AD
:104870008093E0118091AC09882311F40C94971473
:104880008091AD099091AE09845A954009F433C7DF
:1048900084EA95E09093AE098093AD09FC012091E4
:1048A000A8093091A9098091A4099091A509A09126
:1048B000A609B091A709820F931FA11DB11D809376
:1048C000A4099093A509A093A609B093A7091092F3
:1048D000AC093093E5112093E411F093E311E093D8
:1048E000E211F093F011E093EF118091E81190E064
:1048F0009093E7118093E6110C942D158F79FBC9E5
:10490000808190E09093DF118093DE110C94220B54
:10491000808190E09093DF118093DE110C9452150A
:10492000808191819093DF118093DE110C9474113A
:1049300040918B1150918C1160918D1170918E115D
:1049400077FD2EC60091B3111091B4112091B511CD
:104950003091B611400F511F621F731F40938B118E
:1049600050938C1160938D1170938E119091DD1185
:1049700092609093DD11823011F00C94F21B0C9434
:10498000191C880F991FFC01E25BFF4E20813181C9
:1049900040E050E00C947D1387EB91E09093E1119F
:1049A0008093E0118091AC09882311F40C94971442
:1049B0008091AD099091AE09845A954009F4B8C62A
:1049C00084EA95E09093AE098093AD09FC012091B3
:1049D000A8093091A9098091A4099091A509A091F5
:1049E000A609B091A709820F931FA11DB11D809345
:1049F000A4099093A509A093A609B093A7091092C2
:104A0000AC093093E5112093E411F093E311E093A6
:104A1000E211F093F011E093EF118091E81190E032
:104A20009093E7118093E6110C94450F87EB91E08A
:104A30009093E1118093E0118091AC09882311F4E7
:104A40000C9497148091AD099091AE09845A9540C9
:104A500009F47FC684EA95E09093AE098093AD098E
:104A6000FC012091A8093091A9098091A409909195
:104A7000A509A091A609B091A709820F931FA11DB6
:104A8000B11D8093A4099093A509A093A609B093A2
:104A9000A7091092AC093093E5112093E411F0932B
:104AA000E311E093E211F093F011E093EF118091A4
:104AB000E81190E09093E7118093E611A1CAB093BA
:104AC000DF11A093DE110C94750F8081918190937A
:104AD000DF118093DE11B8CA87EB91E09093E1116A
:104AE0008093E0118091AC09882311F40C94971401
:104AF0008091AD099091AE09845A954009F431C670
:104B000084EA95E09093AE098093AD09FC01209171
:104B1000A8093091A9098091A4099091A509A091B3
:104B2000A609B091A709820F931FA11DB11D809303
:104B3000A4099093A509A093A609B093A709109280
:104B4000AC093093E5112093E411F093E311E09365
:104B5000E211F093F011E093EF118091E81190E0F1
:104B60009093E7118093E611CCC91092E111109255
:104B7000E01182E08093E81187EF94E09093611157
:104B8000809360118091E6119091E7116091E4119A
:104B90007091E511681B790B7093EE116093ED1124
:104BA000A091E8112A2F30E06217730708F075C44E
:104BB0006115710509F490CFE091E211F091E311D4
:104BC00040E050E020E0E80FF91F80E090E0A150C5
:104BD000EF01C40FD51F3881EC01C052DE4E39877A
:104BE0008A2F821B8093E8112F5F822F90E0AC0107
:104BF0008617970768F386EA91E09093E111809316
:104C0000E0118091AC09882311F40C9497148091E1
:104C1000AD099091AE09845A954009F4AAC584EA79
:104C200095E09093AE098093AD09DC018091A809CD
:104C30009091A9094091A4095091A5096091A609F4
:104C40007091A709480F591F611D711D4093A40958
:104C50005093A5096093A6097093A7091092AC0917
:104C60009093E5118093E411B093E311A093E211C6
:104C70004091E8114423A9F08091ED119091EE113B
:104C8000FC01E751FE4E9C01265F3F4F8FEF840FE2
:104C9000280F311D20523E4E8D918193E217F3076C
:104CA000D9F789EE91E19093F0118093EF11842F61
:104CB00090E09093E7118093E611E9EEF1E121C9CC
:104CC000E091E211F091E311E80FF91FF093F01178
:104CD000E093EF11820F931F9093E7118093E611F9
:104CE0000C94B70F20914E1030914F1040E050E0DF
:104CF0000C947D138091090F882309F419C38091C6
:104D00000A0F90910B0FA0E0B0E08093D211909326
:104D1000D311A093D411B093D51181E08093DB110E
:104D20008091491190914A118E3F2FEF920709F41B
:104D3000EAC4019690934A11809349110C942C0D6A
:104D400080913811882309F44FC3809139119091D3
:104D50003A11A0913B11B0913C118093D2119093E4
:104D6000D311A093D411B093D51121E02093DB117E
:104D70000C94EE13E091E211F091E311E80FF91FAA
:104D8000F093F011E093EF11820F931F9093E711CE
:104D90008093E6110C94C71865E172E088EF92E009
:104DA0000E9439420C943C0D65E172E081E994E087
:104DB0000E9439420C94F613E091E211F091E31154
:104DC000E80FF91FF093F011E093EF11820F931F9A
:104DD0009093E7118093E6110C947412E091E21124
:104DE000F091E311EA0FFB1FF093F011E093EF1144
:104DF000A80FB91FB093E711A093E6110C945313B9
:104E00000091A3111091A4112091A5113091A61128
:104E1000400F511F621F731F40938F1150939011C9
:104E200060939111709392110C94C11D00919F1188
:104E30001091A0112091A1113091A211400F511F8A
:104E4000621F731F40938B1150938C1160938D11CF
:104E500070938E1179CA0091A7111091A811209119
:104E6000A9113091AA11400F511F621F731F409367
:104E700093115093941160939511709396110C9423
:104E8000E81D00919F111091A0112091A111309166
:104E9000A211400F511F621F731F40938B1150933B
:104EA0008C1160938D1170938E11C6CA0091A71159
:104EB0001091A8112091A9113091AA11400F511FF2
:104EC000621F731F40939311509394116093951137
:104ED000709396110C94501B220F331FF901E25B63
:104EE000FF4E2081318140E050E00C94CB0C0091CA
:104EF000A3111091A4112091A5113091A611400F7A
:104F0000511F621F731F40938F1150939011609334
:104F10009111709392110C94291B0091A31110917F
:104F2000A4112091A5113091A611400F511F621FAD
:104F3000731F40938F115093901160939111709350
:104F400092110C94B5100091A7111091A811209105
:104F5000A9113091AA11400F511F621F731F409376
:104F600093115093941160939511709396110C9432
:104F7000DC1000919F111091A0112091A11130918E
:104F8000A211400F511F621F731F40938B1150934A
:104F90008C1160938D1170938E117ACAE091E21199
:104FA000F091E311E80FF91FF093F011E093EF1186
:104FB000820F931F9093E7118093E6110C942D15A7
:104FC0000091A3111091A4112091A5113091A61167
:104FD000400F511F621F731F40938F115093901108
:104FE00060939111709392110C943E1A0091A71145
:104FF0001091A8112091A9113091AA11400F511FB1
:10500000621F731F409393115093941160939511F5
:10501000709396110C949F0B0091A7111091A811F9
:105020002091A9113091AA11400F511F621F731FC7
:10503000409393115093941160939511709396112E
:105040000C94651A00919F111091A0112091A1114B
:105050003091A211400F511F621F731F40938B119B
:1050600050938C1160938D1170938E1163CA0091CF
:105070009F111091A0112091A1113091A211400F08
:10508000511F621F731F40938B1150938C116093BB
:105090008D1170938E1125CA0091A3111091A41146
:1050A0002091A5113091A611400F511F621F731F4F
:1050B00040938F11509390116093911170939211BE
:1050C0000C94780B0091A3111091A4112091A511BB
:1050D0003091A611400F511F621F731F40938F1113
:1050E0005093901160939111709392110C94CA1186
:1050F00000919F111091A0112091A1113091A21146
:10510000400F511F621F731F40938B1150938C11DE
:1051100060938D1170938E1181CA0091A711109127
:10512000A8112091A9113091AA11400F511F621F9F
:10513000731F409393115093941160939511709342
:1051400096110C94F1110091A3111091A4112091CA
:10515000A5113091A611400F511F621F731F40937C
:105160008F115093901160939111709392110C9440
:10517000A8150091A7111091A8112091A9113091A3
:10518000AA11400F511F621F731F40939311509338
:10519000941160939511709396110C94CF15009112
:1051A0009F111091A0112091A1113091A211400FD7
:1051B000511F621F731F40938B1150938C1160938A
:1051C0008D1170938E1153CA4091AB115091AC1157
:1051D0006091AD117091AE11840F951FA61FB71F7E
:1051E0008093971190939811A0939911B0939A116D
:1051F0000C940F1E4091AB115091AC116091AD1108
:105200007091AE11840F951FA61FB71F8093971141
:1052100090939811A0939911B0939A110C94771BC5
:10522000E091E211F091E311E80FF91FF093F01112
:10523000E093EF11820F931F9093E7118093E61193
:105240000C940020E091E211F091E311E80FF91FB6
:10525000F093F011E093EF11820F931F9093E711F9
:105260008093E6110C94450F4091AB115091AC1115
:105270006091AD117091AE11840F951FA61FB71FDD
:105280008093971190939811A0939911B0939A11CC
:105290000C9403118FEF9FEF0C94E21320914E10AA
:1052A00030914F1040E050E00C94CB0C00919B11DA
:1052B00010919C1120919D1130919E11400F511F12
:1052C000621F731F40938711509388116093891157
:1052D00070938A110C94991D4091AB115091AC11AF
:1052E0006091AD117091AE11840F951FA61FB71F6D
:1052F0008093971190939811A0939911B0939A115C
:105300000C94F61500919B1110919C1120919D1108
:1053100030919E11400F511F621F731F40938711E0
:10532000509388116093891170938A110C94011B1A
:1053300080913811882309F4A0C980913911909186
:105340003A11A0913B11B0913C118093D2119093EE
:10535000D311A093D411B093D51121E02093DB1188
:105360000C94340D4091AB115091AC116091AD1182
:105370007091AE11840F951FA61FB71F80939711D0
:1053800090939811A0939911B0939A110C94C60B15
:105390004091AB115091AC116091AD117091AE1173
:1053A000840F951FA61FB71F809397119093981194
:1053B000A0939911B0939A110C948C1A00919B119F
:1053C00010919C1120919D1130919E11400F511F01
:1053D000621F731F40938711509388116093891146
:1053E00070938A110C948C108091DB11882311F436
:1053F0000C94F6130C94E6131092E1111092E01144
:1054000082E08093E81180E195E0909361118093B0
:1054100060110C94B9144091AB115091AC11609192
:10542000AD117091AE11840F951FA61FB71F809309
:10543000971190939811A0939911B0939A110C948D
:10544000181200919B1110919C1120919D11309187
:105450009E11400F511F621F731F4093871150937D
:1054600088116093891170938A110C94151A009118
:105470009B1110919C1120919D1130919E11400F14
:10548000511F621F731F40938711509388116093BF
:10549000891170938A110C944F0BE091E211F091F5
:1054A000E311E80FF91FF093F011E093EF11820F71
:1054B000931F9093E7118093E6110C94811F009144
:1054C0009B1110919C1120919D1130919E11400FC4
:1054D000511F621F731F409387115093881160936F
:1054E000891170938A110C947F1500919B11109172
:1054F0009C1120919D1130919E11400F511F621FF0
:10550000731F409387115093881160938911709392
:105510008A110C94A1116FEF70E089E00E9402578C
:10552000D09351110E94FC57DC01CB018C0F911DCF
:10553000A11DB11D8093521190935311A09354114A
:10554000B09355110C9493140091A3111091A411D0
:105550002091A5113091A611400F511F621F731F9A
:1055600040938F1150939011609391117093921109
:105570000C94171C0091A7111091A8112091A9114A
:105580003091AA11400F511F621F731F4093931156
:105590005093941160939511709396110C943E1C46
:1055A00000919F111091A0112091A1113091A21191
:1055B000400F511F621F731F40938B1150938C112A
:1055C00060938D1170938E11D6C94091AB1150919B
:1055D000AC116091AD117091AE11840F951FA61F93
:1055E000B71F8093971190939811A0939911B0933E
:1055F0009A110C94651C00919B1110919C112091A3
:105600009D1130919E11400F511F621F731F4093D7
:105610008711509388116093891170938A110C94AB
:10562000EE1B8FEF9FEF0C94280D8FEF9FEFF4C8C8
:105630008FEF9FEF0C94D01384EA97E09093AE091C
:105640008093AD09DC010C94EE0D84EA97E0909311
:10565000AE098093AD09FC010C94CA2184EA97E05D
:105660009093AE098093AD09FC010C94BC2284EAAE
:1056700097E09093AE098093AD09DC010C947E18FD
:1056800084EA97E09093AE098093AD09DC010C9415
:10569000E11E84EA97E09093AE098093AD09FC0186
:1056A0001DC86FEF7FEF7093830360938203921B9B
:1056B0009F3F11F00C949F17425040937C030C9431
:1056C000A41784EA97E09093AE098093AD09FC019A
:1056D00056C884EA97E09093AE098093AD09DC0147
:1056E0000C940A1384EA97E09093AE098093AD0975
:1056F000DC010C94911684EA97E09093AE098093B4
:10570000AD09FC01CCC88FEF9FEF14CB8FEF9FEF5B
:105710000C94160DDA01A658BD4F0C944D1784EA6F
:1057200097E09093AE098093AD09DC010C94FC0ED8
:1057300084EA97E09093AE098093AD09FC0147C9D4
:1057400084EA97E09093AE098093AD09DC010C9454
:10575000B71F84EA97E09093AE098093AD09FC01EE
:1057600080C984EA97E09093AE098093AD09FC016B
:10577000CEC984EA97E09093AE098093AD09DC012D
:1057800055CA82818F5F828397CF92819F5F928378
:105790009A2F0C9473172F923F924F925F926F92B1
:1057A0007F928F929F92AF92BF92DF92EF92FF9281
:1057B0000F931F93CF93DF93CDB7DEB760970FB6EC
:1057C000F894DEBF0FBECDBFF89498E288E10FB623
:1057D000F894A895809360000FBE9093600080912C
:1057E00081008F7E8093810080918100886080930A
:1057F0008100809180008D7F809380008091800067
:105800008E7F80938000809180008F7380938000D2
:10581000809180008F7C8093800080918100887FC0
:1058200082608093810080E090E49093890080936F
:10583000880090938B0080938A00109285001092CC
:105840008400EAEBF3E1849190E0880F991FFC015A
:10585000EC58FC4E259134913093F4112093F311C0
:10586000FC01E658FB4E2591349130935A02209367
:105870005902805A9B4EFC01859194919093F211AC
:105880008093F111E0E0F4E1E491E09358029FB7D6
:10589000F894E091F111F091F21120818091580279
:1058A000822B80839FBF2FB7F894E0915902F0912B
:1058B0005A028081909158029095892380832FBF4E
:1058C000E5E9F3E1849190E0880F991FFC01EC5821
:1058D000FC4E259134913093F8112093F711FC017F
:1058E000E658FB4E2591349130932A1320932913C7
:1058F000805A9B4EFC01859194919093F611809370
:10590000F511EBEDF3E1E491E09328139FB7F894E0
:10591000E091F511F091F611208180912813822BEE
:1059200080839FBF2FB7F894E0912913F0912A1339
:105930008081909128139095892380832FBFE7E978
:10594000F3E1849190E0880F991FFC01EC58FC4E24
:10595000259134913093FF112093FE11FC01E658FC
:10596000FB4E259134913093FD112093FC11805A08
:105970009B4EFC01859194919093FB118093FA11B9
:10598000EDEDF3E1E491E093F9119FB7F894E09124
:10599000FA11F091FB1120818091F911822B808303
:1059A0009FBF9FB7F894E0910512F09106122081F5
:1059B00080910412822B80839FBFE3ECF3E18491FA
:1059C00090E0880F991FFC01EC58FC4E2591349112
:1059D0003093031220930212FC01E658FB4E2591EE
:1059E00034913093061220930512805A9B4EFC018D
:1059F000859194919093011280930012E9E0F4E173
:105A0000E491E09304129FB7F894E0910012F091B2
:105A10000112208180910412822B80839FBF9FB747
:105A2000F894E0910512F091061220818091041201
:105A3000822B80839FBF9FB7F894E0910B13F09166
:105A40000C13208180910A13822B80839FBFE9E988
:105A5000F3E1849190E0880F991FFC01EC58FC4E13
:105A60002591349130930A1220930912FC01E658D3
:105A7000FB4E2591349130930C1320930B13805AD5
:105A80009B4EFC018591949190930812809307128C
:105A9000EFEDF3E1E491E0930A139FB7F894E091FE
:105AA0000712F0910812208180910A13822B8083C3
:105AB0009FBF9FB7F894E0910B13F0910C132081D6
:105AC00080910A13822B80839FBFE2ECF3E18491E3
:105AD00090E0880F991FFC01EC58FC4E2591349101
