:1000000058C6000087C6000085C6000083C60000F1
:1000100081C600007FC600007DC600007BC60000D0
:1000200079C6000077C6000075C6000073C60000E0
:1000300071C600006FC600006DC600006BC60000F0
:1000400069C600000C94504C0C94664863C60000CE
:1000500061C600005FC600005DC600000C94FC6530
:1000600059C600000C94B44E55C6000053C600009B
:1000700051C600004FC600004DC600004BC6000030
:1000800049C6000047C6000045C6000043C6000040
:1000900041C600003FC600003DC600003BC6000050
:1000A00039C6000037C6000035C6000033C6000060
:1000B00031C600002FC600002DC600002BC6000070
:1000C00029C6000027C6000025C6000023C6000080
:1000D00021C600001FC600001DC600001BC6000090
:1000E00019C60000161FDD1E1B1B1B1B1B1BAE1E93
:1000F000A11E9E1E711E5F1E5A1E1B1B1B1B1B1B5F
:100100001B1B1B1B1B1B1B1B1B1B1B1B1B1B1B1B3F
:100110001B1B571E541E1B1B1B1B1B1B441E411E5F
:100120003E1E3B1E1B1B381E1B1B1B1B971C921CC1
:10013000A61C9A1CB51C901CBE1CB21C301D1B1B9F
:100140001C1D191D161D0A1D1B1B1B1B041D1B1B23
:10015000FF1CEE1C261E0F1EDA1DD41D2E1E2B1E8C
:10016000311EB81DA21DDA1E656369636D6373637A
:10017000796364637F6385638B63916397639D6336
:10018000A363A9636463AF63B5635F631F6527659A
:100190002C65366540650E654A6552655A6564652D
:1001A0006E657865876591650E659B65A565AF652C
:1001B000441F041D671B2A1A2B195718A21706176C
:1001C0007B16001692152D15D1147C142E14E513F0
:1001D000A11362132613ED12B812851255122712BD
:1001E000FC11D211AA1184115F113B111911F810E1
:1001F000D910BA109C108010641049102F101510DF
:10020000FC0FE40FCD0FB60FA00F8A0F750F610F13
:100210004C0F390F250F130F000FEE0EDD0ECB0E16
:10022000BA0EAA0E990E890E7A0E6A0E5B0E4C0E4D
:100230003E0E2F0E210E130E060EF80DEB0DDE0DE9
:10024000D10DC50DB80DAC0DA00D940D880D7D0D13
:10025000710D660D5B0D500D450D3B0D300D260DDE
:100260001B0D110D070DFD0CF30CEA0CE00CD70C67
:10027000CD0CC40CBB0CB20CA90CA00C980C8F0CB0
:10028000860C7E0C760C6D0C650C5D0C550C4D0CC3
:10029000450C3D0C350C2E0C260C1F0C170C100CAD
:1002A000080C010CFA0BF30BEC0BE50BDE0BD70B78
:1002B000D00BC90BC20BBC0BB50BAE0BA80BA10B23
:1002C0009B0B950B8E0B880B820B7B0B750B6F0BAF
:1002D000690B630B5D0B570B510B4C0B460B400B23
:1002E0003A0B350B2F0B290B240B1E0B190B130B81
:1002F0000E0B080B030BFE0AF80AF30AEE0AE90AD2
:10030000E40ADE0AD90AD40ACF0ACA0AC50AC00A10
:10031000BB0AB60AB10AAD0AA80AA30A9E0A990A3C
:10032000950A900A8B0A870A820A7E0A790A740A59
:10033000700A6B0A670A620A5E0A5A0A550A510A6B
:100340004C0A480A440A400A3B0A370A330A2F0A71
:100350002A0A260A220A1E0A1A0A160A120A0E0A6D
:100360000A0A060A020AFE09FA09F609F209EE0962
:10037000EA09E609E209DE09DA09D709D309CF0952
:10038000CB09C809C409C009BC09B909B509B10933
:10039000AE09AA09A609A3099F099B09980994090E
:1003A00091098D098A09860983097F097C097809E1
:1003B000750971096E096B096709640960095D09AE
:1003C0005A095609530950094C0949094609420975
:1003D0003F093C093909350932092F092C09290936
:1003E000250922091F091C091909160912090F09F3
:1003F0000C090909060903090009FD08FA08F708AC
:10040000F408F108ED08EA08E708E408E108DE0866
:10041000DB08D908D608D308D008CD08CA08C70811
:10042000C408C108BE08BB08B808B508B308B008BE
:10043000AD08AA08A708A408A1089F089C08990865
:100440009608930891088E088B0888088608830808
:1004500080087D087B0878087508720870086D08A8
:100460006A086808650862085F085D085A08570846
:10047000550852084F084D084A08480845084208E0
:1004800040083D083A0838083508330830082E0877
:100490002B0828082608230821081E081C0819080C
:1004A0001708140811080F080C080A08070805089F
:1004B00002080008FD07FB07F807F607F307F10736
:1004C000EE07EC07EA07E707E507E207E007DD07C5
:1004D000DB07D807D607D407D107CF07CC07CA0751
:1004E000C707C507C307C007BE07BB07B907B707DC
:1004F000B407B207B007AD07AB07A807A607A40764
:10050000A1079F079D079A079807960793079107EA
:100510008F078C078A0788078507830781077E076F
:100520007C077A0778077507730771076E076C07F2
:100530006A0767076507630761075E075C075A0775
:1005400058075507530751074F074C074A074807F5
:100550004607430741073F073D073A073807360775
:10056000340731072F072D072B07290726072407F4
:10057000220720071D071B07190717071507120772
:1005800010070E070C070A070707050703070107EF
:10059000FF06FC06FA06F806F606F406F206EF0673
:1005A000ED06EB06E906E706E506E206E006DE06EE
:1005B000DC06DA06D806D506D306D106CF06CD0668
:1005C000CB06C806C606C406C206C006BE06BC06E2
:1005D000B906B706B506B306B106AF06AD06AA065C
:1005E000A806A606A406A206A0069E069C069906D4
:1005F00097069506930691068F068D068B0688064C
:1006000086068406820680067E067C067A067706C3
:100610007506730671066F066D066B06690666063B
:100620006406620660065E065C065A0658065606B2
:10063000530651064F064D064B064906470645062A
:10064000430640063E063C063A06380636063406A1
:10065000320630062D062B06290627062506230618
:1006600021061F061D061A0618061606140612068F
:1006700010060E060C060A06070605060306010606
:10068000FF05FD05FB05F905F605F405F205F00586
:10069000EE05EC05EA05E805E505E305E105DF05FE
:1006A000DD05DB05D905D705D405D205D005CE0576
:1006B000CC05CA05C805C605C305C105BF05BD05EE
:1006C000BB05B905B705B405B205B005AE05AC0567
:1006D000AA05A705A505A305A1059F059D059B05E1
:1006E000980596059405920590058E058B0589055C
:1006F00087058505830581057E057C057A057805D6
:100700007605730571056F056D056B056805660552
:100710006405620560055D055B05590557055505CE
:10072000520550054E054C0549054705450543054D
:1007300041053E053C053A053805350533053105CB
:100740002F052C052A0528052605230521051F054B
:100750001C051A0518051605130511050F050C05CE
:100760000A050805060503050105FF04FC04FA0453
:10077000F804F504F304F104EE04EC04EA04E704DD
:10078000E504E304E004DE04DB04D904D704D40464
:10079000D204D004CD04CB04C804C604C404C104EC
:1007A000BF04BC04BA04B804B504B304B004AE0476
:1007B000AB04A904A604A404A1049F049D049A0404
:1007C00098049504930490048E048B048904860491
:1007D000830481047E047C04790477047404720425
:1007E0006F046C046A046704650462045F045D04BA
:1007F0005A0458045504520450044D044A04480451
:100800004504420440043D043A04370435043204EC
:100810002F042D042A042704240421041F041C048B
:1008200019041604130411040E040B04080405042F
:1008300002040004FD03FA03F703F403F103EE03DB
:10084000EB03E803E503E203DF03DC03D903D6038C
:10085000D303D003CD03CA03C703C403C103BE033C
:10086000BB03B703B403B103AE03AB03A803A403F4
:10087000A1039E039B039703940391038E038A03B2
:100880008703840380037D037903760373036F0377
:100890006C036803650361035E035A035703530344
:1008A0004F034C034803440341033D03390336031C
:1008B00032032E032A03260323031F031B031703FC
:1008C00013030F030B0307030303FF02FB02F702EB
:1008D000F302EE02EA02E602E202DD02D902D502EA
:1008E000D002CC02C702C302BE02BA02B502B102F4
:1008F000AC02A702A3029E02990294028F028A020E
:10090000850280027B02760271026C02660261023D
:100910005C02560251024B02460240023A02340285
:100920002F02290223021D02160210020A020402EB
:10093000FD01F701F001E901E201DC01D501CD0182
:10094000C601BF01B701B001A801A0019801900143
:100950008801800177016E0165015C0153014A0144
:10096000400136012C01220117010C010101F500A3
:10097000EA00DD00D100C400B600A9009A008B0097
:100980007C006C005B004900370023000F00F9FF7A
:1009900000002110422063308440A550C660E770FB
:1009A000088129914AA16BB18CC1ADD1CEE1EFF1A3
:1009B0003112100273325222B5529442F772D6624B
:1009C000399318837BB35AA3BDD39CC3FFF3DEE3F3
:1009D0006224433420040114E664C774A44485549B
:1009E0006AA54BB528850995EEE5CFF5ACC58DD543
:1009F0005336722611163006D776F6669556B446EB
:100A00005BB77AA719973887DFF7FEE79DD7BCC792
:100A1000C448E5588668A77840086118022823383A
:100A2000CCC9EDD98EE9AFF9488969990AA92BB9E2
:100A3000F55AD44AB77A966A711A500A333A122A8A
:100A4000FDDBDCCBBFFB9EEB799B588B3BBB1AAB32
:100A5000A66C877CE44CC55C222C033C600C411CDA
:100A6000AEED8FFDECCDCDDD2AAD0BBD688D499D82
:100A7000977EB66ED55EF44E133E322E511E700E2A
:100A80009FFFBEEFDDDFFCCF1BBF3AAF599F788FD2
:100A90008891A981CAB1EBA10CD12DC14EF16FE1B2
:100AA0008010A100C230E3200450254046706760EA
:100AB000B9839893FBA3DAB33DC31CD37FE35EF302
:100AC000B1029012F322D23235421452776256723A
:100AD000EAB5CBA5A89589856EF54FE52CD50DC552
:100AE000E234C324A014810466744764245405448A
:100AF000DBA7FAB79987B8975FE77EF71DC73CD7A2
:100B0000D326F2369106B0165766767615463456D9
:100B10004CD96DC90EF92FE9C899E9898AB9ABA9F1
:100B20004458654806782768C018E1088238A32829
:100B30007DCB5CDB3FEB1EFBF98BD89BBBAB9ABB41
:100B4000754A545A376A167AF10AD01AB32A923A79
:100B50002EFD0FED6CDD4DCDAABD8BADE89DC98D91
:100B6000267C076C645C454CA23C832CE01CC10CC9
:100B70001FEF3EFF5DCF7CDF9BAFBABFD98FF89FE1
:100B8000176E367E554E745E932EB23ED10EF01E19
:100B900000002100240027002A002D00300033002F
:100BA00001010000040107010A01000022002500E4
:100BB00028002B002E003100340002010000050146
:100BC00008010B01000020002300260029002C0052
:100BD0002F00320000010000030106010901050594
:100BE0000505070508080808020202020A0A0808A3
:100BF00004040404010101010101010103030303D1
:100C000003030303040707070C0C0C0C0C0C0C0C5F
:100C10000202020206060606060606060B0B0B0B70
:100C20000B0B0B0B01021020200808102040102095
:100C300040800201020108040201010204081020A0
:100C4000408080402010080402018004020180409E
:100C50002010080402010804020101020408102007
:100C60004080010204081020408000000A0B0209A5
:100C70000C0D0E0807030401000000000000000036
:100C80000000000000000000000000000000000064
:100C90000000000000001211100000000000000021
:100CA0000000000000000000000000000000000044
:100CB000DC7211241FBECFEFD1E2DEBFCDBF00E05A
:100CC0000CBF12E0A0E0B2E0E2EEF3E001E00BBF07
:100CD00002C007900D92A038B107D9F723E1A0E830
:100CE000B2E001C01D92A331B207E1F716E0C9E5F9
:100CF000D6E000E006C021970109802FFE010E9486
:100D0000AE81C835D10780E00807A9F70E947D6849
:100D10000C94E28175C94F925F926F927F928F928D
:100D20009F92AF92BF92CF92DF92EF92FF920F937A
:100D30001F93CF93DF93CDB7DEB7C756D1090FB658
:100D4000F894DEBF0FBECDBF0E94F065C0902712A1
:100D5000D0902812E0902912F0902A12DC01CB01E9
:100D60008C199D09AE09BF09C0902B12D0902C128E
:100D7000E0902D12F0902E122FEFC21AD20AE20A42
:100D8000F20AC0922B12D0922C12E0922D12F09205
:100D90002E12C0902F12D0903012E0903112F090AD
:100DA0003212C80ED91EEA1EFB1EC0922F12D0921C
:100DB0003012E0923112F0923212C0903312D09081
:100DC0003412E0903512F0903612C816D906EA06B1
:100DD000FB0640F48093331290933412A0933512A3
:100DE000B09336120E94F0656B017C0180919102F4
:100DF000882309F484C180908D0290908E02A09087
:100E00008F02B090900280918502811111C0D701AC
:100E1000C6018C599F4FAF4FBF4F80938102909373
:100E20008202A0938302B093840281E080938502C2
:100E30000E94F0656093A7127093A8128093A91284
:100E40009093AA12C814D904EA04FB0408F4CAC097
:100E5000D701C6010A96A11DB11D80938D02909302
:100E60008E02A0938F02B0939002809160119091B6
:100E70006111029709F4A3C50E94F06560933712CF
:100E8000709338128093391290933A1280918D0F9B
:100E900090918E0F863F910509F455C18C3031E059
:100EA000930709F4A7C1892B09F43CC18FEF9FEF89
:100EB00090938E0F80938D0F0E94F06500913712F2
:100EC000109138122091391230913A12DC01CB0185
:100ED000801B910BA20BB30B80903B1290903C12A5
:100EE000A0903D12B0903E12EFEF8E1A9E0AAE0A0D
:100EF000BE0A80923B1290923C12A0923D12B09298
:100F00003E1280903F1290904012A0904112B090FB
:100F10004212880E991EAA1EBB1E80923F1290920A
:100F20004012A0924112B0924212809043129090CF
:100F30004412A0904512B090461288169906AA064F
:100F4000BB0640F48093431290934412A093451241
:100F5000B09346128091651190916611A09167112E
:100F6000B09168110097A105B10531F0C816D906F6
:100F7000EA06FB0608F090C780916A11882341F0C9
:100F80009091070480910804981711F40C94D619D5
:100F900080916B1190916C11A0916D11B0916E11B7
:100FA000B7FD15C040916F11509170116091711192
:100FB00070917211C416D506E606F70640F030911E
:100FC000070420910804321711F40C94291480911D
:100FD0005E1190915F11039711F40C94E3108FEF61
:100FE000809359110E94F065C0908102D0908202D6
:100FF000E0908302F09084026C157D058E059F05BC
:1010000008F041C30E94F0656093971270939812A4
:101010008093991290939A120E94A61F0E94F065E5
:10102000C0909712D0909812E0909912F0909A1276
:10103000DC01CB018C199D09AE09BF09C0909B1240
:10104000D0909C12E0909D12F0909E124FEFC41A27
:10105000D40AE40AF40AC0929B12D0929C12E09245
:101060009D12F0929E12C0909F12D090A012E0901C
:10107000A112F090A212C80ED91EEA1EFB1EC09249
:101080009F12D092A012E092A112F092A212C090F0
:10109000A312D090A412E090A512F090A612C81648
:1010A000D906EA06FB0640F48093A3129093A4129B
:1010B000A093A512B093A6120E94F06560937712D8
:1010C000709378128093791290937A12809105032D
:1010D000909106038B37910509F4B3C608F4F7C164
:1010E000833A910509F4E3C008F4CFC0863A91052C
:1010F00009F4EBC0893A910509F4F5C0F0C1460145
:1011000057013AE0830E911CA11CB11C80928D0204
:1011100090928E02A0928F02B092900281E0809312
:10112000910271CE88E080937B0085E480937C00FF
:1011300080917A00806480937A0086EF90E09093AB
:101140008E0F80938D0F80917A0086FDB5CE8091B1
:10115000780090917900039797FF02C00C94F81AD9
:10116000803F43E0940714F00C948014FC01EE0FD0
:10117000FF1FE055FE4F85919491E091101021E002
:101180002E0F20931010EF71F0E0EE0FFF1FE053D1
:10119000F04F91838083E0E1F0E140E050E0BA015C
:1011A00092918291092E000CAA0BBB0B480F591F7C
:1011B0006A1F7B1F8FE0E03DF80791F715E07595FA
:1011C0006795579547951A95D1F75093000340932B
:1011D000FF0288E080937B0087E480937C0080910D
:1011E0007A00806480937A008CE091E090938E0F77
:1011F00080938D0F80917A0086FD5ECE809178007D
:1012000090917900039797FF02C00C94251B803FB3
:10121000A3E09A0714F00C945315FC01EE0FFF1F86
:10122000E055FE4F85919491E091CF0F21E02E0F74
:101230002093CF0FEF71F0E0EE0FFF1FE357F04F59
:1012400093838283EFECFFE040E050E0BA0192919B
:101250008291092E000CAA0BBB0B480F591F6A1F65
:101260007B1FBFE0EF38FB0791F7E5E075956795C9
:1012700057954795EA95D1F75093020340930103A0
:1012800010928E0F10928D0F17CE803A910509F0B3
:1012900026C18091C00085FF3DC0809111048093DC
:1012A000C60083EA90E09093060380930503809143
:1012B000C00085FF2FC0809115048093C60086EA88
:1012C00090E090930603809305038091C00085FF12
:1012D00021C0809113048093C60089EA90E0909326
:1012E00006038093050380910B04815080930B04C7
:1012F00081110CC09091070480910804981731F077
:1013000063E372E08EEA90E00E94493E1092060389
:10131000109205030E94F065C0907712D090781269
:10132000E0907912F0907A12DC01CB018C199D09C2
:10133000AE09BF09C0907B12D0907C12E0907D1264
:10134000F0907E126FEFC61AD60AE60AF60AC0922D
:101350007B12D0927C12E0927D12F0927E12C090AD
:101360007F12D0908012E0908112F0908212C80E0D
:10137000D91EEA1EFB1EC0927F12D0928012E0920C
:101380008112F0928212C0908312D0908412E09069
:101390008512F0908612C816D906EA06FB0640F4BC
:1013A0008093831290938412A0938512B093861237
:1013B0000E94F065609367127093681280936912BF
:1013C00090936A1280915310909154108B31A9E040
:1013D0009A0709F4CFC708F4E9C0833549E09407B8
:1013E00011F40C94881208F4C2C28D35E9E09E070E
:1013F00011F40C9450128336994011F00C94081299
:1014000060915D1070915E1080918A0F9091890FAC
:10141000981B562F23E0260F921710F40C945F1799
:10142000662311F40C941E1C90E020915B10309107
:101430005C10DC01A757B14FFD0101964FEF460F3D
:10144000840F911D8757914F41912427022E229599
:10145000207F2025032E322F22952F7002262695DD
:1014600032272327220F220F220F2025E817F90702
:1014700059F730935C1020935B10890181E0850F50
:10148000FD01E80FF11D808192E0950F9D01290F6C
:10149000311DF9013081A60FB11D9C91933011F4DB
:1014A0000C94BF1B943011F40C94CD1A923011F4AB
:1014B0000C94CE1A90E0932B8017910711F40C94A2
:1014C000FE1A6091591085E00E94856792C38C36A0
:1014D000910591F08237910531F1892B39F08FEF29
:1014E0009FEF909306038093050314CF8CE690E062
:1014F000909306038093050380910B04882309F4DD
:1015000009CFE091080481E08E0F80930804F0E099
:10151000EB5FFC4F828180930C0482E790E0909314
:101520000603809305038091C00085FFF3CE809170
:101530000C048093C6008FEF9FEF90930A04809372
:101540000904E0910804F0E0EB5FFC4F8281809396
:101550000C04811170C48091090490910A04292F10
:1015600033273093140420931304AC015527509370
:10157000160440931504892B11F40C946A14232B40
:1015800011F00C94C21A82E090E0909312048093C0
:10159000110481E090E0909314048093130480EA96
:1015A00090E0909306038093050373CE893DE8E0B5
:1015B0009E0709F40DC308F402C3853E28E0920794
:1015C00009F46FC68930994009F022C7E0918A0F6B
:1015D0004091890FE41711F40C94731981E08E0F78
:1015E00080938A0FF0E0E757F14F808180935F107E
:1015F00020915B1030915C102827022E2295207FCD
:101600002025032E322F22952F7002262695322771
:101610002327220F220F220F202530935C102093C6
:101620005B1020915D1030915E1090E001972817BB
:10163000390710F40C945915782F80936010281BEB
:10164000310930935E1020935D10772311F40C94D0
:101650009815672F713108F060E1609361108BE19C
:1016600099E0909354108093531080918A0F942F97
:10167000981B961710F40C94341870916010761B18
:10168000709360108AC6DC01CB018C599F4FAF4F1D
:10169000BF4F8093810290938202A0938302B09304
:1016A00084020E94F0656093471270934812809301
:1016B000491290934A128091FF0290910003803565
:1016C00091050CF46BC78132B2E19B070CF0F3C3B8
:1016D0006091201061110C949017C090F412D0907A
:1016E000F512C81AD90A0D2C000CEE08FF08E0917B
:1016F0001110F0911210F7FE02C00C945B1AB0E1C9
:10170000E232FB0711F40C948614A701960168E4F9
:1017100070E182E290E10E94E7450E94F065C0908E
:101720004712D0904812E0904912F0904A12DC0122
:10173000CB018C199D09AE09BF09C0904B12D09006
:101740004C12E0904D12F0904E12FFEFCF1ADF0ACC
:10175000EF0AFF0AC0924B12D0924C12E0924D1247
:10176000F0924E12C0904F12D0905012E090511251
:10177000F0905212C80ED91EEA1EFB1EC0924F12E4
:10178000D0925012E0925112F0925212C090531225
:10179000D0905412E0905512F0905612C816D90607
:1017A000EA06FB0640F48093531290935412A093E0
:1017B0005512B09356120E94F065C090A712D090B7
:1017C000A812E090A912F090AA12DC01CB018C19AA
:1017D0009D09AE09BF098093A7129093A812A09308
:1017E000A912B093AA1280915E1190915F11029795
:1017F00011F40C946F180E94F065C090A712D0905D
:10180000A812E090A912F090AA12DC01CB018C1969
:101810009D09AE09BF098093A7129093A812A093C7
:10182000A912B093AA1280915E1190915F11039753
:1018300009F0E8CB809160119091611181309105A0
:1018400011F40C94EF198091350A9091360A892B86
:1018500009F0D8CB40912B0650912C0660912D06B3
:1018600070912E0680912F0A9091300AA091310A32
:10187000B091320A481759076A077B0709F0C2CBB3
:101880002091F8113091F9118091F6119091F71192
:101890002817390709F0B6CB90917A0E80917B0E0C
:1018A0009813B0CB80916F008D7F80936F008091F3
:1018B0006F008B7F80936F0081E090E090935F11C9
:1018C00080935E1110926111109260119093DF115C
:1018D0008093DE1181E090E0A0E0B0E08093DA1127
:1018E0009093DB11A093DC11B093DD111092E31102
:1018F00010927411109273111092F9111092F81144
:101900001092F7111092F61110922B0610922C06DD
:1019100010922D0610922E06109226061092250681
:1019200010922F0A1092300A1092310A1092320A45
:101930001092370A8093270690932806A0932906D1
:10194000B0932A0610927B0E10927A0E1092840E9B
:101950001092850E1092860E1092870E1092800EB5
:101960001092810E1092820E1092830E4BCB853313
:10197000A9E09A0709F453C58B34994009F048C58A
:101980008091350A9091360A892B09F03AC182E09C
:1019900090E09093360A8093350A109224041092B6
:1019A0002304809159108F5F09F481E080935910CE
:1019B00083E599E0909354108093531022C1E091F5
:1019C000CE12F091CF1290818091CD12892309F42B
:1019D00036C3E091BB12F091BC1290818091BA1293
:1019E000892309F42CC3E091B812F091B9129081C7
:1019F0008091B712892309F422C34091BD125091FE
:101A0000BE126091BF127091C01277FD3CC08091F0
:101A10003D1190913E11A0913F11B091401184175A
:101A20009507A607B7077CF18091C1129091C21269
:101A3000A091C312B091C412B7FD25C040914111CD
:101A40005091421160914311709144114817590708
:101A50006A077B07C4F08091C5129091C612A091CD
:101A6000C712B091C812B7FD0EC0409145115091F8
:101A700046116091471170914811481759076A073C
:101A80007B070CF0F9C980E00E94BB6180E192E025
:101A90000E94A36181E00E94BB6188E192E00E9404
:101AA000A36184E090E00E94316282E00E94BB6109
:101AB00081E292E00E94A36189E292E00E94A36128
:101AC00083E00E94BB618AE292E00E94A36189E206
:101AD00092E00E94A3618FEF9FEF90930E0480939A
:101AE0000D048091070490910804282F291B2F3F93
:101AF00041F1E1E0E80FE0930704A82FB0E0AB5F0D
:101B0000BC4F12961C922E2F291B2F3FD1F022E0A2
:101B1000280F20930704F0E0EB5FFC4F33E03283A3
:101B2000422F50E05093100440930F04291B2F3F85
:101B300041F08D5F80930704FA01EB5FFC4F81E079
:101B4000828384E00E94616080910D0490910E0474
:101B50005091080420910F04309110043327ADEB0D
:101B6000B2E12B5F3C4F61E01FC0FC01FF27EB5F40
:101B7000FC4F42814F5F4283E09107044E2F451B8B
:101B80004F3F41F041E04E0F40930704F0E0EB5F20
:101B9000FC4F7283F90142814F5F4283F2E1A93C1D
:101BA000BF0711F40C94DF177D918F3F4FEF94071F
:101BB00009F4FEC77111D9CF8FEF9FEFEFCF892BBB
:101BC00009F026C489ED98E0909354108093531047
:101BD000E0918A0F8091890F8E1799F081E08E0F26
:101BE00080938A0FF0E0E757F14F8081882309F452
:101BF00042C310928A0F1092890F109254101092C3
:101C000053100E94F065C0906712D0906812E09067
:101C10006912F0906A12DC01CB018C199D09AE09A2
:101C2000BF09C0906B12D0906C12E0906D12F090D2
:101C30006E12EFEFCE1ADE0AEE0AFE0AC0926B12A7
:101C4000D0926C12E0926D12F0926E12C0906F12F0
:101C5000D0907012E0907112F0907212C80ED91EDE
:101C6000EA1EFB1EC0926F12D0927012E0927112A7
:101C7000F0927212C0907312D0907412E0907512AC
:101C8000F0907612C816D906EA06FB0640F4809357
:101C9000731290937412A0937512B09376120E94EF
:101CA000F0656093871270938812809389129093E5
:101CB0008A1287E194E00E94D63F0E94F065C090AE
:101CC0008712D0908812E0908912F0908A12DC017D
:101CD000CB018C199D09AE09BF09C0908B12D09021
:101CE0008C12E0908D12F0908E12FFEFCF1ADF0A67
:101CF000EF0AFF0AC0928B12D0928C12E0928D12E2
:101D0000F0928E12C0908F12D0909012E0909112AB
:101D1000F0909212C80ED91EEA1EFB1EC0928F12BE
:101D2000D0929012E0929112F0929212C09093127F
:101D3000D0909412E0909512F0909612C816D906A1
:101D4000EA06FB0640F48093931290939412A093BA
:101D50009512B09396120E94F065C090A712D09091
:101D6000A812E090A912F090AA12DC01CB018C1904
:101D70009D09AE09BF09C090AB12D090AC12E090A3
:101D8000AD12F090AE122FEFC21AD20AE20AF20A96
:101D9000C092AB12D092AC12E092AD12F092AE12A1
:101DA000C090AF12D090B012E090B112F090B21289
:101DB000C80ED91EEA1EFB1EC092AF12D092B012FE
:101DC000E092B112F092B212C090B312D090B4125D
:101DD000E090B512F090B612C816D906EA06FB06D6
:101DE00040F48093B3129093B412A093B512B093C1
:101DF000B6120E94F06560932712709328128093A8
:101E0000291290932A12C959DF4F0FB6F894DEBFFA
:101E10000FBECDBFDF91CF911F910F91FF90EF903B
:101E2000DF90CF90BF90AF909F908F907F906F90FA
:101E30005F904F9008958BE790E090930603809316
:101E400005038091C00085FF65CA20910C04209392
:101E5000C600E0910804EF5FE09308048091090454
:101E600090910A048227082E8295807F8025092E72
:101E7000982F82958F700826869598278927880F36
:101E8000880F880F802590930A048093090420917D
:101E90000704E21358CB63CB6091641170E089E0D2
:101EA0000E94F664109265111092661110926711EB
:101EB0001092681161C880E00E94BB6180E192E0ED
:101EC0000E94A36181E00E94BB6188E192E00E94D0
:101ED000A3618BE090E00E94316282E00E94BB61CE
:101EE00081E292E00E94A36181E090E00E94316271
:101EF00083E00E94BB618AE292E00E94A36180912C
:101F0000FF029091000395958795959587959595F6
:101F10008795959587950E943162F09007042091EE
:101F200008049F2D921B9F3F09F4CCC5E1E0EF0D03
:101F3000E0930704AF2DB0E0AB5FBC4F12961C924C
:101F40009E2F921B9F3F09F4ECC592E09F0D90934A
:101F50000704F0E0EB5FFC4F83E08283492F50E001
:101F60005093100440930F04921B9F3F11F40C9464
:101F70008A1BF3E0EF2EEF0CE0920704DA01AB5F6F
:101F8000BC4F81E012968C9312970E2D10E09E2D7F
:101F9000921B10930E0400930D049F3F11F40C94B8
:101FA0008C1F34E03F0D30930704B8016B5F7C4F0A
:101FB000FB01828312968C9112978F5F12968C93FD
:101FC0001297C80112811F5F1283E32FE21BEF3FBC
:101FD00009F493C5E5E0EE2EEF0CE0920704832FA1
:101FE00090E08B5F9C4F3BE0FC0132839E2D921B67
:101FF00012968C9112978F5F12968C931297FB0119
:1020000082818F5F82839F3F11F40C94E21981E0FB
:102010008E0D80930704EE2DF0E0EB5FFC4F91E016
:10202000928312969C9112979F5F12969C93821BAB
:102030008F3F09F072C342504093070477C380E09A
:102040000E94BB6180E192E00E94A36181E00E9456
:10205000BB6188E192E00E94A36183E090E00E946E
:10206000316282E00E94BB6181E292E00E94A36142
:1020700089E292E00E94A36183E00E94BB618AE250
:1020800092E00E94A36189E292E00E94A3613091F4
:10209000070470910804832F871B8F3F11F40C9461
:1020A000DA19E1E0E30FE0930704A32FB0E0AB5FA0
:1020B000BC4F12961C928E2F871B8F3F09F448C588
:1020C00022E0230F20930704F0E0EB5FFC4F63E076
:1020D0006283822F90E09093100480930F04271B5B
:1020E0002F3F11F40C94751C23E0230F2093070459
:1020F000FC01EB5FFC4FAA24A394A282422F50E084
:1021000050930E0440930D04271B2F3F11F40C94A1
:102110006E1F24E0B22EB30EB09207048A010B5F4B
:102120001C4FD8011296AC92129722812F5F228306
:1021300012962C9112972F5F12962C932B2D271B02
:102140002F3F49F03B5F30930704AB2DB0E0AB5F0E
:10215000BC4F12966C939C0182818F5F82833327E0
:1021600080910D0490910E04ADEBB2E12B5F3C4FDA
:1021700011E01FC0FC01FF27EB5FFC4F42814F5F66
:102180004283E09107044E2F471B4F3F41F041E04F
:102190004E0F40930704F0E0EB5FFC4F6283F901C0
:1021A00042814F5F4283AC01F2E1A93CBF0709F4D1
:1021B000BCC66D914F3F5F4F09F4E6C46111DACFA1
:1021C0008FEF9FEFF0CF8FB7F8940091840E1091AE
:1021D000850E2091860E3091870E8FBF8091800EE4
:1021E0009091810EA091820EB091830EBC01CD0121
:1021F000601B710B820B930B10915911603328EC0B
:10220000720727E08207910590F530EDC32E37E085
:10221000D32EE12CF12CA70196010E948C8121176D
:1022200030F58FB7F8940091840E1091850E2091AF
:10223000860E3091870E8FBF8091800E9091810E17
:10224000A091820EB091830EBC01CD01601B710B79
:10225000820B930B603338EC730737E083079105EB
:1022600008F04CC3A70196010E948C81122F109395
:1022700059110C94F2070E94F06560935510709309
:10228000561080935710909358108FEF9FEF9093B4
:102290005C1080935B1085EE98E0909354108093CF
:1022A00053104091890F942FE0918A0F842F8E1B39
:1022B000823008F462C281E08E0F80938A0FAE2FC5
:1022C000B0E0A757B14F2C9120938002222309F44C
:1022D00090CC60915B1070915C106227062E629525
:1022E000607F6025072E762F62956F7006266695B3
:1022F00076276727660F660F660F602570935C1060
:1023000060935B10EE5FE0938A0FA82FB0E0A757B1
:10231000B14F8C9180935A10882309F46ACC6827B6
:10232000062E6295607F6025072E762F62956F706E
:102330000626669576276727660F660F660F602567
:1023400070935C1060935B1087FF02C00C947E1C3E
:102350006091591026130C94C21B80E092E0909378
:102360005E1080935D1089E099E090935410809303
:10237000531030C96091611080918A0F4091890F8C
:10238000942F981B961708F46FC670916010761BF7
:1023900070936010662309F458C9009125061091C6
:1023A000260620915B1030915C10D801AB5DBB4FCD
:1023B000562F580FE82FF0E0E757F14F90819D938B
:1023C0002927022E2295207F2025032E322F2295A9
:1023D0002F700226269532272327220F220F220F45
:1023E00020258F5F8513E6CF80938A0F909380021C
:1023F0000F5F1F4F6150060F111D109326060093AB
:10240000250630935C1020935B10109261101DC95B
:102410008FEF9FEF9093541080935310F2CB409125
:10242000890FE0918A0F842F8E1B833008F4E9C650
:10243000AE2FB0E0A757B14F9C91A1E0AE0FB0E036
:10244000A757B14F8C9123E02E0F20938A0FEE5F98
:10245000F0E0E757F14F308160915B1070915C10B4
:10246000933009F473C3943011F40C94211B92300F
:1024700011F40C94221B90E0932B6817790711F448
:102480000C947A1B6091591085E00E948567109228
:102490008A0F1092890F1092260610922506ADCB56
:1024A0009091890FE0918A0F9E1709F4DBC681E0B5
:1024B0008E0FF0E0981B80938A0FE757F14F6081F1
:1024C00020915B1030915C102627022E2295207FF0
:1024D0002025032E322F22952F7002262695322793
:1024E0002327220F220F220F202530935C102093E8
:1024F0005B1070E06150710970935E1060935D1025
:1025000023E639E030935410209353100C94090AB9
:102510008091350A9091360A029709F472CB8FEFB9
:102520009FEF90930E0480930D0480910704909187
:102530000804282F291B2F3F09F4BEC2E1E0E80F51
:10254000A82FB0E0AB5FBC4F12961C922E2F291B18
:102550002F3F09F4B1C2F0E0EB5FFC4F26E022838D
:1025600022E0280F422F50E05093100440930F04B4
:10257000291B2F3F09F4A0C28D5F80930704FA0145
:10258000EB5FFC4F21E02283891B8F3F09F494C24B
:1025900080910B048F5F80930B042FCB80E00E940F
:1025A000BB6180E192E00E94A36181E00E94BB6177
:1025B00088E192E00E94A3618AE090E00E9431628B
:1025C00082E00E94BB6181E292E00E94A36181E00F
:1025D00090E00E94316283E00E94BB618AE292E057
:1025E0000E94A3618091FF029091000395958795C9
:1025F0009595879595958795959587950E943162D4
:10260000F0900704309108049F2D931B9F3F09F41D
:1026100059C2E1E0EF0DE0930704AF2DB0E0AB5FEE
:10262000BC4F12961C929E2F931B9F3F09F479C2B8
:1026300092E09F0D90930704F0E0EB5FFC4F83E086
:102640008283492F50E05093100440930F04931B52
:102650009F3F11F40C948A1B03E0E02EEF0CE092F4
:102660000704DA01AB5FBC4F81E012968C9312979E
:102670000E2D10E09E2D931B10930E0400930D045D
:102680009F3F11F40C94991F24E02F0D2093070411
:10269000B8016B5F7C4FFB01828312968C9112977D
:1026A0008F5F12968C931297C80112811F5F12835D
:1026B000E22FE31BEF3F09F420C215E0E12EEF0CFF
:1026C000E0920704822F90E08B5F9C4F2AE0FC0190
:1026D00022839E2D931B12968C9112978F5F1296D8
:1026E0008C931297FB0182818F5F82839F3F09F455
:1026F00069C681E08E0D80930704EE2DF0E0EB5F5C
:10270000FC4F91E0928312969C9112979F5F1296D4
:102710009C93831B8F3F09F48ECC8FEFDB011296C5
:102720008C9380910B048F5F80930B040E94403B3D
:102730008091010390910203803591050CF44DC204
:10274000813DB7E09B070CF005C32091F612309154
:10275000F712821793070CF4F0C22FB7F894E091A8
:10276000FB12F091FC1290818091F81280958923E0
:1027700080832FBFA8950C948D0B0E94F06500916B
:102780005510109156102091571030915810DC01BF
:10279000CB01801B910BA20BB30B8B3F9105A105C5
:1027A000B10508F42ECA809159102FEF3FEF3093F6
:1027B0000E0420930D049091070420910804392FF2
:1027C000321B3F3F41F1E1E0E90FE0930704A92FFD
:1027D000B0E0AB5FBC4F12961C923E2F321B3F3FC6
:1027E000D1F032E0390F30930704F0E0EB5FFC4F9B
:1027F00048E04283432F50E05093100440930F046D
:10280000321B3F3F41F09D5F90930704FA01EB5F5D
:10281000FC4F91E092830E94616080910704909147
:102820000804891B8F3F09F4C1C780910D04909162
:102830000E048F3F2FEF920731F09927FC01EB5FD9
:10284000FC4F8FEF828380910B048F5F80930B048A
:10285000D0C91092C5006C017D01F0E8CF0EF4E8FC
:10286000DF1EFEE1EF1EF11CCC0CDD1CEE1CFF1C7C
:10287000CC0CDD1CEE1CFF1CCC0CDD1CEE1CFF1C6C
:10288000880F991FAA1FBB1F880F991FAA1FBB1F64
:102890009C01AD01220F331F441F551F220F331F10
:1028A000441F551FC701B6010E948C81DA01C9017E
:1028B0000197A109B1098093C4008FEF9FEFDC015C
:1028C00080936B1190936C11A0936D11B0936E1166
:1028D0000C94E70784E090E0909312048093110435
:1028E0002F5F3F4F30931404209313044F5F5F4FCB
:1028F00050931604409315040C94CF0A1FEFB7CCE5
:10290000EEE8F9E0859194910C94BD086091221055
:10291000709123108091241090912510A7019601A9
:102920000E947D812B013C010090261004C076940A
:102930006794579447940A94D2F780912110882382
:1029400009F4E6C520911310309114104091151030
:102950005091161057FD7FC66581768187819085DD
:102960000E947D81DC01CB01018404C0B695A7954E
:10297000979587950A94D2F753014201880E991EC4
:10298000AA1EBB1E8091171090911810A0911910CB
:10299000B0911A10A7019601281B390B4A0B5B0B4B
:1029A00057FD82C666857785808991890E947D81E1
:1029B000DC01CB01028804C0B695A7959795879551
:1029C0000A94D2F700911B1010911C1020911D1039
:1029D00030911E10AC01BD01400F511F621F731FCB
:1029E00040931B1050931C1060931D1070931E1089
:1029F00014161506160617060CF04CC63FEF831684
:102A00009104A104B1040CF0E1C48FEF90E0A0E0C8
:102A1000B0E088199909AA09BB098A019B018417AA
:102A20009507A607B70714F48C019D01D501C401D1
:102A3000800F911FA21FB31F401B510B620B730B22
:102A400040931B1050931C1060931D1070931E1028
:102A5000F7FC0CC04091521050E060E070E0841729
:102A60009507A607B70714F4DB01CA018F3F91054C
:102A7000A105B1050CF0AAC4181619061A061B0602
:102A80000CF0D4C680931F1010922110BC018AE074
:102A90000E94F664C0921710D0921810E09219109C
:102AA000F0921A1045CEEEE8F9E0859194910C94DD
:102AB0001409C9010C941C0B80910F04825080935F
:102AC00007049BC88F2D90E040910F045091100493
:102AD00090930E0480930D04DA01BB27AB5FBC4FCB
:102AE00012962C9112972F5F12962C931297FC013D
:102AF000EB5FFC4F22812F5F228312962C9112975D
:102B00002F5F12962C931297FC01EB5FFC4F2281F2
:102B10002F5F228312968C9112978F5F12968C935F
:102B20008ACA8E2F90E040910F0450911004D0CFAC
:102B300080915D1090915E10009709F03EC685E38C
:102B400099E090935410809353106BCC8E7F93CC6C
:102B50004E2F50E020910F0430911004C901509382
:102B60000E0440930D04FC01FF27EB5FFC4F8281B4
:102B70008F5F8283DA01AB5FBC4F12968C91129704
:102B80008F5F12968C93E8CA40910704842F90E0DF
:102B9000542F571B5F3F39F04F5F40930704FC01F0
:102BA000EB5FFC4F1283F90142814F5F428306CBFA
:102BB00040910704842F90E0E42FE51BEF3F39F0AC
:102BC0004F5F40930704FC01EB5FFC4F6283F90108
:102BD00042814F5F42830C94DA0D80E00E94BB611A
:102BE00080E192E00E94A36181E00E94BB6188E1E4
:102BF00092E00E94A3618AE090E00E94316282E04C
:102C00000E94BB6181E292E00E94A36180E090E0BB
:102C10000E94316283E00E94BB618AE292E00E94DE
:102C2000A3618091010390910203959587959595F5
:102C3000879595958795959587950E9431628FEF39
:102C40009FEF90930E0480930D04809107045091A0
:102C50000804982F951B9F3F09F4A9C4E1E0E80FF1
:102C6000E0930704A82FB0E0AB5FBC4F12961C9214
:102C70009E2F951B9F3F09F436C592E0980F9093C5
:102C80000704F0E0EB5FFC4F23E02283292F30E0C4
:102C90003093100420930F04951B9F3F09F4DEC569
:102CA00043E0480F40930704F901EB5FFC4F91E0CC
:102CB0009283642F70E0451B70930E0460930D04A3
:102CC0004F3F11F40C945F1F44E0480F40930704FA
:102CD0006B5F7C4FDB0112969C93129792819F5FF2
:102CE000928312969C9112979F5F12969C93942FB9
:102CF000951B9F3F11F40C947E1F8B5F80930704FC
:102D0000A42FB0E0AB5FBC4F9AE012969C93482F83
:102D1000451B92819F5F92838FEF9FEF90930E04EC
:102D200080930D044F3F09F4C6C080910B048F5F60
:102D300080930B040E94403B1DCD9FB7F894E09117
:102D4000FB12F091FC1220818091F812822B80837B
:102D50009FBF10CD80E00E94BB6180E192E00E94A5
:102D6000A36181E00E94BB6188E192E00E94A361BF
:102D70008BE090E00E94316282E00E94BB6181E2C0
:102D800092E00E94A36180E090E00E94316283E0C3
:102D90000E94BB618AE292E00E94A36180910103DC
:102DA000909102039595879595958795959587952B
:102DB000959587950E9431628FEF9FEF90930E0457
:102DC00080930D04E0910704609108048E2F861B08
:102DD0008F3F09F4B5C321E02E0F209307048E2FF7
:102DE00090E08B5F9C4FDC0112961C92822F861B19
:102DF0008F3F09F4A4C382E08E0F80930704A22FB3
:102E0000B0E0AB5FBC4F93E012969C93282F30E06C
:102E10003093100420930F04861B8F3F09F42EC5B6
:102E20009E0F90930704A9014B5F5C4F81E0DA018C
:102E300012968C93092F10E0961B10930E040093AA
:102E40000D049F3F11F40C94801F94E09E0F90930B
:102E500007040B5F1C4FD80112968C93DA0112966F
:102E60008C9112978F5F12968C93D80112968C9149
:102E700012978F5F12968C93892F861B8F3F11F4C8
:102E80000C947C1FEB5FE0930704A92FB0E0AB5FCD
:102E9000BC4F8BE012968C939E2F961BFA01828179
:102EA0008F5F82834FEF5FEF50930E0440930D04CA
:102EB0009F3F09F03ACF2250209307043BCF0E9456
:102EC000F0650091551010915610209157103091D7
:102ED0005810DC01CB01801B910BA20BB30B8B3F75
:102EE0009105A105B10510F40C94010E1091591033
:102EF00088E00E946D61812F0E94616080910704CB
:102F000090910804891B8F3F09F450C480910D04EF
:102F100090910E048F3FBFEF9B0709F08ECC93CCAE
:102F200070E08AE00E94F66403CC90930E048093D4
:102F30000D04E091CE12F091CF1290818091CD12CC
:102F4000982381E009F080E00E946160E091BB126B
:102F5000F091BC1290818091BA12982381E009F01F
:102F600080E00E946160E091B812F091B912908106
:102F70008091B712982381E009F074C00E946160CB
:102F80008091070490910804891B8F3F09F409C3BD
:102F900080910D0490910E048F3F2FEF920731F036
:102FA0009927FC01EB5FFC4F8FEF828380910B042C
:102FB0008F5F80930B040E94403B0C943C079093DE
:102FC0000E0480930D044091BD125091BE12609189
:102FD000BF127091C01281E077FD0EC000913D11CB
:102FE00010913E1120913F113091401104171507A7
:102FF000260737070CF080E00E9461604091C11203
:103000005091C2126091C3127091C41281E077FD99
:103010000EC0009141111091421120914311309145
:10302000441104171507260737070CF080E00E94AB
:1030300061604091C5125091C6126091C7127091A3
:10304000C81281E077FD9ACF009145111091461189
:1030500020914711309148110417150726073707AB
:103060000CF48CCF80E08ACF0E94F065009155105F
:10307000109156102091571030915810DC01CB015F
:10308000801B910BA20BB30B8B3F9105A105B105E2
:1030900010F40C94010E1091591088E00E946D619B
:1030A000812F0E9461608091070490910804891B20
:1030B0008F3F09F474C380910D0490910E048F3FEB
:1030C0004FEF940731F09927FC01EB5FFC4F8FEF36
:1030D000828380910B048F5F80930B04D8C9C090CA
:1030E0005511D0905611E0905711F090581121E0F1
:1030F000C21620E9D20621E0E206F10430F0C12C2C
:1031000050E9D52EEE24E394F12C8090511190904B
:103110005211A0905311B0905411BE016F5F7F4FB8
:1031200087E194E00E948062882339F1260137010B
:10313000480C591C6A1C7B1C8B8586FDEDC28F7365
:10314000880F9C8597FB992790F9892B082E000CF6
:10315000990BAA0BBB0BB301A201482959296A2973
:103160007B2984239523A623B723892B8A2B8B2B9A
:1031700009F4D2C282E68093170480911A0488234E
:1031800021F087E194E00E945D476EE372E083E204
:1031900096E00E94493E8091511190915211A09168
:1031A0005311B09154118C0D9D1DAE1DBF1D809308
:1031B000511190935211A0935311B09354118091D7
:1031C000551190915611A0915711B09158118C1929
:1031D0009D09AE09BF098093551190935611A09394
:1031E0005711B0935811892B8A2B8B2B11F00C940B
:1031F000FB0B81E090E090935F1180935E110C9443
:10320000FB0B0E94F0650091551010915610209113
:10321000571030915810DC01CB01801B910BA20B91
:10322000B30B8B3F9105A105B10510F40C94010E71
:103230001091591088E00E946D61812F0E94616099
:103240008091070490910804891B8F3F09F4A7C25D
:1032500080910D0490910E048F3F6FEF960709F057
:1032600032CF37CF0E94F065009155101091561063
:103270002091571030915810DC01CB01801B910B2D
:10328000A20BB30B8B3F9105A105B10510F40C9473
:10329000010E1091591088E00E946D61812F0E94EB
:1032A00061608091070490910804891B8F3F09F4A5
:1032B0001FC380910D0490910E048F3FAFEF9A07CA
:1032C00031F09927FC01EB5FFC4F8FEF82838091F7
:1032D0000B048F5F80930B041092890F9FEFE0E047
:1032E000F0E081E0E8C80E94F0650091551010916F
:1032F00056102091571030915810DC01CB01801BE3
:10330000910BA20BB30B8B3F9105A105B10510F4F6
:103310000C94010E809159102FEF3FEF30930E0463
:1033200020930D049091070420910804392F321B3B
:103330003F3F41F1E1E0E90FE0930704A92FB0E03E
:10334000AB5FBC4F12961C923E2F321B3F3FD1F019
:1033500032E0390F30930704F0E0EB5FFC4F48E0B8
:103360004283432F50E05093100440930F04321BCC
:103370003F3F41F09D5F90930704FA01EB5FFC4FE4
:1033800091E092830E94616080910704909108040B
:10339000891B8F3F09F403C280910D0490910E04A4
:1033A0008F3F3FEF930709F08ECE93CE0C94000031
:1033B0000C94C807432F50E020910F043091100463
:1033C000C901CDCBDA01AB5FBC4FA4CB8FEF8093AB
:1033D0001F1081E0809321106FEF70E058CB209197
:1033E0006F0022FF02C00C94230C9093DF11809396
:1033F000DE1181E090E0A0E0B0E08093DA119093DC
:10340000DB11A093DC11B093DD111092E311109247
:103410007411109273111092F9111092F811109208
:10342000F7111092F6118091350A9091360A892B86
:1034300051F087E194E00E94D63F8091350A909147
:10344000360A892BB1F710922B0610922C06109297
:103450002D0610922E061092260610922506109226
:103460002F0A1092300A1092310A1092320A1092EA
:10347000370A81E090E0A0E0B0E0809327069093C7
:103480002806A0932906B0932A0610927B0E10926C
:103490007A0E1092840E1092850E1092860E109263
:1034A000870E1092800E1092810E1092820E109252
:1034B000830E0C942A0C20E1E533F20741F0D7018A
:1034C000C6018E7F892B8A2B8B2B09F0CDC100275B
:1034D000112798010C191D092E093F09608171817E
:1034E00082819381A90198010E947D81DC01CB0139
:1034F000048004C0B695A795979587950A94D2F74E
:10350000442455243201481A590A6A0A7B0A15CA0A
:103510008091131090911410A0911510B091161075
:10352000A7019601280F391F4A1F5B1F2093131014
:103530003093141040931510509316100BCAE22FBD
:10354000F0E020910F0430911004D901BB27AB5F4C
:10355000BC4F12968C9112978F5F12968C93129794
:10356000EB5FFC4F82818F5F828312968C91129762
:103570008F5F12968C938FEF9FEF90930E04809342
:103580000D0499CC452B09F4ECC081E090E09093B8
:103590001204809311040C94CF0A8E7F3E7F0C940A
:1035A0005A0A80910F0482508093070404CD282F7B
:1035B00030E040910F0450911004FA01FF27EB5FB7
:1035C000FC4F82818F5F8283D901AB5FBC4F129623
:1035D0008C9112978F5F12968C9382818F5F82837A
:1035E0008FEF9FEF90930E0480930D049A0163CCAC
:1035F000E0EBF1E0859194910C94BD0890915A1004
:10360000933809F4F9C060915910809180026813D1
:10361000B9C06F5F09F424C16093591050938B0FA8
:1036200010928C0F492F50E0FA01E058F109E23472
:10363000F10508F40DC1692F81E00E9485670C94A3
:10364000F90D8E7F3E7F0C943B12E0EBF1E085910B
:1036500094910C94140950954095309521953F4FC5
:103660004F4F5F4F65817681878190850E947D8174
:10367000DC01CB01018404C0B695A7959795879589
:103680000A94D2F7B095A095909581959F4FAF4F32
:10369000BF4F72C9411551056105710509F0F0C0B0
:1036A00000E010E09801C2C95095409530952195F1
:1036B0003F4F4F4F5F4F66857785808991890E9484
:1036C0007D81DC01CB01028804C0B695A795979552
:1036D00087950A94D2F7B095A095909581959F4FC4
:1036E000AF4FBF4F6FC92E2F30E040910F04509164
:1036F000100463CF241731F06EE372E087E499E0A1
:103700000E94493E8BE499E09093541080935310AB
:103710000C94C00CCA01DCC931E0431A510861089D
:10372000710880911C04833071F039E0880C991C79
:10373000AA1CBB1C3A95D1F749E0440C551C661CE9
:10374000771C4A95D1F7A501940160E287E194E0E6
:103750000E94D362882309F4A9C081E680931704EC
:103760000CCD83E090E0909312048093110481E0EB
:1037700090E090931604809315040C94CF0A8E7FEA
:103780000C945A0A87E00E94856710928A0F109263
:10379000890F10925410109253100C94010E8091C6
:1037A0000F048250809307040C94471280910F04F9
:1037B0008250809307040C94F90D20915F102F3FE5
:1037C000B9F02091250630912606B9016F5F7F4F31
:1037D0007093260660932506F901E95EFB4F168675
:1037E000019790935E1080935D10892B09F4A7C90F
:1037F000E0918A0F0C94B31181E08093591050939B
:103800008B0F10928C0F0E9444678091890F9091CA
:103810008A0F891B833010F00C94F90D6EE372E06F
:1038200087ED9AE00E94493E0C94F90D10921F100A
:1038300081E08093211060E070E029C900915B1065
:1038400010915C1090E0DC01A757B14F0C943E0A38
:103850008827EE58FF4F8F4F0C94AE81A901ADCE53
:1038600081E080935910DACEA70196016DE470E1F2
:1038700085E390E10E94E7450C948D0BF90165CE3C
:10388000181419041A041B040CF00ACF882799276E
:10389000DC0188199909AA09BB098A019B0148170B
:1038A00059076A077B070CF0C1C8BEC8A301920183
:1038B00061E287E194E00E94D36281114ECF20E063
:1038C00030E0A90166E287E194E00E94D3628111B1
:1038D00044CF60E177E287E194E00E948347811161
:1038E00015C083E68093170448CCAC019C0137C90E
:1038F00080910F04825080930704EECC2DE539E0CF
:1039000030935410209353100C94541280911A0445
:10391000882309F440CC87E194E00E945D473BCCCA
:103920000E9444810E9447680E9444676ECF0E94B3
:1039300052816BCF0E944768182F0E944481BC01BE
:10394000812F0E945C790E9444675FCF0E9444816E
:103950000097E1F12FB7F89490937F0E80937E0E3D
:103960002FBFE2CF0E94527E50CF0E9444810E941E
:1039700047680E9444810E94446747CF0E9447687D
:10398000082F109280028823D9F00E94476889830B
:1039900081E0809380027E0132E0E30EF11CDD24A1
:1039A000D394D00E12E00AC00E944768D7018D93CD
:1039B0007D01109380021F5F113411F01D11F4CFAF
:1039C000602FCE0101960E94777C1FCF0E94834E0C
:1039D00080916F008B7F80936F00A6CF0E94476815
:1039E000182F0E944768082F61E0812F0E94B5645C
:1039F000602F812F0E94BB630E94446706CF0E9404
:103A000047680E94F67F01CF81E08093E3110E9416
:103A10004467FBCE0E944768182F0E944768682FB2
:103A2000812F0E94D27A0E944467EFCE0E940981C2
:103A3000ECCE0E946A7BE9CE0E944768182F0E9454
:103A40004768082F0E944768682F70E0762F662726
:103A5000600F711D812F0E94417B0E944467D5CE6B
:103A6000CE01815A9F4F0E94C47ACE01865A9F4F41
:103A70000E94C47A0E94E3799B01AC01CE018B5A6B
:103A80009F4FA5962FAFA597A6963FAFA697A7964F
:103A90004FAFA797A8965FAFA8970E94C47ACE01B0
:103AA000805B9F4F0E94C47ACE01855B9F4F0E942E
:103AB000C47A0E94E3794B015C018E010A5B1F4FBF
:103AC000C8010E94C47A7E01B1E4EB0EF11CC7016B
:103AD0000E94C47AFE0131966F01CF010E94C47A20
:103AE0000E9444813C01DF92CF92FF92EF921F939C
:103AF0000F93CE01855B9F4F6C01DE01A05BBF4F32
:103B00007D01015F1F4FA5962FADA597A6963FADEE
:103B1000A697A7964FADA797A8965FADA897BE01A9
:103B2000665A7F4F44960E94567A70923011609286
:103B30002F110E9444670F900F900F900F900F90DD
:103B40000F9063CE0E941C7A60934D1170934E11BA
:103B500080934F119093501121E0611574408105BD
:103B6000910509F4B9C120934C110E9444674DCED0
:103B70000E941C7A60936B1170936C1180936D118D
:103B800090936E110E94F065DC01CB010A96A11D95
:103B9000B11D80936F1190937011A0937111B09328
:103BA00072110E94446731CE81E080936A110E94B5
:103BB00044672BCE0E941C7A2B013C010E941C7A88
:103BC0004B015C010E941C7A6B017C010E944768DA
:103BD000082F0E944768182F0E94476840923D11A5
:103BE00050923E1160923F117092401180924111AB
:103BF00090924211A0924311B0924411C09245118B
:103C0000D0924611E0924711F09248110093491169
:103C100010934A1180934B110E944467F6CD0E9485
:103C200044817C010E9444818C010E944481F09275
:103C30003811E092371110933A1100933911909393
:103C40003C1180933B110E944467DFCD0E9447687E
:103C50000E946780DACD0E94C477D7CD0E94457755
:103C6000D4CD0E94E3790E94CD800E944467CDCDDF
:103C70000E944378CACD0E94B376C7CD0E94667574
:103C8000C4CD0E94B275C1CD0E94834E10922A11FC
:103C90006FE770E08DE00E94F66410925F11109261
:103CA0005E110E944467B1CD0E94FE75AECD0E94A8
:103CB000CE7FABCD0E94E3740E944467A6CD0E94E4
:103CC0004768109265111092661110926711109258
:103CD0006811682F70E089E00E94F6640E944467D2
:103CE00094CD0E941C7A6B017C0180915E119091B1
:103CF0005F11019731F06EE372E08BED96E00E9468
:103D0000493E81E090E0A0E0B0E0809351119093B3
:103D10005211A0935311B0935411C0925511D092E7
:103D20005611E0925711F092581182E090E0909372
:103D30005F1180935E110E94446767CD0E94C17B32
:103D400064CD0E944768182F0E94448140E0BC0166
:103D5000812F0E9471620E94446757CD0E94E379CF
:103D60002B013C010E94E3794B015C010E94E37945
:103D70006B017C010E94E3790E94E37981E08093EA
:103D80002A114092BD125092BE126092BF127092E0
:103D9000C0128092C1129092C212A092C312B0922D
:103DA000C412C092C512D092C612E092C712F0920D
:103DB000C812BACD0E949D7F28CD0E944768082F67
:103DC00010E00115110509F451C080915E11909128
:103DD0005F11019781F583E090E090935F118093EC
:103DE0005E1110936111009360118FEF8093591150
:103DF00010925D1110925C1110925B1110925A1189
:103E00008FE00E94DC7A10926311109262110130EF
:103E10001105C1F080ED97E09093890080938800B0
:103E200080916F00826080936F007ECD0E94197B2D
:103E30000E944467EACC6EE372E08AE696E00E9454
:103E4000493EC9CF10927D0E10927C0E80ED97E016
:103E500090938B0080938A009093890080938800D0
:103E600080916F00846080936F005ECD6EE372E09E
:103E700089E696E00E94493E80915E1190915F1123
:103E80000197C9F683E090E090935F1180935E11F3
:103E900010926111109260118FEF8093591110925E
:103EA0005D1110925C1110925B1110925A118FE00B
:103EB0000E94DC7A1092631110926211ABCF82E003
:103EC0008283DB01AB5FBC4F12968C9112978F5FA0
:103ED00012968C930C94891620E045CE22E0228322
:103EE000DA01AB5FBC4F12962C9112972F5F12969E
:103EF0002C939C010C94AC10DA0137CBA9016DCB4B
:103F000082E0DA0112968C93F801EB5FFC4F82811C
:103F10008F5F82830C944E1782E012968C931297D7
:103F2000B8016B5F7C4FFB0182818F5F82830C94B1
:103F3000F80F82E012968C931297B8016B5F7C4F5A
:103F4000FB0182818F5F82830C946B13CF92DF928F
:103F5000EF92FF920F931F93CF93DF938091731192
:103F600090917411883B23E0920711F40C94A02FD8
:103F700008F463C18E3AF4E09F0709F4FBC508F02A
:103F800088C18531A4E09A0711F40C944F3308F0EE
:103F900021C5823EE3E09E0709F467C010F40C944B
:103FA000BF318D3FB3E09B0711F40C94AE2B8C30E6
:103FB000E4E09E0711F40C94DE2B813F934011F056
:103FC0000C948C2B8091E21181508093E211882314
:103FD00009F423C12091F0113091F1118091800EEC
:103FE0009091810EA091820EB091830E820F931F4B
:103FF000A11DB11D8093800E9093810EA093820E1F
:10400000B093830EE0917A0E81E08E0F80937A0E4A
:10401000F0E0EE0FFF1FEE0FFF1FE658F54F809107
:10402000EE119091EF11A091F011B091F1118083F8
:104030009183A283B383809184119091851101971C
:104040009093851180938411892B11F40C94952BF6
:104050001092F3111092F21181E08093FA1182EE26
:1040600093E090937411809373110E94C75E811145
:10407000DAC08091ED11E0910112F09102128823D3
:1040800011F40C94AF35A0812091E4113091E51129
:104090004091E6115091E711B0E00E94B681DC0139
:1040A000CB012AE0B695A795979587952A95D1F7E4
:1040B0009093F1118093F01190917F119093EF11F3
:1040C00080917E11882311F40C94313440919A111F
:1040D00050919B1160919C1170919D1177FF02C0CE
:1040E0000C940C3A0091C2111091C3112091C4118B
:1040F0003091C511400F511F621F731F40939A11D9
:1041000050939B1160939C1170939D1191609093BB
:10411000EF11813011F00C9431344091A211509183
:10412000A3116091A4117091A51177FF02C00C94A6
:104130003F380091CA111091CB112091CC113091D0
:10414000CD11400F511F621F731F4093A211509356
:10415000A3116093A4117093A5119091EF11946035
:104160009093EF11833039F14091A6115091A7112E
:104170006091A8117091A91177FF02C00C94553875
:104180000091CE111091CF112091D0113091D11109
:10419000400F511F621F731F4093A6115093A71128
:1041A0006093A8117093A9119091EF11986090936A
:1041B000EF11843029F18091AA119091AB11A09157
:1041C000AC11B091AD11B7FF02C00C94BC39409155
:1041D000D2115091D3116091D4117091D511840FE7
:1041E000951FA61FB71F8093AA119093AB11A093A0
:1041F000AC11B093AD118091EF1180618093EF11FC
:1042000081EF93E090937411809373118091E21188
:1042100081508093E2118111DDCE82EE91E10E9406
:10422000DA4E8111D7CE81E0DF91CF911F910F91AE
:10423000FF90EF90DF90CF900895863AB2E09B0711
:1042400011F40C947C2A08F0EDC08338F2E09F074B
:1042500011F40C94922908F405C78F38A2E09A074C
:1042600011F40C94F82910F40C94B431873922E03D
:10427000920711F40C943C2A8B39A2E09A0711F4AE
:104280000C94582A8339924011F00C948C2B0C9486
:104290001A2A873FB4E09B0711F40C94D23208F03D
:1042A00012C58D3CF4E09F0709F477C010F40C941C
:1042B000C9318F3DE4E09E07E1F08B3EF4E09F07BB
:1042C00011F40C949E328A3D944011F00C948C2B86
:1042D0000E94C75E8111A7CFE0910112F0910212F6
:1042E00080818093EF118FED94E09093741180930F
:1042F00073118091E21181508093E211882311F4AF
:104300000C94E7342091F0113091F1118091800EDE
:104310009091810EA091820EB091830E820F931F17
:10432000A11DB11D8093800E9093810EA093820EEB
:10433000B093830EE0917A0E81E08E0F80937A0E17
:10434000F0E0EE0FFF1FEE0FFF1FE658F54F8091D4
:10435000EE119091EF11A091F011B091F1118083C5
:104360009183A283B3838091DE119091DF11019735
:104370009093DF118093DE11892B11F40C94F432A9
:104380001092F3111092F21181E08093FA118DECEA
:1043900094E090937411809373110E94C75E811111
:1043A00042CFE0910112F09102128081A091781128
:1043B000B0917911A80FB11D87FDBA95B09379110D
:1043C000A09378118091ED11882311F40C94093693
:1043D0002091E4113091E5114091E6115091E711DF
:1043E0000E94B681DC01CB015AE0B695A79597955E
:1043F00087955A95D1F79093F1118093F01110920F
:10440000F3111092F21181E08093FA118AED94E099
:1044100090937411809373110E94C75E882309F4EE
:104420005BCF01CF8F34E3E09E0709F4C7C108F0EA
:10443000D8C48A3023E0920711F40C94652B10F451
:104440000C94AA318733F3E09F0709F48DC08634BA
:1044500023E0920709F459C18E30934011F00C9477
:104460008C2B0E94C75E8111DECEE0910112F0918B
:1044700002122081318130938311209382110091A7
:104480007E11E02FF0E0EE0FFF1FEE0FFF1FED5843
:10449000FE4EC388D488E588F688C092D611D092A3
:1044A000D711E092D811F092D911C6E8D1E1EEEA25
:1044B000F1E110E00117F1F0488159816A817B81B7
:1044C000440F551F661F771FDB01CA018C199D0918
:1044D000AE09BF098C8B9D8BAE8BBF8B4083518304
:1044E000628373838C199D09AE09BF09848B958BF8
:1044F000A68BB78B1F5F249634961530D9F6609142
:104500007A1170917B1180917C1190917D11FC0149
:10451000E60FF71F40918411509185114E0F5F1FD8
:10452000240F351FC21AD30AE108F108C092DA112C
:10453000D092DB11E092DC11F092DD11672B11F4C7
:104540000C948C308091EE118F7B8093EE11109241
:10455000F3111092F21182E08093FA1187E393E055
:1045600090937411809373110E94C75E81115BCE8A
:104570008091ED11E0910112F0910212882311F463
:104580000C944135A081B1812091E4113091E51165
:104590004091E6115091E7110E94B681DC01CB01F8
:1045A0000AE0B695A795979587950A95D1F79093C8
:1045B000F1118093F01190917F119093EF11809100
:1045C0007E11882311F40C94D03340919A115091AC
:1045D0009B1160919C1170919D1177FF02C00C940A
:1045E000D2390091C2111091C3112091C4113091A0
:1045F000C511400F511F621F731F40939A115093B2
:104600009B1160939C1170939D1191609093EF1199
:10461000813011F00C94D0334091A2115091A3112C
:104620006091A4117091A51177FF02C00C94C0375E
:104630000091CA111091CB112091CC113091CD1164
:10464000400F511F621F731F4093A2115093A3117B
:104650006093A4117093A5119091EF1194609093C1
:10466000EF11833039F14091A6115091A71160915B
:10467000A8117091A91177FF02C00C94D637009150
:10468000CE111091CF112091D0113091D111400F46
:10469000511F621F731F4093A6115093A71160937F
:1046A000A8117093A9119091EF1198609093EF1158
:1046B000843029F18091AA119091AB11A091AC1195
:1046C000B091AD11B7FF02C00C944A394091D2119C
:1046D0005091D3116091D4117091D511840F951F11
:1046E000A61FB71F8093AA119093AB11A093AC1192
:1046F000B093AD118091EF1180618093EF1186E44A
:1047000093E090937411809373118091E211815022
:104710008093E211882311F40C94F1342091F0116C
:104720003091F1118091800E9091810EA091820EB6
:10473000B091830E820F931FA11DB11D8093800E37
:104740009093810EA093820EB093830EE0917A0E27
:1047500081E08E0F80937A0EF0E0EE0FFF1FEE0FD8
:10476000FF1FE658F54F8091EE119091EF11A09147
:10477000F011B091F11180839183A283B383809172
:10478000EE118F778093EE1180917A1190917B11C9
:10479000019790937B1180937A11892B11F40C94DB
:1047A00088301092F3111092F21182E08093FA1186
:1047B0008FE493E090937411809373110E94C75E0D
:1047C000811131CD8091ED11E0910112F091021231
:1047D000882311F40C94BF35A081B1812091E4119C
:1047E0003091E5114091E6115091E7110E94B68198
:1047F000DC01CB01DAE0B695A79597958795DA9518
:10480000D1F79093F1118093F01190917F119093D3
:10481000EF1180917E11882311F40C948334409120
:104820009A1150919B1160919C1170919D1177FF8D
:1048300002C00C94603A0091C2111091C3112091F2
:10484000C4113091C511400F511F621F731F409357
:104850009A1150939B1160939C1170939D119160DC
:104860009093EF11813011F00C9483344091A21198
:104870005091A3116091A4117091A51177FF02C00E
:104880000C94D6380091CA111091CB112091CC1103
:104890003091CD11400F511F621F731F4093A21121
:1048A0005093A3116093A4117093A5119091EF11EF
:1048B00094609093EF11833039F14091A61150919B
:1048C000A7116091A8117091A91177FF02C00C94F3
:1048D000EC380091CE111091CF112091D011309170
:1048E000D111400F511F621F731F4093A6115093A7
:1048F000A7116093A8117093A9119091EF1198607E
:104900009093EF11843029F18091AA119091AB110D
:10491000A091AC11B091AD11B7FF02C00C94E83971
:104920004091D2115091D3116091D4117091D51151
:10493000840F951FA61FB71F8093AA119093AB11E8
:10494000A093AC11B093AD118091EF118061809371
:10495000EF118EE593E09093741180937311809121
:10496000E21181508093E211882311F40C943635C2
:104970002091F0113091F1118091800E9091810E73
:10498000A091820EB091830E820F931FA11DB11DC5
:104990008093800E9093810EA093820EB093830E2D
:1049A000E0917A0E81E08E0F80937A0EF0E0EE0FA8
:1049B000FF1FEE0FFF1FE658F54F8091EE1190910B
:1049C000EF11A091F011B091F11180839183A28336
:1049D000B383DACE8D3324E0920711F40C94F731CF
:1049E00010F40C94D5318C35F4E09F0751F18036EA
:1049F00024E0920709F446C08135944009F08CC642
:104A00000E94C75E81110FCCE0910112F091021259
:104A1000808191819093DF118093DE111092ED11CE
:104A20008091751185FF99C01092F3111092F211C7
:104A300084E08093FA118CE594E090937411809354
:104A400073110E94C75E8111EECBE0910112F091CB
:104A5000021280819181A281B3818093E8119093A9
:104A6000E911A093EA11B093EB111092F311109297
:104A7000F21181E08093FA1180E694E09093741132
:104A8000809373110E94C75E8111CDCBE09101121A
:104A9000F0910212C081C093EC118091FF029091BD
:104AA0000003959587959595879595958795959507
:104AB00087952091000230910102821B930B97FF92
:104AC00002C00C9405378436910514F40C94F73524
:104AD000209128113091291140E050E06091E811B7
:104AE0007091E9118091EA119091EB110E947D8102
:104AF000DC01CB0104C0B695A79597958795CA951B
:104B0000D2F78130E0E19E07A105B10520F080E0F9
:104B100090E1A0E0B0E08093E4119093E511A093C0
:104B2000E611B093E7118130F4E09F07A105B105CC
:104B300010F40C94FB3481E08093ED1180915A11B4
:104B400090915B118E3F2FEF920711F40C94763900
:104B5000019690935B1180935A111092F311109269
:104B6000F21182E08093FA118EEA94E0909374112E
:104B7000809373110E94C75E811155CBE0910112A1
:104B8000F0910212A081B181B0937911A0937811B4
:104B90008091ED11882311F40C9494332091E41149
:104BA0003091E5114091E6115091E7110E94B681D4
:104BB000DC01CB017AE0B695A795979587957A9514
:104BC000D1F79093F1118093F0111092F31110929C
:104BD000F21181E08093FA118BEB94E090937411C1
:104BE000809373110E94C75E81111DCBE091011269
:104BF000F091021280818093EF1180EC94E0909309
:104C00007411809373118091E21181508093E211AD
:104C1000882311F40C9400342091F0113091F1119B
:104C20008091800E9091810EA091820EB091830EA2
:104C3000820F931FA11DB11D8093800E9093810E52
:104C4000A093820EB093830EE0917A0E81E08E0FD6
:104C500080937A0EF0E0EE0FFF1FEE0FFF1FE65875
:104C6000F54F8091EE119091EF11A091F011B0915C
:104C7000F11180839183A283B3838091EE118F77AA
:104C80008093EE11809175119091761186FD02C08E
:104C90000C94C1332091DE113091DF112150310984
:104CA0003093DF112093DE11232B09F069CB91FFA4
:104CB00005C08091E31181110E94855710927411F3
:104CC00010927311B0CA8C31A5E09A0711F40C94BC
:104CD000073310F40C942732863325E0920709F449
:104CE00076C08F33A5E09A0711F40C942A338C32E6
:104CF000954009F011C58091F2119091F311863A17
:104D0000E1E09E0711F40C945B36873BF1E09F07CE
:104D100011F40C94C136892B11F40C941C36E091DB
:104D20000112F09102128FEF9FEF9093F311809395
:104D3000F211808191811092EF1120E533EC3093D4
:104D4000F1112093F01133C02091F0113091F11145
:104D50008091800E9091810EA091820EB091830E71
:104D6000820F931FA11DB11D8093800E9093810E21
:104D7000A093820EB093830E81E08E0F80937A0E03
:104D8000F0E0EE0FFF1FEE0FFF1FE658F54F80918A
:104D9000EE119091EF11A091F011B091F11180837B
:104DA0009183A283B3838091E0119091E1119C01E2
:104DB000215031093093E1112093E011892B09F43E
:104DC0007DCF86E395E09093741180937311E09109
:104DD0007A0E80917B0EFE2FF81BFF3F09F0B4CFB7
:104DE00022CA8937B3E09B0711F40C946A3110F49E
:104DF0000C941C328139A3E09A0709F4DAC08D3A89
:104E0000B3E09B0709F49DC78238934009F084C43E
:104E10000E94C75E811107CA8091ED11E0910112D5
:104E2000F0910212882311F40C94B735A0812091DF
:104E3000E4113091E5114091E6115091E711B0E095
:104E40000E94B681DC01CB01EAE0B695A795979563
:104E50008795EA95D1F79093F1118093F011909195
:104E60007F119093EF1180917E11882311F40C949F
:104E70005A3440919A1150919B1160919C117091FC
:104E80009D1177FF02C00C944A3A0091C211109113
:104E9000C3112091C4113091C511400F511F621FE1
:104EA000731F40939A1150939B1160939C117093C0
:104EB0009D1191609093EF11813011F00C945A3450
:104EC0004091A2115091A3116091A4117091A5116C
:104ED00077FF02C00C9495380091CA111091CB1144
:104EE0002091CC113091CD11400F511F621F731FC3
:104EF0004093A2115093A3116093A4117093A51134
:104F00009091EF1194609093EF11833039F14091BB
:104F1000A6115091A7116091A8117091A91177FF66
:104F200002C00C94AB380091CE111091CF1120919A
:104F3000D0113091D111400F511F621F731F409348
:104F4000A6115093A7116093A8117093A911909185
:104F5000EF1198609093EF11843029F18091AA119C
:104F60009091AB11A091AC11B091AD11B7FF02C0FF
:104F70000C9490394091D2115091D3116091D41179
:104F80007091D511840F951FA61FB71F8093AA118A
:104F90009093AB11A093AC11B093AD118091EF1130
:104FA00080618093EF1181E993E090937411809375
:104FB00073118091E21181508093E211882311F4E2
:104FC0000C942C352091F0113091F1118091800ECC
:104FD0009091810EA091820EB091830E820F931F4B
:104FE000A11DB11D8093800E9093810EA093820E1F
:104FF000B093830EE0917A0E81E08E0F80937A0E4B
:10500000F0E0EE0FFF1FEE0FFF1FE658F54F809107
:10501000EE119091EF11A091F011B091F1118083F8
:105020009183A283B38380917C1190917D1101972C
:1050300090937D1180937C11892B09F4BEC5109249
:10504000F3111092F21181E08093FA1182E893E05B
:1050500090937411809373110E94C75E882309F4A2
:10506000DBCEE1C88436A2E09A0709F401C108F05A
:105070004AC3009711F40C9440338234924009F0F3
:105080004BC30E94C75E8111CEC8E0910112F0911E
:105090000212C081CC3011F40C940F3610F00C9435
:1050A0009335C73009F4DEC0CB3011F40C94FA32DA
:1050B000C33011F40C94FE3980E00E94BB6180E1A2
:1050C00092E00E94A36181E00E94BB6188E192E0CE
:1050D0000E94A3614AE065E070E080E090E00E94F9
:1050E000CE6182E00E94BB6181E292E00E94A361F6
:1050F0008C2F90E0A0E0B0E04AE0BC01CD010E941E
:10510000CE6183E00E94BB618AE292E00E94A361CB
:1051100089E292E00E94A3618091070490910804C3
:10512000282F291B2F3F41F1E1E0E80FE09307040E
:10513000A82FB0E0AB5FBC4F12961C922E2F291BFC
:105140002F3FD1F022E0280F20930704F0E0EB5F1F
:10515000FC4F33E03283422F50E0509310044093D1
:105160000F04291B2F3F41F08D5F80930704FA0144
:10517000EB5FFC4F81E0828380910704282F30E0B1
:1051800030930E0420930D04482F491B4F3F11F418
:105190000C94213B8F5F80930704D901AB5FBC4F18
:1051A00081E012968C93129720910F043091100495
:1051B000F901FF27EB5FFC4F82818F5F828312969C
:1051C0008C9112978F5F12968C93A09107048A2F6F
:1051D000891B8F3F11F40C943A3B81E08A0F809336
:1051E0000704B0E0AB5FBC4F45E012964C934281A0
:1051F0004F5F4283CC2311F40C94003B00910D04CB
:1052000010910E04A80155274B5F5C4FDA011296EE
:105210006C9112976F5F12966C93682F691B6F3FAA
:1052200011F40C94363B61E0680F60930704A82FDB
:10523000B0E0AB5FBC4F1296CC9382818F5F8283CC
:10524000691B6F3F11F40C940B3B0F3F1F4F19F07C
:105250008FEFFA01828380910B048F5F80930B04A0
:105260000E94403B84E692E0909374118093731106
:1052700080917A0E90917B0E891B80958093E2112C
:10528000882311F40C9413211092F3111092F2114F
:1052900082E08093FA1188E692E0909374118093F3
:1052A00073110E94C75E81110C941321E0910112C9
:1052B000F091021280819181809375119093761103
:1052C00087FF03C08F798093EE111092F311109233
:1052D000F21181E08093FA118AE792E090937411C1
:1052E000809373110E94C75E81110C941321E09189
:1052F0000112F0910212908190937E1181E001C021
:10530000880F9A95EAF780937F111092F31110920B
:10531000F21184E08093FA1183E892E09093741183
:10532000809373110E94C75E81110C941321E09148
:105330000112F091021280819181A281B381809348
:10534000861190938711A0938811B09389111092C0
:10535000F3111092F21184E08093FA1187E892E041
:1053600090937411809373110E94C75E81110C9405
:105370001321E0910112F091021280819181A281AA
:10538000B38180938A1190938B11A0938C11B09369
:105390008D111092F3111092F21184E08093FA11A2
:1053A0008BE892E090937411809373110E94C75E12
:1053B00081110C941321E0910112F091021280816D
:1053C0009181A281B38180938E1190938F11A093CC
:1053D0009011B09391111092F3111092F21184E098
:1053E0008093FA118FE892E0909374118093731177
:1053F0000E94C75E81110C941321E0910112F0917B
:10540000021280819181A281B38180939211909345
:105410009311A0939411B09395111092F3111092DF
:10542000F21184E08093FA1183E992E09093741171
:10543000809373110E94C75E81110C941321E09137
:105440000112F091021280819181A281B381809337
:10545000961190939711A0939811B093991110926F
:10546000F3111092F21182E08093FA1187E992E031
:1054700090937411809373110E94C75E81110C94F4
:105480001321E0910112F091021280819181909399
:105490007B1180937A111092F3111092F21182E035
:1054A0008093FA118BE992E09093741180937311B9
:1054B0000E94C75E81110C941321E0910112F091BA
:1054C00002128081918190937D1180937C111092C2
:1054D000ED11809175119091761190FFB4C01092EA
:1054E000F3111092F21184E08093FA1186EA92E0AF
:1054F00090937411809373110E94C75E81110C9474
:105500001321E0910112F091021280819181A28118
:10551000B3818093E8119093E911A093EA11B093BD
:10552000EB111092F3111092F21181E08093FA11B5
:105530008AEA92E090937411809373110E94C75E7F
:1055400081110C941321E0910112F0910212C0819B
:10555000C093EC116091E8117091E9118091EA110A
:105560009091EB11611571058105910511F40C9471
:10557000F9332091FF0230910003A9015595479519
:105580005595479555954795559547952091000216
:1055900030910102DA01A21BB30B9D01B7FF02C0DB
:1055A0000C944239A436B10514F40C94743720914C
:1055B00028113091291140E050E00E947D81DC01EA
:1055C000CB0104C0B695A79597958795CA95D2F754
:1055D0008130E0E19E07A105B10520F080E090E177
:1055E000A0E0B0E08093E4119093E511A093E61160
:1055F000B093E71181309440A105B10510F40C94EB
:105600000D3781E08093ED1180915A1190915B11DB
:105610008E3F2FEF920711F40C94FC3A0196909371
:105620005B1180935A118091E4119091E511A09142
:10563000E611B091E7118F3F9105A105B10509F081
:1056400010F40C942E371092F3111092F21182E0A4
:105650008093FA1180E093E090937411809373111A
:105660000E94C75E81110C9413218091ED11E0918D
:105670000112F0910212882311F40C946533A08179
:10568000B1812091E4113091E5114091E6115091E2
:10569000E7110E94B681DC01CB012AE0B695A795FF
:1056A000979587952A95D1F79093811180938011D2
:1056B0001092F3111092F21182E08093FA118AE0B5
:1056C00093E090937411809373110E94C75E8111CF
:1056D0000C941321E0910112F091021280819181CA
:1056E00090938511809384111092F3111092F2110E
:1056F00082E08093FA118EE093E09093741180938E
:1057000073110C9431228836F2E09F0709F4C9CD59
:105710008A37924009F4E6CD8FEF9FEF9093741192
:105720008093731180E00C941421809182119091E8
:105730008311892B09F4E2C48091EE118F7B809351
:10574000EE111092F3111092F21182E08093FA118F
:105750008DEF93E090937411809373110E94C75E54
:1057600081110C9413218091ED11E0910112F091BF
:105770000212882311F40C94AC34A081B1812091E1
:10578000E4113091E5114091E6115091E7110E942A
:10579000B681DC01CB011AE0B695A7959795879560
:1057A0001A95D1F79093F1118093F0110E945456FD
:1057B0008CE094E090937411809373118091E211C6
:1057C00081508093E211882311F40C94B434209119
:1057D000F0113091F1118091800E9091810EA09185
:1057E000820EB091830E820F931FA11DB11D809375
:1057F000800E9093810EA093820EB093830EE09161
:105800007A0E81E08E0F80937A0EF0E0EE0FFF1F8C
:10581000EE0FFF1FE658F54F8091EE119091EF11BA
:10582000A091F011B091F11180839183A283B38391
:105830008091EE118F778093EE118091821190917B
:10584000831101979093831180938211892B09F41E
:1058500055C41092F3111092F21182E08093FA1164
:1058600085E194E090937411809373118091F81105
:105870009091F9116091F6117091F711681B790BF5
:10588000709300126093FF11A091FA112A2F30E05B
:105890006217730710F00C9401386115710511F44B
:1058A0000C944935E091F411F091F51140E050E08D
:1058B00020E0E80FF91F80E090E0A150EF01C40F55
:1058C000D51F3881EC01CE50DE4E39878A2F821BDE
:1058D0008093FA112F5F822F90E0AC018617970713
:1058E00068F386EA91E09093F3118093F21180912E
:1058F000370A882311F40C9413218091380A90916F
:10590000390A8F52964011F40C94183B8FE296E0BE
:105910009093390A8093380ADC018091330A909180
:10592000340A40912F0A5091300A6091310A7091E7
:10593000320A480F591F611D711D40932F0A509361
:10594000300A6093310A7093320A1092370A9093AA
:10595000F7118093F611B093F511A093F4114091D3
:10596000FA114423A9F08091FF1190910012FC01DB
:10597000E550FE4E9C01265F3F4F8FEF840F280FAE
:10598000311D2E503E4E8D918193E217F307D9F7CA
:105990008BEF91E19093021280930112842F90E09B
:1059A0009093F9118093F811EBEFF1E18FEF9FEFF6
:1059B0009093F3118093F2118091ED11882311F4EB
:1059C0000C94A535A081B1812091E4113091E511AD
:1059D0004091E6115091E7110E94B681DC01CB01A4
:1059E000CAE0B695A79597958795CA95D1F79093F4
:1059F000F1118093F01190917F119093EF118091AC
:105A00007E11882309F406C740919A1150919B1189
:105A100060919C1170919D1177FF02C00C94343AF3
:105A20000091C2111091C3112091C4113091C51180
:105A3000400F511F621F731F40939A1150939B1187
:105A400060939C1170939D1191609093EF11813040
:105A500009F0E0C64091A2115091A3116091A411E8
:105A60007091A51177FF02C00C9413380091CA11F0
:105A70001091CB112091CC113091CD11400F511FBD
:105A8000621F731F4093A2115093A3116093A4113E
:105A90007093A5119091EF1194609093EF11833062
:105AA00039F14091A6115091A7116091A811709100
:105AB000A91177FF02C00C9429380091CE111091E2
:105AC000CF112091D0113091D111400F511F621F81
:105AD000731F4093A6115093A7116093A811709360
