:1000000058C6000087C6000085C6000083C60000F1
:1000100081C600007FC600007DC600007BC60000D0
:1000200079C6000077C6000075C6000073C60000E0
:1000300071C600006FC600006DC600006BC60000F0
:1000400069C600000C94F04F0C943F4C63C600004E
:1000500061C600005FC600005DC600000C944B58EE
:1000600059C600000C94545255C6000053C60000F7
:1000700051C600004FC600004DC600004BC6000030
:1000800049C6000047C6000045C6000043C6000040
:1000900041C600003FC600003DC600003BC6000050
:1000A00039C6000037C6000035C6000033C6000060
:1000B00031C600002FC600002DC600002BC6000070
:1000C00029C6000027C6000025C6000023C6000080
:1000D00021C600001FC600001DC600001BC6000090
:1000E00019C60000E812A612D40BD40BD40B2B12A5
:1000F0001E12E311B611A4111E11D40BD40BD40B94
:10010000D40BD40BD40BD40BD40BD40BD40BD40BF7
:10011000D40B04110B10D40BD40BD40BFB0FA70F73
:10012000530F710ED40BA30CD40BD40B7C0C770C97
:100130000015A8149E14750C2C160E159415D40BCE
:1001400072143E1417140814D40BD40B0214D40BDD
:10015000B313A2135C1345138C178517F717DC161E
:10016000C217291312135712BE52C252C652CC5292
:10017000D252BD52D852DE52E452EA52F052F652F6
:10018000FC520253BD5208530E53B852CE54D654AB
:10019000DB54E554EF54BD54F9540155095513553A
:1001A0001D55275536554055BD544A5554555E5535
:1001B000000020002300260029002C002F00320020
:1001C00000010000030106010901050505050705F9
:1001D00008080808020202020A0A080804040404C3
:1001E00001010101010101010303030303030303EF
:1001F000040707070C0C0C0C0C0C0C0C020202027E
:1002000006060606060606060B0B0B0B0B0B0B0B66
:100210000102102020080810204010204080020118
:1002200002010804020101020408102040808040FD
:1002300020100804020180040201804020100804FC
:10024000020108040201010204081020408001029A
:1002500004081020408000000A0B02090C0D0E0853
:10026000070304010000000000000000000000007F
:10027000000000000000000000000000000000007E
:10028000000012111000000000000000000000003B
:10029000000000000000000000000000441F041DDA
:1002A000671B2A1A2B195718A21706177B16001658
:1002B00092152D15D1147C142E14E513A11362137D
:1002C0002613ED12B812851255122712FC11D21105
:1002D000AA1184115F113B111911F810D910BA102D
:1002E0009C108010641049102F101510FC0FE40FA3
:1002F000CD0FB60FA00F8A0F750F610F4C0F390F7E
:10030000250F130F000FEE0EDD0ECB0EBA0EAA0E48
:10031000990E890E7A0E6A0E5B0E4C0E3E0E2F0E53
:10032000210E130E060EF80DEB0DDE0DD10DC50DD1
:10033000B80DAC0DA00D940D880D7D0D710D660DE1
:100340005B0D500D450D3B0D300D260D1B0D110D98
:10035000070DFD0CF30CEA0CE00CD70CCD0CC40C13
:10036000BB0CB20CA90CA00C980C8F0C860C7E0C4C
:10037000760C6D0C650C5D0C550C4D0C450C3D0C54
:10038000350C2E0C260C1F0C170C100C080C010C35
:10039000FA0BF30BEC0BE50BDE0BD70BD00BC90BF9
:1003A000C20BBC0BB50BAE0BA80BA10B9B0B950B9B
:1003B0008E0B880B820B7B0B750B6F0B690B630B22
:1003C0005D0B570B510B4C0B460B400B3A0B350B8F
:1003D0002F0B290B240B1E0B190B130B0E0B080BE9
:1003E000030BFE0AF80AF30AEE0AE90AE40ADE0A37
:1003F000D90AD40ACF0ACA0AC50AC00ABB0AB60A71
:10040000B10AAD0AA80AA30A9E0A990A950A900A97
:100410008B0A870A820A7E0A790A740A700A6B0AB2
:10042000670A620A5E0A5A0A550A510A4C0A480AC1
:10043000440A400A3B0A370A330A2F0A2A0A260AC4
:10044000220A1E0A1A0A160A120A0E0A0A0A060ABC
:10045000020AFE09FA09F609F209EE09EA09E609B3
:10046000E209DE09DA09D709D309CF09CB09C8099E
:10047000C409C009BC09B909B509B109AE09AA097D
:10048000A609A3099F099B099809940991098D0957
:100490008A09860983097F097C0978097509710928
:1004A0006E096B096709640960095D095A095609F3
:1004B000530950094C094909460942093F093C09B9
:1004C0003909350932092F092C0929092509220979
:1004D0001F091C091909160912090F090C09090934
:1004E000060903090009FD08FA08F708F408F108ED
:1004F000ED08EA08E708E408E108DE08DB08D908A7
:10050000D608D308D008CD08CA08C708C408C1084F
:10051000BE08BB08B808B508B308B008AD08AA08FB
:10052000A708A408A1089F089C08990896089308A2
:1005300091088E088B0888088608830880087D0843
:100540007B0878087508720870086D086A086808E2
:10055000650862085F085D085A0857085508520880
:100560004F084D084A0848084508420840083D0819
:100570003A0838083508330830082E082B082808B0
:100580002608230821081E081C0819081708140843
:1005900011080F080C080A080708050802080008D7
:1005A000FD07FB07F807F607F307F107EE07EC076F
:1005B000EA07E707E507E207E007DD07DB07D807FB
:1005C000D607D407D107CF07CC07CA07C707C50787
:1005D000C307C007BE07BB07B907B707B407B20711
:1005E000B007AD07AB07A807A607A407A1079F0799
:1005F0009D079A0798079607930791078F078C071F
:100600008A0788078507830781077E077C077A07A3
:1006100078077507730771076E076C076A07670726
:100620006507630761075E075C075A0758075507A8
:10063000530751074F074C074A0748074607430728
:1006400041073F073D073A073807360734073107A8
:100650002F072D072B072907260724072207200726
:100660001D071B07190717071507120710070E07A5
:100670000C070A070707050703070107FF06FC0623
:10068000FA06F806F606F406F206EF06ED06EB06A5
:10069000E906E706E506E206E006DE06DC06DA061F
:1006A000D806D506D306D106CF06CD06CB06C8069A
:1006B000C606C406C206C006BE06BC06B906B70614
:1006C000B506B306B106AF06AD06AA06A806A6068D
:1006D000A406A206A0069E069C0699069706950605
:1006E000930691068F068D068B068806860684067D
:1006F000820680067E067C067A06770675067306F5
:1007000071066F066D066B0669066606640662066C
:1007100060065E065C065A065806560653065106E3
:100720004F064D064B06490647064506430640065A
:100730003E063C063A0638063606340632063006D1
:100740002D062B06290627062506230621061F0649
:100750001D061A06180616061406120610060E06C0
:100760000C060A060706050603060106FF05FD0539
:10077000FB05F905F605F405F205F005EE05EC05B7
:10078000EA05E805E505E305E105DF05DD05DB052F
:10079000D905D705D405D205D005CE05CC05CA05A7
:1007A000C805C605C305C105BF05BD05BB05B9051F
:1007B000B705B405B205B005AE05AC05AA05A70599
:1007C000A505A305A1059F059D059B059805960513
:1007D0009405920590058E058B058905870585058D
:1007E000830581057E057C057A0578057605730508
:1007F00071056F056D056B05680566056405620585
:1008000060055D055B055905570555055205500501
:100810004E054C05490547054505430541053E057F
:100820003C053A0538053505330531052F052C05FE
:100830002A0528052605230521051F051C051A057F
:1008400018051605130511050F050C050A05080501
:10085000060503050105FF04FC04FA04F804F50489
:10086000F304F104EE04EC04EA04E704E504E30411
:10087000E004DE04DB04D904D704D404D204D00499
:10088000CD04CB04C804C604C404C104BF04BC0422
:10089000BA04B804B504B304B004AE04AB04A904AC
:1008A000A604A404A1049F049D049A04980495043A
:1008B000930490048E048B048904860483048104C9
:1008C0007E047C0479047704740472046F046C045D
:1008D0006A046704650462045F045D045A045804F2
:1008E0005504520450044D044A044804450442048B
:1008F00040043D043A043704350432042F042D0427
:100900002A042704240421041F041C0419041604C7
:10091000130411040E040B0408040504020400046B
:10092000FD03FA03F703F403F103EE03EB03E8031B
:10093000E503E203DF03DC03D903D603D303D003CB
:10094000CD03CA03C703C403C103BE03BB03B7037C
:10095000B403B103AE03AB03A803A403A1039E0336
:100960009B039703940391038E038A0387038403F5
:1009700080037D037903760373036F036C036803BD
:10098000650361035E035A03570353034F034C038C
:100990004803440341033D033903360332032E0366
:1009A0002A03260323031F031B03170313030F0349
:1009B0000B0307030303FF02FB02F702F302EE023D
:1009C000EA02E602E202DD02D902D502D002CC023E
:1009D000C702C302BE02BA02B502B102AC02A7024C
:1009E000A3029E02990294028F028A02850280026B
:1009F0007B02760271026C02660261025C025602A0
:100A000051024B02460240023A0234022F022902EE
:100A100023021D02160210020A020402FD01F70160
:100A2000F001E901E201DC01D501CD01C601BF0100
:100A3000B701B001A801A0019801900188018001CF
:100A400077016E0165015C0153014A0140013601E5
:100A50002C01220117010C010101F500EA00DD0063
:100A6000D100C400B600A9009A008B007C006C0085
:100A70005B004900370023000F00F9FF0000211040
:100A8000422063308440A550C660E77008812991F8
:100A90004AA16BB18CC1ADD1CEE1EFF131121002A0
:100AA00073325222B5529442F772D6623993188348
:100AB0007BB35AA3BDD39CC3FFF3DEE3622443346C
:100AC00020040114E664C774A44485546AA54BB598
:100AD00028850995EEE5CFF5ACC58DD55336722640
:100AE00011163006D776F6669556B4465BB77AA7E8
:100AF00019973887DFF7FEE79DD7BCC7C448E5588C
:100B00008668A7784008611802282338CCC9EDD937
:100B10008EE9AFF9488969990AA92BB9F55AD44ADF
:100B2000B77A966A711A500A333A122AFDDBDCCB87
:100B3000BFFB9EEB799B588B3BBB1AABA66C877CAB
:100B4000E44CC55C222C033C600C411CAEED8FFDD7
:100B5000ECCDCDDD2AAD0BBD688D499D977EB66E7F
:100B6000D55EF44E133E322E511E700E9FFFBEEF27
:100B7000DDDFFCCF1BBF3AAF599F788F8891A981E9
:100B8000CAB1EBA10CD12DC14EF16FE18010A100D3
:100B9000C230E3200450254046706760B9839893C3
:100BA000FBA3DAB33DC31CD37FE35EF3B102901223
:100BB000F322D2323542145277625672EAB5CBA58F
:100BC000A89589856EF54FE52CD50DC5E234C32473
:100BD000A01481046674476424540544DBA7FAB763
:100BE0009987B8975FE77EF71DC73CD7D326F236C3
:100BF0009106B01657667676154634564CD96DC9AF
:100C00000EF92FE9C899E9898AB9ABA94458654812
:100C100006782768C018E1088238A3287DCB5CDB02
:100C20003FEB1EFBF98BD89BBBAB9ABB754A545A62
:100C3000376A167AF10AD01AB32A923A2EFD0FEDCE
:100C40006CDD4DCDAABD8BADE89DC98D267C076CB2
:100C5000645C454CA23C832CE01CC10C1FEF3EFFA2
:100C60005DCF7CDF9BAFBABFD98FF89F176E367E02
:100C7000554E745E932EB23ED10EF01E0000210040
:100C8000240027002A002D0030003300010100005D
:100C9000040107010A0100002200250028002B00A2
:100CA0002E003100340002010000050108010B0193
:100CB000297E11241FBECFEFD1E2DEBFCDBF00E001
:100CC0000CBF12E0A0E0B2E0E4EEF2E001E00BBF06
:100CD00002C007900D92A837B107D9F723E1A8E722
:100CE000B2E001C01D92A630B207E1F716E0C9E5F7
:100CF000D6E000E006C021970109802FFE010E9486
:100D00002F81C835D10780E00807A9F70E94D36D6D
:100D10000C94638175C94F925F926F927F928F920C
:100D20009F92AF92BF92CF92DF92EF92FF920F937A
:100D30001F93CF93DF93CDB7DEB7CC5BD2400FB616
:100D4000F894DEBF0FBECDBF8091191190911A119A
:100D50008C3E08E0900709F4A4C208F446C084322F
:100D600069E0960709F457C208F0A8C08630B9E0D8
:100D70009B0709F40DC28C31994009F0E0C28091C3
:100D8000E4099091E509892BB9F482E090E0909311
:100D9000E5098093E4091092D3031092D203809165
:100DA0001F118F5F09F481E080931F1184E299E0A5
:100DB00090931A118093191181E0C454DD4F0FB63E
:100DC000F894DEBF0FBECDBFDF91CF911F910F9181
:100DD000FF90EF90DF90CF90BF90AF909F908F905B
:100DE0007F906F905F904F9008958A3A28E0920725
:100DF00009F450C108F445C1863B48E0940709F462
:100E000070C18A3D984009F09AC2E0911611409154
:100E10001511E41709F428C481E08E0F8093161190
:100E2000F0E0EB5EFF4E808180932511209121112F
:100E3000309122112827022E2295207F2025032E73
:100E4000322F22952F700226269532272327220F34
:100E5000220F220F2025309322112093211120915F
:100E600023113091241190E001972817390708F4D5
:100E7000D6C2782F80932611281B31093093241174
:100E800020932311772309F4CCC2672F713108F026
:100E900060E1609327118CEE98E090931A11809393
:100EA000191180911611942F981B961708F431C3CD
:100EB00070912611761B7093261106C28E32F9E0CE
:100EC0009F0709F42EC18433994009F038C260911C
:100ED0002311709124118091161190911511981B76
:100EE000562F23E0260F921708F4B1C2662309F4A7
:100EF000E9C490E02091211130912211DC01AB5E18
:100F0000BF4EFD0101964FEF460F840F911D8B5E82
:100F10009F4E41912427022E2295207F2025032ECB
:100F2000322F22952F700226269532272327220F53
:100F3000220F220F2025E817F90759F730932211C5
:100F400020932111890181E0850FFD01E80FF11D3A
:100F5000808192E0950F9D01290F311DF9013081AB
:100F6000A60FB11D9C91933009F435C4943009F457
:100F7000FBC3923009F4F9C390E0932B80179107DB
:100F800009F4F5C330911F114FEF5FEF80912F0BE4
:100F90002091300B982F921B9F3F09F460C4E1E031
:100FA000E80FE0932F0BA82FB0E0A35DB54F12968A
:100FB0001C929E2F921B9F3F11F40C94A21892E05A
:100FC000980F90932F0BF0E0E35DF54F65E062839F
:100FD000692F70E07093380B6093370BE92FE21B99
:100FE000EF3F11F40C94991993E0980F90932F0B05
:100FF000FB01E35DF54FDD24D394D282A92FB0E04D
:10100000B093360BA093350B921B9F3F11F40C94B9
:10101000AB188C5F80932F0B8D01035D154F78010A
:10102000D8011296DC92182F121B92819F5F928337
:10103000332309F4DFC3D70112969C9112979F5F67
:1010400012969C931F3F11F40C94B81891E0980FDE
:1010500090932F0B482F50E0435D554FDA011296C5
:101060003C9382818F5F8283921B9F3F09F4C9C3A7
:101070008FEFF70182838091330B8F5F8093330B67
:1010800047C0892B09F05BC18AEA98E090931A1156
:1010900080931911E0911611809115118E1709F4A2
:1010A0008BCE81E08E0F80931611F0E0EB5EFF4E49
:1010B000808181112DC00E94145760931B11709381
:1010C0001C1180931D1190931E118FEF9FEF909331
:1010D00022118093211186EB98E090931A1180934E
:1010E000191140911511942FE0911611842F8E1B28
:1010F000823008F42CC181E08E0F80931611AE2F40
:10110000B0E0AB5EBF4E2C9120932D032111DCC2C9
:10111000109216111092151110921A1110921911A5
:101120004BCE90911511E09116119E1709F42BC228
:1011300081E08E0FF0E0981B80931611EB5EFF4E5E
:10114000608120912111309122112627022E2295B3
:10115000207F2025032E322F22952F7002262695E0
:1011600032272327220F220F220F2025309322110E
:101170002093211170E061507109709324116093E4
:10118000231124E339E030931A1120931911A8CECA
:1011900040911511E0911611842F8E1B833008F4B5
:1011A00033C2AE2FB0E0AB5EBF4E9C91A1E0AE0F5C
:1011B000B0E0AB5EBF4E8C9123E02E0F2093161152
:1011C000EE5FF0E0EB5EFF4E308160912111709197
:1011D0002211933009F433C1943009F4EAC29230F9
:1011E00009F4E8C290E0932B6817790709F4E4C288
:1011F00060911F1185E00E94DB6C10921611109215
:1012000015111092D5051092D40510921A11109252
:10121000191181E0D2CD8091E4099091E5090297FE
:1012200009F4CACD8FEF9FEF9093360B8093350B67
:1012300080912F0B9091300B282F291B2F3F09F401
:1012400000C1E1E0E80FA82FB0E0A35DB54F129612
:101250001C922E2F291B2F3F09F4F3C0F0E0E35D11
:10126000F54F26E0228322E0280F422F50E05093D2
:10127000380B4093370B291B2F3F09F4E2C08D5FD9
:1012800080932F0BFA01E35DF54F21E02283891B48
:101290008F3F09F4D6C08091330B8F5F8093330B5F
:1012A0003BCF609127118091161140911511942F19
:1012B000981B961708F42DC170912611761B709318
:1012C0002611662309F4DECD0091D4051091D505D1
:1012D0002091211130912211D801AC52BC4F562FD0
:1012E000580FE82FF0E0EB5EFF4E90819D93292789
:1012F000022E2295207F2025032E322F22952F703B
:101300000226269532272327220F220F220F20257F
:101310008F5F8513E6CF8093161190932D030F5F97
:101320001F4F6150060F111D1093D5050093D40572
:10133000309322112093211110922711A3CD8FEF0A
:101340009FEF90931A118093191180E036CD0E947F
:10135000145700911B1110911C1120911D113091F7
:101360001E11DC01CB01801B910BA20BB30B8B3F39
:101370009105A105B10508F41FCD80911F112FEF34
:101380003FEF3093360B2093350B90912F0B20912C
:10139000300B392F321B3F3F41F1E1E0E90FE09381
:1013A0002F0BA92FB0E0A35DB54F12961C923E2FD4
:1013B000321B3F3FD1F032E0390F30932F0BF0E07A
:1013C000E35DF54F48E04283432F50E05093380BE4
:1013D0004093370B321B3F3F41F09D5F90932F0BA3
:1013E000FA01E35DF54F91E092830E94036B8091D7
:1013F0002F0B9091300B891B8F3F09F40CC2809109
:10140000350B9091360B8F3F1FEF910709F433CEC8
:101410009927FC01E35DF54F8FEF82832CCEC90144
:1014200028CD8091231190912411009709F0F9C1E2
:1014300086E099E090931A1180931911ABCE8E7FBC
:10144000D1CE8091370B825080932F0B65CE0E94B6
:10145000145700911B1110911C1120911D113091F6
:101460001E11DC01CB01801B910BA20BB30B8B3F38
:101470009105A105B10508F49FCC80911F112FEFB4
:101480003FEF3093360B2093350B90912F0B20912B
:10149000300B392F321B3F3F41F1E1E0E90FE09380
:1014A0002F0BA92FB0E0A35DB54F12961C923E2FD3
:1014B000321B3F3FD1F032E0390F30932F0BF0E079
:1014C000E35DF54F48E04283432F50E05093380BE3
:1014D0004093370B321B3F3F41F09D5F90932F0BA2
:1014E000FA01E35DF54F91E092830E94036B8091D6
:1014F0002F0B9091300B891B8F3F09F48CC1809189
:10150000350B9091360B8F3F6FEF960709F080CF28
:10151000B2CD0E94145700911B1110911C11209103
:101520001D1130911E11DC01CB01801B910BA20B10
:10153000B30B8B3F9105A105B10508F43DCC10918B
:101540001F1188E00E94596B812F0E94036B8091CC
:101550002F0B9091300B891B8F3F09F456C180915E
:10156000350B9091360B8F3F3FEF930731F0992762
:10157000FC01E35DF54F8FEF82838091330B8F5F2A
:101580008093330B3ACE0E94145700911B11109197
:101590001C1120911D1130911E11DC01CB01801B0B
:1015A000910BA20BB30B8B3F9105A105B10508F47C
:1015B00003CC10911F1188E00E94596B812F0E946B
:1015C000036B80912F0B9091300B891B8F3F11F48F
:1015D0000C94BD188091350B9091360B8F3F5FEFC7
:1015E000950731F09927FC01E35DF54F8FEF82837A
:1015F0008091330B8F5F8093330B109215119FEF07
:10160000E0E0F0E081E098CD0E94145700911B11BA
:1016100010911C1120911D1130911E11DC01CB0184
:10162000801B910BA20BB30B8B3F9105A105B1055C
:1016300008F4C2CB10911F1188E00E94596B812FD2
:101640000E94036B80912F0B9091300B891B8F3F71
:1016500009F4DBC08091350B9091360B8F3F4FEF33
:10166000940709F084CF89CF0E94145700911B1171
:1016700010911C1120911D1130911E11DC01CB0124
:10168000801B910BA20BB30B8B3F9105A105B105FC
:1016900008F492CB10911F1188E00E94596B812FA2
:1016A0000E94036B80912F0B9091300B891B8F3F11
:1016B00009F4ABC08091350B9091360B8F3F2FEF23
:1016C000920709F054CF59CF6091211170912211E6
:1016D0006227062E6295607F6025072E762F629521
:1016E0006F700626669576276727660F660F660F6A
:1016F00060257093221160932111EE5FE093161123
:10170000A82FB0E0AB5EBF4E8C9180932011882350
:1017100009F4FECC6827062E6295607F6025072EAF
:10172000762F62956F700626669576276727660F77
:10173000660F660F6025709322116093211187FF59
:1017400002C00C94C41860911F11261346C080E09B
:1017500092E090932411809323118AED98E0909366
:101760001A118093191155CB8E7F3E7F05CC2091A5
:101770002011233809F48EC060911F1180912D0330
:1017800068132BC06F5F09F4A6C060931F115093BC
:10179000171110921811822F90E0FC01E058F10906
:1017A000E234F10508F49BC0622F81E00E94DB6CFB
:1017B000AFCC8E7F3E7F16CD241731F068E172E00A
:1017C00088E199E00E9499448CE199E090931A1184
:1017D00080931911D4CA8E7FCFCB87E00E94DB6C37
:1017E000109216111092151110921A1110921911CF
:1017F00081E0E3CA5093360B4093350B1F3F09F04D
:101800003ACC625060932F0B83CC8091370B82507F
:1018100080932F0BF2CC8091370B825080932F0B4B
:1018200077CC209125112F3FB9F02091D40530912C
:10183000D505B9016F5F7F4F7093D5056093D405CF
:10184000F901EA53FC4F1686019790932411809377
:101850002311892B09F4ECCDE09116117ECFA82F2E
:10186000B0E06091370B7091380BB093360BA093BA
:10187000350BFB01FF27E35DF54F92819F5F92835C
:10188000332311F40C94341C1FEFAD01435D554F0D
:101890007A01D1CB81E080931F11509317111092E0
:1018A00018110E949A6C8091151190911611891B44
:1018B000833008F02DCC68E172E088EA9AE00E945B
:1018C000994426CC009121111091221190E0DC0165
:1018D000AB5EBF4E38CB81E080931F1158CF882775
:1018E000EE58FF4F8F4F0C942F810E946F800E9403
:1018F0009D6D0E949A6CD7CF0E949D6D182F0E94FB
:101900009D6D282F30E0322F2227C901810F911DB4
:1019100090930102809300020E949D6D843611F025
:101920000C947D1B08E211E10E946F80D8018D9319
:101930009D938D01B1E1003F1B07B1F761E084EA9F
:101940000E94DB6CB0CF81EA0E94596B8091241217
:101950000E94036B80912B0A90912C0AC755DD4F92
:101960008883C95AD240C655DD4F9883CA5AD2409F
:101970000E94036BC655DD4F8881CA5AD2400E942F
:10198000036B8091290A90912A0AC555DD4F8883FF
:10199000CB5AD240C455DD4F9883CC5AD2400E94D6
:1019A000036BC455DD4F8881CC5AD2400E94036B33
:1019B0008091DA059091DB05A091DC05B091DD0501
:1019C0004091DE095091DF096091E0097091E109D1
:1019D000841B950BA60BB70BC158DD4F88839983E9
:1019E000AA83BB83CF57D2400E94036BC058DD4F00
:1019F0008881C058D2400E94036BCF57DD4F888149
:101A0000C158D2400E94036BCE57DD4F8881C25827
:101A1000D2400E94036B8091DA053091DB05209162
:101A2000DC059091DD05CD57DD4F8883C358D2404A
:101A3000CC57DD4F3883C458D240CB57DD4F288375
:101A4000C558D240CA57DD4F9883C658D2400E942D
:101A5000036BCC57DD4F8881C458D2400E94036B82
:101A6000CB57DD4F8881C558D2400E94036BCA57BF
:101A7000DD4F8881C658D2400E94036B8091BC1212
:101A80009091BD122091BE123091BF12821B930B18
:101A9000C355DD4F99838883CD5AD2400E94036B92
:101AA000C255DD4F8881CE5AD2400E94036B80918F
:101AB0003F0F9091400F891B90E0A0E0B0E0C95724
:101AC000DD4F88839983AA83BB83C758D2400E9485
:101AD000036BC857DD4F8881C858D2400E94036B02
:101AE000C757DD4F8881C958D2400E94036BC65743
:101AF000DD4F8881CA58D2400E94036B8091281222
:101B000090912912C155DD4F8883CF5AD240C055DC
:101B1000DD4F9883C05BD2400E94036BC055DD4F00
:101B20008881C05BD2400E94036B8091001390912A
:101B30000113CF54DD4F8883C15BD240CE54DD4FBB
:101B40009883C25BD2400E94036BCE54DD4F8881E4
:101B5000C25BD2400E94036B8091FE129091FF12F3
:101B6000CD54DD4F8883C35BD240CC54DD4F988386
:101B7000C45BD2400E94036BCC54DD4F8881C45BB0
:101B8000D2400E94036B9091E10F8091E20F81118E
:101B900001C0892F0E94036B80E290E0CB54DD4F9F
:101BA00099838883C55BD2400E94036BCA54DD4F82
:101BB0008881C65BD2400E94036B80E094E0C954E8
:101BC000DD4F99838883C75BD24080E00E94036B1E
:101BD000C854DD4F8881C85BD2400E94036B80915E
:101BE000290330912A0320912B0390912C03C55790
:101BF000DD4F8883CB58D240C457DD4F3883CC5853
:101C0000D240C357DD4F2883CD58D240C257DD4F55
:101C10009883CE58D2400E94036BC457DD4F888111
:101C2000CC58D2400E94036BC357DD4F8881CD58FA
:101C3000D2400E94036BC257DD4F8881CE58D240FC
:101C40000E94036B80911F120E94036B80912012EF
:101C500090912112C754DD4F8883C95BD240C6548E
:101C6000DD4F9883CA5BD2400E94036BC654DD4FA0
:101C70008881CA5BD2400E94036B809122129091AE
:101C80002312C554DD4F8883CB5BD240C454DD4F53
:101C90009883CC5BD2400E94036BC454DD4F888193
:101CA000CC5BD2400E94036B80912F0B9091300B44
:101CB000891B8F3F11F40C947A1A8091350B909107
:101CC000360B8F3F3FEF930731F09927FC01E35D1F
:101CD000F54F8FEF82838091330B8F5F8093330BAF
:101CE000E2CD8FE90E94596B80911D0330911E0354
:101CF00020911F0390912003CF5BDD4F8883C15457
:101D0000D240CE5BDD4F3883C254D240CD5BDD4F35
:101D10002883C354D240CC5BDD4F9883C454D24057
:101D20000E94036BCE5BDD4F8881C254D2400E947B
:101D3000036BCD5BDD4F8881C354D2400E94036B9F
:101D4000CC5BDD4F8881C454D2400E94036B8091EC
:101D50002103309122032091230390912403CA5B35
:101D6000DD4F8883C654D240C95BDD4F3883C754EA
:101D7000D240C85BDD4F2883C854D240C75BDD4FDB
:101D80009883C954D2400E94036BC95BDD4F8881A0
:101D9000C754D2400E94036BC85BDD4F8881C85492
:101DA000D2400E94036BC75BDD4F8881C954D2408B
:101DB0000E94036B80912503309126032091270315
:101DC00090912803C55BDD4F8883CB54D240C45B20
:101DD000DD4F3883CC54D240C35BDD4F2883CD54D4
:101DE000D240C25BDD4F9883CE54D2400E94036B39
:101DF000C45BDD4F8881CC54D2400E94036BC35B2F
:101E0000DD4F8881CD54D2400E94036BC25BDD4F11
:101E10008881CE54D2400E94036B80912903309177
:101E20002A0320912B0390912C03C05BDD4F888304
:101E3000C055D240CF5ADD4F3883C155D240CE5A1B
:101E4000DD4F2883C255D240CD5ADD4F9883C3550C
:101E5000D2400E94036BCF5ADD4F8881C155D240DA
:101E60000E94036BCE5ADD4F8881C255D2400E943A
:101E7000036BCD5ADD4F8881C355D2400E94036B5E
:101E800080912F0B9091300B891B8F3F11F40C9494
:101E90007A1A8091350B9091360B8F3F0FEF900798
:101EA00009F013CF18CF8EE90E94596B809100136F
:101EB00090910113CD55DD4F8883C35AD240CC5544
:101EC000DD4F9883C45AD2400E94036BCC55DD4F3E
:101ED0008881C45AD2400E94036B8091FE12909177
:101EE000FF12CB55DD4F8883C55AD240CA55DD4F0E
:101EF0009883C65AD2400E94036BCA55DD4F888131
:101F0000C65AD2400E94036BC955DD4F1982188210
:101F1000C75AD24080E00E94036BC855DD4F8881CC
:101F2000C85AD2400E94036B80912F0B9091300BC6
:101F3000891B8F3F11F40C947A1A8091350B909184
:101F4000360B8F3F1FEF910709F0BFCEC4CE8DE94E
:101F50000E94596B80912B0A90912C0AC356DD4F39
:101F60008883CD59D240C256DD4F9883CE59D24096
:101F70000E94036BC256DD4F8881CE59D2400E9429
:101F8000036B8091290A90912A0AC156DD4F8883FC
:101F9000CF59D240C056DD4F9883C05AD2400E94DC
:101FA000036BC056DD4F8881C05AD2400E94036B3C
:101FB000CF55DD4F19821882C15AD24080E00E946D
:101FC000036BCE55DD4F8881C25AD2400E94036B0D
:101FD00080912F0B9091300B891B8F3F11F40C9443
:101FE0007A1A8091350B9091360B8F3F2FEF920725
:101FF00009F06BCE70CE0E9423521092F0116FE761
:1020000070E08DE00E94A5541092251210922412C7
:102010000E949A6C48CC88E90E94596BE0917F023B
:10202000F0918002908180917E02982381E009F0F6
:1020300080E00E94036B80911D0330911E0320916C
:102040001F0390912003CB5ADD4F8883C555D240A2
:10205000CA5ADD4F3883C655D240C95ADD4F28834E
:10206000C755D240C85ADD4F9883C855D2400E9408
:10207000036BCA5ADD4F8881C655D2400E94036B5C
:10208000C95ADD4F8881C755D2400E94036BC85A98
:10209000DD4F8881C855D2400E94036BE0917C02DD
:1020A000F0917D02908180917B02982381E009F07C
:1020B00080E00E94036B80912103309122032091E4
:1020C000230390912403C65ADD4F8883CA55D2401A
:1020D000C55ADD4F3883CB55D240C45ADD4F2883D3
:1020E000CC55D240C35ADD4F9883CD55D2400E9483
:1020F000036BC55ADD4F8881CB55D2400E94036BDC
:10210000C45ADD4F8881CC55D2400E94036BC35A1C
:10211000DD4F8881CD55D2400E94036BE09179025A
:10212000F0917A02908180917802982381E009F001
:1021300080E00E94036B809125033091260320915B
:10214000270390912803C15ADD4F8883CF55D24091
:10215000C05ADD4F3883C056D240CF59DD4F288357
:10216000C156D240CE59DD4F9883C256D2400E940C
:10217000036BC05ADD4F8881C056D2400E94036B6A
:10218000CF59DD4F8881C156D2400E94036BCE5992
:10219000DD4F8881C256D2400E94036B80E00E94CE
:1021A000036BCD59DD4F188219821A821B82C356E8
:1021B000D24080E00E94036BCC59DD4F8881C45629
:1021C000D2400E94036BCB59DD4F8881C556D24067
:1021D0000E94036BCA59DD4F8881C656D2400E94C7
:1021E000036B80912F0B9091300B891B8F3F11F463
:1021F0000C947A1A8091350B9091360B8F3FFFEF3C
:102200009F0709F062CD67CD87E90E94596B8091E5
:10221000F0110E94036B80912F0B9091300B891B62
:102220008F3F11F40C947A1A8091350B9091360BF4
:102230008F3FEFEF9E0709F048CD4DCD109201136F
:10224000109200138091FE129091FF12892B19F5C4
:102250001092D50F1092D60F1092D70F1092D80F60
:102260008091290A90912A0A919581959109092EC8
:10227000000CAA0BBB0B8093D90F9093DA0FA0939D
:10228000DB0FB093DC0F1092DD0F1092DE0F109277
:10229000DF0F1092E00F1092FF121092FE121092B8
:1022A00014108091001390910113892B19F510924D
:1022B000D50F1092D60F1092D70F1092D80F809191
:1022C000290A90912A0A919581959109092E000C6D
:1022D000AA0BBB0B8093D90F9093DA0FA093DB0F5F
:1022E000B093DC0F1092DD0F1092DE0F1092DF0F13
:1022F0001092E00F109201131092001380916F0062
:102300008D7F80936F0080916F008B7F80936F0033
:1023100081E090E09093251280932412109227126E
:10232000109226120E94935910922B1210922C1286
:1023300010922D1210922E1260E070E089E00E943F
:10234000A5540E949A6CAFCA0E949D6D10922B12E8
:1023500010922C1210922D1210922E12682F70E0F3
:1023600089E00E94A5540E949A6C9DCA0E94B68082
:102370006B017C018091241290912512019731F01C
:1023800068E172E081EB96E00E94994481E090E080
:10239000A0E0B0E08093171290931812A093191246
:1023A000B0931A12C0921B12D0921C12E0921D120E
:1023B000F0921E1282E090E09093251280932412F6
:1023C0000E949A6C70CA87E80E94596BBE016F5FC9
:1023D0007F4F86EC93E00E946E6C882349F08981E0
:1023E000807C11F40C94AE1B803411F40C94831B8C
:1023F00080E090E0DC010197A109B109C956DD4FE9
:1024000088839983AA83BB83C759D2400E94036BF8
:10241000C856DD4F8881C859D2400E94036BC75609
:10242000DD4F8881C959D2400E94036BC656DD4FEB
:102430008881CA59D2400E94036B22CD0E949D6DB3
:10244000182F0E946F8040E0BC01812F0E945F6CBA
:102450000E949A6C28CA0E947D802B013C010E9438
:102460007D804B015C010E947D806B017C010E949C
:102470007D800E947D8081E08093F01140921D0359
:1024800050921E0360921F037092200380922103DA
:1024900090922203A0922303B0922403C0922503BA
:1024A000D0922603E0922703F092280322CA81ECFF
:1024B0000E94596B81E00E94036B87E00E94036BCE
:1024C0000091300BE0912F0B8091350B9091360BE2
:1024D0007E2F2091370B3091380B332740E152E0AB
:1024E000FE2FF01B235D354FFF24F39422C0DC0147
:1024F000BB27A35DB54F12966C9112976F5F129632
:102500006C93FF3F49F071E07E0FF0E0E35DF54F23
:102510001283E72FF72FF01BD90112966C911297B7
:102520006F5F12966C93B2E047315B0711F40C9425
:10253000F51ADA011D91AD018F3FBFEF9B0709F43A
:10254000E0C71111D4CF8FEF9FEFEDCF0E949D6DAB
:10255000082F10E00115110511F40C94EF1B809168
:10256000241290912512019731F068E172E080E425
:1025700096E00E94994483E090E090932512809326
:10258000241210932712009326128FEF80931F12AC
:1025900010922312109222121092211210922012E5
:1025A0008FE00E943280109229121092281201307E
:1025B000110511F40C941B1C80ED97E09093890099
:1025C0008093880080916F00826080936F0091C932
:1025D0008091241290912512029734F068E172E004
:1025E0008FED95E00E9499441092F7110E94935943
:1025F00081E090E090932512809324126FEF70E0B9
:102600008DE00E94A55480E094E0A0E0B0E08093CB
:10261000131290931412A0931512B09316120E94E5
:102620009A6C41C90E94B680609313127093141281
:10263000809315129093161221E061157440810564
:10264000910511F40C94EC1B209312120E949A6CC9
:102650002AC90E94B680609331127093321280931F
:102660003312909334120E941457DC01CB010A9666
:10267000A11DB11D8093351290933612A09337128D
:10268000B09338120E949A6C0EC90E946F807C0130
:102690000E946F808C010E946F80F092FE11E09288
:1026A000FD11109300120093FF119093021280937A
:1026B00001120E949A6CF7C80E949D6D863308F043
:1026C000865390917B00282F2870977F922B9093B0
:1026D0007B008770806480937C0080917A008064A6
:1026E00080937A0080917A0086FDFCCF109178006B
:1026F0000091790088EB0E94596B812F90E0902B1C
:10270000092E000CAA0BBB0BC157DD4F88839983A0
:10271000AA83BB83CF58D2400E94036BC057DD4FC2
:102720008881C059D2400E94036BCF56DD4F88810B
:10273000C159D2400E94036BCE56DD4F8881C259E9
:10274000D24044CC0E949D6D182F0E949D6D082F91
:1027500061E0812F0E946454602F812F0E941453E6
:102760000E949A6CA0C80E949D6D182F62E00E9482
:102770006454212F30E0F901EA5AFD4F8491F901A8
:10278000E05FFD4F1491F901E653FE4F04910023E1
:1027900009F475C781110E94AC52E02FF0E0EE0FF2
:1027A000FF1FE055FE4FA591B491EC91E12391E01C
:1027B00080E009F490E0092F182F86EB0E94596BF6
:1027C000C801110FAA0BBB0BCD56DD4F888399832F
:1027D000AA83BB83C359D2400E94036BCC56DD4F02
:1027E0008881C459D2400E94036BCB56DD4F88814B
:1027F000C559D2400E94036BCA56DD4F8881C65925
:10280000D24090CB81E08093A9120E949A6C4BC871
:102810000E949D6D0E949D6D182F682F70E08AE0C8
:102820000E94A5541093E20F0E949A6C3CC880EB62
:102830000E94596B1AE019821A821B821C8280E066
:102840000E94036B8A810E94036B8B810E94036B41
:102850008C810E94036BC556DD4F19821882CB59BB
:10286000D24080E00E94036BC456DD4F8881CC5972
:10287000D2400E94036B1150F1F602CB8FEA0E9406
:10288000596B2091021330910313CE0121153105AC
:1028900009F01DC7855093419A83898389819A8164
:1028A000092E000CAA0BBB0BCF5FDD4F88839983E9
:1028B000AA83BB83C150D2400E94036BCE5FDD4F21
:1028C0008881C250D2400E94036BCD5FDD4F88816A
:1028D000C350D2400E94036BCC5FDD4F8881C4504F
:1028E000D2407DCC0E949D6D182F0E949D6D082FB7
:1028F0000E949D6DE82EF12CFE2CEE24E00EF11CC2
:10290000123030F068E172E089E796E00E94994465
:10291000C7010F964F9730F068E172E08AE796E0C2
:102920000E949944E12FF0E0EE0FFF1FE051FE4EB0
:10293000F282E1820E949A6C0C94530C0E946F8088
:102940000E949D6D0E946F800E949A6C0C94530CA3
:102950000E949D6D182F0E946F8021E030E030931F
:10296000420F2093410F10934D0F9093440F80938B
:10297000430F812F0E94328010FD73C69FB7F894D9
:10298000E0911B03F0911C03208180911A03822B9C
:1029900080839FBF11FD57C69FB7F894E09118033D
:1029A000F0911903208180911703822B80839FBFB0
:1029B00012FD7FC69FB7F894E0911503F0911603BE
:1029C000208180911403822B80839FBF13FD63C6F7
:1029D0009FB7F894E0911203F09113032081809146
:1029E0001103822B80839FBF80916F00846080934E
:1029F0006F0081E080934E0F0E949A6C0C94530CF0
:102A00000E946F80009709F468C62FB7F8949093DE
:102A1000440F8093430F2FBF0C94790C0E941457DE
:102A20006093F9097093FA098093FB099093FC096C
:102A30008E010F5F1F4F780110E30E9414576093BF
:102A4000E9097093EA098093EB099093EC0920E07F
:102A500030E0A90161E186EC93E00E9445578823AC
:102A600009F46BC41093C6038091C903882321F035
:102A700086EC93E00E9447538091CD038150809370
:102A8000CD03882309F4C2C50E9414578090E90938
:102A90009090EA09A090EB09B090EC09DC01CB0121
:102AA00088199909AA09BB098090ED099090EE094F
:102AB000A090EF09B090F009EFEF8E1A9E0AAE0ACF
:102AC000BE0A8092ED099092EE09A092EF09B092B1
:102AD000F0098090F1099090F209A090F309B0906C
:102AE000F409880E991EAA1EBB1E8092F1099092CD
:102AF000F209A092F309B092F4098090F509909040
:102B0000F609A090F709B090F80988169906AA0668
:102B1000BB0608F092CF8093F5099093F609A09335
:102B2000F709B093F80989CFCE01865A9D4F0E94CC
:102B3000F080CE018B5A9D4F0E94F0800E947D80D4
:102B40004B015C01CE01805B9D4F0E94F080CE0165
:102B5000855B9D4F0E94F080CE018A5B9D4F0E9455
:102B6000F0800E947D806B017C01CE018F5B9D4FC8
:102B70000E94F080CE018F5F9D4F0E94F080CE01B9
:102B800001960E94F0800E946F8025E0FE01E65AC7
:102B9000FD4FA4EEBFE001900D922A95E1F725E0EC
:102BA000FE01EB5AFD4FA9EEBFE001900D922A9570
:102BB000E1F78092EE0F9092EF0FA092F00FB0929B
:102BC000F10F25E0FE01E05BFD4FA2EFBFE00190B9
:102BD0000D922A95E1F725E0FE01E55BFD4FA7EF99
:102BE000BFE001900D922A95E1F725E0FE01EA5B36
:102BF000FD4FACEFBFE001900D922A95E1F7C09236
:102C00000110D0920210E0920310F092041025E01F
:102C1000FE01EF5BFD4FA5E0B0E101900D922A951A
:102C2000E1F725E0FE01EF5FFD4FAAE0B0E1019082
:102C30000D922A95E1F725E0FE013196AFE0B0E173
:102C400001900D922A95E1F79093F6118093F5117A
:102C50000E949A6C0C94530C0E949D6DD82E109279
:102C60002D03882309F4FCC50E949D6D8E010F5F22
:102C70001D4FD8018D935D0181E080932D03EE24DB
:102C8000E394ED0C82E0F82E0CC00E949D6DD501FE
:102C90008D935D01F0922D03F394B1E4FB1609F4DA
:102CA000C4C4FE10F2CF9E012F5F3F4F790180E434
:102CB000D9011D928A95E9F74D2D50E0B801C70161
:102CC0000E9454810E9414576093190A70931A0A43
:102CD00080931B0A90931C0AEEEF5E2ECC24CA94BC
:102CE00066246394712CA7E5DA2E0E941457609332
:102CF000090A70930A0A80930B0A90930C0A809138
:102D0000C4039091C503892B09F046C286EC93E079
:102D10000E947153882309F409C40E9414578090BB
:102D2000090A90900A0AA0900B0AB0900C0ADC01E4
:102D3000CB0188199909AA09BB0940910D0A509144
:102D40000E0A60910F0A7091100A4F5F5F4F6F4F2C
:102D50007F4F40930D0A50930E0A60930F0A7093B1
:102D6000100A4091110A5091120A6091130A709151
:102D7000140A480F591F6A1F7B1F4093110A509372
:102D8000120A6093130A7093140A8090150A9090A7
:102D9000160AA090170AB090180A88169906AA0673
:102DA000BB0608F0A2CF8093150A9093160AA09351
:102DB000170AB093180A99CF8DEB0E94596B0DEE4C
:102DC00019E0D8018C9111963C91119712962C9193
:102DD000129713969C91C959DD4F8883C756D240EC
:102DE000C859DD4F3883C856D240C759DD4F2883B4
:102DF000C956D240C659DD4F9883CA56D2400E9468
:102E0000036BC859DD4F8881C856D2400E94036BBE
:102E1000C759DD4F8881C956D2400E94036BC659FD
:102E2000DD4F8881CA56D2400E94036BF80184812D
:102E3000358126819781C559DD4F8883CB56D24095
:102E4000C459DD4F3883CC56D240C359DD4F288357
:102E5000CD56D240C259DD4F9883CE56D2400E9403
:102E6000036BC459DD4F8881CC56D2400E94036B5E
:102E7000C359DD4F8881CD56D2400E94036BC259A1
:102E8000DD4F8881CE56D2400E94036BD801189640
:102E90008C91189719963C9119971A962C911A971C
:102EA0001B969C91C159DD4F8883CF56D240C059A3
:102EB000DD4F3883C057D240CF58DD4F2883C157EC
:102EC000D240CE58DD4F9883C257D2400E94036B48
:102ED000C059DD4F8881C057D2400E94036BCF5844
:102EE000DD4F8881C157D2400E94036BCE58DD4F21
:102EF0008881C257D2400E94036B005F1F4FBAE027
:102F00000D321B0709F05DCF86C981E08093301236
:102F10000E949A6C0C94530C0E94B6802B013C01C9
:102F20000E94B6806B017C010E94B6804B015C015F
:102F30000E949D6D082F0E949D6D182F0E949D6D0F
:102F4000409203125092041260920512709206127F
:102F5000C0920712D0920812E0920912F0920A125F
:102F600080920B1290920C12A0920D12B0920E123F
:102F700000930F1210931012809311120E949A6CFA
:102F80000C94530C0E947D808091E4099091E50996
:102F9000892B09F01AC468E172E084E498E00E9489
:102FA000994486EC93E00E9426468111FACF8EEB7D
:102FB0000E94596B80912F0B9091300B891B8F3F92
:102FC00009F4FCC38091350B9091360B8F3FEFEFE6
:102FD0009E0731F09927FC01E35DF54F8FEF828367
:102FE0008091330B8F5F8093330B0C94790C8CEBB7
:102FF0000E94596B01E812E0D80114968C91149745
:1030000015963C91159716962C91169717969C91AC
:10301000CD58DD4F8883C357D240CC58DD4F38831D
:10302000C457D240CB58DD4F2883C557D240CA5829
:10303000DD4F9883C657D2400E94036BCC58DD4FBA
:103040008881C457D2400E94036BCB58DD4F8881E2
:10305000C557D2400E94036BCA58DD4F8881C657BE
:10306000D2400E94036BF8018085318522859385CB
:10307000C958DD4F8883C757D240C858DD4F3883C1
:10308000C857D240C758DD4F2883C957D240C658C9
:10309000DD4F9883CA57D2400E94036BC858DD4F5A
:1030A0008881C857D2400E94036BC758DD4F888182
:1030B000C957D2400E94036BC658DD4F8881CA575A
:1030C000D2400E94036BD8011C968C911C971D96D0
:1030D0003C911D971E962C911E971F969C91C5584A
:1030E000DD4F8883CB57D240C458DD4F3883CC574F
:1030F000D240C358DD4F2883CD57D240C258DD4F50
:103100009883CE57D2400E94036BC458DD4F88810C
:10311000CC57D2400E94036BC358DD4F8881CD57F6
:10312000D2400E94036BC258DD4F8881CE57D240F7
:103130000E94036B005F1F4FB3E001311B0709F0D2
:103140005BCF69C8AE2FB0E06091370B7091380B40
:103150008E2F0C94350C82E08283332309F48CC3C8
:10316000A35DB54F12968C9112978F5F12968C9338
:1031700082818F5F82830C94010C8091370B825087
:1031800080932F0B0C94FD0A2EE239E030931A1134
:10319000209319110C94950886EC93E00E947153CA
:1031A0008111BBCD20E030E0A9016DE086EC93E019
:1031B0000E944557811108C08FEF8EBD0DB407FEE8
:1031C000FDCF8EB5882331F04091CA0369E28CE0CF
:1031D0000E94FB428091C903882321F086EC93E092
:1031E0000E9447531092C5031092C40385E0809358
:1031F000CE030E9414570091090A10910A0A2091E7
:103200000B0A30910C0ADC01CB01801B910BA20B45
:10321000B30B00910D0A10910E0A20910F0A309104
:10322000100A0F5F1F4F2F4F3F4F00930D0A10934F
:103230000E0A20930F0A3093100A0091110A109180
:10324000120A2091130A3091140A080F191F2A1F1D
:103250003B1F0093110A1093120A2093130A309314
:10326000140A0091150A1091160A2091170A30913C
:10327000180A081719072A073B0740F48093150A14
:103280009093160AA093170AB093180A0E94145735
:103290000091190A10911A0A20911B0A30911C0AF8
:1032A000DC01CB01801B910BA20BB30B00911D0A1B
:1032B00010911E0A20911F0A3091200A0F5F1F4FA4
:1032C0002F4F3F4F00931D0A10931E0A20931F0A91
:1032D0003093200A0091210A1091220A2091230A9A
:1032E0003091240A080F191F2A1F3B1F0093210A3F
:1032F0001093220A2093230A3093240A0091250A6E
:103300001091260A2091270A3091280A08171907D8
:103310002A073B0740F48093250A9093260AA0933E
:10332000270AB093280A8AEA0E94596B81E00C941C
:103330000911DB01892F0C94350C40E052E0B701F4
:1033400086EC93E00E94C357882309F48DCB8091CB
:10335000C9038111CDC185E08093CD030E9414572C
:103360000091E9091091EA092091EB093091EC09EB
:10337000DC01CB01801B910BA20BB30B0091ED097B
:103380001091EE092091EF093091F0090F5F1F4F66
:103390002F4F3F4F0093ED091093EE092093EF0953
:1033A0003093F0090091F1091091F2092091F3098D
:1033B0003091F409080F191F2A1F3B1F0093F109D0
:1033C0001093F2092093F3093093F4090091F50961
:1033D0001091F6092091F7093091F809081719079B
:1033E0002A073B0740F48093F5099093F609A093D0
:1033F000F709B093F8090E9414570091F909109148
:10340000FA092091FB093091FC09DC01CB01801BFA
:10341000910BA20BB30B0091FD091091FE092091B5
:10342000FF093091000A0F5F1F4F2F4F3F4F00934E
:10343000FD091093FE092093FF093093000A0091C3
:10344000010A1091020A2091030A3091040A080F20
:10345000191F2A1F3B1F0093010A1093020A209391
:10346000030A3093040A0091050A1091060A20917C
:10347000070A3091080A081719072A073B0740F482
:103480008093050A9093060AA093070AB093080A4E
:103490008BEA0E94596B81E00E94036B6FE370E03E
:1034A000C7010E946581182F0E94036B112379F0D8
:1034B0000FEF010F10E00F5F1F4F0E0D1F1DD70103
:1034C0008D917D010E94036BE016F106C1F780919A
:1034D0002F0B9091300B891B8F3F61F08091350B42
:1034E0009091360B8F3FBFEF9B0711F00C94650E48
:1034F0000C946B0E8091370B825080932F0B0C94A1
:10350000530C8E2F90E0FF3F49F071E07E0FFC01DD
:10351000E35DF54FF282E72FF72FF01BD9011296EA
:103520006C9112976F5F12966C930BC820E030E09D
:10353000A90168E186EC93E00E94455781116EC0B5
:10354000D70180E090E02D91E92FFF27E227EE0FD1
:10355000FF1FE458F54F25913491982F8827822733
:103560009327A017B10779F75EBC0DB407FEFDCF16
:1035700029812EBD2A81FE0133960DB407FEFDCFB1
:103580002EBD0E171F0711F02191F7CF0DB407FEC6
:10359000FDCF9EBD0DB407FEFDCF8EBD0DB407FE61
:1035A000FDCFCEBC0DB407FEFDCF8EB58093CA0310
:1035B0008F71853009F466C0D092C6038091C9032B
:1035C000882321F086EC93E00E9447538091CE033C
:1035D00081508093CE038111A0CB4091CA036091AA
:1035E000C6038CE00E94FB4298CB9093360B8093ED
:1035F000350B70932F0BFF3F09F47CCF8F3FEFEF1C
:103600009E0711F00C94650E0C946B0E4091CA034A
:103610006091C60389E00E94FB4236CA4091CA030A
:1036200062E38CE00E94FB428BCFFE0131967F016A
:1036300080E4DF011D928A95E9F7BFE3BD1508F02C
:103640003BCB40E43ACB2FB7F894E0911803F091CC
:1036500019038081909117039095892380832FBF50
:10366000A7C92FB7F894E0911B03F0911C03808148
:1036700090911A039095892380832FBF8BC900E016
:1036800010E09BC886EC93E00E9458537092C503EB
:103690006092C40342CB2FB7F894E0911203F091EB
:1036A00013038081909111039095892380832FBF0C
:1036B0009BC92FB7F894E0911503F0911603808110
:1036C000909114039095892380832FBF7FC9019621
:1036D000821B930B9A838983E1C810924E0F0E943C
:1036E000235280916F008B7F80936F000C94790C34
:1036F00086EC93E00E9447532ECE62E084EA0E945B
:10370000DB6C0C94530C8A8590E0A0E0B0E0AC0137
:10371000BD014F5F5F4F6F4F7F4F898590E0A0E005
:10372000B0E0BA2FA92F982F8827840F951FA61FC6
:10373000B71F48854F7350E060E070E0BA0155272D
:103740004427840F951FA61FB71F2AE0880F991FD3
:10375000AA1FBB1F2A95D1F70C94FB118F81837090
:1037600090E09C01322F2227330F330F8885F4E03D
:103770008F9FC0011124822B932B2985229526959A
:1037800026952370822B0196A0E0B0E04A85437015
:10379000440F2B8527FB222720F9422B2E812F70E7
:1037A00030E0240F311D2750310904C0880F991FC4
:1037B000AA1FBB1F2A95D2F70C94FB118091370BDF
:1037C000825080932F0B0C94790C68E172E083E4B3
:1037D00098E00E949944DFCB20E00C94241368E128
:1037E00072E08FE396E00E949944809124129091B8
:1037F0002512019711F00C94B51283E090E090939C
:1038000025128093241210922712109226128FEF05
:1038100080931F12109223121092221210922112E2
:10382000109220128FE00E94328010922912109282
:1038300028120C94DC121092420F1092410F80ED6E
:1038400097E090938B0080938A00909389008093F7
:10385000880080916F00846080936F000C94790CD5
:103860008E010F5F1D4F1FCA8FEF9FEF9093360B96
:103870008093350B0C94010C5093360B4093350B11
:103880000C94010CCF92DF92EF92FF920F931F9353
:10389000CF93DF938091391290913A12803A23E0CE
:1038A000920711F40C94C32908F463C18E38F4E034
:1038B0009F0709F4F6C508F088C1873FA3E09A077F
:1038C00011F40C94B92808F01CC5883CE3E09E076D
:1038D00009F467C010F40C94992D813EB3E09B0766
:1038E00011F40C941E288E3EE3E09E0711F40C9414
:1038F0006128853D934011F00C9415288091A81201
:1039000081508093A812882309F423C12091B61214
:103910003091B7128091450F9091460FA091470FBB
:10392000B091480F820F931FA11DB11D8093450FC9
:103930009093460FA093470FB093480FE0913F0F2D
:1039400081E08E0F80933F0FF0E0EE0FFF1FEE0F30
:10395000FF1FE15CF44F8091B4129091B512A091D9
:10396000B612B091B71280839183A283B383809102
:103970004A1290914B12019790934B1280934A12E6
:10398000892B11F40C94332A1092B9121092B812A8
:1039900081E08093C01288EC93E090933A12809378
:1039A00039120E9469698111DAC08091B312E091E5
:1039B000C712F091C812882311F40C94EC31A08145
:1039C0002091AA123091AB124091AC125091AD12DD
:1039D000B0E00E943781DC01CB012AE0B695A795C3
:1039E000979587952A95D1F79093B7128093B61241
:1039F000909145129093B51280914412882311F44E
:103A00000C94853040916012509161126091621265
:103A10007091631277FF02C00C94503600918812A7
:103A20001091891220918A1230918B12400F511FF0
:103A3000621F731F40936012509361126093621271
:103A40007093631291609093B512813011F00C94D1
:103A50008530409168125091691260916A1270919C
:103A60006B1277FF02C00C94B43400919012109145
:103A700091122091921230919312400F511F621FA8
:103A8000731F409368125093691260936A12709387
:103A90006B129091B51294609093B512833039F106
:103AA00040916C1250916D1260916E1270916F1274
:103AB00077FF02C00C94CA340091941210919512B1
:103AC0002091961230919712400F511F621F731F61
:103AD00040936C1250936D1260936E1270936F123C
:103AE0009091B51298609093B512843029F180912D
:103AF000701290917112A0917212B0917312B7FF6F
:103B000002C00C94C1354091981250919912609165
:103B10009A1270919B12840F951FA61FB71F809356
:103B2000701290937112A0937212B09373128091DD
:103B3000B51280618093B51285ED93E090933A12AF
:103B4000809339128091A81281508093A81281111C
:103B5000DDCE88EA92E10E947A528111D7CE81E0CF
:103B6000DF91CF911F910F91FF90EF90DF90CF9059
:103B700008958E39B2E09B0711F40C94062708F0E3
:103B8000EDC08B37F2E09F0711F40C941C2608F46B
:103B9000EBC68738A2E09A0711F40C94822610F441
:103BA0000C94EC2D8F3822E0920711F40C94C62669
:103BB0008339A2E09A0711F40C94E2268B389240E4
:103BC00011F00C9415280C94A426813DB4E09B07B9
:103BD00011F40C94DB2E08F00DC58B3AF4E09F072E
:103BE00009F477C010F40C94F62D8B3BE4E09E07AB
:103BF000E1F0873CF4E09F0711F40C94C52F863B5D
:103C0000944011F00C9415280E9469698111A7CF86
:103C1000E091C712F091C81280818093B5128BEBAE
:103C200094E090933A12809339128091A8128150B7
:103C30008093A812882311F40C94692B2091B6125A
:103C40003091B7128091450F9091460FA091470F88
:103C5000B091480F820F931FA11DB11D8093450F96
:103C60009093460FA093470FB093480FE0913F0FFA
:103C700081E08E0F80933F0FF0E0EE0FFF1FEE0FFD
:103C8000FF1FE15CF44F8091B4129091B512A091A6
:103C9000B612B091B71280839183A283B3838091CF
:103CA000A4129091A51201979093A5128093A4124B
:103CB000892B11F40C94792F1092B9121092B8122A
:103CC00081E08093C0128BEA94E090933A12809343
:103CD00039120E946969811142CFE091C712F091B7
:103CE000C8128081A0913E12B0913F12A80FB11D61
:103CF00087FDBA95B0933F12A0933E128091B31204
:103D0000882311F40C948F322091AA123091AB12B7
:103D10004091AC125091AD120E943781DC01CB0171
:103D20006AE0B695A795979587956A95D1F7909390
:103D3000B7128093B6121092B9121092B81281E0A5
:103D40008093C01286EB94E090933A1280933912DC
:103D50000E946969882309F45BCF01CF8534E3E0D1
:103D60009E0709F4C2C108F0BDC4823023E0920767
:103D700011F40C94EE2710F40C948F2D8F32F3E095
:103D80009F0709F488C08C3323E0920709F454C1DB
:103D90008630934011F00C9415280E9469698111B6
:103DA000DECEE091C712F091C812208131813093AC
:103DB00049122093481200914412E02FF0E0EE0FD8
:103DC000FF1FEE0FFF1FE75CFD4EC388D488E58818
:103DD000F688C0929C12D0929D12E0929E12F092B0
:103DE0009F12CCE4D2E1E4E7F2E110E00117F1F038
:103DF000488159816A817B81440F551F661F771F57
:103E0000DB01CA018C199D09AE09BF098C8B9D8B02
:103E1000AE8BBF8B40835183628373838C199D0962
:103E2000AE09BF09848B958BA68BB78B1F5F249639
:103E300034961530D9F660914012709141128091FC
:103E4000421290914312FC01E60FF71F40914A1273
:103E500050914B124E0F5F1F240F351FC21AD30A09
:103E6000E108F108C092A012D092A112E092A21231
:103E7000F092A312672B11F40C94742C1092B912C7
:103E80001092B81282E08093C0128FE293E0909378
:103E90003A12809339120E946969811160CE809133
:103EA000B312E091C712F091C812882311F40C9458
:103EB000C131A081B1812091AA123091AB12409101
:103EC000AC125091AD120E943781DC01CB012AE087
:103ED000B695A795979587952A95D1F79093B712A0
:103EE0008093B612909145129093B512809144122E
:103EF000882311F40C942E3040916012509161127D
:103F0000609162127091631277FF02C00C942836A0
:103F1000009188121091891220918A1230918B128F
:103F2000400F511F621F731F409360125093611224
:103F3000609362127093631291609093B512813016
:103F400011F00C942E3040916812509169126091DA
:103F50006A1270916B1277FF02C00C944834009182
:103F60009012109191122091921230919312400F61
:103F7000511F621F731F4093681250936912609320
:103F80006A1270936B129091B51294609093B5126F
:103F9000833039F140916C1250916D1260916E1224
:103FA00070916F1277FF02C00C943234009194121A
:103FB000109195122091961230919712400F511F37
:103FC000621F731F40936C1250936D1260936E12B8
:103FD00070936F129091B51298609093B5128430DF
:103FE00029F18091701290917112A0917212B0918A
:103FF0007312B7FF02C00C94A735409198125091EC
:10400000991260919A1270919B12840F951FA61FAE
:10401000B71F8093701290937112A0937212B09395
:1040200073128091B51280618093B5128CE393E096
:1040300090933A12809339128091A8128150809304
:10404000A812882311F40C947C312091B61230917F
:10405000B7128091450F9091460FA091470FB091F4
:10406000480F820F931FA11DB11D8093450F9093A0
:10407000460FA093470FB093480FE0913F0F81E0A8
:104080008E0F80933F0FF0E0EE0FFF1FEE0FFF1F2C
:10409000E15CF44F8091B4129091B512A091B612E8
:1040A000B091B71280839183A283B3838091B412BD
:1040B0008F778093B41280914012909141120197B2
:1040C0009093411280934012892B11F40C94702C20
:1040D0001092B9121092B81282E08093C01285E457
:1040E00093E090933A12809339120E94696981118A
:1040F00036CD8091B312E091C712F091C812882397
:1041000011F40C940332A081B1812091AA12309154
:10411000AB124091AC125091AD120E943781DC017C
:10412000CB011AE0B695A795979587951A95D1F783
:104130009093B7128093B612909145129093B51256
:1041400080914412882311F40C9421314091601223
:1041500050916112609162127091631277FF02C0F8
:104160000C949236009188121091891220918A1233
:1041700030918B12400F511F621F731F40936012CA
:1041800050936112609362127093631291609093E6
:10419000B512813011F00C94213140916812509188
:1041A000691260916A1270916B1277FF02C00C94D1
:1041B000E03400919012109191122091921230915E
:1041C0009312400F511F621F731F40936812509348
:1041D000691260936A1270936B129091B512946099
:1041E0009093B512833039F140916C1250916D1259
:1041F00060916E1270916F1277FF02C00C944C3573
:10420000009194121091951220919612309197126C
:10421000400F511F621F731F40936C1250936D1219
:1042200060936E1270936F129091B5129860909394
:10423000B512843029F18091701290917112A09181
:104240007212B0917312B7FF02C00C940336409102
:1042500098125091991260919A1270919B12840F4A
:10426000951FA61FB71F8093701290937112A09391
:104270007212B09373128091B51280618093B5125F
:1042800082E593E090933A12809339128091A812BC
:1042900081508093A812882311F40C94B731209197
:1042A000B6123091B7128091450F9091460FA091B0
:1042B000470FB091480F820F931FA11DB11D80932E
:1042C000450F9093460FA093470FB093480FE0918E
:1042D0003F0F81E08E0F80933F0FF0E0EE0FFF1F46
:1042E000EE0FFF1FE15CF44F8091B4129091B51274
:1042F000A091B612B091B71280839183A283B38349
:10430000DACE8D3124E0920711F40C94C52D10F40F
:104310000C94A32D8C33F4E09F0751F1803424E0FA
:10432000920709F446C08133944009F07EC60E948A
:104330006969811114CCE091C712F091C812808193
:1043400091819093A5128093A4121092B312809140
:104350003B1285FF99C01092B9121092B81284E0F6
:104360008093C0128CE394E090933A1280933912B8
:104370000E9469698111F3CBE091C712F091C812D4
:1043800080819181A281B3818093AE129093AF120C
:10439000A093B012B093B1121092B9121092B81249
:1043A00081E08093C01280E494E090933A1280936D
:1043B00039120E9469698111D2CBE091C712F09144
:1043C000C812C081C093B2128091290A90912A0A22
:1043D00095958795959587959595879595958795C5
:1043E0002091000230910102821B930B97FF02C0C3
:1043F0000C9490338436910514F40C943B32209144
:10440000EE113091EF1140E050E06091AE127091EA
:10441000AF128091B0129091B1120E94FE80DC0127
:10442000CB0104C0B695A79597958795CA95D2F705
:104430008130E0E19E07A105B10520F080E090E128
:10444000A0E0B0E08093AA129093AB12A093AC12BC
:10445000B093AD128130F4E09F07A105B10510F4CF
:104460000C94863181E08093B31280912012909158
:1044700021128E3F2FEF920711F40C94BD35019657
:1044800090932112809320121092B9121092B812B8
:1044900082E08093C0128EE894E090933A12809369
:1044A00039120E94696981115ACBE091C712F091CB
:1044B000C812A081B181B0933F12A0933E128091A7
:1044C000B312882311F40C9419302091AA12309160
:1044D000AB124091AC125091AD120E943781DC01B9
:1044E000CB017AE0B695A795979587957A95D1F700
:1044F0009093B7128093B6121092B9121092B8121C
:1045000081E08093C01289E994E090933A128093FD
:1045100039120E946969811122CBE091C712F09192
:10452000C81280818093B5128EE994E090933A127C
:10453000809339128091A81281508093A812882309
:1045400011F40C94692B2091B6123091B71280911E
:10455000450F9091460FA091470FB091480F820FE1
:10456000931FA11DB11D8093450F9093460FA093FB
:10457000470FB093480FE0913F0F81E08E0F80937B
:104580003F0FF0E0EE0FFF1FEE0FFF1FE15CF44F57
:104590008091B4129091B512A091B612B091B71259
:1045A00080839183A283B3838091B4128F778093A9
:1045B000B41280913B1290913C1286FD02C00C9483
:1045C0001F302091A4123091A5122150310930934F
:1045D000A5122093A412232B09F06ECB91FF05C0E6
:1045E0008091A91281110E94256210923A121092B4
:1045F0003912B5CA863FA4E09A0711F40C948C2FA7
:1046000010F40C940D2E803125E0920709F460C05F
:104610008931A5E09A0711F40C94AF2F86309540AC
:1046200009F003C50E946969811199CAE091C71216
:10463000F091C812808191811092B51220E533EC7F
:104640003093B7122093B61233C02091B612309136
:10465000B7128091450F9091460FA091470FB091EE
:10466000480F820F931FA11DB11D8093450F90939A
:10467000460FA093470FB093480F81E08E0F8093B1
:104680003F0FF0E0EE0FFF1FEE0FFF1FE15CF44F56
:104690008091B4129091B512A091B612B091B71258
:1046A00080839183A283B3838091A6129091A712F5
:1046B0009C01215031093093A7122093A612892B17
:1046C00009F493CF80E195E090933A1280933912E8
:1046D000E0913F0F8091400FFE2FF81BFF3F09F044
:1046E000B4CF3DCA8B36B3E09B0711F40C944F2D29
:1046F00010F40C94022E8138A3E09A0709F4DBC071
:104700008539B3E09B0711F40C94312C8437934026
:1047100009F08BC40E946969811121CA8091B3128A
:10472000E091C712F091C812882311F40C94FB3168
:10473000A0812091AA123091AB124091AC125091FD
:10474000AD12B0E00E943781DC01CB01EAE0B69502
:10475000A79597958795EA95D1F79093B71280938F
:10476000B612909145129093B5128091441288230D
:1047700011F40C94AE30409160125091611260912E
:1047800062127091631277FF02C00C947C36009124
:1047900088121091891220918A1230918B12400F49
:1047A000511F621F731F40936012509361126093F8
:1047B00062127093631291609093B512813011F080
:1047C0000C94AE30409168125091691260916A1257
:1047D00070916B1277FF02C00C940B350091901210
:1047E000109191122091921230919312400F511F0B
:1047F000621F731F409368125093691260936A128C
:1048000070936B129091B51294609093B5128330AF
:1048100039F140916C1250916D1260916E1270914D
:104820006F1277FF02C00C94213500919412109101
:1048300095122091961230919712400F511F621FCE
:10484000731F40936C1250936D1260936E127093AD
:104850006F129091B51298609093B512843029F13F
:104860008091701290917112A0917212B091731296
:10487000B7FF02C00C94ED354091981250919912F7
:1048800060919A1270919B12840F951FA61FB71FFB
:104890008093701290937112A0937212B09373125E
:1048A0008091B51280618093B51281E893E0909376
:1048B0003A12809339128091A81281508093A812E5
:1048C000882311F40C94AD312091B6123091B712B7
:1048D0008091450F9091460FA091470FB091480FDE
:1048E000820F931FA11DB11D8093450F9093460F1A
:1048F000A093470FB093480FE0913F0F81E08E0FD8
:1049000080933F0FF0E0EE0FFF1FEE0FFF1FE15C03
:10491000F44F8091B4129091B512A091B612B0915B
:10492000B71280839183A283B383809142129091C6
:10493000431201979093431280934212892B09F4FA
:10494000D3C61092B9121092B81281E08093C012AF
:1049500084E793E090933A12809339120E94696938
:10496000882309F4DBCEFBC88C35A2E09A0709F452
:1049700001C108F051C3009711F40C94DB2F8A3366
:10498000924009F052C30E9469698111E8C8E09120
:10499000C712F091C812C081CC3011F40C941936B2
:1049A00010F00C94D231C73009F4DEC0CB3011F4D2
:1049B0000C947F2FC33011F40C94E53280E00E94F8
:1049C000A76B84E292E00E948F6B81E00E94A76B4C
:1049D0008CE292E00E948F6B4AE065E070E080E03C
:1049E00090E00E94BB6B82E00E94A76B85E392E09F
:1049F0000E948F6B8C2F90E0A0E0B0E04AE0BC01F9
:104A0000CD010E94BB6B83E00E94A76B8EE392E016
:104A10000E948F6B8DE392E00E948F6B80912F0B31
:104A20009091300B282F291B2F3F41F1E1E0E80F37
:104A3000E0932F0BA82FB0E0A35DB54F12961C9208
:104A40002E2F291B2F3FD1F022E0280F20932F0B70
:104A5000F0E0E35DF54F33E03283422F50E05093B6
:104A6000380B4093370B291B2F3F41F08D5F80930C
:104A70002F0BFA01E35DF54F81E0828380912F0BCC
:104A8000282F30E03093360B2093350B482F491BED
:104A90004F3F11F40C9453378F5F80932F0BD90144
:104AA000A35DB54F81E012968C9312972091370B3E
:104AB0003091380BF901FF27E35DF54F82818F5F5D
:104AC000828312968C9112978F5F12968C93A0918D
:104AD0002F0B8A2F891B8F3F11F40C947D3781E0B7
:104AE0008A0F80932F0BB0E0A35DB54F45E012967F
:104AF0004C9342814F5F4283CC2311F40C94433793
:104B00000091350B1091360BA8015527435D554F89
:104B1000DA0112966C9112976F5F12966C93682F60
:104B2000691B6F3F11F40C94793761E0680F609353
:104B30002F0BA82FB0E0A35DB54F1296CC938281C6
:104B40008F5F8283691B6F3F11F40C944E370F3FC8
:104B50001F4F19F08FEFFA0182838091330B8F5F23
:104B60008093330B0E9490418CE592E090933A122F
:104B70008093391280913F0F9091400F891B80954F
:104B80008093A812882311F40C94AF1D1092B912CF
:104B90001092B81282E08093C01280E692E0909367
:104BA0003A12809339120E94696981110C94AF1DE9
:104BB000E091C712F091C8128081918190933C12CC
:104BC00080933B1287FF02C00C94CE312091B41227
:104BD00091FD02C00C94C93120642093B41210924C
:104BE000B9121092B81281E08093C01282E792E06D
:104BF00090933A12809339120E94696981110C9442
:104C0000AF1DE091C712F091C812908190934412A9
:104C100081E001C0880F9A95EAF7809345121092BF
:104C2000B9121092B81284E08093C0128BE792E020
:104C300090933A12809339120E94696981110C9401
:104C4000AF1DE091C712F091C81280819181A281BD
:104C5000B38180934C1290934D12A0934E12B09357
:104C60004F121092B9121092B81284E08093C012C1
:104C70008FE792E090933A12809339120E9469690B
:104C800081110C94AF1DE091C712F091C812808180
:104C90009181A281B3818093501290935112A0937D
:104CA0005212B09353121092B9121092B81284E0BB
:104CB0008093C01283E892E090933A128093391265
:104CC0000E94696981110C94AF1DE091C712F091A7
:104CD000C81280819181A281B381809354129093F4
:104CE0005512A0935612B09357121092B912109207
:104CF000B81284E08093C01287E892E090933A1251
:104D0000809339120E94696981110C94AF1DE09162
:104D1000C712F091C81280819181A281B3818093E2
:104D2000581290935912A0935A12B0935B1210929A
:104D3000B9121092B81284E08093C0128BE892E00E
:104D400090933A12809339120E94696981110C94F0
:104D5000AF1DE091C712F091C81280819181A281AC
:104D6000B38180935C1290935D12A0935E12B09316
:104D70005F121092B9121092B81282E08093C012A2
:104D80008FE892E090933A12809339120E946969F9
:104D900081110C94AF1DE091C712F091C81280816F
:104DA000918190934112809340121092B912109207
:104DB000B81282E08093C01283E992E090933A1295
:104DC000809339120E94696981110C94AF1DE091A2
:104DD000C712F091C8128081918190934312809301
:104DE00042121092B31280913B1290913C1290FFAC
:104DF000B3C01092B9121092B81284E08093C0121E
:104E00008EE992E090933A12809339120E94696978
:104E100081110C94AF1DE091C712F091C8128081EE
:104E20009181A281B3818093AE129093AF12A0932F
:104E3000B012B093B1121092B9121092B81281E070
:104E40008093C01282EA92E090933A1280933912D2
:104E50000E94696981110C94AF1DE091C712F09115
:104E6000C812C081C093B2126091AE127091AF129D
:104E70008091B0129091B112611571058105910573
:104E800011F40C9457302091290A30912A0AA90173
:104E900055954795559547955595479555954795FA
:104EA0002091000230910102DA01A21BB30B9D0197
:104EB000B7FF02C00C949F35A436B10514F40C94CE
:104EC00012342091EE113091EF1140E050E00E9439
:104ED000FE80DC01CB0104C0B695A7959795879518
:104EE000CA95D2F78130E0E19E07A105B10520F017
:104EF00080E090E1A0E0B0E08093AA129093AB1222
:104F0000A093AC12B093AD1281309440A105B105CD
:104F100010F40C94983381E08093B31280912012A6
:104F2000909121128E3F2FEF920711F40C942E379F
:104F3000019690932112809320128091AA12909151
:104F4000AB12A091AC12B091AD1281159240A105A7
:104F5000B10510F40C94B9331092B9121092B81232
:104F600082E08093C01288EF92E090933A1280938F
:104F700039120E94696981110C94AF1D8091B3129E
:104F8000E091C712F091C812882311F40C94EA2F13
:104F9000A081B1812091AA123091AB124091AC1244
:104FA0005091AD120E943781DC01CB01CAE0B69569
:104FB000A79597958795CA95D1F7909347128093B7
:104FC00046121092B9121092B81282E08093C01269
:104FD00082E093E090933A12809339120E946969BB
:104FE00081110C94AF1DE091C712F091C81280811D
:104FF000918190934B1280934A121092B9121092A1
:10500000B81282E08093C01286E093E090933A1247
:10501000809339120C94CD1E8036F2E09F0709F47C
:10502000C2CD8237924009F4E7CD8FEF9FEF909386
:105030003A128093391280E00C94B01D8091B8121E
:105040009091B9128E39B1E09B0709F45FC28F3A93
:10505000E1E09E0711F40C94DD30892B09F416C2AF
:10506000E091C712F091C8128FEF9FEF9093B912A1
:105070008093B8128091B312882311F40C944A31B2
:10508000A081B1812091AA123091AB124091AC1253
:105090005091AD120E943781DC01CB011AE0B69528
:1050A000A795979587951A95D1F79093B712809306
:1050B000B6120E94F4608EEE93E090933A128093C1
:1050C00039128091A81281508093A812882311F47C
:1050D0000C9462312091B6123091B7128091450F35
:1050E0009091460FA091470FB091480F820F931FE8
:1050F000A11DB11D8093450F9093460FA093470FBC
:10510000B093480FE0913F0F81E08E0F80933F0FE7
:10511000F0E0EE0FFF1FEE0FFF1FE15CF44F8091F8
:10512000B4129091B512A091B612B091B7128083CB
:105130009183A283B3838091B4128F778093B4124A
:10514000809148129091491201979093491280934F
:105150004812892B09F480C11092B9121092B8122A
:1051600082E08093C01287EF93E090933A1280938D
:1051700039120E94696981110C94AF1D8091B3129C
:10518000E091C712F091C812882311F40C94E43115
:10519000A081B1812091AA123091AB124091AC1242
:1051A0005091AD120E943781DC01CB01CAE0B69567
:1051B000A79597958795CA95D1F79093B712809345
:1051C000B612909145129093B512809144128823A3
:1051D00009F474C74091601250916112609162129B
:1051E0007091631277FF02C00C94663600918812AA
:1051F0001091891220918A1230918B12400F511F09
:10520000621F731F40936012509361126093621289
:105210007093631291609093B512813009F04EC77C
:10522000409168125091691260916A1270916B12EC
:1052300077FF02C00C947334009190121091911278
:105240002091921230919312400F511F621F731FD1
:10525000409368125093691260936A1270936B12B4
:105260009091B51294609093B512833039F14091CA
:105270006C1250916D1260916E1270916F1277FFE7
:1052800002C00C94893400919412109195122091CF
:10529000961230919712400F511F621F731F409357
:1052A0006C1250936D1260936E1270936F12909106
:1052B000B51298609093B512843029F180917012E4
:1052C00090917112A0917212B0917312B7FF02C047
:1052D0000C94D735409198125091991260919A127E
:1052E00070919B12840F951FA61FB71F8093701299
:1052F00090937112A0937212B09373128091B512B1
:1053000080618093B51284E094E090933A12809388
:1053100039128091A81281508093A812882309F431
:10532000D8C12091B6123091B7128091450F90915B
:10533000460FA091470FB091480F820F931FA11DF8
:10534000B11D8093450F9093460FA093470FB093E4
:10535000480FE0913F0F81E08E0F80933F0FF0E008
:10536000EE0FFF1FEE0FFF1FE15CF44F8091B412B0
:105370009091B512A091B612B091B712808391832B
:10538000A283B383DDCE8091A81281508093A812AE
:10539000882309F458C02091B6123091B712809139
:1053A000450F9091460FA091470FB091480F820F83
:1053B000931FA11DB11D8093450F9093460FA0939D
:1053C000470FB093480FE0913F0F81E08E0F80931D
:1053D0003F0FF0E0EE0FFF1FEE0FFF1FE15CF44FF9
:1053E0008091B4129091B512A091B612B091B712FB
:1053F00080839183A283B3838091A0129091A112A4
:10540000A091A212B091A3120197A109B1098093B2
:10541000A0129093A112A093A212B093A312892B71
:105420008A2B8B2B09F4D2C00E94F46080EA93E0AF
:1054300090933A12809339128091A81281508093F0
:10544000A8128111A8CF88EA92E10E947A5288239B
:1054500011F40C94AF1D9FCF80913B1290913C12A0
:1054600092FDBEC8C2C88091481290914912892B02
:1054700099F31092B9121092B81282E08093C01280
:1054800081EE93E090933A12809339128091BE128C
:105490009091BF126091BC127091BD12681B790B84
:1054A0007093C6126093C512A091C0122A2F30E0EB
:1054B0006217730710F00C94C1336115710509F47C
:1054C00076C6E091BA12F091BB1240E050E020E0C5
:1054D000E80FF91F80E090E0A150EF01C40FD51F45
:1054E0003881EC01C854DD4E39878A2F821B8093A6
:1054F000C0122F5F822F90E0AC018617970768F3E8
:105500008EE991E09093B9128093B8128091E609E8
:10551000882311F40C94AF1D8091E7099091E8095C
:105520008E5D954011F40C9432378EED95E090939A
:10553000E8098093E709DC018091E2099091E30991
:105540004091DE095091DF096091E0097091E10915
:10555000480F591F611D711D4093DE095093DF09EB
:105560006093E0097093E1091092E6099093BD12EF
:105570008093BC12B093BB12A093BA124091C01298
:105580004423A9F08091C5129091C612FC01EF53FB
:10559000FD4E9C01265F3F4F8FEF840F280F311D7A
:1055A00028543D4E8D918193E217F307D9F781EC92
:1055B00092E19093C8128093C712842F90E0909349
:1055C000BF128093BE12E1ECF2E14ECD80914A12FF
:1055D00090914B12892B09F446CF1092B912109278
:1055E000B81281E08093C01282EB93E090933A125C
:1055F000809339120E94696981110C94AF1D8091CA
:10560000B312E091C712F091C812882309F44AC678
:10561000A0812091AA123091AB124091AC1250910E
:10562000AD12B0E00E943781DC01CB014AE0B695B3
:10563000A795979587954A95D1F79093B712809340
:10564000B6120E94F4608FEB93E090933A1280932D
:1056500039128091A81281508093A812882309F4EE
:1056600028C62091B6123091B7128091450F9091C3
:10567000460FA091470FB091480F820F931FA11DB5
:10568000B11D8093450F9093460FA093470FB093A1
:10569000480FE0913F0F81E08E0F80933F0FF0E0C5
:1056A000EE0FFF1FEE0FFF1FE15CF44F8091B4126D
:1056B0009091B512A091B612B091B71280839183E8
:1056C000A283B3838091B4128F778093B4120C9429
:1056D000B71C80913F0F9091400F891B809580935C
:1056E000A81281E00C94B01D8091A0129091A1129B
:1056F000A091A212B091A312892B8A2B8B2B09F4B3
:1057000065CF80914612909147129093B712809383
:10571000B612909145129093B5128091441288234D
:1057200009F482C640916012509161126091621238
:105730007091631277FF02C00C94183700918812A1
:105740001091891220918A1230918B12400F511FB3
:10575000621F731F40936012509361126093621234
:105760007093631291609093B512813009F05CC61A
:10577000409168125091691260916A1270916B1297
:1057800077FF02C00C94D7360091901210919112BD
:105790002091921230919312400F511F621F731F7C
:1057A000409368125093691260936A1270936B125F
:1057B0009091B51294609093B512833039F1409175
:1057C0006C1250916D1260916E1270916F1277FF92
:1057D00002C00C94A8360091941210919512209159
:1057E000961230919712400F511F621F731F409302
:1057F0006C1250936D1260936E1270936F129091B1
:10580000B51298609093B512843029F1809170128E
:1058100090917112A0917212B0917312B7FF02C0F1
:105820000C940237409198125091991260919A12FB
:1058300070919B12840F951FA61FB71F8093701243
:1058400090937112A0937212B09373128091B5125B
:1058500080618093B51285E993E090933A1280932A
:1058600039128091A81281508093A812882309F4DC
:10587000D2C52091B6123091B7128091450F909108
:10588000460FA091470FB091480F820F931FA11DA3
:10589000B11D8093450F9093460FA093470FB0938F
:1058A000480FE0913F0F81E08E0F80933F0FF0E0B3
:1058B000EE0FFF1FEE0FFF1FE15CF44F8091B4125B
:1058C0009091B512A091B612B091B71280839183D6
:1058D000A283B3838091B4128F778093B4128CCD5E
:1058E0008091421290914312892B09F4FDCE1092BF
:1058F000B9121092B81281E08093C0128EE593E045
:1059000090933A12809339120E94696981110C9424
:10591000AF1D8091B312E091C712F091C812882395
:1059200009F4E3C4A0812091AA123091AB124091F6
:10593000AC125091AD12B0E00E943781DC01CB0176
:10594000CAE0B695A79597958795CA95D1F7909394
:10595000B7128093B612909145129093B512809130
:105960004412882309F43EC34091601250916112A1
:10597000609162127091631277FF02C00C948935B6
:10598000009188121091891220918A1230918B1205
:10599000400F511F621F731F40936012509361129A
:1059A000609362127093631291609093B51281308C
:1059B00009F018C3409168125091691260916A12FF
:1059C00070916B1277FD04C70091901210919112A3
:1059D0002091921230919312400F511F621F731F3A
:1059E000409368125093691260936A1270936B121D
:1059F0009091B51294609093B512833029F1409143
:105A00006C1250916D1260916E1270916F1277FD51
:105A1000F4C6009194121091951220919612309133
:105A20009712400F511F621F731F40936C125093C7
:105A30006D1260936E1270936F129091B512986010
:105A40009093B512843029F1809170129091711267
:105A5000A0917212B0917312B7FF02C00C9462351C
:105A6000409198125091991260919A1270919B12E4
:105A7000840F951FA61FB71F809370129093711209
:105A8000A0937212B09373128091B51280618093CB
:105A9000B5128BE693E090933A128093391280917D
:105AA000A81281508093A812882309F415C420916C
:105AB000B6123091B7128091450F9091460FA09188
:105AC000470FB091480F820F931FA11DB11D809306
:105AD000450F9093460FA093470FB093480FE09166
