:1000000058C6000087C6000085C6000083C60000F1
:1000100081C600007FC600007DC600007BC60000D0
:1000200079C6000077C6000075C6000073C60000E0
:1000300071C600006FC600006DC600006BC60000F0
:1000400069C600000C94E8580C94135563C6000070
:1000500061C600005FC600005DC600000C944561EB
:1000600059C600000C944C5B55C6000053C60000F6
:1000700051C600004FC600004DC600004BC6000030
:1000800049C6000047C6000045C6000043C6000040
:1000900041C600003FC600003DC600003BC6000050
:1000A00039C6000037C6000035C6000033C6000060
:1000B00031C600002FC600002DC600002BC6000070
:1000C00029C6000027C6000025C6000023C6000080
:1000D00021C600001FC600001DC600001BC6000090
:1000E00019C6000083123E12C00BC00BC00B0112D8
:1000F000F411A7117A116811C810C00BC00BC00B06
:10010000C00BC00BC00BC00BC00BC00BC00BC00B97
:10011000C00BAE10B50FC00BC00BC00BA50F510F1D
:10012000FD0E2D0EC00B5E0CC00BC00B370C320C3D
:1001300091163C163216300CBD179F162517C00BB2
:100140000316DF15A8159815C00BC00B9115C00B31
:1001500042153015EA14D2149C149514EA13301386
:10016000FA12DE12C7122D12B85BBC5BC05BC65B15
:10017000CC5BB75BD25BD85BDE5BE45BEA5BF05BDE
:10018000F65BFC5BB75B025C085CB25BC85DD05D94
:10019000D55DDF5DE95DB75DF35DFB5D035E0D5E23
:1001A000175E215E305E3A5EB75D445E4E5E585E1D
:1001B000000020002300260029002C002F00320020
:1001C00000010000030106010901050505050705F9
:1001D00008080808020202020A0A080804040404C3
:1001E00001010101010101010303030303030303EF
:1001F000040707070C0C0C0C0C0C0C0C020202027E
:1002000006060606060606060B0B0B0B0B0B0B0B66
:100210000102102020080810204010204080020118
:1002200002010804020101020408102040808040FD
:1002300020100804020180040201804020100804FC
:10024000020108040201010204081020408001029A
:1002500004081020408000000A0B02090C0D0E0853
:10026000070304010000000000000000000000007F
:10027000000000000000000000000000000000007E
:10028000000012111000000000000000000000003B
:10029000000000000000000000000000441F041DDA
:1002A000671B2A1A2B195718A21706177B16001658
:1002B00092152D15D1147C142E14E513A11362137D
:1002C0002613ED12B812851255122712FC11D21105
:1002D000AA1184115F113B111911F810D910BA102D
:1002E0009C108010641049102F101510FC0FE40FA3
:1002F000CD0FB60FA00F8A0F750F610F4C0F390F7E
:10030000250F130F000FEE0EDD0ECB0EBA0EAA0E48
:10031000990E890E7A0E6A0E5B0E4C0E3E0E2F0E53
:10032000210E130E060EF80DEB0DDE0DD10DC50DD1
:10033000B80DAC0DA00D940D880D7D0D710D660DE1
:100340005B0D500D450D3B0D300D260D1B0D110D98
:10035000070DFD0CF30CEA0CE00CD70CCD0CC40C13
:10036000BB0CB20CA90CA00C980C8F0C860C7E0C4C
:10037000760C6D0C650C5D0C550C4D0C450C3D0C54
:10038000350C2E0C260C1F0C170C100C080C010C35
:10039000FA0BF30BEC0BE50BDE0BD70BD00BC90BF9
:1003A000C20BBC0BB50BAE0BA80BA10B9B0B950B9B
:1003B0008E0B880B820B7B0B750B6F0B690B630B22
:1003C0005D0B570B510B4C0B460B400B3A0B350B8F
:1003D0002F0B290B240B1E0B190B130B0E0B080BE9
:1003E000030BFE0AF80AF30AEE0AE90AE40ADE0A37
:1003F000D90AD40ACF0ACA0AC50AC00ABB0AB60A71
:10040000B10AAD0AA80AA30A9E0A990A950A900A97
:100410008B0A870A820A7E0A790A740A700A6B0AB2
:10042000670A620A5E0A5A0A550A510A4C0A480AC1
:10043000440A400A3B0A370A330A2F0A2A0A260AC4
:10044000220A1E0A1A0A160A120A0E0A0A0A060ABC
:10045000020AFE09FA09F609F209EE09EA09E609B3
:10046000E209DE09DA09D709D309CF09CB09C8099E
:10047000C409C009BC09B909B509B109AE09AA097D
:10048000A609A3099F099B099809940991098D0957
:100490008A09860983097F097C0978097509710928
:1004A0006E096B096709640960095D095A095609F3
:1004B000530950094C094909460942093F093C09B9
:1004C0003909350932092F092C0929092509220979
:1004D0001F091C091909160912090F090C09090934
:1004E000060903090009FD08FA08F708F408F108ED
:1004F000ED08EA08E708E408E108DE08DB08D908A7
:10050000D608D308D008CD08CA08C708C408C1084F
:10051000BE08BB08B808B508B308B008AD08AA08FB
:10052000A708A408A1089F089C08990896089308A2
:1005300091088E088B0888088608830880087D0843
:100540007B0878087508720870086D086A086808E2
:10055000650862085F085D085A0857085508520880
:100560004F084D084A0848084508420840083D0819
:100570003A0838083508330830082E082B082808B0
:100580002608230821081E081C0819081708140843
:1005900011080F080C080A080708050802080008D7
:1005A000FD07FB07F807F607F307F107EE07EC076F
:1005B000EA07E707E507E207E007DD07DB07D807FB
:1005C000D607D407D107CF07CC07CA07C707C50787
:1005D000C307C007BE07BB07B907B707B407B20711
:1005E000B007AD07AB07A807A607A407A1079F0799
:1005F0009D079A0798079607930791078F078C071F
:100600008A0788078507830781077E077C077A07A3
:1006100078077507730771076E076C076A07670726
:100620006507630761075E075C075A0758075507A8
:10063000530751074F074C074A0748074607430728
:1006400041073F073D073A073807360734073107A8
:100650002F072D072B072907260724072207200726
:100660001D071B07190717071507120710070E07A5
:100670000C070A070707050703070107FF06FC0623
:10068000FA06F806F606F406F206EF06ED06EB06A5
:10069000E906E706E506E206E006DE06DC06DA061F
:1006A000D806D506D306D106CF06CD06CB06C8069A
:1006B000C606C406C206C006BE06BC06B906B70614
:1006C000B506B306B106AF06AD06AA06A806A6068D
:1006D000A406A206A0069E069C0699069706950605
:1006E000930691068F068D068B068806860684067D
:1006F000820680067E067C067A06770675067306F5
:1007000071066F066D066B0669066606640662066C
:1007100060065E065C065A065806560653065106E3
:100720004F064D064B06490647064506430640065A
:100730003E063C063A0638063606340632063006D1
:100740002D062B06290627062506230621061F0649
:100750001D061A06180616061406120610060E06C0
:100760000C060A060706050603060106FF05FD0539
:10077000FB05F905F605F405F205F005EE05EC05B7
:10078000EA05E805E505E305E105DF05DD05DB052F
:10079000D905D705D405D205D005CE05CC05CA05A7
:1007A000C805C605C305C105BF05BD05BB05B9051F
:1007B000B705B405B205B005AE05AC05AA05A70599
:1007C000A505A305A1059F059D059B059805960513
:1007D0009405920590058E058B058905870585058D
:1007E000830581057E057C057A0578057605730508
:1007F00071056F056D056B05680566056405620585
:1008000060055D055B055905570555055205500501
:100810004E054C05490547054505430541053E057F
:100820003C053A0538053505330531052F052C05FE
:100830002A0528052605230521051F051C051A057F
:1008400018051605130511050F050C050A05080501
:10085000060503050105FF04FC04FA04F804F50489
:10086000F304F104EE04EC04EA04E704E504E30411
:10087000E004DE04DB04D904D704D404D204D00499
:10088000CD04CB04C804C604C404C104BF04BC0422
:10089000BA04B804B504B304B004AE04AB04A904AC
:1008A000A604A404A1049F049D049A04980495043A
:1008B000930490048E048B048904860483048104C9
:1008C0007E047C0479047704740472046F046C045D
:1008D0006A046704650462045F045D045A045804F2
:1008E0005504520450044D044A044804450442048B
:1008F00040043D043A043704350432042F042D0427
:100900002A042704240421041F041C0419041604C7
:10091000130411040E040B0408040504020400046B
:10092000FD03FA03F703F403F103EE03EB03E8031B
:10093000E503E203DF03DC03D903D603D303D003CB
:10094000CD03CA03C703C403C103BE03BB03B7037C
:10095000B403B103AE03AB03A803A403A1039E0336
:100960009B039703940391038E038A0387038403F5
:1009700080037D037903760373036F036C036803BD
:10098000650361035E035A03570353034F034C038C
:100990004803440341033D033903360332032E0366
:1009A0002A03260323031F031B03170313030F0349
:1009B0000B0307030303FF02FB02F702F302EE023D
:1009C000EA02E602E202DD02D902D502D002CC023E
:1009D000C702C302BE02BA02B502B102AC02A7024C
:1009E000A3029E02990294028F028A02850280026B
:1009F0007B02760271026C02660261025C025602A0
:100A000051024B02460240023A0234022F022902EE
:100A100023021D02160210020A020402FD01F70160
:100A2000F001E901E201DC01D501CD01C601BF0100
:100A3000B701B001A801A0019801900188018001CF
:100A400077016E0165015C0153014A0140013601E5
:100A50002C01220117010C010101F500EA00DD0063
:100A6000D100C400B600A9009A008B007C006C0085
:100A70005B004900370023000F00F9FF0000211040
:100A8000422063308440A550C660E77008812991F8
:100A90004AA16BB18CC1ADD1CEE1EFF131121002A0
:100AA00073325222B5529442F772D6623993188348
:100AB0007BB35AA3BDD39CC3FFF3DEE3622443346C
:100AC00020040114E664C774A44485546AA54BB598
:100AD00028850995EEE5CFF5ACC58DD55336722640
:100AE00011163006D776F6669556B4465BB77AA7E8
:100AF00019973887DFF7FEE79DD7BCC7C448E5588C
:100B00008668A7784008611802282338CCC9EDD937
:100B10008EE9AFF9488969990AA92BB9F55AD44ADF
:100B2000B77A966A711A500A333A122AFDDBDCCB87
:100B3000BFFB9EEB799B588B3BBB1AABA66C877CAB
:100B4000E44CC55C222C033C600C411CAEED8FFDD7
:100B5000ECCDCDDD2AAD0BBD688D499D977EB66E7F
:100B6000D55EF44E133E322E511E700E9FFFBEEF27
:100B7000DDDFFCCF1BBF3AAF599F788F8891A981E9
:100B8000CAB1EBA10CD12DC14EF16FE18010A100D3
:100B9000C230E3200450254046706760B9839893C3
:100BA000FBA3DAB33DC31CD37FE35EF3B102901223
:100BB000F322D2323542145277625672EAB5CBA58F
:100BC000A89589856EF54FE52CD50DC5E234C32473
:100BD000A01481046674476424540544DBA7FAB763
:100BE0009987B8975FE77EF71DC73CD7D326F236C3
:100BF0009106B01657667676154634564CD96DC9AF
:100C00000EF92FE9C899E9898AB9ABA94458654812
:100C100006782768C018E1088238A3287DCB5CDB02
:100C20003FEB1EFBF98BD89BBBAB9ABB754A545A62
:100C3000376A167AF10AD01AB32A923A2EFD0FEDCE
:100C40006CDD4DCDAABD8BADE89DC98D267C076CB2
:100C5000645C454CA23C832CE01CC10C1FEF3EFFA2
:100C60005DCF7CDF9BAFBABFD98FF89F176E367E02
:100C7000554E745E932EB23ED10EF01E0000210040
:100C8000240027002A002D0030003300010100005D
:100C9000040107010A0100002200250028002B00A2
:100CA0002E003100340002010000050108010B0193
:100CB0008C8011241FBECFEFD1E2DEBFCDBF00E09C
:100CC0000CBF12E0A0E0B2E0E6E8F7E001E00BBF05
:100CD00002C007900D92A038B107D9F723E1A0E830
:100CE000B2E001C01D92AD30B207E1F716E0C9E5F0
:100CF000D6E000E006C021970109802FFE010E9486
:100D00008083C835D10780E00807A9F70E941170D9
:100D10000C94B48375C94F925F926F927F928F92B9
:100D20009F92AF92BF92CF92DF92EF92FF920F937A
:100D30001F93CF93DF93CDB7DEB7CC5BD2400FB616
:100D4000F894DEBF0FBECDBF8091001190910111CC
:100D50008E3F08E0900709F430C208F446C086339D
:100D6000A9E09A0709F4E3C108F0A8C08831E9E0D6
:100D70009E0709F499C18E32994009F06CC28091A6
:100D8000EA0A9091EB0A892BB9F482E090E0909303
:100D9000EB0A8093EA0A1092D9041092D804809149
:100DA00006118F5F09F481E08093061186E399E0D4
:100DB000909301118093001181E0C454DD4F0FB670
:100DC000F894DEBF0FBECDBFDF91CF911F910F9181
:100DD000FF90EF90DF90CF90BF90AF909F908F905B
:100DE0007F906F905F904F9008958C3B28E0920722
:100DF00009F4DCC008F4D1C0883C48E0940709F449
:100E0000FCC08C3E984009F026C2E091371040911A
:100E10003610E41709F4E1C381E08E0F8093371098
:100E2000F0E0EA5CF04F808180930C112091081172
:100E3000309109112827022E2295207F2025032E8C
:100E4000322F22952F700226269532272327220F34
:100E5000220F220F20253093091120930811209191
:100E60000A1130910B1190E001972817390708F407
:100E700066C2782F80930D11281B310930930B1116
:100E800020930A11772309F45CC2672F713108F0AF
:100E900060E160930E118EEF98E0909301118093C2
:100EA000001180913710942F981B961708F48FC269
:100EB00070910D11761B70930D1192C1803409E071
:100EC000900709F4BAC08634994009F0C4C18091F2
:100ED0000A1190910B113091371020913610231B7D
:100EE000582F8D5F281708F442C280910811909105
:100EF0000911552309F4A1C4652F630F232FE22F95
:100F0000F0E0EA5CF04F40818427082E8295807FD4
:100F10008025092E982F82958F7008268695982710
:100F20008927880F880F880F80252F5F2613E7CF2A
:100F30009093091180930811E1E0E30FE50FF0E0D1
:100F4000EA5CF04F20813E5F350FE32FF0E0EA5C72
:100F5000F04F4081E62FF0E0EA5CF04F3081333013
:100F600009F425C4343009F4EAC3323009F4E8C383
:100F700030E0342B2817390709F4E4C360910611D7
:100F800085E00E94196F109237101092361010925F
:100F900001111092001181E010CF892B09F05BC183
:100FA0008CEB98E09093011180930011E091371041
:100FB000809136108E1709F4FFCE81E08E0F80935A
:100FC0003710F0E0EA5CF04F808181112DC00E9463
:100FD0000E6060930211709303118093041190933B
:100FE00005118FEF9FEF909309118093081188EC02
:100FF00098E0909301118093001140913610842F56
:10100000E0913710942F9E1B923008F42CC191E090
:101010009E0F90933710AE2FB0E0AA5CB04F2C918A
:101020002093350321113BC31092371010923610D4
:101030001092011110920011BFCE80913610E091F4
:101040003710E81709F4FDC131E03E0FF0E0282F1A
:10105000231B30933710EA5CF04F808140910811D8
:10106000509109114827042E4295407F4025052EB6
:10107000542F42954F700426469554274527440F18
:10108000440F440F4025509309114093081190E0FC
:10109000019790930B1180930A1146E459E0509305
:1010A0000111409300111CCF40913610E091371090
:1010B000842F8E1B833008F460C2AE2FB0E0AA5C90
:1010C000B04F9C91A1E0AE0FB0E0AA5CB04F8C9104
:1010D00023E02E0F20933710EE5FF0E0EA5CF04F34
:1010E00030816091081170910911933009F437C172
:1010F000943009F44AC3923009F448C390E0932B2A
:101100006817790709F444C36091061185E00E94CD
:10111000196F10923710109236101092DB06109251
:10112000DA06109201111092001181E046CE8091F2
:10113000EA0A9091EB0A029709F43ECE8FEF9FEFF7
:101140009093C3048093C2048091BC049091BD0429
:10115000282F291B2F3F09F404C1E1E0E80FA82F35
:10116000B0E0A654BC4F12961C922E2F291B2F3F85
:1011700009F4F7C0F0E0E654FC4F26E0228322E0B9
:10118000280F422F50E05093C5044093C404291BFC
:101190002F3F09F4E6C08D5F8093BC04FA01E6544A
:1011A000FC4F21E02283891B8F3F09F4DAC0809134
:1011B000C0048F5F8093C0043BCF60910E1180917B
:1011C000371040913610942F981B961708F4FFC0E3
:1011D00070910D11761B70930D11662309F452CE98
:1011E0000091DA061091DB06209108113091091167
:1011F000D801A652BB4F562F580FE82FF0E0EA5CFB
:10120000F04F90819D932927022E2295207F202543
:10121000032E322F22952F70022626953227232760
:10122000220F220F220F20258F5F8513E6CF809398
:101230003710909335030F5F1F4F6150060F111D3C
:101240001093DB060093DA063093091120930811FE
:1012500010920E1117CE8FEF9FEF90930111809394
:10126000001180E0AACD0E940E6000910211109141
:1012700003112091041130910511DC01CB01801B79
:10128000910BA20BB30B8B3F9105A105B10508F49F
:1012900093CD809106112FEF3FEF3093C30420933D
:1012A000C2049091BC042091BD04392F321B3F3FF2
:1012B00041F1E1E0E90FE093BC04A92FB0E0A654AE
:1012C000BC4F12961C923E2F321B3F3FD1F032E0B2
:1012D000390F3093BC04F0E0E654FC4F48E0428301
:1012E000432F50E05093C5044093C404321B3F3F4A
:1012F00041F09D5F9093BC04FA01E654FC4F91E0ED
:1013000092830E948B6C8091BC049091BD04891BD8
:101310008F3F09F456C28091C2049091C3048F3F5D
:101320002FEF920731F09927FC01E654FC4F8FEF25
:1013300082838091C0048F5F8093C00475CEC90101
:1013400098CD80910A1190910B11009709F03FC23E
:1013500088E199E09093011180930011A7CE8E7FD0
:10136000CDCE8091C40482508093BC0461CE0E9493
:101370000E6000910211109103112091041130911F
:101380000511DC01CB01801B910BA20BB30B8B3F32
:101390009105A105B10508F40FCD1091061188E063
:1013A0000E94976D812F0E948B6C8091BC0490915C
:1013B000BD04891B8F3F09F404C28091C20490913F
:1013C000C3048F3FFFEF9F0709F0ADCFB2CF0E945C
:1013D0000E600091021110910311209104113091BF
:1013E0000511DC01CB01801B910BA20BB30B8B3FD2
:1013F0009105A105B10508F4DFCC1091061188E034
:101400000E94976D812F0E948B6C8091BC049091FB
:10141000BD04891B8F3F09F4CEC18091C204909115
:10142000C3048F3F4FEF940731F09927FC01E65436
:10143000FC4F8FEF82838091C0048F5F8093C00444
:1014400068CE0E940E60009102111091031120914C
:10145000041130910511DC01CB01801B910BA20B13
:10146000B30B8B3F9105A105B10508F4A5CC3091D4
:1014700006114FEF5FEF8091BC042091BD04982FBF
:10148000921B9F3F11F40C947118E1E0E80FE09378
:10149000BC04A82FB0E0A654BC4F12961C929E2FFD
:1014A000921B9F3F11F40C948C1892E0980F90932C
:1014B000BC04F0E0E654FC4F68E06283692F70E002
:1014C0007093C5046093C404E92FE21BEF3F11F44D
:1014D0000C943F1A93E0980F9093BC04FB01E654E0
:1014E000FC4FDD24D394D282A92FB0E0B093C30483
:1014F000A093C204921B9F3F11F40C949C188C5F24
:101500008093BC048D0106541C4F7801D8011296BB
:10151000DC92182F121B92819F5F9283332309F470
:101520008EC1D70112969C9112979F5F12969C9341
:101530001F3F11F40C94A91891E0980F9093BC04EC
:10154000482F50E046545C4FDA0112963C9382815A
:101550008F5F8283921B9F3F09F478C18FEFF70161
:1015600082838091C0048F5F8093C00410923610F4
:101570002FEFE0E0F0E031E06CCD0E940E600091D2
:101580000211109103112091041130910511DC0119
:10159000CB01801B910BA20BB30B8B3F9105A105D7
:1015A000B10508F409CC1091061188E00E94976DEE
:1015B000812F0E948B6C8091BC049091BD04891B8B
:1015C0008F3F09F4F8C08091C2049091C3048F3F0B
:1015D0005FEF950709F029CF2ECF0E940E60009192
:1015E0000211109103112091041130910511DC01B9
:1015F000CB01801B910BA20BB30B8B3F9105A10577
:10160000B10508F4D9CB809106112FEF3FEF30934D
:10161000C3042093C2049091BC042091BD04392FCF
:10162000321B3F3F41F1E1E0E90FE093BC04A92FF9
:10163000B0E0A654BC4F12961C923E2F321B3F3F87
:10164000D1F032E0390F3093BC04F0E0E654FC4FA7
:1016500048E04283432F50E05093C5044093C404B4
:10166000321B3F3F41F09D5F9093BC04FA01E6546A
:10167000FC4F91E092830E948B6C8091BC0490910E
:10168000BD04891B8F3F09F496C08091C2049091DC
:10169000C3048F3F3FEF930709F0C7CECCCE6091D4
:1016A0000811709109116227062E6295607F6025EE
:1016B000072E762F62956F70062666957627672728
:1016C000660F660F660F602570930911609308110D
:1016D000EE5FE0933710A92FB0E0AA5CB04F9C9169
:1016E00090930711992309F49FCC6927062E6295E0
:1016F000607F6025072E762F62956F7006266695AF
:1017000076276727660F660F660F602570930911AD
:101710006093081197FF02C00C9494186091061111
:10172000261347C080E092E090930B1180930A113A
:101730008CEE98E090930111809300116ACB2E7F7C
:101740004E7F16CC20910711233809F45EC06091BA
:1017500006118091350368132CC06F5F11F40C944F
:101760006C18609306115093381010923910822F24
:1017700090E0FC01E058F109E234F10508F46AC098
:10178000622F81E00E94196F4FCC8E7F3E7FB6CCD6
:10179000241731F060E172E08AE299E00E946D4D19
:1017A0008EE299E09093011180930011E8CA2E7F98
:1017B000DFCB87E0E6CB8091C40482508093BC04E9
:1017C000A8CC8091C40482508093BC042DCC20917D
:1017D0000C112F3FB9F02091DA063091DB06B901E8
:1017E0006F5F7F4F7093DB066093DA06F901E45375
:1017F000FB4F1686019790930B1180930A11892B4A
:1018000009F4A6CDE091371093CF81E080930611C3
:1018100050933810109239100E94D86E8091361073
:1018200090913710891B833008F0FECB60E172E0A5
:101830008AEB9AE00E946D4DF7CB632F7DCB5093DE
:10184000C3044093C2041F3F09F08BCE62506093E3
:10185000BC048CCE8827EE58FF4F8F4F0C948083AA
:101860000E94C0820E94DB6F0E94D86ED7CF0E9478
:10187000DB6F182F0E94DB6F282F30E0322F2227DA
:10188000C901810F911D90930102809300020E9473
:10189000DB6F843611F00C94071B0FE011E10E94FE
:1018A000C082F801819391938F01F1E1073D1F07F9
:1018B000B1F761E084EA0E94196FB0CF81EA0E941B
:1018C000976D80910C120E948B6C8091B603909161
:1018D000B703CB55DD4F8883C55AD240CA55DD4F7B
:1018E0009883C65AD2400E948B6CCA55DD4F8881BE
:1018F000C65AD2400E948B6C8091B4039091B5037C
:10190000C955DD4F8883C75AD240C855DD4F9883EB
:10191000C85AD2400E948B6CC855DD4F8881C85A86
:10192000D2400E948B6C8091E0069091E106A091DC
:10193000E206B091E3064091E40A5091E50A609115
:10194000E60A7091E70A841B950BA60BB70BC558E6
:10195000DD4F88839983AA83BB83CB57D2400E94F3
:101960008B6CC458DD4F8881CC57D2400E948B6C61
:10197000C358DD4F8881CD57D2400E948B6CC2582E
:10198000DD4F8881CE57D2400E948B6C8091E0065B
:101990003091E1062091E2069091E306C158DD4FB7
:1019A0008883CF57D240C058DD4F3883C058D240CB
:1019B000CF57DD4F2883C158D240CE57DD4F988393
:1019C000C258D2400E948B6CC058DD4F8881C058ED
:1019D000D2400E948B6CCF57DD4F8881C158D240D6
:1019E0000E948B6CCE57DD4F8881C258D2400E9436
:1019F0008B6C8091A5129091A6122091A712309124
:101A0000A812821B930BC755DD4F99838883C95A4F
:101A1000D2400E948B6CC655DD4F8881CA5AD24095
:101A20000E948B6C80912F0F9091300F891B90E05A
:101A3000C555DD4F99838883CB5AD2400E948B6C69
:101A4000C455DD4F8881CC5AD2400E948B6C809166
:101A5000101290911112C355DD4F8883CD5AD24098
:101A6000C255DD4F9883CE5AD2400E948B6CC2552E
:101A7000DD4F8881CE5AD2400E948B6C8091071333
:101A800090910813C155DD4F8883CF5AD240C0557D
:101A9000DD4F9883C05BD2400E948B6CC055DD4FF8
:101AA0008881C05BD2400E948B6C8091051390911D
:101AB0000613CF54DD4F8883C15BD240CE54DD4F37
:101AC0009883C25BD2400E948B6CCE54DD4F8881DC
:101AD000C25BD2400E948B6C9091CC108091CD1053
:101AE000811101C0892F0E948B6C80E290E0CD545F
:101AF000DD4F99838883C35BD2400E948B6CCC54AA
:101B0000DD4F8881C45BD2400E948B6C80E094E002
:101B1000CB54DD4F99838883C55BD24080E00E941F
:101B20008B6CCA54DD4F8881C65BD2400E948B6C9F
:101B3000809131033091320320913303909134032B
:101B4000CD57DD4F8883C358D240CC57DD4F388303
:101B5000C458D240CB57DD4F2883C558D240CA570E
:101B6000DD4F9883C658D2400E948B6CCC57DD4F16
:101B70008881C458D2400E948B6CCB57DD4F88813E
:101B8000C558D2400E948B6CCA57DD4F8881C65819
:101B9000D2400E948B6C8091061290910712C9541A
:101BA000DD4F8883C75BD240C854DD4F9883C85B44
:101BB000D2400E948B6CC854DD4F8881C85BD240F4
:101BC0000E948B6C8091081290910912C754DD4FCE
:101BD0008883C95BD240C654DD4F9883CA5BD2402C
:101BE0000E948B6CC654DD4F8881CA5BD2400E9434
:101BF0008B6C80910A1290910B12C554DD4F888333
:101C0000CB5BD240C454DD4F9883CC5BD2400E9462
:101C10008B6CC454DD4F8881CC5BD2400E948B6CAE
:101C20008091BC049091BD04891B8F3F11F40C94EA
:101C3000381A8091C2049091C3048F3F4FEF9407EC
:101C400031F09927FC01E654FC4F8FEF828380919D
:101C5000C0048F5F8093C004E1CD8FE90E94976D2F
:101C6000809125033091260320912703909128032A
:101C7000CF5FDD4F8883C150D240CE5FDD4F3883C8
:101C8000C250D240CD5FDD4F2883C350D240CC5FDD
:101C9000DD4F9883C450D2400E948B6CCE5FDD4FE5
:101CA0008881C250D2400E948B6CCD5FDD4F88810D
:101CB000C350D2400E948B6CCC5FDD4F8881C450F2
:101CC000D2400E948B6C8091290330912A0320918D
:101CD0002B0390912C03CF5BDD4F8883C154D240FE
:101CE000CE5BDD4F3883C254D240CD5BDD4F2883BD
:101CF000C354D240CC5BDD4F9883C454D2400E9481
:101D00008B6CCE5BDD4F8881C254D2400E948B6CBD
:101D1000CD5BDD4F8881C354D2400E948B6CCC5B7D
:101D2000DD4F8881C454D2400E948B6C80912D037A
:101D300030912E0320912F0390913003CA5BDD4F29
:101D40008883C654D240C95BDD4F3883C754D24024
:101D5000C85BDD4F2883C854D240C75BDD4F9883F2
:101D6000C954D2400E948B6CC95BDD4F8881C75437
:101D7000D2400E948B6CC85BDD4F8881C854D24032
:101D80000E948B6CC75BDD4F8881C954D2400E9492
:101D90008B6C809131033091320320913303909109
:101DA0003403C55BDD4F8883CB54D240C45BDD4F29
:101DB0003883CC54D240C35BDD4F2883CD54D2400E
:101DC000C25BDD4F9883CE54D2400E948B6CC45BC3
:101DD000DD4F8881CC54D2400E948B6CC35BDD4FB9
:101DE0008881CD54D2400E948B6CC25BDD4F8881CC
:101DF000CE54D2400E948B6C13CF8EE90E94976D17
:101E00008091071390910813C156DD4F8883CF59F5
:101E1000D240C056DD4F9883C05AD2400E948B6C8E
:101E2000C056DD4F8881C05AD2400E948B6C809191
:101E3000051390910613CF55DD4F8883C15AD240C8
:101E4000CE55DD4F9883C25AD2400E948B6CCE553E
:101E5000DD4F8881C25AD2400E948B6CCD55DD4F38
:101E600019821882C35AD24080E00E948B6CCC55F4
:101E7000DD4F8881C45AD2400E948B6C8091BC0493
:101E80009091BD04891B8F3F11F40C94381A8091F6
:101E9000C2049091C3048F3F5FEF950709F0D1CE44
:101EA000D6CE8DE90E94976D8091B6039091B703CD
:101EB000C756DD4F8883C959D240C656DD4F988337
:101EC000CA59D2400E948B6CC656DD4F8881CA59D0
:101ED000D2400E948B6C8091B4039091B503C5569B
:101EE000DD4F8883CB59D240C456DD4F9883CC59FF
:101EF000D2400E948B6CC456DD4F8881CC59D240B1
:101F00000E948B6CC356DD4F19821882CD59D24086
:101F100080E00E948B6CC256DD4F8881CE59D24042
:101F20000E948B6C8091BC049091BD04891B8F3FF3
:101F300011F40C94381A8091C2049091C3048F3F1D
:101F4000AFEF9A0709F07DCE82CE0E941B5B109204
:101F5000D7116FE770E08DE00E949F5D10920D1227
:101F600010920C120E94D86E59CC88E90E94976D8D
:101F7000E0918702F09188029081809186029823F7
:101F800081E009F080E00E948B6C80912503309104
:101F900026032091270390912803C05BDD4F88839F
:101FA000C055D240CF5ADD4F3883C155D240CE5AAA
:101FB000DD4F2883C255D240CD5ADD4F9883C3559B
:101FC000D2400E948B6CCF5ADD4F8881C155D240E0
:101FD0000E948B6CCE5ADD4F8881C255D2400E9440
:101FE0008B6CCD5ADD4F8881C355D2400E948B6CDB
:101FF000E0918402F0918502908180918302982380
:1020000081E009F080E00E948B6C8091290330917F
:102010002A0320912B0390912C03CB5ADD4F888308
:10202000C555D240CA5ADD4F3883C655D240C95A29
:10203000DD4F2883C755D240C85ADD4F9883C85515
:10204000D2400E948B6CCA5ADD4F8881C655D2405F
:102050000E948B6CC95ADD4F8881C755D2400E94BF
:102060008B6CC85ADD4F8881C855D2400E948B6C5A
:10207000E0918102F0918202908180918002982308
:1020800081E009F080E00E948B6C80912D033091FB
:102090002E0320912F0390913003C65ADD4F888381
:1020A000CA55D240C55ADD4F3883CB55D240C45AA9
:1020B000DD4F2883CC55D240C35ADD4F9883CD5590
:1020C000D2400E948B6CC55ADD4F8881CB55D240DF
:1020D0000E948B6CC45ADD4F8881CC55D2400E943F
:1020E0008B6CC35ADD4F8881CD55D2400E948B6CDA
:1020F00080E00E948B6CC15ADD4F188219821A82CF
:102100001B82CF55D24080E00E948B6CC05ADD4FBD
:102110008881C056D2400E948B6CCF59DD4F888198
:10212000C156D2400E948B6CCE59DD4F8881C25679
:10213000D2400E948B6C8091BC049091BD04891B9D
:102140008F3F11F40C94381A8091C2049091C3040B
:102150008F3F3FEF930709F074CD79CD87E90E9457
:10216000976D8091D7110E948B6C8091BC049091E7
:10217000BD04891B8F3F11F40C94381A8091C2045E
:102180009091C3048F3F2FEF920709F05ACD5FCD96
:102190001092081310920713809105139091061363
:1021A000892B19F51092C0101092C1101092C21014
:1021B0001092C3108091B4039091B50391958195CD
:1021C0009109092E000CAA0BBB0B8093C4109093AD
:1021D000C510A093C610B093C7101092C8101092EB
:1021E000C9101092CA101092CB10109206131092C0
:1021F00005131092FF108091071390910813892BFB
:1022000019F51092C0101092C1101092C2101092C5
:10221000C3108091B4039091B50391958195910974
:10222000092E000CAA0BBB0B8093C4109093C51011
:10223000A093C610B093C7101092C8101092C91086
:102240001092CA101092CB1010920813109207131C
:1022500080916F008D7F80936F0080916F008B7FE6
:1022600080936F0081E090E090930D1280930C12A8
:1022700010920F1210920E1290938D1280938C1266
:1022800081E090E0A0E0B0E0809388129093891202
:10229000A0938A12B0938B12109292121092221273
:1022A000109221120E948D621092300F10922F0F07
:1022B00010921312109214121092151210921612FC
:1022C00060E070E089E00E949F5D0E94D86EA6CA1F
:1022D0000E94DB6F109213121092141210921512BA
:1022E00010921612682F70E089E00E949F5D0E9494
:1022F000D86E94CA0E9407836B017C0180910C12F6
:1023000090910D12019731F060E172E08EEB96E052
:102310000E946D4D81E090E0A0E0B0E08093FE115E
:102320009093FF11A0930012B0930112C092021279
:10233000D0920312E0920412F092051282E090E033
:1023400090930D1280930C120E94D86E67CA87E892
:102350000E94976DBE016F5F7F4F8CEC94E00E94EE
:10236000AC6E882349F08981807C11F40C94901B19
:10237000803411F40C94651B80E090E0DC0101973F
:10238000A109B109C157DD4F88839983AA83BB8313
:10239000CF58D2400E948B6CC057DD4F8881C05906
:1023A000D2400E948B6CCF56DD4F8881C159D240FC
:1023B0000E948B6CCE56DD4F8881C259D2400E945C
:1023C0008B6C8091BC049091BD04891B8F3F11F4EC
:1023D0000C94381A8091C2049091C3048F3F1FEF70
:1023E000910709F02ECC33CC0E94DB6F182F0E948E
:1023F000C08240E0BC01812F0E949D6E0E94D86E79
:102400000DCA0E94CE822B013C010E94CE824B015C
:102410005C010E94CE826B017C010E94CE820E94F0
:10242000CE8281E08093D7114092250350922603FB
:1024300060922703709228038092290390922A03C6
:10244000A0922B03B0922C03C0922D03D0922E03A6
:10245000E0922F03F092300307CA81EC0E94976D3F
:1024600081E00E948B6C65E08CE192E00E94E16C5F
:102470006AE082E292E00E94E16C00CD0E94DB6F94
:10248000082F10E00115110511F40C941C1B80910C
:102490000C1290910D12019731F060E172E08DE421
:1024A00096E00E946D4D83E090E090930D12809332
:1024B0000C1210930F1200930E128FEF90E0909376
:1024C00007128093061210920B1210920A121092A9
:1024D0000912109208128FE00E948382109211124A
:1024E000109210120130110511F40C944B1B80ED69
:1024F00097E0909389008093880080916F008260BC
:1025000080936F00B1C980910C1290910D120297C7
:1025100034F060E172E088EE95E00E946D4D10921B
:10252000DE1101E010E010938D1200938C1281E017
:1025300090E0A0E0B0E08093881290938912A0937D
:102540008A12B0938B121092921210922212109251
:1025500021120E948D621092300F10922F0F109353
:102560000D1200930C126FEF70E08DE00E949F5DE2
:1025700080E094E0A0E0B0E08093FA119093FB112A
:10258000A093FC11B093FD110E94D86E47C90E9420
:1025900007836093FA117093FB118093FC11909361
:1025A000FD1121E0611574408105910511F40C9431
:1025B000C01B2093F9110E94D86E30C90E94078376
:1025C0006093191270931A1280931B1290931C122D
:1025D0000E940E60DC01CB010A96A11DB11D809303
:1025E0001D1290931E12A0931F12B09320120E94EE
:1025F000D86E14C90E94CE828091EA0A9091EB0AAB
:10260000892B11F00C94CA1B60E172E086E598E01A
:102610000E946D4D8CEC94E00E94FA4E8111FACF2D
:102620008EEB0E94976D8091BC049091BD04891B34
:102630008F3F11F40C94C31B8091C2049091C3048A
:102640008F3F0FEF900731F09927FC01E654FC4FC4
:102650008FEF82838091C0048F5F8093C00404C990
:102660008DEB0E94976D03EF1AE0D8018C911196C3
:102670003C91119712962C91129713969C91CD59DB
:10268000DD4F8883C356D240CC59DD4F3883C456C2
:10269000D240CB59DD4F2883C556D240CA59DD4FB1
:1026A0009883C656D2400E948B6CCC59DD4F8881EE
:1026B000C456D2400E948B6CCB59DD4F8881C556E1
:1026C000D2400E948B6CCA59DD4F8881C656D240D9
:1026D0000E948B6CF8018481358126819781C959CC
:1026E000DD4F8883C756D240C859DD4F3883C8565E
:1026F000D240C759DD4F2883C956D240C659DD4F55
:102700009883CA56D2400E948B6CC859DD4F88818D
:10271000C856D2400E948B6CC759DD4F8881C9567C
:10272000D2400E948B6CC659DD4F8881CA56D24078
:102730000E948B6CD80118968C91189719963C9131
:1027400019971A962C911A971B969C91C559DD4F93
:102750008883CB56D240C459DD4F3883CC56D24003
:10276000C359DD4F2883CD56D240C259DD4F9883DF
:10277000CE56D2400E948B6CC459DD4F8881CC5616
:10278000D2400E948B6CC359DD4F8881CD56D24018
:102790000E948B6CC259DD4F8881CE56D2400E9478
:1027A0008B6C005F1F4FBBE003331B0709F05DCF4D
:1027B0008091BC049091BD04891B8F3F09F458C6D9
:1027C0008091C2049091C3048F3FEFEF9E0709F000
:1027D00038CA3DCA8CEB0E94976D09E812E0D80117
:1027E00014968C91149715963C91159716962C91EA
:1027F000169717969C91C159DD4F8883CF56D240CA
:10280000C059DD4F3883C057D240CF58DD4F2883A1
:10281000C157D240CE58DD4F9883C257D2400E9454
:102820008B6CC059DD4F8881C057D2400E948B6CA1
:10283000CF58DD4F8881C157D2400E948B6CCE5853
:10284000DD4F8881C257D2400E948B6CF801808591
:10285000318522859385CD58DD4F8883C357D2407B
:10286000CC58DD4F3883C457D240CB58DD4F288336
:10287000C557D240CA58DD4F9883C657D2400E94F0
:102880008B6CCC58DD4F8881C457D2400E948B6C32
:10289000CB58DD4F8881C557D2400E948B6CCA58F7
:1028A000DD4F8881C657D2400E948B6CD8011C96A0
:1028B0008C911C971D963C911D971E962C911E97EE
:1028C0001F969C91C958DD4F8883C757D240C8587E
:1028D000DD4F3883C857D240C758DD4F2883C957CA
:1028E000D240C658DD4F9883CA57D2400E948B6CA5
:1028F000C858DD4F8881C857D2400E948B6CC7589A
:10290000DD4F8881C957D2400E948B6CC658DD4F7D
:102910008881CA57D2400E948B6C005F1F4FB3E082
:1029200009311B0709F05BCF43CF81E08093181278
:102930000E94D86E0C940E0C0E9407832B013C0160
:102940000E9407836B017C010E9407834B015C019D
:102950000E94DB6F082F0E94DB6F182F0E94DB6F35
:102960004092EA115092EB116092EC117092ED11CD
:10297000C092EE11D092EF11E092F011F092F111AD
:102980008092F2119092F311A092F411B092F5118D
:102990000093F6111093F7118093F8110E94D86EEE
:1029A0000C940E0C0E94C0827C010E94C0828C019B
:1029B0000E94C082F092E511E092E4111093E711B9
:1029C0000093E6119093E9118093E8110E94D86E6C
:1029D0000C940E0C0E94DB6F863308F086539091A6
:1029E0007B00282F2870977F922B90937B00877015
:1029F000806480937C0080917A00806480937A0068
:102A000080917A0086FDFCCF1091780000917900CA
:102A100088EB0E94976D812F90E0902B092E000C7F
:102A2000AA0BBB0BC957DD4F88839983AA83BB834D
:102A3000C758D2400E948B6CC857DD4F8881C85858
:102A4000D2400E948B6CC757DD4F8881C958D24055
:102A50000E948B6CC657DD4F8881CA58D24069CB23
:102A60000E94DB6F182F0E94DB6F082F61E0812F1F
:102A70000E945E5D602F812F0E940E5C0E94D86EC6
:102A80000C940E0C0E94DB6F182F62E00E945E5DBA
:102A9000212F30E0F901EA5AFD4F8491F901E05FFE
:102AA000FD4F1491F901E653FE4F0491002309F400
:102AB00081C581110E94A65BE02FF0E0EE0FFF1FA1
:102AC000E055FE4FA591B491EC91E12391E080E0B7
:102AD00009F490E0092F182F86EB0E94976DC8012A
:102AE000110FAA0BBB0BC557DD4F88839983AA83AF
:102AF000BB83CB58D2400E948B6CC457DD4F88817A
:102B0000CC58D2400E948B6CC357DD4F8881CD5882
:102B1000D2400E948B6CC257DD4F8881CE58D24084
:102B200022CB81E0809392120E94D86E0C940E0CFE
:102B30000E94DB6F0E94DB6F182F682F70E08AE025
:102B40000E949F5D1093CD100E94D86E0C940E0CC5
:102B500080EB0E94976D10E1CD56DD4F19821882EF
:102B6000C359D24080E00E948B6CCC56DD4F8881E7
:102B7000C459D2400E948B6CCB56DD4F198218820B
:102B8000C559D24080E00E948B6CCA56DD4F8881C7
:102B9000C659D2400E948B6CC956DD4F19821882EB
:102BA000C759D24080E00E948B6CC856DD4F8881A7
:102BB000C859D2400E948B6C115071F631C88FEA0F
:102BC0000E94976D2091091330910A13CE012115AF
:102BD000310509F022C58C5093419A8389838981FC
:102BE0009A81092E000CAA0BBB0B89839A83AB83B5
:102BF000BC830E948B6C8A810E948B6C8B810E94AB
:102C00008B6C8C8196CA0E94DB6FF82E0E94DB6F62
:102C1000E82E0E94DB6F082F10E0102F00270E0D0A
:102C2000111D21E02F1530F460E172E086E896E096
:102C30000E946D4DC80117FD43C5813F910534F0D9
:102C400060E172E087E896E00E946D4DEF2DF0E0C4
:102C5000EE0FFF1FE952FE4E128301830E94D86ED1
:102C60000C940E0C0E94C0820E94DB6F0E94C082F6
:102C70000E94D86E0C940E0C0E94DB6F182F0E94DD
:102C8000C08221E030E03093320F2093310F109357
:102C9000350F9093340F8093330F812F0E948382DE
:102CA00010FD7AC49FB7F894E0912303F0912403B8
:102CB000208180912203822B80839FBF11FD5EC4FF
:102CC0009FB7F894E0912003F09121032081809137
:102CD0001F03822B80839FBF12FD86C49FB7F89489
:102CE000E0911D03F0911E03208180911C03822B33
:102CF00080839FBF13FD6AC49FB7F894E0911A03C5
:102D0000F0911B03208180911903822B80839FBF48
:102D100080916F00846080936F000E94D86E0C9445
:102D20000E0C0E94C082009709F447C42FB7F89494
:102D30009093340F8093330F2FBF0C94340C0E9468
:102D40000E606093FF0A7093000B8093010B9093C9
:102D5000020B8E010F5F1F4F780110E30E940E607F
:102D60006093EF0A7093F00A8093F10A9093F20A4D
:102D700020E030E0A90161E18CEC94E00E943F602A
:102D8000882309F4B9C21093CC048091CF0488231E
:102D900021F08CEC94E00E94415C8091D30481503E
:102DA0008093D304882309F4CCC30E940E608090E2
:102DB000EF0A9090F00AA090F10AB090F20ADC01BC
:102DC000CB0188199909AA09BB098090F30A909050
:102DD000F40AA090F50AB090F60AEFEF8E1A9E0A58
:102DE000AE0ABE0A8092F30A9092F40AA092F50A03
:102DF000B092F60A8090F70A9090F80AA090F90A2B
:102E0000B090FA0A880E991EAA1EBB1E8092F70A7D
:102E10009092F80AA092F90AB092FA0A8090FB0AFE
:102E20009090FC0AA090FD0AB090FE0A88169906C0
:102E3000AA06BB0608F092CF8093FB0A9093FC0A87
:102E4000A093FD0AB093FE0A89CFCE01865A9D4F0A
:102E50000E944183CE018B5A9D4F0E9441830E9464
:102E6000CE824B015C01CE01805B9D4F0E9441836D
:102E7000CE01855B9D4F0E944183CE018A5B9D4FB1
:102E80000E9441830E94CE826B017C01CE018F5B48
:102E90009D4F0E944183CE018F5F9D4F0E944183D1
:102EA000CE0101960E9441830E94C08225E0FE016E
:102EB000E65AFD4FAFECB0E101900D922A95E1F793
:102EC00025E0FE01EB5AFD4FA4EDB0E101900D921B
:102ED0002A95E1F78092D9109092DA10A092DB1037
:102EE000B092DC1025E0FE01E05BFD4FADEDB0E1FE
:102EF00001900D922A95E1F725E0FE01E55BFD4F7B
:102F0000A2EEB0E101900D922A95E1F725E0FE01D5
:102F1000EA5BFD4FA7EEB0E101900D922A95E1F733
:102F2000C092EC10D092ED10E092EE10F092EF1003
:102F300025E0FE01EF5BFD4FA0EFB0E101900D92A7
:102F40002A95E1F725E0FE01EF5FFD4FA5EFB0E127
:102F500001900D922A95E1F725E0FE013196AAEF46
:102F6000B0E101900D922A95E1F79093DD118093E5
:102F7000DC110E94D86E0C940E0C0E94DB6FD82ED0
:102F800010923503882309F415C40E94DB6F8E016B
:102F90000F5F1D4FD8018D935D0181E08093350354
:102FA000EE24E394ED0C82E0F82E0CC00E94DB6F5F
:102FB000D5018D935D01F0923503F394B1E4FB16D6
:102FC00009F4CEC2FE10F2CFCE0101967C0180E45E
:102FD000D7011D928A95E9F74D2D50E0B801C70140
:102FE0000E94A5830E940E6060931F0B7093200BBC
:102FF0008093210B9093220BEEEF5E2ECC24CA948B
:1030000066246394712CA7E5DA2E0E940E6060930B
:103010000F0B7093100B8093110B9093120B8091F8
:10302000B8039091B903892B09F098C08CEC94E017
:103030000E946B5C882309F425C20E940E60809078
:103040000F0B9090100BA090110BB090120BDC01A5
:10305000CB0188199909AA09BB094091130B50911A
:10306000140B6091150B7091160B4F5F5F4F6F4FF4
:103070007F4F4093130B5093140B6093150B709379
:10308000160B4091170B5091180B6091190B709112
:103090001A0B480F591F6A1F7B1F4093170B509341
:1030A000180B6093190B70931A0B80901B0B909068
:1030B0001C0BA0901D0BB0901E0B88169906AA063B
:1030C000BB0608F0A2CF80931B0B90931C0BA09320
:1030D0001D0BB0931E0B99CF81E0809306110C94C9
:1030E000B30BA82FB0E06091C4047091C504B093F5
:1030F000C304A093C204FB01FF27E654FC4F928156
:103100009F5F9283332309F44DC31FEFAD014654F3
:103110005C4F7A010C94910AAE2FB0E06091C40428
:103120007091C5048E2FE3CF20E439E03093011174
:10313000209300110C94210882E08283332309F448
:103140003DC3A654BC4F12968C9112978F5F129676
:103150008C9382818F5F82830C94260C8CEC94E09C
:103160000E946B5C811169CF20E030E0A9016DE025
:103170008CEC94E00E943F60811108C08FEF8EBDFF
:103180000DB407FEFDCF8EB5882331F04091D004F9
:1031900069E28CE00E94CF4B8091CF04882321F01C
:1031A0008CEC94E00E94415C1092B9031092B80339
:1031B00085E08093D4040E940E6000910F0B109163
:1031C000100B2091110B3091120BDC01CB01801BF5
:1031D000910BA20BB30B0091130B1091140B2091C8
:1031E000150B3091160B0F5F1F4F2F4F3F4F009362
:1031F000130B1093140B2093150B3093160B0091A7
:10320000170B1091180B2091190B30911A0B080F06
:10321000191F2A1F3B1F0093170B1093180B2093A5
:10322000190B30931A0B00911B0B10911C0B209162
:103230001D0B30911E0B081719072A073B0740F496
:1032400080931B0B90931C0BA0931D0BB0931E0B34
:103250000E940E6000911F0B1091200B2091210BFA
:103260003091220BDC01CB01801B910BA20BB30B25
:103270000091230B1091240B2091250B3091260BEC
:103280000F5F1F4F2F4F3F4F0093230B1093240BC3
:103290002093250B3093260B0091270B1091280BC0
:1032A0002091290B30912A0B080F191F2A1F3B1F51
:1032B0000093270B1093280B2093290B30932A0B94
:1032C00000912B0B10912C0B20912D0B30912E0B7C
:1032D000081719072A073B0740F480932B0B90939C
:1032E0002C0BA0932D0BB0932E0B8AEA0E94976DA6
:1032F00081E00E948B6C5CCA40E052E0B7018CEC2C
:1033000094E00E94BD60882309F43FCD8091CF04F2
:10331000811178C185E08093D3040E940E600091F2
:10332000EF0A1091F00A2091F10A3091F20ADC01C3
:10333000CB01801B910BA20BB30B0091F30A1091F0
:10334000F40A2091F50A3091F60A0F5F1F4F2F4FB4
:103350003F4F0093F30A1093F40A2093F50A309339
:10336000F60A0091F70A1091F80A2091F90A3091B3
:10337000FA0A080F191F2A1F3B1F0093F70A109320
:10338000F80A2093F90A3093FA0A0091FB0A109187
:10339000FC0A2091FD0A3091FE0A081719072A0736
:1033A0003B0740F48093FB0A9093FC0AA093FD0A2C
:1033B000B093FE0A0E940E600091FF0A1091000B6C
:1033C0002091010B3091020BDC01CB01801B910B92
:1033D000A20BB30B0091030B1091040B2091050B72
:1033E0003091060B0F5F1F4F2F4F3F4F0093030B82
:1033F0001093040B2093050B3093060B0091070BE1
:103400001091080B2091090B30910A0B080F191F1E
:103410002A1F3B1F0093070B1093080B2093090BE7
:1034200030930A0B00910B0B10910C0B20910D0B9C
:1034300030910E0B081719072A073B0740F48093B9
:103440000B0B90930C0BA0930D0BB0930E0B8BEA10
:103450000E94976D81E00E948B6C6FE370E0C70162
:103460000E94B683682FC7010E94E16C0C94E111A1
:103470008091C40482508093BC040C940E0CDB0138
:10348000892F35CE20E030E0A90168E18CEC94E092
:103490000E943F6081115DC0D70180E090E02D91D6
:1034A000E92FFF27E227EE0FFF1FE458F54F259184
:1034B0003491982F882782279327A017B10779F78F
:1034C0005EBC0DB407FEFDCF29812EBD2A81FE0111
:1034D00033960DB407FEFDCF2EBD0E171F0711F05A
:1034E0002191F7CF0DB407FEFDCF9EBD0DB407FEB1
:1034F000FDCF8EBD0DB407FEFDCFCEBC0DB407FED3
:10350000FDCF8EB58093D0048F71853009F48BC0C8
:10351000D092CC048091CF04882321F08CEC94E0ED
:103520000E94415C8091D40481508093D404811125
:1035300084CD4091D0046091CC048CE00E94CF4BAC
:103540007CCD4091D0046091CC0489E00E94CF4BA7
:103550002CCC4091D00462E38CE00E94CF4B9CCFF6
:10356000FE0131967F0180E4DF011D928A95E9F723
:10357000BFE3BD1508F030CD40E42FCD2FB7F89450
:10358000E0912003F0912103808190911F03909599
:10359000892380832FBFA0CB2FB7F894E09123031A
:1035A000F091240380819091220390958923808358
:1035B0002FBF84CB00E010E08FCA0E941B5B80917C
:1035C0006F008B7F80936F000C94340C2FB7F894AE
:1035D000E0911A03F0911B0380819091190390955B
:1035E000892380832FBF94CB2FB7F894E0911D03DC
:1035F000F0911E03808190911C0390958923808314
:103600002FBF78CB8CEC94E00E94415C83CE62E0CB
:1036100084EA0E94196F0C940E0C0196821B930B86
:103620009A838983DCCA8CEC94E00E94525C70928D
:10363000B9036092B80301CD60E172E08CE496E0DA
:103640000E946D4D80910C1290910D12019711F016
:103650000C944D1283E090E090930D1280930C1225
:1036600010920F1210920E128FEF90E090930712AB
:103670008093061210920B1210920A1210920912E5
:10368000109208128FE00E94838210921112109201
:1036900010120C9477121092320F1092310F80EDAD
:1036A00097E090938B0080938A0090938900809399
:1036B000880080916F00846080936F000C94340CBC
:1036C00088279927801B910BB8CA8A8590E0A0E0D3
:1036D000B0E0AC01BD014F5F5F4F6F4F7F4F8985F9
:1036E00090E0A0E0B0E0BA2FA92F982F8827840F90
:1036F000951FA61FB71F48854F7350E060E070E02C
:10370000BA0155274427840F951FA61FB71F2AE02B
:10371000880F991FAA1FBB1F2A95D1F70C94BF11C0
:103720008F81837090E09C01322F2227330F330F5B
:10373000888504E0809FC0011124822B932B29856A
:103740002295269526952370822B0196A0E0B0E065
:103750004A854370440F2B8527FB222720F9422BF3
:103760002E812F7030E0240F311D2750310904C005
:10377000880F991FAA1FBB1F2A95D2F70C94BF115F
:1037800020E00C94D9128091C40482508093BC0430
:103790000C94340C60E172E085E598E00E946D4D78
:1037A0000C9404138FEF9FEF9093C3048093C20493
:1037B0000C94260C8E010F5F1D4F06CC5093C30452
:1037C0004093C2040C94260CCF92DF92EF92FF92AA
:1037D0000F931F93CF93DF93809121129091221228
:1037E0008A3A23E0920711F40C94552E08F44DC147
:1037F0008839F4E09F0711F40C94572408F06AC349
:103800008130A4E09A0711F40C94593308F07FC773
:10381000823DE3E09E0709F453C010F40C949B3101
:103820008B3EB3E09B0711F40C94992A883FE3E0A8
:103830009E0711F40C94C92A8F3D934011F00C940B
:10384000772A8091901290919112009709F410C1FB
:1038500001979093911280939012E0912F0F81E045
:103860008E0F80932F0FF0E0EE0FFF1FEE0FFF1F64
:10387000E15DF44F80919D1290919E12A0919F1254
:10388000B091A01280839183A283B383809132127E
:103890009091331201979093331280933212892BB7
:1038A00011F40C94802A1092A2121092A11281E0BD
:1038B0008093A91282ED93E09093221280932112BB
:1038C0000E94C0698111BAC380919C12E091B0122C
:1038D000F091B112882311F40C945337A0812091F8
:1038E0009312309194124091951250919612B0E03B
:1038F0000E948883DC01CB012AE0B695A7959795B5
:1039000087952A95D1F79093A01280939F1290915A
:103910002D1290939E1280912C12882311F40C94F6
:10392000E434409148125091491260914A127091CA
:103930004B1277FF02C00C94833E009170121091DD
:1039400071122091721230917312400F511F621F39
:10395000731F409348125093491260934A12709318
:103960004B12916090939E12813011F00C94E434CC
:103970004091501250915112609152127091531215
:1039800077FF02C00C94603C00917812109179127C
:1039900020917A1230917B12400F511F621F731FCA
:1039A00040935012509351126093521270935312DD
:1039B00090919E12946090939E12833039F14091C1
:1039C000541250915512609156127091571277FF10
:1039D00002C00C94763C00917C1210917D122091D3
:1039E0007E1230917F12400F511F621F731F409350
:1039F000541250935512609356127093571290912F
:103A00009E12986090939E12843029F180915812F2
:103A100090915912A0915A12B0915B12B7FF02C057
:103A20000C94F13D4091801250918112609182126C
:103A300070918312840F951FA61FB71F8093581291
:103A400090935912A0935A12B0935B1280919E12D8
:103A5000806180939E128FED93E090932212809369
:103A600021128091901290919112009709F0F0CE5E
:103A700080912F0F9091300F891B809590E090934B
:103A800091128093901281E0DAC2843AB2E09B07EF
:103A900009F481C008F0DCC28138F2E09F0711F41C
:103AA0000C94403310F40C943C278D38A2E09A0714
:103AB00011F40C94273310F40C94FC31853922E076
:103AC000920759F18939A2E09A0709F441C0813976
:103AD000924011F00C94772A0E94C0698111AEC205
:103AE000E091B012F091B11280819181A281B381F5
:103AF0008093441290934512A0934612B0934712BC
:103B00001092A2121092A11282E08093A91285E96C
:103B100092E090932212809321120E94C069811139
:103B20008DC2E091B012F091B11280819181909399
:103B30002912809328121092A2121092A11282E0F0
:103B40008093A91289E992E0909322128093211226
:103B50000E94C069811172C2E091B012F091B1125D
:103B60008081918190932B1280932A1210929C1243
:103B7000809123129091241290FFB2C01092A21251
:103B80001092A11284E08093A91284EA92E09093AB
:103B90002212809321120E94C06981114FC2E091CC
:103BA000B012F091B11280819181A281B381809392
:103BB000971290939812A0939912B0939A12109220
:103BC000A2121092A11281E08093A91288EA92E0D9
:103BD00090932212809321120E94C06981112EC2FB
:103BE000E091B012F091B112C081C0939B1260912C
:103BF0009712709198128091991290919A12611572
:103C000071058105910511F40C9460342091B40381
:103C10003091B503A901559547955595479555950B
:103C20004795559547952091000230910102FA0180
:103C3000E21BF30B9F01F7FF02C00C94A33DE43697
:103C4000F10514F40C94AF3B2091D5113091D611AD
:103C500040E050E00E944F83DC01CB0104C0B695E8
:103C6000A79597958795CA95D2F78130F0E19F0780
:103C7000A105B10520F080E090E1A0E0B0E08093E4
:103C8000931290939412A0939512B0939612813050
:103C90009440A105B10510F40C94FD3A81E08093A5
:103CA0009C1280910812909109128E3FAFEF9A07F3
:103CB00011F40C945D3F01969093091280930812C1
:103CC0008091931290919412A0919512B0919612B6
:103CD0008F3F9105A105B10509F010F40C94303B1C
:103CE0001092A2121092A11282E08093A9128EEF7C
:103CF00092E090932212809321120E94C069811158
:103D00009DC180919C12E091B012F091B112882374
:103D100011F40C948A33A081B181209193123091D7
:103D2000941240919512509196120E948883DC0162
:103D3000CB01CAE0B695A79597958795CA95D1F717
:103D400090932F1280932E121092A2121092A11211
:103D500082E08093A91288E093E0909322128093EE
:103D600021120E94C069811169C1E091B012F091E5
:103D7000B11280819181909333128093321210920C
:103D8000A2121092A11282E08093A9128CE093E01B
:103D90009093221280932112A091A712B091A812A1
:103DA0006091A5127091A6126A1B7B0B7093AF12E3
:103DB0006093AE125091A912852F90E06817790791
:103DC00010F00C94E33A6115710511F40C94C033B2
:103DD000C091A312D091A41220E030E040E080E036
:103DE00090E051502C0F3D1FF901EA0FFB1F20817D
:103DF000FC01EF55FD4E2187852F841B8093A9126E
:103E00004F5F842F90E09C018617970758F386EA4E
:103E100091E09093A2128093A1128091EC0A8823E2
:103E200009F40CC18091ED0A9091EE0A845E9640EF
:103E300011F40C94773F84EE96E09093EE0A809311
:103E4000ED0ADC018091E80A9091E90A4091E40AC8
:103E50005091E50A6091E60A7091E70A480F591FF0
:103E6000611D711D4093E40A5093E50A6093E60AD0
:103E70007093E70A1092EC0A9093A6128093A51211
:103E8000B093A412A093A3129091A9129923A1F028
:103E90002091AE123091AF12F901E655FD4E265F2A
:103EA0003F4F8FEF890F280F311D2F553D4E8D91BC
:103EB0008193E217F307D9F72AEA32E13093B1127E
:103EC0002093B012892F90E09093A8128093A712AC
:103ED000F901F3C08D3DB4E09B0711F40C948031DF
:103EE00008F07AC5853BF4E09F0709F463C010F43D
:103EF0000C94A531853CE4E09E07E1F0813DF4E0BF
:103F00009F0711F40C944C31823C944011F00C94B6
:103F1000772A0E94C069811191C0E091B012F0919E
:103F2000B112808180939E1285EC94E090932212CE
:103F3000809321128091901290919112009711F428
:103F40000C947C3601979093911280939012E0919B
:103F50002F0F81E08E0F80932F0FF0E0EE0FFF1FE9
:103F6000EE0FFF1FE15DF44F80919D1290919E1224
:103F7000A0919F12B091A01280839183A283B383FA
:103F800080918C1290918D12019790938D12809355
:103F90008C12892B11F40C9428321092A2121092D8
:103FA000A11281E08093A91285EB94E090932212F4
:103FB000809321120E94C069811140C0E091B0122B
:103FC000F091B1128081A0912612B0912712A80F12
:103FD000B11D87FDBA95B0932712A0932612809148
:103FE0009C12882311F40C94FC3720919312309189
:103FF000941240919512509196120E948883DC0190
:10400000CB014AE0B695A795979587954A95D1F744
:104010009093A01280939F121092A2121092A1125C
:1040200081E08093A91282EC94E090932212809315
:1040300021120E94C069882309F46FCF81E0DF91CB
:10404000CF911F910F91FF90EF90DF90CF90089547
:104050008B34E3E09E0711F40C94713308F031C502
:10406000883023E0920709F47CCE10F40C94C7301A
:104070008533F3E09F0709F4A1C0823423E092075F
:1040800009F46DC18C30934011F00C94772A809123
:10409000A1129091A212863AB1E09B0709F4BDCE1D
:1040A000873BE1E09E0711F40C94C633892B09F499
:1040B00073CEE091B012F091B1128FEF9FEF909319
:1040C000A2128093A112208131813093311220936A
:1040D000301200912C12E02FF0E0EE0FFF1FEE0FD8
:1040E000FF1FEF5DFD4EC388D488E588F688C09237
:1040F0008412D0928512E0928612F0928712C4E365
:10410000D2E1ECE5F2E110E00117F1F048815981CC
:104110006A817B81440F551F661F771FDB01CA012F
:104120008C199D09AE09BF098C8B9D8BAE8BBF8B03
:1041300040835183628373838C199D09AE09BF0943
:10414000848B958BA68BB78B1F5F24963496153086
:10415000D9F6609128127091291280912A129091BB
:104160002B12FC01E60FF71F4091321250913312CF
:104170004E0F5F1F240F351FC21AD30AE108F10842
:10418000C0928812D0928912E0928A12F0928B1219
:10419000672B11F40C941A2F80919D128F7B8093C2
:1041A0009D121092A2121092A11282E08093A91285
:1041B00085E393E090932212809321120E94C069BC
:1041C00081113CCF80919C12E091B012F091B1121C
:1041D000882311F40C94AD36A081B1812091931203
:1041E0003091941240919512509196120E948883BA
:1041F000DC01CB012AE0B695A795979587952A957E
:10420000D1F79093A01280939F1290912D129093CA
:104210009E1280912C12882311F40C943734409113
:1042200048125091491260914A1270914B1277FFD7
:1042300002C00C94333E00917012109171122091C3
:10424000721230917312400F511F621F731F4093FF
:1042500048125093491260934A1270934B12916026
:1042600090939E12813011F00C943734409150128B
:1042700050915112609152127091531277FF02C007
:104280000C94FB3B009178121091791220917A12D4
:1042900030917B12400F511F621F731F40935012C9
:1042A00050935112609352127093531290919E1238
:1042B000946090939E12833039F140915412509142
:1042C0005512609156127091571277FF02C00C94EC
:1042D000113C00917C1210917D1220917E12309140
:1042E0007F12400F511F621F731F4093541250934F
:1042F0005512609356127093571290919E129860C7
:1043000090939E12843029F1809158129091591205
:10431000A0915A12B0915B12B7FF02C00C94AF3D4E
:10432000409180125091811260918212709183129B
:10433000840F951FA61FB71F809358129093591290
:10434000A0935A12B0935B1280919E128061809369
:104350009E1282E493E09093221280932112809126
:10436000901290919112009709F482CB019790934B
:10437000911280939012E0912F0F81E08E0F809325
:104380002F0FF0E0EE0FFF1FEE0FFF1FE15DF44F68
:1043900080919D1290919E12A0919F12B091A012B7
:1043A00080839183A283B38380919D128F778093C2
:1043B0009D128091281290912912019790932912B1
:1043C00080932812892B11F40C94162F1092A212AC
:1043D0001092A11282E08093A9128BE493E0909353
:1043E0002212809321128091A7129091A8126091BD
:1043F000A5127091A612681B790B7093AF1260938F
:10440000AE12A091A9122A2F30E06217730710F0A4
:104410000C94CD3C6115710511F40C945D37E0915D
:10442000A312F091A41240E050E020E0E80FF91F41
:1044300080E090E0A150EF01C40FD51F3881EC015E
:10444000CF55DD4E39878A2F821B8093A9122F5FAB
:10445000822F90E0AC018617970768F386EA91E017
:104460009093A2128093A1128091EC0A882309F400
:10447000E5CD8091ED0A9091EE0A845E964011F4AC
:104480000C94EA3F84EE96E09093EE0A8093ED0A56
:10449000DC018091E80A9091E90A4091E40A509188
:1044A000E50A6091E60A7091E70A480F591F611DFD
:1044B000711D4093E40A5093E50A6093E60A7093F5
:1044C000E70A1092EC0A9093A6128093A512B0937B
:1044D000A412A093A3124091A9124423A9F08091A1
:1044E000AE129091AF12FC01E655FD4E9C01265F85
:1044F0003F4F8FEF840F280F311D2F553D4E8D916B
:104500008193E217F307D9F78AEA92E19093B11207
:104510008093B012842F90E09093A8128093A712FA
:10452000EAEAF2E18FEF9FEF9093A2128093A1123B
:1045300080919C12882311F40C94B037A081B18132
:1045400020919312309194124091951250919612AD
:104550000E948883DC01CB011AE0B695A795979558
:1045600087951A95D1F79093A01280939F129091FE
:104570002D1290939E1280912C12882311F40C948A
:104580003935409148125091491260914A12709108
:104590004B1277FF02C00C94D73E0091701210911D
:1045A00071122091721230917312400F511F621FCD
:1045B000731F409348125093491260934A127093AC
:1045C0004B12916090939E12813011F00C9439350A
:1045D00040915012509151126091521270915312A9
:1045E00077FF02C00C94613D00917812109179120E
:1045F00020917A1230917B12400F511F621F731F5E
:104600004093501250935112609352127093531270
:1046100090919E12946090939E12833039F1409154
:10462000541250915512609156127091571277FFA3
:1046300002C00C944B3D00917C1210917D12209190
:104640007E1230917F12400F511F621F731F4093E3
:1046500054125093551260935612709357129091C2
:104660009E12986090939E12843029F18091581286
:1046700090915912A0915A12B0915B12B7FF02C0EB
:104680000C94493E409180125091811260918212A7
:1046900070918312840F951FA61FB71F8093581225
:1046A00090935912A0935A12B0935B1280919E126C
:1046B000806180939E1288E593E09093221280930C
:1046C00021128091901290919112009709F4D0C913
:1046D00001979093911280939012E0912F0F81E0B7
:1046E0008E0F80932F0FF0E0EE0FFF1FEE0FFF1FD6
:1046F000E15DF44F80919D1290919E12A0919F12C6
:10470000B091A01280839183A283B38352CE87326B
:1047100024E0920711F40C94D73110F40C94B131C9
:104720008634F4E09F0751F18A3424E0920709F4BB
:1047300046C08B33944009F0DAC60E94C0698111EB
:104740007DCCE091B012F091B11280819181909373
:104750008D1280938C1210929C128091231285FFEF
:1047600099C01092A2121092A11284E08093A91213
:1047700086E494E090932212809321120E94C069F3
:1047800081115CCCE091B012F091B11280819181E5
:10479000A281B3818093971290939812A09399125B
:1047A000B0939A121092A2121092A11281E08093FB
:1047B000A9128AE494E090932212809321120E941D
:1047C000C06981113BCCE091B012F091B112C0816F
:1047D000C0939B128091B4039091B50395958795F2
:1047E0009595879595958795959587952091000244
:1047F00030910102821B930B97FF02C00C94F53A93
:104800008436910514F40C94EA372091D511309137
:10481000D61140E050E0609197127091981280910B
:10482000991290919A120E944F83DC01CB0104C02F
:10483000B695A79597958795CA95D2F78130E0E10F
:104840009E07A105B10520F080E090E1A0E0B0E076
:104850008093931290939412A0939512B093961212
:104860008130F4E09F07A105B10510F40C94853662
:1048700081E080939C1280910812909109128E3FE2
:104880002FEF920711F40C94AB3D0196909309120F
:10489000809308121092A2121092A11282E08093CB
:1048A000A91288E994E090932212809321120E9429
:1048B000C0698111C3CBE091B012F091B112A08117
:1048C000B181B0932712A093261280919C12882365
:1048D00011F40C94BA3320919312309194124091B8
:1048E0009512509196120E948883DC01CB016AE0F8
:1048F000B695A795979587956A95D1F79093A0124D
:1049000080939F121092A2121092A11281E08093C4
:10491000A91285EA94E090932212809321120E94BA
:10492000C06981118BCBE091B012F091B1128081FE
:1049300080939E1288EA94E0909322128093211231
:104940008091901290919112009711F40C94B234CE
:1049500001979093911280939012E0912F0F81E034
:104960008E0F80932F0FF0E0EE0FFF1FEE0FFF1F53
:10497000E15DF44F80919D1290919E12A0919F1243
:10498000B091A01280839183A283B38380919D1202
:104990008F7780939D128091231290912412209101
:1049A0008C1230918D122150310930938D12209349
:1049B0008C1286FD02C00C943234232B09F0EDCA10
:1049C00091FF05C08091921281110E948D62109218
:1049D00022121092211232CB8115A5E09A0711F410
:1049E0000C943B3210F40C94D330893125E09207BB
:1049F00009F45EC08232A5E09A0711F40C94FF32EC
:104A00008031954009F073C58091A1129091A21256
:104A1000863A21E0920711F40C949938873BA1E083
:104A20009A0711F40C940838892B11F40C945A3815
:104A3000E091B012F091B1128FEF9FEF9093A2121C
:104A40008093A1128081918110929E1220E533EC17
:104A50003093A01220939F121BC081E08E0F809391
:104A60002F0FF0E0EE0FFF1FEE0FFF1FE15DF44F81
:104A700080919D1290919E12A0919F12B091A012D0
:104A800080839183A283B38380918E1290918F1241
:104A90009C012150310930938F1220938E12892B63
:104AA00009F495CF89E195E0909322128093211229
:104AB000E0912F0F8091300F2E2F281B2F3F69F68A
:104AC000BDCA8137B3E09B0711F40C949A3010F4FF
:104AD0000C9408328738A3E09A0709F4EEC0813AB3
:104AE000B3E09B0709F4F3C78A37934009F0FFC48A
:104AF0008091A1129091A212863AA1E09A0709F43E
:104B00005CC1873BB1E09B0711F40C940637892BFD
:104B100009F412C1E091B012F091B1128FEF9FEF42
:104B20009093A2128093A11280919C12882311F479
:104B30000C94A837A0812091931230919412409147
:104B4000951250919612B0E00E948883DC01CB014F
:104B5000EAE0B695A79597958795EA95D1F7909352
:104B6000A01280939F1290912D1290939E1280918B
:104B70002C12882311F40C940E3540914812509158
:104B8000491260914A1270914B1277FF02C00C9447
:104B9000C13E0091701210917112209172123091E9
:104BA0007312400F511F621F731F4093481250939E
:104BB000491260934A1270934B12916090939E1227
:104BC000813011F00C940E354091501250915112D9
:104BD000609152127091531277FF02C00C94F43C12
:104BE000009178121091791220917A1230917B12F3
:104BF000400F511F621F731F409350125093511268
:104C0000609352127093531290919E1294609093FD
:104C10009E12833039F14091541250915512609197
:104C200056127091571277FF02C00C940A3D009102
:104C30007C1210917D1220917E1230917F12400FD4
:104C4000511F621F731F409354125093551260936B
:104C500056127093571290919E12986090939E12E4
:104C6000843029F18091581290915912A0915A12D2
:104C7000B0915B12B7FF02C00C94DB3D40918012F3
:104C8000509181126091821270918312840F951F4E
:104C9000A61FB71F8093581290935912A0935A12CF
:104CA000B0935B1280919E12806180939E1287E880
:104CB00093E0909322128093211280919012909110
:104CC0009112009711F40C94381D01979093911252
:104CD00080939012E0912F0F81E08E0F80932F0F21
:104CE000F0E0EE0FFF1FEE0FFF1FE15DF44F80912C
:104CF0009D1290919E12A0919F12B091A01280835C
:104D00009183A283B38380912A1290912B120197F1
:104D100090932B1280932A12892B09F414C61092B7
:104D2000A2121092A11281E08093A9128AE793E067
:104D300090932212809321128091A7129091A81231
:104D40006091A5127091A612681B790B7093AF1237
:104D50006093AE12A091A9122A2F30E06217730758
:104D600010F00C944E3C6115710511F40C94003751
:104D7000E091A312F091A41240E050E020E0E80F8F
:104D8000F91F80E090E0A150EF01C40FD51F3881DA
:104D9000EC01CF55DD4E39878A2F821B8093A912F3
:104DA0002F5F822F90E0AC018617970768F386EAA1
:104DB00091E09093A2128093A1128091EC0A882333
:104DC00009F43CC98091ED0A9091EE0A845E964008
:104DD00011F40C94E13F84EE96E09093EE0A8093F8
:104DE000ED0ADC018091E80A9091E90A4091E40A19
:104DF0005091E50A6091E60A7091E70A480F591F41
:104E0000611D711D4093E40A5093E50A6093E60A20
:104E10007093E70A1092EC0A9093A6128093A51261
:104E2000B093A412A093A3124091A9124423A9F015
:104E30008091AE129091AF12FC01E655FD4E9C019F
:104E4000265F3F4F8FEF840F280F311D2F553D4EAA
:104E50008D918193E217F307D9F78AEA92E1909353
:104E6000B1128093B012842F90E09093A812809397
:104E7000A712EAEAF2E152CE8236A2E09A0709F4DA
:104E800017C108F02BC3009711F40C9451328034F1
:104E9000924009F02CC38091A1129091A212863AFF
:104EA000E1E09E0711F40C949E32873BF1E09F07EE
:104EB00011F40C943036892B11F40C945E32E0918D
:104EC000B012F091B1128FEF9FEF9093A2128093E6
:104ED000A112C081CC3011F40C944D3810F00C9418
:104EE000BE35C73009F4DEC0CB3011F40C942E323D
:104EF000C33011F40C94433980E00E94E56D8DE2DB
:104F000092E00E94CD6D81E00E94E56D85E392E024
:104F10000E94CD6D4AE065E070E080E090E00E9484
:104F2000F96D82E00E94E56D8EE392E00E94CD6D06
:104F30008C2F90E0A0E0B0E04AE0BC01CD010E94DF
:104F4000F96D83E00E94E56D87E492E00E94CD6DEB
:104F500086E492E00E94CD6D8091BC049091BD04E6
:104F6000282F291B2F3F41F1E1E0E80FE093BC041B
:104F7000A82FB0E0A654BC4F12961C922E2F291BCE
:104F80002F3FD1F022E0280F2093BC04F0E0E6543C
:104F9000FC4F33E03283422F50E05093C5044093DE
:104FA000C404291B2F3F41F08D5F8093BC04FA019C
:104FB000E654FC4F81E082838091BC04282F30E0CE
:104FC0003093C3042093C204482F491B4F3F11F470
:104FD0000C9417408F5F8093BC04D901A654BC4F3A
:104FE00081E012968C9312972091C4043091C504ED
:104FF000F901FF27E654FC4F82818F5F828312966E
:105000008C9112978F5F12968C93A091BC048A2F7B
:10501000891B8F3F11F40C94514081E08A0F8093DB
:10502000BC04B0E0A654BC4F45E012964C934281BC
:105030004F5F4283CC2311F40C94BF3F0091C20414
:105040001091C304A801552746545C4FDA0112960B
:105050006C9112976F5F12966C93682F691B6F3F6C
:1050600011F40C944D4061E0680F6093BC04A82FCC
:10507000B0E0A654BC4F1296CC9382818F5F82839E
:10508000691B6F3F11F40C94CA3F0F3F1F4F19F07B
:105090008FEFFA0182838091C0048F5F8093C004F8
:1050A0000E94644A82E692E0909322128093211239
:1050B00080912F0F9091300F891B8095282F30E021
:1050C0003093911220939012882311F40C941E2097
:1050D0001092A2121092A11282E08093A91286E689
:1050E00092E090932212809321120E94C069811154
:1050F0000C941E20E091B012F091B1128081918148
:10510000809323129093241287FF03C08F7980939A
:105110009D121092A2121092A11281E08093A91206
:1051200088E792E090932212809321120E94C06936
:1051300081110C941E20E091B012F091B112908177
:1051400090932C1281E001C0880F9A95EAF7809322
:105150002D121092A2121092A11284E08093A91233
:1051600081E892E090932212809321128091A712FD
:105170009091A8126091A5127091A612681B790BEC
:105180007093AF126093AE12A091A9122A2F30E053
:105190006217730710F00C94383B6115710511F418
:1051A0000C946335E091A312F091A41240E050E01A
:1051B00020E0E80FF91F80E090E0A150EF01C40F5C
:1051C000D51F3881EC01CF55DD4E39878A2F821BE0
:1051D0008093A9122F5F822F90E0AC01861797076A
:1051E00068F386EA91E09093A2128093A1128091D5
:1051F000EC0A882311F40C941E208091ED0A909102
:10520000EE0A845E964011F40C94A43F84EE96E07E
:105210009093EE0A8093ED0ADC018091E80A909168
:10522000E90A4091E40A5091E50A6091E60A70911A
:10523000E70A480F591F611D711D4093E40A5093FE
:10524000E50A6093E60A7093E70A1092EC0A9093DD
:10525000A6128093A512B093A412A093A31240911A
:10526000A9124423A9F08091AE129091AF12FC01D3
:10527000E655FD4E9C01265F3F4F8FEF840F280FB0
:10528000311D2F553D4E8D918193E217F307D9F7CC
:105290008AEA92E19093B1128093B012842F90E049
:1052A0009093A8128093A712EAEAF2E1808191819B
:1052B000A281B3818093341290933512A093361259
:1052C000B09337121092A2121092A11284E0809330
:1052D000A91285E892E090932212809321120E94F5
:1052E000C06981110C941E20E091B012F091B112AE
:1052F00080819181A281B381809338129093391279
:10530000A0933A12B0933B121092A2121092A112E3
:1053100084E08093A91289E892E09093221280930E
:1053200021120E94C06981110C941E20E091B012DC
:10533000F091B11280819181A281B38180933C125E
:1053400090933D12A0933E12B0933F121092A2127E
:105350001092A11284E08093A9128DE892E09093BC
:105360002212809321128091A7129091A81260912D
:10537000A5127091A612681B790B7093AF126093FF
:10538000AE12A091A9122A2F30E06217730710F015
:105390000C94173B6115710511F40C946734E0917E
:1053A000A312F091A41240E050E020E0E80FF91FB2
:1053B00080E090E0A150EF01C40FD51F3881EC01CF
:1053C000CF55DD4E39878A2F821B8093A9122F5F1C
:1053D000822F90E0AC018617970768F386EA91E088
:1053E0009093A2128093A1128091EC0A882311F469
:1053F0000C941E208091ED0A9091EE0A845E9640F6
:1054000011F40C94923F84EE96E09093EE0A809310
:10541000ED0ADC018091E80A9091E90A4091E40AE2
:105420005091E50A6091E60A7091E70A480F591F0A
:10543000611D711D4093E40A5093E50A6093E60AEA
:105440007093E70A1092EC0A9093A6128093A5122B
:10545000B093A412A093A3124091A9124423A9F0DF
:105460008091AE129091AF12FC01E655FD4E9C0169
:10547000265F3F4F8FEF840F280F311D2F553D4E74
:105480008D918193E217F307D9F78AEA92E190931D
:10549000B1128093B012842F90E09093A812809361
:1054A000A712EAEAF2E180819181A281B38180931F
:1054B000401290934112A0934212B0934312109263
:1054C000A2121092A11284E08093A91281E992E0C5
:1054D00090932212809321120C946C1D8636F2E078
:1054E0009F0709F402CE8837924009F41FCE8FEF50
:1054F0009FEF909322128093211280E00C941F2042
:105500008091301290913112892B09F485C48091D9
:105510009D128F7B80939D121092A2121092A11265
:1055200082E08093A9128BEE93E0909322128093F5
:1055300021120E94C06981110C941E2080919C123E
:10554000E091B012F091B112882311F40C94AE35B1
:10555000A081B181209193123091941240919512C3
:10556000509196120E948883DC01CB011AE0B69517
:10557000A795979587951A95D1F79093A012809348
:105580009F120E94F56A88EF93E090932212809315
:1055900021128091901290919112009711F40C9425
:1055A000381D01979093911280939012E0912F0FE4
:1055B00081E08E0F80932F0FF0E0EE0FFF1FEE0FB4
:1055C000FF1FE15DF44F80919D1290919E12A0917A
:1055D0009F12B091A01280839183A283B3838091A4
:1055E0009D128F7780939D1280913012909131128D
:1055F00001979093311280933012892B09F40CC4D7
:105600001092A2121092A11282E08093A91281E05E
:1056100094E090932212809321128091A71290918E
:10562000A8126091A5127091A612681B790B709355
:10563000AF126093AE12A091A9122A2F30E0621728
:10564000730710F00C943C3C6115710511F40C9437
:10565000B536E091A312F091A41240E050E020E0B2
:10566000E80FF91F80E090E0A150EF01C40FD51FB3
:105670003881EC01CF55DD4E39878A2F821B80930C
:10568000A9122F5F822F90E0AC018617970768F36D
:1056900086EA91E09093A2128093A1128091EC0A85
:1056A000882311F40C941E208091ED0A9091EE0A4B
:1056B000845E964011F40C94054084EE96E090933D
:1056C000EE0A8093ED0ADC018091E80A9091E90AE4
:1056D0004091E40A5091E50A6091E60A7091E70A68
:1056E000480F591F611D711D4093E40A5093E50A4C
:1056F0006093E60A7093E70A1092EC0A9093A61260
:105700008093A512B093A412A093A3124091A91262
:105710004423A9F08091AE129091AF12FC01E6559E
:10572000FD4E9C01265F3F4F8FEF840F280F311DE8
:105730002F553D4E8D918193E217F307D9F78AEAF1
:1057400092E19093B1128093B012842F90E09093E5
:10575000A8128093A712EAEAF2E18FEF9FEF9093ED
:10576000A2128093A11280919C12882311F40C94B0
:105770004B37A081B18120919312309194124091C6
:105780009512509196120E948883DC01CB01CAE0E9
:10579000B695A79597958795CA95D1F79093A0123E
:1057A00080939F1290912D1290939E1280912C12B3
:1057B000882311F40C94BB34409148125091491243
:1057C00060914A1270914B1277FF02C00C94993E7F
:1057D0000091701210917112209172123091731217
:1057E000400F511F621F731F40934812509349127C
:1057F00060934A1270934B12916090939E12813085
:1058000011F00C94BB3440915012509151126091A0
:1058100052127091531277FF02C00C94B73C009162
:1058200078121091791220917A1230917B12400FE8
:10583000511F621F731F4093501250935112609377
:1058400052127093531290919E12946090939E12F4
:10585000833039F140915412509155126091561293
:105860007091571277FF02C00C94A13C00917C12FA
:1058700010917D1220917E1230917F12400F511FA6
:10588000621F731F40935412509355126093561227
:105890007093571290919E12986090939E1284304C
:1058A00029F18091581290915912A0915A12B091F9
:1058B0005B12B7FF02C00C941D3E409180125091C4
:1058C00081126091821270918312840F951FA61F1E
:1058D000B71F8093581290935912A0935A12B09305
:1058E0005B1280919E12806180939E128EE094E004
:1058F0009093221280932112809190129091911294
:10590000009711F40C94381D019790939112809395
:105910009012E0912F0F81E08E0F80932F0FF0E017
:10592000EE0FFF1FEE0FFF1FE15DF44F80919D1200
:1059300090919E12A0919F12B091A01280839183AA
:10594000A283B38351CE8091881290918912A09145
:105950008A12B0918B12892B8A2B8B2B09F4E8C108
:1059600080919D1283FF03C0806480939D1280917B
:105970002E1290912F129093A01280939F129091CB
:105980002D1290939E1280912C12882309F443C704
:10599000409148125091491260914A1270914B12F5
:1059A00077FF02C00C94073E0091701210917112A3
:1059B0002091721230917312400F511F621F731F9A
:1059C000409348125093491260934A1270934B12BD
:1059D000916090939E12813009F01DC74091501242
:1059E00050915112609152127091531277FF02C080
:1059F0000C94CF3B009178121091791220917A1279
:105A000030917B12400F511F621F731F4093501241
:105A100050935112609352127093531290919E12B0
:105A2000946090939E12833039F1409154125091BA
:105A30005512609156127091571277FF02C00C9464
:105A4000E53B00917C1210917D1220917E123091E5
:105A50007F12400F511F621F731F409354125093C7
:105A60005512609356127093571290919E1298603F
:105A700090939E12843029F180915812909159127E
:105A8000A0915A12B0915B12B7FF02C00C948D3DE9
:105A90004091801250918112609182127091831214
:105AA000840F951FA61FB71F809358129093591209
:105AB000A0935A12B0935B1280919E1280618093E2
:105AC0009E1281EA93E0909322128093211280919A
:105AD000901290919112009711F40C942136019735
