:1000000058C6000087C6000085C6000083C60000F1
:1000100081C600007FC600007DC600007BC60000D0
:1000200079C6000077C6000075C6000073C60000E0
:1000300071C600006FC600006DC600006BC60000F0
:1000400069C600000C94F64F0C94454C63C6000042
:1000500061C600005FC600005DC600000C945158E8
:1000600059C600000C945A5255C6000053C60000F1
:1000700051C600004FC600004DC600004BC6000030
:1000800049C6000047C6000045C6000043C6000040
:1000900041C600003FC600003DC600003BC6000050
:1000A00039C6000037C6000035C6000033C6000060
:1000B00031C600002FC600002DC600002BC6000070
:1000C00029C6000027C6000025C6000023C6000080
:1000D00021C600001FC600001DC600001BC6000090
:1000E00019C60000B4127212CB0BCB0BCB0BF6115E
:1000F000E911AE1181116F11E910CB0BCB0BCB0BBA
:10010000CB0BCB0BCB0BCB0BCB0BCB0BCB0BCB0B3F
:10011000CB0BCF10D60FCB0BCB0BCB0BC60F720F6D
:100120001E0F3C0ECB0B6E0CCB0BCB0B470C420CBB
:1001300061186717BF17400CB7163116C917CB0BDC
:100140000B14D713B013A113CB0BCB0B9B13CB0BFF
:100150004C133B13F512DE1292158B15E014371475
:10016000E515C8151A162212C452C852CC52D252E2
:10017000D852C352DE52E452EA52F052F652FC52C6
:1001800002530853C3520E531453BE52D454DC547A
:10019000E154EB54F554C354FF5407550F5519550A
:1001A00023552D553C554655C35450555A55645505
:1001B000000020002300260029002C002F00320020
:1001C00000010000030106010901050505050705F9
:1001D00008080808020202020A0A080804040404C3
:1001E00001010101010101010303030303030303EF
:1001F000040707070C0C0C0C0C0C0C0C020202027E
:1002000006060606060606060B0B0B0B0B0B0B0B66
:100210000102102020080810204010204080020118
:1002200002010804020101020408102040808040FD
:1002300020100804020180040201804020100804FC
:10024000020108040201010204081020408001029A
:1002500004081020408000000A0B02090C0D0E0853
:10026000070304010000000000000000000000007F
:10027000000000000000000000000000000000007E
:10028000000012111000000000000000000000003B
:10029000000000000000000000000000441F041DDA
:1002A000671B2A1A2B195718A21706177B16001658
:1002B00092152D15D1147C142E14E513A11362137D
:1002C0002613ED12B812851255122712FC11D21105
:1002D000AA1184115F113B111911F810D910BA102D
:1002E0009C108010641049102F101510FC0FE40FA3
:1002F000CD0FB60FA00F8A0F750F610F4C0F390F7E
:10030000250F130F000FEE0EDD0ECB0EBA0EAA0E48
:10031000990E890E7A0E6A0E5B0E4C0E3E0E2F0E53
:10032000210E130E060EF80DEB0DDE0DD10DC50DD1
:10033000B80DAC0DA00D940D880D7D0D710D660DE1
:100340005B0D500D450D3B0D300D260D1B0D110D98
:10035000070DFD0CF30CEA0CE00CD70CCD0CC40C13
:10036000BB0CB20CA90CA00C980C8F0C860C7E0C4C
:10037000760C6D0C650C5D0C550C4D0C450C3D0C54
:10038000350C2E0C260C1F0C170C100C080C010C35
:10039000FA0BF30BEC0BE50BDE0BD70BD00BC90BF9
:1003A000C20BBC0BB50BAE0BA80BA10B9B0B950B9B
:1003B0008E0B880B820B7B0B750B6F0B690B630B22
:1003C0005D0B570B510B4C0B460B400B3A0B350B8F
:1003D0002F0B290B240B1E0B190B130B0E0B080BE9
:1003E000030BFE0AF80AF30AEE0AE90AE40ADE0A37
:1003F000D90AD40ACF0ACA0AC50AC00ABB0AB60A71
:10040000B10AAD0AA80AA30A9E0A990A950A900A97
:100410008B0A870A820A7E0A790A740A700A6B0AB2
:10042000670A620A5E0A5A0A550A510A4C0A480AC1
:10043000440A400A3B0A370A330A2F0A2A0A260AC4
:10044000220A1E0A1A0A160A120A0E0A0A0A060ABC
:10045000020AFE09FA09F609F209EE09EA09E609B3
:10046000E209DE09DA09D709D309CF09CB09C8099E
:10047000C409C009BC09B909B509B109AE09AA097D
:10048000A609A3099F099B099809940991098D0957
:100490008A09860983097F097C0978097509710928
:1004A0006E096B096709640960095D095A095609F3
:1004B000530950094C094909460942093F093C09B9
:1004C0003909350932092F092C0929092509220979
:1004D0001F091C091909160912090F090C09090934
:1004E000060903090009FD08FA08F708F408F108ED
:1004F000ED08EA08E708E408E108DE08DB08D908A7
:10050000D608D308D008CD08CA08C708C408C1084F
:10051000BE08BB08B808B508B308B008AD08AA08FB
:10052000A708A408A1089F089C08990896089308A2
:1005300091088E088B0888088608830880087D0843
:100540007B0878087508720870086D086A086808E2
:10055000650862085F085D085A0857085508520880
:100560004F084D084A0848084508420840083D0819
:100570003A0838083508330830082E082B082808B0
:100580002608230821081E081C0819081708140843
:1005900011080F080C080A080708050802080008D7
:1005A000FD07FB07F807F607F307F107EE07EC076F
:1005B000EA07E707E507E207E007DD07DB07D807FB
:1005C000D607D407D107CF07CC07CA07C707C50787
:1005D000C307C007BE07BB07B907B707B407B20711
:1005E000B007AD07AB07A807A607A407A1079F0799
:1005F0009D079A0798079607930791078F078C071F
:100600008A0788078507830781077E077C077A07A3
:1006100078077507730771076E076C076A07670726
:100620006507630761075E075C075A0758075507A8
:10063000530751074F074C074A0748074607430728
:1006400041073F073D073A073807360734073107A8
:100650002F072D072B072907260724072207200726
:100660001D071B07190717071507120710070E07A5
:100670000C070A070707050703070107FF06FC0623
:10068000FA06F806F606F406F206EF06ED06EB06A5
:10069000E906E706E506E206E006DE06DC06DA061F
:1006A000D806D506D306D106CF06CD06CB06C8069A
:1006B000C606C406C206C006BE06BC06B906B70614
:1006C000B506B306B106AF06AD06AA06A806A6068D
:1006D000A406A206A0069E069C0699069706950605
:1006E000930691068F068D068B068806860684067D
:1006F000820680067E067C067A06770675067306F5
:1007000071066F066D066B0669066606640662066C
:1007100060065E065C065A065806560653065106E3
:100720004F064D064B06490647064506430640065A
:100730003E063C063A0638063606340632063006D1
:100740002D062B06290627062506230621061F0649
:100750001D061A06180616061406120610060E06C0
:100760000C060A060706050603060106FF05FD0539
:10077000FB05F905F605F405F205F005EE05EC05B7
:10078000EA05E805E505E305E105DF05DD05DB052F
:10079000D905D705D405D205D005CE05CC05CA05A7
:1007A000C805C605C305C105BF05BD05BB05B9051F
:1007B000B705B405B205B005AE05AC05AA05A70599
:1007C000A505A305A1059F059D059B059805960513
:1007D0009405920590058E058B058905870585058D
:1007E000830581057E057C057A0578057605730508
:1007F00071056F056D056B05680566056405620585
:1008000060055D055B055905570555055205500501
:100810004E054C05490547054505430541053E057F
:100820003C053A0538053505330531052F052C05FE
:100830002A0528052605230521051F051C051A057F
:1008400018051605130511050F050C050A05080501
:10085000060503050105FF04FC04FA04F804F50489
:10086000F304F104EE04EC04EA04E704E504E30411
:10087000E004DE04DB04D904D704D404D204D00499
:10088000CD04CB04C804C604C404C104BF04BC0422
:10089000BA04B804B504B304B004AE04AB04A904AC
:1008A000A604A404A1049F049D049A04980495043A
:1008B000930490048E048B048904860483048104C9
:1008C0007E047C0479047704740472046F046C045D
:1008D0006A046704650462045F045D045A045804F2
:1008E0005504520450044D044A044804450442048B
:1008F00040043D043A043704350432042F042D0427
:100900002A042704240421041F041C0419041604C7
:10091000130411040E040B0408040504020400046B
:10092000FD03FA03F703F403F103EE03EB03E8031B
:10093000E503E203DF03DC03D903D603D303D003CB
:10094000CD03CA03C703C403C103BE03BB03B7037C
:10095000B403B103AE03AB03A803A403A1039E0336
:100960009B039703940391038E038A0387038403F5
:1009700080037D037903760373036F036C036803BD
:10098000650361035E035A03570353034F034C038C
:100990004803440341033D033903360332032E0366
:1009A0002A03260323031F031B03170313030F0349
:1009B0000B0307030303FF02FB02F702F302EE023D
:1009C000EA02E602E202DD02D902D502D002CC023E
:1009D000C702C302BE02BA02B502B102AC02A7024C
:1009E000A3029E02990294028F028A02850280026B
:1009F0007B02760271026C02660261025C025602A0
:100A000051024B02460240023A0234022F022902EE
:100A100023021D02160210020A020402FD01F70160
:100A2000F001E901E201DC01D501CD01C601BF0100
:100A3000B701B001A801A0019801900188018001CF
:100A400077016E0165015C0153014A0140013601E5
:100A50002C01220117010C010101F500EA00DD0063
:100A6000D100C400B600A9009A008B007C006C0085
:100A70005B004900370023000F00F9FF0000211040
:100A8000422063308440A550C660E77008812991F8
:100A90004AA16BB18CC1ADD1CEE1EFF131121002A0
:100AA00073325222B5529442F772D6623993188348
:100AB0007BB35AA3BDD39CC3FFF3DEE3622443346C
:100AC00020040114E664C774A44485546AA54BB598
:100AD00028850995EEE5CFF5ACC58DD55336722640
:100AE00011163006D776F6669556B4465BB77AA7E8
:100AF00019973887DFF7FEE79DD7BCC7C448E5588C
:100B00008668A7784008611802282338CCC9EDD937
:100B10008EE9AFF9488969990AA92BB9F55AD44ADF
:100B2000B77A966A711A500A333A122AFDDBDCCB87
:100B3000BFFB9EEB799B588B3BBB1AABA66C877CAB
:100B4000E44CC55C222C033C600C411CAEED8FFDD7
:100B5000ECCDCDDD2AAD0BBD688D499D977EB66E7F
:100B6000D55EF44E133E322E511E700E9FFFBEEF27
:100B7000DDDFFCCF1BBF3AAF599F788F8891A981E9
:100B8000CAB1EBA10CD12DC14EF16FE18010A100D3
:100B9000C230E3200450254046706760B9839893C3
:100BA000FBA3DAB33DC31CD37FE35EF3B102901223
:100BB000F322D2323542145277625672EAB5CBA58F
:100BC000A89589856EF54FE52CD50DC5E234C32473
:100BD000A01481046674476424540544DBA7FAB763
:100BE0009987B8975FE77EF71DC73CD7D326F236C3
:100BF0009106B01657667676154634564CD96DC9AF
:100C00000EF92FE9C899E9898AB9ABA94458654812
:100C100006782768C018E1088238A3287DCB5CDB02
:100C20003FEB1EFBF98BD89BBBAB9ABB754A545A62
:100C3000376A167AF10AD01AB32A923A2EFD0FEDCE
:100C40006CDD4DCDAABD8BADE89DC98D267C076CB2
:100C5000645C454CA23C832CE01CC10C1FEF3EFFA2
:100C60005DCF7CDF9BAFBABFD98FF89F176E367E02
:100C7000554E745E932EB23ED10EF01E0000210040
:100C8000240027002A002D0030003300010100005D
:100C9000040107010A0100002200250028002B00A2
:100CA0002E003100340002010000050108010B0193
:100CB0002F7E11241FBECFEFD1E2DEBFCDBF00E0FB
:100CC0000CBF12E0A0E0B2E0E0EFF2E001E00BBF09
:100CD00002C007900D92A837B107D9F723E1A8E722
:100CE000B2E001C01D92A630B207E1F716E0C9E5F7
:100CF000D6E000E006C021970109802FFE010E9486
:100D00003581C835D10780E00807A9F70E94D96D61
:100D10000C94698175C94F925F926F927F928F9206
:100D20009F92AF92BF92CF92DF92EF92FF920F937A
:100D30001F93CF93DF93CDB7DEB7CC5BD2400FB616
:100D4000F894DEBF0FBECDBF8091191190911A119A
:100D50008C3F08E0900709F435C208F446C084339C
:100D600069E0960709F4E8C108F0A8C08631B9E047
:100D70009B0709F49EC18C32994009F071C28091A1
:100D8000E4099091E509892BB9F482E090E0909311
:100D9000E5098093E4091092D3031092D203809165
:100DA0001F118F5F09F481E080931F1184E399E0A4
:100DB00090931A118093191181E0C454DD4F0FB63E
:100DC000F894DEBF0FBECDBFDF91CF911F910F9181
:100DD000FF90EF90DF90CF90BF90AF909F908F905B
:100DE0007F906F905F904F9008958A3B28E0920724
:100DF00009F4E1C008F4D6C0863C48E0940709F441
:100E000001C18A3E984009F02BC2E0911611409131
:100E10001511E41709F41FC481E08E0F8093161199
:100E2000F0E0EB5EFF4E808180932511209121112F
:100E3000309122112827022E2295207F2025032E73
:100E4000322F22952F700226269532272327220F34
:100E5000220F220F2025309322112093211120915F
:100E600023113091241190E001972817390708F4D5
:100E70006CC2782F80932611281B310930932411DE
:100E800020932311772309F462C2672F713108F090
:100E900060E1609327118CEF98E090931A11809392
:100EA000191180911611942F981B961708F4F6C209
:100EB00070912611761B7093261197C18E33F9E03D
:100EC0009F0709F4BFC08434994009F0C9C16091FB
:100ED0002311709124118091161190911511981B76
:100EE000562F23E0260F921708F447C2662309F411
:100EF000B4C490E02091211130912211DC01AB5E4D
:100F0000BF4EFD0101964FEF460F840F911D8B5E82
:100F10009F4E41912427022E2295207F2025032ECB
:100F2000322F22952F700226269532272327220F53
:100F3000220F220F2025E817F90759F730932211C5
:100F400020932111890181E0850F9D01280F311D1A
:100F5000F901808192E0950F9D01290F311DF90162
:100F60003081A60FB11D9C91933009F42BC49430AD
:100F700009F4F1C3923009F4EFC390E0932B80178A
:100F8000910709F4EBC360911F1185E00E94E16CA9
:100F9000109216111092151110921A111092191127
:100FA00081E00BCF892B09F05BC18AEB98E090932D
:100FB0001A1180931911E0911611809115118E1755
:100FC00009F4FACE81E08E0F80931611F0E0EB5E0B
:100FD000FF4E808181112DC00E941A5760931B1112
:100FE00070931C1180931D1190931E118FEF9FEF32
:100FF000909322118093211186EC98E090931A111E
:101000008093191140911511942FE0911611842F9E
:101010008E1B823008F42CC181E08E0F8093161154
:10102000AE2FB0E0AB5EBF4E2C9120932D0321116B
:1010300042C3109216111092151110921A111092AB
:101040001911BACE90911511E09116119E1709F45D
:101050005FC281E08E0FF0E0981B80931611EB5E6B
:10106000FF4E608120912111309122112627022EFE
:101070002295207F2025032E322F22952F700226C5
:10108000269532272327220F220F220F2025309367
:1010900022112093211170E0615071097093241185
:1010A0006093231124E439E030931A11209319112D
:1010B00017CF40911511E0911611842F8E1B8330AC
:1010C00008F499C2AE2FB0E0AB5EBF4E9C91A1E098
:1010D000AE0FB0E0AB5EBF4E8C9123E02E0F20939D
:1010E0001611EE5FF0E0EB5EFF4E30816091211152
:1010F00070912211933009F438C1943009F450C32F
:10110000923009F44EC390E0932B6817790709F4E5
:101110004AC360911F1185E00E94E16C1092161184
:10112000109215111092D5051092D40510921A1133
:101130001092191181E041CE8091E4099091E50966
:10114000029709F439CE8FEF9FEF9093360B80937F
:10115000350B80912F0B9091300B282F291B2F3F9F
:1011600009F405C1E1E0E80FA82FB0E0A35DB54F99
:1011700012961C922E2F291B2F3F09F4F8C0F0E085
:10118000E35DF54F26E0228322E0280F422F50E056
:101190005093380B4093370B291B2F3F09F4E7C0BE
:1011A0008D5F80932F0BFA01E35DF54F21E02283E1
:1011B000891B8F3F09F4DBC08091330B8F5F8093D5
:1011C000330B3BCF6091271180911611409115117F
:1011D000942F981B961708F461C170912611761B05
:1011E00070932611662309F44DCE0091D405109119
:1011F000D5052091211130912211D801AC52BC4F5C
:10120000562F580FE82FF0E0EB5EFF4E90819D9334
:101210002927022E2295207F2025032E322F22956A
:101220002F700226269532272327220F220F220F06
:1012300020258F5F8513E6CF8093161190932D03A1
:101240000F5F1F4F6150060F111D1093D5050093BE
:10125000D40530932211209321111092271112CE20
:101260008FEF9FEF90931A118093191180E0A5CD15
:101270000E941A5700911B1110911C1120911D11F1
:1012800030911E11DC01CB01801B910BA20BB30B23
:101290008B3F9105A105B10508F48ECD80911F11FA
:1012A0002FEF3FEF3093360B2093350B90912F0BA0
:1012B0002091300B392F321B3F3F41F1E1E0E90F24
:1012C000E0932F0BA92FB0E0A35DB54F12961C92AF
:1012D0003E2F321B3F3FD1F032E0390F30932F0BBE
:1012E000F0E0E35DF54F48E04283432F50E0509338
:1012F000380B4093370B321B3F3F41F09D5F90937B
:101300002F0BFA01E35DF54F91E092830E94096B88
:1013100080912F0B9091300B891B8F3F11F40C940F
:101320008A188091350B9091360B8F3F1FEF9107F4
:1013300031F09927FC01E35DF54F8FEF82838091B7
:10134000330B8F5F8093330B74CEC90192CD8091A4
:10135000231190912411009709F03EC286E199E093
:1013600090931A1180931911A6CE8E7FCCCE8091C6
:10137000370B825080932F0B60CE0E941A5700913A
:101380001B1110911C1120911D1130911E11DC01B7
:10139000CB01801B910BA20BB30B8B3F9105A105D9
:1013A000B10508F409CD30911F114FEF5FEF809127
:1013B0002F0B2091300B982F921B9F3F11F40C9410
:1013C0006F18E1E0E80FE0932F0BA82FB0E0A35DCA
:1013D000B54F12961C929E2F921B9F3F11F40C94B6
:1013E000911892E0980F90932F0BF0E0E35DF54F8A
:1013F00068E06283692F70E07093380B6093370B5D
:10140000E92FE21BEF3F11F40C94871993E0980F3A
:1014100090932F0BFB01E35DF54FDD24D394D28233
:10142000A92FB0E0B093360BA093350B921B9F3FD2
:1014300011F40C9499188C5F80932F0B8D01035D30
:10144000154F7801D8011296DC92182F121B928149
:101450009F5F9283332309F4DDC1D70112969C91DB
:1014600012979F5F12969C931F3F11F40C94A6183D
:1014700091E0980F90932F0B482F50E0435D554F0C
:10148000DA0112963C9382818F5F8283921B9F3F89
:1014900009F4C7C18FEFF701828351CF0E941A5719
:1014A00000911B1110911C1120911D1130911E11E2
:1014B000DC01CB01801B910BA20BB30B8B3F910581
:1014C000A105B10508F478CC10911F1188E00E94A5
:1014D0005F6B812F0E94096B80912F0B9091300BD5
:1014E000891B8F3F09F472C18091350B9091360BA7
:1014F0008F3F3FEF930731F09927FC01E35DF54FF4
:101500008FEF82838091330B8F5F8093330B06CEF6
:101510000E941A5700911B1110911C1120911D114E
:1015200030911E11DC01CB01801B910BA20BB30B80
:101530008B3F9105A105B10508F43ECC80911F11A8
:101540002FEF3FEF3093360B2093350B90912F0BFD
:101550002091300B392F321B3F3F41F1E1E0E90F81
:10156000E0932F0BA92FB0E0A35DB54F12961C920C
:101570003E2F321B3F3FD1F032E0390F30932F0B1B
:10158000F0E0E35DF54F48E04283432F50E0509395
:10159000380B4093370B321B3F3F41F09D5F9093D8
:1015A0002F0BFA01E35DF54F91E092830E94096BE6
:1015B00080912F0B9091300B891B8F3F11F40C946D
:1015C000AB188091350B9091360B8F3F5FEF9507ED
:1015D00031F09927FC01E35DF54F8FEF8283809115
:1015E000330B8F5F8093330B109215119FEFE0E068
:1015F000F0E081E032CD0E941A5700911B1110914A
:101600001C1120911D1130911E11DC01CB01801B9A
:10161000910BA20BB30B8B3F9105A105B10508F40B
:10162000CBCB10911F1188E00E945F6B812F0E942D
:10163000096B80912F0B9091300B891B8F3F09F420
:10164000C5C08091350B9091360B8F3F4FEF9407BB
:1016500009F052CF57CF0E941A5700911B111091D9
:101660001C1120911D1130911E11DC01CB01801B3A
:10167000910BA20BB30B8B3F9105A105B10508F4AB
:101680009BCB10911F1188E00E945F6B812F0E94FD
:10169000096B80912F0B9091300B891B8F3F09F4C0
:1016A00095C08091350B9091360B8F3F2FEF9207AD
:1016B00009F022CF27CF609121117091221162276A
:1016C000062E6295607F6025072E762F62956F70DB
:1016D0000626669576276727660F660F660F6025D4
:1016E0007093221160932111EE5FE0931611A82FE1
:1016F000B0E0AB5EBF4E8C9180932011882309F43B
:1017000098CC6827062E6295607F6025072E762F7D
:1017100062956F700626669576276727660F660FB7
:10172000660F6025709322116093211187FF02C01C
:101730000C94B21860911F11261346C080E092E00D
:1017400090932411809323118AEE98E090931A11BC
:10175000809319115ECB8E7F3E7F0FCC209120119C
:10176000233809F462C060911F1180912D03681322
:101770002BC06F5F09F47AC060931F11509317114B
:1017800010921811822F90E0FC01E058F109E23428
:10179000F10508F46FC0622F81E00E94E16C49CC32
:1017A0008E7F3E7FB0CC241731F068E172E088E292
:1017B00099E00E949F448CE299E090931A118093E3
:1017C0001911DDCA8E7FD9CB87E0E0CB8091370B32
:1017D000825080932F0BA2CC209125112F3FB9F07E
:1017E0002091D4053091D505B9016F5F7F4F70937B
:1017F000D5056093D405F901EA53FC4F168601978D
:101800009093241180932311892B09F4A7CDE091A3
:1018100016119ACF5093360B4093350B1F3F09F0AA
:101820008ECD625060932F0B04CC81E080931F110A
:1018300050931711109218110E94A06C80911511ED
:1018400090911611891B833008F0F3CB68E172E0A8
:1018500088EB9AE00E949F44ECCB009121111091FB
:10186000221190E0DC01AB5EBF4E6DCB81E0809336
:101870001F1184CF8827EE58FF4F8F4F0C9435816E
:101880000E9475800E94A36D0E94A06CD7CF0E9419
:10189000A36D182F0E94A36D282F30E0322F22272E
:1018A000C901810F911D90930102809300020E9453
:1018B000A36D843611F00C942F1B08E211E10E94F5
:1018C0007580D8018D939D938D01B1E1003F1B0779
:1018D000B1F761E084EA0E94E16CB0CF81EA0E9436
:1018E0005F6B809124120E94096B80912B0A90916A
:1018F0002C0AC755DD4F8883C95AD240C655DD4FE3
:101900009883CA5AD2400E94096BC655DD4F888120
:10191000CA5AD2400E94096B8091290A90912A0AE2
:10192000C555DD4F8883CB5AD240C455DD4F9883CF
:10193000CC5AD2400E94096BC455DD4F8881CC5AE5
:10194000D2400E94096B8091DA059091DB05A0914D
:10195000DC05B091DD054091DE095091DF09609111
:10196000E0097091E109841B950BA60BB70BC158D8
:10197000DD4F88839983AA83BB83CF57D2400E94CF
:10198000096BC058DD4F8881C058D2400E94096B56
:10199000CF57DD4F8881C158D2400E94096BCE5786
:1019A000DD4F8881C258D2400E94096B8091DA05D0
:1019B0003091DB052091DC059091DD05CD57DD4FA1
:1019C0008883C358D240CC57DD4F3883C458D240A7
:1019D000CB57DD4F2883C558D240CA57DD4F988377
:1019E000C658D2400E94096BCC57DD4F8881C4583D
:1019F000D2400E94096BCB57DD4F8881C558D24039
:101A00000E94096BCA57DD4F8881C658D2400E9498
:101A1000096B8091BC129091BD122091BE12309141
:101A2000BF12821B930BC355DD4F99838883CD5A18
:101A3000D2400E94096BC255DD4F8881CE5AD240F8
:101A40000E94096B80913F0F9091400F891B90E09D
:101A5000A0E0B0E0C957DD4F88839983AA83BB8398
:101A6000C758D2400E94096BC857DD4F8881C858BB
:101A7000D2400E94096BC757DD4F8881C958D240B8
:101A80000E94096BC657DD4F8881CA58D2400E9418
:101A9000096B8091281290912912C155DD4F8883DE
:101AA000CF5AD240C055DD4F9883C05BD2400E94D0
:101AB000096BC055DD4F8881C05BD2400E94096B25
:101AC0008091001390910113CF54DD4F8883C15B47
:101AD000D240CE54DD4F9883C25BD2400E94096B46
:101AE000CE54DD4F8881C25BD2400E94096B809149
:101AF000FE129091FF12CD54DD4F8883C35BD2401C
:101B0000CC54DD4F9883C45BD2400E94096BCC5407
:101B1000DD4F8881C45BD2400E94096B9091E10F38
:101B20008091E20F811101C0892F0E94096B80E230
:101B300090E0CB54DD4F99838883C55BD2400E94EF
:101B4000096BCA54DD4F8881C65BD2400E94096B85
:101B500080E094E0C954DD4F99838883C75BD2400D
:101B600080E00E94096BC854DD4F8881C85BD24079
:101B70000E94096B8091290330912A0320912B0345
:101B800090912C03C557DD4F8883CB58D240C45762
:101B9000DD4F3883CC58D240C357DD4F2883CD5812
:101BA000D240C257DD4F9883CE58D2400E94096B75
:101BB000C457DD4F8881CC58D2400E94096BC3576F
:101BC000DD4F8881CD58D2400E94096BC257DD4F4E
:101BD0008881CE58D2400E94096B80911F120E94CA
:101BE000096B8091201290912112C754DD4F888398
:101BF000C95BD240C654DD4F9883CA5BD2400E9475
:101C0000096BC654DD4F8881CA5BD2400E94096BC4
:101C10008091221290912312C554DD4F8883CB5BB3
:101C2000D240C454DD4F9883CC5BD2400E94096BF4
:101C3000C454DD4F8881CC5BD2400E94096B8091F7
:101C40002F0B9091300B891B8F3F11F40C948A1944
:101C50008091350B9091360B8F3F3FEF930731F01A
:101C60009927FC01E35DF54F8FEF82838091330B61
:101C70008F5F8093330BE2CD8FE90E945F6B809181
:101C80001D0330911E0320911F0390912003CF5B11
:101C9000DD4F8883C154D240CE5BDD4F3883C254C0
:101CA000D240CD5BDD4F2883C354D240CC5BDD4FA7
:101CB0009883C454D2400E94096BCE5BDD4F88816B
:101CC000C254D2400E94096BCD5BDD4F8881C35462
:101CD000D2400E94096BCC5BDD4F8881C454D24056
:101CE0000E94096B809121033091220320912303EC
:101CF00090912403CA5BDD4F8883C654D240C95BF0
:101D0000DD4F3883C754D240C85BDD4F2883C854A9
:101D1000D240C75BDD4F9883C954D2400E94096B03
:101D2000C95BDD4F8881C754D2400E94096BC85BF4
:101D3000DD4F8881C854D2400E94096BC75BDD4FDC
:101D40008881C954D2400E94096B8091250330914B
:101D500026032091270390912803C55BDD4F8883DC
:101D6000CB54D240C45BDD4F3883CC54D240C35BEC
:101D7000DD4F2883CD54D240C25BDD4F9883CE54D3
:101D8000D2400E94096BC45BDD4F8881CC54D240A5
:101D90000E94096BC35BDD4F8881CD54D2400E9405
:101DA000096BC25BDD4F8881CE54D2400E94096B23
:101DB0008091290330912A0320912B0390912C03C9
:101DC000C05BDD4F8883C055D240CF5ADD4F38838A
:101DD000C155D240CE5ADD4F2883C255D240CD5A8C
:101DE000DD4F9883C355D2400E94096BCF5ADD4F17
:101DF0008881C155D2400E94096BCE5ADD4F88813F
:101E0000C255D2400E94096BCD5ADD4F8881C3551F
:101E1000D2400E94096B80912F0B9091300B891B4F
:101E20008F3F11F40C948A198091350B9091360BE9
:101E30008F3F0FEF900709F013CF18CF8EE90E9464
:101E40005F6B8091001390910113CD55DD4F888316
:101E5000C35AD240CC55DD4F9883C45AD2400E9419
:101E6000096BCC55DD4F8881C45AD2400E94096B62
:101E70008091FE129091FF12CB55DD4F8883C55A99
:101E8000D240CA55DD4F9883C65AD2400E94096B92
:101E9000CA55DD4F8881C65AD2400E94096BC95588
:101EA000DD4F19821882C75AD24080E00E94096B28
:101EB000C855DD4F8881C85AD2400E94096B809175
:101EC0002F0B9091300B891B8F3F11F40C948A19C2
:101ED0008091350B9091360B8F3F1FEF910709F0E2
:101EE000BFCEC4CE8DE90E945F6B80912B0A90918A
:101EF0002C0AC356DD4F8883CD59D240C256DD4FE0
:101F00009883CE59D2400E94096BC256DD4F88811A
:101F1000CE59D2400E94096B8091290A90912A0AD9
:101F2000C156DD4F8883CF59D240C056DD4F9883CC
:101F3000C05AD2400E94096BC056DD4F8881C05AFA
:101F4000D2400E94096BCF55DD4F19821882C15AC9
:101F5000D24080E00E94096BCE55DD4F8881C25A85
:101F6000D2400E94096B80912F0B9091300B891BFE
:101F70008F3F11F40C948A198091350B9091360B98
:101F80008F3F2FEF920709F06BCE70CE0E9429523F
:101F90001092F0116FE770E08DE00E94AB54109248
:101FA0002512109224120E94A06C48CC88E90E944D
:101FB0005F6BE0917F02F0918002908180917E02C0
:101FC000982381E009F080E00E94096B80911D0355
:101FD00030911E0320911F0390912003CB5ADD4FB7
:101FE0008883C555D240CA5ADD4F3883C655D24082
:101FF000C95ADD4F2883C755D240C85ADD4F988350
:10200000C855D2400E94096BCA5ADD4F8881C65517
:10201000D2400E94096BC95ADD4F8881C755D24012
:102020000E94096BC85ADD4F8881C855D2400E9472
:10203000096BE0917C02F0917D02908180917B029E
:10204000982381E009F080E00E94096B80912103D0
:10205000309122032091230390912403C65ADD4F2F
:102060008883CA55D240C55ADD4F3883CB55D240FC
:10207000C45ADD4F2883CC55D240C35ADD4F9883D4
:10208000CD55D2400E94096BC55ADD4F8881CB5592
:10209000D2400E94096BC45ADD4F8881CC55D24092
:1020A0000E94096BC35ADD4F8881CD55D2400E94F2
:1020B000096BE0917902F0917A0290818091780227
:1020C000982381E009F080E00E94096B809125034C
:1020D000309126032091270390912803C15ADD4FA8
:1020E0008883CF55D240C05ADD4F3883C056D24086
:1020F000CF59DD4F2883C156D240CE59DD4F98834A
:10210000C256D2400E94096BC05ADD4F8881C0562A
:10211000D2400E94096BCF59DD4F8881C156D24011
:102120000E94096BCE59DD4F8881C256D2400E9471
:10213000096B80E00E94096BCD59DD4F188219822E
:102140001A821B82C356D24080E00E94096BCC5990
:10215000DD4F8881C456D2400E94096BCB59DD4FB8
:102160008881C556D2400E94096BCA59DD4F8881CB
:10217000C656D2400E94096B80912F0B9091300B74
:10218000891B8F3F11F40C948A198091350B909123
:10219000360B8F3FFFEF9F0709F062CD67CD87E9D0
:1021A0000E945F6B8091F0110E94096B80912F0B50
:1021B0009091300B891B8F3F11F40C948A198091F8
:1021C000350B9091360B8F3FEFEF9E0709F048CD0E
:1021D0004DCD10920113109200138091FE12909138
:1021E000FF12892B19F51092D50F1092D60F10926D
:1021F000D70F1092D80F8091290A90912A0A9195B1
:1022000081959109092E000CAA0BBB0B8093D90F65
:102210009093DA0FA093DB0FB093DC0F1092DD0FD9
:102220001092DE0F1092DF0F1092E00F1092FF124B
:102230001092FE12109214108091001390910113CD
:10224000892B19F51092D50F1092D60F1092D70F37
:102250001092D80F8091290A90912A0A9195819520
:102260009109092E000CAA0BBB0B8093D90F9093F8
:10227000DA0FA093DB0FB093DC0F1092DD0F1092FA
:10228000DE0F1092DF0F1092E00F109201131092E8
:10229000001380916F008D7F80936F0080916F009D
:1022A0008B7F80936F0081E090E090932512809364
:1022B000241210922712109226120E9499591092FD
:1022C0002B1210922C1210922D1210922E1260E0EE
:1022D00070E089E00E94AB540E94A06CAFCA0E94DB
:1022E000A36D10922B1210922C1210922D1210929C
:1022F0002E12682F70E089E00E94AB540E94A06CFF
:102300009DCA0E94BC806B017C0180912412909137
:102310002512019731F068E172E08DEB96E00E94A2
:102320009F4481E090E0A0E0B0E08093171290938A
:102330001812A0931912B0931A12C0921B12D092C5
:102340001C12E0921D12F0921E1282E090E0909317
:102350002512809324120E94A06C70CA87E80E9404
:102360005F6BBE016F5F7F4F86EC93E00E94746CE1
:10237000882349F08981807C11F40C949D1B803462
:1023800011F40C94721B80E090E0DC010197A1092C
:10239000B109C956DD4F88839983AA83BB83C75986
:1023A000D2400E94096BC856DD4F8881C859D2407F
:1023B0000E94096BC756DD4F8881C959D2400E94DF
:1023C000096BC656DD4F8881CA59D2400E94096BFD
:1023D00022CD0E94A36D182F0E94758040E0BC01A1
:1023E000812F0E94656C0E94A06C28CA0E94838085
:1023F0002B013C010E9483804B015C010E94838081
:102400006B017C010E9483800E94838081E0809325
:10241000F01140921D0350921E0360921F037092B0
:1024200020038092210390922203A0922303B09272
:102430002403C0922503D0922603E0922703F09252
:10244000280322CA81EC0E945F6B81E00E94096B25
:1024500087E00E94096B0091300BE0912F0B809177
:10246000350B9091360B7E2F2091370B3091380B26
:10247000332740E152E0FE2FF01B235D354FFF2450
:10248000F39422C0DC01BB27A35DB54F12966C917B
:1024900012976F5F12966C93FF3F49F071E07E0FC9
:1024A000F0E0E35DF54F1283E72FF72FF01BD90122
:1024B00012966C9112976F5F12966C93B2E047314F
:1024C0005B0711F40C94E41ADA011D91AD018F3F02
:1024D000BFEF9B0711F40C946F1A1111D3CF8FEF3C
:1024E0009FEFECCF0E94A36D082F10E0011511059E
:1024F00011F40C94CD1B8091241290912512019718
:1025000031F068E172E08CE496E00E949F4483E041
:1025100090E0909325128093241210932712009339
:1025200026128FEF80931F12109223121092221204
:1025300010922112109220128FE00E943880109287
:102540002912109228120130110511F40C94F91B74
:1025500080ED97E0909389008093880080916F00D0
:10256000826080936F0090C980912412909125120F
:10257000029734F068E172E08BEE95E00E949F4490
:102580001092F7110E94995981E090E090932512E2
:10259000809324126FEF70E08DE00E94AB5480E0D6
:1025A00094E0A0E0B0E08093131290931412A093F3
:1025B0001512B09316120E94A06C40C90E9475803B
:1025C0007C010E9475808C010E947580F092FE1142
:1025D000E092FD11109300120093FF1190930212EC
:1025E000809301120E94A06C29C90E94A36D8633BA
:1025F00008F0865390917B00282F2870977F922BAC
:1026000090937B008770806480937C0080917A0037
:10261000806480937A0080917A0086FDFCCF1091CF
:1026200078000091790088EB0E945F6B812F90E029
:10263000902B092E000CAA0BBB0BC157DD4F8883D2
:102640009983AA83BB83CF58D2400E94096BC0579D
:10265000DD4F8881C059D2400E94096BCF56DD4FB3
:102660008881C159D2400E94096BCE56DD4F8881C6
:10267000C259D24076CC0E94A36D182F0E94A36D40
:10268000082F61E0812F0E946A54602F812F0E94E1
:102690001A530E94A06CD2C80E94A36D182F62E04A
:1026A0000E946A54212F30E0F901EA5AFD4F8491CB
:1026B000F901E05FFD4F1491F901E653FE4F0491DB
:1026C000002309F4C9C781110E94B252E02FF0E043
:1026D000EE0FFF1FE055FE4FA591B491EC91E12361
:1026E00091E080E009F490E0092F182F86EB0E941A
:1026F0005F6BC801110FAA0BBB0BCD56DD4F888352
:102700009983AA83BB83C359D2400E94096BCC56DC
:10271000DD4F8881C459D2400E94096BCB56DD4FF2
:102720008881C559D2400E94096BCA56DD4F888105
:10273000C659D240C2CB81E08093A9120E94A06CFE
:102740007DC80E94A36D0E94A36D182F682F70E0B2
:102750008AE00E94AB541093E20F0E94A06C6EC8F6
:1027600080EB0E945F6B1AE019821A821B821C8226
:1027700080E00E94096B8A810E94096B8B810E9414
:10278000096B8C810E94096BC556DD4F1982188236
:10279000CB59D24080E00E94096BC456DD4F88813E
:1027A000CC59D2400E94096B1150F1F634CB8FEA1C
:1027B0000E945F6B2091021330910313CE0121150B
:1027C000310509F03AC7855093419A8389838981FD
:1027D0009A81092E000CAA0BBB0BCF5FDD4F8883BB
:1027E0009983AA83BB83C150D2400E94096BCE5FFC
:1027F000DD4F8881C250D2400E94096BCD5FDD4F12
:102800008881C350D2400E94096BCC5FDD4F888124
:10281000C450D240AFCC0E94A36D182F0E94A36D6C
:10282000082F0E94A36DE82EF12CFE2CEE24E00E62
:10283000F11C123030F068E172E085E896E00E9409
:102840009F44C7010F964F9730F068E172E086E829
:1028500096E00E949F44E12FF0E0EE0FFF1FE05151
:10286000FE4EF282E1820E94A06C0C941E0C8DEB55
:102870000E945F6B0DEE19E0D8018C9111963C918E
:10288000119712962C91129713969C91C959DD4F6E
:102890008883C756D240C859DD4F3883C856D240C6
:1028A000C759DD4F2883C956D240C659DD4F98839A
:1028B000CA56D2400E94096BC859DD4F8881C8565C
:1028C000D2400E94096BC759DD4F8881C956D2405A
:1028D0000E94096BC659DD4F8881CA56D2400E94BA
:1028E000096BF8018481358126819781C559DD4FB7
:1028F0008883CB56D240C459DD4F3883CC56D24062
:10290000C359DD4F2883CD56D240C259DD4F98833D
:10291000CE56D2400E94096BC459DD4F8881CC56F7
:10292000D2400E94096BC359DD4F8881CD56D240F9
:102930000E94096BC259DD4F8881CE56D2400E9459
:10294000096BD80118968C91189719963C91199794
:102950001A962C911A971B969C91C159DD4F88832A
:10296000CF56D240C059DD4F3883C057D240CF58E0
:10297000DD4F2883C157D240CE58DD4F9883C257D0
:10298000D2400E94096BC059DD4F8881C057D240A8
:102990000E94096BCF58DD4F8881C157D2400E94F9
:1029A000096BCE58DD4F8881C257D2400E94096B17
:1029B000005F1F4FBAE00D321B0709F05DCFF6CB69
:1029C0008CEB0E945F6B01E812E0D80114968C91A9
:1029D000149715963C91159716962C911697179665
:1029E0009C91CD58DD4F8883C357D240CC58DD4FE2
:1029F0003883C457D240CB58DD4F2883C557D240C7
:102A0000CA58DD4F9883C657D2400E94096BCC58F4
:102A1000DD4F8881C457D2400E94096BCB58DD4FEF
:102A20008881C557D2400E94096BCA58DD4F888102
:102A3000C657D2400E94096BF801808531852285F6
:102A40009385C958DD4F8883C757D240C858DD4F9A
:102A50003883C857D240C758DD4F2883C957D24062
:102A6000C658DD4F9883CA57D2400E94096BC85898
:102A7000DD4F8881C857D2400E94096BC758DD4F8F
:102A80008881C957D2400E94096BC658DD4F8881A2
:102A9000CA57D2400E94096BD8011C968C911C9792
:102AA0001D963C911D971E962C911E971F969C91EA
:102AB000C558DD4F8883CB57D240C458DD4F38838B
:102AC000CC57D240C358DD4F2883CD57D240C2588F
:102AD000DD4F9883CE57D2400E94096BC458DD4F1A
:102AE0008881CC57D2400E94096BC358DD4F888142
:102AF000CD57D2400E94096BC258DD4F8881CE5716
:102B0000D2400E94096B005F1F4FB3E001311B07E9
:102B100009F05BCF4BCB81E0809330120E94A06C18
:102B20000C941E0C0E94BC802B013C010E94BC80B6
:102B30006B017C010E94BC804B015C010E94A36D73
:102B4000082F0E94A36D182F0E94A36D40920312BC
:102B5000509204126092051270920612C0920712EF
:102B6000D0920812E0920912F0920A1280920B128F
:102B700090920C12A0920D12B0920E1200930F12AE
:102B800010931012809311120E94A06C0C941E0CD2
:102B90000E94BC8060933112709332128093331282
:102BA000909334120E941A57DC01CB010A96A11DA2
:102BB000B11D8093351290933612A0933712B093C3
:102BC00038120E94A06C0C941E0C0E94838080918D
:102BD000E4099091E509892B09F029C668E172E0C2
:102BE00084E598E00E949F4486EC93E00E942C4686
:102BF0008111FACF8EEB0E945F6B80912F0B909129
:102C0000300B891B8F3F09F40BC68091350B9091D7
:102C1000360B8F3FEFEF9E0731F09927FC01E35D04
:102C2000F54F8FEF82838091330B8F5F8093330B4F
:102C30000C94440C0E94BC80609313127093141285
:102C4000809315129093161221E06115744081054E
:102C5000910509F4E3C5209312120E94A06C0C9414
:102C60001E0C0E941A576093F9097093FA09809319
:102C7000FB099093FC098E010F5F1F4F780110E351
:102C80000E941A576093E9097093EA098093EB094F
:102C90009093EC0920E030E0A90161E186EC93E03B
:102CA0000E944B57882309F43CC31093C6038091BC
:102CB000C903882321F086EC93E00E944D53809154
:102CC000CD0381508093CD03882309F48EC40E94E4
:102CD0001A578090E9099090EA09A090EB09B0900A
:102CE000EC09DC01CB0188199909AA09BB0980907C
:102CF000ED099090EE09A090EF09B090F009EFEF88
:102D00008E1A9E0AAE0ABE0A8092ED099092EE09D2
:102D1000A092EF09B092F0098090F1099090F20929
:102D2000A090F309B090F409880E991EAA1EBB1E4C
:102D30008092F1099092F209A092F309B092F409FD
:102D40008090F5099090F609A090F709B090F809E5
:102D500088169906AA06BB0608F092CF8093F5095B
:102D60009093F609A093F709B093F80989CF0E94D0
:102D7000A36DD82E10922D03882309F45FC50E94FD
:102D8000A36D8E010F5F1D4FD8018D935D0181E012
:102D900080932D03EE24E394ED0C82E0F82E0CC01A
:102DA0000E94A36DD5018D935D01F0922D03F394E4
:102DB000B1E4FB1609F421C4FE10F2CF9E012F5F8F
:102DC0003F4F790180E4D9011D928A95E9F74D2D95
:102DD00050E0B801C7010E945A810E941A576093BF
:102DE000190A70931A0A80931B0A90931C0AEEEF3B
:102DF0005E2ECC24CA9466246394712CA7E5DA2E47
:102E00000E941A576093090A70930A0A80930B0A6A
:102E100090930C0A8091C4039091C503892B09F00B
:102E2000A9C186EC93E00E947753882309F46DC30F
:102E30000E941A578090090A90900A0AA0900B0AE3
:102E4000B0900C0ADC01CB0188199909AA09BB09C9
:102E500040910D0A50910E0A60910F0A7091100A6C
:102E60004F5F5F4F6F4F7F4F40930D0A50930E0A95
:102E700060930F0A7093100A4091110A5091120A40
:102E80006091130A7091140A480F591F6A1F7B1F23
:102E90004093110A5093120A6093130A7093140A14
:102EA0008090150A9090160AA090170AB090180A00
:102EB00088169906AA06BB0608F0A2CF8093150AC9
:102EC0009093160AA093170AB093180A99CF0E94FC
:102ED000A36D182F0E94758021E030E03093420FDF
:102EE0002093410F10934D0F9093440F8093430F05
:102EF000812F0E94388010FDE7C39FB7F894E091BE
:102F00001B03F0911C03208180911A03822B808384
:102F10009FBF11FDCBC39FB7F894E0911803F091C8
:102F20001903208180911703822B80839FBF12FD9C
:102F3000AFC39FB7F894E0911503F0911603208179
:102F400080911403822B80839FBF13FD93C39FB78F
:102F5000F894E0911203F091130320818091110302
:102F6000822B80839FBF80916F00846080936F006D
:102F700081E080934E0F0E94A06C0C941E0C0E9466
:102F800075800E94A36D0E9475800E94A06C0C94B5
:102F90001E0CCE01865A9D4F0E94F680CE018B5AA0
:102FA0009D4F0E94F6800E9483804B015C01CE0100
:102FB000805B9D4F0E94F680CE01855B9D4F0E94F5
:102FC000F680CE018A5B9D4F0E94F6800E9483802E
:102FD0006B017C01CE018F5B9D4F0E94F680CE017C
:102FE0008F5F9D4F0E94F680CE0101960E94F68071
:102FF0000E94758025E0FE01E65AFD4FA4EEBFE079
:1030000001900D922A95E1F725E0FE01EB5AFD4F64
:10301000A9EEBFE001900D922A95E1F78092EE0FA4
:103020009092EF0FA092F00FB092F10F25E0FE0109
:10303000E05BFD4FA2EFBFE001900D922A95E1F712
:1030400025E0FE01E55BFD4FA7EFBFE001900D928B
:103050002A95E1F725E0FE01EA5BFD4FACEFBFE00A
:1030600001900D922A95E1F7C0920110D0920210C2
:10307000E0920310F092041025E0FE01EF5BFD4F9B
:10308000A5E0B0E101900D922A95E1F725E0FE015F
:10309000EF5FFD4FAAE0B0E101900D922A95E1F7B4
:1030A00025E0FE013196AFE0B0E101900D922A9546
:1030B000E1F79093F6118093F5110E94A06C0C94A7
:1030C0001E0C0E947580009709F4ACC22FB7F894CB
:1030D0009093440F8093430F2FBF0C94440CA82F60
:1030E000B0E06091370B7091380BB093360BA09322
:1030F000350BFB01FF27E35DF54F92819F5F9283C4
:10310000332309F49FC31FEFAD01435D554F7A018F
:103110000C942D0A8091370B825080932F0B0C94C6
:103120001908AE2FB0E06091370B7091380B8E2FDD
:10313000DCCF82E08283332309F48CC3A35DB54FD7
:1031400012968C9112978F5F12968C9382818F5F6B
:1031500082830C94110C8091370B825080932F0B3B
:103160000C94F40A2EE339E030931A1120931911CC
:103170000C94260886EC93E00E947753811158CE78
:1031800020E030E0A9016DE086EC93E00E944B570F
:10319000811108C08FEF8EBD0DB407FEFDCF8EB537
:1031A000882331F04091CA0369E28CE00E94014318
:1031B0008091C903882321F086EC93E00E944D534F
:1031C0001092C5031092C40385E08093CE030E9441
:1031D0001A570091090A10910A0A20910B0A30919E
:1031E0000C0ADC01CB01801B910BA20BB30B0091ED
:1031F0000D0A10910E0A20910F0A3091100A0F5FEC
:103200001F4F2F4F3F4F00930D0A10930E0A20932C
:103210000F0A3093100A0091110A1091120A20919E
:10322000130A3091140A080F191F2A1F3B1F00931D
:10323000110A1093120A2093130A3093140A009172
:10324000150A1091160A2091170A3091180A0817CA
:1032500019072A073B0740F48093150A9093160A32
:10326000A093170AB093180A0E941A570091190ADE
:1032700010911A0A20911B0A30911C0ADC01CB0123
:10328000801B910BA20BB30B00911D0A10911E0A1B
:1032900020911F0A3091200A0F5F1F4F2F4F3F4F81
:1032A00000931D0A10931E0A20931F0A3093200AD0
:1032B0000091210A1091220A2091230A3091240AB8
:1032C000080F191F2A1F3B1F0093210A1093220A7F
:1032D0002093230A3093240A0091250A1091260A8C
:1032E0002091270A3091280A081719072A073B0757
:1032F00040F48093250A9093260AA093270AB0935E
:10330000280A8AEA0E945F6B81E00C94D410DB01EA
:10331000892FEBCE8091370B825080932F0B0C942A
:103320001E0C40E052E0B70186EC93E00E94C957C2
:10333000882309F4BCCC8091C903811196C185E032
:103340008093CD030E941A570091E9091091EA0970
:103350002091EB093091EC09DC01CB01801B910B32
:10336000A20BB30B0091ED091091EE092091EF092A
:103370003091F0090F5F1F4F2F4F3F4F0093ED0922
:103380001093EE092093EF093093F0090091F109B1
:103390001091F2092091F3093091F409080F191FD7
:1033A0002A1F3B1F0093F1091093F2092093F309A0
:1033B0003093F4090091F5091091F6092091F7096D
:1033C0003091F809081719072A073B0740F4809342
:1033D000F5099093F609A093F709B093F8090E94B4
:1033E0001A570091F9091091FA092091FB093091BF
:1033F000FC09DC01CB01801B910BA20BB30B0091EC
:10340000FD091091FE092091FF093091000A0F5F1C
:103410001F4F2F4F3F4F0093FD091093FE0920933C
:10342000FF093093000A0091010A1091020A2091CD
:10343000030A3091040A080F191F2A1F3B1F00932B
:10344000010A1093020A2093030A3093040A0091A0
:10345000050A1091060A2091070A3091080A0817F8
:1034600019072A073B0740F48093050A9093060A40
:10347000A093070AB093080A8BEA0E945F6B81E071
:103480000E94096B6FE370E0C7010E946B81182FE7
:103490000E94096B112379F00FEF010F10E00F5F0D
:1034A0001F4F0E0D1F1DD7018D917D010E94096BCD
:1034B000E016F106C1F780912F0B9091300B891B1C
:1034C0008F3F09F427CF8091350B9091360B8F3FBA
:1034D000BFEF9B0711F00C94300E0C94360E8E2F1C
:1034E00090E0FF3F49F071E07E0FFC01E35DF54F96
:1034F000F282E72FF72FF01BD90112966C911297E9
:103500006F5F12966C930C946D1220E030E0A9016D
:1035100068E186EC93E00E944B5781117CC0D70193
:1035200080E090E02D91E92FFF27E227EE0FFF1FAB
:10353000E458F54F25913491982F882782279327B7
:10354000A017B10779F75EBC0DB407FEFDCF298146
:103550002EBD2A81FE0133960DB407FEFDCF2EBD90
:103560000E171F0711F02191F7CF0DB407FEFDCF05
:103570009EBD0DB407FEFDCF8EBD0DB407FEFDCF81
:10358000CEBC0DB407FEFDCF8EB58093CA038F71FC
:10359000853009F458C0D092C6038091C9038823AE
:1035A00021F086EC93E00E944D538091CE03815030
:1035B0008093CE0381113CCC4091CA036091C60335
:1035C0008CE00E94014334CC9093360B8093350BF2
:1035D00070932F0BFF3F09F49DCE8F3FEFEF9E07B7
:1035E00011F00C94300E0C94360E4091CA03609189
:1035F000C60389E00E9401436ACBFE0131967F0138
:1036000080E4DF011D928A95E9F7BFE3BD1508F05C
:10361000DECB40E4DDCB4091CA0362E38CE00E9444
:1036200001437DCF10924E0F0E94295280916F006E
:103630008B7F80936F000C94440C0196821B930B3C
:103640009A838983C4C886EC93E00E945E5370928B
:10365000C5036092C403ECCB00E010E047C862E011
:1036600084EA0E94E16C0C941E0C86EC93E00E94AC
:103670004D5365CE2FB7F894E0911203F0911303E8
:103680008081909111039095892380832FBF6BCC0B
:103690002FB7F894E0911503F09116038081909173
:1036A00014039095892380832FBF4FCC2FB7F894B4
:1036B000E0911803F0911903808190911703909580
:1036C000892380832FBF33CC2FB7F894E0911B035D
:1036D000F0911C03808190911A0390958923808337
:1036E0002FBF17CC8A8590E0A0E0B0E0AC01BD010F
:1036F0004F5F5F4F6F4F7F4F898590E0A0E0B0E054
:10370000BA2FA92F982F8827840F951FA61FB71FA0
:1037100048854F7350E060E070E0BA0155274427B8
:10372000840F951FA61FB71F2AE0880F991FAA1F95
:10373000BB1F2A95D1F70C94C6118F81837090E03E
:103740009C01322F2227330F330F8885F4E08F9F9F
:10375000C0011124822B932B29852295269526952D
:103760002370822B0196A0E0B0E04A854370440F9D
:103770002B8527FB222720F9422B2E812F7030E04A
:10378000240F311D2750310904C0880F991FAA1F2B
:10379000BB1F2A95D2F70C94C61168E172E08BE446
:1037A00096E00E949F4480912412909125120197E7
:1037B00011F00C94811283E090E090932512809395
:1037C000241210922712109226128FEF80931F124C
:1037D0001092231210922212109221121092201293
:1037E0008FE00E94388010922912109228120C94B7
:1037F000A8121092420F1092410F80ED97E0909323
:103800008B0080938A009093890080938800809138
:103810006F00846080936F000C94440C20E01BCAFE
:103820008091370B825080932F0B0C94440C68E1ED
:1038300072E083E598E00E949F44D0C98E010F5F3B
:103840001D4FBCCA8FEF9FEF9093360B8093350BC3
:103850000C94110C5093360B4093350B0C94110CB7
:10386000CF92DF92EF92FF920F931F93CF93DF934C
:103870008091391290913A128C3A23E0920711F418
:103880000C948A2F08F463C18A39F4E09F0709F485
:1038900073C608F088C18330A4E09A0711F40C9431
:1038A000A72808F099C5843DE3E09E0709F467C0A6
:1038B00010F40C944C2F8D3EB3E09B0711F40C9444
:1038C0001F288A3FE3E09E0711F40C944F28813EA5
:1038D000934011F00C94FD278091A81281508093A1
:1038E000A812882309F423C12091B6123091B7128F
:1038F0008091450F9091460FA091470FB091480FCE
:10390000820F931FA11DB11D8093450F9093460F09
:10391000A093470FB093480FE0913F0F81E08E0FC7
:1039200080933F0FF0E0EE0FFF1FEE0FFF1FE15CF3
:10393000F44F8091B4129091B512A091B612B0914B
:10394000B71280839183A283B38380914A129091AE
:103950004B12019790934B1280934A12892B11F4CA
:103960000C9406281092B9121092B81281E080933C
:10397000C01284ED93E090933A12809339120E9422
:103980006F698111DAC08091B312E091C712F09192
:10399000C812882311F40C94EB31A0812091AA1253
:1039A0003091AB124091AC125091AD12B0E00E9438
:1039B0003D81DC01CB014AE0B695A79597958795A7
:1039C0004A95D1F79093B7128093B6129091451211
:1039D0009093B51280914412882311F40C949C307A
:1039E0004091601250916112609162127091631265
:1039F00077FF02C00C9456360091881210918912FC
:103A000020918A1230918B12400F511F621F731F39
:103A1000409360125093611260936212709363122C
:103A200091609093B512813011F00C949C304091CC
:103A300068125091691260916A1270916B1277FF4F
:103A400002C00C9463340091901210919112209155
:103A5000921230919312400F511F621F731F4093B7
:103A600068125093691260936A1270936B1290916E
:103A7000B51294609093B512833039F140916C1275
:103A800050916D1260916E1270916F1277FF02C0AB
:103A90000C94793400919412109195122091961201
:103AA00030919712400F511F621F731F40936C1289
:103AB00050936D1260936E1270936F129091B512C5
:103AC00098609093B512843029F180917012909192
:103AD0007112A0917212B0917312B7FF02C00C94D0
:103AE000B535409198125091991260919A12709147
:103AF0009B12840F951FA61FB71F8093701290937F
:103B00007112A0937212B09373128091B5128061FA
:103B10008093B51281EE93E090933A12809339121C
:103B20008091A81281508093A8128111DDCE88EA7D
:103B300092E10E9480528111D7CE81E0DF91CF9136
:103B40001F910F91FF90EF90DF90CF900895843AEE
:103B5000B2E09B0711F40C94EE2608F0EDC081381A
:103B6000F2E09F0711F40C94042608F4EDC68D389A
:103B7000A2E09A0711F40C946A2610F40C943B2EE0
:103B8000853922E0920711F40C94AE268939A2E01F
:103B90009A0711F40C94CA268139924011F00C94C2
:103BA000FD270C948C268D3DB4E09B0711F40C94FA
:103BB000382A08F099C3873BF4E09F0709F477C0DF
:103BC00010F40C94242E873CE4E09E07E1F0833D42
:103BD000F4E09F0711F40C94032A823C944011F006
:103BE0000C94FD270E946F698111A7CFE091C71245
:103BF000F091C81280818093B51287EC94E0909385
:103C00003A12809339128091A81281508093A812A1
:103C1000882311F40C94512A2091B6123091B712D6
:103C20008091450F9091460FA091470FB091480F9A
:103C3000820F931FA11DB11D8093450F9093460FD6
:103C4000A093470FB093480FE0913F0F81E08E0F94
:103C500080933F0FF0E0EE0FFF1FEE0FFF1FE15CC0
:103C6000F44F8091B4129091B512A091B612B09118
:103C7000B71280839183A283B3838091A412909121
:103C8000A51201979093A5128093A412892B11F489
:103C90000C94612F1092B9121092B81281E08093A7
:103CA000C01287EB94E090933A12809339120E94ED
:103CB0006F69811142CFE091C712F091C8128081E3
:103CC000A0913E12B0913F12A80FB11D87FDBA9589
:103CD000B0933F12A0933E128091B312882311F447
:103CE0000C9446322091AA123091AB124091AC1242
:103CF0005091AD120E943D81DC01CB01FAE0B695F6
:103D0000A79597958795FA95D1F79093B7128093D9
:103D1000B6121092B9121092B81281E08093C012BC
:103D200082EC94E090933A12809339120E946F696A
:103D3000882309F45BCF01CF8B34E3E09E0709F4BD
:103D4000C7C108F0C1C4883023E0920711F40C9475
:103D5000D62710F40C94562F8533F3E09F0709F40F
:103D60008DC0823423E0920709F459C18C3093400E
:103D700011F00C94FD270E946F698111DECEE09155
:103D8000C712F091C81220813181309349122093DB
:103D9000481200914412E02FF0E0EE0FFF1FEE0FEB
:103DA000FF1FE75CFD4EC388D488E588F688C09283
:103DB0009C12D0929D12E0929E12F0929F12CCE43F
:103DC000D2E1E4E7F2E110E00117F1F04881598116
:103DD0006A817B81440F551F661F771FDB01CA0173
:103DE0008C199D09AE09BF098C8B9D8BAE8BBF8B47
:103DF00040835183628373838C199D09AE09BF0987
:103E0000848B958BA68BB78B1F5F249634961530C9
:103E1000D9F66091401270914112809142129091B6
:103E20004312FC01E60FF71F40914A1250914B12CA
:103E30004E0F5F1F240F351FC21AD30AE108F10885
:103E4000C092A012D092A112E092A212F092A312FC
:103E5000672B11F40C94062D8091B4128F7B809304
:103E6000B4121092B9121092B81282E08093C0126C
:103E700085E393E090933A12809339120E946F6920
:103E800081115BCE8091B312E091C712F091C812FC
:103E9000882311F40C948031A081B1812091AA1261
:103EA0003091AB124091AC125091AD120E943D8105
:103EB000DC01CB010AE0B695A795979587950A9501
:103EC000D1F79093B7128093B612909145129093C8
:103ED000B51280914412882311F40C94453040911E
:103EE000601250916112609162127091631277FFBB
:103EF00002C00C94313600918812109189122091E1
:103F00008A1230918B12400F511F621F731F409312
:103F10006012509361126093621270936312916009
:103F20009093B512813011F00C9445304091681295
:103F30005091691260916A1270916B1277FF02C002
:103F40000C941134009190121091911220919212C0
:103F500030919312400F511F621F731F40936812DC
:103F60005093691260936A1270936B129091B5121C
:103F700094609093B512833039F140916C12509156
:103F80006D1260916E1270916F1277FF02C00C94E7
:103F9000273400919412109195122091961230912D
:103FA0009712400F511F621F731F40936C12509362
:103FB0006D1260936E1270936F129091B5129860AB
:103FC0009093B512843029F1809170129091711202
:103FD000A0917212B0917312B7FF02C00C949B357E
:103FE000409198125091991260919A1270919B127F
:103FF000840F951FA61FB71F8093701290937112A4
:10400000A0937212B09373128091B5128061809365
:10401000B51282E493E090933A1280933912809122
:10402000A81281508093A812882311F40C94512A6D
:104030002091B6123091B7128091450F9091460FA2
:10404000A091470FB091480F820F931FA11DB11D82
:104050008093450F9093460FA093470FB093480F5E
:10406000E0913F0F81E08E0F80933F0FF0E0EE0F65
:10407000FF1FEE0FFF1FE15CF44F8091B41290918F
:10408000B512A091B612B091B71280839183A2832A
:10409000B3838091B4128F778093B41280914012D1
:1040A0009091411201979093411280934012892B75
:1040B00011F40C94022D1092B9121092B81282E0F1
:1040C0008093C0128BE493E090933A12809339125C
:1040D0000E946F69811131CD8091B312E091C712B6
:1040E000F091C812882311F40C94FB31A081B181A6
:1040F0002091AA123091AB124091AC125091AD12A6
:104100000E943D81DC01CB011AE0B695A7959795F9
:1041100087951A95D1F79093B7128093B612909124
:1041200045129093B51280914412882311F40C9497
:10413000EE30409160125091611260916212709164
:10414000631277FF02C00C94A93600918812109177
:10415000891220918A1230918B12400F511F621FD9
:10416000731F4093601250936112609362127093B8
:10417000631291609093B512813011F00C94EE307F
:10418000409168125091691260916A1270916B129D
:1041900077FF02C00C94D0340091901210919112CC
:1041A0002091921230919312400F511F621F731F82
:1041B000409368125093691260936A1270936B1265
:1041C0009091B51294609093B512833039F140917B
:1041D0006C1250916D1260916E1270916F1277FF98
:1041E00002C00C94E6340091941210919512209123
:1041F000961230919712400F511F621F731F409308
:104200006C1250936D1260936E1270936F129091B6
:10421000B51298609093B512843029F18091701294
:1042200090917112A0917212B0917312B7FF02C0F7
:104230000C940D36409198125091991260919A12F7
:1042400070919B12840F951FA61FB71F8093701249
:1042500090937112A0937212B09373128091B51261
:1042600080618093B51288E593E090933A12809331
:1042700039128091A81281508093A812882311F4DA
:104280000C9476312091B6123091B7128091450F7F
:104290009091460FA091470FB091480F820F931F46
:1042A000A11DB11D8093450F9093460FA093470F1A
:1042B000B093480FE0913F0F81E08E0F80933F0F46
:1042C000F0E0EE0FFF1FEE0FFF1FE15CF44F809157
:1042D000B4129091B512A091B612B091B71280832A
:1042E0009183A283B383DACE8230A5E09A0711F4DA
:1042F0000C94B22F10F40C94272F8C3125E09207E8
:1043000009F460C08532A5E09A0711F40C94742F6B
:104310008231954009F071C60E946F6981110DCC00
:10432000E091C712F091C812808191811092B5126C
:1043300020E533EC3093B7122093B61233C02091AE
:10434000B6123091B7128091450F9091460FA0910F
:10435000470FB091480F820F931FA11DB11D80938D
:10436000450F9093460FA093470FB093480F81E0FD
:104370008E0F80933F0FF0E0EE0FFF1FEE0FFF1F39
:10438000E15CF44F8091B4129091B512A091B612F5
:10439000B091B71280839183A283B3838091A612D8
:1043A0009091A7129C01215031093093A7122093BC
:1043B000A612892B09F483C18CE195E090933A12FF
:1043C00080933912E0913F0F8091400F9E2F981BF0
:1043D0009F3F09F0B4CFB1CB893224E0920711F4AA
:1043E0000C949C2F10F40C94462E8834F4E09F0714
:1043F00051F18C3424E0920709F446C08D33944087
:1044000009F0FBC50E946F69811197CBE091C7123B
:10441000F091C812808191819093A5128093A4128B
:104420001092B31280913B1285FF99C01092B9127D
:104430001092B81284E08093C01288E494E09093C4
:104440003A12809339120E946F69811176CBE09104
:10445000C712F091C81280819181A281B3818093AB
:10446000AE129093AF12A093B012B093B11210920B
:10447000B9121092B81281E08093C0128CE494E0DB
:1044800090933A12809339120E946F69811155CB33
:10449000E091C712F091C812C081C093B21280910E
:1044A000290A90912A0A95958795959587959595CE
:1044B0008795959587952091000230910102821B86
:1044C000930B97FF02C00C9440338436910514F48B
:1044D0000C9433322091EE113091EF1140E050E016
:1044E0006091AE127091AF128091B0129091B112A2
:1044F0000E940481DC01CB0104C0B695A795979575
:104500008795CA95D2F78130E0E19E07A105B105F4
:1045100020F080E090E1A0E0B0E08093AA129093B8
:10452000AB12A093AC12B093AD128130F4E09F07B0
:10453000A105B10510F40C944C3181E08093B312C5
:1045400080912012909121128E3F2FEF920711F44B
:104550000C94B13501969093211280932012109201
:10456000B9121092B81282E08093C0128AE994E0E6
:1045700090933A12809339120E946F698111DDCABB
:10458000E091C712F091C812A081B181B0933F129F
:10459000A0933E128091B312882311F40C94093039
:1045A0002091AA123091AB124091AC125091AD12F1
:1045B0000E943D81DC01CB01CAE0B695A795979595
:1045C0008795CA95D1F79093B7128093B61210923F
:1045D000B9121092B81281E08093C01285EA94E07B
:1045E00090933A12809339120E946F698111A5CA83
:1045F000E091C712F091C81280818093B5128AEAC7
:1046000094E090933A12809339128091A8128150CD
:104610008093A812882309F444C72091B6123091E0
:10462000B7128091450F9091460FA091470FB0911E
:10463000480F820F931FA11DB11D8093450F9093CA
:10464000460FA093470FB093480FE0913F0F81E0D2
:104650008E0F80933F0FF0E0EE0FFF1FEE0FFF1F56
:10466000E15CF44F8091B4129091B512A091B61212
:10467000B091B71280839183A283B3838091B412E7
:104680008F778093B41280913B1290913C1286FDFB
:1046900002C00C9436302091A4123091A512215002
:1046A00031093093A5122093A412232B09F0F2CAEA
:1046B00091FF05C08091A91281110E942B62109276
:1046C0003A121092391239CA8137B3E09B0711F4BC
:1046D0000C94E42D10F40C94302E8738A3E09A0744
:1046E00009F4DAC0813AB3E09B0709F4B0C78A370E
:1046F000934009F082C40E946F6981111ECA8091A3
:10470000B312E091C712F091C812882311F40C94EF
:10471000F331A0812091AA123091AB124091AC12DA
:104720005091AD12B0E00E943D81DC01CB01EAE086
:10473000B695A79597958795EA95D1F79093B71277
:104740008093B612909145129093B51280914412C5
:10475000882311F40C94C53040916012509161127D
:10476000609162127091631277FF02C00C949336CD
:10477000009188121091891220918A1230918B1227
:10478000400F511F621F731F4093601250936112BC
:10479000609362127093631291609093B5128130AE
:1047A00011F00C94C53040916812509169126091DB
:1047B0006A1270916B1277FF02C00C941135009150
:1047C0009012109191122091921230919312400FF9
:1047D000511F621F731F40936812509369126093B8
:1047E0006A1270936B129091B51294609093B51207
:1047F000833039F140916C1250916D1260916E12BC
:1048000070916F1277FF02C00C94273500919412BB
:10481000109195122091961230919712400F511FCE
:10482000621F731F40936C1250936D1260936E124F
:1048300070936F129091B51298609093B512843076
:1048400029F18091701290917112A0917212B09121
:104850007312B7FF02C00C94CB354091981250915F
:10486000991260919A1270919B12840F951FA61F46
:10487000B71F8093701290937112A0937212B0932D
:1048800073128091B51280618093B51287E893E02E
:1048900090933A12809339128091A812815080939C
:1048A000A812882309F4FDC52091B6123091B712E1
:1048B0008091450F9091460FA091470FB091480FFE
:1048C000820F931FA11DB11D8093450F9093460F3A
:1048D000A093470FB093480FE0913F0F81E08E0FF8
:1048E00080933F0FF0E0EE0FFF1FEE0FFF1FE15C24
:1048F000F44F8091B4129091B512A091B612B0917C
:10490000B71280839183A283B383809142129091E6
:10491000431201979093431280934212892B09F41A
:10492000D2C51092B9121092B81281E08093C012D1
:104930008AE793E090933A12809339120E946F694C
:10494000882309F4DCCEF9C88236A2E09A0709F47C
:1049500001C108F049C3009711F40C948D2F8034E5
:10496000924009F04AC30E946F698111E6C8E09144
:10497000C712F091C812C081CC3011F40C944736A4
:1049800010F00C948831C73009F4DEC0CB3011F43C
:104990000C949532C33011F40C94233680E00E94BD
:1049A000AD6B84E292E00E94956B81E00E94AD6B5A
:1049B0008CE292E00E94956B4AE065E070E080E056
:1049C00090E00E94C16B82E00E94AD6B85E392E0B3
:1049D0000E94956B8C2F90E0A0E0B0E04AE0BC0113
:1049E000CD010E94C16B83E00E94AD6B8EE392E02B
:1049F0000E94956B8DE392E00E94956B80912F0B46
:104A00009091300B282F291B2F3F41F1E1E0E80F57
:104A1000E0932F0BA82FB0E0A35DB54F12961C9228
:104A20002E2F291B2F3FD1F022E0280F20932F0B90
:104A3000F0E0E35DF54F33E03283422F50E05093D6
:104A4000380B4093370B291B2F3F41F08D5F80932C
:104A50002F0BFA01E35DF54F81E0828380912F0BEC
:104A6000282F30E03093360B2093350B482F491B0D
:104A70004F3F11F40C946A378F5F80932F0BD9014D
:104A8000A35DB54F81E012968C9312972091370B5E
:104A90003091380BF901FF27E35DF54F82818F5F7D
:104AA000828312968C9112978F5F12968C93A091AD
:104AB0002F0B8A2F891B8F3F11F40C94833781E0D1
:104AC0008A0F80932F0BB0E0A35DB54F45E012969F
:104AD0004C9342814F5F4283CC2311F40C944937AD
:104AE0000091350B1091360BA8015527435D554FAA
:104AF000DA0112966C9112976F5F12966C93682F81
:104B0000691B6F3F11F40C947F3761E0680F60936D
:104B10002F0BA82FB0E0A35DB54F1296CC938281E6
:104B20008F5F8283691B6F3F11F40C9454370F3FE2
:104B30001F4F19F08FEFFA0182838091330B8F5F43
:104B40008093330B0E94964182E692E090933A1252
:104B50008093391280913F0F9091400F891B80956F
:104B60008093A812882311F40C949D1D1092B91201
:104B70001092B81282E08093C01286E692E0909381
:104B80003A12809339120E946F6981110C949D1D15
:104B9000E091C712F091C8128081918180933B12FD
:104BA00090933C1287FF03C08F798093B4121092C8
:104BB000B9121092B81281E08093C01288E792E097
:104BC00090933A12809339120E946F6981110C946C
:104BD0009D1DE091C712F091C812908190934412EC
:104BE00081E001C0880F9A95EAF7809345121092F0
:104BF000B9121092B81284E08093C01281E892E05A
:104C000090933A12809339120E946F6981110C942B
:104C10009D1DE091C712F091C81280819181A281FF
:104C2000B38180934C1290934D12A0934E12B09387
:104C30004F121092B9121092B81284E08093C012F1
:104C400085E892E090933A12809339120E946F693E
:104C500081110C949D1DE091C712F091C8128081C2
:104C60009181A281B3818093501290935112A093AD
:104C70005212B09353121092B9121092B81284E0EB
:104C80008093C01289E892E090933A12809339128F
:104C90000E946F6981110C949D1DE091C712F091E3
:104CA000C81280819181A281B38180935412909324
:104CB0005512A0935612B09357121092B912109237
:104CC000B81284E08093C0128DE892E090933A127B
:104CD000809339120E946F6981110C949D1DE0919F
:104CE000C712F091C81280819181A281B381809313
:104CF000581290935912A0935A12B0935B121092CB
:104D0000B9121092B81284E08093C01281E992E047
:104D100090933A12809339120E946F6981110C941A
:104D20009D1DE091C712F091C81280819181A281EE
:104D3000B38180935C1290935D12A0935E12B09346
:104D40005F121092B9121092B81282E08093C012D2
:104D500085E992E090933A12809339120E946F692C
:104D600081110C949D1DE091C712F091C8128081B1
:104D7000918190934112809340121092B912109237
:104D8000B81282E08093C01289E992E090933A12BF
:104D9000809339120E946F6981110C949D1DE091DE
:104DA000C712F091C8128081918190934312809331
:104DB00042121092B31280913B1290913C1290FFDC
:104DC000B3C01092B9121092B81284E08093C0124E
:104DD00084EA92E090933A12809339120E946F69AC
:104DE00081110C949D1DE091C712F091C812808131
:104DF0009181A281B3818093AE129093AF12A09360
:104E0000B012B093B1121092B9121092B81281E0A0
:104E10008093C01288EA92E090933A1280933912FC
:104E20000E946F6981110C949D1DE091C712F09151
:104E3000C812C081C093B2126091AE127091AF12CD
:104E40008091B0129091B1126115710581059105A3
:104E500011F40C946E302091290A30912A0AA9018C
:104E6000559547955595479555954795559547952A
:104E70002091000230910102DA01A21BB30B9D01C7
:104E8000B7FF02C00C949335A436B10514F40C940A
:104E9000B0332091EE113091EF1140E050E00E94CC
:104EA0000481DC01CB0104C0B695A7959795879541
:104EB000CA95D2F78130E0E19E07A105B10520F047
:104EC00080E090E1A0E0B0E08093AA129093AB1252
:104ED000A093AC12B093AD1281309440A105B105FE
:104EE00010F40C94483381E08093B3128091201227
:104EF000909121128E3F2FEF920711F40C944537B9
:104F0000019690932112809320128091AA12909181
:104F1000AB12A091AC12B091AD1281159240A105D7
:104F2000B10510F40C9469331092B9121092B812B2
:104F300082E08093C0128EEF92E090933A128093B9
:104F400039120E946F6981110C949D1D8091B312DA
:104F5000E091C712F091C812882311F40C94DA2F53
:104F6000A081B1812091AA123091AB124091AC1274
:104F70005091AD120E943D81DC01CB012AE0B69533
:104F8000A795979587952A95D1F790934712809387
:104F900046121092B9121092B81282E08093C01299
:104FA00088E093E090933A12809339120E946F69DF
:104FB00081110C949D1DE091C712F091C81280815F
:104FC000918190934B1280934A121092B9121092D1
:104FD000B81282E08093C0128CE093E090933A1272
:104FE000809339120C94BB1E8636F2E09F0709F4B9
:104FF000CACD8837924009F4E7CD8FEF9FEF9093A9
:105000003A128093391280E00C949E1D80914812D0
:1050100090914912892B09F44FC28091B4128F7B71
:105020008093B4121092B9121092B81282E0809359
:10503000C0128DEE93E090933A12809339120E9441
:105040006F6981110C949D1D8091B312E091C7127C
:10505000F091C812882311F40C941731A081B1810A
:105060002091AA123091AB124091AC125091AD1226
:105070000E943D81DC01CB012AE0B695A79597956A
:1050800087952A95D1F79093B7128093B6120E9414
:10509000FA608AEF93E090933A12809339128091EC
:1050A000A81281508093A812882311F40C941F3108
:1050B0002091B6123091B7128091450F9091460F12
:1050C000A091470FB091480F820F931FA11DB11DF2
:1050D0008093450F9093460FA093470FB093480FCE
:1050E000E0913F0F81E08E0F80933F0FF0E0EE0FD5
:1050F000FF1FEE0FFF1FE15CF44F8091B4129091FF
:10510000B512A091B612B091B71280839183A28399
:10511000B3838091B4128F778093B4128091481238
:105120009091491201979093491280934812892BCC
:1051300009F4C2C11092B9121092B81282E08093A1
:10514000C01283E094E090933A12809339120E9447
:105150006F6981110C949D1D8091B312E091C7126B
:10516000F091C812882311F40C94E331A081B1812D
:105170002091AA123091AB124091AC125091AD1215
:105180000E943D81DC01CB010AE0B695A795979579
:1051900087950A95D1F79093B7128093B6129091A4
:1051A00045129093B51280914412882309F49DC74B
:1051B000409160125091611260916212709163127D
:1051C00077FF02C00C946C360091881210918912FE
:1051D00020918A1230918B12400F511F621F731F52
:1051E0004093601250936112609362127093631245
:1051F00091609093B512813009F077C740916812A1
:105200005091691260916A1270916B1277FF02C01F
:105210000C94A4340091901210919112209192124A
:1052200030919312400F511F621F731F40936812F9
:105230005093691260936A1270936B129091B51239
:1052400094609093B512833039F140916C12509173
:105250006D1260916E1270916F1277FF02C00C9404
:10526000BA340091941210919512209196123091B7
:105270009712400F511F621F731F40936C1250937F
:105280006D1260936E1270936F129091B5129860C8
:105290009093B512843029F180917012909171121F
:1052A000A0917212B0917312B7FF02C00C94F7353F
:1052B000409198125091991260919A1270919B129C
:1052C000840F951FA61FB71F8093701290937112C1
:1052D000A0937212B09373128091B5128061809383
:1052E000B51280E194E090933A1280933912809144
:1052F000A81281508093A812882309F4D2C020916B
:10530000B6123091B7128091450F9091460FA0913F
:10531000470FB091480F820F931FA11DB11D8093BD
:10532000450F9093460FA093470FB093480FE0911D
:105330003F0F81E08E0F80933F0FF0E0EE0FFF1FD5
:10534000EE0FFF1FE15CF44F8091B4129091B51203
:10535000A091B612B091B71280839183A283B383D8
:10536000DDCE8091A81281508093A812882309F481
:1053700098C02091B6123091B7128091450F90914C
:10538000460FA091470FB091480F820F931FA11DA8
:10539000B11D8093450F9093460FA093470FB09394
:1053A000480FE0913F0F81E08E0F80933F0FF0E0B8
:1053B000EE0FFF1FEE0FFF1FE15CF44F8091B41260
:1053C0009091B512A091B612B091B71280839183DB
:1053D000A283B3838091A4129091A5120197909318
:1053E000A5128093A412892B09F46BC51092B912EF
:1053F0001092B81282E08093C01283ED94E09093F3
:105400003A12809339120E946F6981110C949D1D8C
:105410008091B312E091C712F091C812882311F461
:105420000C943E32A081B1812091AA123091AB122E
:105430004091AC125091AD120E943D81DC01CB0134
:10544000EAE0B695A79597958795EA95D1F7909359
:10545000B7128093B6121092B9121092B81281E06E
:105460008093C0128DED94E090933A12809339129C
:105470000E946F6981110C949D1DE091C712F091FB
:10548000C81280818093B51282EE94E090933A1214
:10549000809339128091A81281508093A8128111B3
:1054A00068CF80913F0F9091400F891B809580932A
:1054B000A81281E00C949E1D80913B1290913C12A9
:1054C00092FDF8C8FCC88091A0129091A112A09101
:1054D000A212B091A312892B8A2B8B2B09F40AC23A
:1054E0008091B41283FF03C080648093B4128091D2
:1054F0004612909147129093B7128093B6129091F2
:1055000045129093B51280914412882309F487C5FF
:105510004091601250916112609162127091631219
:1055200077FF02C00C94E135009188121091891226
:1055300020918A1230918B12400F511F621F731FEE
:1055400040936012509361126093621270936312E1
:1055500091609093B512813009F061C54091681255
:105560005091691260916A1270916B1277FF02C0BC
:105570000C94BB33009190121091911220919212D1
:1055800030919312400F511F621F731F4093681296
:105590005093691260936A1270936B129091B512D6
:1055A00094609093B512833039F140916C12509110
:1055B0006D1260916E1270916F1277FF02C00C94A1
:1055C000D13300919412109195122091961230913E
:1055D0009712400F511F621F731F40936C1250931C
:1055E0006D1260936E1270936F129091B512986065
:1055F0009093B512843029F18091701290917112BC
:10560000A0917212B0917312B7FF02C00C9467356B
:10561000409198125091991260919A1270919B1238
:10562000840F951FA61FB71F80937012909371125D
:10563000A0937212B09373128091B512806180931F
:10564000B51281EA93E090933A12809339128091D7
:10565000A81281508093A812882309F422CF2091A8
:10566000B6123091B7124091450F5091460F60919C
:10567000470F7091480F420F531F611D711D4093DA
:10568000450F5093460F6093470F7093480FE0917A
:105690003F0F91E09E0F90933F0FF0E0EE0FFF1F42
:1056A000EE0FFF1FE15CF44F4091B4125091B51220
:1056B0006091B6127091B7124083518362837383F5
:1056C0009091B4129F779093B4124091A012509190
:1056D000A1126091A2127091A31241505109610967
:1056E00071094093A0125093A1126093A21270937B
:1056F000A312452B462B472B09F4F9C020914512E4
:105700002093B51290914412992309F485C64091D3
:10571000601250916112609162127091631277FF72
:1057200002C00C942F37C0908812D0908912E0905C
:105730008A12F0908B124C0D5D1D6E1D7F1D4093E3
:105740006012509361126093621270936312216031
:105750002093B512913009F05FC6409168125091C4
:10576000691260916A1270916B1277FF02C00C94FB
:105770000337009190121091911220919212309162
:105780009312400F511F621F731F40936812509372
:10579000691260936A1270936B122091B5122460A3
:1057A0002093B512933039F140916C1250916D12E3
:1057B00060916E1270916F1277FF02C00C94ED36FB
:1057C0000091941210919512209196123091971297
:1057D000400F511F621F731F40936C1250936D1244
:1057E00060936E1270936F122091B512286020930F
:1057F000B512943029F1409170125091711260915C
:1058000072127091731277FF02C00C9419370091D5
:1058100098121091991220919A1230919B12400F78
:10582000511F621F731F4093701250937112609347
:105830007212709373129091B51290619093B51299
:105840002CEA33E030933A1220933912815080933E
:10585000A812882309F4D7C52091B6123091B71247
:105860008091450F9091460FA091470FB091480F3E
:10587000820F931FA11DB11D8093450F9093460F7A
:10588000A093470FB093480FE0913F0F81E08E0F38
:1058900080933F0FF0E0EE0FFF1FEE0FFF1FE15C64
:1058A000F44F8091B4129091B512A091B612B091BC
:1058B000B71280839183A283B3838091A0129091C9
:1058C000A112A091A212B091A3120197A109B1094E
:1058D0008093A0129093A112A093A212B093A3124E
:1058E000892B8A2B8B2B09F0FEC49091B4129F7BDD
:1058F0009093B41280914A1290914B12892B09F423
:1059000085CB8091B4128F7B8093B4121092B91220
:105910001092B81281E08093C0128EEB93E09093C6
:105920003A12809339120E946F6981110C949D1D67
:105930008091B312E091C712F091C812882309F444
:1059400091C4A0812091AA123091AB124091AC1267
:105950005091AD12B0E00E943D81DC01CB016AE0C4
:10596000B695A795979587956A95D1F79093B712B5
:105970008093B6120E94FA608BEC93E090933A12F7
:10598000809339128091A81281508093A8128823A5
:1059900009F45FC42091B6123091B7128091450F7F
:1059A0009091460FA091470FB091480F820F931F1F
:1059B000A11DB11D8093450F9093460FA093470FF3
:1059C000B093480FE0913F0F81E08E0F80933F0F1F
:1059D000F0E0EE0FFF1FEE0FFF1FE15CF44F809130
:1059E000B4129091B512A091B612B091B712808303
:1059F0009183A283B3838091B4128F778093B41282
:105A00000C94A51C8091421290914312892B09F4A9
:105A10005ACD8091B4128F7B8093B4121092B91238
:105A20001092B81281E08093C01284E693E09093C4
:105A30003A12809339120E946F6981110C949D1D56
:105A40008091B312E091C712F091C812882309F433
:105A50001CC4A0812091AA123091AB124091AC12CB
:105A60005091AD12B0E00E943D81DC01CB01CAE053
:105A7000B695A79597958795CA95D1F79093B71244
:105A80008093B612909145129093B5128091441272
:105A9000882309F497C2409160125091611260917D
:105AA00062127091631277FF02C00C947D350091F1
:105AB00088121091891220918A1230918B12400F16
:105AC000511F621F731F40936012509361126093C5
:105AD00062127093631291609093B512813009F055
