:1000000058C6000087C6000085C6000083C60000F1
:1000100081C600007FC600007DC600007BC60000D0
:1000200079C6000077C6000075C6000073C60000E0
:1000300071C600006FC600006DC600006BC60000F0
:1000400069C600000C94504C0C94664863C60000CE
:1000500061C600005FC600005DC600000C94FC6530
:1000600059C600000C94B44E55C6000053C600009B
:1000700051C600004FC600004DC600004BC6000030
:1000800049C6000047C6000045C6000043C6000040
:1000900041C600003FC600003DC600003BC6000050
:1000A00039C6000037C6000035C6000033C6000060
:1000B00031C600002FC600002DC600002BC6000070
:1000C00029C6000027C6000025C6000023C6000080
:1000D00021C600001FC600001DC600001BC6000090
:1000E00019C60000161FDD1E1B1B1B1B1B1BAE1E93
:1000F000A11E9E1E711E5F1E5A1E1B1B1B1B1B1B5F
:100100001B1B1B1B1B1B1B1B1B1B1B1B1B1B1B1B3F
:100110001B1B571E541E1B1B1B1B1B1B441E411E5F
:100120003E1E3B1E1B1B381E1B1B1B1B971C921CC1
:10013000A61C9A1CB51C901CBE1CB21C301D1B1B9F
:100140001C1D191D161D0A1D1B1B1B1B041D1B1B23
:10015000FF1CEE1C261E0F1EDA1DD41D2E1E2B1E8C
:10016000311EB81DA21DDA1E656369636D6373637A
:10017000796364637F6385638B63916397639D6336
:10018000A363A9636463AF63B5635F631F6527659A
:100190002C65366540650E654A6552655A6564652D
:1001A0006E657865876591650E659B65A565AF652C
:1001B000441F041D671B2A1A2B195718A21706176C
:1001C0007B16001692152D15D1147C142E14E513F0
:1001D000A11362132613ED12B812851255122712BD
:1001E000FC11D211AA1184115F113B111911F810E1
:1001F000D910BA109C108010641049102F101510DF
:10020000FC0FE40FCD0FB60FA00F8A0F750F610F13
:100210004C0F390F250F130F000FEE0EDD0ECB0E16
:10022000BA0EAA0E990E890E7A0E6A0E5B0E4C0E4D
:100230003E0E2F0E210E130E060EF80DEB0DDE0DE9
:10024000D10DC50DB80DAC0DA00D940D880D7D0D13
:10025000710D660D5B0D500D450D3B0D300D260DDE
:100260001B0D110D070DFD0CF30CEA0CE00CD70C67
:10027000CD0CC40CBB0CB20CA90CA00C980C8F0CB0
:10028000860C7E0C760C6D0C650C5D0C550C4D0CC3
:10029000450C3D0C350C2E0C260C1F0C170C100CAD
:1002A000080C010CFA0BF30BEC0BE50BDE0BD70B78
:1002B000D00BC90BC20BBC0BB50BAE0BA80BA10B23
:1002C0009B0B950B8E0B880B820B7B0B750B6F0BAF
:1002D000690B630B5D0B570B510B4C0B460B400B23
:1002E0003A0B350B2F0B290B240B1E0B190B130B81
:1002F0000E0B080B030BFE0AF80AF30AEE0AE90AD2
:10030000E40ADE0AD90AD40ACF0ACA0AC50AC00A10
:10031000BB0AB60AB10AAD0AA80AA30A9E0A990A3C
:10032000950A900A8B0A870A820A7E0A790A740A59
:10033000700A6B0A670A620A5E0A5A0A550A510A6B
:100340004C0A480A440A400A3B0A370A330A2F0A71
:100350002A0A260A220A1E0A1A0A160A120A0E0A6D
:100360000A0A060A020AFE09FA09F609F209EE0962
:10037000EA09E609E209DE09DA09D709D309CF0952
:10038000CB09C809C409C009BC09B909B509B10933
:10039000AE09AA09A609A3099F099B09980994090E
:1003A00091098D098A09860983097F097C097809E1
:1003B000750971096E096B096709640960095D09AE
:1003C0005A095609530950094C0949094609420975
:1003D0003F093C093909350932092F092C09290936
:1003E000250922091F091C091909160912090F09F3
:1003F0000C090909060903090009FD08FA08F708AC
:10040000F408F108ED08EA08E708E408E108DE0866
:10041000DB08D908D608D308D008CD08CA08C70811
:10042000C408C108BE08BB08B808B508B308B008BE
:10043000AD08AA08A708A408A1089F089C08990865
:100440009608930891088E088B0888088608830808
:1004500080087D087B0878087508720870086D08A8
:100460006A086808650862085F085D085A08570846
:10047000550852084F084D084A08480845084208E0
:1004800040083D083A0838083508330830082E0877
:100490002B0828082608230821081E081C0819080C
:1004A0001708140811080F080C080A08070805089F
:1004B00002080008FD07FB07F807F607F307F10736
:1004C000EE07EC07EA07E707E507E207E007DD07C5
:1004D000DB07D807D607D407D107CF07CC07CA0751
:1004E000C707C507C307C007BE07BB07B907B707DC
:1004F000B407B207B007AD07AB07A807A607A40764
:10050000A1079F079D079A079807960793079107EA
:100510008F078C078A0788078507830781077E076F
:100520007C077A0778077507730771076E076C07F2
:100530006A0767076507630761075E075C075A0775
:1005400058075507530751074F074C074A074807F5
:100550004607430741073F073D073A073807360775
:10056000340731072F072D072B07290726072407F4
:10057000220720071D071B07190717071507120772
:1005800010070E070C070A070707050703070107EF
:10059000FF06FC06FA06F806F606F406F206EF0673
:1005A000ED06EB06E906E706E506E206E006DE06EE
:1005B000DC06DA06D806D506D306D106CF06CD0668
:1005C000CB06C806C606C406C206C006BE06BC06E2
:1005D000B906B706B506B306B106AF06AD06AA065C
:1005E000A806A606A406A206A0069E069C069906D4
:1005F00097069506930691068F068D068B0688064C
:1006000086068406820680067E067C067A067706C3
:100610007506730671066F066D066B06690666063B
:100620006406620660065E065C065A0658065606B2
:10063000530651064F064D064B064906470645062A
:10064000430640063E063C063A06380636063406A1
:10065000320630062D062B06290627062506230618
:1006600021061F061D061A0618061606140612068F
:1006700010060E060C060A06070605060306010606
:10068000FF05FD05FB05F905F605F405F205F00586
:10069000EE05EC05EA05E805E505E305E105DF05FE
:1006A000DD05DB05D905D705D405D205D005CE0576
:1006B000CC05CA05C805C605C305C105BF05BD05EE
:1006C000BB05B905B705B405B205B005AE05AC0567
:1006D000AA05A705A505A305A1059F059D059B05E1
:1006E000980596059405920590058E058B0589055C
:1006F00087058505830581057E057C057A057805D6
:100700007605730571056F056D056B056805660552
:100710006405620560055D055B05590557055505CE
:10072000520550054E054C0549054705450543054D
:1007300041053E053C053A053805350533053105CB
:100740002F052C052A0528052605230521051F054B
:100750001C051A0518051605130511050F050C05CE
:100760000A050805060503050105FF04FC04FA0453
:10077000F804F504F304F104EE04EC04EA04E704DD
:10078000E504E304E004DE04DB04D904D704D40464
:10079000D204D004CD04CB04C804C604C404C104EC
:1007A000BF04BC04BA04B804B504B304B004AE0476
:1007B000AB04A904A604A404A1049F049D049A0404
:1007C00098049504930490048E048B048904860491
:1007D000830481047E047C04790477047404720425
:1007E0006F046C046A046704650462045F045D04BA
:1007F0005A0458045504520450044D044A04480451
:100800004504420440043D043A04370435043204EC
:100810002F042D042A042704240421041F041C048B
:1008200019041604130411040E040B04080405042F
:1008300002040004FD03FA03F703F403F103EE03DB
:10084000EB03E803E503E203DF03DC03D903D6038C
:10085000D303D003CD03CA03C703C403C103BE033C
:10086000BB03B703B403B103AE03AB03A803A403F4
:10087000A1039E039B039703940391038E038A03B2
:100880008703840380037D037903760373036F0377
:100890006C036803650361035E035A035703530344
:1008A0004F034C034803440341033D03390336031C
:1008B00032032E032A03260323031F031B031703FC
:1008C00013030F030B0307030303FF02FB02F702EB
:1008D000F302EE02EA02E602E202DD02D902D502EA
:1008E000D002CC02C702C302BE02BA02B502B102F4
:1008F000AC02A702A3029E02990294028F028A020E
:10090000850280027B02760271026C02660261023D
:100910005C02560251024B02460240023A02340285
:100920002F02290223021D02160210020A020402EB
:10093000FD01F701F001E901E201DC01D501CD0182
:10094000C601BF01B701B001A801A0019801900143
:100950008801800177016E0165015C0153014A0144
:10096000400136012C01220117010C010101F500A3
:10097000EA00DD00D100C400B600A9009A008B0097
:100980007C006C005B004900370023000F00F9FF7A
:1009900000002110422063308440A550C660E770FB
:1009A000088129914AA16BB18CC1ADD1CEE1EFF1A3
:1009B0003112100273325222B5529442F772D6624B
:1009C000399318837BB35AA3BDD39CC3FFF3DEE3F3
:1009D0006224433420040114E664C774A44485549B
:1009E0006AA54BB528850995EEE5CFF5ACC58DD543
:1009F0005336722611163006D776F6669556B446EB
:100A00005BB77AA719973887DFF7FEE79DD7BCC792
:100A1000C448E5588668A77840086118022823383A
:100A2000CCC9EDD98EE9AFF9488969990AA92BB9E2
:100A3000F55AD44AB77A966A711A500A333A122A8A
:100A4000FDDBDCCBBFFB9EEB799B588B3BBB1AAB32
:100A5000A66C877CE44CC55C222C033C600C411CDA
:100A6000AEED8FFDECCDCDDD2AAD0BBD688D499D82
:100A7000977EB66ED55EF44E133E322E511E700E2A
:100A80009FFFBEEFDDDFFCCF1BBF3AAF599F788FD2
:100A90008891A981CAB1EBA10CD12DC14EF16FE1B2
:100AA0008010A100C230E3200450254046706760EA
:100AB000B9839893FBA3DAB33DC31CD37FE35EF302
:100AC000B1029012F322D23235421452776256723A
:100AD000EAB5CBA5A89589856EF54FE52CD50DC552
:100AE000E234C324A014810466744764245405448A
:100AF000DBA7FAB79987B8975FE77EF71DC73CD7A2
:100B0000D326F2369106B0165766767615463456D9
:100B10004CD96DC90EF92FE9C899E9898AB9ABA9F1
:100B20004458654806782768C018E1088238A32829
:100B30007DCB5CDB3FEB1EFBF98BD89BBBAB9ABB41
:100B4000754A545A376A167AF10AD01AB32A923A79
:100B50002EFD0FED6CDD4DCDAABD8BADE89DC98D91
:100B6000267C076C645C454CA23C832CE01CC10CC9
:100B70001FEF3EFF5DCF7CDF9BAFBABFD98FF89FE1
:100B8000176E367E554E745E932EB23ED10EF01E19
:100B900000002100240027002A002D00300033002F
:100BA00001010000040107010A01000022002500E4
:100BB00028002B002E003100340002010000050146
:100BC00008010B01000020002300260029002C0052
:100BD0002F00320000010000030106010901050594
:100BE0000505070508080808020202020A0A0808A3
:100BF00004040404010101010101010103030303D1
:100C000003030303040707070C0C0C0C0C0C0C0C5F
:100C10000202020206060606060606060B0B0B0B70
:100C20000B0B0B0B01021020200808102040102095
:100C300040800201020108040201010204081020A0
:100C4000408080402010080402018004020180409E
:100C50002010080402010804020101020408102007
:100C60004080010204081020408000000A0B0209A5
:100C70000C0D0E0807030401000000000000000036
:100C80000000000000000000000000000000000064
:100C90000000000000001211100000000000000021
:100CA0000000000000000000000000000000000044
:100CB000DC7211241FBECFEFD1E2DEBFCDBF00E05A
:100CC0000CBF12E0A0E0B2E0E2EEF3E001E00BBF07
:100CD00002C007900D92AC37B107D9F723E1ACE71A
:100CE000B2E001C01D92AF30B207E1F716E0C9E5EE
:100CF000D6E000E006C021970109802FFE010E9486
:100D0000AE81C835D10780E00807A9F70E947D6849
:100D10000C94E28175C94F925F926F927F928F928D
:100D20009F92AF92BF92CF92DF92EF92FF920F937A
:100D30001F93CF93DF93CDB7DEB7C756D1090FB658
:100D4000F894DEBF0FBECDBF0E94F065C0902312A5
:100D5000D0902412E0902512F0902612DC01CB01F5
:100D60008C199D09AE09BF09C0902712D090281296
:100D7000E0902912F0902A122FEFC21AD20AE20A4A
:100D8000F20AC0922712D0922812E0922912F09211
:100D90002A12C0902B12D0902C12E0902D12F090BD
:100DA0002E12C80ED91EEA1EFB1EC0922B12D09224
:100DB0002C12E0922D12F0922E12C0902F12D09091
:100DC0003012E0903112F0903212C816D906EA06BD
:100DD000FB0640F480932F1290933012A0933112AF
:100DE000B09332120E94F0656B017C0180918D02FC
:100DF000882309F484C18090890290908A02A0908F
:100E00008B02B0908C0280918102811111C0D701B8
:100E1000C6018C599F4FAF4FBF4F80937D02909377
:100E20007E02A0937F02B093800281E080938102D2
:100E30000E94F0656093A3127093A4128093A51290
:100E40009093A612C814D904EA04FB0408F4CAC09B
:100E5000D701C6010A96A11DB11D80938902909306
:100E60008A02A0938B02B0938C0280915C119091C6
:100E70005D11029709F4A3C50E94F06560933312D7
:100E80007093341280933512909336128091890FAB
:100E900090918A0F863F910509F455C18C3031E05D
:100EA000930709F4A7C1892B09F43CC18FEF9FEF89
:100EB00090938A0F8093890F0E94F06500913312FE
:100EC000109134122091351230913612DC01CB0191
:100ED000801B910BA20BB30B8090371290903812AD
:100EE000A0903912B0903A12EFEF8E1A9E0AAE0A15
:100EF000BE0A8092371290923812A0923912B092A4
:100F00003A1280903B1290903C12A0903D12B0900B
:100F10003E12880E991EAA1EBB1E80923B12909212
:100F20003C12A0923D12B0923E1280903F129090DF
:100F30004012A0904112B090421288169906AA065B
:100F4000BB0640F480933F1290934012A09341124D
:100F5000B09342128091611190916211A09163113E
:100F6000B09164110097A105B10531F0C816D906FA
:100F7000EA06FB0608F090C780916611882341F0CD
:100F80009091030480910404981711F40C94D619DD
:100F90008091671190916811A0916911B0916A11C7
:100FA000B7FD15C040916B1150916C1160916D119E
:100FB00070916E11C416D506E606F70640F0309122
:100FC000030420910404321711F40C942914809125
:100FD0005A1190915B11039711F40C94E3108FEF69
:100FE000809355110E94F065C0907D02D0907E02E2
:100FF000E0907F02F09080026C157D058E059F05C4
:1010000008F041C30E94F0656093931270939412AC
:1010100080939512909396120E94A61F0E94F065ED
:10102000C0909312D0909412E0909512F090961286
:10103000DC01CB018C199D09AE09BF09C090971244
:10104000D0909812E0909912F0909A124FEFC41A33
:10105000D40AE40AF40AC0929712D0929812E0924D
:101060009912F0929A12C0909B12D0909C12E0902C
:101070009D12F0909E12C80ED91EEA1EFB1EC09251
:101080009B12D0929C12E0929D12F0929E12C09000
:101090009F12D090A012E090A112F090A212C81658
:1010A000D906EA06FB0640F480939F129093A012A3
:1010B000A093A112B093A2120E94F06560937312E4
:1010C000709374128093751290937612809101033D
:1010D000909102038B37910509F4B3C608F4F7C168
:1010E000833A910509F4E3C008F4CFC0863A91052C
:1010F00009F4EBC0893A910509F4F5C0F0C1460145
:1011000057013AE0830E911CA11CB11C8092890208
:1011100090928A02A0928B02B0928C0281E080931E
:101120008D0271CE88E080937B0085E480937C0003
:1011300080917A00806480937A0086EF90E09093AB
:101140008A0F8093890F80917A0086FDB5CE8091B9
:10115000780090917900039797FF02C00C94F81AD9
:10116000803F43E0940714F00C948014FC01EE0FD0
:10117000FF1FE055FE4F85919491E0910C1021E006
:101180002E0F20930C10EF71F0E0EE0FFF1FE453D1
:10119000F04F91838083ECE0F0E140E050E0BA0151
:1011A00092918291092E000CAA0BBB0B480F591F7C
:1011B0006A1F7B1F8FE0EC3CF80791F715E07595EF
:1011C0006795579547951A95D1F75093FC02409330
:1011D000FB0288E080937B0087E480937C00809111
:1011E0007A00806480937A008CE091E090938A0F7B
:1011F0008093890F80917A0086FD5ECE8091780081
:1012000090917900039797FF02C00C94251B803FB3
:10121000A3E09A0714F00C945315FC01EE0FFF1F86
:10122000E055FE4F85919491E091CB0F21E02E0F78
:101230002093CB0FEF71F0E0EE0FFF1FE757F04F59
:1012400093838283EBECFFE040E050E0BA0192919F
:101250008291092E000CAA0BBB0B480F591F6A1F65
:101260007B1FBFE0EB38FB0791F7E5E075956795CD
:1012700057954795EA95D1F75093FE024093FD02AA
:1012800010928A0F1092890F17CE803A910509F0BB
:1012900026C18091C00085FF3DC080910D048093E0
:1012A000C60083EA90E0909302038093010380914B
:1012B000C00085FF2FC0809111048093C60086EA8C
:1012C00090E090930203809301038091C00085FF1A
:1012D00021C080910F048093C60089EA90E090932A
:1012E00002038093010380910704815080930704D7
:1012F00081110CC09091030480910404981731F07F
:1013000063E372E08EEA90E00E94493E109202038D
:10131000109201030E94F065C0907312D090741275
:10132000E0907512F0907612DC01CB018C199D09CA
:10133000AE09BF09C0907712D0907812E090791270
:10134000F0907A126FEFC61AD60AE60AF60AC09231
:101350007712D0927812E0927912F0927A12C090BD
:101360007B12D0907C12E0907D12F0907E12C80E1D
:10137000D91EEA1EFB1EC0927B12D0927C12E09214
:101380007D12F0927E12C0907F12D0908012E09079
:101390008112F0908212C816D906EA06FB0640F4C4
:1013A00080937F1290938012A0938112B093821247
:1013B0000E94F065609363127093641280936512CB
:1013C0009093661280914F10909150108B31A9E04C
:1013D0009A0709F4CFC708F4E9C0833549E09407B8
:1013E00011F40C94881208F4C2C28D35E9E09E070E
:1013F00011F40C9450128336994011F00C94081299
:101400006091591070915A108091860F9091850FBC
:10141000981B562F23E0260F921710F40C945F1799
:10142000662311F40C941E1C90E02091571030910B
:101430005810DC01AB57B14FFD0101964FEF460F3D
:10144000840F911D8B57914F41912427022E229595
:10145000207F2025032E322F22952F7002262695DD
:1014600032272327220F220F220F2025E817F90702
:1014700059F73093581020935710890181E0850F58
:10148000FD01E80FF11D808192E0950F9D01290F6C
:10149000311DF9013081A60FB11D9C91933011F4DB
:1014A0000C94BF1B943011F40C94CD1A923011F4AB
:1014B0000C94CE1A90E0932B8017910711F40C94A2
:1014C000FE1A6091551085E00E94856792C38C36A4
:1014D000910591F08237910531F1892B39F08FEF29
:1014E0009FEF909302038093010314CF8CE690E06A
:1014F000909302038093010380910704882309F4E9
:1015000009CFE091040481E08E0F80930404F0E0A1
:10151000EF5FFC4F82818093080482E790E0909314
:101520000203809301038091C00085FFF3CE809178
:1015300008048093C6008FEF9FEF9093060480937A
:101540000504E0910404F0E0EF5FFC4F828180939A
:101550000804811170C48091050490910604292F1C
:1015600033273093100420930F04AC015527509378
:10157000120440931104892B11F40C946A14232B48
:1015800011F00C94C21A82E090E090930E048093C4
:101590000D0481E090E09093100480930F0480EAA2
:1015A00090E0909302038093010373CE893DE8E0BD
:1015B0009E0709F40DC308F402C3853E28E0920794
:1015C00009F46FC68930994009F022C7E091860F6F
:1015D0004091850FE41711F40C94731981E08E0F7C
:1015E0008093860FF0E0EB57F14F808180935B1082
:1015F00020915710309158102827022E2295207FD5
:101600002025032E322F22952F7002262695322771
:101610002327220F220F220F2025309358102093CA
:1016200057102091591030915A1090E001972817C7
:10163000390710F40C945915782F80935C10281BEF
:10164000310930935A1020935910772311F40C94D8
:101650009815672F713108F060E160935D108BE1A0
:1016600099E09093501080934F108091860F942FA3
:10167000981B961710F40C94341870915C10761B1C
:1016800070935C108AC6DC01CB018C599F4FAF4F21
:10169000BF4F80937D0290937E02A0937F02B09310
:1016A00080020E94F065609343127093441280930D
:1016B0004512909346128091FB029091FC02803576
:1016C00091050CF46BC78132B2E19B070CF0F3C3B8
:1016D00060911C1061110C949017C090F012D09082
:1016E000F112C81AD90A0D2C000CEE08FF08E0917F
:1016F0000D10F0910E10F7FE02C00C945B1AB0E1D1
:10170000EE31FB0711F40C948614A701960164E4F2
:1017100070E18EE190E10E94E7450E94F065C09083
:101720004312D0904412E0904512F0904612DC0132
:10173000CB018C199D09AE09BF09C0904712D0900A
:101740004812E0904912F0904A12FFEFCF1ADF0AD8
:10175000EF0AFF0AC0924712D0924812E092491253
:10176000F0924A12C0904B12D0904C12E0904D1261
:10177000F0904E12C80ED91EEA1EFB1EC0924B12EC
:10178000D0924C12E0924D12F0924E12C0904F1235
:10179000D0905012E0905112F0905212C816D90613
:1017A000EA06FB0640F480934F1290935012A093E8
:1017B0005112B09352120E94F065C090A312D090C3
:1017C000A412E090A512F090A612DC01CB018C19B6
:1017D0009D09AE09BF098093A3129093A412A09310
:1017E000A512B093A61280915A1190915B110297A5
:1017F00011F40C946F180E94F065C090A312D09061
:10180000A412E090A512F090A612DC01CB018C1975
:101810009D09AE09BF098093A3129093A412A093CF
:10182000A512B093A61280915A1190915B11039763
:1018300009F0E8CB80915C1190915D1181309105A8
:1018400011F40C94EF198091310A9091320A892B8E
:1018500009F0D8CB409127065091280660912906BF
:1018600070912A0680912B0A90912C0AA0912D0A42
:10187000B0912E0A481759076A077B0709F0C2CBB7
:101880002091F4113091F5118091F2119091F311A2
:101890002817390709F0B6CB9091760E8091770E14
:1018A0009813B0CB80916F008D7F80936F008091F3
:1018B0006F008B7F80936F0081E090E090935B11CD
:1018C00080935A1110925D1110925C119093DB116C
:1018D0008093DA1181E090E0A0E0B0E08093D6112F
:1018E0009093D711A093D811B093D9111092DF1112
:1018F0001092701110926F111092F5111092F41154
:101900001092F3111092F2111092270610922806ED
:101910001092290610922A06109222061092210691
:1019200010922B0A10922C0A10922D0A10922E0A55
:101930001092330A8093230690932406A0932506E1
:10194000B09326061092770E1092760E1092800EAB
:101950001092810E1092820E1092830E10927C0EC5
:1019600010927D0E10927E0E10927F0E4BCB85331F
:10197000A9E09A0709F453C58B34994009F048C58A
:101980008091310A9091320A892B09F03AC182E0A4
:1019900090E09093320A8093310A109220041092C2
:1019A0001F04809155108F5F09F481E080935510DA
:1019B00083E599E09093501080934F1022C1E091FD
:1019C000CA12F091CB1290818091C912892309F437
:1019D00036C3E091B712F091B81290818091B6129F
:1019E000892309F42CC3E091B412F091B5129081CF
:1019F0008091B312892309F422C34091B912509106
:101A0000BA126091BB127091BC1277FD3CC08091FC
:101A1000391190913A11A0913B11B0913C1184176A
:101A20009507A607B7077CF18091BD129091BE1271
:101A3000A091BF12B091C012B7FD25C040913D11D9
:101A400050913E1160913F11709140114817590714
:101A50006A077B07C4F08091C1129091C212A091D5
:101A6000C312B091C412B7FD0EC040914111509104
:101A700042116091431170914411481759076A0748
:101A80007B070CF0F9C980E00E94BB6180E192E025
:101A90000E94A36181E00E94BB6188E192E00E9404
:101AA000A36184E090E00E94316282E00E94BB6109
:101AB00081E292E00E94A36189E292E00E94A36128
:101AC00083E00E94BB618AE292E00E94A36189E206
:101AD00092E00E94A3618FEF9FEF90930A0480939E
:101AE00009048091030490910404282F291B2F3F9F
:101AF00041F1E1E0E80FE0930304A82FB0E0AF5F0D
:101B0000BC4F12961C922E2F291B2F3FD1F022E0A2
:101B1000280F20930304F0E0EF5FFC4F33E03283A3
:101B2000422F50E050930C0440930B04291B2F3F8D
:101B300041F08D5F80930304FA01EF5FFC4F81E079
:101B4000828384E00E9461608091090490910A047C
:101B50005091040420910B0430910C043327A9EB1D
:101B6000B2E12F5F3C4F61E01FC0FC01FF27EF5F38
:101B7000FC4F42814F5F4283E09103044E2F451B8F
:101B80004F3F41F041E04E0F40930304F0E0EF5F20
:101B9000FC4F7283F90142814F5F4283F2E1A53C21
:101BA000BF0711F40C94DF177D918F3F4FEF94071F
:101BB00009F4FEC77111D9CF8FEF9FEFEFCF892BBB
:101BC00009F026C489ED98E09093501080934F104F
:101BD000E091860F8091850F8E1799F081E08E0F2E
:101BE0008093860FF0E0EB57F14F8081882309F452
:101BF00042C31092860F1092850F109250101092CF
:101C00004F100E94F065C0906312D0906412E09073
:101C10006512F0906612DC01CB018C199D09AE09AA
:101C2000BF09C0906712D0906812E0906912F090DE
:101C30006A12EFEFCE1ADE0AEE0AFE0AC0926712AF
:101C4000D0926812E0926912F0926A12C0906B1200
:101C5000D0906C12E0906D12F0906E12C80ED91EEA
:101C6000EA1EFB1EC0926B12D0926C12E0926D12B3
:101C7000F0926E12C0906F12D0907012E0907112BC
:101C8000F0907212C816D906EA06FB0640F480935B
:101C90006F1290937012A0937112B09372120E94FF
:101CA000F0656093831270938412809385129093F1
:101CB000861283E194E00E94D63F0E94F065C090B6
:101CC0008312D0908412E0908512F0908612DC018D
:101CD000CB018C199D09AE09BF09C0908712D09025
:101CE0008812E0908912F0908A12FFEFCF1ADF0A73
:101CF000EF0AFF0AC0928712D0928812E0928912EE
:101D0000F0928A12C0908B12D0908C12E0908D12BB
:101D1000F0908E12C80ED91EEA1EFB1EC0928B12C6
:101D2000D0928C12E0928D12F0928E12C0908F128F
:101D3000D0909012E0909112F0909212C816D906AD
:101D4000EA06FB0640F480938F1290939012A093C2
:101D50009112B09392120E94F065C090A312D0909D
:101D6000A412E090A512F090A612DC01CB018C1910
:101D70009D09AE09BF09C090A712D090A812E090AB
:101D8000A912F090AA122FEFC21AD20AE20AF20A9E
:101D9000C092A712D092A812E092A912F092AA12B1
:101DA000C090AB12D090AC12E090AD12F090AE1299
:101DB000C80ED91EEA1EFB1EC092AB12D092AC1206
:101DC000E092AD12F092AE12C090AF12D090B0126D
:101DD000E090B112F090B212C816D906EA06FB06DE
:101DE00040F48093AF129093B012A093B112B093CD
:101DF000B2120E94F06560932312709324128093B4
:101E0000251290932612C959DF4F0FB6F894DEBF02
:101E10000FBECDBFDF91CF911F910F91FF90EF903B
:101E2000DF90CF90BF90AF909F908F907F906F90FA
:101E30005F904F9008958BE790E09093020380931A
:101E400001038091C00085FF65CA2091080420939A
:101E5000C600E0910404EF5FE09304048091050460
:101E6000909106048227082E8295807F8025092E76
:101E7000982F82958F700826869598278927880F36
:101E8000880F880F80259093060480930504209185
:101E90000304E21358CB63CB6091601170E089E0DA
:101EA0000E94F664109261111092621110926311F7
:101EB0001092641161C880E00E94BB6180E192E0F1
:101EC0000E94A36181E00E94BB6188E192E00E94D0
:101ED000A3618BE090E00E94316282E00E94BB61CE
:101EE00081E292E00E94A36181E090E00E94316271
:101EF00083E00E94BB618AE292E00E94A36180912C
:101F0000FB029091FC0295958795959587959595FF
:101F10008795959587950E943162F09003042091F2
:101F200004049F2D921B9F3F09F4CCC5E1E0EF0D07
:101F3000E0930304AF2DB0E0AF5FBC4F12961C924C
:101F40009E2F921B9F3F09F4ECC592E09F0D90934A
:101F50000304F0E0EF5FFC4F83E08283492F50E001
:101F600050930C0440930B04921B9F3F11F40C946C
:101F70008A1BF3E0EF2EEF0CE0920304DA01AF5F6F
:101F8000BC4F81E012968C9312970E2D10E09E2D7F
:101F9000921B10930A04009309049F3F11F40C94C0
:101FA0008C1F34E03F0D30930304B8016F5F7C4F0A
:101FB000FB01828312968C9112978F5F12968C93FD
:101FC0001297C80112811F5F1283E32FE21BEF3FBC
:101FD00009F493C5E5E0EE2EEF0CE0920304832FA5
:101FE00090E08F5F9C4F3BE0FC0132839E2D921B63
:101FF00012968C9112978F5F12968C931297FB0119
:1020000082818F5F82839F3F11F40C94E21981E0FB
:102010008E0D80930304EE2DF0E0EF5FFC4F91E016
:10202000928312969C9112979F5F12969C93821BAB
:102030008F3F09F072C342504093030477C380E09E
:102040000E94BB6180E192E00E94A36181E00E9456
:10205000BB6188E192E00E94A36183E090E00E946E
:10206000316282E00E94BB6181E292E00E94A36142
:1020700089E292E00E94A36183E00E94BB618AE250
:1020800092E00E94A36189E292E00E94A3613091F4
:10209000030470910404832F871B8F3F11F40C9469
:1020A000DA19E1E0E30FE0930304A32FB0E0AF5FA0
:1020B000BC4F12961C928E2F871B8F3F09F448C588
:1020C00022E0230F20930304F0E0EF5FFC4F63E076
:1020D0006283822F90E090930C0480930B04271B63
:1020E0002F3F11F40C94751C23E0230F209303045D
:1020F000FC01EF5FFC4FAA24A394A282422F50E080
:1021000050930A0440930904271B2F3F11F40C94A9
:102110006E1F24E0B22EB30EB09203048A010F5F4B
:102120001C4FD8011296AC92129722812F5F228306
:1021300012962C9112972F5F12962C932B2D271B02
:102140002F3F49F03B5F30930304AB2DB0E0AF5F0E
:10215000BC4F12966C939C0182818F5F82833327E0
:102160008091090490910A04A9EBB2E12F5F3C4FE2
:1021700011E01FC0FC01FF27EF5FFC4F42814F5F62
:102180004283E09103044E2F471B4F3F41F041E053
:102190004E0F40930304F0E0EF5FFC4F6283F901C0
:1021A00042814F5F4283AC01F2E1A53CBF0709F4D5
:1021B000BCC66D914F3F5F4F09F4E6C46111DACFA1
:1021C0008FEF9FEFF0CF8FB7F8940091800E1091B2
:1021D000810E2091820E3091830E8FBF80917C0EF4
:1021E00090917D0EA0917E0EB0917F0EBC01CD012D
:1021F000601B710B820B930B10915511603328EC0F
:10220000720727E08207910590F530EDC32E37E085
:10221000D32EE12CF12CA70196010E948C8121176D
:1022200030F58FB7F8940091800E1091810E2091B7
:10223000820E3091830E8FBF80917C0E90917D0E27
:10224000A0917E0EB0917F0EBC01CD01601B710B81
:10225000820B930B603338EC730737E083079105EB
:1022600008F04CC3A70196010E948C81122F109395
:1022700055110C94F2070E94F06560935110709311
:10228000521080935310909354108FEF9FEF9093C0
:1022900058108093571085EE98E0909350108093DB
:1022A0004F104091850F942FE091860F842F8E1B45
:1022B000823008F462C281E08E0F8093860FAE2FC9
:1022C000B0E0AB57B14F2C9120937C02222309F44C
:1022D00090CC60915710709158106227062E62952D
:1022E000607F6025072E762F62956F7006266695B3
:1022F00076276727660F660F660F60257093581064
:1023000060935710EE5FE093860FA82FB0E0AB57B5
:10231000B14F8C9180935610882309F46ACC6827BA
:10232000062E6295607F6025072E762F62956F706E
:102330000626669576276727660F660F660F602567
:10234000709358106093571087FF02C00C947E1C46
:102350006091551026130C94C21B80E092E090937C
:102360005A108093591089E099E09093501080930F
:102370004F1030C960915D108091860F4091850F9C
:10238000942F981B961708F46FC670915C10761BFB
:1023900070935C10662309F458C9009121061091CE
:1023A00022062091571030915810D801AF5DBB4FD5
:1023B000562F580FE82FF0E0EB57F14F90819D9387
:1023C0002927022E2295207F2025032E322F2295A9
:1023D0002F700226269532272327220F220F220F45
:1023E00020258F5F8513E6CF8093860F90937C0224
:1023F0000F5F1F4F6150060F111D109322060093AF
:102400002106309358102093571010925D101DC96B
:102410008FEF9FEF9093501080934F10F2CB40912D
:10242000850FE091860F842F8E1B833008F4E9C658
:10243000AE2FB0E0AB57B14F9C91A1E0AE0FB0E032
:10244000AB57B14F8C9123E02E0F2093860FEE5F98
:10245000F0E0EB57F14F30816091571070915810B8
:10246000933009F473C3943011F40C94211B92300F
:1024700011F40C94221B90E0932B6817790711F448
:102480000C947A1B6091551085E00E94856710922C
:10249000860F1092850F1092220610922106ADCB66
:1024A0009091850FE091860F9E1709F4DBC681E0BD
:1024B0008E0FF0E0981B8093860FEB57F14F6081F1
:1024C00020915710309158102627022E2295207FF8
:1024D0002025032E322F22952F7002262695322793
:1024E0002327220F220F220F2025309358102093EC
:1024F000571070E06150710970935A106093591031
:1025000023E639E03093501020934F100C94090AC1
:102510008091310A9091320A029709F472CB8FEFC1
:102520009FEF90930A048093090480910304909193
:102530000404282F291B2F3F09F4BEC2E1E0E80F55
:10254000A82FB0E0AF5FBC4F12961C922E2F291B14
:102550002F3F09F4B1C2F0E0EF5FFC4F26E0228389
:1025600022E0280F422F50E050930C0440930B04BC
:10257000291B2F3F09F4A0C28D5F80930304FA0149
:10258000EF5FFC4F21E02283891B8F3F09F494C247
:10259000809107048F5F809307042FCB80E00E9417
:1025A000BB6180E192E00E94A36181E00E94BB6177
:1025B00088E192E00E94A3618AE090E00E9431628B
:1025C00082E00E94BB6181E292E00E94A36181E00F
:1025D00090E00E94316283E00E94BB618AE292E057
:1025E0000E94A3618091FB029091FC0295958795D2
:1025F0009595879595958795959587950E943162D4
:10260000F0900304309104049F2D931B9F3F09F425
:1026100059C2E1E0EF0DE0930304AF2DB0E0AF5FEE
:10262000BC4F12961C929E2F931B9F3F09F479C2B8
:1026300092E09F0D90930304F0E0EF5FFC4F83E086
:102640008283492F50E050930C0440930B04931B5A
:102650009F3F11F40C948A1B03E0E02EEF0CE092F4
:102660000304DA01AF5FBC4F81E012968C9312979E
:102670000E2D10E09E2D931B10930A040093090465
:102680009F3F11F40C94991F24E02F0D2093030415
:10269000B8016F5F7C4FFB01828312968C91129779
:1026A0008F5F12968C931297C80112811F5F12835D
:1026B000E22FE31BEF3F09F420C215E0E12EEF0CFF
:1026C000E0920304822F90E08F5F9C4F2AE0FC0190
:1026D00022839E2D931B12968C9112978F5F1296D8
:1026E0008C931297FB0182818F5F82839F3F09F455
:1026F00069C681E08E0D80930304EE2DF0E0EF5F5C
:10270000FC4F91E0928312969C9112979F5F1296D4
:102710009C93831B8F3F09F48ECC8FEFDB011296C5
:102720008C93809107048F5F809307040E94403B45
:102730008091FD029091FE02803591050CF44DC20E
:10274000813DB7E09B070CF005C32091F212309158
:10275000F312821793070CF4F0C22FB7F894E091AC
:10276000F712F091F81290818091F41280958923EC
:1027700080832FBFA8950C948D0B0E94F06500916B
:102780005110109152102091531030915410DC01CF
:10279000CB01801B910BA20BB30B8B3F9105A105C5
:1027A000B10508F42ECA809155102FEF3FEF3093FA
:1027B0000A04209309049091030420910404392F02
:1027C000321B3F3F41F1E1E0E90FE0930304A92F01
:1027D000B0E0AF5FBC4F12961C923E2F321B3F3FC2
:1027E000D1F032E0390F30930304F0E0EF5FFC4F9B
:1027F00048E04283432F50E050930C0440930B0475
:10280000321B3F3F41F09D5F90930304FA01EF5F5D
:10281000FC4F91E092830E9461608091030490914B
:102820000404891B8F3F09F4C1C78091090490916A
:102830000A048F3F2FEF920731F09927FC01EF5FD9
:10284000FC4F8FEF8283809107048F5F8093070492
:10285000D0C91092C5006C017D01F0E8CF0EF4E8FC
:10286000DF1EFEE1EF1EF11CCC0CDD1CEE1CFF1C7C
:10287000CC0CDD1CEE1CFF1CCC0CDD1CEE1CFF1C6C
:10288000880F991FAA1FBB1F880F991FAA1FBB1F64
:102890009C01AD01220F331F441F551F220F331F10
:1028A000441F551FC701B6010E948C81DA01C9017E
:1028B0000197A109B1098093C4008FEF9FEFDC015C
:1028C0008093671190936811A0936911B0936A1176
:1028D0000C94E70784E090E090930E0480930D043D
:1028E0002F5F3F4F3093100420930F044F5F5F4FD3
:1028F00050931204409311040C94CF0A1FEFB7CCED
:10290000EEE8F9E0859194910C94BD0860911E1059
:1029100070911F108091201090912110A7019601B5
:102920000E947D812B013C010090221004C076940E
:102930006794579447940A94D2F780911D10882386
:1029400009F4E6C520910F1030911010409111103C
:102950005091121057FD7FC66581768187819085E1
:102960000E947D81DC01CB01018404C0B695A7954E
:10297000979587950A94D2F753014201880E991EC4
:10298000AA1EBB1E8091131090911410A0911510D7
:10299000B0911610A7019601281B390B4A0B5B0B4F
:1029A00057FD82C666857785808991890E947D81E1
:1029B000DC01CB01028804C0B695A7959795879551
:1029C0000A94D2F700911710109118102091191045
:1029D00030911A10AC01BD01400F511F621F731FCF
:1029E00040931710509318106093191070931A1099
:1029F00014161506160617060CF04CC63FEF831684
:102A00009104A104B1040CF0E1C48FEF90E0A0E0C8
:102A1000B0E088199909AA09BB098A019B018417AA
:102A20009507A607B70714F48C019D01D501C401D1
:102A3000800F911FA21FB31F401B510B620B730B22
:102A400040931710509318106093191070931A1038
:102A5000F7FC0CC040914E1050E060E070E084172D
:102A60009507A607B70714F4DB01CA018F3F91054C
:102A7000A105B1050CF0AAC4181619061A061B0602
:102A80000CF0D4C680931B1010921D10BC018AE07C
:102A90000E94F664C0921310D0921410E0921510A8
:102AA000F092161045CEEEE8F9E0859194910C94E1
:102AB0001409C9010C941C0B80910B048250809363
:102AC00003049BC88F2D90E040910B0450910C049F
:102AD00090930A0480930904DA01BB27AF5FBC4FCF
:102AE00012962C9112972F5F12962C931297FC013D
:102AF000EF5FFC4F22812F5F228312962C91129759
:102B00002F5F12962C931297FC01EF5FFC4F2281EE
:102B10002F5F228312968C9112978F5F12968C935F
:102B20008ACA8E2F90E040910B0450910C04D0CFB4
:102B30008091591090915A10009709F03EC685E394
:102B400099E09093501080934F106BCC8E7F93CC74
:102B50004E2F50E020910B0430910C04C90150938A
:102B60000A0440930904FC01FF27EF5FFC4F8281B8
:102B70008F5F8283DA01AF5FBC4F12968C91129700
:102B80008F5F12968C93E8CA40910304842F90E0E3
:102B9000542F571B5F3F39F04F5F40930304FC01F4
:102BA000EF5FFC4F1283F90142814F5F428306CBF6
:102BB00040910304842F90E0E42FE51BEF3F39F0B0
:102BC0004F5F40930304FC01EF5FFC4F6283F90108
:102BD00042814F5F42830C94DA0D80E00E94BB611A
:102BE00080E192E00E94A36181E00E94BB6188E1E4
:102BF00092E00E94A3618AE090E00E94316282E04C
:102C00000E94BB6181E292E00E94A36180E090E0BB
:102C10000E94316283E00E94BB618AE292E00E94DE
:102C2000A3618091FD029091FE02959587959595FF
:102C3000879595958795959587950E9431628FEF39
:102C40009FEF90930A0480930904809103045091AC
:102C50000404982F951B9F3F09F4A9C4E1E0E80FF5
:102C6000E0930304A82FB0E0AF5FBC4F12961C9214
:102C70009E2F951B9F3F09F436C592E0980F9093C5
:102C80000304F0E0EF5FFC4F23E02283292F30E0C4
:102C900030930C0420930B04951B9F3F09F4DEC571
:102CA00043E0480F40930304F901EF5FFC4F91E0CC
:102CB0009283642F70E0451B70930A0460930904AB
:102CC0004F3F11F40C945F1F44E0480F40930304FE
:102CD0006F5F7C4FDB0112969C93129792819F5FEE
:102CE000928312969C9112979F5F12969C93942FB9
:102CF000951B9F3F11F40C947E1F8B5F8093030400
:102D0000A42FB0E0AF5FBC4F9AE012969C93482F7F
:102D1000451B92819F5F92838FEF9FEF90930A04F0
:102D2000809309044F3F09F4C6C0809107048F5F68
:102D3000809307040E94403B1DCD9FB7F894E0911B
:102D4000F712F091F81220818091F412822B808387
:102D50009FBF10CD80E00E94BB6180E192E00E94A5
:102D6000A36181E00E94BB6188E192E00E94A361BF
:102D70008BE090E00E94316282E00E94BB6181E2C0
:102D800092E00E94A36180E090E00E94316283E0C3
:102D90000E94BB618AE292E00E94A3618091FD02E1
:102DA0009091FE0295958795959587959595879530
:102DB000959587950E9431628FEF9FEF90930A045B
:102DC00080930904E0910304609104048E2F861B14
:102DD0008F3F09F4B5C321E02E0F209303048E2FFB
:102DE00090E08F5F9C4FDC0112961C92822F861B15
:102DF0008F3F09F4A4C382E08E0F80930304A22FB7
:102E0000B0E0AF5FBC4F93E012969C93282F30E068
:102E100030930C0420930B04861B8F3F09F42EC5BE
:102E20009E0F90930304A9014F5F5C4F81E0DA018C
:102E300012968C93092F10E0961B10930A040093AE
:102E400009049F3F11F40C94801F94E09E0F90930F
:102E500003040F5F1C4FD80112968C93DA0112966F
:102E60008C9112978F5F12968C93D80112968C9149
:102E700012978F5F12968C93892F861B8F3F11F4C8
:102E80000C947C1FEB5FE0930304A92FB0E0AF5FCD
:102E9000BC4F8BE012968C939E2F961BFA01828179
:102EA0008F5F82834FEF5FEF50930A0440930904D2
:102EB0009F3F09F03ACF2250209303043BCF0E945A
:102EC000F0650091511010915210209153103091E3
:102ED0005410DC01CB01801B910BA20BB30B8B3F79
:102EE0009105A105B10510F40C94010E1091551037
:102EF00088E00E946D61812F0E94616080910304CF
:102F000090910404891B8F3F09F450C480910904F7
:102F100090910A048F3FBFEF9B0709F08ECC93CCB2
:102F200070E08AE00E94F66403CC90930A048093D8
:102F30000904E091CA12F091CB1290818091C912DC
:102F4000982381E009F080E00E946160E091B7126F
:102F5000F091B81290818091B612982381E009F027
:102F600080E00E946160E091B412F091B51290810E
:102F70008091B312982381E009F074C00E946160CF
:102F80008091030490910404891B8F3F09F409C3C5
:102F90008091090490910A048F3F2FEF920731F03E
:102FA0009927FC01EF5FFC4F8FEF8283809107042C
:102FB0008F5F809307040E94403B0C943C079093E2
:102FC0000A04809309044091B9125091BA12609199
:102FD000BB127091BC1281E077FD0EC000913911D7
:102FE00010913A1120913B1130913C1104171507B3
:102FF000260737070CF080E00E9461604091BD1207
:103000005091BE126091BF127091C01281E077FDA5
:103010000EC000913D1110913E1120913F11309151
:10302000401104171507260737070CF080E00E94AF
:1030300061604091C1125091C2126091C3127091AF
:10304000C41281E077FD9ACF009141111091421195
:1030500020914311309144110417150726073707B3
:103060000CF48CCF80E08ACF0E94F0650091511063
:10307000109152102091531030915410DC01CB016B
:10308000801B910BA20BB30B8B3F9105A105B105E2
:1030900010F40C94010E1091551088E00E946D619F
:1030A000812F0E9461608091030490910404891B28
:1030B0008F3F09F474C38091090490910A048F3FF3
:1030C0004FEF940731F09927FC01EF5FFC4F8FEF32
:1030D0008283809107048F5F80930704D8C9C090D2
:1030E0005111D0905211E0905311F090541121E001
:1030F000C21620E9D20621E0E206F10430F0C12C2C
:1031000050E9D52EEE24E394F12C80904D1190904F
:103110004E11A0904F11B0905011BE016F5F7F4FC4
:1031200083E194E00E948062882339F1260137010F
:10313000480C591C6A1C7B1C8B8586FDEDC28F7365
:10314000880F9C8597FB992790F9892B082E000CF6
:10315000990BAA0BBB0BB301A201482959296A2973
:103160007B2984239523A623B723892B8A2B8B2B9A
:1031700009F4D2C282E68093130480911604882356
:1031800021F083E194E00E945D476EE372E083E208
:1031900096E00E94493E80914D1190914E11A09170
:1031A0004F11B09150118C0D9D1DAE1DBF1D809310
:1031B0004D1190934E11A0934F11B09350118091E7
:1031C000511190915211A0915311B09154118C1939
:1031D0009D09AE09BF098093511190935211A0939C
:1031E0005311B0935411892B8A2B8B2B11F00C9413
:1031F000FB0B81E090E090935B1180935A110C944B
:10320000FB0B0E94F065009151101091521020911B
:10321000531030915410DC01CB01801B910BA20B99
:10322000B30B8B3F9105A105B10510F40C94010E71
:103230001091551088E00E946D61812F0E9461609D
:103240008091030490910404891B8F3F09F4A7C265
:103250008091090490910A048F3F6FEF960709F05F
:1032600032CF37CF0E94F06500915110109152106B
:103270002091531030915410DC01CB01801B910B35
:10328000A20BB30B8B3F9105A105B10510F40C9473
:10329000010E1091551088E00E946D61812F0E94EF
:1032A00061608091030490910404891B8F3F09F4AD
:1032B0001FC38091090490910A048F3FAFEF9A07D2
:1032C00031F09927FC01EF5FFC4F8FEF82838091F3
:1032D00007048F5F809307041092850F9FEFE0E053
:1032E000F0E081E0E8C80E94F06500915110109173
:1032F00052102091531030915410DC01CB01801BEF
:10330000910BA20BB30B8B3F9105A105B10510F4F6
:103310000C94010E809155102FEF3FEF30930A046B
:10332000209309049091030420910404392F321B47
:103330003F3F41F1E1E0E90FE0930304A92FB0E042
:10334000AF5FBC4F12961C923E2F321B3F3FD1F015
:1033500032E0390F30930304F0E0EF5FFC4F48E0B8
:103360004283432F50E050930C0440930B04321BD4
:103370003F3F41F09D5F90930304FA01EF5FFC4FE4
:1033800091E092830E946160809103049091040413
:10339000891B8F3F09F403C28091090490910A04AC
:1033A0008F3F3FEF930709F08ECE93CE0C94000031
:1033B0000C94C807432F50E020910B0430910C046B
:1033C000C901CDCBDA01AF5FBC4FA4CB8FEF8093A7
:1033D0001B1081E080931D106FEF70E058CB20919F
:1033E0006F0022FF02C00C94230C9093DB1180939A
:1033F000DA1181E090E0A0E0B0E08093D6119093E4
:10340000D711A093D811B093D9111092DF11109257
:10341000701110926F111092F5111092F411109218
:10342000F3111092F2118091310A9091320A892B96
:1034300051F083E194E00E94D63F8091310A90914F
:10344000320A892BB1F710922706109228061092A3
:10345000290610922A061092220610922106109236
:103460002B0A10922C0A10922D0A10922E0A1092FA
:10347000330A81E090E0A0E0B0E0809323069093CF
:103480002406A0932506B09326061092770E10927C
:10349000760E1092800E1092810E1092820E109273
:1034A000830E10927C0E10927D0E10927E0E109262
:1034B0007F0E0C942A0C20E1E133F20741F0D70192
:1034C000C6018E7F892B8A2B8B2B09F0CDC100275B
:1034D000112798010C191D092E093F09608171817E
:1034E00082819381A90198010E947D81DC01CB0139
:1034F000048004C0B695A795979587950A94D2F74E
:10350000442455243201481A590A6A0A7B0A15CA0A
:1035100080910F1090911010A0911110B091121085
:10352000A7019601280F391F4A1F5B1F20930F1018
:103530003093101040931110509312100BCAE22FC9
:10354000F0E020910B0430910C04D901BB27AF5F50
:10355000BC4F12968C9112978F5F12968C93129794
:10356000EF5FFC4F82818F5F828312968C9112975E
:103570008F5F12968C938FEF9FEF90930A04809346
:10358000090499CC452B09F4ECC081E090E09093BC
:103590000E0480930D040C94CF0A8E7F3E7F0C9412
:1035A0005A0A80910B0482508093030404CD282F83
:1035B00030E040910B0450910C04FA01FF27EF5FBB
:1035C000FC4F82818F5F8283D901AF5FBC4F12961F
:1035D0008C9112978F5F12968C9382818F5F82837A
:1035E0008FEF9FEF90930A04809309049A0163CCB4
:1035F000E0EBF1E0859194910C94BD089091561008
:10360000933809F4F9C06091551080917C026813D9
:10361000B9C06F5F09F424C1609355105093870FB0
:103620001092880F492F50E0FA01E058F109E23476
:10363000F10508F40DC1692F81E00E9485670C94A3
:10364000F90D8E7F3E7F0C943B12E0EBF1E085910B
:1036500094910C94140950954095309521953F4FC5
:103660004F4F5F4F65817681878190850E947D8174
:10367000DC01CB01018404C0B695A7959795879589
:103680000A94D2F7B095A095909581959F4FAF4F32
:10369000BF4F72C9411551056105710509F0F0C0B0
:1036A00000E010E09801C2C95095409530952195F1
:1036B0003F4F4F4F5F4F66857785808991890E9484
:1036C0007D81DC01CB01028804C0B695A795979552
:1036D00087950A94D2F7B095A095909581959F4FC4
:1036E000AF4FBF4F6FC92E2F30E040910B04509168
:1036F0000C0463CF241731F06EE372E087E499E0A5
:103700000E94493E8BE499E09093501080934F10B3
:103710000C94C00CCA01DCC931E0431A510861089D
:10372000710880911804833071F039E0880C991C7D
:10373000AA1CBB1C3A95D1F749E0440C551C661CE9
:10374000771C4A95D1F7A501940160E283E194E0EA
:103750000E94D362882309F4A9C081E680931304F0
:103760000CCD83E090E090930E0480930D0481E0F3
:1037700090E090931204809311040C94CF0A8E7FF2
:103780000C945A0A87E00E9485671092860F109267
:10379000850F1092501010924F100C94010E8091D2
:1037A0000B048250809303040C94471280910B0405
:1037B0008250809303040C94F90D20915B102F3FED
:1037C000B9F02091210630912206B9016F5F7F4F39
:1037D0007093220660932106F901ED5EFB4F168679
:1037E000019790935A1080935910892B09F4A7C917
:1037F000E091860F0C94B31181E0809355105093A3
:10380000870F1092880F0E9444678091850F9091D6
:10381000860F891B833010F00C94F90D6EE372E073
:1038200087ED9AE00E94493E0C94F90D10921B100E
:1038300081E080931D1060E070E029C9009157106D
:103840001091581090E0DC01AB57B14F0C943E0A38
:103850008827EE58FF4F8F4F0C94AE81A901ADCE53
:1038600081E080935510DACEA701960169E470E1FA
:1038700081E390E10E94E7450C948D0BF90165CE40
:10388000181419041A041B040CF00ACF882799276E
:10389000DC0188199909AA09BB098A019B0148170B
:1038A00059076A077B070CF0C1C8BEC8A301920183
:1038B00061E283E194E00E94D36281114ECF20E067
:1038C00030E0A90166E283E194E00E94D3628111B5
:1038D00044CF60E177E283E194E00E948347811165
:1038E00015C083E68093130448CCAC019C0137C912
:1038F00080910B04825080930304EECC2DE539E0D7
:103900003093501020934F100C9454128091160451
:10391000882309F440CC83E194E00E945D473BCCCE
:103920000E9444810E9447680E9444676ECF0E94B3
:1039300052816BCF0E944768182F0E944481BC01BE
:10394000812F0E945C790E9444675FCF0E9444816E
:103950000097E1F12FB7F89490937B0E80937A0E45
:103960002FBFE2CF0E94527E50CF0E9444810E941E
:1039700047680E9444810E94446747CF0E9447687D
:10398000082F10927C028823D9F00E94476889830F
:1039900081E080937C027E0132E0E30EF11CDD24A5
:1039A000D394D00E12E00AC00E944768D7018D93CD
:1039B0007D0110937C021F5F113411F01D11F4CFB3
:1039C000602FCE0101960E94777C1FCF0E94834E0C
:1039D00080916F008B7F80936F00A6CF0E94476815
:1039E000182F0E944768082F61E0812F0E94B5645C
:1039F000602F812F0E94BB630E94446706CF0E9404
:103A000047680E94F67F01CF81E08093DF110E941A
:103A10004467FBCE0E944768182F0E944768682FB2
:103A2000812F0E94D27A0E944467EFCE0E940981C2
:103A3000ECCE0E946A7BE9CE0E944768182F0E9454
:103A40004768082F0E944768682F70E0762F662726
:103A5000600F711D812F0E94417B0E944467D5CE6B
:103A6000CE01815A9F4F0E94C47ACE01865A9F4F41
:103A70000E94C47A0E94E3799B01AC01CE018B5A6B
:103A80009F4FA5962FAFA597A6963FAFA697A7964F
:103A90004FAFA797A8965FAFA8970E94C47ACE01B0
:103AA000805B9F4F0E94C47ACE01855B9F4F0E942E
:103AB000C47A0E94E3794B015C018E010A5B1F4FBF
:103AC000C8010E94C47A7E01B1E4EB0EF11CC7016B
:103AD0000E94C47AFE0131966F01CF010E94C47A20
:103AE0000E9444813C01DF92CF92FF92EF921F939C
:103AF0000F93CE01855B9F4F6C01DE01A05BBF4F32
:103B00007D01015F1F4FA5962FADA597A6963FADEE
:103B1000A697A7964FADA797A8965FADA897BE01A9
:103B2000665A7F4F44960E94567A70922C1160928A
:103B30002B110E9444670F900F900F900F900F90E1
:103B40000F9063CE0E941C7A6093491170934A11C2
:103B500080934B1190934C1121E0611574408105C5
:103B6000910509F4B9C1209348110E9444674DCED4
:103B70000E941C7A60936711709368118093691199
:103B800090936A110E94F065DC01CB010A96A11D99
:103B9000B11D80936B1190936C11A0936D11B09334
:103BA0006E110E94446731CE81E0809366110E94BD
:103BB00044672BCE0E941C7A2B013C010E941C7A88
:103BC0004B015C010E941C7A6B017C010E944768DA
:103BD000082F0E944768182F0E94476840923911A9
:103BE00050923A1160923B1170923C1180923D11BB
:103BF00090923E11A0923F11B0924011C09241119B
:103C0000D0924211E0924311F09244110093451179
:103C100010934611809347110E944467F6CD0E948D
:103C200044817C010E9444818C010E944481F09275
:103C30003411E092331110933611009335119093A3
:103C40003811809337110E944467DFCD0E94476886
:103C50000E946780DACD0E94C477D7CD0E94457755
:103C6000D4CD0E94E3790E94CD800E944467CDCDDF
:103C70000E944378CACD0E94B376C7CD0E94667574
:103C8000C4CD0E94B275C1CD0E94834E1092261100
:103C90006FE770E08DE00E94F66410925B11109265
:103CA0005A110E944467B1CD0E94FE75AECD0E94AC
:103CB000CE7FABCD0E94E3740E944467A6CD0E94E4
:103CC0004768109261111092621110926311109264
:103CD0006411682F70E089E00E94F6640E944467D6
:103CE00094CD0E941C7A6B017C0180915A119091B5
:103CF0005B11019731F06EE372E08BED96E00E946C
:103D0000493E81E090E0A0E0B0E080934D119093B7
:103D10004E11A0934F11B0935011C0925111D092F7
:103D20005211E0925311F092541182E090E090937E
:103D30005B1180935A110E94446767CD0E94C17B3A
:103D400064CD0E944768182F0E94448140E0BC0166
:103D5000812F0E9471620E94446757CD0E94E379CF
:103D60002B013C010E94E3794B015C010E94E37945
:103D70006B017C010E94E3790E94E37981E08093EA
:103D800026114092B9125092BA126092BB127092F0
:103D9000BC128092BD129092BE12A092BF12B0923D
:103DA000C012C092C112D092C212E092C312F0921D
:103DB000C412BACD0E949D7F28CD0E944768082F6B
:103DC00010E00115110509F451C080915A1190912C
:103DD0005B11019781F583E090E090935B118093F4
:103DE0005A1110935D1100935C118FEF8093551160
:103DF0001092591110925811109257111092561199
:103E00008FE00E94DC7A10925F1110925E110130F7
:103E10001105C1F080ED97E09093890080938800B0
:103E200080916F00826080936F007ECD0E94197B2D
:103E30000E944467EACC6EE372E08AE696E00E9454
:103E4000493EC9CF1092790E1092780E80ED97E01E
:103E500090938B0080938A009093890080938800D0
:103E600080916F00846080936F005ECD6EE372E09E
:103E700089E696E00E94493E80915A1190915B112B
:103E80000197C9F683E090E090935B1180935A11FB
:103E900010925D1110925C118FEF8093551110926A
:103EA00059111092581110925711109256118FE01B
:103EB0000E94DC7A10925F1110925E11ABCF82E00B
:103EC0008283DB01AF5FBC4F12968C9112978F5F9C
:103ED00012968C930C94891620E045CE22E0228322
:103EE000DA01AF5FBC4F12962C9112972F5F12969A
:103EF0002C939C010C94AC10DA0137CBA9016DCB4B
:103F000082E0DA0112968C93F801EF5FFC4F828118
:103F10008F5F82830C944E1782E012968C931297D7
:103F2000B8016F5F7C4FFB0182818F5F82830C94AD
:103F3000F80F82E012968C931297B8016F5F7C4F56
:103F4000FB0182818F5F82830C946B13CF92DF928F
:103F5000EF92FF920F931F93CF93DF9380916F1196
:103F600090917011883B23E0920711F40C94A02FDC
:103F700008F463C18E3AF4E09F0709F4FBC508F02A
:103F800088C18531A4E09A0711F40C944F3308F0EE
:103F900021C5823EE3E09E0709F467C010F40C944B
:103FA000BF318D3FB3E09B0711F40C94AE2B8C30E6
:103FB000E4E09E0711F40C94DE2B813F934011F056
:103FC0000C948C2B8091DE1181508093DE1188231C
:103FD00009F423C12091EC113091ED1180917C0EF8
:103FE00090917D0EA0917E0EB0917F0E820F931F57
:103FF000A11DB11D80937C0E90937D0EA0937E0E2B
:10400000B0937F0EE091760E81E08E0F8093760E56
:10401000F0E0EE0FFF1FEE0FFF1FEA58F54F809103
:10402000EA119091EB11A091EC11B091ED11808308
:104030009183A283B3838091801190918111019724
:104040009093811180938011892B11F40C94952BFE
:104050001092EF111092EE1181E08093F61182EE32
:1040600093E09093701180936F110E94C75E81114D
:10407000DAC08091E911E091FD11F091FE118823E1
:1040800011F40C94AF35A0812091E0113091E11131
:104090004091E2115091E311B0E00E94B681DC0141
:1040A000CB012AE0B695A795979587952A95D1F7E4
:1040B0009093ED118093EC1190917B119093EB1103
:1040C00080917A11882311F40C9431344091961127
:1040D00050919711609198117091991177FF02C0DA
:1040E0000C940C3A0091BE111091BF112091C01197
:1040F0003091C111400F511F621F731F40939611E1
:1041000050939711609398117093991191609093C7
:10411000EB11813011F00C94313440919E1150918B
:104120009F116091A0117091A11177FF02C00C94B2
:104130003F380091C6111091C7112091C8113091DC
:10414000C911400F511F621F731F40939E1150935E
:104150009F116093A0117093A1119091EB11946045
:104160009093EB11833039F14091A2115091A3113A
:104170006091A4117091A51177FF02C00C9455387D
:104180000091CA111091CB112091CC113091CD1119
:10419000400F511F621F731F4093A2115093A31130
:1041A0006093A4117093A5119091EB119860909376
:1041B000EB11843029F18091A6119091A711A09163
:1041C000A811B091A911B7FF02C00C94BC3940915D
:1041D000CE115091CF116091D0117091D111840FF7
:1041E000951FA61FB71F8093A6119093A711A093A8
:1041F000A811B093A9118091EB1180618093EB110C
:1042000081EF93E09093701180936F118091DE1194
:1042100081508093DE118111DDCE8EED91E10E94FF
:10422000DA4E8111D7CE81E0DF91CF911F910F91AE
:10423000FF90EF90DF90CF900895863AB2E09B0711
:1042400011F40C947C2A08F0EDC08338F2E09F074B
:1042500011F40C94922908F405C78F38A2E09A074C
:1042600011F40C94F82910F40C94B431873922E03D
:10427000920711F40C943C2A8B39A2E09A0711F4AE
:104280000C94582A8339924011F00C948C2B0C9486
:104290001A2A873FB4E09B0711F40C94D23208F03D
:1042A00012C58D3CF4E09F0709F477C010F40C941C
:1042B000C9318F3DE4E09E07E1F08B3EF4E09F07BB
:1042C00011F40C949E328A3D944011F00C948C2B86
:1042D0000E94C75E8111A7CFE091FD11F091FE1100
:1042E00080818093EB118FED94E090937011809317
:1042F0006F118091DE1181508093DE11882311F4BB
:104300000C94E7342091EC113091ED1180917C0EEA
:1043100090917D0EA0917E0EB0917F0E820F931F23
:10432000A11DB11D80937C0E90937D0EA0937E0EF7
:10433000B0937F0EE091760E81E08E0F8093760E23
:10434000F0E0EE0FFF1FEE0FFF1FEA58F54F8091D0
:10435000EA119091EB11A091EC11B091ED118083D5
:104360009183A283B3838091DA119091DB1101973D
:104370009093DB118093DA11892B11F40C94F432B1
:104380001092EF111092EE1181E08093F6118DECF6
:1043900094E09093701180936F110E94C75E811119
:1043A00042CFE091FD11F091FE118081A091741136
:1043B000B0917511A80FB11D87FDBA95B093751115
:1043C000A09374118091E911882311F40C9409369B
:1043D0002091E0113091E1114091E2115091E311EF
:1043E0000E94B681DC01CB015AE0B695A79597955E
:1043F00087955A95D1F79093ED118093EC11109217
:10440000EF111092EE1181E08093F6118AED94E0A5
:104410009093701180936F110E94C75E882309F4F6
:104420005BCF01CF8F34E3E09E0709F4C7C108F0EA
:10443000D8C48A3023E0920711F40C94652B10F451
:104440000C94AA318733F3E09F0709F48DC08634BA
:1044500023E0920709F459C18E30934011F00C9477
:104460008C2B0E94C75E8111DECEE091FD11F09190
:10447000FE112081318130937F1120937E110091B4
:104480007A11E02FF0E0EE0FFF1FEE0FFF1FE15952
:10449000FE4EC388D488E588F688C092D211D092A7
:1044A000D311E092D411F092D511C2E8D1E1EAEA39
:1044B000F1E110E00117F1F0488159816A817B81B7
:1044C000440F551F661F771FDB01CA018C199D0918
:1044D000AE09BF098C8B9D8BAE8BBF8B4083518304
:1044E000628373838C199D09AE09BF09848B958BF8
:1044F000A68BB78B1F5F249634961530D9F6609142
:104500007611709177118091781190917911FC0159
:10451000E60FF71F40918011509181114E0F5F1FE0
:10452000240F351FC21AD30AE108F108C092D61130
:10453000D092D711E092D811F092D911672B11F4D3
:104540000C948C308091EA118F7B8093EA11109249
:10455000EF111092EE1182E08093F61187E393E061
:104560009093701180936F110E94C75E81115BCE92
:104570008091E911E091FD11F091FE11882311F471
:104580000C944135A081B1812091E0113091E1116D
:104590004091E2115091E3110E94B681DC01CB0100
:1045A0000AE0B695A795979587950A95D1F79093C8
:1045B000ED118093EC1190917B119093EB11809110
:1045C0007A11882311F40C94D033409196115091B4
:1045D0009711609198117091991177FF02C00C9416
:1045E000D2390091BE111091BF112091C0113091AC
:1045F000C111400F511F621F731F409396115093BA
:104600009711609398117093991191609093EB11A9
:10461000813011F00C94D03340919E1150919F1134
:104620006091A0117091A11177FF02C00C94C03766
:104630000091C6111091C7112091C8113091C91174
:10464000400F511F621F731F40939E1150939F1183
:104650006093A0117093A1119091EB1194609093CD
:10466000EB11833039F14091A2115091A311609167
:10467000A4117091A51177FF02C00C94D637009158
:10468000CA111091CB112091CC113091CD11400F56
:10469000511F621F731F4093A2115093A311609387
:1046A000A4117093A5119091EB1198609093EB1168
:1046B000843029F18091A6119091A711A091A811A1
:1046C000B091A911B7FF02C00C944A394091CE11A4
:1046D0005091CF116091D0117091D111840F951F1D
:1046E000A61FB71F8093A6119093A711A093A8119E
:1046F000B093A9118091EB1180618093EB1186E456
:1047000093E09093701180936F118091DE1181502E
:104710008093DE11882311F40C94F1342091EC1174
:104720003091ED1180917C0E90917D0EA0917E0EC6
:10473000B0917F0E820F931FA11DB11D80937C0E3F
:1047400090937D0EA0937E0EB0937F0EE091760E37
:1047500081E08E0F8093760EF0E0EE0FFF1FEE0FDC
:10476000FF1FEA58F54F8091EA119091EB11A0914B
:10477000EC11B091ED1180839183A283B38380917A
:10478000EA118F778093EA118091761190917711D9
:1047900001979093771180937611892B11F40C94E3
:1047A00088301092EF111092EE1182E08093F61192
:1047B0008FE493E09093701180936F110E94C75E15
:1047C000811131CD8091E911E091FD11F091FE113F
:1047D000882311F40C94BF35A081B1812091E011A0
:1047E0003091E1114091E2115091E3110E94B681A4
:1047F000DC01CB01DAE0B695A79597958795DA9518
:10480000D1F79093ED118093EC1190917B119093DF
:10481000EB1180917A11882311F40C948334409128
:10482000961150919711609198117091991177FF9D
:1048300002C00C94603A0091BE111091BF112091FA
:10484000C0113091C111400F511F621F731F40935F
:1048500096115093971160939811709399119160EC
:104860009093EB11813011F00C94833440919E11A0
:1048700050919F116091A0117091A11177FF02C01A
:104880000C94D6380091C6111091C7112091C8110F
:104890003091C911400F511F621F731F40939E1129
:1048A00050939F116093A0117093A1119091EB11FF
:1048B00094609093EB11833039F14091A2115091A3
:1048C000A3116091A4117091A51177FF02C00C94FF
:1048D000EC380091CA111091CB112091CC1130917C
:1048E000CD11400F511F621F731F4093A2115093AF
:1048F000A3116093A4117093A5119091EB1198608E
:104900009093EB11843029F18091A6119091A71119
:10491000A091A811B091A911B7FF02C00C94E83979
:104920004091CE115091CF116091D0117091D11161
:10493000840F951FA61FB71F8093A6119093A711F0
:10494000A093A811B093A9118091EB11806180937D
:10495000EB118EE593E09093701180936F1180912D
:10496000DE1181508093DE11882311F40C943635CA
:104970002091EC113091ED1180917C0E90917D0E83
:10498000A0917E0EB0917F0E820F931FA11DB11DCD
:1049900080937C0E90937D0EA0937E0EB0937F0E3D
:1049A000E091760E81E08E0F8093760EF0E0EE0FB0
:1049B000FF1FEE0FFF1FEA58F54F8091EA1190910B
:1049C000EB11A091EC11B091ED1180839183A28342
:1049D000B383DACE8D3324E0920711F40C94F731CF
:1049E00010F40C94D5318C35F4E09F0751F18036EA
:1049F00024E0920709F446C08135944009F08CC642
:104A00000E94C75E81110FCCE091FD11F091FE1163
:104A1000808191819093DB118093DA111092E911DA
:104A20008091711185FF99C01092EF111092EE11D3
:104A300084E08093F6118CE594E09093701180935C
:104A40006F110E94C75E8111EECBE091FD11F091D4
:104A5000FE1180819181A281B3818093E4119093B2
:104A6000E511A093E611B093E7111092EF111092A7
:104A7000EE1181E08093F61180E694E0909370113E
:104A800080936F110E94C75E8111CDCBE091FD1123
:104A9000F091FE11C081C093E8118091FB029091CA
:104AA000FC0295958795959587959595879595950C
:104AB00087952091000230910102821B930B97FF92
:104AC00002C00C9405378436910514F40C94F73524
:104AD000209124113091251140E050E06091E411C3
:104AE0007091E5118091E6119091E7110E947D810E
:104AF000DC01CB0104C0B695A79597958795CA951B
:104B0000D2F78130E0E19E07A105B10520F080E0F9
:104B100090E1A0E0B0E08093E0119093E111A093C8
:104B2000E211B093E3118130F4E09F07A105B105D4
:104B300010F40C94FB3481E08093E91180915611BC
:104B4000909157118E3F2FEF920711F40C94763904
:104B5000019690935711809356111092EF11109275
:104B6000EE1182E08093F6118EEA94E0909370113A
:104B700080936F110E94C75E811155CBE091FD11AA
:104B8000F091FE11A081B181B0937511A0937411C1
:104B90008091E911882311F40C9494332091E01151
:104BA0003091E1114091E2115091E3110E94B681E0
:104BB000DC01CB017AE0B695A795979587957A9514
:104BC000D1F79093ED118093EC111092EF111092A8
:104BD000EE1181E08093F6118BEB94E090937011CD
:104BE00080936F110E94C75E81111DCBE091FD1172
:104BF000F091FE1180818093EB1180EC94E0909312
:104C0000701180936F118091DE1181508093DE11BD
:104C1000882311F40C9400342091EC113091ED11A3
:104C200080917C0E90917D0EA0917E0EB0917F0EB2
:104C3000820F931FA11DB11D80937C0E90937D0E5A
:104C4000A0937E0EB0937F0EE091760E81E08E0FE2
:104C50008093760EF0E0EE0FFF1FEE0FFF1FEA5875
:104C6000F54F8091EA119091EB11A091EC11B09168
:104C7000ED1180839183A283B3838091EA118F77B2
:104C80008093EA11809171119091721186FD02C09A
:104C90000C94C1332091DA113091DB11215031098C
:104CA0003093DB112093DA11232B09F069CB91FFAC
:104CB00005C08091DF1181110E94855710927011FB
:104CC00010926F11B0CA8C31A5E09A0711F40C94C0
:104CD000073310F40C942732863325E0920709F449
:104CE00076C08F33A5E09A0711F40C942A338C32E6
:104CF000954009F011C58091EE119091EF11863A1F
:104D0000E1E09E0711F40C945B36873BF1E09F07CE
:104D100011F40C94C136892B11F40C941C36E091DB
:104D2000FD11F091FE118FEF9FEF9093EF118093A3
:104D3000EE11808191811092EB1120E533EC3093DC
:104D4000ED112093EC1133C02091EC113091ED1155
:104D500080917C0E90917D0EA0917E0EB0917F0E81
:104D6000820F931FA11DB11D80937C0E90937D0E29
:104D7000A0937E0EB0937F0E81E08E0F8093760E0F
:104D8000F0E0EE0FFF1FEE0FFF1FEA58F54F809186
:104D9000EA119091EB11A091EC11B091ED1180838B
:104DA0009183A283B3838091DC119091DD119C01EA
:104DB000215031093093DD112093DC11892B09F446
:104DC0007DCF86E395E09093701180936F11E09111
:104DD000760E8091770EFE2FF81BFF3F09F0B4CFBF
:104DE00022CA8937B3E09B0711F40C946A3110F49E
:104DF0000C941C328139A3E09A0709F4DAC08D3A89
:104E0000B3E09B0709F49DC78238934009F084C43E
:104E10000E94C75E811107CA8091E911E091FD11DE
:104E2000F091FE11882311F40C94B735A0812091E4
:104E3000E0113091E1114091E2115091E311B0E0A5
:104E40000E94B681DC01CB01EAE0B695A795979563
:104E50008795EA95D1F79093ED118093EC1190919D
:104E60007B119093EB1180917A11882311F40C94AB
:104E70005A34409196115091971160919811709108
:104E8000991177FF02C00C944A3A0091BE1110911B
:104E9000BF112091C0113091C111400F511F621FED
:104EA000731F4093961150939711609398117093CC
:104EB000991191609093EB11813011F00C945A3458
:104EC00040919E1150919F116091A0117091A1117C
:104ED00077FF02C00C9495380091C6111091C7114C
:104EE0002091C8113091C911400F511F621F731FCB
:104EF00040939E1150939F116093A0117093A11144
:104F00009091EB1194609093EB11833039F14091C3
:104F1000A2115091A3116091A4117091A51177FF76
:104F200002C00C94AB380091CA111091CB112091A2
:104F3000CC113091CD11400F511F621F731F409350
:104F4000A2115093A3116093A4117093A511909195
:104F5000EB1198609093EB11843029F18091A611A8
:104F60009091A711A091A811B091A911B7FF02C00B
:104F70000C9490394091CE115091CF116091D01185
:104F80007091D111840F951FA61FB71F8093A61192
:104F90009093A711A093A811B093A9118091EB1140
:104FA00080618093EB1181E993E09093701180937D
:104FB0006F118091DE1181508093DE11882311F4EE
:104FC0000C942C352091EC113091ED1180917C0ED8
:104FD00090917D0EA0917E0EB0917F0E820F931F57
:104FE000A11DB11D80937C0E90937D0EA0937E0E2B
:104FF000B0937F0EE091760E81E08E0F8093760E57
:10500000F0E0EE0FFF1FEE0FFF1FEA58F54F809103
:10501000EA119091EB11A091EC11B091ED11808308
:105020009183A283B3838091781190917911019734
:105030009093791180937811892B09F4BEC5109251
:10504000EF111092EE1181E08093F61182E893E067
:105050009093701180936F110E94C75E882309F4AA
:10506000DBCEE1C88436A2E09A0709F401C108F05A
:105070004AC3009711F40C9440338234924009F0F3
:105080004BC30E94C75E8111CEC8E091FD11F09123
:10509000FE11C081CC3011F40C940F3610F00C943A
:1050A0009335C73009F4DEC0CB3011F40C94FA32DA
:1050B000C33011F40C94FE3980E00E94BB6180E1A2
:1050C00092E00E94A36181E00E94BB6188E192E0CE
:1050D0000E94A3614AE065E070E080E090E00E94F9
:1050E000CE6182E00E94BB6181E292E00E94A361F6
:1050F0008C2F90E0A0E0B0E04AE0BC01CD010E941E
:10510000CE6183E00E94BB618AE292E00E94A361CB
:1051100089E292E00E94A3618091030490910404CB
:10512000282F291B2F3F41F1E1E0E80FE093030412
:10513000A82FB0E0AF5FBC4F12961C922E2F291BF8
:105140002F3FD1F022E0280F20930304F0E0EF5F1F
:10515000FC4F33E03283422F50E050930C044093D5
:105160000B04291B2F3F41F08D5F80930304FA014C
:10517000EF5FFC4F81E0828380910304282F30E0B1
:1051800030930A0420930904482F491B4F3F11F420
:105190000C94213B8F5F80930304D901AF5FBC4F18
:1051A00081E012968C93129720910B0430910C049D
:1051B000F901FF27EF5FFC4F82818F5F8283129698
:1051C0008C9112978F5F12968C93A09103048A2F73
:1051D000891B8F3F11F40C943A3B81E08A0F809336
:1051E0000304B0E0AF5FBC4F45E012964C934281A0
:1051F0004F5F4283CC2311F40C94003B00910904CF
:1052000010910A04A80155274F5F5C4FDA011296EE
:105210006C9112976F5F12966C93682F691B6F3FAA
:1052200011F40C94363B61E0680F60930304A82FDF
:10523000B0E0AF5FBC4F1296CC9382818F5F8283C8
:10524000691B6F3F11F40C940B3B0F3F1F4F19F07C
:105250008FEFFA018283809107048F5F80930704A8
:105260000E94403B84E692E09093701180936F110E
:105270008091760E9091770E891B80958093DE1138
:10528000882311F40C9413211092EF111092EE1157
:1052900082E08093F61188E692E0909370118093FB
:1052A0006F110E94C75E81110C941321E091FD11D2
:1052B000F091FE1180819181809371119093721110
:1052C00087FF03C08F798093EA111092EF1110923B
:1052D000EE1181E08093F6118AE792E090937011CD
:1052E00080936F110E94C75E81110C941321E0918D
:1052F000FD11F091FE11908190937A1181E001C02F
:10530000880F9A95EAF780937B111092EF11109213
:10531000EE1184E08093F61183E892E0909370118F
:1053200080936F110E94C75E81110C941321E0914C
:10533000FD11F091FE1180819181A281B381809352
:10534000821190938311A0938411B09385111092D0
:10535000EF111092EE1184E08093F61187E892E04D
:105360009093701180936F110E94C75E81110C940D
:105370001321E091FD11F091FE1180819181A281B4
:10538000B3818093861190938711A0938811B09375
:1053900089111092EF111092EE1184E08093F611B2
:1053A0008BE892E09093701180936F110E94C75E1A
:1053B00081110C941321E091FD11F091FE11808177
:1053C0009181A281B38180938A1190938B11A093D4
:1053D0008C11B0938D111092EF111092EE1184E0A8
:1053E0008093F6118FE892E09093701180936F1183
:1053F0000E94C75E81110C941321E091FD11F09180
:10540000FE1180819181A281B38180938E1190934E
:105410008F11A0939011B09391111092EF111092EF
:10542000EE1184E08093F61183E992E0909370117D
:1054300080936F110E94C75E81110C941321E0913B
:10544000FD11F091FE1180819181A281B381809341
:10545000921190939311A0939411B093951110927F
:10546000EF111092EE1182E08093F61187E992E03D
:105470009093701180936F110E94C75E81110C94FC
:105480001321E091FD11F091FE11808191819093A3
:105490007711809376111092EF111092EE1182E045
:1054A0008093F6118BE992E09093701180936F11C5
:1054B0000E94C75E81110C941321E091FD11F091BF
:1054C000FE118081918190937911809378111092CF
:1054D000E911809171119091721190FFB4C01092F6
:1054E000EF111092EE1184E08093F61186EA92E0BB
:1054F0009093701180936F110E94C75E81110C947C
:105500001321E091FD11F091FE1180819181A28122
:10551000B3818093E4119093E511A093E611B093C9
:10552000E7111092EF111092EE1181E08093F611C5
:105530008AEA92E09093701180936F110E94C75E87
:1055400081110C941321E091FD11F091FE11C081A5
:10555000C093E8116091E4117091E5118091E6111A
:105560009091E711611571058105910511F40C9475
:10557000F9332091FB023091FC02A9015595479522
:105580005595479555954795559547952091000216
:1055900030910102DA01A21BB30B9D01B7FF02C0DB
:1055A0000C944239A436B10514F40C94743720914C
:1055B00024113091251140E050E00E947D81DC01F2
:1055C000CB0104C0B695A79597958795CA95D2F754
:1055D0008130E0E19E07A105B10520F080E090E177
:1055E000A0E0B0E08093E0119093E111A093E2116C
:1055F000B093E31181309440A105B10510F40C94EF
:105600000D3781E08093E9118091561190915711E7
:105610008E3F2FEF920711F40C94FC3A0196909371
:105620005711809356118091E0119091E111A09152
:10563000E211B091E3118F3F9105A105B10509F089
:1056400010F40C942E371092EF111092EE1182E0AC
:105650008093F61180E093E09093701180936F1126
:105660000E94C75E81110C9413218091E911E09191
:10567000FD11F091FE11882311F40C946533A08183
:10568000B1812091E0113091E1114091E2115091EE
:10569000E3110E94B681DC01CB012AE0B695A79503
:1056A000979587952A95D1F790937D1180937C11DA
:1056B0001092EF111092EE1182E08093F6118AE0C1
:1056C00093E09093701180936F110E94C75E8111D7
:1056D0000C941321E091FD11F091FE1180819181D4
:1056E00090938111809380111092EF111092EE111E
:1056F00082E08093F6118EE093E090937011809396
:105700006F110C9431228836F2E09F0709F4C9CD5D
:105710008A37924009F4E6CD8FEF9FEF9093701196
:1057200080936F1180E00C94142180917E119091F0
:105730007F11892B09F4E2C48091EA118F7B809359
:10574000EA111092EF111092EE1182E08093F6119F
:105750008DEF93E09093701180936F110E94C75E5C
:1057600081110C9413218091E911E091FD11F091C8
:10577000FE11882311F40C94AC34A081B1812091E6
:10578000E0113091E1114091E2115091E3110E943A
:10579000B681DC01CB011AE0B695A7959795879560
:1057A0001A95D1F79093ED118093EC110E94545605
:1057B0008CE094E09093701180936F118091DE11D2
:1057C00081508093DE11882311F40C94B43420911D
:1057D000EC113091ED1180917C0E90917D0EA09195
:1057E0007E0EB0917F0E820F931FA11DB11D80937D
:1057F0007C0E90937D0EA0937E0EB0937F0EE09171
:10580000760E81E08E0F8093760EF0E0EE0FFF1F94
:10581000EE0FFF1FEA58F54F8091EA119091EB11BE
:10582000A091EC11B091ED1180839183A283B38399
:105830008091EA118F778093EA1180917E11909187
:105840007F11019790937F1180937E11892B09F42A
:1058500055C41092EF111092EE1182E08093F61170
:1058600085E194E09093701180936F118091F41111
:105870009091F5116091F2117091F311681B790B01
:105880007093FC116093FB11A091F6112A2F30E068
:105890006217730710F00C9401386115710511F44B
:1058A0000C944935E091F011F091F11140E050E095
:1058B00020E0E80FF91F80E090E0A150EF01C40F55
:1058C000D51F3881EC01C251DE4E39878A2F821BE9
:1058D0008093F6112F5F822F90E0AC018617970717
:1058E00068F386EA91E09093EF118093EE11809136
:1058F000330A882311F40C9413218091340A909177
:10590000350A8B52964011F40C94183B8BE296E0CA
:105910009093350A8093340ADC0180912F0A90918C
:10592000300A40912B0A50912C0A60912D0A7091F7
:105930002E0A480F591F611D711D40932B0A509369
:105940002C0A60932D0A70932E0A1092330A9093BA
:10595000F3118093F211B093F111A093F0114091E3
:10596000F6114423A9F08091FB119091FC11FC01E8
:10597000E950FE4E9C01265F3F4F8FEF840F280FAA
:10598000311D22513E4E8D918193E217F307D9F7D5
:1059900087EF91E19093FE118093FD11842F90E0A9
:1059A0009093F5118093F411E7EFF1E18FEF9FEF02
:1059B0009093EF118093EE118091E911882311F4F7
:1059C0000C94A535A081B1812091E0113091E111B5
:1059D0004091E2115091E3110E94B681DC01CB01AC
:1059E000CAE0B695A79597958795CA95D1F79093F4
:1059F000ED118093EC1190917B119093EB118091BC
:105A00007A11882309F406C7409196115091971195
:105A1000609198117091991177FF02C00C94343AFB
:105A20000091BE111091BF112091C0113091C11190
:105A3000400F511F621F731F40939611509397118F
:105A4000609398117093991191609093EB1181304C
:105A500009F0E0C640919E1150919F116091A011F4
:105A60007091A11177FF02C00C9413380091C611F8
:105A70001091C7112091C8113091C911400F511FC9
:105A8000621F731F40939E1150939F116093A0114A
:105A90007093A1119091EB1194609093EB1183306E
:105AA00039F14091A2115091A3116091A41170910C
:105AB000A51177FF02C00C9429380091CA111091EA
:105AC000CB112091CC113091CD11400F511F621F8D
:105AD000731F4093A2115093A3116093A41170936C
