:10000000CBC50000F3C50000F1C50000EFC500003E
:10001000EDC50000EBC50000E9C50000E7C5000024
:10002000E5C50000E3C50000E1C50000DFC5000034
:10003000DDC50000DBC50000D9C50000D7C5000044
:10004000D5C50000D3C500000C942A4DCFC50000D3
:100050000C94A456CBC50000C9C50000C7C500005C
:10006000C5C50000C3C50000C1C50000BFC5000074
:10007000BDC50000BBC50000B9C50000B7C5000084
:100080000C94EF540C94484EB1C50000126F796F78
:10009000DC6DDC6DDC6D3E6F316F0A70C86FF56F23
:1000A0002D6FDC6DDC6DDC6DDC6DDC6DDC6DDC6DB5
:1000B000DC6DDC6DDC6DDC6DDC6D79727772DC6DB6
:1000C000DC6DDC6D6C726A7268726672DC6D647213
:1000D0006172DC6D7C7256724A723E7229721B72BA
:1000E000FF71FC716F71DC6D5D711E711B710F71A1
:1000F000DC6DDC6D0971DC6D0471F370EE70D7702E
:100100008A7084708270807079705D70176F766FFE
:10011000DD4BE14BE54BEB4BDC4BDC4BF14BF74B59
:10012000FD4BD74BDD4CE24CD34CC94C8F4C8F4C24
:10013000C14CB94CAF4CA24C441F041D671B2A1A7A
:100140002B195718A21706177B16001692152D1596
:10015000D1147C142E14E513A11362132613ED128F
:10016000B812851255122712FC11D211AA1184114E
:100170005F113B111911F810D910BA109C108010A2
:10018000641049102F101510FC0FE40FCD0FB60F9F
:10019000A00F8A0F750F610F4C0F390F250F130F2A
:1001A000000FEE0EDD0ECB0EBA0EAA0E990E890EC2
:1001B0007A0E6A0E5B0E4C0E3E0E2F0E210E130EA3
:1001C000060EF80DEB0DDE0DD10DC50DB80DAC0D05
:1001D000A00D940D880D7D0D710D660D5B0D500DFC
:1001E000450D3B0D300D260D1B0D110D070DFD0CA2
:1001F000F30CEA0CE00CD70CCD0CC40CBB0CB20C0D
:10020000A90CA00C980C8F0C860C7E0C760C6D0C37
:10021000650C5D0C550C4D0C450C3D0C350C2E0C35
:10022000260C1F0C170C100C080C010CFA0BF30B0E
:10023000EC0BE50BDE0BD70BD00BC90BC20BBC0BC9
:10024000B50BAE0BA80BA10B9B0B950B8E0B880B64
:10025000820B7B0B750B6F0B690B630B5D0B570BE5
:10026000510B4C0B460B400B3A0B350B2F0B290B4C
:10027000240B1E0B190B130B0E0B080B030BFE0AA2
:10028000F80AF30AEE0AE90AE40ADE0AD90AD40AED
:10029000CF0ACA0AC50AC00ABB0AB60AB10AAD0A21
:1002A000A80AA30A9E0A990A950A900A8B0A870A45
:1002B000820A7E0A790A740A700A6B0A670A620A5D
:1002C0005E0A5A0A550A510A4C0A480A440A400A68
:1002D0003B0A370A330A2F0A2A0A260A220A1E0A6A
:1002E0001A0A160A120A0E0A0A0A060A020AFE095F
:1002F000FA09F609F209EE09EA09E609E209DE0956
:10030000DA09D709D309CF09CB09C809C409C0093B
:10031000BC09B909B509B109AE09AA09A609A30919
:100320009F099B099809940991098D098A098609F1
:1003300083097F097C097809750971096E096B09C0
:100340006709640960095D095A095609530950098A
:100350004C094909460942093F093C09390935094F
:1003600032092F092C092909250922091F091C090D
:100370001909160912090F090C09090906090309C7
:100380000009FD08FA08F708F408F108ED08EA0882
:10039000E708E408E108DE08DB08D908D608D30836
:1003A000D008CD08CA08C708C408C108BE08BB08E1
:1003B000B808B508B308B008AD08AA08A708A4088B
:1003C000A1089F089C0899089608930891088E0830
:1003D0008B0888088608830880087D087B087808D1
:1003E0007508720870086D086A0868086508620870
:1003F0005F085D085A085708550852084F084D080D
:100400004A0848084508420840083D083A083808A4
:100410003508330830082E082B082808260823083A
:1004200021081E081C0819081708140811080F08CD
:100430000C080A080708050802080008FD07FB0762
:10044000F807F607F307F107EE07EC07EA07E707F7
:10045000E507E207E007DD07DB07D807D607D40783
:10046000D107CF07CC07CA07C707C507C307C0070F
:10047000BE07BB07B907B707B407B207B007AD0798
:10048000AB07A807A607A407A1079F079D079A0720
:1004900098079607930791078F078C078A078807A5
:1004A0008507830781077E077C077A07780775072A
:1004B000730771076E076C076A07670765076307AD
:1004C00061075E075C075A0758075507530751072E
:1004D0004F074C074A0748074607430741073F07AE
:1004E0003D073A0738073607340731072F072D072E
:1004F0002B07290726072407220720071D071B07AC
:10050000190717071507120710070E070C070A0728
:100510000707050703070107FF06FC06FA06F806AA
:10052000F606F406F206EF06ED06EB06E906E70628
:10053000E506E206E006DE06DC06DA06D806D506A3
:10054000D306D106CF06CD06CB06C806C606C4061E
:10055000C206C006BE06BC06B906B706B506B30697
:10056000B106AF06AD06AA06A806A606A406A20610
:10057000A0069E069C069906970695069306910688
:100580008F068D068B068806860684068206800600
:100590007E067C067A0677067506730671066F0678
:1005A0006D066B06690666066406620660065E06F0
:1005B0005C065A0658065606530651064F064D0667
:1005C0004B06490647064506430640063E063C06DE
:1005D0003A06380636063406320630062D062B0655
:1005E000290627062506230621061F061D061A06CC
:1005F000180616061406120610060E060C060A0643
:100600000706050603060106FF05FD05FB05F905BE
:10061000F605F405F205F005EE05EC05EA05E8053A
:10062000E505E305E105DF05DD05DB05D905D705B2
:10063000D405D205D005CE05CC05CA05C805C6052A
:10064000C305C105BF05BD05BB05B905B705B405A3
:10065000B205B005AE05AC05AA05A705A505A3051D
:10066000A1059F059D059B05980596059405920596
:1006700090058E058B058905870585058305810510
:100680007E057C057A0578057605730571056F058D
:100690006D056B05680566056405620560055D0509
:1006A0005B05590557055505520550054E054C0586
:1006B000490547054505430541053E053C053A0505
:1006C00038053505330531052F052C052A05280584
:1006D0002605230521051F051C051A051805160505
:1006E000130511050F050C050A0508050605030588
:1006F0000105FF04FC04FA04F804F504F304F10412
:10070000EE04EC04EA04E704E504E304E004DE0498
:10071000DB04D904D704D404D204D004CD04CB0420
:10072000C804C604C404C104BF04BC04BA04B804A9
:10073000B504B304B004AE04AB04A904A604A40435
:10074000A1049F049D049A049804950493049004C2
:100750008E048B0489048604830481047E047C0453
:1007600079047704740472046F046C046A046704E7
:10077000650462045F045D045A045804550452047D
:1007800050044D044A0448044504420440043D0416
:100790003A043704350432042F042D042A042704B4
:1007A000240421041F041C04190416041304110456
:1007B0000E040B040804050402040004FD03FA03FC
:1007C000F703F403F103EE03EB03E803E503E203AD
:1007D000DF03DC03D903D603D303D003CD03CA035D
:1007E000C703C403C103BE03BB03B703B403B10310
:1007F000AE03AB03A803A403A1039E039B039703CB
:10080000940391038E038A038703840380037D038B
:100810007903760373036F036C0368036503610355
:100820005E035A03570353034F034C034803440327
:1008300041033D033903360332032E032A03260303
:1008400023031F031B03170313030F030B030703E8
:100850000303FF02FB02F702F302EE02EA02E602E2
:10086000E202DD02D902D502D002CC02C702C302E5
:10087000BE02BA02B502B102AC02A702A3029E02F6
:10088000990294028F028A02850280027B0276021C
:1008900071026C02660261025C02560251024B0256
:1008A000460240023A0234022F02290223021D02AC
:1008B000160210020A020402FD01F701F001E9012B
:1008C000E201DC01D501CD01C601BF01B701B001D4
:1008D000A801A001980190018801800177016E01B3
:1008E00065015C0153014A01400136012C012201DE
:1008F00017010C010101F500EA00DD00D100C40080
:10090000B600A9009A008B007C006C005B004900D7
:10091000370023000F00F9FF000021104220633050
:100920008440A550C660E770088129914AA16BB147
:100930008CC1ADD1CEE1EFF13112100273325222EF
:10094000B5529442F772D662399318837BB35AA397
:10095000BDD39CC3FFF3DEE36224433420040114BF
:10096000E664C774A44485546AA54BB528850995E7
:10097000EEE5CFF5ACC58DD553367226111630068F
:10098000D776F6669556B4465BB77AA71997388737
:10099000DFF7FEE79DD7BCC7C448E5588668A7784F
:1009A0004008611802282338CCC9EDD98EE9AFF987
:1009B000488969990AA92BB9F55AD44AB77A966A2F
:1009C000711A500A333A122AFDDBDCCBBFFB9EEBD7
:1009D000799B588B3BBB1AABA66C877CE44CC55CFF
:1009E000222C033C600C411CAEED8FFDECCDCDDD27
:1009F0002AAD0BBD688D499D977EB66ED55EF44ECF
:100A0000133E322E511E700E9FFFBEEFDDDFFCCF76
:100A10001BBF3AAF599F788F8891A981CAB1EBA1CA
:100A20000CD12DC14EF16FE18010A100C230E32046
:100A30000450254046706760B9839893FBA3DAB3EE
:100A40003DC31CD37FE35EF3B1029012F322D23296
:100A50003542145277625672EAB5CBA5A8958985BE
:100A60006EF54FE52CD50DC5E234C324A0148104E6
:100A70006674476424540544DBA7FAB79987B8978E
:100A80005FE77EF71DC73CD7D326F2369106B01636
:100A900057667676154634564CD96DC90EF92FE94E
:100AA000C899E9898AB9ABA9445865480678276886
:100AB000C018E1088238A3287DCB5CDB3FEB1EFB2E
:100AC000F98BD89BBBAB9ABB754A545A376A167AD6
:100AD000F10AD01AB32A923A2EFD0FED6CDD4DCDFE
:100AE000AABD8BADE89DC98D267C076C645C454C26
:100AF000A23C832CE01CC10C1FEF3EFF5DCF7CDFCE
:100B00009BAFBABFD98FF89F176E367E554E745E75
:100B1000932EB23ED10EF01E0000200023002600CE
:100B20002900020202020202020204040404040474
:100B3000040403030303030303030101010101018F
:100B40000101010204081020408001020408102065
:100B500040800102040810204080804020100804DA
:100B60000201000000010200090A00000000040365
:100B70000807000000000000000000000000000066
:100B8000000000002100240027002A0000002200AD
:100B9000250028002B003A7311241FBECFEFD0E4AC
:100BA000DEBFCDBF11E0A0E0B1E0ECEFF4E001E08A
:100BB0000BBF02C007900D92AC34B107D9F721E109
:100BC000ACE4B1E001C01D92A23DB207E1F715E02F
:100BD000CCECD5E004C02197FE010E943282CB3CD0
:100BE000D107C9F70E943A590C946F8209CACF9273
:100BF000DF92EF92FF920F931F93CF93DF93809139
:100C0000371090913810863B23E0920711F40C9432
:100C1000771588F18C3AE4E09E0709F497C508F04F
:100C200054C0833124E0920711F40C94A71208F009
:100C300084C4803EF3E09F0711F40C946C1610F40A
:100C40000C94A3188B3F23E0920711F40C9420120C
:100C50008A30E4E09E0711F40C944F128F3E9340CB
:100C600011F40C943B178FEF9FEF90933810809303
:100C7000371080E014C6843AF2E09F0711F40C9418
:100C8000370F08F083C18138E2E09E0711F40C941D
:100C9000540E08F4C6C78D38F2E09F0711F40C9487
:100CA000B70E10F40C94ED19853922E0920711F477
:100CB0000C94F90E8939E2E09E0711F40C94140F9C
:100CC0008139924081F60C94D80E853FE4E09E076E
:100CD00011F40C946A1908F0EBC58B3C24E09207E0
:100CE00011F40C94231A10F40C94AE188D3DE4E02A
:100CF0009E07D9F0893EF4E09F0711F40C94361951
:100D0000883D944009F0AFCF0E9405588111C6C5B7
:100D1000E091C510F091C61080818093B3108DEDE5
:100D200094E090933810809337108091A6108150F2
:100D30008093A610882311F40C943F1C2091B410CA
:100D40003091B5108091430D9091440DA091450DC7
:100D5000B091460D820F931FA11DB11D8093430DCD
:100D60009093440DA093450DB093460DE0913D0D39
:100D700081E08E0F80933D0DF0E0EE0FFF1FEE0F30
:100D8000FF1FE35CF64F8091B2109091B310A091D9
:100D9000B410B091B51080839183A283B383809106
:100DA000A2109091A31001979093A3108093A2108A
:100DB000892B11F40C94FA191092B7101092B610F6
:100DC00081E08093BE108BEC94E090933810809378
:100DD00037108091BC109091BD106091BA10709145
:100DE000BB10681B790B7093C4106093C310A09163
:100DF000BE102A2F30E06217730710F00C94C82041
:100E00006115710511F40C94171DE091B810F09163
:100E1000B91040E050E020E0E80FF91F80E090E0DA
:100E2000A150EF01C40FD51F3881EC01CA54DF4E29
:100E300039878A2F821B8093BE102F5F822F90E00C
:100E4000AC018617970768F384EA91E09093B71096
:100E50008093B6108091FA08882309F41FC5809109
:100E6000FB089091FC08825F944011F40C940523D8
:100E700082EF94E09093FC088093FB08DC01809162
:100E8000F6089091F7084091F2085091F3086091AC
:100E9000F4087091F508480F591F611D711D4093AA
:100EA000F2085093F3086093F4087093F5081092D9
:100EB000FA089093BB108093BA10B093B910A09326
:100EC000B8104091BE104423A9F08091C3109091B6
:100ED000C410FC01E154FF4E9C01265F3F4F8FEF91
:100EE000840F280F311D2A543F4E8D918193E217B4
:100EF000F307D9F78FEB90E19093C6108093C5105C
:100F0000842F90E09093BD108093BC10EFEBF0E144
:100F10008FEF9FEF9093B7108093B6108081A091D0
:100F20003C10B0913D10A80FB11D87FDBA95B0934C
:100F30003D10A0933C108091B110882311F40C94C3
:100F4000681D2091A8103091A9104091AA105091CD
:100F5000AB100E944782DC01CB014AE0B695A79511
:100F6000979587954A95D1F79093B5108093B410D3
:100F70001092B7101092B61081E08093BE1088EDE9
:100F800094E09093381080933710BECE8D3423E0D8
:100F9000920709F4C6C108F003C58830F3E09F0743
:100FA00011F40C94471010F40C948C19853323E041
:100FB000920709F48CC08434E3E09E0709F458C119
:100FC0008C30934009F04FCE0E940558811166C4C1
:100FD000E091C510F091C610208131813093471007
:100FE0002093461000914210E02FF0E0EE0FFF1F1B
:100FF000EE0FFF1FE95CFF4EC388D488E588F688B2
:10100000C0929A10D0929B10E0929C10F0929D108A
:10101000CAE4D0E1E2E7F0E110E00117F1F0488125
:1010200059816A817B81440F551F661F771FDB0141
:10103000CA018C199D09AE09BF098C8B9D8BAE8BA3
:10104000BF8B40835183628373838C199D09AE09E2
:10105000BF09848B958BA68BB78B1F5F2496349624
:101060001530D9F660913E1070913F10809140107C
:1010700090914110FC01E60FF71F409148105091EC
:1010800049104E0F5F1F240F351FC21AD30AE10803
:10109000F108C0929E10D0929F10E092A010F092A2
:1010A000A110672B11F40C9483178091B2108F7BE1
:1010B0008093B2101092B7101092B61082E0809315
:1010C000BE1085E393E090933810809337100E9410
:1010D00005588111E3C38091B110E091C510F091E2
:1010E000C610882311F40C94A01CA081B18120911A
:1010F000A8103091A9104091AA105091AB100E94F5
:101100004782DC01CB012AE0B695A7959795879594
:101110002A95D1F79093B5108093B4109091431015
:101120009093B31080914210882311F40C94DE1A2E
:1011300040915E1050915F1060916010709161104D
:1011400077FF02C00C94C021009186101091871087
:101150002091881030918910400F511F621F731F1A
:1011600040935E1050935F10609360107093611015
:1011700091609093B310813011F00C94DE1A40917D
:10118000661050916710609168107091691077FF38
:1011900002C00C946C1F00918E1010918F10209142
:1011A000901030919110400F511F621F731F409398
:1011B0006610509367106093681070936910909157
:1011C000B31094609093B310833039F140916A105A
:1011D00050916B1060916C1070916D1077FF02C090
:1011E0000C94821F009192101091931020919410F2
:1011F00030919510400F511F621F731F40936A106A
:1012000050936B1060936C1070936D109091B310AD
:1012100098609093B310843029F180916E10909172
:101220006F10A0917010B0917110B7FF02C00C94B4
:10123000DA2040919610509197106091981070911B
:101240009910840F951FA61FB71F80936E1090935F
:101250006F10A0937010B09371108091B3108061E3
:101260008093B31084E493E0909338108093371008
:101270008091A61081508093A610882311F40C94BD
:10128000491C2091B4103091B5108091430D90917C
:10129000440DA091450DB091460D820F931FA11DE5
:1012A000B11D8093430D9093440DA093450DB093D1
:1012B000460DE0913D0D81E08E0F80933D0DF0E0F5
:1012C000EE0FFF1FEE0FFF1FE35CF64F8091B21091
:1012D0009091B310A091B410B091B5108083918318
:1012E000A283B3838091B2108F778093B2108091E4
:1012F0003E1090913F10019790933F1080933E10C5
:10130000892B11F40C947F171092B7101092B6101D
:1013100082E08093BE108DE493E090933810809328
:1013200037100E9405588111B9C28091B110E09127
:10133000C510F091C610882311F40C94D31CA08121
:10134000B1812091A8103091A9104091AA1050911C
:10135000AB100E944782DC01CB011AE0B695A7953D
:10136000979587951A95D1F79093B5108093B410FF
:10137000909143109093B31080914210882311F400
:101380000C948A1B40915E1050915F106091601028
:101390007091611077FF02C00C9429220091861091
:1013A000109187102091881030918910400F511FA3
:1013B000621F731F40935E1050935F106093601024
:1013C0007093611091609093B310813011F00C9480
:1013D0008A1B40916610509167106091681070915F
:1013E000691077FF02C00C945B2000918E10109161
:1013F0008F102091901030919110400F511F621F5B
:10140000731F409366105093671060936810709339
:1014100069109091B31094609093B310833039F1B8
:1014200040916A1050916B1060916C1070916D102A
:1014300077FF02C00C9471200091921010919310CC
:101440002091941030919510400F511F621F731F0F
:1014500040936A1050936B1060936C1070936D10F2
:101460009091B31098609093B310843029F18091DB
:101470006E1090916F10A0917010B0917110B7FF25
:1014800002C00C9484214091961050919710609165
:10149000981070919910840F951FA61FB71F809305
:1014A0006E1090936F10A0937010B0937110809194
:1014B000B31080618093B3108CE593E09093381063
:1014C000809337108091A61081508093A6108823B6
:1014D00011F40C94961C2091B4103091B5108091A9
:1014E000430D9091440DA091450DB091460D820F92
:1014F000931FA11DB11D8093430D9093440DA093A4
:10150000450DB093460DE0913D0D81E08E0F809327
:101510003D0DF0E0EE0FFF1FEE0FFF1FE35CF64FF7
:101520008091B2109091B310A091B410B091B51009
:1015300080839183A283B383DACE8B3324E0920736
:1015400011F40C94BC1910F40C9499198A35E4E048
:101550009E0751F18E35F4E09F0709F446C08F34A1
:10156000944009F080CB0E940558811197C1E09109
:10157000C510F091C610808191819093A310809343
:10158000A2101092B1108091391085FFD2C0109234
:10159000B7101092B61084E08093BE108AE594E0F4
:1015A00090933810809337100E940558811176C1AE
:1015B000E091C510F091C61080819181A281B38124
:1015C0008093AC109093AD10A093AE10B093AF1079
:1015D0001092B7101092B61081E08093BE108EE585
:1015E00094E090933810809337100E940558811131
:1015F00055C1E091C510F091C610C081C093B010E4
:101600008091C2019091C301959587959595879595
:1016100095958795959587952091000130910101C9
:10162000821B930B97FF02C00C94621E84369105B7
:1016300014F40C940C1D2091EC0F3091ED0F40E050
:1016400050E06091AC107091AD108091AE1090910F
:10165000AF100E94E5819B01AC0104C056954795EF
:1016600037952795CA95D2F72130F0E13F0741051C
:10167000510520F020E030E140E050E02093A81038
:101680003093A9104093AA105093AB10213084E0FE
:1016900038074105510510F40C94531C80917001DA
:1016A000882331F1A0917101B09172010E944782AB
:1016B000DC01CB017AE0B695A795979587957A9549
:1016C000D1F78093A8109093A910A093AA10B0937B
:1016D000AB1080912010909121108E3FEFEF9E076C
:1016E00011F40C94C922019690932110809320103C
:1016F00081E08093B11080911E1090911F108E3F59
:10170000FFEF9F0711F40C940621019690931F1090
:1017100080931E108091A8109091A910A091AA10FA
:10172000B091AB1081159240A105B10510F40C9455
:10173000B21E1092B7101092B61082E08093BE10C5
:101740008CEA94E090933810809337100E940558EB
:101750008111A4C0E091C510F091C610A081B181A3
:10176000B0933D10A0933C108091B110882311F4E8
:101770000C94A21A2091A8103091A9104091AA109F
:101780005091AB100E944782DC01CB016AE0B69514
:10179000A795979587956A95D1F79093B510809303
:1017A000B4101092B7101092B61081E08093BE1062
:1017B00089EB94E090933810809337100E9405587D
:1017C00081116CC0E091C510F091C61080818093AA
:1017D000B3108EEB94E09093381080933710809183
:1017E000A61081508093A610882311F40C94071B37
:1017F0002091B4103091B5108091430D9091440D1B
:10180000A091450DB091460D820F931FA11DB11DF2
:101810008093430D9093440DA093450DB093460DD6
:10182000E0913D0D81E08E0F80933D0DF0E0EE0FD5
:10183000FF1FEE0FFF1FE35CF64F8091B2109091F7
:10184000B310A091B410B091B51080839183A2839E
:10185000B3838091B2108F778093B210809139104A
:1018600090913A1086FD02C00C94CF1A2091A210DC
:101870003091A310215031093093A3102093A2106E
:10188000232B09F099CA91FF05C08091A7108111FF
:101890000E941E2E109238101092371081E0DF91B6
:1018A000CF911F910F91FF90EF90DF90CF9008950F
:1018B0008A31E5E09E0711F40C943C1A10F40C9464
:1018C000BB188433F5E09F0709F460C08D3325E031
:1018D000920711F40C940D1A8A32954009F0C3C98D
:1018E0000E9405588111DACFE091C510F091C61021
:1018F000808191811092B31020E533EC3093B510C4
:101900002093B41033C02091B4103091B510809161
:10191000430D9091440DA091450DB091460D820F5D
:10192000931FA11DB11D8093430D9093440DA0936F
:10193000450DB093460D81E08E0F80933D0DF0E094
:10194000EE0FFF1FEE0FFF1FE35CF64F8091B2100A
:101950009091B310A091B410B091B5108083918391
:10196000A283B3838091A4109091A5109C01215073
:1019700031093093A5102093A410892B09F48ACF44
:1019800084E395E09093381080933710E0913D0DFB
:1019900080913E0D2E2F281B2F3F09F0B4CF7ECF14
:1019A000873723E0920711F40C94631810F40C9419
:1019B000E1198F38E3E09E0709F4DAC08B3AF3E0CF
:1019C0009F0709F494C78038934009F04CC90E94DE
:1019D0000558811163CF8091B110E091C510F0914D
:1019E000C610882311F40C94CB1CA0812091A81060
:1019F0003091A9104091AA105091AB10B0E00E9414
:101A00004782DC01CB01EAE0B695A79597958795CB
:101A1000EA95D1F79093B5108093B410909143104C
:101A20009093B31080914210882311F40C94611BA1
:101A300040915E1050915F10609160107091611044
:101A400077FF02C00C94132200918610109187102A
:101A50002091881030918910400F511F621F731F11
:101A600040935E1050935F1060936010709361100C
:101A700091609093B310813011F00C94611B4091F0
:101A8000661050916710609168107091691077FF2F
:101A900002C00C941A2000918E1010918F1020918A
:101AA000901030919110400F511F621F731F40938F
:101AB000661050936710609368107093691090914E
:101AC000B31094609093B310833039F140916A1051
:101AD00050916B1060916C1070916D1077FF02C087
:101AE0000C9430200091921010919310209194103A
:101AF00030919510400F511F621F731F40936A1061
:101B000050936B1060936C1070936D109091B310A4
:101B100098609093B310843029F180916E10909169
:101B20006F10A0917010B0917110B7FF02C00C94AB
:101B30006E2140919610509197106091981070917D
:101B40009910840F951FA61FB71F80936E10909356
:101B50006F10A0937010B09371108091B3108061DA
:101B60008093B3108FE893E09093381080933710F0
:101B70008091A61081508093A610882311F40C94B4
:101B80008C1C2091B4103091B5108091430D909130
:101B9000440DA091450DB091460D820F931FA11DDC
:101BA000B11D8093430D9093440DA093450DB093C8
:101BB000460DE0913D0D81E08E0F80933D0DF0E0EC
:101BC000EE0FFF1FEE0FFF1FE35CF64F8091B21088
:101BD0009091B310A091B410B091B510808391830F
:101BE000A283B3838091401090914110019790930C
:101BF000411080934010892B09F4B5C51092B7109D
:101C00001092B61081E08093BE1080E893E090932C
:101C10003810809337100E940558882309F4DBCED2
:101C20003DCE823622E0920709F419C308F44CC273
:101C3000863622E0920709F42AC38837924009F0D9
:101C400012C88091B6109091B710843A21E09207A3
:101C500009F47EC3853BE1E09E0711F40C94EB1B75
:101C6000892B09F434C3E091C510F091C6108FEFB1
:101C70009FEF9093B7108093B6109081909342108D
:101C800081E001C0880F9A95EAF780934310109283
:101C9000B7101092B61084E08093BE1081E892E0F5
:101CA00090933810809337100E9405588111F6CD1B
:101CB000E091C510F091C61080819181A281B3811D
:101CC00080934A1090934B10A0934C10B0934D10FA
:101CD0001092B7101092B61084E08093BE1085E881
:101CE00092E090933810809337100E94055881112C
:101CF000D5CDE091C510F091C61080819181A2816F
:101D0000B38180934E1090934F10A0935010B093D6
:101D100051101092B7101092B61084E08093BE104C
:101D200089E892E090933810809337100E9405580C
:101D30008111B4CDE091C510F091C61080819181E0
:101D4000A281B3818093521090935310A0935410AA
:101D5000B09355101092B7101092B61084E0809393
:101D6000BE108DE892E090933810809337100E9457
:101D70000558811193CDE091C510F091C610808176
:101D80009181A281B3818093561090935710A093B4
:101D90005810B09359101092B7101092B61084E0FA
:101DA0008093BE1081E992E09093381080933710B1
:101DB0000E940558811172CDE091C510F091C610B6
:101DC00080819181A281B38180935A1090935B109E
:101DD000A0935C10B0935D101092B7101092B610E3
:101DE00082E08093BE1085E992E090933810809352
:101DF00037100E940558811151CDE091C510F09126
:101E0000C6108081918190933F1080933E10109274
:101E1000B7101092B61082E08093BE1089E992E06C
:101E200090933810809337100E940558811136CD59
:101E3000E091C510F091C61080819181909341107E
:101E4000809340101092B1108091391090913A1007
:101E500090FFDCC01092B7101092B61084E080930F
:101E6000BE1084EA92E090933810809337100E945D
:101E70000558811113CDE091C510F091C6108081F5
:101E80009181A281B3818093AC109093AD10A09307
:101E9000AE10B093AF101092B7101092B61081E050
:101EA0008093BE1088EA92E09093381080933710A8
:101EB0000E9405588111F2CCE091C510F091C61036
:101EC000C081C093B0106091AC107091AD10809142
:101ED000AE109091AF10611571058105910511F457
:101EE0000C94B31B2091C2013091C301A9015595F7
:101EF0004795559547955595479555954795209103
:101F0000000130910101FA01E21BF30B9F01F7FF81
:101F100002C00C940A21E436F10514F40C94371F26
:101F20002091EC0F3091ED0F40E050E00E94E581F0
:101F30009B01AC0104C05695479537952795CA95E6
:101F4000D2F72130F0E13F074105510520F020E0B4
:101F500030E140E050E02093A8103093A910409366
:101F6000AA105093AB10213084E038074105510589
:101F700010F40C946A1E80917001882331F1A091B5
:101F80007101B09172010E944782DC01CB01DAE05D
:101F9000B695A79597958795DA95D1F78093A81070
:101FA0009093A910A093AA10B093AB108091201029
:101FB000909121108E3FEFEF9E0711F40C94F922BF
:101FC0000196909321108093201081E08093B110AE
:101FD00080911E1090911F108E3FFFEF9F0711F40C
:101FE0000C94AF22019690931F1080931E10809145
:101FF000A8109091A910A091AA10B091AB108115D2
:102000009240A105B10510F40C94AA1E1092B710CD
:102010001092B61082E08093BE108EEF92E0909303
:102020003810809337100E940558811137CC809169
:10203000B110E091C510F091C610882311F40C94F2
:10204000731AA081B1812091A8103091A9104091FC
:10205000AA105091AB100E944782DC01CB01CAE06C
:10206000B695A79597958795CA95D1F79093451002
:10207000809344101092B7101092B61082E08093B3
:10208000BE1088E093E090933810809337100E9440
:102090000558811103CCE091C510F091C6108081E4
:1020A000918190934910809348101092B71010922C
:1020B000B61082E08093BE108CE093E090933810CD
:1020C000809337100C94E407009711F40C94641A71
:1020D0008034924011F00C9433060E94055881110F
:1020E000DDCBE091C510F091C61080818C3011F4E9
:1020F0000C94A92110F00C94A81C873009F4A9C0F5
:102100008B3011F40C94B71D833011F40C949A2188
:102110009091CA022091CB02392F321B3F3F41F1EF
:10212000E1E0E90FE093CA02A92FB0E0A853BE4F47
:1021300012961C923E2F321B3F3FD1F032E0390FF6
:102140003093CA02F0E0E853FE4F43E04283432F4E
:1021500050E05093D3024093D202321B3F3F41F0F4
:102160009D5F9093CA02FA01E853FE4F91E092837B
:102170009091CA02492F50E05093D1024093D0026F
:10218000392F321B3F3F11F40C94F1229F5F909343
:10219000CA02DA01A853BE4F91E012969C9312979F
:1021A0004091D2025091D302FA01FF27E853FE4F2B
:1021B00092819F5F928312969C9112979F5F1296D5
:1021C0009C93A091CA029A2F921B9F3F11F40C94EA
:1021D000222391E09A0F9093CA02B0E0A853BE4F19
:1021E00035E012963C9332813F5F3283882311F4AD
:1021F0000C94E1226091D0027091D102EB01DD27B5
:10220000C853DE4F3A813F5F3A83392F321B3F3F3D
:1022100011F40C941E2331E0390F3093CA02A92F18
:10222000B0E0A853BE4F12968C9382818F5F828359
:10223000321B3F3F11F40C94EC226F3F7F4F11F0A3
:102240008FEF8A838091CE028F5F8093CE020E94AF
:10225000494382E692E09093381080933710809142
:102260003D0D90913E0D891B80958093A61088238B
:1022700009F414CB1092B7101092B61082E080933C
:10228000BE1086E692E090933810809337100E943B
:102290000558811103CBE091C510F091C6108081E3
:1022A00091818093391090933A1087FF03C08F7902
:1022B0008093B2101092B7101092B61081E0809304
:1022C000BE1088E792E09093381080933710809189
:1022D000BC109091BD106091BA107091BB10681B3A
:1022E000790B7093C4106093C310A091BE102A2F75
:1022F00030E06217730710F00C94BA1E6115710577
:1023000011F40C94E51BE091B810F091B91040E085
:1023100050E020E0E80FF91F80E090E0A150EF01CD
:10232000C40FD51F3881EC01CA54DF4E39878A2F7C
:10233000821B8093BE102F5F822F90E0AC01861726
:10234000970768F384EA91E09093B7108093B610F2
:102350008091FA08882309F4A1CA8091FB08909122
:10236000FC08825F944011F40C94D82282EF94E030
:102370009093FC088093FB08DC018091F608909113
:10238000F7084091F2085091F3086091F4087091B9
:10239000F508480F591F611D711D4093F2085093B5
:1023A000F3086093F4087093F5081092FA0890937C
:1023B000BB108093BA10B093B910A093B81040919D
:1023C000BE104423A9F08091C3109091C410FC0169
:1023D000E154FF4E9C01265F3F4F8FEF840F280F83
:1023E000311D2A543F4E8D918193E217F307D9F79F
:1023F0008FEB90E19093C6108093C510842F90E0EE
:102400009093BD108093BC10EFEBF0E130CC809145
:10241000461090914710892B09F467C58091B2103E
:102420008F7B8093B2101092B7101092B61082E09A
:102430008093BE108BEF93E0909338108093371009
:102440000E94055881112ACA8091B110E091C510EF
:10245000F091C610882311F40C94BA1BA081B181AD
:102460002091A8103091A9104091AA105091AB1062
:102470000E944782DC01CB011AE0B695A79597959B
:1024800087951A95D1F79093B5108093B4100E9458
:10249000D4568AE094E0909338108093371080915E
:1024A000A61081508093A610882311F40C94C21BAF
:1024B0002091B4103091B5108091430D9091440D4E
:1024C000A091450DB091460D820F931FA11DB11D26
:1024D0008093430D9093440DA093450DB093460D0A
:1024E000E0913D0D81E08E0F80933D0DF0E0EE0F09
:1024F000FF1FEE0FFF1FE35CF64F8091B21090912B
:10250000B310A091B410B091B51080839183A283D1
:10251000B3838091B2108F778093B2108091461070
:102520009091471001979093471080934610892B04
:1025300009F4DBC41092B7101092B61082E08093B9
:10254000BE1083E194E090933810809337100E947E
:1025500005588111A3C98091B110E091C510F09187
:10256000C610882311F40C94BA1CA081B18120916B
:10257000A8103091A9104091AA105091AB100E9460
:102580004782DC01CB01CAE0B695A7959795879560
:10259000CA95D1F79093B5108093B41090914310E1
:1025A0009093B31080914210882311F40C94111B66
:1025B00040915E1050915F106091601070916110B9
:1025C00077FF02C00C94D6210091861010918710DD
:1025D0002091881030918910400F511F621F731F86
:1025E00040935E1050935F10609360107093611081
:1025F00091609093B310813011F00C94111B4091B5
:10260000661050916710609168107091691077FFA3
:1026100002C00C94D91F00918E1010918F10209140
:10262000901030919110400F511F621F731F409303
:1026300066105093671060936810709369109091C2
:10264000B31094609093B310833039F140916A10C5
:1026500050916B1060916C1070916D1077FF02C0FB
:102660000C94EF1F009192101091931020919410F0
:1026700030919510400F511F621F731F40936A10D5
:1026800050936B1060936C1070936D109091B31019
:1026900098609093B310843029F180916E109091DE
:1026A0006F10A0917010B0917110B7FF02C00C9420
:1026B000422140919610509197106091981070911E
:1026C0009910840F951FA61FB71F80936E109093CB
:1026D0006F10A0937010B09371108091B31080614F
:1026E0008093B31082E294E0909338108093371077
:1026F0008091A61081508093A610882311F40C9429
:10270000791C2091B4103091B5108091430D9091B7
:10271000440DA091450DB091460D820F931FA11D50
:10272000B11D8093430D9093440DA093450DB0933C
:10273000460DE0913D0D81E08E0F80933D0DF0E060
:10274000EE0FFF1FEE0FFF1FE35CF64F8091B210FC
:102750009091B310A091B410B091B5108083918383
:10276000A283B383DBCE80919E1090919F10A091A5
:10277000A010B091A110892B8A2B8B2B09F40DC2CC
:102780008091B21083FF03C080648093B210809167
:102790004410909145109093B5108093B41090918F
:1027A00043109093B31080914210882309F4D0C64F
:1027B00040915E1050915F106091601070916110B7
:1027C00077FF02C00C945821009186101091871059
:1027D0002091881030918910400F511F621F731F84
:1027E00040935E1050935F1060936010709361107F
:1027F00091609093B310813009F0AAC640916610A1
:1028000050916710609168107091691077FF02C055
:102810000C940B1F00918E1010918F10209190102E
:1028200030919110400F511F621F731F409366102B
:102830005093671060936810709369109091B31073
:1028400094609093B310833039F140916A105091A5
:102850006B1060916C1070916D1077FF02C00C943A
:10286000211F00919210109193102091941030919B
:102870009510400F511F621F731F40936A105093B1
:102880006B1060936C1070936D109091B310986002
:102890009093B310843029F180916E1090916F1055
:1028A000A0917010B0917110B7FF02C00C94B220CB
:1028B00040919610509197106091981070919910D6
:1028C000840F951FA61FB71F80936E1090936F10F3
:1028D000A0937010B09371108091B31080618093B9
:1028E000B3108BEA93E09093381080933710809167
:1028F000A61081508093A610882309F4B0C72091B8
:10290000B4103091B5108091430D9091440DA09179
:10291000450DB091460D820F931FA11DB11D8093EF
:10292000430D9093440DA093450DB093460DE09157
:102930003D0D81E08E0F80933D0DF0E0EE0FFF1F07
:10294000EE0FFF1FE35CF64F8091B2109091B31031
:10295000A091B410B091B51080839183A283B3830A
:102960008091B2108F778093B21040919E10509159
:102970009F106091A0107091A11041505109610900
:10298000710940939E1050939F106093A010709314
:10299000A110452B462B472B09F4FCC09091431006
:1029A0009093B31080914210882311F40C94E41C8E
:1029B00040915E1050915F106091601070916110B5
:1029C00077FF02C00C94B3220091861010918710FB
:1029D0002091881030918910400F511F621F731F82
:1029E00040935E1050935F1060936010709361107D
:1029F00091609093B310813009F0E6C74091661062
:102A000050916710609168107091691077FF02C053
:102A10000C946D2200918E1010918F1020919010C7
:102A200030919110400F511F621F731F4093661029
:102A30005093671060936810709369109091B31071
:102A400094609093B310833039F140916A105091A3
:102A50006B1060916C1070916D1077FF02C00C9438
:102A60008322009192101091931020919410309134
:102A70009510400F511F621F731F40936A105093AF
:102A80006B1060936C1070936D109091B310986000
:102A90009093B310843029F180916E1090916F1053
:102AA000A0917010B0917110B7FF02C00C949922E0
:102AB00040919610509197106091981070919910D4
:102AC000840F951FA61FB71F80936E1090936F10F1
:102AD000A0937010B09371108091B31080618093B7
:102AE000B31086EB93E09093381080933710809169
:102AF000A61081508093A610882309F45CC720910A
:102B0000B4103091B5108091430D9091440DA09177
:102B1000450DB091460D820F931FA11DB11D8093ED
:102B2000430D9093440DA093450DB093460DE09155
:102B30003D0D81E08E0F80933D0DF0E0EE0FFF1F05
:102B4000EE0FFF1FE35CF64F8091B2109091B3102F
:102B5000A091B410B091B51080839183A283B38308
:102B600080919E1090919F10A091A010B091A11003
:102B70000197A109B10980939E1090939F10A09393
:102B8000A010B093A110892B8A2B8B2B09F006CFB4
:102B90008091B2108F7B8093B210809148109091F9
:102BA0004910892B09F433CC8091B2108F7B80932C
:102BB000B2101092B7101092B61081E08093BE1040
:102BC00088EC93E090933810809337100E9405585A
:102BD00081110C944E0C8091B110E091C510F091D0
:102BE000C610882309F4E1C5A0812091A810309176
:102BF000A9104091AA105091AB10B0E00E944782FA
:102C0000DC01CB014AE0B695A795979587954A9543
:102C1000D1F79093B5108093B4100E94D45687EDED
:102C200093E090933810809337108091A6108150D4
:102C30008093A610882309F4AFC52091B410309179
:102C4000B5108091430D9091440DA091450DB09128
:102C5000460D820F931FA11DB11D8093430D9093CC
:102C6000440DA093450DB093460DE0913D0D81E0DC
:102C70008E0F80933D0DF0E0EE0FFF1FEE0FFF1F54
:102C8000E35CF64F8091B2109091B310A091B41014
:102C9000B091B51080839183A283B3838091B210E9
:102CA0008F778093B21080914810909149100197CE
:102CB0009093491080934810892B09F4A8CB109267
:102CC000B7101092B61081E08093BE1080EE93E0B2
:102CD00090933810809337100E94055881110C94FE
:102CE0004E0C8091B110E091C510F091C610882370
:102CF00009F448C6A0812091A8103091A9104091F4
:102D0000AA105091AB10B0E00E944782DC01CB01C9
:102D10002AE0B695A795979587952A95D1F7909330
:102D2000B5108093B410909143109093B31080919C
:102D30004210882309F49EC440915E1050915F10A8
:102D4000609160107091611077FF02C00C94EC21CB
:102D50000091861010918710209188103091891071
:102D6000400F511F621F731F40935E1050935F10FE
:102D7000609360107093611091609093B3108130F4
:102D800009F078C440916610509167106091681006
:102D90007091691077FF02C00C94981F00918E10FB
:102DA00010918F102091901030919110400F511F71
:102DB000621F731F409366105093671060936810F2
:102DC000709369109091B31094609093B310833016
:102DD00039F140916A1050916B1060916C107091B4
:102DE0006D1077FF02C00C94AE1F009192101091ED
:102DF00093102091941030919510400F511F621F35
:102E0000731F40936A1050936B1060936C10709313
:102E10006D109091B31098609093B310843029F1A5
:102E200080916E1090916F10A0917010B091711000
:102E3000B7FF02C00C942C2140919610509197102E
:102E40006091981070919910840F951FA61FB71F5D
:102E500080936E1090936F10A0937010B0937110C8
:102E60008091B31080618093B3108FEE93E09093C4
:102E70003810809337108091A61081508093A6104F
:102E8000882309F440C52091B4103091B510809189
:102E9000430D9091440DA091450DB091460D820FC8
:102EA000931FA11DB11D8093430D9093440DA093DA
:102EB000450DB093460DE0913D0D81E08E0F80935E
:102EC0003D0DF0E0EE0FFF1FEE0FFF1FE35CF64F2E
:102ED0008091B2109091B310A091B410B091B51040
:102EE00080839183A283B383DECE80913910909149
:102EF0003A1092FF02C00C94450C0C944A0C80913D
:102F0000401090914110892B09F42DCC8091B21082
:102F10008F7B8093B2101092B7101092B61081E0A0
:102F20008093BE1088E693E090933810809337101A
:102F30000E94055881110C944E0C8091B110E091C3
:102F4000C510F091C610882309F492C4A081209185
:102F5000A8103091A9104091AA105091AB10B0E088
:102F60000E944782DC01CB01CAE0B695A7959795F0
:102F70008795CA95D1F79093B5108093B41090912E
:102F800043109093B31080914210882309F4B3C288
:102F900040915E1050915F106091601070916110CF
:102FA00077FF02C00C94F0200091861010918710DA
:102FB0002091881030918910400F511F621F731F9C
:102FC00040935E1050935F10609360107093611097
:102FD00091609093B310813009F08DC240916610DA
:102FE00050916710609168107091691077FDE9C683
:102FF00000918E1010918F102091901030919110AF
:10300000400F511F621F731F40936610509367104B
:1030100060936810709369109091B31094609093CE
:10302000B310833029F140916A1050916B10609178
:103030006C1070916D1077FDD9C6009192101091AF
:1030400093102091941030919510400F511F621FE2
:10305000731F40936A1050936B1060936C107093C1
:103060006D109091B31098609093B310843029F153
:1030700080916E1090916F10A0917010B0917110AE
:10308000B7FF02C00C949C2040919610509197106D
:103090006091981070919910840F951FA61FB71F0B
:1030A00080936E1090936F10A0937010B093711076
:1030B0008091B31080618093B31087E793E0909381
:1030C0003810809337108091A61081508093A610FD
:1030D000882309F471C32091B4103091B510809108
:1030E000430D9091440DA091450DB091460D820F76
:1030F000931FA11DB11D8093430D9093440DA09388
:10310000450DB093460DE0913D0D81E08E0F80930B
:103110003D0DF0E0EE0FFF1FEE0FFF1FE35CF64FDB
:103120008091B2109091B310A091B410B091B510ED
:1031300080839183A283B3838091B2108F77809331
:10314000B2100C94F20D883CE3E09E0709F43ECDEA
:10315000873D934009F469CD0C943306893BF4E034
:103160009F0711F40C94DE0B8E3B944011F40C94E9
:10317000EF0B0C9433068A3F24E0920729F181314A
:10318000954011F00C9433060E94055881110C945F
:103190004E0CE091C510F091C610D181C081D111C3
:1031A0000C943F221092291010922A1010922B108A
:1031B00010922C10C63408F4C6E46C2F70E084E042
:1031C0000E94774C0C944A0C8091A61081508093F9
:1031D000A610882309F497C02091B4103091B5103F
:1031E0008091430D9091440DA091450DB091460DF5
:1031F000820F931FA11DB11D8093430D9093440D29
:10320000A093450DB093460DE0913D0D81E08E0FEA
:1032100080933D0DF0E0EE0FFF1FEE0FFF1FE35C0C
:10322000F64F8091B2109091B310A091B410B0916C
:10323000B51080839183A283B3838091A210909173
:10324000A31001979093A3108093A210892B09F4E7
:10325000D1C01092B7101092B61082E08093BE10C9
:1032600089EE94E090933810809337100E940558AF
:1032700081110C944E0C8091B110E091C510F09129
:10328000C610882309F41DC4A081B1812091A81023
:103290003091A9104091AA105091AB100E94478222
:1032A000DC01CB012AE0B695A795979587952A95DD
:1032B000D1F79093B5108093B4101092B71010927C
:1032C000B61081E08093BE1085EF94E090933810A3
:1032D000809337100E94055881110C944E0CE09198
:1032E000C510F091C61080818093B3108AEF94E0EE
:1032F00090933810809337108091A610815080935E
:10330000A610811169CF86EA90E10E94CA568823EF
:1033100011F40C944E0C60CF883AE2E09E0711F451
:103320000C94580F8E3F924011F40C9413100C948F
:1033300033068232F4E09F0709F4DAC987339440F8
:1033400011F00C94330680913D0D90913E0D891B38
:1033500080958093A610882311F40C944E0C109243
:10336000B7101092B61082E08093BE108BE394E009
:1033700090933810809337100E94055881110C9457
:103380004E0CE091C510F091C61080819181809320
:10339000391090933A1087FDFCC28091B2108F7B58
:1033A0008093B2101092B7101092B61082E0809302
:1033B000BE108FE494E090933810809337100C94F3
:1033C000B30A8C35F3E09F0711F40C94620A883637
:1033D000934009F4ADCD0C9433068538E2E09E07A6
:1033E00011F40C94750E8938924011F40C94960ED9
:1033F0000C9433068091391090913A100C94430C40
:103400001092B7101092B61084E08093BE108DE336
:1034100095E090933810809337100E9405588111E1
:103420000C944E0CE091C510F091C6106181728130
:10343000438180810E94FC51109238101092371005
:1034400081E00C944F0C8091B6109091B710843AA3
:10345000E1E09E0711F40C942A07853BF1E09F07F9
:1034600009F4EBC2892B11F40C94E906E091C51024
:10347000F091C6100C9488078091B6109091B71007
:10348000843AF1E09F0709F4BEC3853B21E092072F
:1034900009F42AC3892B09F477C3E091C510F09190
:1034A000C6108FEF9FEF9093B7108093B610618195
:1034B000728140E080810E94FC511092381010927D
:1034C000371081E00C944F0C1092B7101092B61088
:1034D00081E08093BE1080E492E090933810809356
:1034E00037100C946D1080819181909345108093DA
:1034F00044100C943A104091621050916310609106
:1035000064107091651077FD47C400918A10109186
:103510008B1020918C1030918D10400F511F621F25
:10352000731F409362105093631060936410709304
:1035300065109091B31092609093B310823009F0AF
:103540004DCD71CDB093B510A093B4100C94D10BA8
:1035500040916210509163106091641070916510F9
:1035600077FD90C400918A1010918B1020918C10DF
:1035700030918D10400F511F621F731F40936210D6
:103580005093631060936410709365109091B31022
:1035900092609093B310823009F030C956C92091DF
:1035A000A2103091A310215031093093A310209321
:1035B000A210232B11F40C94430C4BCE40916210BB
:1035C00050916310609164107091651077FD6FC425
:1035D00000918A1010918B1020918C1030918D10D9
:1035E000400F511F621F731F40936210509363106E
:1035F00060936410709365109091B31092609093F3
:10360000B310823011F00C94BF080C94E60886EADF
:1036100090E10E94CA56882311F40C944E0C0C942D
:10362000F80B40916210509163106091641070919A
:10363000651077FDA9C400918A1010918B1020911C
:103640008C1030918D10400F511F621F731F4093DB
:1036500062105093631060936410709365109091A2
:10366000B31092609093B310823011F00C94FF125B
:103670000C94261340916210509163106091641075
:103680007091651077FDC1C400918A1010918B1064
:1036900020918C1030918D10400F511F621F731FAD
:1036A00040936210509363106093641070936510A0
:1036B0009091B31092609093B310823009F062CB76
:1036C00088CB4091621050916310609164107091AA
:1036D000651077FD1CC500918A1010918B10209108
:1036E0008C1030918D10400F511F621F731F40933B
:1036F0006210509363106093641070936510909102
:10370000B31092609093B310823011F00C943F0D7F
:103710000C94660D4091621050916310609164109A
:103720007091651077FDB2C400918A1010918B10D2
:1037300020918C1030918D10400F511F621F731F0C
:1037400040936210509363106093641070936510FF
:103750009091B31092609093B310823011F00C945A
:10376000E9090C94100A8091B11081110C94F70FA3
:103770000C940610808191819093B5108093B410C1
:103780000C94471286EA90E10E94CA56882311F4ED
:103790000C944E0C0C94581286EA90E10E94CA5682
:1037A000882311F40C944E0C48CA808190E09093C9
:1037B000B5108093B41031CA86EA90E10E94CA56CF
:1037C000882311F40C944E0C86CC85EB91E09093F9
:1037D000B7108093B6108091FA08882311F40C94E6
:1037E0004E0C8091FB089091FC08825F944009F494
:1037F000D7C682EF94E09093FC088093FB08FC010D
:103800002091F6083091F7088091F2089091F30822
:10381000A091F408B091F508820F931FA11DB11D6E
:103820008093F2089093F308A093F408B093F508FE
:103830001092FA083093BB102093BA10F093B9108D
:10384000E093B810F093C610E093C5108091BE10BD
:1038500090E09093BD108093BC100C94370E86EAD4
:1038600090E10E94CA56882311F40C944E0C47C86C
:10387000808190E09093B5108093B41080CB86EA5D
:1038800090E10E94CA56882311F40C944E0C0C94BB
:103890009E0686EA90E10E94CA56882311F40C9491
:1038A0004E0C0C94410980917001882309F438C2B0
:1038B0008091710190917201A0E0B0E08093A81016
:1038C0009093A910A093AA10B093AB1081E08093BD
:1038D000B11080912010909121108E3F2FEF920710
:1038E00009F45BC6019690932110809320100C94EC
:1038F0008A0B86EA90E10E94CA56882311F40C9440
:103900004E0C0C94811386EA90E10E94CA568823DB
:1039100011F40C944E0CB7CA86EA90E10E94CA5684
:10392000882311F40C944E0C0C94C10D86EA90E19E
:103930000E94CA56882311F40C944E0C0C946B0A06
:10394000808191819093B5108093B4100C948E086F
:10395000813109F455CD873711F40C944A0C8D3020
:1039600011F00C94881087E394E0909338108093C2
:103970003710E9CC808191819093B5108093B41079
:103980000C94CE12808190E09093B5108093B41087
:10399000CAC98F7904CD808190E09093B51080934F
:1039A000B4100C940E0D808191819093B51080938A
:1039B000B4100C94B80986EA90E10E94CA56882394
:1039C00011F40C944E0C9BC84091621050916310FE
:1039D000609164107091651077FD6AC500918A103E
:1039E00010918B1020918C1030918D10400F511F31
:1039F000621F731F409362105093631060936410B2
:103A0000709365109091B31092609093B3108230D0
:103A100011F00C94FE1419C8880F991FFC01EA5D7F
:103A2000F04F2081318140E050E00C94210B85EB78
:103A300091E09093B7108093B6108091FA08882394
:103A400011F40C944E0C8091FB089091FC08825F5D
:103A5000944009F4D2C582EF94E09093FC088093DF
:103A6000FB08FC012091F6083091F7088091F208DC
:103A70009091F308A091F408B091F508820F931F7C
:103A8000A11DB11D8093F2089093F308A093F40850
:103A9000B093F5081092FA083093BB102093BA1037
:103AA000F093B910E093B810F093C610E093C510EE
:103AB0008091BE1090E09093BD108093BC100C9448
:103AC0008807808191819093B5108093B410F5CBD5
:103AD000B093B510A093B4100C94B80785EB91E0A7
:103AE0009093B7108093B6108091FA08882311F450
:103AF0000C944E0C8091FB089091FC08825F9440DE
:103B000009F494C582EF94E09093FC088093FB083D
:103B1000FC012091F6083091F7088091F20890910D
:103B2000F308A091F408B091F508820F931FA11D2E
:103B3000B11D8093F2089093F308A093F408B0931A
:103B4000F5081092FA083093BB102093BA10F09346
:103B5000B910E093B810F093C610E093C5108091AF
:103B6000BE1090E09093BD108093BC109ACC109240
:103B7000B7101092B61083E08093BE108AE195E0F2
:103B800090933810809337108091BC109091BD10A5
:103B90006091BA107091BB10681B790B7093C410C0
:103BA0006093C310A091BE102A2F30E062177307F4
:103BB00008F028C46115710509F490CFE091B810A0
:103BC000F091B91040E050E020E0E80FF91F80E0EC
:103BD00090E0A150EF01C40FD51F3881EC01CA5409
:103BE000DF4E39878A2F821B8093BE102F5F822F72
:103BF00090E0AC018617970768F384EA91E0909310
:103C0000B7108093B6108091FA08882311F40C94B1
:103C10004E0C8091FB089091FC08825F944009F45F
:103C2000FDC482EF94E09093FC088093FB08DC01D4
:103C30008091F6089091F7084091F2085091F308AE
:103C40006091F4087091F508480F591F611D711DAE
:103C50004093F2085093F3086093F4087093F508CA
:103C60001092FA089093BB108093BA10B093B910D9
:103C7000A093B8104091BE104423A9F08091C310C6
:103C80009091C410FC01E154FF4E9C01265F3F4F10
:103C90008FEF840F280F311D2A543F4E8D91819351
:103CA000E217F307D9F78FEB90E19093C61080935A
:103CB000C510842F90E09093BD108093BC10EFEB63
:103CC000F0E1EFCB2091260F3091270F40E050E03C
:103CD0000C94210B80917001882309F4A3C2809178
:103CE000710190917201A0E0B0E08093A8109093D0
:103CF000A910A093AA10B093AB1081E08093B110EB
:103D000080912010909121108E3F2FEF920709F49F
:103D10006DC4019690932110809320100C94F70F9E
:103D200080911010882309F423C380911110909181
:103D30001210A0911310B09114108093A8109093BA
:103D4000A910A093AA10B093AB1021E02093B1105A
:103D50000C94920B63E171E088EF92E00E94AF4413
:103D60000C94061063E171E085EA94E00E94AF4490
:103D70000C94990BE091B810F091B910E80FF91F6D
:103D8000F093C610E093C510820F931F9093BD105F
:103D90008093BC100C94370E009176101091771020
:103DA0002091781030917910400F511F621F731FBE
:103DB0004093621050936310609364107093651089
:103DC000BDCB00917A1010917B1020917C10309126
:103DD0007D10400F511F621F731F40936610509358
:103DE000671060936810709369101BC900917E1072
:103DF00010917F102091801030918110400F511F41
:103E0000621F731F40936A1050936B1060936C1085
:103E100070936D102BC900917A1010917B10209136
:103E20007C1030917D10400F511F621F731F409313
:103E300066105093671060936810709369100C942B
:103E4000231400917E1010917F10209180103091EA
:103E50008110400F511F621F731F40936A105093CF
:103E60006B1060936C1070936D100C944A14220FB9
:103E7000331FF901EA5DF04F2081318140E050E0CD
:103E80000C94960F00917610109177102091781075
:103E900030917910400F511F621F731F40936210C1
:103EA00050936310609364107093651074CB00910D
:103EB0007610109177102091781030917910400F82
:103EC000511F621F731F40936210509363106093E1
:103ED00064107093651095CB00917A1010917B104F
:103EE00020917C1030917D10400F511F621F731F75
:103EF0004093661050936710609368107093691038
:103F00000C94E40800917E1010917F102091801095
:103F100030918110400F511F621F731F40936A1030
:103F200050936B1060936C1070936D100C940B0990
:103F300000917A1010917B1020917C1030917D10AF
:103F4000400F511F621F731F4093661050936710FC
:103F500060936810709369100C94E71600917E10BE
:103F600010917F102091801030918110400F511FCF
:103F7000621F731F40936A1050936B1060936C1014
:103F800070936D100C940E170091761010917710AD
:103F90002091781030917910400F511F621F731FCC
:103FA0004093621050936310609364107093651097
:103FB0005BCB00917A1010917B1020917C10309196
:103FC0007D10400F511F621F731F40936610509366
:103FD000671060936810709369100C94241300911B
:103FE0007E1010917F102091801030918110400F31
:103FF000511F621F731F40936A1050936B106093A0
:104000006C1070936D100C944B13009176101091FE
:1040100077102091781030917910400F511F621F56
:10402000731F4093621050936310609364107093F9
:10403000651043CB00917A1010917B1020917C1079
:1040400030917D10400F511F621F731F4093661007
:104050005093671060936810709369100C94640D0E
:1040600000917E1010917F1020918010309181106E
:10407000400F511F621F731F40936A1050936B10C3
:1040800060936C1070936D100C948B0D00917610F2
:10409000109177102091781030917910400F511FB6
:1040A000621F731F409362105093631060936410FB
:1040B0007093651052CB00917A1010917B10209173
:1040C0007C1030917D10400F511F621F731F409371
:1040D00066105093671060936810709369100C9489
:1040E0000E0A00917E1010917F1020918010309167
:1040F0008110400F511F621F731F40936A1050932D
:104100006B1060936C1070936D100C94350A0091D5
:104110007610109177102091781030917910400F1F
:10412000511F621F731F409362105093631060937E
:10413000641070936510E8CA40918210509183100A
:104140006091841070918510840F951FA61FB71F72
:1041500080936E1090936F10A0937010B0937110B5
:104160000C945D18409182105091831060918410DE
:1041700070918510840F951FA61FB71F80936E1036
:1041800090936F10A0937010B09371100C947114F1
:10419000E091B810F091B910E80FF91FF093C61034
:1041A000E093C510820F931F9093BD108093BC10B5
:1041B0000C94880740918210509183106091841074
:1041C00070918510840F951FA61FB71F80936E10E6
:1041D00090936F10A0937010B09371100C943209EB
:1041E000009172101091731020917410309175101D
:1041F000400F511F621F731F40935E1050935F105A
:1042000060936010709361100C94EB178FEF9FEF29
:104210000C94860B2091260F3091270F40E050E040
:104220000C94960F80911010882309F49CCA8091F9
:10423000111090911210A0911310B091141080934E
:10424000A8109093A910A093AA10B093AB1021E0EE
:104250002093B1100C94FF0F409182105091831065
:104260006091841070918510840F951FA61FB71F51
:1042700080936E1090936F10A0937010B093711094
:104280000C943517409182105091831060918410E6
:1042900070918510840F951FA61FB71F80936E1015
:1042A00090936F10A0937010B09371100C947213D0
:1042B000009172101091731020917410309175104C
:1042C000400F511F621F731F40935E1050935F1089
:1042D00060936010709361100C94FB1340918210F6
:1042E000509183106091841070918510840F951FF8
:1042F000A61FB71F80936E1090936F10A09370103D
:10430000B09371100C94B20D4091821050918310B3
:104310006091841070918510840F951FA61FB71FA0
:1043200080936E1090936F10A0937010B0937110E3
:104330000C945C0A1092B7101092B61082E0809331
:10434000BE1081E195E090933810809337100C9463
:10435000C4181092B7101092B61082E08093BE106D
:104360008AE295E090933810809337100C94700C8B
:104370008091B110882311F40C94990B0C948A0B42
:10438000009172101091731020917410309175107B
:10439000400F511F621F731F40935E1050935F10B8
:1043A00060936010709361100C94BB0800917210C0
:1043B000109173102091741030917510400F511F9F
:1043C000621F731F40935E1050935F1060936010E4
:1043D000709361100C94FB12009172101091731085
:1043E0002091741030917510400F511F621F731F80
:1043F00040935E1050935F10609360107093611053
:104400000C94BF16E091B810F091B910E80FF91FA5
:10441000F093C610E093C510820F931F9093BD10C8
:104420008093BC103EC800917210109173102091BF
:10443000741030917510400F511F621F731F40930D
:104440005E1050935F1060936010709361100C9435
:104450003B0D0091721010917310209174103091E7
:104460007510400F511F621F731F40935E105093D1
:104470005F1060936010709361100C94E5096FEF0A
:1044800070E084E00E94774CC09328100E941E4D7B
:10449000DC01CB018D0F911DA11DB11D8093291051
:1044A00090932A10A0932B10B0932C100C944A0CCC
:1044B000009176101091771020917810309179103A
:1044C000400F511F621F731F40936210509363107F
:1044D00060936410709365109ACA00917A101091DD
:1044E0007B1020917C1030917D10400F511F621F76
:1044F000731F409366105093671060936810709319
:1045000069100C94231500917E1010917F1020915A
:10451000801030918110400F511F621F731F409314
:104520006A1050936B1060936C1070936D100C9424
:104530004A154091821050918310609184107091BF
:104540008510840F951FA61FB71F80936E10909340
:104550006F10A0937010B09371100C9471158FEFC1
:104560009FEF0C94F30F0091721010917310209133
:10457000741030917510400F511F621F731F4093CC
:104580005E1050935F1060936010709361100C94F4
:10459000FB148FEF9FEF0C94740B8FEF9FEFA3C969
:1045A00082EF96E09093FC088093FB08FC0128C9F9
:1045B00082EF96E09093FC088093FB08DC010C945A
:1045C000BD116FEF7FEF7093D1026093D002921B09
:1045D0009F3F11F00C94221142504093CA020C9458
:1045E0002711DA01A853BE4F0C94D0108FEF9FEF24
:1045F00091CB8FEF9FEF0C94E10F82EF96E09093B9
:10460000FC088093FB08FC012DCA82EF96E0909392
:10461000FC088093FB08DC010C943F0782EF96E0D6
:104620009093FC088093FB08DC0102CB82EF96E0BC
:104630009093FC088093FB08FC016BCA82818F5F1A
:104640008283CACF92819F5F92839A2F0C94F61037
:104650002F923F924F925F926F927F928F929F9292
:10466000AF92BF92CF92DF92EF92FF920F931F9380
:10467000CF93DF9300D000D0CDB7DEB781E090E0DC
:104680009093A3108093A21081E090E0A0E0B0E0AE
:1046900080939E1090939F10A093A010B093A110B0
:1046A0001092A71010923810109237101092BD106F
:1046B0001092BC101092BB101092BA102091F80802
:1046C0003091F9080FEF1FEF66246A9477247394F2
:1046D000E9E05E2EF2E04F2EEE24E394F12CB9EEE9
:1046E0002B2E312C8CEBC82ED12C21153105B1F09D
:1046F0008091E6029091E7028C3B910509F46BC032
:10470000893E910509F4E4C1892B09F453C2109341
:10471000E7020093E6022115310551F71092EE04ED
:104720001092EF041092F0041092F1041092E90438
:104730001092E8041092F2081092F3081092F40814
:104740001092F5081092FA0881E090E0A0E0B0E045
:104750008093EA049093EB04A093EC04B093ED04EF
:1047600010923E0D10923D0D1092470D1092480D83
:104770001092490D10924A0D1092430D1092440D63
:104780001092450D1092460D10924C0D0F900F9007
:104790000F900F90DF91CF911F910F91FF90EF90AD
:1047A000DF90CF90BF90AF909F908F907F906F9051
:1047B0005F904F903F902F9008950E941E4D609300
:1047C0000D0970930E0980930F0990931009D092F0
:1047D000E702C092E6020E941E4D6093FD087093AE
:1047E000FE088093FF08909300098091FB08909148
:1047F000FC08825F944009F406C58091F20890910C
:10480000F308A091F408B091F50829E0B695A795B2
:10481000979587952A95D1F79C01AD012F5F3F4F62
:104820004F4F5F4F8091DF02833039F089E0220FD4
:10483000331F441F551F8A95D1F761E18AED92E03D
:104840000E944D4B882309F4C7C280E38093DA02AB
:104850008091DD02882321F08AED92E00E940741D9
:104860008091E10281508093E102882309F478C5A8
:104870000E941E4D8090FD089090FE08A090FF08B9
:10488000B0900009DC01CB0188199909AA09BB097C
:104890004091010950910209609103097091040946
:1048A0004F5F5F4F6F4F7F4F409301095093020955
:1048B000609303097093040940910509509106091A
:1048C0006091070970910809480F591F6A1F7B1FE3
:1048D00040930509509306096093070970930809EE
:1048E0004091090950910A0960910B0970910C09D6
:1048F000481759076A077B0740F48093090990938A
:104900000A09A0930B09B0930C098090DE029090E5
:10491000DA027091CA026091CB02872F861B8F3F0B
:1049200011F40C94F82CE1E0E70FE093CA02A72FF2
:10493000B0E0A853BE4F12961C928E2F861B8F3F5D
:1049400009F402C782E0870F8093CA02F0E0E853BF
:10495000FE4F5282282F30E03093D3022093D202B0
:10496000982F961B9F3F11F40C94B22D43E0470FF4
:104970004093CA02D901A853BE4F12967C92129757
:10498000842F90E0B42EB61A9093D1028093D00277
:10499000FFEFBF1611F40C94FD2D44E0470F409338
:1049A000CA02FC01E853FE4F728212968C91129754
:1049B0008F5F12968C93129782818F5F8283842FF0
:1049C000861B8F3F11F40C94F02D7B5F7093CA020D
:1049D000E42FF0E0E853FE4F5282B72EB61A12963B
:1049E0008C9112978F5F12968C931297992009F4ED
:1049F0000FC78091D0029091D102AC015527485346
:104A00005E4FFA01A280A394A282FFEFBF1609F4C1
:104A1000CAC741E0470F4093CA02E72FF0E0E853CE
:104A2000FE4F9282B42EB61A12965C9112975F5F77
:104A300012965C93019609F4EAC6882009F4D3C65D
:104A40008091D0029091D102DC01BB27A853BE4FC8
:104A500012962C9112972F5F12962C9312972FEF8C
:104A6000B21609F488C771E0740F7093CA02E42F7C
:104A7000F0E0E853FE4F82824091D2025091D3027F
:104A80009A013327F901E853FE4F22812F5F2283D9
:104A9000761B7F3F09F4B2C6019611F012966C9214
:104AA0008091CE028F5F8093CE022091F8083091E2
:104AB000F9081BCE0E941E4D60932D0970932E099C
:104AC00080932F09909330093092E7022092E602FA
:104AD0000E941E4D60931D0970931E0980931F094B
:104AE000909320098090EA049090EB04A090EC044D
:104AF000B090ED048091C6019091C701892B09F017
:104B000085C08AED92E00E94E441882309F439C20D
:104B10000E941E4D80901D0990901E09A0901F09B3
:104B2000B0902009DC01CB0188199909AA09BB09B9
:104B30004091210950912209609123097091240923
:104B40004F5F5F4F6F4F7F4F409321095093220972
:104B500060932309709324094091250950912609F7
:104B60006091270970912809480F591F6A1F7B1F00
:104B700040932509509326096093270970932809CB
:104B80004091290950912A0960912B0970912C09B3
:104B9000481759076A077B0740F4809329099093C7
:104BA0002A09A0932B09B0932C092091F808309181
:104BB000F9089BCD2130310509F4FFCD22303105B4
:104BC00009F478CF8091FA0881111BC04091EE045E
:104BD0005091EF046091F0047091F1048091F2081B
:104BE0009091F308A091F408B091F508481759077F
:104BF0006A077B0731F0F092F908E092F80821E0AB
:104C000030E01092E7021092E6026FCD8AED92E05A
:104C10000E94E44181117CCF20E030E0A9016DE0E9
:104C20008AED92E00E944D4B882309F4E4C2609122
:104C3000DE023091CA022091CB02832F821B8F3F6C
:104C400009F404C6E1E0E30FE093CA02A32FB0E049
:104C5000A853BE4F12961C928E2F821B8F3F09F4D1
:104C600017C772E0730F7093CA02F0E0E853FE4F6B
:104C700083E08283872F90E09093D3028093D202C7
:104C8000472F421B4F3F09F485C743E0942E930EF4
:104C90009092CA02DC01A853BE4F12967C921297E2
:104CA000492D50E05C834B83792D721B5093D102C8
:104CB0004093D0027F3F09F470C774E0730F709384
:104CC000CA0248535E4F5A01FA01728212969C90B2
:104CD0001297939412969C9212974B815C819280CA
:104CE00093949282972E921AFFEF9F1609F47AC737
:104CF0003B5F3093CA02472F50E048535E4F7CE041
:104D0000FA017283732F721B12964C9112974F5FA8
:104D100012964C931297F50142814F5F42837F3F79
:104D200009F4AAC671E0730F7093CA02E32FF0E092
:104D3000E853FE4F39E23283372F321B12964C91E3
:104D400012974F5F12964C93662309F480C6DC01DC
:104D5000A853BE4F8090D0029090D102A401552755
:104D600048535E4FFA01B280B394B2823F3F09F4D8
:104D7000F2C631E0370F3093CA02E72FF0E0E85374
:104D8000FE4F628312966C9112976F5F12966C932E
:104D9000321B3F3F09F48BC68920809419F0DA0159
:104DA00012966C928091CE028F5F8093CE020E9409
:104DB00049438091DD02882321F08AED92E00E9430
:104DC00007411092C7011092C60185E08093E2026C
:104DD00092E0892E912C40C140E052E062EF74E0F5
:104DE0008AED92E00E945A41882309F431CD8091E6
:104DF000DD028111F1C585E08093E1020E941E4D24
:104E00008090FD089090FE08A090FF08B0900009E7
:104E1000DC01CB0188199909AA09BB094091010954
:104E20005091020960910309709104094F5F5F4F2F
:104E30006F4F7F4F4093010950930209609303091C
:104E40007093040940910509509106096091070982
:104E500070910809480F591F6A1F7B1F409305096D
:104E60005093060960930709709308094091090956
:104E700050910A0960910B0970910C094817590764
:104E80006A077B0740F48093090990930A09A0936D
:104E90000B09B0930C090E941E4D80900D09909053
:104EA0000E09A0900F09B0901009DC01CB01881900
:104EB0009909AA09BB094091110950911209609101
:104EC0001309709114094F5F5F4F6F4F7F4F4093ED
:104ED00011095093120960931309709314094091BA
:104EE0001509509116096091170970911809480F1A
:104EF000591F6A1F7B1F4093150950931609609331
:104F00001709709318094091190950911A09609175
:104F10001B0970911C09481759076A077B0740F461
:104F20008093190990931A09A0931B09B0931C0947
:104F30008091EE049091EF04A091F004B091F104FF
:104F40004091F2085091F3086091F4087091F508CF
:104F5000841B950BA60BB70B811542E09407A105A6
:104F6000B10510F080E092E09093F7088093F60886
:104F70001092F9081092F8087092FA0820E030E0D8
:104F800040CEA50194010090E00204C0220F331F1F
:104F9000441F551F0A94D2F768E18AED92E00E94FF
:104FA0004D4B8111B7C2A8EEB2E080E090E02D91A8
:104FB000E92FFF27E227EE0FFF1FE85EF64F25914E
:104FC0003491982F882782279327F4E0A83EBF07C3
:104FD00071F72EEF2EBD0DB407FEFDCF2091E80234
:104FE0002EBD2091E902EAEEF2E00DB407FEFDCFFE
:104FF0002EBD28EE34E02E173F0711F02191F5CF9A
:105000000DB407FEFDCF9EBD0DB407FEFDCF8EBDD6
:105010000DB407FEFDCF6EBC0DB407FEFDCF8EB5FF
:105020008093DE028F71853009F432C387E5809367
:10503000DA028091DD02882321F08AED92E00E945D
:1050400007418091E20281508093E202882309F4B3
:1050500032C488248394912C0E941E4D20911D09F6
:1050600030911E0940911F0950912009DC01CB01AC
:10507000821B930BA40BB50B40912109509122097F
:1050800060912309709124094F5F5F4F6F4F7F4FED
:1050900040932109509322096093230970932409B6
:1050A000409125095091260960912709709128099E
:1050B000480F591F6A1F7B1F4093250950932609EB
:1050C00060932709709328094091290950912A0972
:1050D00060912B0970912C09481759076A077B07C3
:1050E00040F48093290990932A09A0932B09B09347
:1050F0002C098A94892809F4CBC00E941E4D809007
:105100002D0990902E09A0902F09B0903009DC0154
:10511000CB0188199909AA09BB094091310950911D
:10512000320960913309709134094F5F5F4F6F4FBF
:105130007F4F409331095093320960933309709344
:1051400034094091350950913609609137097091C1
:105150003809480F591F6A1F7B1F40933509509328
:105160003609609337097093380940913909509195
:105170003A0960913B0970913C09481759076A0741
:105180007B0740F48093390990933A09A0933B0937
:10519000B0933C098091EE049091EF04A091F0044B
:1051A000B091F1049E5FAF4FBF4F8093EE04909398
:1051B000EF04A093F004B093F1041092E90410926C
:1051C000E8048091EA049091EB04A091EC04B09182
:1051D000ED040196A11DB11D8093EA049093EB04A8
:1051E000A093EC04B093ED041092F9081092F80823
:1051F00020E030E006CD6EBC0DB407FEFDCF8EB5CD
:10520000811115CDD6CD8091F2089091F308A0912F
:10521000F408B091F50879E0B695A795979587952C
:105220007A95D1F79C01AD012F5F3F4F4F4F5F4FF4
:105230008091DF02833039F069E0220F331F441F71
:10524000551F6A95D1F761E18AED92E00E944D4BBE
:10525000882309F49CC380E38093DA028091DD0205
:10526000882321F08AED92E00E9407418091E102BB
:1052700081508093E1028111FBCA2091DE024091AE
:10528000DA0269E083E00E9483530E944943F0CA36
:105290008090DE029090DA027091CA026091CB0297
:1052A000872F861B8F3F09F49CC3E1E0E70FE09353
:1052B000CA02A72FB0E0A853BE4F12961C928E2FA1
:1052C000861B8F3F09F472C242E0470F4093CA0227
:1052D000F0E0E853FE4F5282242F30E03093D302A7
:1052E0002093D202842F861B8F3F09F43EC443E0F3
:1052F000470F4093CA02D901A853BE4F12967C9221
:105300001297842F90E0B42EB61A9093D102809316
:10531000D002EFEFBE1609F470C444E0470F40938B
:10532000CA02FC01E853FE4F728212968C911297CA
:105330008F5F12968C93129782818F5F8283842F66
:10534000861B8F3F09F44CC47B5F7093CA02E42F25
:10535000F0E0E853FE4F8CE08283B72EB61A3FCBC5
:105360008090DE029090DA02E091CA026091CB0256
:105370008E2F861B8F3F09F494C131E03E0F30938E
:10538000CA028E2F90E088539E4FDC0112961C9229
:10539000832F861B8F3F09F473C322E02E0F2093C7
:1053A000CA02A32FB0E0A853BE4F83E012968C939D
:1053B000422F50E05093D3024093D202822F861B9B
:1053C0008F3F09F4DFC383E08E0F8093CA029A01F6
:1053D00028533E4F5901D90112967C92282F30E074
:1053E000782F761B3093D1022093D0027F3F09F4AF
:1053F000EDC384E08E0F8093CA0228533E4FD9013B
:1054000012967C92D50112969C9112979F5F1296EC
:105410009C93D90112969C9112979F5F12969C9330
:10542000982F961B9F3F09F4CFC3EB5FE093CA020E
:1054300090E088539E4FDC0112965C927E2F761B83
:10544000D50112968C9112978F5F12968C939920AA
:1054500009F4DEC28091D0029091D1029C013327E1
:1054600028533E4FD9011296FC911297FF5F129676
:10547000FC937F3F09F456C321E02E0F2093CA020C
:10548000F0E0E853FE4F9282722F761BD501129600
:105490003C9112973F5F12963C93019609F4B7C274
:1054A000882009F4ACC28091D0029091D102DC0135
:1054B000BB27A853BE4F12963C9112973F5F12969E
:1054C0003C9312977F3F09F432C371E0720F7093DF
:1054D000CA02E22FF0E0E853FE4F82824091D202EE
:1054E0005091D3029A013327F901E853FE4F2281EC
:1054F0002F5F2283761B7F3F09F422C1019611F0B2
:1055000012966C928091CE028F5F8093CE020E94A1
:105510004943AEC98090DE024091CA025091CB024D
:10552000842F851B8F3F09F4D4C2E1E0E40FE093A0
:10553000CA02A42FB0E0A853BE4F12961C928E2F21
:10554000851B8F3F09F4FFC262E0640F6093CA02BB
:10555000F0E0E853FE4F83E08283862F90E0909343
:10556000D3028093D202262F251B2F3F09F40FC3AD
:10557000B3E0BB2EB40EB092CA02FC01E853FE4F5A
:1055800072826B2D70E0AB2CA51A7093D1026093E0
:10559000D002AFEFAA1609F444C3A4E0BA2EB40EA9
:1055A000B092CA029B0128533E4FD90112967C92B9
:1055B000B281BF5FB283D9011296AC901297A394C7
:1055C0001296AC92BB2DB51BBF3F09F427C34B5FAE
:1055D0004093CA02AB2DB0E0A853BE4F6CE01296C8
:1055E0006C93A42EA51A62816F5F6283D901129613
:1055F0006C9112976F5F12966C93BFEFAB1609F424
:105600005CC299249394940E9092CA02A42FB0E0A5
:10561000A853BE4F22E312962C93492D451B22819D
:105620002F5F2283882009F41AC2FC01E853FE4F41
:105630006091D0027091D1029B01332728533E4FD5
:10564000D9011296BC901297B3941296BC924F3F18
:1056500009F48EC241E0490D4093CA02A92DB0E081
:10566000A853BE4F12968C92A281AF5FA283451BB6
:105670004F3F09F4FBC16F3F7F4F11F0F901628288
:105680008091CE028F5F8093CE020E9449438BCCE3
:105690008AED92E00E945441F092C701E092C60167
:1056A00037CA8E2F90E04091D2025091D30290934E
:1056B000D1028093D0025527DA01A853BE4F5D0175
:1056C00012962C9112972F5F12962C9388539E4F0F
:1056D000DC0112962C9112972F5F12962C93D50114
:1056E00012968C9112978F5F12968C93992009F4E1
:1056F000E2C18091D0029091D1029C0133272853BE
:105700003E4FD90112964C9112974F5F12964C93CF
:10571000D50112962C9112972F5F12962C938F3FE2
:10572000BFEF9B0709F460C22E2F7FEF8110BFCE21
:105730001093D1020093D0024091D2025091D30233
:1057400042504093CA02E3CE2E2F30E0A091D20205
:10575000B091D3027E2F3093D1022093D002BB2789
:10576000A853BE4F12968C9112978F5F12968C930E
:105770001297F901E853FE4F82818F5F8283129660
:105780008C9112978F5F12968C931297992009F43F
:1057900087C18091D0029091D1029C013327F901F9
:1057A000E853FE4F22812F5F228300C18E2F90E0AD
:1057B0002091D2023091D3027E2F9093D102809318
:1057C000D0023327D901A853BE4F12962C911297BD
:1057D0002F5F12962C931297FC01E853FE4F8281A3
:1057E0008F5F8283CCCF1093D1020093D002FFEF62
:1057F000BF1256C94091D2025091D30242504093F9
:10580000CA022091F8083091F9080C947523742F7E
:10581000D901A853BE4F872F90E09093D102809377
:10582000D002EFEFBE1609F425C141E0470F4093C7
:10583000CA02FC01E853FE4F7282B42EB61A1296C9
:105840008C9112978F5F12968C93F7C8432F50E07C
:105850008091D2029091D3025093D1024093D00212
:10586000DC01BB27A853BE4F12967C9112977F5F35
:1058700012967C931297FA01E853FE4F72817F5F74
:10588000728312967C9112977F5F12967C93129787
:10589000FA01E853FE4F72817F5F728312964C913A
:1058A00012974F5F12964C931297662309F4FBC030
:1058B000732F3FEF4FCA9090DE028090DA02109370
:1058C000D1020093D0028091CA024091CB02982F5E
:1058D000941B9F3F39F121E0280F2093CA02E82F43
:1058E000F0E0E853FE4F1282922F941B9F3FD1F0BD
:1058F00092E0980F9093CA02E22FF0E0E853FE4F37
:1059000023E02283292F30E03093D3022093D20268
:10591000941B9F3F39F08D5F8093CA02F901E853D1
:10592000FE4F72828CE00E947051882D0E9470514F
:10593000892D0E9470518091CA029091CB02891BDF
:105940008F3F09F419C18091D0029091D1028F3F0D
:105950003FEF930729F09927FC01E853FE4F62823D
:105960008091CE028F5F8093CE020E9449438824AB
:105970008394912C71CB4091D2025091D302FA01C1
:10598000FF27E853FE4F82818F5F828337CF40E04D
:1059900052E062EF76E08AED92E00E945A4188235D
:1059A00009F45CCC24CAD901A853BE4F12962C919D
:1059B00012972F5F12962C9312978F3FFFEF9F073E
:1059C00009F4F8C0472FBB24BA9481103DC8109346
:1059D000D1020093D0020ECF8AED92E00E940741DF
:1059E0000ACA872F90E02091D2023091D302E5CEEF
:1059F000272F30E0A091D202B091D302ACCE109309
:105A0000D1020093D0027F3F09F07CCD95CEE22FEA
:105A10009A0128533E4F59018E2F90E09093D10266
:105A20008093D0027F3F09F4B0C021E02E0F209375
:105A3000CA02FC01E853FE4F7282722F761BD50119
:105A400012968C9112978F5F12968C9329CD10939A
:105A5000D1020093D0023F3F09F0A4C928C010939F
:105A6000D1020093D0024F3F09F00ACE82508093BA
:105A7000CA020BCE472FE3CEDC01A853BE4F0ECF98
:105A8000832F90E04091D2025091D302E32F0FCEAA
:105A90004E2F50E08091D2029091D3023E2FDCCE67
:105AA000BB24BA94B8CE1093D1020093D002825096
:105AB0008093CA027CC97FEFAFCFFC01E853FE4F51
:105AC00022812F5F2283882009F4A3C0942E4FEFF8
:105AD000AFCD842F90E02091D2023091D3029093E9
