:10000000CBC50000F3C50000F1C50000EFC500003E
:10001000EDC50000EBC50000E9C50000E7C5000024
:10002000E5C50000E3C50000E1C50000DFC5000034
:10003000DDC50000DBC50000D9C50000D7C5000044
:10004000D5C50000D3C500000C943668CFC50000AC
:100050000C948D63CBC50000C9C50000C7C5000066
:10006000C5C50000C3C50000C1C50000BFC5000074
:10007000BDC50000BBC50000B9C50000B7C5000084
:100080000C94E4610C94E85EB1C500002812E41100
:10009000A20AA20AA20AA7119A11611134111F1112
:1000A0009910A20AA20AA20AA20AA20AA20AA20AF3
:1000B000A20AA20AA20AA20AA20A7F10980FA20A02
:1000C000A20AA20A8D0F4B0FF70EA916A20AE91475
:1000D000B114A20A8A14A012921262124D127B1459
:1000E000CA134313AB12A20AC70EA20E2A0E1B0E8E
:1000F000A20AA20A040EA20AA00D0A0E480D310D92
:10010000FC0CF60C400C7B0B430B270B100BD31194
:10011000F363F763FB630164F263F26307640D64E6
:100120001364ED6349654E653F653565FB64FB64AB
:100130002D6525651B650E65000020002300260047
:10014000290002020202020202020404040404045E
:100150000404030303030303030301010101010179
:10016000010101020408102040800102040810204F
:1001700040800102040810204080804020100804C4
:100180000201000000010200090A0000000004034F
:100190000807000000000000000000000000000050
:1001A0000000441F041D671B2A1A2B195718A21799
:1001B00006177B16001692152D15D1147C142E14DB
:1001C000E513A11362132613ED12B812851255120E
:1001D0002712FC11D211AA1184115F113B111911C0
:1001E000F810D910BA109C108010641049102F100C
:1001F0001510FC0FE40FCD0FB60FA00F8A0F750F6F
:10020000610F4C0F390F250F130F000FEE0EDD0E8F
:10021000CB0EBA0EAA0E990E890E7A0E6A0E5B0EDE
:100220004C0E3E0E2F0E210E130E060EF80DEB0D8A
:10023000DE0DD10DC50DB80DAC0DA00D940D880DC2
:100240007D0D710D660D5B0D500D450D3B0D300D97
:10025000260D1B0D110D070DFD0CF30CEA0CE00C27
:10026000D70CCD0CC40CBB0CB20CA90CA00C980C78
:100270008F0C860C7E0C760C6D0C650C5D0C550C91
:100280004D0C450C3D0C350C2E0C260C1F0C170C80
:10029000100C080C010CFA0BF30BEC0BE50BDE0B4E
:1002A000D70BD00BC90BC20BBC0BB50BAE0BA80BFD
:1002B000A10B9B0B950B8E0B880B820B7B0B750B8D
:1002C0006F0B690B630B5D0B570B510B4C0B460B04
:1002D000400B3A0B350B2F0B290B240B1E0B190B64
:1002E000130B0E0B080B030BFE0AF80AF30AEE0AB7
:1002F000E90AE40ADE0AD90AD40ACF0ACA0AC50AF8
:10030000C00ABB0AB60AB10AAD0AA80AA30A9E0A25
:10031000990A950A900A8B0A870A820A7E0A790A44
:10032000740A700A6B0A670A620A5E0A5A0A550A58
:10033000510A4C0A480A440A400A3B0A370A330A5F
:100340002F0A2A0A260A220A1E0A1A0A160A120A5C
:100350000E0A0A0A060A020AFE09FA09F609F20951
:10036000EE09EA09E609E209DE09DA09D709D30943
:10037000CF09CB09C809C409C009BC09B909B50925
:10038000B109AE09AA09A609A3099F099B09980901
:10039000940991098D098A09860983097F097C09D5
:1003A0007809750971096E096B09670964096009A3
:1003B0005D095A095609530950094C09490946096A
:1003C00042093F093C093909350932092F092C092D
:1003D0002909250922091F091C09190916091209E9
:1003E0000F090C090909060903090009FD08FA08A3
:1003F000F708F408F108ED08EA08E708E408E1085E
:10040000DE08DB08D908D608D308D008CD08CA080A
:10041000C708C408C108BE08BB08B808B508B308B7
:10042000B008AD08AA08A708A408A1089F089C085E
:1004300099089608930891088E088B088808860802
:10044000830880087D087B087808750872087008A2
:100450006D086A086808650862085F085D085A0840
:100460005708550852084F084D084A0848084508DB
:10047000420840083D083A08380835083308300873
:100480002E082B0828082608230821081E081C0807
:1004900019081708140811080F080C080A0807089B
:1004A000050802080008FD07FB07F807F607F30731
:1004B000F107EE07EC07EA07E707E507E207E007C1
:1004C000DD07DB07D807D607D407D107CF07CC074E
:1004D000CA07C707C507C307C007BE07BB07B907D9
:1004E000B707B407B207B007AD07AB07A807A60761
:1004F000A407A1079F079D079A07980796079307E8
:1005000091078F078C078A0788078507830781076C
:100510007E077C077A0778077507730771076E07F0
:100520006C076A0767076507630761075E075C0773
:100530005A0758075507530751074F074C074A07F3
:1005400048074607430741073F073D073A07380773
:100550003607340731072F072D072B0729072607F2
:100560002407220720071D071B0719071707150770
:10057000120710070E070C070A07070705070307EE
:100580000107FF06FC06FA06F806F606F406F20670
:10059000EF06ED06EB06E906E706E506E206E006ED
:1005A000DE06DC06DA06D806D506D306D106CF0667
:1005B000CD06CB06C806C606C406C206C006BE06E1
:1005C000BC06B906B706B506B306B106AF06AD065A
:1005D000AA06A806A606A406A206A0069E069C06D3
:1005E000990697069506930691068F068D068B064B
:1005F000880686068406820680067E067C067A06C3
:1006000077067506730671066F066D066B0669063A
:1006100066066406620660065E065C065A065806B2
:100620005606530651064F064D064B064906470629
:100630004506430640063E063C063A0638063606A0
:100640003406320630062D062B0629062706250617
:10065000230621061F061D061A061806160614068E
:10066000120610060E060C060A0607060506030605
:100670000106FF05FD05FB05F905F605F405F20584
:10068000F005EE05EC05EA05E805E505E305E105FD
:10069000DF05DD05DB05D905D705D405D205D00575
:1006A000CE05CC05CA05C805C605C305C105BF05ED
:1006B000BD05BB05B905B705B405B205B005AE0566
:1006C000AC05AA05A705A505A305A1059F059D05E0
:1006D0009B05980596059405920590058E058B055A
:1006E000890587058505830581057E057C057A05D5
:1006F00078057605730571056F056D056B05680551
:1007000066056405620560055D055B0559055705CD
:100710005505520550054E054C054905470545054B
:10072000430541053E053C053A05380535053305C9
:1007300031052F052C052A05280526052305210549
:100740001F051C051A0518051605130511050F05CB
:100750000C050A050805060503050105FF04FC0450
:10076000FA04F804F504F304F104EE04EC04EA04DA
:10077000E704E504E304E004DE04DB04D904D70461
:10078000D404D204D004CD04CB04C804C604C404E9
:10079000C104BF04BC04BA04B804B504B304B00473
:1007A000AE04AB04A904A604A404A1049F049D0400
:1007B0009A0498049504930490048E048B0489048D
:1007C0008604830481047E047C0479047704740421
:1007D00072046F046C046A046704650462045F04B5
:1007E0005D045A0458045504520450044D044A044C
:1007F00048044504420440043D043A0437043504E7
:1008000032042F042D042A042704240421041F0485
:100810001C0419041604130411040E040B04080428
:10082000050402040004FD03FA03F703F403F103D3
:10083000EE03EB03E803E503E203DF03DC03D90384
:10084000D603D303D003CD03CA03C703C403C10334
:10085000BE03BB03B703B403B103AE03AB03A803EA
:10086000A403A1039E039B039703940391038E03A8
:100870008A038703840380037D037903760373036C
:100880006F036C036803650361035E035A03570338
:1008900053034F034C034803440341033D0339030F
:1008A000360332032E032A03260323031F031B03ED
:1008B000170313030F030B0307030303FF02FB02DA
:1008C000F702F302EE02EA02E602E202DD02D902D8
:1008D000D502D002CC02C702C302BE02BA02B502E0
:1008E000B102AC02A702A3029E02990294028F02F7
:1008F0008A02850280027B02760271026C02660225
:1009000061025C02560251024B02460240023A0268
:1009100034022F02290223021D02160210020A02CB
:100920000402FD01F701F001E901E201DC01D5015A
:10093000CD01C601BF01B701B001A801A001980116
:1009400090018801800177016E0165015C0153010E
:100950004A01400136012C01220117010C0101015D
:10096000F500EA00DD00D100C400B600A9009A003D
:100970008B007C006C005B004900370023000F00F7
:10098000F9FF00002110422063308440A550C6606A
:10099000E770088129914AA16BB18CC1ADD1CEE13C
:1009A000EFF13112100273325222B5529442F772B3
:1009B000D662399318837BB35AA3BDD39CC3FFF38C
:1009C000DEE36224433420040114E664C774A444C3
:1009D00085546AA54BB528850995EEE5CFF5ACC5DC
:1009E0008DD55336722611163006D776F666955693
:1009F000B4465BB77AA719973887DFF7FEE79DD72C
:100A0000BCC7C448E5588668A77840086118022822
:100A10002338CCC9EDD98EE9AFF9488969990AA97B
:100A20002BB9F55AD44AB77A966A711A500A333AF2
:100A3000122AFDDBDCCBBFFB9EEB799B588B3BBBCB
:100A40001AABA66C877CE44CC55C222C033C600C82
:100A5000411CAEED8FFDECCDCDDD2AAD0BBD688D1B
:100A6000499D977EB66ED55EF44E133E322E511ED2
:100A7000700E9FFFBEEFDDDFFCCF1BBF3AAF599F6B
:100A8000788F8891A981CAB1EBA10CD12DC14EF10B
:100A90006FE18010A100C230E32004502540467071
:100AA0006760B9839893FBA3DAB33DC31CD37FE39C
:100AB0005EF3B1029012F322D232354214527762C1
:100AC0005672EAB5CBA5A89589856EF54FE52CD56C
:100AD0000DC5E234C324A014810466744764245411
:100AE0000544DBA7FAB79987B8975FE77EF71DC77C
:100AF0003CD7D326F2369106B01657667676154661
:100B000034564CD96DC90EF92FE9C899E9898AB9CB
:100B1000ABA94458654806782768C018E1088238B0
:100B2000A3287DCB5CDB3FEB1EFBF98BD89BBBABDB
:100B30009ABB754A545A376A167AF10AD01AB32A00
:100B4000923A2EFD0FED6CDD4DCDAABD8BADE89D2B
:100B5000C98D267C076C645C454CA23C832CE01C50
:100B6000C10C1FEF3EFF5DCF7CDF9BAFBABFD98FBB
:100B7000F89F176E367E554E745E932EB23ED10EA0
:100B8000F01E00002100240027002A00000022009F
:100B9000250028002B00858111241FBECFEFD0E453
:100BA000DEBFCDBF11E0A0E0B1E0E4EAF8E001E093
:100BB0000BBF02C007900D92A635B107D9F722E10D
:100BC000A6E5B1E001C01D92A330B207E1F715E040
:100BD000CCECD5E004C02197FE010E940684CB3CFA
:100BE000D107C9F70E94BA6B0C94438409CA4F928B
:100BF0005F926F927F928F929F92AF92BF92CF92AD
:100C0000DF92EF92FF920F931F93CF93DF93CDB7B5
:100C1000DEB7C25CD2400FB6F894DEBF0FBECDBFC8
:100C200080910B1090910C10873129E0920709F404
:100C300034C208F446C08F34F9E09F0709F4E7C1D5
:100C400008F0A8C0813339E0930709F49DC18734C7
:100C5000994009F070C280916E0990916F09892BBB
:100C6000B9F482E090E090936F0980936E0910923E
:100C70005D0310925C03809111108F5F09F481E095
:100C8000809311108FE499E090930C1080930B10D7
:100C900081E0CE53DD4F0FB6F894DEBF0FBECDBF5F
:100CA000DF91CF911F910F91FF90EF90DF90CF9048
:100CB000BF90AF909F908F907F906F905F904F907C
:100CC0000895853D48E0940709F4E0C008F4D5C0D4
:100CD000813EB8E09B0709F400C18530994009F0D6
:100CE0002AC2E091C30E4091C20E4E1709F48AC386
:100CF00081E08E0F8093C30EF0E0EE53F24F8081BF
:100D00008093171020911310309114102827022E71
:100D10002295207F2025032E322F22952F70022628
:100D2000269532272327220F220F220F20253093CA
:100D3000141020931310209115103091161090E08C
:100D400001972817390708F46AC2782F8093181082
:100D5000281B31093093161020931510772309F4BE
:100D600060C2672F713108F060E16093191087E16C
:100D700099E090930C1080930B108091C30E942FE8
:100D8000981B961708F493C270911810761B7093F5
:100D9000181096C18935A9E09A0709F4BEC08F35AD
:100DA000994009F0C8C1609115107091161080919A
:100DB000C30E9091C20E981B562F23E0260F921758
:100DC00008F445C2662309F41AC490E02091131078
:100DD00030911410DC01AE53B24FFD0101964FEF7C
:100DE000460F840F911D8E53924F41912427022E5E
:100DF0002295207F2025032E322F22952F70022648
:100E0000269532272327220F220F220F2025E817AD
:100E1000F90759F73093141020931310890181E0DA
:100E2000850FFD01E80FF11D808192E0950F9D0176
:100E3000290F311DF9013081A60FB11D9C9193300E
:100E400009F497C3943009F45DC3923009F45BC38D
:100E500090E0932B8017910709F457C3609111100C
:100E600085E00E94F05D1092C30E1092C20E1092A7
:100E70000C1010920B1081E00CCF892B09F05BC194
:100E800085ED98E090930C1080930B10E091C30EC9
:100E90008091C20E8E1709F4FBCE81E08E0F8093F5
:100EA000C30EF0E0EE53F24F808181112DC00E94FD
:100EB000FF6660930D1070930E1080930F10909347
:100EC00010108FEF9FEF909314108093131081EE0A
:100ED00098E090930C1080930B104091C20E942FC9
:100EE000E091C30E842F8E1B823008F42CC181E068
:100EF0008E0F8093C30EAE2FB0E0AE53B24F2C9145
:100F00002093EF012111AEC21092C30E1092C20EB7
:100F100010920C1010920B10BBCE9091C20EE0916B
:100F2000C30EE91709F4FDC181E08E0FF0E0981BB4
:100F30008093C30EEE53F24F6081209113103091D5
:100F400014102627022E2295207F2025032E322FD3
:100F500022952F700226269532272327220F220F53
:100F6000220F2025309314102093131070E061504D
:100F7000710970931610609315102FE539E03093C6
:100F80000C1020930B1018CF4091C20EE091C30EAD
:100F9000842F8E1B833008F405C2AE2FB0E0AE5311
:100FA000B24F9C91A1E0AE0FB0E0AE53B24F8C9126
:100FB00023E02E0F2093C30EEE5FF0E0EE53F24FCE
:100FC00030816091131070911410933009F437C17F
:100FD000943009F4BCC2923009F4BAC290E0932B69
:100FE0006817790709F4B6C26091111085E00E9474
:100FF000F05D1092C30E1092C20E10925F05109217
:101000005E0510920C1010920B1081E042CE809180
:101010006E0990916F09029709F43ACE8FEF9FEF16
:10102000909347038093460380914003909141033E
:10103000282F291B2F3F09F404C1E1E0E80FA82F56
:10104000B0E0A25CBD4F12961C922E2F291B2F3FA1
:1010500009F4F7C0F0E0E25CFD4F26E0228322E0D5
:10106000280F422F50E05093490340934803291B17
:101070002F3F09F4E6C08D5F80934003FA01E25CE4
:10108000FD4F21E02283891B8F3F09F4DAC0809154
:1010900044038F5F809344033BCF6091191080918C
:1010A000C30E4091C20E942F981B961708F4FFC0F0
:1010B00070911810761B70931810662309F44ECEA9
:1010C00000915E0510915F0520911310309114106E
:1010D000D801A25ABC4F562F580FE82FF0E0EE531C
:1010E000F24F90819D932927022E2295207F202563
:1010F000032E322F22952F70022626953227232782
:10110000220F220F220F20258F5F8513E6CF8093B9
:10111000C30E9093EF010F5F1F4F6150060F111D1B
:1011200010935F0500935E05309314102093131005
:101130001092191013CE8FEF9FEF90930C108093A5
:101140000B1080E0A6CD0E94FF6600910D1010915B
:101150000E1020910F1030911010DC01CB01801B7C
:10116000910BA20BB30B8B3F9105A105B10508F4C0
:101170008FCD809111102FEF3FEF309347032093D5
:1011800046039091400320914103392F321B3F3F8A
:1011900041F1E1E0E90FE0934003A92FB0E0A25C48
:1011A000BD4F12961C923E2F321B3F3FD1F032E0D2
:1011B000390F30934003F0E0E25CFD4F48E042839A
:1011C000432F50E05093490340934803321B3F3F65
:1011D00041F09D5F90934003FA01E25CFD4F91E086
:1011E00092830E94B4588091400390914103891BDF
:1011F0008F3F09F4C8C180914603909147038F3F08
:10120000EFEF9E0731F09927FC01E25CFD4F8FEF75
:101210008283809144038F5F8093440375CEC9011C
:1012200094CD8091151090911610009709F0B1C1DE
:1012300081E399E090930C1080930B10A7CE8E7FE2
:10124000CDCE8091480382508093400361CE0E94AE
:10125000FF6600910D1010910E1020910F1030912B
:101260001010DC01CB01801B910BA20BB30B8B3F49
:101270009105A105B10508F40BCD1091111088E07E
:101280000E94C059812F0E94B458809140039091D0
:101290004103891B8F3F09F476C1809146039091E9
:1012A00047038F3FAFEF9A0709F0ADCFB2CF0E944F
:1012B000FF6600910D1010910E1020910F103091CB
:1012C0001010DC01CB01801B910BA20BB30B8B3FE9
:1012D0009105A105B10508F4DBCC1091111088E04F
:1012E0000E94C059812F0E94B45880914003909170
:1012F0004103891B8F3F09F440C1809146039091BF
:1013000047038F3F2FEF920731F09927FC01E25CF2
:10131000FD4F8FEF8283809144038F5F809344035E
:1013200068CE0E94FF6600910D1010910E10209162
:101330000F1030911010DC01CB01801B910BA20B20
:10134000B30B8B3F9105A105B10508F4A1CC109119
:10135000111088E00E94C059812F0E94B4588091DA
:10136000400390914103891B8F3F11F40C947A172D
:1013700080914603909147038F3F4FEF940731F0E0
:101380009927FC01E25CFD4F8FEF8283809144033B
:101390008F5F809344031092C20E9FEFE0E0F0E075
:1013A00081E0C6CD0E94FF6600910D1010910E10D5
:1013B00020910F1030911010DC01CB01801B910B9C
:1013C000A20BB30B8B3F9105A105B10508F460CCCE
:1013D0001091111088E00E94C059812F0E94B458CA
:1013E0008091400390914103891B8F3F09F4C5C050
:1013F00080914603909147038F3F3FEF930709F099
:1014000084CF89CF0E94FF6600910D1010910E10BD
:1014100020910F1030911010DC01CB01801B910B3B
:10142000A20BB30B8B3F9105A105B10508F430CC9D
:101430001091111088E00E94C059812F0E94B45869
:101440008091400390914103891B8F3F09F495C01F
:1014500080914603909147038F3FFFEF9F0709F06C
:1014600054CF59CF60911310709114106227062E3B
:101470006295607F6025072E762F62956F70062635
:10148000669576276727660F660F660F602570934F
:10149000141060931310EE5FE093C30EA82FB0E01A
:1014A000AE53B24F8C9180931210882309F42CCD47
:1014B0006827062E6295607F6025072E762F62953D
:1014C0006F700626669576276727660F660F660F8C
:1014D0006025709314106093131087FF02C00C9462
:1014E000811760911110261346C080E092E090931E
:1014F00016108093151085E099E090930C1080935E
:101500000B10F3CB8E7F3E7FA3CC2091121023389B
:1015100009F45DC0609111108091EF0168132BC038
:101520006F5F09F475C0609311105093C40E109250
:10153000C50E822F90E0FC01E058F109E234F1057C
:1015400008F46AC0622F81E00E94F05DDDCC8E7FDE
:101550003E7F44CD241731F068E071E083E499E0E8
:101560000E94615187E499E090930C1080930B10D6
:1015700072CB8E7F6DCC87E074CC80914803825013
:101580008093400336CD809148038250809340037E
:10159000BBCC209117102F3FB9F020915E05309100
:1015A0005F05B9016F5F7F4F70935F0560935E05C4
:1015B000F901E05BFC4F168601979093161080931B
:1015C0001510892B09F434CEE091C30E94CF81E03D
:1015D000809311105093C40E1092C50E0E94AF5DFF
:1015E0008091C20E9091C30E891B833008F08CCC81
:1015F00068E071E083ED9AE00E94615185CC009132
:1016000013101091141090E0DC01AE53B24F07CCD0
:1016100081E08093111089CFEA5BFF4F0C94068420
:101620000E946383609305117093061180930711E4
:101630009093081121E0611574408105910511F422
:101640000C947A1B209304110E94AF5DC9CF0E94B5
:1016500063836093231170932411809325119093D9
:1016600026110E94FF66DC01CB010A96A11DB11D67
:101670008093271190932811A0932911B0932A11D8
:101680000E94AF5DADCF0E942A8380916E09909138
:101690006F09892B11F00C94841B68E071E08FE6D0
:1016A00098E00E94615180E593E00E94C45281114C
:1016B000FACF8EEB0E94C059809140039091410374
:1016C000891B8F3F11F40C947D1B809146039091F0
:1016D00047038F3FFFEF9F0731F09927FC01E25C42
:1016E000FD4F8FEF8283809144038F5F809344038B
:1016F0000E94AF5D75CF8DEB0E94C05907E719E0DE
:10170000D8018C9111963C91119712962C911297B9
:1017100013969C91C959DD4F8883C756D240C8594A
:10172000DD4F3883C856D240C759DD4F2883C9568C
:10173000D240C659DD4F9883CA56D2400E94B45851
:10174000C859DD4F8881C856D2400E94B458C75945
:10175000DD4F8881C956D2400E94B458C659DD4F2A
:101760008881CA56D2400E94B458F80184813581DC
:1017700026819781C559DD4F8883CB56D240C45905
:10178000DD4F3883CC56D240C359DD4F2883CD5628
:10179000D240C259DD4F9883CE56D2400E94B458F1
:1017A000C459DD4F8881CC56D2400E94B458C359E9
:1017B000DD4F8881CD56D2400E94B458C259DD4FCA
:1017C0008881CE56D2400E94B458D80118968C9188
:1017D000189719963C9119971A962C911A971B965F
:1017E0009C91C159DD4F8883CF56D240C059DD4FFF
:1017F0003883C057D240CF58DD4F2883C157D240DD
:10180000CE58DD4F9883C257D2400E94B458C05979
:10181000DD4F8881C057D2400E94B458CF58DD4F69
:101820008881C157D2400E94B458CE58DD4F88817C
:10183000C257D2400E94B458005F1F4FB9E0073B27
:101840001B0709F05DCF8091400390914103891BF4
:101850008F3F11F40C941A1980914603909147031D
:101860008F3FEFEF9E0731F09927FC01E25CFD4FBF
:101870008FEF8283809144038F5F80934403B0CEC7
:101880008CEB0E94C0590FE511E0F801848135818D
:1018900026819781CD58DD4F8883C357D240CC58DD
:1018A000DD4F3883C457D240CB58DD4F2883C5570E
:1018B000D240CA58DD4F9883C657D2400E94B458D0
:1018C000CC58DD4F8881C457D2400E94B458CB58C1
:1018D000DD4F8881C557D2400E94B458CA58DD4FA9
:1018E0008881C657D2400E94B458D80118968C916E
:1018F000189719963C9119971A962C911A971B963E
:101900009C91C958DD4F8883C757D240C858DD4FD6
:101910003883C857D240C758DD4F2883C957D240B3
:10192000C658DD4F9883CA57D2400E94B458C85851
:10193000DD4F8881C857D2400E94B458C758DD4F48
:101940008881C957D2400E94B458C658DD4F88815B
:10195000CA57D2400E94B458F8018485358526853F
:101960009785C558DD4F8883CB57D240C458DD4F8B
:101970003883CC57D240C358DD4F2883CD57D2404F
:10198000C258DD4F9883CE57D2400E94B458C458F5
:10199000DD4F8881CC57D2400E94B458C358DD4FE8
:1019A0008881CD57D2400E94B458C258DD4F8881FB
:1019B000CE57D2400E94B458005F1F4FF1E00F3E57
:1019C0001F0709F062CF8091400390914103891B6A
:1019D0008F3F11F40C941A1980914603909147039C
:1019E0008F3F2FEF920709F03FCF44CF81E08093E4
:1019F00022110E94AF5DF4CD0E9463832B013C0154
:101A00000E9463836B017C010E9463834B015C0134
:101A10000E94B25E082F0E94B25E182F0E94B25E32
:101A20004092F5105092F6106092F7107092F810F4
:101A3000C092F910D092FA10E092FB10F092FC10D4
:101A40008092FD109092FE10A092FF10B0920011B3
:101A50000093011110930211809303110E94AF5D56
:101A6000BFCD0E94AB837C010E94AB838C010E949E
:101A7000AB83F092F010E092EF101093F21000930D
:101A8000F1109093F4108093F3100E94AF5DA8CDF5
:101A90000E94B25E883038F0883110F40C94711BCB
:101AA0009FE1981B892F8770806480937C008091D0
:101AB0007A00806480937A0080917A0086FDFCCF62
:101AC000109178000091790088EB0E94C059812F15
:101AD00090E0902B092E000CAA0BBB0BC157DD4FD9
:101AE00088839983AA83BB83CF58D2400E94B4587D
:101AF000C057DD4F8881C059D2400E94B458CF569C
:101B0000DD4F8881C159D2400E94B458CE56DD4F76
:101B10008881C259D2400E94B4588091400390916C
:101B20004103891B8F3F11F40C941A1980914603CD
:101B3000909147038F3F4FEF940709F095CE9ACECF
:101B40000E94B25E182F62E00E94A264212F30E052
:101B5000F901EE57FE4F8491F901EE59FE4F1491B1
:101B6000F901EE5BFE4F0491002311F40C94D61A98
:101B700081110E94E363E02FF0E0EE0FFF1FE85CAD
:101B8000FE4FA591B491EC91E12391E080E009F43E
:101B900090E0092F182F86EB0E94C059C801110F41
:101BA000AA0BBB0BCD56DD4F88839983AA83BB83D9
:101BB000C359D2400E94B458CC56DD4F8881C459D5
:101BC000D2400E94B458CB56DD4F8881C559D240CF
:101BD0000E94B458CA56DD4F8881C659D2400E942F
:101BE000B4588091400390914103891B8F3F11F4B9
:101BF0000C941A1980914603909147038F3F3FEF51
:101C0000930709F031CE36CE81E080939B110E947C
:101C1000AF5DE6CC0E94B25E182F0E94B25E082F24
:101C200061E0812F0E94A264602F812F0E941964BD
:101C30000E94AF5DD5CC0E94B25E082F0E94B25EBA
:101C4000182F013011F40C94E11A1093D80F0E9450
:101C5000AF5DC6CC80EB0E94C059E090430F8091ED
:101C6000440FE81A09F45BC0F12C8091440F91E015
:101C7000980F9093440F8F7090E08C01000F111F0C
:101C8000080F191F000F111F0D51114FD8018C9112
:101C900011969C91C556DD4F8883CB59D240C456CE
:101CA000DD4F9883CC59D2400E94B458C456DD4FC2
:101CB0008881CC59D2400E94B458F8018281938126
:101CC000C356DD4F8883CD59D240C256DD4F98832D
:101CD000CE59D2400E94B458C256DD4F8881CE59A9
:101CE000D2400E94B458D80114968C91149715963E
:101CF0009C91C156DD4F8883CF59D240C056DD4FED
:101D00009883C05AD2400E94B458C056DD4F888193
:101D1000C05AD2400E94B458F394FE10A6CF8091CE
:101D2000400390914103891B8F3F11F40C941A19C1
:101D300080914603909147038F3FBFEF9B0709F0C7
:101D400093CD98CD8FEA0E94C0592091FF11309118
:101D50000012CE012115310511F00C94DA1A8250CF
:101D600092419A83898389819A81092E000CAA0B5A
:101D7000BB0B89839A83AB83BC830E94B4588A814E
:101D80000E94B4588B810E94B4588C8128CF0E9445
:101D9000B25EF82E0E94B25EE82E0E94B25E082F5C
:101DA00010E0102F00270E0D111D21E02F1530F42B
:101DB00068E071E08FE996E00E946151C80117FF69
:101DC00002C00C94B81B813F910534F068E071E0CB
:101DD00080EA96E00E946151EF2DF0E0EE0FFF1FC8
:101DE000EE51FF4E128301830E94AF5DF9CB8EE965
:101DF0000E94C0598091D0119091D111C955DD4FE9
:101E00008883C75AD240C855DD4F9883C85AD240FC
:101E10000E94B458C855DD4F8881C85AD2400E94EC
:101E2000B4588091CE119091CF11C755DD4F888362
:101E3000C95AD240C655DD4F9883CA5AD2400E9433
:101E4000B458C655DD4F8881CA5AD2400E94B45852
:101E5000C555DD4F19821882CB5AD24080E00E94CE
:101E6000B458C455DD4F8881CC5AD2400E94B45832
:101E70008091400390914103891B8F3F11F40C9492
:101E80001A1980914603909147038F3FFFEF9F07F8
:101E900009F0EACCEFCC8DE90E94C05980913A025A
:101EA00090913B02CF55DD4F8883C15AD240CE5529
:101EB000DD4F9883C25AD2400E94B458CE55DD4FB0
:101EC0008881C25AD2400E94B458809138029091C1
:101ED0003902CD55DD4F8883C35AD240CC55DD4FF2
:101EE0009883C45AD2400E94B458CC55DD4F8881A3
:101EF000C45AD2400E94B458CB55DD4F1982188283
:101F0000C55AD24080E00E94B458CA55DD4F88813E
:101F1000C65AD2400E94B45856CD0E945C631092BB
:101F2000E21010921711109216110E94AF5D58CB5B
:101F300088E90E94C059E0915D01F0915E019081B5
:101F400080915C01982381E009F480E00E94B458FC
:101F50008091BB113091BC112091BD119091BE11A7
:101F6000CB5ADD4F8883C555D240CA5ADD4F3883DE
:101F7000C655D240C95ADD4F2883C755D240C85AEA
:101F8000DD4F9883C855D2400E94B458CA5ADD4FDD
:101F90008881C655D2400E94B458C95ADD4F888105
:101FA000C755D2400E94B458C85ADD4F8881C855E1
:101FB000D2400E94B458E0915A01F0915B019081A7
:101FC00080915901982381E009F480E00E94B4587F
:101FD0008091BF113091C0112091C1119091C21117
:101FE000C65ADD4F8883CA55D240C55ADD4F388363
:101FF000CB55D240C45ADD4F2883CC55D240C35A6A
:10200000DD4F9883CD55D2400E94B458C55ADD4F5C
:102010008881CB55D2400E94B458C45ADD4F888184
:10202000CC55D2400E94B458C35ADD4F8881CD555B
:10203000D2400E94B458E0915701F091580190812C
:1020400080915601982381E009F480E00E94B45801
:102050008091C3113091C4112091C5119091C61186
:10206000C15ADD4F8883CF55D240C05ADD4F3883E7
:10207000C056D240CF59DD4F2883C156D240CE59E9
:10208000DD4F9883C256D2400E94B458C05ADD4FEB
:102090008881C056D2400E94B458CF59DD4F888104
:1020A000C156D2400E94B458CE59DD4F8881C256E5
:1020B000D2400E94B45880E00E94B458CD59DD4F00
:1020C000188219821A821B82C356D24080E00E9475
:1020D000B458CC59DD4F8881C456D2400E94B458C0
:1020E000CB59DD4F8881C556D2400E94B458CA5999
:1020F000DD4F8881C656D2400E94B45810CE87E981
:102100000E94C0598091E2100E94B458809140030F
:1021100090914103891B8F3F11F40C941A198091FF
:102120004603909147038F3FAFEF9A0709F09CCB8E
:10213000A1CB1092D1111092D0118091CE1190911B
:10214000CF11892B19F51092CB0F1092CC0F109252
:10215000CD0F1092CE0F8091380290913902919557
:1021600081959109092E000CAA0BBB0B8093CF0F10
:102170009093D00FA093D10FB093D20F1092D30FA2
:102180001092D40F1092D50F1092D60F1092CF113B
:102190001092CE1110920A108091D0119091D1110D
:1021A000892B19F51092CB0F1092CC0F1092CD0FF6
:1021B0001092CE0F809138029091390291958195BD
:1021C0009109092E000CAA0BBB0B8093CF0F9093A3
:1021D000D00FA093D10FB093D20F1092D30F1092C3
:1021E000D40F1092D50F1092D60F1092D1111092D9
:1021F000D011809171008D7F80937100809171006A
:102200008B7F8093710081E090E090931711809311
:10221000161110921911109218110E94443A10923E
:102220001D1110921E1110921F111092201166E4C0
:1022300070E084E00E94E3640E94AF5DD1C90E9417
:10224000B25E10921D1110921E1110921F11109269
:102250002011863408F486E4682F70E084E00E9440
:10226000E3640E94AF5DBCC90E9463836B017C0183
:102270008091161190911711019731F068E071E08B
:1022800087ED96E00E94615181E090E0A0E0B0E02F
:102290008093091190930A11A0930B11B0930C1124
:1022A000C0920D11D0920E11E0920F11F092101108
:1022B00082E090E090931711809316110E94AF5D19
:1022C0008FC987E80E94C059BE016F5F7F4F80E5CC
:1022D00093E00E94175C882349F08981807C11F487
:1022E0000C94131B803411F40C94E81A80E090E0F5
:1022F000DC010197A109B109C956DD4F8883998393
:10230000AA83BB83C759D2400E94B458C856DD4F38
:102310008881C859D2400E94B458C756DD4F888181
:10232000C959D2400E94B458C656DD4F8881CA5957
:10233000D240F0CD0E94B25E182F0E94AB8340E0E5
:10234000BC01812F0E94F6590E94AF5D49C90E94CD
:102350002A832B013C010E942A834B015C010E94CD
:102360002A836B017C010E942A830E942A8381E0D8
:102370008093E2104092BB115092BC116092BD114B
:102380007092BE118092BF119092C011A092C111A3
:10239000B092C211C092C311D092C411E092C51183
:1023A000F092C611A5C981EC0E94C05981E00E943B
:1023B000B45866E084E191E00E940A596AE08BE13A
:1023C00091E00E940A593FCA0E94B25E082F10E0B5
:1023D0000115110511F40C94431B80911611909175
:1023E0001711019731F068E071E086E696E00E94EF
:1023F000615183E090E09093171180931611109330
:102400001911009318118FEF80931111109215116B
:102410001092141110921311109212118FE00E9459
:10242000ED8210921B1110921A110E94EC5B013088
:10243000110511F40C94BE1B80ED97E09093990068
:10244000809398008091710082608093710050C9E0
:102450008091161190911711029734F068E071E0A5
:1024600085E096E00E9461511092E9100E94443A82
:1024700081E090E0909317118093161180E094E032
:10248000A0E0B0E08093051190930611A09307118E
:10249000B09308110E94AF5DA3C80E94AB837C017A
:1024A0000E94B25E182F0E94AB83F092DF0EE09282
:1024B000DE0E1093E00E9093E20E8093E10E0E94E8
:1024C000AF5D8EC80E94B25E182F0E94AB8321E0E0
:1024D00030E03093B60D2093B50D1093C10D90935D
:1024E000B80D8093B70D812F0E94ED8210FF02C0BE
:1024F0000C94DC1B459A11FF02C00C94D91B479A1F
:1025000012FF02C00C94D61B2A9A13FF02C00C942F
:10251000D31B289A809171008460809371000E947F
:10252000AF5D5EC80E94AB83009711F40C94CD1A86
:102530002FB7F8949093B80D8093B70D2FBFD8C8DC
:102540000E94B25E91E0811101C090E09093D40EA0
:102550000E94AF5D45C8CE01865A9D4F0E949D8363
:10256000CE018B5A9D4F0E949D830E942A834B016E
:102570005C01CE01805B9D4F0E949D83CE01855BF7
:102580009D4F0E949D83CE018A5B9D4F0E949D833B
:102590000E942A836B017C01CE018F5B9D4F0E94BC
:1025A0009D83CE018F5F9D4F0E949D83CE0101963A
:1025B0000E949D830E94AB8325E0FE01E65AFD4FF9
:1025C000AAEDBFE001900D922A95E1F725E0FE010A
:1025D000EB5AFD4FAFEDBFE001900D922A95E1F768
:1025E0008092E40F9092E50FA092E60FB092E70F71
:1025F00025E0FE01E05BFD4FA8EEBFE001900D92EB
:102600002A95E1F725E0FE01E55BFD4FADEEBFE069
:1026100001900D922A95E1F725E0FE01EA5BFD4F5E
:10262000A2EFBFE001900D922A95E1F7C092F70F5B
:10263000D092F80FE092F90FF092FA0F25E0FE0128
:10264000EF5BFD4FABEFBFE001900D922A95E1F7F4
:1026500025E0FE01EF5FFD4FA0E0B0E101900D929B
:102660002A95E1F725E0FE013196A5E0B0E1019061
:102670000D922A95E1F79093E8108093E7100E945D
:10268000AF5D0C94F00A0E94FF666093830970931B
:10269000840980938509909386099E012F5F3F4F9F
:1026A000790110E30FEF0E94FF6660937309709346
:1026B0007409809375099093760920E030E0A901B0
:1026C00061E180E593E00E943067882309F4B9C591
:1026D0001093500380915303882321F080E593E009
:1026E0000E944C6480915703815080935703882344
:1026F00009F4E7C60E94FF66809073099090740900
:10270000A0907509B0907609DC01CB018819990970
:10271000AA09BB098090770990907809A09079095F
:10272000B0907A09EFEF8E1A9E0AAE0ABE0A809226
:10273000770990927809A0927909B0927A098090ED
:102740007B0990907C09A0907D09B0907E09880E4D
:10275000991EAA1EBB1E80927B0990927C09A092B2
:102760007D09B0927E0980907F0990908009A090A9
:102770008109B090820988169906AA06BB0608F05E
:1027800092CF80937F0990938009A0938109B093A1
:10279000820989CF0E94B25ED82E1092EF01882361
:1027A00011F40C94E51B0E94B25E8E010F5F1D4F69
:1027B000D8018D935D0181E08093EF01EE24E394D5
:1027C000ED0C82E0F82E0CC00E94B25ED5018D9314
:1027D0005D01F092EF01F394B1E4FB1609F49EC69B
:1027E000FE10F2CF9E012F5F3F4F790180E4D901A7
:1027F0001D928A95E9F74D2D50E0B801C7010E945E
:1028000034840E94FF666093A3097093A4098093A7
:10281000A5099093A6095EEF652EDD24DA94442481
:102820004394512C77E5772E0E94FF6660939309BD
:1028300070939409809395099093960980913C0236
:1028400090913D02892B09F064C380E593E00E94DA
:102850007664882309F4B1C50E94FF6680909309CD
:1028600090909409A0909509B0909609DC01CB0155
:1028700088199909AA09BB094091970950919809AB
:102880006091990970919A094F5F5F4F6F4F7F4F29
:1028900040939709509398096093990970939A0906
:1028A00040919B0950919C0960919D0970919E09EE
:1028B000480F591F6A1F7B1F40939B0950939C0927
:1028C00060939D0970939E0980909F099090A00944
:1028D000A090A109B090A20988169906AA06BB0685
:1028E00008F0A2CF80939F099093A009A093A1091B
:1028F000B093A20999CF0E94AB838C010E94B25E73
:102900001093DF0E0093DE0E8093E00E0E94AF5D09
:102910000C94F00A0E94B25E182F0E94B25E282F1B
:1029200030E0322F2227C901810F911D90930101C0
:10293000809300010E94B25E843609F00CC60AE161
:1029400010E10E94AB83D8018D939D938D01B0E17E
:10295000023E1B07B1F761E084EA0E94F05D0C942F
:10296000F00A82EA0E94C0598091D80E3091D90EA7
:102970002091DA0E9091DB0ECF5FDD4F8883C1503E
:10298000D240CE5FDD4F3883C250D240CD5FDD4FA5
:102990002883C350D240CC5FDD4F9883C450D240CF
:1029A0000E94B458CE5FDD4F8881C250D2400E9451
:1029B000B458CD5FDD4F8881C350D2400E94B458D7
:1029C000CC5FDD4F8881C450D2400E94B4580C9433
:1029D000230C81EA0E94C059809116110E94B458BC
:1029E00080913A0290913B02C355DD4F8883CD5AC6
:1029F000D240C255DD4F9883CE5AD2400E94B4587F
:102A0000C255DD4F8881CE5AD2400E94B458809181
:102A1000380290913902C155DD4F8883CF5AD24098
:102A2000C055DD4F9883C05BD2400E94B458C0555A
:102A3000DD4F8881C05BD2400E94B458809164050C
:102A400090916505A0916605B09167054091680970
:102A50005091690960916A0970916B09841B950B0B
:102A6000A60BB70BC158DD4F88839983AA83BB831C
:102A7000CF57D2400E94B458C058DD4F8881C0580B
:102A8000D2400E94B458CF57DD4F8881C158D24000
:102A90000E94B458CE57DD4F8881C258D2400E9460
:102AA000B458809164053091650520916605909138
:102AB0006705CD57DD4F8883C358D240CC57DD4FD3
:102AC0003883C458D240CB57DD4F2883C558D240F5
:102AD000CA57DD4F9883C658D2400E94B458CC578D
:102AE000DD4F8881C458D2400E94B458CB57DD4F87
:102AF0008881C558D2400E94B458CA57DD4F88819A
:102B0000C658D2400E94B4588091AE119091AF1136
:102B10002091B0113091B111821B930BCF54DD4F36
:102B200099838883C15BD2400E94B458CE54DD4F54
:102B30008881C25BD2400E94B4588091B30D9091BD
:102B4000B40D891B90E0A0E0B0E0C957DD4F888349
:102B50009983AA83BB83C758D2400E94B458C857F0
:102B6000DD4F8881C858D2400E94B458C757DD4F06
:102B70008881C958D2400E94B458C657DD4F888119
:102B8000CA58D2400E94B45880911A1190911B11DA
:102B9000CD54DD4F8883C35BD240CC54DD4F988346
:102BA000C45BD2400E94B458CC54DD4F8881C45BD2
:102BB000D2400E94B4588091D0119091D111CB5441
:102BC000DD4F8883C55BD240CA54DD4F9883C65B16
:102BD000D2400E94B458CA54DD4F8881C65BD240AF
:102BE0000E94B4588091CE119091CF11C954DD4FFD
:102BF0008883C75BD240C854DD4F9883C85BD240FE
:102C00000E94B458C854DD4F8881C85BD2400E94EE
:102C1000B4589091D70F8091D80F811101C0892F9E
:102C20000E94B4588091DC0E9091DD0EC754DD4FA8
:102C30008883C95BD240C654DD4F9883CA5BD240BB
:102C40000E94B458C654DD4F8881CA5BD2400E94AE
:102C5000B4588091D50E882309F48CC48091D60E87
:102C60009091D70EC554DD4F8883CB5BD240C454BE
:102C7000DD4F9883CC5BD2400E94B458C454DD4FE2
:102C80008881CC5BD2400E94B4588091C7113091AA
:102C9000C8112091C9119091CA11C557DD4F888381
:102CA000CB58D240C457DD4F3883CC58D240C3579D
:102CB000DD4F2883CD58D240C257DD4F9883CE5880
:102CC000D2400E94B458C457DD4F8881CC58D240BE
:102CD0000E94B458C357DD4F8881CD58D2400E941E
:102CE000B458C257DD4F8881CE58D2400E94B458A4
:102CF000809111110E94B45880911211909113117A
:102D0000C154DD4F8883CF5BD240C054DD4F9883E0
:102D1000C05CD2400E94B458C054DD4F8881C05C72
:102D2000D2400E94B4588091141190911511CF5344
:102D3000DD4F8883C15CD240CE53DD4F9883C25CA7
:102D4000D2400E94B458CE53DD4F8881C25CD2403D
:102D5000DBC98FE90E94C0598091BB113091BC1131
:102D60002091BD119091BE11CF5BDD4F8883C1547E
:102D7000D240CE5BDD4F3883C254D240CD5BDD4FB5
:102D80002883C354D240CC5BDD4F9883C454D240D7
:102D90000E94B458CE5BDD4F8881C254D2400E945D
:102DA000B458CD5BDD4F8881C354D2400E94B458E3
:102DB000CC5BDD4F8881C454D2400E94B4588091CE
:102DC000BF113091C0112091C1119091C211CA5B05
:102DD000DD4F8883C654D240C95BDD4F3883C7546A
:102DE000D240C85BDD4F2883C854D240C75BDD4F5B
:102DF0009883C954D2400E94B458C95BDD4F888182
:102E0000C754D2400E94B458C85BDD4F8881C85473
:102E1000D2400E94B458C75BDD4F8881C954D2406C
:102E20000E94B4588091C3113091C4112091C511F2
:102E30009091C611C55BDD4F8883CB54D240C45BF3
:102E4000DD4F3883CC54D240C35BDD4F2883CD5453
:102E5000D240C25BDD4F9883CE54D2400E94B4581A
:102E6000C45BDD4F8881CC54D2400E94B458C35B10
:102E7000DD4F8881CD54D2400E94B458C25BDD4FF3
:102E80008881CE54D2400E94B4588091C7113091AD
:102E9000C8112091C9119091CA11C05BDD4F888380
:102EA000C055D240CF5ADD4F3883C155D240CE5A9B
:102EB000DD4F2883C255D240CD5ADD4F9883C3558C
:102EC000D2400E94B458CF5ADD4F8881C155D240BC
:102ED0000E94B458CE5ADD4F8881C255D2400E941C
:102EE000B458CD5ADD4F8881C355D2400E94B458A2
:102EF0000C94230C809148038250809340030C94DF
:102F0000CB0929E539E030930C1020930B100C9479
:102F1000910780E593E00E94766481119DCC20E0CA
:102F200030E0A9016DE080E593E00E9430678111F7
:102F300009C08FEF8EBD0DB407FEFDCF8EB588237F
:102F400009F4C9C0609154038091400390914103FA
:102F5000282F291B2F3F41F1E1E0E80FE0934003C8
:102F6000A82FB0E0A25CBD4F12961C922E2F291BF9
:102F70002F3FD1F022E0280F20934003F0E0E25CE5
:102F8000FD4F33E03283422F50E05093490340938A
:102F90004803291B2F3F41F08D5F80934003FA01C6
:102FA000E25CFD4F81E0828380914003A82FB0E076
:102FB000B0934703A0934603282F291B2F3F09F402
:102FC000D4C38F5F80934003A25CBD4F81E0129613
:102FD0008C9312972091480330914903F901FF2700
:102FE000E25CFD4F82818F5F828312968C911297F3
:102FF0008F5F12968C9380914003482F491B4F3F5F
:1030000061F041E0480F40934003A82FB0E0A25C7C
:10301000BD4F8CE012968C93842F42814F5F428388
:103020004091460350914703DA01BB27A25CBD4F94
:1030300012967C9112977F5F12967C93782F791B62
:103040007F3F59F071E0780F70934003A82FB0E0F4
:10305000A25CBD4F89E212968C9382818F5F82833E
:103060004F3F5F4F09F468C3662309F455C3E090EE
:103070004603F090470387011127025C1D4FD801DA
:1030800012968C9112978F5F12968C9380914003C9
:10309000482F491B4F3F59F041E0480F40934003F0
:1030A000A82FB0E0A25CBD4F12966C93842F428192
:1030B0004F5F4283891B8F3F09F43AC3EF20E094AE
:1030C00019F08FEFF8018283809144038F5F809322
:1030D00044030E94FB4F80915303882321F080E535
:1030E00093E00E944C6410923D0210923C0285E0F5
:1030F000809358030E94FF660091930910919409F0
:103100002091950930919609DC01CB01801B910B30
:10311000A20BB30B0091970910919809209199097E
:1031200030919A090F5F1F4F2F4F3F4F0093970920
:10313000109398092093990930939A0900919B095B
:1031400010919C0920919D0930919E09080F191F2B
:103150002A1F3B1F00939B0910939C0920939D09F4
:1031600030939E0900919F091091A0092091A10917
:103170003091A209081719072A073B0740F48093EA
:103180009F099093A009A093A109B093A2090E945E
:10319000FF660091A3091091A4092091A50930911F
:1031A000A609DC01CB01801B910BA20BB30B009194
:1031B000A7091091A8092091A9093091AA090F5FC8
:1031C0001F4F2F4F3F4F0093A7091093A80920933B
:1031D000A9093093AA090091AB091091AC0920917B
:1031E000AD093091AE09080F191F2A1F3B1F00932C
:1031F000AB091093AC092093AD093093AE0900914F
:10320000AF091091B0092091B1093091B2090817A6
:1032100019072A073B0740F48093AF099093B00940
:10322000A093B109B093B2098AEA0E94C05981E023
:103230000C94360F809148038250809340030C9485
:10324000F00A40E052E0B70180E593E00E94AE67EB
:10325000882309F43FCA80915303811177C185E027
:10326000809357030E94FF660091730910917409BF
:103270002091750930917609DC01CB01801B910BFF
:10328000A20BB30B0091770910917809209179096D
:1032900030917A090F5F1F4F2F4F3F4F00937709EF
:1032A000109378092093790930937A0900917B096A
:1032B00010917C0920917D0930917E09080F191F1A
:1032C0002A1F3B1F00937B0910937C0920937D09E3
:1032D00030937E0900917F09109180092091810926
:1032E00030918209081719072A073B0740F4809399
:1032F0007F0990938009A0938109B09382090E946D
:10330000FF6600918309109184092091850930910D
:103310008609DC01CB01801B910BA20BB30B009142
:103320008709109188092091890930918A090F5FD6
:103330001F4F2F4F3F4F0093870910938809209309
:10334000890930938A0900918B0910918C09209189
:103350008D0930918E09080F191F2A1F3B1F0093FA
:103360008B0910938C0920938D0930938E0900915D
:103370008F091091900920919109309192090817B5
:1033800019072A073B0740F480938F09909390090F
:10339000A0939109B09392098BEA0E94C05981E0F1
:1033A0000E94B4586FE370E0C7010E944584682F03
:1033B000C7010E940A590C948D0D20E030E0A9014C
:1033C00068E180E593E00E9430678111B5C0D701C4
:1033D00080E090E02D91E92FFF27E227EE0FFF1FFD
:1033E000EE57F64F25913491982F882782279327FF
:1033F000A017B10779F76EBC0DB407FEFDCF298188
:103400002EBD2A81FE0133960DB407FEFDCF2EBDE1
:103410000E171F0711F02191F7CF0DB407FEFDCF56
:103420009EBD0DB407FEFDCF8EBD0DB407FEFDCFD2
:10343000DEBC0DB407FEFDCF8EB5809354038F71B3
:10344000853009F48EC07092500380915303882315
:1034500021F080E593E00E944C64809158038150F4
:10346000809358038111F8C9C0905403B090500361
:1034700083E00E94C0598CE00E94B4588B2D0E94BA
:10348000B4588C2D0E94B458809140039091410310
:10349000891B8F3F09F493C18091460390914703A4
:1034A0008F3FEFEF9E0729F09927FC01E25CFD4F6B
:1034B000D282809144038F5F809344030E94FB4F2C
:1034C000CBC9D0905403C090500383E00E94C059F0
:1034D00089E00E94B4588C2D0E94B4588D2D0E9412
:1034E000B4588091400390914103891B8F3F09F4A8
:1034F000FBC080914603909147038F3F3FEF9307B6
:1035000029F09927FC01E25CFD4F0283809144037E
:103510008F5F809344030E94FB4FECC8FE013196FD
:103520007F0180E4DF011D928A95E9F7BFE3BD15B5
:1035300008F061C940E460C92091540342E36CE0A3
:1035400083E00E94435C0E94FB4F41CF80E593E003
:103550000E944C6484CE62E084EA0E94F05D0C9488
:10356000F00A80E593E00E945D6450923D02409233
:103570003C0272C980E094E0C354DD4F9983888394
:10358000CD5BD24080E00E94B458C254DD4F8881A8
:10359000CE5BD2400E94B45878CB0E945C6380918D
:1035A00071008B7F809371000C94780B00E010E029
:1035B0000C94CB0D0196821B930B9A8389830C94F8
:1035C000B30E682F70E08DE00E94E3640C94250E2A
:1035D0008A8590E0A0E0B0E0AC01BD014F5F5F4F95
:1035E0006F4F7F4F898590E0A0E0B0E0BA2FA92F00
:1035F000982F8827840F951FA61FB71F48854F73E4
:1036000050E060E070E0BA0155274427840F951F11
:10361000A61FB71F2AE0880F991FAA1FBB1F2A9554
:10362000D1F70C9479118F81837090E09C01322F37
:103630002227330F330F8885F4E08F9FC0011124B8
:10364000822B932B29852295269526952370822BF4
:103650000196A0E0B0E04A854370440F2B8527FB1C
:10366000222720F9422B2E812F7030E0240F311DAC
:103670002750310904C0880F991FAA1FBB1F2A9524
:10368000D2F70C94791168E071E085E696E00E942B
:1036900061518091161190911711019711F00C94BE
:1036A000F31183E090E0909317118093161110921C
:1036B0001911109218118FEF80931111109215119A
:1036C0001092141110921311109212118FE00E9497
:1036D000ED8210921B1110921A110E94EC5B0C9457
:1036E0001C128FEF0C94530D8091480382508093ED
:1036F000400311CF20E00C94220B809148038250AC
:10370000809340030C94780B68E071E08EE698E0BB
:103710000E9461510C944D0B4FEF5FEF50934703A4
:103720004093460380914003891B8F3F09F0CCCC26
:10373000225020934003CDCC80914003482F50E08D
:103740005093470340934603782F791B7F3F49F0FE
:103750008F5F80934003DA01A25CBD4F81E0129637
:103760008C9382818F5F82837FCCA25CBD4F32CCF1
:1037700088279927801B910B0C94E30E1092B60DAD
:103780001092B50D80ED97E090939B0080939A0086
:103790009093990080939800809171008460809349
:1037A00071000C94780B28980C948A122A980C9427
:1037B000851247980C94801245980C947B12809146
:1037C000480382508093400379CE8E010F5F1D4FD6
:1037D00009C8CF92DF92EF92FF920F931F93CF937E
:1037E000DF9380912B1190912C11883B23E092075D
:1037F00011F40C94B22C08F45DC18E3AE4E09E07FB
:1038000009F438C608F082C1853124E0920711F42A
:103810000C94E22908F024C5823EF3E09F0709F4E6
:1038200067C010F40C94F62F8D3F23E0920711F43B
:103830000C945A298C30E4E09E0711F40C948A29E8
:10384000813F934011F00C94382980919A11815056
:1038500080939A11882309F423C12091A8113091F3
:10386000A9118091B90D9091BA0DA091BB0DB091A5
:10387000BC0D820F931FA11DB11D8093B90D9093B4
:10388000BA0DA093BB0DB093BC0DE091B30D81E0D8
:103890008E0F8093B30DF0E0EE0FFF1FEE0FFF1FB2
:1038A000ED54F64F8091A6119091A711A091A81107
:1038B000B091A91180839183A283B38380913C113D
:1038C00090913D11019790933D1180933C11892B6C
:1038D00011F40C9441291092AB111092AA1181E0BD
:1038E0008093B21182EE93E090932C1180932B1170
:1038F0000E9454698111D2C18091A511E091B91142
:10390000F091BA11882311F40C940334A081209112
:103910009C1130919D1140919E1150919F11B0E0EA
:103920000E941B84DC01CB014AE0B695A7959795D0
:1039300087954A95D1F79093A9118093A8119091FA
:1039400037119093A71180913611882311F40C94AC
:103950005432409152115091531160915411709111
:10396000551177FF02C00C94073900917A1110911C
:103970007B1120917C1130917D11400F511F621FEE
:10398000731F4093521150935311609354117093CD
:10399000551191609093A711813011F00C9454321D
:1039A00040915A1150915B1160915C1170915D11C1
:1039B00077FF02C00C94F5360091821110918311AB
:1039C0002091841130918511400F511F621F731F88
:1039D00040935A1150935B1160935C1170935D1189
:1039E0009091A71194609093A711833039F1409181
:1039F0005E1150915F11609160117091611177FFBC
:103A000002C00C940B370091861110918711209100
:103A1000881130918911400F511F621F731F40930D
:103A20005E1150935F1160936011709361119091DA
:103A3000A71198609093A711843029F180916211A9
:103A400090916311A0916411B0916511B7FF02C00C
:103A50000C94783840918A1150918B1160918C119F
:103A600070918D11840F951FA61FB71F809362114F
:103A700090936311A0936411B09365118091A71185
:103A800080618093A71181EF93E090932C11809334
:103A90002B1180919A11815080939A118111DDCE62
:103AA0008091B30D9091B40D891B809580939A11EC
:103AB00081E0F5C0863AF2E09F0711F40C9460278C
:103AC00008F0F6C08338E2E09E0711F40C947626E5
:103AD00008F4CDC78F38F2E09F0711F40C94DC2670
:103AE00010F40C940030873922E0920711F40C9402
:103AF00020278B39E2E09E0711F40C943C27833990
:103B0000924011F00C9438290C94FE26873FE4E093
:103B10009E0711F40C946D2F08F0F0C58D3C24E045
:103B2000920709F477C010F40C948F2F8F3DE4E0D6
:103B30009E07E1F08B3EF4E09F0711F40C94392FBF
:103B40008A3D944011F00C9438290E9454698111E7
:103B5000A5C0E091B911F091BA1180818093A711AD
:103B60008FED94E090932C1180932B1180919A11FA
:103B7000815080939A11882311F40C949D332091E5
:103B8000A8113091A9118091B90D9091BA0DA09111
:103B9000BB0DB091BC0D820F931FA11DB11D809371
:103BA000B90D9093BA0DA093BB0DB093BC0DE091ED
:103BB000B30D81E08E0F8093B30DF0E0EE0FFF1F89
:103BC000EE0FFF1FED54F64F8091A6119091A711B3
:103BD000A091A811B091A91180839183A283B3838E
:103BE00080919611909197110197909397118093DE
:103BF0009611892B11F40C940C301092AB11109289
:103C0000AA1181E08093B2118DEC94E090932C1175
:103C100080932B110E945469811140C0E091B91129
:103C2000F091BA118081A0913011B0913111A80F9B
:103C3000B11D87FDBA95B0933111A09330118091D9
:103C4000A511882311F40C94603420919C113091BB
:103C50009D1140919E1150919F110E941B84DC0187
:103C6000CB017AE0B695A795979587957A95D1F788
:103C70009093A9118093A8111092AB111092AA11E0
:103C800081E08093B2118AED94E090932C1180939F
:103C90002B110E945469882309F45BCF81E0DF91E6
:103CA000CF911F910F91FF90EF90DF90CF900895EB
:103CB0008F3423E0920709F4C7C108F097C58A3012
:103CC000F3E09F0711F40C94112910F40C94A52F24
:103CD000873323E0920709F48DC08634E3E09E0722
:103CE00009F459C18E30934011F00C9438290E9488
:103CF00054698111D3CFE091B911F091BA112081AB
:103D0000318130933B1120933A1100913611E02F0D
:103D1000F0E0EE0FFF1FEE0FFF1FE55DFE4EC388C4
:103D2000D488E588F688C0928E11D0928F11E092E7
:103D30009011F0929111CEE3D1E1E6E6F1E110E0CD
:103D40000117F1F0488159816A817B81440F551F29
:103D5000661F771FDB01CA018C199D09AE09BF09D7
:103D60008C8B9D8BAE8BBF8B40835183628373831F
:103D70008C199D09AE09BF09848B958BA68BB78BD7
:103D80001F5F249634961530D9F6609132117091E8
:103D900033118091341190913511FC01E60FF71F1A
:103DA00040913C1150913D114E0F5F1F240F351F64
:103DB000C21AD30AE108F108C0929211D09293116D
:103DC000E0929411F0929511672B11F40C949E2DB2
:103DD0008091A6118F7B8093A6111092AB11109247
:103DE000AA1182E08093B21187E393E090932C11A3
:103DF00080932B110E945469811150CF8091A5119D
:103E0000E091B911F091BA11882311F40C94F333B5
:103E1000A081B18120919C1130919D1140919E1102
:103E200050919F110E941B84DC01CB012AE0B695C2
:103E3000A795979587952A95D1F79093A911809387
:103E4000A811909137119093A71180913611882372
:103E500011F40C94F9314091521150915311609129
:103E600054117091551177FF02C00C94B438009131
:103E70007A1110917B1120917C1130917D11400FAE
:103E8000511F621F731F409352115093531160933F
:103E900054117093551191609093A711813011F0D6
:103EA0000C94F93140915A1150915B1160915C1161
:103EB00070915D1177FF02C00C94733600918211EE
:103EC000109183112091841130918511400F511F61
:103ED000621F731F40935A1150935B1160935C11E2
:103EE00070935D119091A71194609093A711833006
:103EF00039F140915E1150915F11609160117091A4
:103F0000611177FF02C00C948936009186111091DF
:103F100087112091881130918911400F511F621F24
:103F2000731F40935E1150935F1160936011709303
:103F300061119091A71198609093A711843029F195
:103F40008091621190916311A0916411B0916511FB
:103F5000B7FF02C00C94063840918A1150918B1122
:103F600060918C1170918D11840F951FA61FB71F42
:103F70008093621190936311A0936411B0936511C3
:103F80008091A71180618093A71186E493E09093BC
:103F90002C1180932B1180919A11815080939A114A
:103FA000882311F40C94A7332091A8113091A91102
:103FB0008091B90D9091BA0DA091BB0DB091BC0D3F
:103FC000820F931FA11DB11D8093B90D9093BA0D5F
:103FD000A093BB0DB093BC0DE091B30D81E08E0FAB
:103FE0008093B30DF0E0EE0FFF1FEE0FFF1FED54B7
:103FF000F64F8091A6119091A711A091A811B091B0
:10400000A91180839183A283B3838091A6118F77B6
:104010008093A61180913211909133110197909362
:10402000331180933211892B11F40C949A2D109234
:10403000AB111092AA1182E08093B2118FE493E049
:1040400090932C1180932B110E945469811126CEDC
:104050008091A511E091B911F091BA11882311F462
:104060000C941534A081B18120919C1130919D1147
:1040700040919E1150919F110E941B84DC01CB0145
:104080000AE0B695A795979587950A95D1F79093ED
:10409000A9118093A811909137119093A711809145
:1040A0003611882311F40C94A6324091521150918C
:1040B0005311609154117091551177FF02C00C9407
:1040C0001D3900917A1110917B1120917C11309152
:1040D0007D11400F511F621F731F40935211509367
:1040E0005311609354117093551191609093A711DF
:1040F000813011F00C94A63240915A1150915B110D
:1041000060915C1170915D1177FF02C00C9436379D
:1041100000918211109183112091841130918511A9
:10412000400F511F621F731F40935A1150935B1130
:1041300060935C1170935D119091A71194609093BE
:10414000A711833039F140915E1150915F11609158
:1041500060117091611177FF02C00C944C3700918F
:104160008611109187112091881130918911400F8B
:10417000511F621F731F40935E1150935F11609334
:104180006011709361119091A71198609093A7119D
:10419000843029F18091621190916311A091641192
:1041A000B0916511B7FF02C00C94CA3840918A11D2
:1041B00050918B1160918C1170918D11840F951F0E
:1041C000A61FB71F8093621190936311A09364118F
:1041D000B09365118091A71180618093A7118EE53E
:1041E00093E090932C1180932B1180919A11815020
:1041F00080939A11882311F40C94E9332091A8112B
:104200003091A9118091B90D9091BA0DA091BB0D7B
:10421000B091BC0D820F931FA11DB11D8093B90DEC
:104220009093BA0DA093BB0DB093BC0DE091B30D6C
:1042300081E08E0F8093B30DF0E0EE0FFF1FEE0FC5
:10424000FF1FED54F64F8091A6119091A711A091F8
:10425000A811B091A91180839183A283B383DACE90
:104260008D3324E0920711F40C94D12F10F40C94A8
:10427000AF2F8C35E4E09E0751F18036F4E09F07C4
:1042800009F446C08135944009F0F2C70E94546990
:10429000811104CDE091B911F091BA118081918121
:1042A00090939711809396111092A51180912D11E2
:1042B00085FFD3C01092AB111092AA1184E08093B5
:1042C000B2118CE594E090932C1180932B110E94F5
:1042D00054698111E3CCE091B911F091BA11808158
:1042E0009181A281B3818093A0119093A111A09399
:1042F000A211B093A3111092AB111092AA1181E0F8
:104300008093B21180E694E090932C1180932B114E
:104310000E9454698111C2CCE091B911F091BA1197
:10432000C081C093A4118091380290913902959573
:1043300087959595879595958795959587952091DE
:10434000000130910101821B930B97FF02C00C9476
:104350006C358436910514F40C944E342091E010A1
:104360003091E11040E050E06091A0117091A111F6
:104370008091A2119091A3110E94B9839B01AC017D
:1043800004C05695479537952795CA95D2F72130A1
:1043900080E138074105510520F020E030E140E0A0
:1043A00050E020939C1130939D1140939E115093A7
:1043B0009F118091D50E213094E0390741055105B8
:1043C00010F40C94B133882331F1A091D60EB09142
:1043D000D70E0E941B84DC01CB01DAE0B695A795CD
:1043E00097958795DA95D1F780939C1190939D11BD
:1043F000A0939E11B0939F1180911411909115116B
:104400008E3FEFEF9E0711F40C94D63901969093EE
:1044100015118093141181E08093A51180911211E0
:10442000909113118E3FFFEF9F0711F40C94EC371E
:104430000196909313118093121180919C11909189
:104440009D11A0919E11B0919F118F3F9105A105E3
:10445000B10509F010F40C94BC351092AB11109218
:10446000AA1182E08093B2118EEA94E090932C110D
:1044700080932B110E945469811110CCE091B911E5
:10448000F091BA11A081B181B0933111A093301194
:104490008091A511882311F40C94723120919C1104
:1044A00030919D1140919E1150919F110E941B844B
:1044B000DC01CB01CAE0B695A79597958795CA957B
:1044C000D1F79093A9118093A8111092AB1110927B
:1044D000AA1181E08093B2118BEB94E090932C11A0
:1044E00080932B118091B0119091B1116091AE1118
:1044F0007091AF11681B790B7093B8116093B7116D
:10450000A091B2112A2F30E06217730710F00C94BB
:104510005A356115710511F40C947831E091AC11A4
:10452000F091AD1140E050E020E0E80FF91F80E08D
:1045300090E0A150EF01C40FD51F3881EC01C655A2
:10454000DE4E39878A2F821B8093B2112F5F822F14
:1045500090E0AC018617970768F386EA91E09093A4
:10456000AB118093AA1180917009882309F496CB2E
:1045700080917109909172098856954011F40C94BC
:10458000E33988E695E09093720980937109DC0124
:1045900080916C0990916D09409168095091690969
:1045A00060916A0970916B09480F591F611D711D57
:1045B000409368095093690960936A0970936B0985
:1045C000109270099093AF118093AE11B093AD111A
:1045D000A093AC119091B2119923A1F02091B71141
:1045E0003091B811F901ED54FE4E265F3F4F8FEF29
:1045F000890F280F311D26553E4E8D918193E2176C
:10460000F307D9F723EB31E13093BA112093B911B5
:10461000892F90E09093B1118093B011F9018FEF41
:104620009FEF9093AB118093AA1180818093A71183
:1046300080EC94E090932C1180932B1180919A112F
:10464000815080939A11882311F40C942232209186
:10465000A8113091A9118091B90D9091BA0DA09136
:10466000BB0DB091BC0D820F931FA11DB11D809396
:10467000B90D9093BA0DA093BB0DB093BC0DE09112
:10468000B30D81E08E0F8093B30DF0E0EE0FFF1FAE
:10469000EE0FFF1FED54F64F8091A6119091A711D8
:1046A000A091A811B091A91180839183A283B383B3
:1046B0008091A6118F778093A61180912D119091F2
:1046C0002E1186FD02C00C94EA3120919611309192
:1046D0009711215031093093971120939611232B74
:1046E00009F08BCA91FF05C080919B1181110E9436
:1046F000384510922C1110922B11D0CA8C31E5E064
:104700009E0711F40C94143110F40C94BF2E8633D0
:10471000F5E09F0709F460C08F3325E0920711F49C
:104720000C941F308C32954009F0A2C50E94546948
:104730008111B4CAE091B911F091BA1180819181CF
:104740001092A71120E533EC3093A9112093A81102
:1047500033C02091A8113091A9118091B90D909189
:10476000BA0DA091BB0DB091BC0D820F931FA11D7E
:10477000B11D8093B90D9093BA0DA093BB0DB0936A
:10478000BC0D81E08E0F8093B30DF0E0EE0FFF1FA4
:10479000EE0FFF1FED54F64F8091A6119091A711D7
:1047A000A091A811B091A91180839183A283B383B2
:1047B00080919811909199119C0121503109309369
:1047C000991120939811892B09F493CF86E395E0F2
:1047D00090932C1180932B11E091B30D8091B40D27
:1047E000FE2FF81BFF3F09F0B4CF58CA893723E0EA
:1047F000920711F40C947E2E10F40C949A2F8139A8
:10480000E3E09E0709F4DAC08D3AF3E09F0709F46C
:10481000A9C78238934009F02BC50E9454698111C1
:104820003DCA8091A511E091B911F091BA11882388
:1048300011F40C940D34A08120919C1130919D11A4
:1048400040919E1150919F11B0E00E941B84DC01A9
:10485000CB01CAE0B695A79597958795CA95D1F7EC
:104860009093A9118093A811909137119093A7115B
:1048700080913611882311F40C947D3240915211AD
:1048800050915311609154117091551177FF02C0EE
:104890000C94333900917A1110917B1120917C1185
:1048A00030917D11400F511F621F731F40935211B1
:1048B00050935311609354117093551191609093DC
:1048C000A711813011F00C947D3240915A11509112
:1048D0005B1160915C1170915D1177FF02C00C94C7
:1048E0008C370091821110918311209184113091A5
:1048F0008511400F511F621F731F40935A1150932F
:104900005B1160935C1170935D119091A71194609D
:104910009093A711833039F140915E1150915F114E
:10492000609160117091611177FF02C00C94A23701
:104930000091861110918711209188113091891171
:10494000400F511F621F731F40935E1150935F1100
:1049500060936011709361119091A711986090938A
:10496000A711843029F18091621190916311A09177
:104970006411B0916511B7FF02C00C941C384091CE
:104980008A1150918B1160918C1170918D11840F4F
:10499000951FA61FB71F8093621190936311A09378
:1049A0006411B09365118091A71180618093A71164
:1049B00081E993E090932C1180932B1180919A11AF
:1049C000815080939A11882311F40C94DF33209145
:1049D000A8113091A9118091B90D9091BA0DA091B3
:1049E000BB0DB091BC0D820F931FA11DB11D809313
:1049F000B90D9093BA0DA093BB0DB093BC0DE0918F
:104A0000B30D81E08E0F8093B30DF0E0EE0FFF1F2A
:104A1000EE0FFF1FED54F64F8091A6119091A71154
:104A2000A091A811B091A91180839183A283B3832F
:104A300080913411909135110197909335118093A5
:104A40003411892B09F4CAC51092AB111092AA1126
:104A500081E08093B21182E893E090932C118093CF
:104A60002B110E945469882309F4DBCE17C98436C0
:104A700022E0920709F4E2C008F0F1C3009711F4B4
:104A80000C9467308234924009F0F2C38091AA11ED
:104A90009091AB11863AF1E09F0711F40C94B3307A
:104AA000873B21E0920711F40C945233892B11F4C7
:104AB0000C947430E091B911F091BA118FEF9FEF1F
:104AC0009093AB118093AA1180818C3011F40C94D7
:104AD000A53810F00C94E732873009F4A9C08B3068
:104AE00011F40C94AF34833011F40C9496389091F7
:104AF000400320914103392F321B3F3F41F1E1E058
:104B0000E90FE0934003A92FB0E0A25CBD4F1296DD
:104B10001C923E2F321B3F3FD1F032E0390F3093D1
:104B20004003F0E0E25CFD4F43E04283432F50E05E
:104B30005093490340934803321B3F3F41F09D5F30
:104B400090934003FA01E25CFD4F91E092839091D3
:104B50004003492F50E05093470340934603392FB9
:104B6000321B3F3F11F40C941E3A9F5F9093400319
:104B7000DA01A25CBD4F91E012969C93129740918E
:104B8000480350914903FA01FF27E25CFD4F9281EF
:104B90009F5F928312969C9112979F5F12969C93AF
:104BA000A09140039A2F921B9F3F11F40C943E3A20
:104BB00091E09A0F90934003B0E0A25CBD4F35E0C6
:104BC00012963C9332813F5F3283882311F40C9418
:104BD000FD396091460370914703EB01DD27C25C0C
:104BE000DD4F3A813F5F3A83392F321B3F3F11F44B
:104BF0000C943A3A31E0390F30934003A92FB0E0DA
:104C0000A25CBD4F12968C9382818F5F8283321B90
:104C10003F3F11F40C94083A6F3F7F4F11F08FEF34
:104C20008A83809144038F5F809344030E94FB4FEB
:104C300084E692E090932C1180932B118091B30D18
:104C40009091B40D891B809580939A11882309F463
:104C500025C81092AB111092AA1182E08093B21174
:104C600088E692E090932C1180932B110E94546956
:104C7000811114C8E091B911F091BA11808191812C
:104C800080932D1190932E1187FF03C08F7980930D
:104C9000A6111092AB111092AA1181E08093B2116B
:104CA0008AE792E090932C1180932B110E94546913
:104CB00081110C944E1EE091B911F091BA119081BE
:104CC0009093361181E001C0880F9A95EAF780939E
:104CD00037111092AB111092AA1184E08093B21197
:104CE00083E892E090932C1180932B110E945469D9
:104CF00081110C944E1EE091B911F091BA1180818E
:104D00009181A281B38180933E1190933F11A09332
:104D10004011B09341111092AB111092AA1184E08E
:104D20008093B21187E892E090932C1180932B111D
:104D30000E94546981110C944E1EE091B911F091BA
:104D4000BA1180819181A281B381809342119093A5
:104D50004311A0934411B09345111092AB111092DE
:104D6000AA1184E08093B2118BE892E090932C1109
:104D700080932B110E94546981110C944E1EE09176
:104D8000B911F091BA1180819181A281B381809390
:104D9000461190934711A0934811B0934911109276
:104DA000AB111092AA1184E08093B2118FE892E0C7
:104DB00090932C1180932B110E94546981110C94B3
:104DC0004E1EE091B911F091BA1180819181A281BA
:104DD000B38180934A1190934B11A0934C11B093DF
:104DE0004D111092AB111092AA1184E08093B21170
:104DF00083E992E090932C1180932B110E945469C7
:104E000081110C944E1EE091B911F091BA1180817C
:104E10009181A281B38180934E1190934F11A09301
:104E20005011B09351111092AB111092AA1182E05F
:104E30008093B21187E992E090932C1180932B110B
:104E40000E94546981110C944E1EE091B911F091A9
:104E5000BA11808191819093331180933211109215
:104E6000AB111092AA1182E08093B2118BE992E00B
:104E700090932C1180932B110E94546981110C94F2
:104E80004E1EE091B911F091BA11808191819093F9
:104E90003511809334111092A51180912D119091AC
:104EA0002E1190FF7CC11092AB111092AA1184E0D8
:104EB0008093B21186EA92E090932C1180932B118B
:104EC0000E94546981110C944E1EE091B911F09129
:104ED000BA1180819181A281B3818093A0119093B6
:104EE000A111A093A211B093A3111092AB11109233
:104EF000AA1181E08093B2118AEA92E090932C117A
:104F000080932B118091B0119091B1116091AE11ED
:104F10007091AF11681B790B7093B8116093B71142
:104F2000A091B2112A2F30E06217730710F00C9491
:104F3000C4356115710511F40C94F932E091AC118E
:104F4000F091AD1140E050E020E0E80FF91F80E063
:104F500090E0A150EF01C40FD51F3881EC01C65578
:104F6000DE4E39878A2F821B8093B2112F5F822FEA
:104F700090E0AC018617970768F386EA91E090937A
:104F8000AB118093AA1180917009882311F40C94BD
:104F90004E1E80917109909172098856954011F4C6
:104FA0000C94EC3988E695E090937209809371092E
:104FB000DC0180916C0990916D09409168095091D4
:104FC000690960916A0970916B09480F591F611D49
:104FD000711D409368095093690960936A09709341
:104FE0006B09109270099093AF118093AE11B0933A
:104FF000AD11A093AC114091B2114423A9F080915E
:10500000B7119091B811FC01ED54FE4E9C01265F42
:105010003F4F8FEF840F280F311D26553E4E8D9147
:105020008193E217F307D9F783EB91E19093BA11DB
:105030008093B911842F90E09093B1118093B011B7
:10504000E3EBF1E18FEF9FEF9093AB118093AA1107
:10505000C081C093A4116091A0117091A1118091A1
:10506000A2119091A311611571058105910511F4AB
:105070000C946B312091380230913902A901559579
:105080004795559547955595479555954795209141
:10509000000130910101FA01E21BF30B9F01F7FFC0
:1050A00002C00C94E437E436F10514F40C9427366E
:1050B0002091E0103091E11040E050E00E94B9836F
:1050C0009B01AC0104C05695479537952795CA9525
:1050D000D2F72130F0E13F074105510520F020E0F3
:1050E00030E140E050E020939C1130939D114093BB
:1050F0009E1150939F11213084E0380741055105DE
:1051000010F40C9474358091D50E882331F1A09160
:10511000D60EB091D70E0E941B84DC01CB01DAE0E1
:10512000B695A79597958795DA95D1F780939C11B9
:1051300090939D11A0939E11B0939F118091141193
:10514000909115118E3FEFEF9E0711F40C94263AC3
:105150000196909315118093141181E08093A5110D
:1051600080911211909113118E3FFFEF9F0711F460
:105170000C94CF3901969093131180931211809162
:105180009C1190919D11A0919E11B0919F118F3F04
:105190009105A105B10509F010F40C94B4351092F5
:1051A000AB111092AA1182E08093B21180E093E0DB
:1051B00090932C1180932B110E94546981110C94AF
:1051C0004E1E8091A511E091B911F091BA1188237A
:1051D00011F40C943C31A081B18120919C1130914B
:1051E0009D1140919E1150919F110E941B84DC01E2
:1051F000CB01CAE0B695A79597958795CA95D1F743
:1052000090933911809338111092AB111092AA111A
:1052100082E08093B2118AE093E090932C11809306
:105220002B110E94546981110C944E1EE091B9110A
:10523000F091BA118081918190933D1180933C113E
:105240001092AB111092AA1182E08093B2118EE0FD
:1052500093E090932C1180932B110C94771E883639
:1052600022E0920709F402CD8A37924009F41ECD5C
:105270008FEF9FEF90932C1180932B1180E00C9473
:105280004F1E80913A1190913B11892B09F448C42B
:105290008091A6118F7B8093A6111092AB11109272
:1052A000AA1182E08093B2118DEF93E090932C11BC
:1052B00080932B110E94546981110C944E1E809191
:1052C000A511E091B911F091BA11882311F40C9451
:1052D000CF32A081B18120919C1130919D114091DC
:1052E0009E1150919F110E941B84DC01CB013AE07A
:1052F000B695A795979587953A95D1F79093A9116B
:105300008093A8110E94896A8CE094E090932C11FC
:1053100080932B1180919A11815080939A11882348
:1053200011F40C94501D2091A8113091A911809175
:10533000B90D9091BA0DA091BB0DB091BC0D820F2B
:10534000931FA11DB11D8093B90D9093BA0DA09329
:10535000BB0DB093BC0DE091B30D81E08E0F809337
:10536000B30DF0E0EE0FFF1FEE0FFF1FED54F64FF1
:105370008091A6119091A711A091A811B091A911A7
:1053800080839183A283B3838091A6118F778093CA
:10539000A61180913A1190913B11019790933B1186
:1053A00080933A11892B09F4BBC31092AB11109270
:1053B000AA1182E08093B21185E194E090932C11C0
:1053C00080932B110E94546981110C944E1E809180
:1053D000A511E091B911F091BA11882311F40C9440
:1053E000FB33A081B18120919C1130919D1140919E
:1053F0009E1150919F110E941B84DC01CB012AE079
:10540000B695A795979587952A95D1F79093A91169
:105410008093A811909137119093A7118091361124
:10542000882311F40C942C32409152115091531155
:10543000609154117091551177FF02C00C94E038BF
:1054400000917A1110917B1120917C1130917D1186
:10545000400F511F621F731F4093521150935311FD
:10546000609354117093551191609093A7118130FE
:1054700009F0F2C740915A1150915B1160915C1193
:1054800070915D1177FF02C00C94C93600918211B2
:10549000109183112091841130918511400F511F7B
:1054A000621F731F40935A1150935B1160935C11FC
:1054B00070935D119091A71194609093A711833020
:1054C00039F140915E1150915F11609160117091BE
:1054D000611177FF02C00C94DF36009186111091A4
:1054E00087112091881130918911400F511F621F3F
:1054F000731F40935E1150935F116093601170931E
:1055000061119091A71198609093A711843029F1AF
:105510008091621190916311A0916411B091651115
:10552000B7FF02C00C944C3840918A1150918B11F6
:1055300060918C1170918D11840F951FA61FB71F5C
:105540008093621190936311A0936411B0936511DD
:105550008091A71180618093A71184E294E09093D9
:105560002C1180932B1180919A11815080939A1164
:10557000882311F40C94D5332091A8113091A911EE
:105580008091B90D9091BA0DA091BB0DB091BC0D59
:10559000820F931FA11DB11D8093B90D9093BA0D79
:1055A000A093BB0DB093BC0DE091B30D81E08E0FC5
:1055B0008093B30DF0E0EE0FFF1FEE0FFF1FED54D1
:1055C000F64F8091A6119091A711A091A811B091CA
:1055D000A91180839183A283B383DBCE8091921142
:1055E00090919311A0919411B0919511892B8A2BD0
:1055F0008B2B09F40DC28091A61183FF03C0806438
:105600008093A61180913811909139119093A9112E
:105610008093A811909137119093A7118091361122
:10562000882309F4B0C640915211509153116091F2
:1056300054117091551177FF02C00C94623800919B
:105640007A1110917B1120917C1130917D11400FC6
:10565000511F621F731F4093521150935311609357
:1056600054117093551191609093A711813009F0F6
:105670008AC640915A1150915B1160915C117091F2
:105680005D1177FF02C00C945D360091821110917C
:1056900083112091841130918511400F511F621F99
:1056A000731F40935A1150935B1160935C11709378
:1056B0005D119091A71194609093A711833039F1F7
:1056C00040915E1150915F11609160117091611174
:1056D00077FF02C00C943236009186111091871129
:1056E0002091881130918911400F511F621F731F43
:1056F00040935E1150935F1160936011709361113C
:105700009091A71198609093A711843029F180910E
:10571000621190916311A0916411B0916511B7FF6E
:1057200002C00C94CE3740918A1150918B11609138
:105730008C1170918D11840F951FA61FB71F809338
:10574000621190936311A0936411B09365118091DD
:10575000A71180618093A7118DEA93E090932C119B
:1057600080932B1180919A11815080939A118823F4
:1057700009F489C72091A8113091A9118091B90D20
:105780009091BA0DA091BB0DB091BC0D820F931FEB
:10579000A11DB11D8093B90D9093BA0DA093BB0DBF
:1057A000B093BC0DE091B30D81E08E0F8093B30DEB
:1057B000F0E0EE0FFF1FEE0FFF1FED54F64F80914C
:1057C000A6119091A711A091A811B091A911808361
:1057D0009183A283B3838091A6118F778093A611C2
:1057E0004091921150919311609194117091951183
:1057F00041505109610971094093921150939311DD
:105800006093941170939511452B462B472B09F407
:10581000FCC0909137119093A71180913611882385
:1058200011F40C942634409152115091531160910F
:1058300054117091551177FF02C00C94B939009141
:105840007A1110917B1120917C1130917D11400FC4
:10585000511F621F731F4093521150935311609355
:1058600054117093551191609093A711813009F0F4
:10587000EDC740915A1150915B1160915C1170918C
:105880005D1177FF02C00C948D3900918211109147
:1058900083112091841130918511400F511F621F97
:1058A000731F40935A1150935B1160935C11709376
:1058B0005D119091A71194609093A711833039F1F5
:1058C00040915E1150915F11609160117091611172
:1058D00077FF02C00C9477390091861110918711DF
:1058E0002091881130918911400F511F621F731F41
:1058F00040935E1150935F1160936011709361113A
:105900009091A71198609093A711843029F180910C
:10591000621190916311A0916411B0916511B7FF6C
:1059200002C00C94A33940918A1150918B1160915F
:105930008C1170918D11840F951FA61FB71F809336
:10594000621190936311A0936411B09365118091DB
:10595000A71180618093A71188EB93E090932C119D
:1059600080932B1180919A11815080939A118823F2
:1059700009F463C72091A8113091A9118091B90D44
:105980009091BA0DA091BB0DB091BC0D820F931FE9
:10599000A11DB11D8093B90D9093BA0DA093BB0DBD
:1059A000B093BC0DE091B30D81E08E0F8093B30DE9
:1059B000F0E0EE0FFF1FEE0FFF1FED54F64F80914A
:1059C000A6119091A711A091A811B091A91180835F
:1059D0009183A283B3838091921190919311A091AE
:1059E0009411B09195110197A109B1098093921179
:1059F00090939311A0939411B0939511892B8A2BB6
:105A00008B2B09F006CF8091A6118F7B8093A61176
:105A100080913C1190913D11892B09F432CC8091F9
:105A2000A6118F7B8093A6111092AB111092AA1130
:105A300081E08093B2118AEC93E090932C118093D3
:105A40002B110E94546981110C944E1E8091A51156
:105A5000E091B911F091BA11882309F4B1C5A08180
:105A600020919C1130919D1140919E1150919F1158
:105A7000B0E00E941B84DC01CB016AE0B695A795DB
:105A8000979587956A95D1F79093A9118093A8115E
:105A90000E94896A89ED93E090932C1180932B11D9
:105AA00080919A11815080939A11882309F47FC5BF
:105AB0002091A8113091A9118091B90D9091BA0D42
:105AC000A091BB0DB091BC0D820F931FA11DB11D04
:105AD0008093B90D9093BA0DA093BB0DB093BC0DFC
