:10000000CBC50000F3C50000F1C50000EFC500003E
:10001000EDC50000EBC50000E9C50000E7C5000024
:10002000E5C50000E3C50000E1C50000DFC5000034
:10003000DDC50000DBC50000D9C50000D7C5000044
:10004000D5C50000D3C500000C94994ECFC5000063
:100050000C94A659CBC50000C9C50000C7C5000057
:10006000C5C50000C3C50000C1C50000BFC5000074
:10007000BDC50000BBC50000B9C50000B7C5000084
:100080000C94FD570C94B74FB1C50000DD749E74FD
:100090006672667266726D7460745D7430741B741F
:1000A000A076667266726672667266726672667252
:1000B000667266726672667266729D769B7666720C
:1000C0006672667290768E768C768A76667288769E
:1000D000A7766672A4767D767176657650764276DE
:1000E00026762376A87566727A7577757575677545
:1000F00066726672617566725C754B7546752F75B2
:10010000FA74F474F274F074E974FF73E9739B7415
:100110004C4D504D544D5A4D4B4D4B4D604D664DD1
:100120006C4D464D4C4E514E424E384EFE4DFE4D9E
:10013000304E284E1E4E114E441F041D671B2A1AB6
:100140002B195718A21706177B16001692152D1596
:10015000D1147C142E14E513A11362132613ED128F
:10016000B812851255122712FC11D211AA1184114E
:100170005F113B111911F810D910BA109C108010A2
:10018000641049102F101510FC0FE40FCD0FB60F9F
:10019000A00F8A0F750F610F4C0F390F250F130F2A
:1001A000000FEE0EDD0ECB0EBA0EAA0E990E890EC2
:1001B0007A0E6A0E5B0E4C0E3E0E2F0E210E130EA3
:1001C000060EF80DEB0DDE0DD10DC50DB80DAC0D05
:1001D000A00D940D880D7D0D710D660D5B0D500DFC
:1001E000450D3B0D300D260D1B0D110D070DFD0CA2
:1001F000F30CEA0CE00CD70CCD0CC40CBB0CB20C0D
:10020000A90CA00C980C8F0C860C7E0C760C6D0C37
:10021000650C5D0C550C4D0C450C3D0C350C2E0C35
:10022000260C1F0C170C100C080C010CFA0BF30B0E
:10023000EC0BE50BDE0BD70BD00BC90BC20BBC0BC9
:10024000B50BAE0BA80BA10B9B0B950B8E0B880B64
:10025000820B7B0B750B6F0B690B630B5D0B570BE5
:10026000510B4C0B460B400B3A0B350B2F0B290B4C
:10027000240B1E0B190B130B0E0B080B030BFE0AA2
:10028000F80AF30AEE0AE90AE40ADE0AD90AD40AED
:10029000CF0ACA0AC50AC00ABB0AB60AB10AAD0A21
:1002A000A80AA30A9E0A990A950A900A8B0A870A45
:1002B000820A7E0A790A740A700A6B0A670A620A5D
:1002C0005E0A5A0A550A510A4C0A480A440A400A68
:1002D0003B0A370A330A2F0A2A0A260A220A1E0A6A
:1002E0001A0A160A120A0E0A0A0A060A020AFE095F
:1002F000FA09F609F209EE09EA09E609E209DE0956
:10030000DA09D709D309CF09CB09C809C409C0093B
:10031000BC09B909B509B109AE09AA09A609A30919
:100320009F099B099809940991098D098A098609F1
:1003300083097F097C097809750971096E096B09C0
:100340006709640960095D095A095609530950098A
:100350004C094909460942093F093C09390935094F
:1003600032092F092C092909250922091F091C090D
:100370001909160912090F090C09090906090309C7
:100380000009FD08FA08F708F408F108ED08EA0882
:10039000E708E408E108DE08DB08D908D608D30836
:1003A000D008CD08CA08C708C408C108BE08BB08E1
:1003B000B808B508B308B008AD08AA08A708A4088B
:1003C000A1089F089C0899089608930891088E0830
:1003D0008B0888088608830880087D087B087808D1
:1003E0007508720870086D086A0868086508620870
:1003F0005F085D085A085708550852084F084D080D
:100400004A0848084508420840083D083A083808A4
:100410003508330830082E082B082808260823083A
:1004200021081E081C0819081708140811080F08CD
:100430000C080A080708050802080008FD07FB0762
:10044000F807F607F307F107EE07EC07EA07E707F7
:10045000E507E207E007DD07DB07D807D607D40783
:10046000D107CF07CC07CA07C707C507C307C0070F
:10047000BE07BB07B907B707B407B207B007AD0798
:10048000AB07A807A607A407A1079F079D079A0720
:1004900098079607930791078F078C078A078807A5
:1004A0008507830781077E077C077A07780775072A
:1004B000730771076E076C076A07670765076307AD
:1004C00061075E075C075A0758075507530751072E
:1004D0004F074C074A0748074607430741073F07AE
:1004E0003D073A0738073607340731072F072D072E
:1004F0002B07290726072407220720071D071B07AC
:10050000190717071507120710070E070C070A0728
:100510000707050703070107FF06FC06FA06F806AA
:10052000F606F406F206EF06ED06EB06E906E70628
:10053000E506E206E006DE06DC06DA06D806D506A3
:10054000D306D106CF06CD06CB06C806C606C4061E
:10055000C206C006BE06BC06B906B706B506B30697
:10056000B106AF06AD06AA06A806A606A406A20610
:10057000A0069E069C069906970695069306910688
:100580008F068D068B068806860684068206800600
:100590007E067C067A0677067506730671066F0678
:1005A0006D066B06690666066406620660065E06F0
:1005B0005C065A0658065606530651064F064D0667
:1005C0004B06490647064506430640063E063C06DE
:1005D0003A06380636063406320630062D062B0655
:1005E000290627062506230621061F061D061A06CC
:1005F000180616061406120610060E060C060A0643
:100600000706050603060106FF05FD05FB05F905BE
:10061000F605F405F205F005EE05EC05EA05E8053A
:10062000E505E305E105DF05DD05DB05D905D705B2
:10063000D405D205D005CE05CC05CA05C805C6052A
:10064000C305C105BF05BD05BB05B905B705B405A3
:10065000B205B005AE05AC05AA05A705A505A3051D
:10066000A1059F059D059B05980596059405920596
:1006700090058E058B058905870585058305810510
:100680007E057C057A0578057605730571056F058D
:100690006D056B05680566056405620560055D0509
:1006A0005B05590557055505520550054E054C0586
:1006B000490547054505430541053E053C053A0505
:1006C00038053505330531052F052C052A05280584
:1006D0002605230521051F051C051A051805160505
:1006E000130511050F050C050A0508050605030588
:1006F0000105FF04FC04FA04F804F504F304F10412
:10070000EE04EC04EA04E704E504E304E004DE0498
:10071000DB04D904D704D404D204D004CD04CB0420
:10072000C804C604C404C104BF04BC04BA04B804A9
:10073000B504B304B004AE04AB04A904A604A40435
:10074000A1049F049D049A049804950493049004C2
:100750008E048B0489048604830481047E047C0453
:1007600079047704740472046F046C046A046704E7
:10077000650462045F045D045A045804550452047D
:1007800050044D044A0448044504420440043D0416
:100790003A043704350432042F042D042A042704B4
:1007A000240421041F041C04190416041304110456
:1007B0000E040B040804050402040004FD03FA03FC
:1007C000F703F403F103EE03EB03E803E503E203AD
:1007D000DF03DC03D903D603D303D003CD03CA035D
:1007E000C703C403C103BE03BB03B703B403B10310
:1007F000AE03AB03A803A403A1039E039B039703CB
:10080000940391038E038A038703840380037D038B
:100810007903760373036F036C0368036503610355
:100820005E035A03570353034F034C034803440327
:1008300041033D033903360332032E032A03260303
:1008400023031F031B03170313030F030B030703E8
:100850000303FF02FB02F702F302EE02EA02E602E2
:10086000E202DD02D902D502D002CC02C702C302E5
:10087000BE02BA02B502B102AC02A702A3029E02F6
:10088000990294028F028A02850280027B0276021C
:1008900071026C02660261025C02560251024B0256
:1008A000460240023A0234022F02290223021D02AC
:1008B000160210020A020402FD01F701F001E9012B
:1008C000E201DC01D501CD01C601BF01B701B001D4
:1008D000A801A001980190018801800177016E01B3
:1008E00065015C0153014A01400136012C012201DE
:1008F00017010C010101F500EA00DD00D100C40080
:10090000B600A9009A008B007C006C005B004900D7
:10091000370023000F00F9FF000021104220633050
:100920008440A550C660E770088129914AA16BB147
:100930008CC1ADD1CEE1EFF13112100273325222EF
:10094000B5529442F772D662399318837BB35AA397
:10095000BDD39CC3FFF3DEE36224433420040114BF
:10096000E664C774A44485546AA54BB528850995E7
:10097000EEE5CFF5ACC58DD553367226111630068F
:10098000D776F6669556B4465BB77AA71997388737
:10099000DFF7FEE79DD7BCC7C448E5588668A7784F
:1009A0004008611802282338CCC9EDD98EE9AFF987
:1009B000488969990AA92BB9F55AD44AB77A966A2F
:1009C000711A500A333A122AFDDBDCCBBFFB9EEBD7
:1009D000799B588B3BBB1AABA66C877CE44CC55CFF
:1009E000222C033C600C411CAEED8FFDECCDCDDD27
:1009F0002AAD0BBD688D499D977EB66ED55EF44ECF
:100A0000133E322E511E700E9FFFBEEFDDDFFCCF76
:100A10001BBF3AAF599F788F8891A981CAB1EBA1CA
:100A20000CD12DC14EF16FE18010A100C230E32046
:100A30000450254046706760B9839893FBA3DAB3EE
:100A40003DC31CD37FE35EF3B1029012F322D23296
:100A50003542145277625672EAB5CBA5A8958985BE
:100A60006EF54FE52CD50DC5E234C324A0148104E6
:100A70006674476424540544DBA7FAB79987B8978E
:100A80005FE77EF71DC73CD7D326F2369106B01636
:100A900057667676154634564CD96DC90EF92FE94E
:100AA000C899E9898AB9ABA9445865480678276886
:100AB000C018E1088238A3287DCB5CDB3FEB1EFB2E
:100AC000F98BD89BBBAB9ABB754A545A376A167AD6
:100AD000F10AD01AB32A923A2EFD0FED6CDD4DCDFE
:100AE000AABD8BADE89DC98D267C076C645C454C26
:100AF000A23C832CE01CC10C1FEF3EFF5DCF7CDFCE
:100B00009BAFBABFD98FF89F176E367E554E745E75
:100B1000932EB23ED10EF01E0000200023002600CE
:100B20002900020202020202020204040404040474
:100B3000040403030303030303030101010101018F
:100B40000101010204081020408001020408102065
:100B500040800102040810204080804020100804DA
:100B60000201000000010200090A00000000040365
:100B70000807000000000000000000000000000066
:100B8000000000002100240027002A0000002200AD
:100B9000250028002B00027711241FBECFEFD0E4E0
:100BA000DEBFCDBF11E0A0E0B1E0E2E2FEE001E097
:100BB0000BBF02C007900D92A635B107D9F721E10E
:100BC000A6E5B1E001C01D92AD3FB207E1F715E027
:100BD000CCECD5E004C02197FE010E94C586CB3C39
:100BE000D107C9F70E94425D0C94028709CACF92CF
:100BF000DF92EF92FF920F931F93CF93DF93809139
:100C00005B1090915C108A3A23E0920711F40C94E7
:100C1000161B08F44CC18839E4E09E0709F4BFC6EE
:100C200008F044C2813024E0920711F40C944B1F69
:100C300008F0AAC5823DF3E09F0709F453C010F401
:100C40000C94301D8B3E23E0920711F40C945A173C
:100C5000883FE3E09E0711F40C948A178F3D934080
:100C600011F00C9438178091CA109091CB10009716
:100C700009F410C101979093CB108093CA10E091B2
:100C8000EA0C81E08E0F8093EA0CF0E0EE0FFF1F7C
:100C9000EE0FFF1FE651F74F8091D7109091D810BB
:100CA000A091D910B091DA1080839183A283B3838D
:100CB00080916C1090916D10019790936D108093BE
:100CC0006C10892B11F40C9441171092DC101092C7
:100CD000DB1081E08093E31082ED93E090935C1051
:100CE00080935B100E94DC5A811194C28091D610CF
:100CF000E091EA10F091EB10882311F40C94322566
:100D0000A0812091CD103091CE104091CF10509104
:100D1000D010B0E00E94DA86DC01CB012AE0B69563
:100D2000A795979587952A95D1F79093DA10809398
:100D3000D910909167109093D810809166108823F5
:100D400011F40C949B224091821050918310609179
:100D500084107091851077FF02C00C94FC2C0091D8
:100D6000AA101091AB102091AC103091AD10400F33
:100D7000511F621F731F4093821050938310609322
:100D800084107093851091609093D810813011F089
:100D90000C949B2240918A1050918B1060918C1082
:100DA00070918D1077FF02C00C94C92A0091B21087
:100DB0001091B3102091B4103091B510400F511F15
:100DC000621F731F40938A1050938B1060938C1096
:100DD00070938D109091D81094609093D8108330B8
:100DE00039F140918E1050918F1060919010709158
:100DF000911077FF02C00C94DF2A0091B610109179
:100E0000B7102091B8103091B910400F511F621FD8
:100E1000731F40938E1050938F10609390107093B7
:100E200091109091D81098609093D810843029F147
:100E30008091921090919310A0919410B091951080
:100E4000B7FF02C00C94472C4091BA105091BB10D0
:100E50006091BC107091BD10840F951FA61FB71F25
:100E60008093921090939310A0939410B093951048
:100E70008091D81080618093D8108FED93E090938B
:100E80005C1080935B108091CA109091CB100097FA
:100E900009F0F0CE8091EA0C9091EB0C891B8095C3
:100EA00090E09093CB108093CA1081E0B4C1843A53
:100EB000F2E09F0711F40C94C31408F0B5C1813817
:100EC000E2E09E0711F40C94F11F10F40C945410FE
:100ED0008D38F2E09F0711F40C940D1310F40C946C
:100EE000EF1C853922E0920711F40C94D313893951
:100EF000E2E09E0711F40C948C1F8139924011F0AE
:100F00000C9438178091DB109091DC10863A21E028
:100F1000920711F40C947013873BE1E09E0711F4E3
:100F20000C94D721892B11F40C942F13E091EA1023
:100F3000F091EB108091DF109091E0104081518191
:100F40006281738140937E1050937F106093801074
:100F5000709381101092DC101092DB1022E020932D
:100F6000E31025E932E030935C1020935B10609130
:100F7000E1107091E210DC01A61BB70BB093E910F1
:100F8000A093E8105091E310252F30E0A217B3078B
:100F900010F00C942829109711F40C948621C0911C
:100FA000DD10D091DE1020E030E040E080E090E005
:100FB00051502C0F3D1FF901E60FF71F2081FC0156
:100FC000E552FF4E2187852F841B8093E3104F5FEE
:100FD000842F90E09C018A179B0758F386EA91E0E2
:100FE0009093DC108093DB108091A708882309F48C
:100FF00011C18091A8089091A9088F59944011F4CB
:101000000C942F2E8FE994E09093A9088093A80860
:10101000DC018091A3089091A40840919F08509111
:10102000A0086091A1087091A208480F591F611D86
:10103000711D40939F085093A0086093A10870937E
:10104000A2081092A7089093E0108093DF10B0934D
:10105000DE10A093DD109091E3109923A1F0209170
:10106000E8103091E910F901EC51FF4E265F3F4F37
:101070008FEF890F280F311D25523F4E8D9181939F
:10108000E217F307D9F724EE30E13093EB10209309
:10109000EA10892F90E09093E2108093E110F9011B
:1010A0008091DF109091E0100C94EF138D3DE4E0FF
:1010B0009E0711F40C94641E08F0A2C5853B24E041
:1010C000920709F463C010F40C94851D853CE4E09C
:1010D0009E07E1F0813DF4E09F0711F40C94DB1FC3
:1010E000823C944011F00C9438170E94DC5A811114
:1010F00091C0E091EA10F091EB1080818093D810BC
:1011000085EC94E090935C1080935B108091CA1002
:101110009091CB10009711F40C941E24019790939A
:10112000CB108093CA10E091EA0C81E08E0F80937F
:10113000EA0CF0E0EE0FFF1FEE0FFF1FE651F74F36
:101140008091D7109091D810A091D910B091DA1059
:1011500080839183A283B3838091C6109091C7103E
:1011600001979093C7108093C610892B11F40C94AB
:10117000FA1E1092DC101092DB1081E08093E310D5
:1011800085EB94E090935C1080935B100E94DC5A96
:10119000811140C0E091EA10F091EB108081A091A4
:1011A0006010B0916110A80FB11D87FDBA95B09382
:1011B0006110A09360108091D610882311F40C94D4
:1011C000D3252091CD103091CE104091CF10509169
:1011D000D0100E94DA86DC01CB014AE0B695A795D3
:1011E000979587954A95D1F79093DA108093D91007
:1011F0001092DC101092DB1081E08093E31082ECFF
:1012000094E090935C1080935B100E94DC5A8823DA
:1012100009F46FCF81E0DF91CF911F910F91FF9083
:10122000EF90DF90CF9008958B3423E0920709F47C
:10123000B3C108F05BC58830F3E09F0711F40C944C
:10124000111710F40C94111D853323E0920709F453
:101250008DC08234E3E09E0709F459C18C3093407D
:1012600011F00C9438170E94DC5A8111D3CFE09111
:10127000EA10F091EB102081318130936B102093B4
:101280006A1000916610E02FF0E0EE0FFF1FEE0FE6
:10129000FF1FE55AFF4EC388D488E588F688C092C0
:1012A000BE10D092BF10E092C010F092C110CEE6F6
:1012B000D0E1E6E9F0E110E00117F1F04881598151
:1012C0006A817B81440F551F661F771FDB01CA01AE
:1012D0008C199D09AE09BF098C8B9D8BAE8BBF8B82
:1012E00040835183628373838C199D09AE09BF09C2
:1012F000848B958BA68BB78B1F5F24963496153005
:10130000D9F6609162107091631080916410909191
:101310006510FC01E60FF71F40916C1050916D10A5
:101320004E0F5F1F240F351FC21AD30AE108F108C0
:10133000C092C210D092C310E092C410F092C510B7
:10134000672B11F40C94DD1B8091D7108F7B809359
:10135000D7101092DC101092DB1082E08093E31023
:1013600085E393E090935C1080935B100E94DC5ABD
:10137000811150CF8091D610E091EA10F091EB10DE
:10138000882311F40C947824A081B1812091CD1090
:101390003091CE104091CF105091D0100E94DA863B
:1013A000DC01CB012AE0B695A795979587952A95FC
:1013B000D1F79093DA108093D910909167109093A1
:1013C000D81080916610882311F40C94102140915C
:1013D000821050918310609184107091851077FF76
:1013E00002C00C94A42C0091AA101091AB10209173
:1013F000AC103091AD10400F511F621F731F40930E
:1014000082105093831060938410709385109160C4
:101410009093D810813011F00C94102140918A10D3
:1014200050918B1060918C1070918D1077FF02C0DD
:101430000C94632A0091B2101091B3102091B41053
:101440003091B510400F511F621F731F40938A10D7
:1014500050938B1060938C1070938D109091D810D6
:1014600094609093D810833039F140918E10509150
:101470008F10609190107091911077FF02C00C94C2
:10148000792A0091B6101091B7102091B8103091C0
:10149000B910400F511F621F731F40938E1050935D
:1014A0008F1060939010709391109091D810986065
:1014B0009093D810843029F18091921090919310DC
:1014C000A0919410B0919510B7FF02C00C941B2C02
:1014D0004091BA105091BB106091BC107091BD103A
:1014E000840F951FA61FB71F80939210909393109F
:1014F000A0939410B09395108091D8108061809340
:10150000D81082E493E090935C1080935B108091FC
:10151000CA109091CB10009711F40C942F240197CE
:101520009093CB108093CA10E091EA0C81E08E0F6B
:101530008093EA0CF0E0EE0FFF1FEE0FFF1FE65165
:10154000F74F8091D7109091D810A091D910B091F9
:10155000DA1080839183A283B3838091D7108F7731
:101560008093D710809162109091631001979093AF
:10157000631080936210892B11F40C94D91B109284
:10158000DC101092DB1082E08093E3108BE493E098
:1015900090935C1080935B100E94DC5A81113ACECC
:1015A0008091D610E091EA10F091EB10882311F4AD
:1015B0000C944225A081B1812091CD103091CE10A4
:1015C0004091CF105091D0100E94DA86DC01CB01FF
:1015D0001AE0B695A795979587951A95D1F79093A8
:1015E000DA108093D910909167109093D810809161
:1015F0006610882311F40C943C2340918210509182
:101600008310609184107091851077FF02C00C9454
:101610003A2D0091AA101091AB102091AC1030918E
:10162000AD10400F511F621F731F409382105093E3
:101630008310609384107093851091609093D810FC
:10164000813011F00C943C2340918A1050918B1002
:1016500060918C1070918D1077FF02C00C94372B25
:101660000091B2101091B3102091B4103091B510C8
:10167000400F511F621F731F40938A1050938B10AD
:1016800060938C1070938D109091D810946090930B
:10169000D810833039F140918E1050918F106091A5
:1016A00090107091911077FF02C00C944D2B009117
:1016B000B6101091B7102091B8103091B910400FAA
:1016C000511F621F731F40938E1050938F106093B1
:1016D0009010709391109091D81098609093D810BA
:1016E000843029F18091921090919310A0919410E0
:1016F000B0919510B7FF02C00C94C22C4091BA1063
:101700005091BB106091BC107091BD10840F951F5B
:10171000A61FB71F8093921090939310A0939410DC
:10172000B09395108091D81080618093D81088E58F
:1017300093E090935C1080935B108091CA1090911D
:10174000CB10009711F40C946F2401979093CB1059
:101750008093CA10E091EA0C81E08E0F8093EA0C2E
:10176000F0E0EE0FFF1FEE0FFF1FE651F74F8091E5
:10177000D7109091D810A091D910B091DA10808331
:101780009183A283B383EECE873224E0920711F4D3
:101790000C94601D10F40C943A1D8634E4E09E070E
:1017A00059F18A34F4E09F0709F447C08B33944021
:1017B00011F00C9438170E94DC5A81112BCDE09166
:1017C000EA10F091EB10808191819093C710809383
:1017D000C6101092D61080915D1085FFD3C0109274
:1017E000DC101092DB1084E08093E31086E494E038
:1017F00090935C1080935B100E94DC5A81110ACD9B
:10180000E091EA10F091EB1080819181A281B38187
:101810008093D1109093D210A093D310B093D41092
:101820001092DC101092DB1081E08093E3108AE4C8
:1018300094E090935C1080935B100E94DC5A8111BD
:10184000E9CCE091EA10F091EB10C081C093D51083
:1018500080916F01909170019595879595958795E9
:101860009595879595958795209100013091010177
:10187000821B930B97FF02C00C94E82884369105D5
:1018800014F40C947E2520910F103091101040E03C
:1018900050E06091D1107091D2108091D31090914E
:1018A000D4100E9478869B01AC0104C056954795E0
:1018B00037952795CA95D2F7213080E13807410541
:1018C000510520F020E030E140E050E02093CD10C1
:1018D0003093CE104093CF105093D0108091040ECF
:1018E000213094E039074105510510F40C94382457
:1018F000882331F1A091050EB091060E0E94DA8680
:10190000DC01CB017AE0B695A795979587957A95F6
:10191000D1F78093CD109093CE10A093CF10B093B9
:10192000D01080914410909145108E3FEFEF9E07AC
:1019300011F40C94032E019690934510809344105B
:1019400081E08093D61080914210909143108E3F99
:10195000FFEF9F0711F40C94F92B0196909343101D
:10196000809342108091CD109091CE10A091CF1015
:10197000B091D0108F3F9105A105B10509F010F489
:101980000C94A4291092DC101092DB1082E080935A
:10199000E31088E994E090935C1080935B100E94C0
:1019A000DC5A811137CCE091EA10F091EB10A08164
:1019B000B181B0936110A09360108091D6108823FC
:1019C00011F40C9491202091CD103091CE104091C3
:1019D000CF105091D0100E94DA86DC01CB016AE072
:1019E000B695A795979587956A95D1F79093DA1054
:1019F0008093D9101092DC101092DB1081E080935C
:101A0000E31085EA94E090935C1080935B108091E2
:101A1000E1109091E2106091DF107091E010681B6E
:101A2000790B7093E9106093E810A091E3102A2FCE
:101A300030E06217730710F00C94D6286115710519
:101A400011F40C949720E091DD10F091DE1040E04D
:101A500050E020E0E80FF91F80E090E0A150EF0196
:101A6000C40FD51F3881EC01C552DF4E39878A2F4C
:101A7000821B8093E3102F5F822F90E0AC018617CA
:101A8000970768F386EA91E09093DC108093DB106F
:101A90008091A708882309F4BDCB8091A808909174
:101AA000A9088F59944011F40C94142E8FE994E0F6
:101AB0009093A9088093A808DC018091A3089091D5
:101AC000A40840919F085091A0086091A1087091CE
:101AD000A208480F591F611D711D40939F08509324
:101AE000A0086093A1087093A2081092A708909391
:101AF000E0108093DF10B093DE10A093DD10909182
:101B0000E3109923A1F02091E8103091E910F90138
:101B1000EC51FF4E265F3F4F8FEF890F280F311D8D
:101B200025523F4E8D918193E217F307D9F724EEAA
:101B300030E13093EB102093EA10892F90E09093DE
:101B4000E2108093E110F9018FEF9FEF9093DC108A
:101B50008093DB1080818093D81088EA94E0909382
:101B60005C1080935B108091CA109091CB1000970D
:101B700011F40C941C2201979093CB108093CA10FF
:101B8000E091EA0C81E08E0F8093EA0CF0E0EE0F1A
:101B9000FF1FEE0FFF1FE651F74F8091D710909176
:101BA000D810A091D910B091DA1080839183A283CC
:101BB000B3838091D7108F778093D71080915D1079
:101BC00090915E102091C6103091C71021503109BC
:101BD0003093C7102093C61086FD02C00C940B21D1
:101BE000232B09F0C6CA91FF05C08091CC1081114A
:101BF0000E94262F10925C1010925B1081E00BCB9C
:101C00008115E5E09E0711F40C940D1F10F40C945F
:101C1000901D8931F5E09F0709F45FC0823225E00D
:101C2000920711F40C94611F8031954011F00C94CF
:101C300038178091DB109091DC10863AE1E09E0726
:101C400011F40C943E26873BF1E09F0711F40C94AD
:101C5000E627892B11F40C94FF25E091EA10F0910E
:101C6000EB108FEF9FEF9093DC108093DB1080815F
:101C700091811092D81020E533EC3093DA10209344
:101C8000D9101BC081E08E0F8093EA0CF0E0EE0FBC
:101C9000FF1FEE0FFF1FE651F74F8091D710909175
:101CA000D810A091D910B091DA1080839183A283CB
:101CB000B3838091C8109091C9109C0121503109C3
:101CC0003093C9102093C810892B09F493CF89E170
:101CD00095E090935C1080935B10E091EA0C80910A
:101CE000EB0C2E2F281B2F3F69F694CA813723E077
:101CF000920711F40C94C21C10F40C94EF1E873858
:101D0000E3E09E0709F4F0C0813AF3E09F0711F485
:101D10000C94281A8A37934011F00C94381780914C
:101D2000DB109091DC10863AF1E09F0709F45DC169
:101D3000873B21E0920711F40C94EB24892B09F4E2
:101D400013C1E091EA10F091EB108FEF9FEF9093A9
:101D5000DC108093DB108091D610882311F40C9452
:101D60003A25A0812091CD103091CE104091CF1016
:101D70005091D010B0E00E94DA86DC01CB01EAE09D
:101D8000B695A79597958795EA95D1F79093DA1030
:101D90008093D910909167109093D810809166101D
:101DA000882311F40C9411234091821050918310D8
:101DB000609184107091851077FF02C00C94502DB3
:101DC0000091AA101091AB102091AC103091AD1081
:101DD000400F511F621F731F409382105093831056
:101DE000609384107093851091609093D810813027
:101DF00011F00C94112340918A1050918B10609136
:101E00008C1070918D1077FF02C00C948F2B009175
:101E1000B2101091B3102091B4103091B510400F52
:101E2000511F621F731F40938A1050938B10609351
:101E30008C1070938D109091D81094609093D8105E
:101E4000833039F140918E1050918F106091901035
:101E50007091911077FF02C00C94A52B0091B610E1
:101E60001091B7102091B8103091B910400F511F48
:101E7000621F731F40938E1050938F1060939010C9
:101E8000709391109091D81098609093D8108430EE
:101E900029F18091921090919310A0919410B0919B
:101EA0009510B7FF02C00C94312C4091BA1050919C
:101EB000BB106091BC107091BD10840F951FA61FC0
:101EC000B71F8093921090939310A0939410B093A7
:101ED00095108091D81080618093D81087E893E0A6
:101EE00090935C1080935B108091CA109091CB10FE
:101EF000009711F40C94662401979093CB10809373
:101F0000CA10E091EA0C81E08E0F8093EA0CF0E0B9
:101F1000EE0FFF1FEE0FFF1FE651F74F8091D71016
:101F20009091D810A091D910B091DA10808391834C
:101F3000A283B38380916410909165100197909370
:101F4000651080936410892B11F40C94641910921D
:101F5000DC101092DB1081E08093E3108AE793E0BD
:101F600090935C1080935B10A091E110B091E2100F
:101F70006091DF107091E0106A1B7B0B7093E91089
:101F80006093E8105091E310852F90E0681779076F
:101F900010F00C94A12A6115710511F40C94E5243C
:101FA000C091DD10D091DE1020E030E040E080E014
:101FB00090E051502C0F3D1FF901EA0FFB1F2081CB
:101FC000FC01E552FF4E2187852F841B8093E3108F
:101FD0004F5F842F90E09C018617970758F386EA9D
:101FE00091E09093DC108093DB108091A708882308
:101FF00009F410C98091A8089091A9088F599440BC
:1020000011F40C94B12E8FE994E09093A908809379
:10201000A808DC018091A3089091A40840919F0832
:102020005091A0086091A1087091A208480F591F13
:10203000611D711D40939F085093A0086093A108F3
:102040007093A2081092A7089093E0108093DF107D
:10205000B093DE10A093DD104091E3104423A9F06B
:102060008091E8109091E910FC01EC51FF4E9C0129
:10207000265F3F4F8FEF840F280F311D25523F4EB3
:102080008D918193E217F307D9F784EE90E1909355
:10209000EB108093EA10842F90E09093E2108093ED
:1020A000E110E4EEF0E151CE823622E0920779F1C0
:1020B00008F0D5C6009711F40C94231F8034924089
:1020C00009F0D6C60E94DC5A8111A4C8E091EA103A
:1020D000F091EB1060816C3011F40C94F22510F04B
:1020E0000C94CB24673069F06B3011F40C94001F12
:1020F000633011F40C949F2685E00E94D8590E9409
:10210000FE4082E692E090935C1080935B10809199
:10211000EA0C9091EB0C891B8095282F30E03093CE
:10212000CB102093CA10882309F474C81092DC10D5
:102130001092DB1082E08093E31086E692E09093A9
:102140005C1080935B100E94DC5A811163C8E0919F
:10215000EA10F091EB108081918180935D10909353
:102160005E1087FF03C08F798093D7101092DC1028
:102170001092DB1081E08093E31088E792E0909367
:102180005C1080935B100E94DC5A811143C8E0917F
:10219000EA10F091EB1090819093661081E001C0FD
:1021A000880F9A95EAF7809367101092DC101092CE
:1021B000DB1084E08093E31081E892E090935C1060
:1021C00080935B106091E1107091E2108091DF10BC
:1021D0009091E010FC01E61BF70BF093E910E093FF
:1021E000E810A091E3102A2F30E0E217F30710F077
:1021F0000C949229309711F40C9467238091DD1090
:102200009091DE1040E050E020E0680F791F80E000
:1022100090E0A150EB01C40FD51F3881EC01C552ED
:10222000DF4E39878A2F821B8093E3102F5F822F26
:1022300090E0AC018E179F0768F386EA91E09093D7
:10224000DC108093DB108091A708882311F40C9494
:102250000A098091A8089091A9088F59944011F417
:102260000C94802E8FE994E09093A9088093A8089D
:10227000DC018091A3089091A40840919F0850919F
:10228000A0086091A1087091A208480F591F611D14
:10229000711D40939F085093A0086093A10870930C
:1022A000A2081092A7089093E0108093DF10B093DB
:1022B000DE10A093DD104091E3104423A9F080913B
:1022C000E8109091E910FC01EC51FF4E9C01265F53
:1022D0003F4F8FEF840F280F311D25523F4E8D91B8
:1022E0008193E217F307D9F784EE90E19093EB1016
:1022F0008093EA10842F90E09093E2108093E11095
:10230000E4EEF0E18091DF109091E0104081518186
:102310006281738140936E1050936F1060937010C0
:10232000709371101092DC101092DB1024E0209357
:10233000E31025E832E030935C1020935B1060914D
:10234000E1107091E210FC01E61BF70BF093E9102D
:10235000E093E810A091E3102A2F30E0E217F30792
:1023600010F00C947829309711F40C94C6228091C7
:10237000DD109091DE1040E050E020E0680F791F02
:1023800080E090E0A150EB01C40FD51F3881EC0133
:10239000C552DF4E39878A2F821B8093E3102F5F4F
:1023A000822F90E0AC018E179F0768F386EA91E0D8
:1023B0009093DC108093DB108091A708882311F4A0
:1023C0000C940A098091A8089091A9088F5994400B
:1023D00011F40C946E2E8FE994E09093A9088093E9
:1023E000A808DC018091A3089091A40840919F085F
:1023F0005091A0086091A1087091A208480F591F40
:10240000611D711D40939F085093A0086093A1081F
:102410007093A2081092A7089093E0108093DF10A9
:10242000B093DE10A093DD104091E3104423A9F097
:102430008091E8109091E910FC01EC51FF4E9C0155
:10244000265F3F4F8FEF840F280F311D25523F4EDF
:102450008D918193E217F307D9F784EE90E1909381
:10246000EB108093EA10842F90E09093E210809319
:10247000E110E4EEF0E18091DF109091E0104081F6
:1024800051816281738140937210509373106093F5
:102490007410709375101092DC101092DB1024E011
:1024A0002093E31029E832E030935C1020935B1016
:1024B0006091E1107091E210DC01A61BB70BB093A4
:1024C000E910A093E8101091E310812F90E0A81775
:1024D000B90710F00C944C29109711F40C94252294
:1024E000C091DD10D091DE1040E050E090E020E09F
:1024F00030E011504C0F5D1FFA01E60FF71F80818D
:10250000F901E552FF4E8187812F891B8093E310EB
:102510009F5F292F30E0A9012A173B0758F386EA6D
:1025200091E09093DC108093DB108091A7088823C2
:1025300011F40C940A098091A8089091A9088F5968
:10254000944011F40C944A2E8FE994E09093A908DA
:102550008093A808DC018091A3089091A408409181
:102560009F085091A0086091A1087091A208480F9F
:10257000591F611D711D40939F085093A0086093DF
:10258000A1087093A2081092A7089093E01080937E
:10259000DF10B093DE10A093DD104091E3104423D0
:1025A000A9F08091E8109091E910FC01EC51FF4EE8
:1025B0009C01265F3F4F8FEF840F280F311D25525E
:1025C0003F4E8D918193E217F307D9F784EE90E1A6
:1025D0009093EB108093EA10842F90E09093E21098
:1025E0008093E110E4EEF0E180819181A281B381DA
:1025F0008093761090937710A0937810B093791011
:102600001092DC101092DB1084E08093E3108DE8D0
:1026100092E090935C1080935B100E94DC5A8111D1
:102620000C940A09E091EA10F091EB1080819181FD
:10263000A281B38180937A1090937B10A0937C1039
:10264000B0937D101092DC101092DB1084E0809328
:10265000E31081E992E090935C1080935B106091AD
:10266000E1107091E2108091DF109091E010DC0198
:10267000A61BB70BB093E910A093E8105091E3109C
:10268000252F30E0A217B30710F00C943A291097C9
:1026900011F40C94D121C091DD10D091DE1020E016
:1026A00030E040E080E090E051502C0F3D1FF901F8
:1026B000E60FF71F2081FC01E552FF4E2187852F91
:1026C000841B8093E3104F5F842F90E09C018A1756
:1026D0009B0758F386EA91E09093DC108093DB101F
:1026E0008091A708882311F40C940A098091A80806
:1026F0009091A9088F59944011F40C94532E8FE9AE
:1027000094E09093A9088093A808DC018091A30825
:102710009091A40840919F085091A0086091A10851
:102720007091A208480F591F611D711D40939F08A9
:102730005093A0086093A1087093A2081092A70874
:102740009093E0108093DF10B093DE10A093DD1023
:102750009091E3109923A1F02091E8103091E910B5
:10276000F901EC51FF4E265F3F4F8FEF890F280F85
:10277000311D25523F4E8D918193E217F307D9F712
:1027800024EE30E13093EB102093EA10892F90E093
:102790009093E2108093E110F9018091DF10909105
:1027A000E0100C949E078091DB109091DC10863A2B
:1027B000E1E09E0711F40C94F407873BF1E09F07DA
:1027C00011F40C948C21892B11F40C940E2FE091B0
:1027D000EA10F091EB108091DF109091E0102FEF54
:1027E0003FEF3093DC102093DB1020813181309358
:1027F0006310209362101092DC101092DB1022E024
:102800002093E31029E932E030935C1020935B10B1
:102810006091E1107091E210DC01A61BB70BB09340
:10282000E910A093E8101091E310812F90E0A81711
:10283000B90710F00C94F028109711F40C943B2178
:10284000C091DD10D091DE1040E050E090E020E03B
:1028500030E011504C0F5D1FFA01E60FF71F808129
:10286000F901E552FF4E8187812F891B8093E31088
:102870009F5F292F30E0A9012A173B0758F386EA0A
:1028800091E09093DC108093DB108091A70888235F
:1028900011F40C940A098091A8089091A9088F5905
:1028A000944011F40C945C2E8FE994E09093A90865
:1028B0008093A808DC018091A3089091A40840911E
:1028C0009F085091A0086091A1087091A208480F3C
:1028D000591F611D711D40939F085093A00860937C
:1028E000A1087093A2081092A7089093E01080931B
:1028F000DF10B093DE10A093DD109091E3109923C8
:10290000A1F02091E8103091E910F901EC51FF4E4F
:10291000265F3F4F8FEF890F280F311D25523F4E05
:102920008D918193E217F307D9F724EE30E13093CC
:10293000EB102093EA10892F90E09093E21080939F
:10294000E110F9018FEF9FEF9093DC108093DB1083
:102950008081918190936510809364101092D610BD
:1029600080915D1090915E1090FF7CC11092DC1000
:102970001092DB1084E08093E31084EA92E090935D
:102980005C1080935B100E94DC5A81110C940A0940
:10299000E091EA10F091EB1080819181A281B381E6
:1029A0008093D1109093D210A093D310B093D410F1
:1029B0001092DC101092DB1081E08093E31088EA23
:1029C00092E090935C1080935B108091E110909165
:1029D000E2106091DF107091E010681B790B70932A
:1029E000E9106093E810A091E3102A2F30E06217FD
:1029F000730710F00C94AC296115710511F40C9457
:102A0000C223E091DD10F091DE1040E050E020E0C4
:102A1000E80FF91F80E090E0A150EF01C40FD51F2F
:102A20003881EC01C552DF4E39878A2F821B809393
:102A3000E3102F5F822F90E0AC018617970768F3B1
:102A400086EA91E09093DC108093DB108091A708D8
:102A5000882311F40C940A098091A8089091A90880
:102A60008F59944011F40C94922E8FE994E0909336
:102A7000A9088093A808DC018091A3089091A4087C
:102A800040919F085091A0086091A1087091A20800
:102A9000480F591F611D711D40939F085093A00856
:102AA0006093A1087093A2081092A7089093E01079
:102AB0008093DF10B093DE10A093DD104091E310FF
:102AC0004423A9F08091E8109091E910FC01EC51A9
:102AD000FF4E9C01265F3F4F8FEF840F280F311D63
:102AE00025523F4E8D918193E217F307D9F784EE7B
:102AF00090E19093EB108093EA10842F90E09093F4
:102B0000E2108093E110E4EEF0E18FEF9FEF9093FD
:102B1000DC108093DB10C081C093D5106091D11080
:102B20007091D2108091D3109091D41061157105DD
:102B30008105910511F40C948A2020916F01309148
:102B40007001A90155954795559547955595479518
:102B5000559547952091000130910101FA01E21B42
:102B6000F30B9F01F7FF02C00C94FD2BE436F10537
:102B700014F40C94422A20910F103091101040E070
:102B800050E00E9478869B01AC0104C056954795A1
:102B900037952795CA95D2F72130F0E13F074105D7
:102BA000510520F020E030E140E050E02093CD10CE
:102BB0003093CE104093CF105093D010213084E04A
:102BC00038074105510510F40C9402298091040E38
:102BD000882331F1A091050EB091060E0E94DA868D
:102BE000DC01CB01DAE0B695A79597958795DA9544
:102BF000D1F78093CD109093CE10A093CF10B093C7
:102C0000D01080914410909145108E3FEFEF9E07B9
:102C100011F40C94C62E01969093451080934410A5
:102C200081E08093D61080914210909143108E3FA6
:102C3000FFEF9F0711F40C94D72D0196909343104A
:102C4000809342108091CD109091CE10A091CF1022
:102C5000B091D0108F3F9105A105B10509F010F496
:102C60000C948A291092DC101092DB1082E0809381
:102C7000E3108EEF92E090935C1080935B10A09134
:102C8000E110B091E2106091DF107091E0106A1BCA
:102C90007B0B7093E9106093E8105091E310852F3F
:102CA00090E06817790710F00C94E0256115710524
:102CB00011F40C940E20C091DD10D091DE1020E0B4
:102CC00030E040E080E090E051502C0F3D1FF901D2
:102CD000EA0FFB1F2081FC01E552FF4E2187852F63
:102CE000841B8093E3104F5F842F90E09C01861734
:102CF000970758F386EA91E09093DC108093DB10FD
:102D00008091A708882311F40C940A098091A808DF
:102D10009091A9088F59944011F40C94E42D8FE9F7
:102D200094E09093A9088093A808DC018091A308FF
:102D30009091A40840919F085091A0086091A1082B
:102D40007091A208480F591F611D711D40939F0883
:102D50005093A0086093A1087093A2081092A7084E
:102D60009093E0108093DF10B093DE10A093DD10FD
:102D70009091E310992311F40C949B2E2091E8106C
:102D80003091E910F901EC51FF4E265F3F4F8FEF74
:102D9000890F280F311D25523F4E8D918193E217E7
:102DA000F307D9F7892F90E024EE30E13093EB1050
:102DB0002093EA109093E2108093E110F9018FEFD5
:102DC0009FEF9093DC108093DB108091D6108823C6
:102DD00011F40C945920A081B1812091CD10309133
:102DE000CE104091CF105091D0100E94DA86DC01B5
:102DF000CB01CAE0B695A79597958795CA95D1F767
:102E000090936910809368101092DC101092DB1080
:102E100082E08093E31088E093E090935C108093CD
:102E20005B100E94DC5A81110C940A09E091EA10AF
:102E3000F091EB108081918190936D1080936C10D4
:102E40001092DC101092DB1082E08093E3108CE093
:102E500093E090935C1080935B100C94330986365A
:102E600022E0920709F46FC98837924009F48BC9B0
:102E70008FEF9FEF90935C1080935B1080E00C9439
:102E80000B0980916A1090916B10892B09F487C40B
:102E90008091D7108F7B8093D7101092DC10109206
:102EA000DB1082E08093E3108BEE93E090935C1054
:102EB00080935B100E94DC5A81110C940A09809166
:102EC000D610E091EA10F091EB10882311F40C94E5
:102ED000B223A081B1812091CD103091CE104091CC
:102EE000CF105091D0100E94DA86DC01CB011AE09D
:102EF000B695A795979587951A95D1F79093DA107F
:102F00008093D9100E94115C88EF93E090935C103D
:102F100080935B108091CA109091CB10009711F4B0
:102F20000C944A0701979093CB108093CA10E091BC
:102F3000EA0C81E08E0F8093EA0CF0E0EE0FFF1FA9
:102F4000EE0FFF1FE651F74F8091D7109091D810E8
:102F5000A091D910B091DA1080839183A283B383BA
:102F60008091D7108F778093D71080916A109091BD
:102F70006B10019790936B1080936A10892B09F462
:102F80000EC41092DC101092DB1082E08093E310EC
:102F900081E094E090935C1080935B108091E1104D
:102FA0009091E2106091DF107091E010681B790B36
:102FB0007093E9106093E810A091E3102A2F30E09D
:102FC0006217730710F00C948F2A6115710511F4C4
:102FD0000C948024E091DD10F091DE1040E050E090
:102FE00020E0E80FF91F80E090E0A150EF01C40F4E
:102FF000D51F3881EC01C552DF4E39878A2F821BDD
:103000008093E3102F5F822F90E0AC018617970723
:1030100068F386EA91E09093DC108093DB10809156
:10302000A708882311F40C940A098091A8089091AC
:10303000A9088F59944011F40C949F2E8FE994E0C5
:103040009093A9088093A808DC018091A30890912F
:10305000A40840919F085091A0086091A108709128
:10306000A208480F591F611D711D40939F0850937E
:10307000A0086093A1087093A2081092A7089093EB
:10308000E0108093DF10B093DE10A093DD1040912C
:10309000E3104423A9F08091E8109091E910FC011D
:1030A000EC51FF4E9C01265F3F4F8FEF840F280F9E
:1030B000311D25523F4E8D918193E217F307D9F7C9
:1030C00084EE90E19093EB108093EA10842F90E0CF
:1030D0009093E2108093E110E4EEF0E18FEF9FEF28
:1030E0009093DC108093DB108091D610882311F42C
:1030F0000C94DD24A081B1812091CD103091CE10AF
:103100004091CF105091D0100E94DA86DC01CB01A3
:10311000CAE0B695A79597958795CA95D1F79093EC
:10312000DA108093D910909167109093D810809105
:103130006610882311F40C947022409182105091F3
:103140008310609184107091851077FF02C00C94F9
:10315000242D0091AA101091AB102091AC10309149
:10316000AD10400F511F621F731F40938210509388
:103170008310609384107093851091609093D810A1
:10318000813011F00C94702240918A1050918B1074
:1031900060918C1070918D1077FF02C00C940B2BF6
:1031A0000091B2101091B3102091B4103091B5106D
:1031B000400F511F621F731F40938A1050938B1052
:1031C00060938C1070938D109091D81094609093B0
:1031D000D810833039F140918E1050918F1060914A
:1031E00090107091911077FF02C00C94212B0091E8
:1031F000B6101091B7102091B8103091B910400F4F
:10320000511F621F731F40938E1050938F10609355
:103210009010709391109091D81098609093D8105E
:10322000843029F18091921090919310A091941084
:10323000B0919510B7FF02C00C945D2C4091BA106C
:103240005091BB106091BC107091BD10840F951F00
:10325000A61FB71F8093921090939310A093941081
:10326000B09395108091D81080618093D8108EE033
:1032700094E090935C1080935B108091CA109091C1
:10328000CB10009711F40C945D2401979093CB1010
:103290008093CA10E091EA0C81E08E0F8093EA0CD3
:1032A000F0E0EE0FFF1FEE0FFF1FE651F74F80918A
:1032B000D7109091D810A091D910B091DA108083D6
:1032C0009183A283B38351CE8091C2109091C31099
:1032D000A091C410B091C510892B8A2B8B2B09F4B7
:1032E000E8C18091D71083FF03C080648093D7101A
:1032F00080916810909169109093DA108093D910A2
:10330000909167109093D81080916610882309F4EB
:1033100059C7409182105091831060918410709130
:10332000851077FF02C00C94732C0091AA101091A5
:10333000AB102091AC103091AD10400F511F621FA7
:10334000731F409382105093831060938410709386
:10335000851091609093D810813009F033C7409167
:103360008A1050918B1060918C1070918D1077FFA6
:1033700002C00C94002A0091B2101091B310209159
:10338000B4103091B510400F511F621F731F40934E
:103390008A1050938B1060938C1070938D109091C5
:1033A000D81094609093D810833039F140918E10EA
:1033B00050918F10609190107091911077FF02C022
:1033C0000C94162A0091B6101091B7102091B810E5
:1033D0003091B910400F511F621F731F40938E1020
:1033E00050938F1060939010709391109091D8101B
:1033F00098609093D810843029F180919210909128
:103400009310A0919410B0919510B7FF02C00C9446
:10341000D12B4091BA105091BB106091BC107091AB
:10342000BD10840F951FA61FB71F80939210909315
:103430009310A0939410B09395108091D810806150
:103440008093D81081EA93E090935C1080935B1096
:103450008091CA109091CB10009711F40C940D2418
:1034600001979093CB108093CA10E091EA0C81E011
:103470008E0F8093EA0CF0E0EE0FFF1FEE0FFF1FA0
:10348000E651F74F8091D7109091D810A091D910A4
:10349000B091DA1080839183A283B3838091D71097
:1034A0008F778093D7104091C2105091C3106091D4
:1034B000C4107091C51041505109610971094093C0
:1034C000C2105093C3106093C4107093C510452B65
:1034D000462B472B09F4EAC0909167109093D810BF
:1034E00080916610882311F40C945325409182102A
:1034F00050918310609184107091851077FF02C005
:103500000C94ED2D0091AA101091AB102091AC10ED
:103510003091AD10400F511F621F731F40938210F6
:1035200050938310609384107093851091609093F2
:10353000D810813011F00C94532540918A1050918D
:103540008B1060918C1070918D1077FF02C00C94DD
:10355000AB2D0091B2101091B3102091B4103091A6
:10356000B510400F511F621F731F40938A10509374
:103570008B1060938C1070938D109091D810946084
:103580009093D810833039F140918E1050918F1064
:10359000609190107091911077FF02C00C94952D5E
:1035A0000091B6101091B7102091B8103091B91059
:1035B000400F511F621F731F40938E1050938F1046
:1035C00060939010709391109091D81098609093A0
:1035D000D810843029F18091921090919310A0918D
:1035E0009410B0919510B7FF02C00C94C12D40917A
:1035F000BA105091BB106091BC107091BD10840F37
:10360000951FA61FB71F8093921090939310A093BD
:103610009410B09395108091D81080618093D81049
:103620008AEA93E090935C1080935B108091CA10BB
:103630009091CB10009711F40C944A250197909328
:10364000CB108093CA10E091EA0C81E08E0F80933A
:10365000EA0CF0E0EE0FFF1FEE0FFF1FE651F74FF1
:103660008091D7109091D810A091D910B091DA1014
:1036700080839183A283B3838091C2109091C31001
:10368000A091C410B091C5100197A109B109809310
:10369000C2109093C310A093C410B093C510892B8F
:1036A0008A2B8B2B09F018CF8091D7108F7B8093BA
:1036B000D71080916C1090916D10892B09F4E1CB9B
:1036C0008091D7108F7B8093D7101092DC101092CE
:1036D000DB1081E08093E3108CEB93E090935C101F
:1036E00080935B100E94DC5A81110C940A0980912E
:1036F000D610E091EA10F091EB10882311F40C94AD
:10370000BA23A0812091CD103091CE104091CF10DE
:103710005091D010B0E00E94DA86DC01CB014AE083
:10372000B695A795979587954A95D1F79093DA1016
:103730008093D9100E94115C89EC93E090935C1007
:1037400080935B108091CA109091CB10009711F478
:103750000C944A0701979093CB108093CA10E09184
:10376000EA0C81E08E0F8093EA0CF0E0EE0FFF1F71
:10377000EE0FFF1FE651F74F8091D7109091D810B0
:10378000A091D910B091DA1080839183A283B38382
:103790008091D7108F778093D7100C945806809122
:1037A0005D1090915E1092FF02C00C94F50D0C9488
:1037B000FA0D8091641090916510892B09F484CDE5
:1037C0008091D7108F7B8093D7101092DC101092CD
:1037D000DB1081E08093E31084E693E090935C102B
:1037E00080935B100E94DC5A81110C940A0980912D
:1037F000D610E091EA10F091EB10882311F40C94AC
:103800001624A0812091CD103091CE104091CF1080
:103810005091D010B0E00E94DA86DC01CB01CAE002
:10382000B695A79597958795CA95D1F79093DA1095
:103830008093D910909167109093D8108091661062
:10384000882309F43EC44091821050918310609106
:1038500084107091851077FF02C00C94052C0091A4
:10386000AA101091AB102091AC103091AD10400F08
:10387000511F621F731F40938210509383106093F7
:1038800084107093851091609093D810813009F066
:1038900018C440918A1050918B1060918C107091D7
:1038A0008D1077FF02C00C94BE290091B2101091C8
:1038B000B3102091B4103091B510400F511F621F0A
:1038C000731F40938A1050938B1060938C107093E9
:1038D0008D109091D81094609093D810833039F166
:1038E00040918E1050918F106091901070919110B6
:1038F00077FF02C00C94D4290091B6101091B71034
:103900002091B8103091B910400F511F621F731FE2
:1039100040938E1050938F1060939010709391107D
:103920009091D81098609093D810843029F18091AC
:10393000921090919310A0919410B0919510B7FFB0
:1039400002C00C94BB2B4091BA105091BB106091F7
:10395000BC107091BD10840F951FA61FB71F8093D8
:10396000921090939310A0939410B093951080911F
:10397000D81080618093D81081E793E090935C1019
:1039800080935B108091CA109091CB10009711F436
:103990000C944A0701979093CB108093CA10E09142
:1039A000EA0C81E08E0F8093EA0CF0E0EE0FFF1F2F
:1039B000EE0FFF1FE651F74F8091D7109091D8106E
:1039C000A091D910B091DA1080839183A283B38340
:1039D0008091D7108F778093D7100C949A0F8538E9
:1039E000E2E09E0709F4CAC28938924009F040CA51
:1039F0008091DB109091DC10863AF1E09F0711F482
:103A00000C949512873B21E0920709F424C5892B79
:103A100011F40C94142FE091EA10F091EB100C9437
:103A2000F412883AE2E09E0709F48FC28E3F92407A
:103A300009F01ECA8091DB109091DC10863AE1E01B
:103A40009E0709F45DC9873BF1E09F0709F4ECC2CA
:103A5000892B09F414C9E091EA10F091EB10AFC979
:103A60008C3BE3E09E0709F43DCE893C934009F48A
:103A700069CEFEC98E30F4E09F0709F4FECB833295
:103A8000944009F0F5C98091EA0C9091EB0C891BE8
:103A90008095282F30E03093CB102093CA108823D4
:103AA00011F40C940A091092DC101092DB1082E0E1
:103AB0008093E31087E294E090935C1080935B1016
:103AC0000E94DC5A81110C940A09E091EA10F091ED
:103AD000EB108081918180935D1090935E1087FD43
:103AE000BFC78091D7108F7B8093D7101092DC10C6
:103AF0001092DB1082E08093E3108BE394E09093CC
:103B00005C1080935B100C94DB0B853AF4E09F070C
:103B100009F4A8C1883A944011F40C94B30DA8C9D3
:103B2000803E24E0920709F4E1C0873F944009F009
:103B30009FC98091DB109091DC10863A21E09207BA
:103B400011F40C94EB26873BE1E09E0711F40C94F2
:103B50005227892B11F40C94AC26E091EA10F091D5
:103B6000EB108FEF9FEF9093DC108093DB10D181EF
:103B7000C081D1110C94662D10924D1010924E10F0
:103B800010924F1010925010C63408F4C6E46C2FF7
:103B900070E084E00E94E64D0C94FA0D86EA91E014
:103BA0009093DC108093DB108091A708882311F498
:103BB0000C940A098091A8089091A9088F59944003
:103BC00011F40C94CA2E8FE994E09093A908809385
:103BD000A808DC018091A3089091A40840919F0857
:103BE0005091A0086091A1087091A208480F591F38
:103BF000611D711D40939F085093A0086093A10818
:103C00007093A2081092A7089093E0108093DF10A1
:103C1000B093DE10A093DD104091E3104423A9F08F
:103C20008091E8109091E910FC01EC51FF4E9C014D
:103C3000265F3F4F8FEF840F280F311D25523F4ED7
:103C40008D918193E217F307D9F784EE90E1909379
:103C5000EB108093EA10842F90E09093E210809311
:103C6000E110E4EEF0E18FEF9FEF9093DC10809392
:103C7000DB108091D610882309F49BC7A081B18105
:103C80002091CD103091CE104091CF105091D01096
:103C90000E94DA86DC01CB012AE0B695A7959795BC
:103CA00087952A95D1F79093DA108093D9101092C6
:103CB000DC101092DB1081E08093E3108DED94E036
:103CC00090935C1080935B100E94DC5A81110C94DD
:103CD0000A09E091EA10F091EB1080818093D810EE
:103CE00080EE94E090935C1080935B108091CA10FA
:103CF0009091CB10009709F4AAC501979093CB102F
:103D00008093CA10E091EA0C81E08E0F8093EA0C58
:103D1000F0E0EE0FFF1FEE0FFF1FE651F74F80910F
:103D2000D7109091D810A091D910B091DA1080835B
:103D30009183A283B3838091C6109091C71001979D
:103D40009093C7108093C610892B09F453C010922A
:103D5000DC101092DB1082E08093E31081ED94E0A0
:103D600090935C1080935B108091E1109091E21031
:103D70006091DF107091E010681B790B7093E9106F
:103D80006093E810A091E3102A2F30E062177307C8
:103D900010F00C94E72B6115710509F4BAC6E09197
:103DA000DD10F091DE1040E050E020E0E80FF91F58
:103DB00080E090E0A150EF01C40FD51F3881EC01E5
:103DC000C552DF4E39878A2F821B8093E3102F5F05
:103DD000822F90E0AC018617970768F3DFCE883515
:103DE000F3E09F0711F40C949D0B8436934009F483
:103DF000F9CC3EC880915D1090915E100C94F30D4B
:103E00001092DC101092DB1083E08093E31080E0CE
:103E100095E090935C1080935B100E94DC5A8111B6
:103E20000C940A09E091EA10F091EB106181728123
:103E300040E080810E94455410925C1010925B100B
:103E400081E00C940B091092DC101092DB1081E0E1
:103E50008093E31080E492E090935C1080935B1079
:103E60000C9462108091DB109091DC10863AE1E0B6
:103E70009E0711F40C94480D873BF1E09F0709F46D
:103E80005CC1892B11F40C94070DE091EA10F091BC
:103E9000EB100C94A40D8091DB109091DC10863A0D
:103EA00021E0920709F4BBC8873BE1E09E0709F4D3
:103EB0002DC5892B09F472C8E091EA10F091EB103E
:103EC0000DC98091DB109091DC10863AF1E09F07DC
:103ED00011F40C947628873B21E0920711F40C949E
:103EE0009C27892B11F40C943728E091EA10F0916B
:103EF000EB108FEF9FEF9093DC108093DB106181CC
:103F00007281438180810E94455410925C1010920E
:103F10005B1081E00C940B098091DB109091DC1018
:103F2000863AF1E09F0711F40C944514873B21E099
:103F3000920709F4A6C1892B11F40C94202FE0916B
:103F4000EA10F091EB100C94A2148091DB10909188
:103F5000DC10863A21E0920711F40C942615873B79
:103F6000E1E09E0709F414C4892B11F40C94E514C4
:103F7000E091EA10F091EB100C9485158091DB1024
:103F80009091DC10863AE1E09E0711F40C94DC116C
:103F9000873BF1E09F0709F4FFC2892B11F40C94D1
:103FA0001A2FE091EA10F091EB108091DF109091C0
:103FB000E0100C943F128091DB109091DC10863A57
:103FC000F1E09F0709F4F0CD873B21E0920709F467
:103FD000A6C5892B09F4C8CEE091EA10F091EB1048
:103FE00042CE8091DB109091DC10863A21E092075E
:103FF00011F40C942311873BE1E09E0709F46DC393
:10400000892B11F40C94E210E091EA10F091EB107E
:104010008091DF109091E0100C94861187EB91E075
:104020009093DC108093DB108091A708882311F413
:104030000C940A098091A8089091A9088F5994407E
:1040400011F40C94DB2D8FE994E09093A9088093F0
:10405000A808FC012091A3083091A40880919F0832
:104060009091A008A091A108B091A208820F931F7F
:10407000A11DB11D80939F089093A008A093A10853
:10408000B093A2081092A7083093E0102093DF109D
:10409000F093DE10E093DD10F093EB10E093EA1064
:1040A0008091E31090E09093E2108093E1100C94E3
:1040B000DF168081918190936910809368100C9431
:1040C000041740918610509187106091881070916C
:1040D000891077FF02C00C94EA290091AE1010916C
:1040E000AF102091B0103091B110400F511F621FDE
:1040F000731F4093861050938710609388107093BD
:1041000089109091D81092609093D810823009F065
:10411000C0CBE6CB8091D61081110C9422160C9462
:104120003216B093DA10A093D9100C94FA0C87EBE6
:1041300091E09093DC108093DB108091A708882396
:1041400011F40C940A098091A8089091A9088F593C
:10415000944011F40C940B2E8FE994E09093A908ED
:104160008093A808FC012091A3083091A4088091B5
:104170009F089091A008A091A108B091A208820F79
:10418000931FA11DB11D80939F089093A008A09339
:10419000A108B093A2081092A7083093E0102093D2
:1041A000DF10F093DE10E093DD10F093EB10E0935E
:1041B000EA108091E31090E09093E2108093E11078
:1041C0000C94A40D40918610509187106091881036
:1041D0007091891077FF02C00C942C2A0091AE10C8
:1041E0001091AF102091B0103091B110400F511FBD
:1041F000621F731F4093861050938710609388103E
:10420000709389109091D81092609093D81082305A
:1042100009F0A5C8CBC8232B11F40C94F30D97CD4E
:10422000409186105091871060918810709189108C
:1042300077FF02C00C944D2A0091AE101091AF1080
:104240002091B0103091B110400F511F621F731FA9
:104250004093861050938710609388107093891054
:104260009091D81092609093D810823011F00C94F5
:104270000E0A0C94350A87EB91E09093DC10809342
:10428000DB108091A708882311F40C940A0980910F
:10429000A8089091A9088F59944011F40C94382ED5
:1042A0008FE994E09093A9088093A808FC012091DD
:1042B000A3083091A40880919F089091A008A09134
:1042C000A108B091A208820F931FA11DB11D809378
:1042D0009F089093A008A093A108B093A208109201
:1042E000A7083093E0102093DF10F093DE10E093E6
:1042F000DD10F093EB10E093EA108091E31090E072
:104300009093E2108093E1100C94A21487EB91E05B
:104310009093DC108093DB108091A708882311F420
:104320000C940A098091A8089091A9088F5994408B
:1043300011F40C941D2E8FE994E09093A9088093BA
:10434000A808FC018091A3089091A40840919F08BF
:104350005091A0086091A1087091A208480F591FC0
:10436000611D711D40939F085093A0086093A108A0
:104370007093A2081092A7089093E0108093DF102A
:10438000F093DE10E093DD10F093EB10E093EA1071
:104390002091E31030E03093E2102093E1100C9470
:1043A000EF1387EB91E09093DC108093DB1080910A
:1043B000A708882311F40C940A098091A808909109
:1043C000A9088F59944011F40C94262E8FE994E09B
:1043D0009093A9088093A808FC018091A30890916C
:1043E000A40840919F085091A0086091A108709185
:1043F000A208480F591F611D711D40939F085093DB
:10440000A0086093A1087093A2081092A708909347
:10441000E0108093DF10F093DE10E093DD10F09356
:10442000EB10E093EA102091E31030E03093E210BB
:104430002093E1100C949E078AEC90E10E94CC59E5
:1044400081110C940A090C94C00D87EB91E09093B4
:10445000DC108093DB108091A708882311F40C9462
:104460000A098091A8089091A9088F59944011F4E5
:104470000C94412E8FE994E09093A9088093A808AA
:10448000FC012091A3083091A40880919F0890918D
:10449000A008A091A108B091A208820F931FA11DAE
:1044A000B11D80939F089093A008A093A108B0939A
:1044B000A2081092A7083093E0102093DF10F09329
:1044C000DE10E093DD10F093EB10E093EA108091A2
:1044D000E31090E09093E2108093E1100C94F412BA
:1044E00040918610509187106091881070918910CA
:1044F00077FF02C00C94B32A0091AE101091AF1058
:104500002091B0103091B110400F511F621F731FE6
:104510004093861050938710609388107093891091
:104520009091D81092609093D810823011F00C9432
:10453000C4180C94EB18409186105091871060912C
:1045400088107091891077FF02C00C94F52A0091B1
:10455000AE101091AF102091B0103091B110400FFB
:10456000511F621F731F40938610509387106093F2
:104570008810709389109091D81092609093D81001
:10458000823011F00C94CA060C94F10687EB91E08E
:104590009093DC108093DB108091A708882311F49E
:1045A0000C940A098091A8089091A9088F59944009
:1045B00011F40C94772E8FE994E09093A9088093DE
:1045C000A808FC018091A3089091A40840919F083D
:1045D0005091A0086091A1087091A208480F591F3E
:1045E000611D711D40939F085093A0086093A1081E
:1045F0007093A2081092A7089093E0108093DF10A8
:10460000F093DE10E093DD10F093EB10E093EA10EE
:104610002091E31030E03093E2102093E1100C94ED
:104620003F124091861050918710609188107091D0
:10463000891077FF02C00C94632B0091AE1010918B
:10464000AF102091B0103091B110400F511F621F78
:10465000731F409386105093871060938810709357
:1046600089109091D81092609093D810823011F0F8
:104670000C94FB0E0C94220F4091861050918710E1
:10468000609188107091891077FF02C00C94792B8B
:104690000091AE101091AF102091B0103091B11078
:1046A000400F511F621F731F409386105093871055
:1046B00060938810709389109091D81092609093B5
:1046C000D810823011F00C94240B0C944B0B87EB18
:1046D00091E09093DC108093DB108091A7088823F1
:1046E00011F40C940A098091A8089091A9088F5997
:1046F000944011F40C94652E8FE994E09093A908EE
:104700008093A808FC018091A3089091A40840918F
:104710009F085091A0086091A1087091A208480FCD
:10472000591F611D711D40939F085093A00860930D
:10473000A1087093A2081092A7089093E0108093AC
:10474000DF10F093DE10E093DD10F093EB10E093B8
:10475000EA102091E31030E03093E2102093E11052
:104760000C948611808191819093DA108093D910F6
:104770000C948217808190E09093DA108093D91086
:104780000C949A1B87EB91E09093DC108093DB10E4
:104790008091A708882311F40C940A098091A80835
:1047A0009091A9088F59944011F40C94892E8FE9A7
:1047B00094E09093A9088093A808FC012091A30895
:1047C0003091A40880919F089091A008A091A10821
:1047D000B091A208820F931FA11DB11D80939F0865
:1047E0009093A008A093A108B093A2081092A708E4
:1047F0003093E0102093DF10F093DE10E093DD1093
:10480000F093EB10E093EA108091E31090E0909326
:10481000E2108093E1100C9485158AEC90E10E94DF
:10482000CC5981110C940A090C94351A808190E0BE
:104830009093DA108093D9100C941A1C8AEC90E1B2
:104840000E94CC5981110C940A090C9493088AECAB
:1048500090E10E94CC5981110C940A0953CA8AEC48
:1048600090E10E94CC5981110C940A090C94940A8D
:10487000882309F423C58091050E9091060EA0E0CF
:10488000B0E08093CD109093CE10A093CF10B09352
:10489000D01081E08093D610809144109091451003
:1048A0008E3F2FEF920711F40C94072E01969093F0
:1048B0004510809344100C94B20C8AEC90E10E9455
:1048C000CC5981110C940A090C944A198AEC90E194
:1048D0000E94CC5981110C940A090C94810F8AEC26
:1048E00090E10E94CC5981110C940A090C94AA0BF6
:1048F000808191819093DA108093D9100C94DD0916
:1049000087EB91E09093DC108093DB108091A708F7
:10491000882311F40C940A098091A8089091A908A1
:104920008F59944011F40C94BA2E8FE994E090932F
:10493000A9088093A808FC012091A3083091A4083D
:1049400080919F089091A008A091A108B091A20821
:10495000820F931FA11DB11D80939F089093A00803
:10496000A093A108B093A2081092A7083093E0107A
:104970002093DF10F093DE10E093DD10F093EB1046
:10498000E093EA108091E31090E09093E21080931E
:10499000E1100C946E18613109F45CC3673711F4AF
:1049A0000C94FA0D6D3011F00C947C1083E294E0BD
:1049B00090935C1080935B1066C880819181909386
:1049C000DA108093D9100C94931887EB91E09093B0
:1049D000DC108093DB108091A708882311F40C94DD
:1049E0000A098091A8089091A9088F59944011F460
:1049F0000C94A82E8FE994E09093A9088093A808BE
:104A0000FC012091A3083091A40880919F08909107
:104A1000A008A091A108B091A208820F931FA11D28
:104A2000B11D80939F089093A008A093A108B09314
:104A3000A2081092A7083093E0102093DF10F093A3
:104A4000DE10E093DD10F093EB10E093EA1080911C
:104A5000E31090E09093E2108093E1100C94A50E87
:104A60008F7941C8808190E09093DA108093D910BB
:104A70000C949906808190E09093DA108093D9107D
:104A80000C94CA0E808191819093DA108093D91092
:104A90000C94F30A8AEC90E10E94CC5981110C9499
:104AA0000A090C94231B4091861050918710609145
:104AB00088107091891077FF02C00C947F2D0091AF
:104AC000AE101091AF102091B0103091B110400F86
:104AD000511F621F731F409386105093871060937D
:104AE0008810709389109091D81092609093D8108C
:104AF000823011F00C949D1A0C94C41A880F991FDF
:104B0000FC01E75BF04F2081318140E050E00C94E4
:104B1000490C87EB91E09093DC108093DB1080913F
:104B2000A708882311F40C940A098091A808909191
:104B3000A9088F59944011F40C94D32E8FE994E076
:104B40009093A9088093A808FC012091A3083091B4
:104B5000A40880919F089091A008A091A108B0910D
:104B6000A208820F931FA11DB11D80939F089093EF
:104B7000A008A093A108B093A2081092A7083093B0
:104B8000E0102093DF10F093DE10E093DD10F0933F
:104B9000EB10E093EA108091E31090E09093E21024
:104BA0008093E11060C8B093DA10A093D9100C94F0
:104BB000F808808191819093DA108093D91077C89A
:104BC000E091DD10F091DE10EA0FFB1FF093EB1087
:104BD000E093EA10A80FB91FB093E210A093E11080
:104BE0000C94DF161092DC101092DB1082E08093A0
:104BF000E31080E195E090935C1080935B108091CE
:104C0000E1109091E2106091DF107091E010681B4C
:104C1000790B7093E9106093E810A091E3102A2FAC
:104C200030E06217730708F0C3C66115710509F417
:104C3000C7C1E091DD10F091DE1040E050E020E0CF
:104C4000E80FF91F80E090E0A150EF01C40FD51FDD
:104C50003881EC01C552DF4E39878A2F821B809341
:104C6000E3102F5F822F90E0AC018617970768F35F
:104C700086EA91E09093DC108093DB108091A70886
:104C8000882311F40C940A098091A8089091A9082E
:104C90008F59944011F40C94DC2E8FE994E090939A
:104CA000A9088093A808DC018091A3089091A4082A
:104CB00040919F085091A0086091A1087091A208AE
:104CC000480F591F611D711D40939F085093A00804
:104CD0006093A1087093A2081092A7089093E01027
:104CE0008093DF10B093DE10A093DD104091E310AD
:104CF0004423A9F08091E8109091E910FC01EC5157
:104D0000FF4E9C01265F3F4F8FEF840F280F311D10
:104D100025523F4E8D918193E217F307D9F784EE28
:104D200090E19093EB108093EA10842F90E09093A1
:104D3000E2108093E110E4EEF0E10C94310E109259
:104D4000DC101092DB1082E08093E31087EF94E098
:104D500090935C1080935B10A091E110B091E210F1
:104D60006091DF107091E0106A1B7B0B7093E9106B
:104D70006093E8105091E310852F90E06817790751
:104D800008F028C66115710509F486C0C091DD10D0
:104D9000D091DE1020E030E040E080E090E0515023
:104DA0002C0F3D1FF901EA0FFB1F2081FC01E5528A
:104DB000FF4E2187852F841B8093E3104F5F842F44
:104DC00090E09C018617970758F386EA91E090934C
:104DD000DC108093DB108091A708882311F40C94D9
:104DE0000A098091A8089091A9088F59944011F45C
:104DF0000C94FD2E8FE994E09093A9088093A80865
:104E0000DC018091A3089091A40840919F085091E3
:104E1000A0086091A1087091A208480F591F611D58
:104E2000711D40939F085093A0086093A108709350
:104E3000A2081092A7089093E0108093DF10B0931F
:104E4000DE10A093DD104091E3104423A9F080917F
:104E5000E8109091E910FC01EC51FF4E9C01265F97
:104E60003F4F8FEF840F280F311D25523F4E8D91FC
:104E70008193E217F307D9F784EE90E19093EB105A
:104E80008093EA10842F90E09093E2108093E110D9
:104E9000E4EEF0E10C94B11D87EB91E09093DC100F
:104EA0008093DB108091A708882311F40C940A09E1
:104EB0008091A8089091A9088F59944009F48DC752
:104EC0008FE994E09093A9088093A808FC012091B1
:104ED000A3083091A40880919F089091A008A09108
:104EE000A108B091A208820F931FA11DB11D80934C
:104EF0009F089093A008A093A108B093A2081092D5
:104F0000A7083093E0102093DF10F093DE10E093B9
:104F1000DD10F093EB10E093EA108091E31090E045
:104F20009093E2108093E1100C94B11D87EB91E017
:104F30009093DC108093DB108091A708882311F4F4
:104F40000C940A098091A8089091A9088F5994405F
:104F500009F43BC78FE994E09093A9088093A808CF
:104F6000FC012091A3083091A40880919F089091A2
:104F7000A008A091A108B091A208820F931FA11DC3
:104F8000B11D80939F089093A008A093A108B093AF
:104F9000A2081092A7083093E0102093DF10F0933E
:104FA000DE10E093DD10F093EB10E093EA108091B7
:104FB000E31090E09093E2108093E1100C94791F3D
:104FC00087EB91E09093DC108093DB108091A70831
:104FD000882311F40C940A098091A8089091A908DB
:104FE0008F59944009F401C78FE994E09093A90880
:104FF0008093A808FC012091A3083091A408809117
:105000009F089091A008A091A108B091A208820FDA
:10501000931FA11DB11D80939F089093A008A0939A
:10502000A108B093A2081092A7083093E010209333
:10503000DF10F093DE10E093DD10F093EB10E093BF
:10504000EA108091E31090E09093E2108093E110D9
:105050000C94310E1092DC101092DB1084E08093DF
:10506000E31082E295E090935C1080935B10809156
:10507000E1109091E2106091DF107091E010681BD8
:10508000790B7093E9106093E810A091E3102A2F38
:1050900030E06217730708F0C5C46115710509F4A3
:1050A00045CFE091DD10F091DE1040E050E020E0CF
:1050B000E80FF91F80E090E0A150EF01C40FD51F69
:1050C0003881EC01C552DF4E39878A2F821B8093CD
:1050D000E3102F5F822F90E0AC018617970768F3EB
:1050E00086EA91E09093DC108093DB108091A70812
:1050F000882311F40C940A098091A8089091A908BA
:105100008F59944009F482C68FE994E09093A908DE
:105110008093A808DC018091A3089091A408409195
:105120009F085091A0086091A1087091A208480FB3
:10513000591F611D711D40939F085093A0086093F3
:10514000A1087093A2081092A7089093E010809392
:10515000DF10B093DE10A093DD104091E3104423E4
:10516000A9F08091E8109091E910FC01EC51FF4EFC
:105170009C01265F3F4F8FEF840F280F311D255272
:105180003F4E8D918193E217F307D9F784EE90E1BA
:105190009093EB108093EA10842F90E09093E210AC
:1051A0008093E110E4EEF0E10C94791FE091DD10C2
:1051B000F091DE10E80FF91FF093EB10E093EA1086
:1051C000820F931F9093E2108093E1100C94A40D32
:1051D0002091490F30914A0F40E050E00C94490C67
:1051E000E091DD10F091DE10E60FF71FF093EB1069
:1051F000E093EA10680F791F7093E2106093E1105A
:105200000C94A2148091040E882309F482C3809127
:10521000050E9091060EA0E0B0E08093CD10909323
:10522000CE10A093CF10B093D01081E08093D61011
:1052300080914410909145108E3F2FEF920709F412
:10524000A2C5019690934510809344100C942216A9
:10525000E091DD10F091DE10E60FF71FF093EB10F8
:10526000E093EA10620F731F7093E2106093E110F5
:105270000C94EF13E091DD10F091DE10E60FF71FB4
:10528000F093EB10E093EA10620F731F7093E2103B
:105290006093E1100C949E07E091DD10F091DE1018
:1052A000E60FF71FF093EB10E093EA10680F791FF9
:1052B0007093E2106093E1100C94F412809133101B
:1052C000882309F457C38091341090913510A09130
:1052D0003610B09137108093CD109093CE10A093DC
:1052E000CF10B093D01021E02093D6100C94BA0CBC
:1052F000E091DD10F091DE10E60FF71FF093EB1058
:10530000E093EA10620F731F7093E2106093E11054
:105310000C943F1263E171E088EF92E00E946442D6
:105320000C943216E091DD10F091DE10E60FF71FBD
:10533000F093EB10E093EA10620F731F7093E2108A
:105340006093E1100C94861163E171E081E994E0CF
:105350000E9464420C94C20CE091DD10F091DE10CA
:10536000E80FF91FF093EB10E093EA10820F931F00
:105370009093E2108093E1100C94851500919E109B
:1053800010919F102091A0103091A110400F511F3B
:10539000621F731F40938A1050938B1060938C1080
:1053A00070938D100C946E1C0091A2101091A3109C
:1053B0002091A4103091A510400F511F621F731F40
:1053C00040938E1050938F106093901070939110B3
:1053D0000C94951C00919A1010919B1020919C1098
:1053E00030919D10400F511F621F731F4093861014
:1053F0005093871060938810709389100C948620C6
:1054000000919E1010919F102091A0103091A1103A
:10541000400F511F621F731F40938A1050938B10CF
:1054200060938C1070938D100C94D4190091A2107D
:105430001091A3102091A4103091A510400F511F7E
:10544000621F731F40938E1050938F1060939010C3
:10545000709391100C94FB1900919A1010919B106D
:1054600020919C1030919D10400F511F621F731F9F
:105470004093861050938710609388107093891022
:105480000C940721220F331FF901E75BF04F2081B5
:10549000318140E050E00C94C11500919A101091B8
:1054A0009B1020919C1030919D10400F511F621F46
:1054B000731F4093861050938710609388107093E9
:1054C00089100C94352100919E1010919F1020910D
:1054D000A0103091A110400F511F621F731F409305
:1054E0008A1050938B1060938C1070938D100C94D5
:1054F000330A0091A2101091A3102091A4103091B2
:10550000A510400F511F621F731F40938E105093C0
:105510008F1060939010709391100C945A0AE09140
:10552000DD10F091DE10E80FF91FF093EB10E0931F
:10553000EA10820F931F9093E2108093E1100C9475
:105540006E18E091DD10F091DE10EA0FFB1FF09372
:10555000EB10E093EA10A80FB91FB093E210A093EC
:10556000E1100C94A50E00919A1010919B102091BF
:105570009C1030919D10400F511F621F731F40936C
:1055800086105093871060938810709389100C9444
:10559000952200919E1010919F102091A0103091A3
:1055A000A110400F511F621F731F40938A10509328
:1055B0008B1060938C1070938D100C94EF060091FB
:1055C000A2101091A3102091A4103091A510400FAB
:1055D000511F621F731F40938E1050938F10609362
:1055E0009010709391100C94160700919A101091DE
:1055F0009B1020919C1030919D10400F511F621FF5
:10560000731F409386105093871060938810709397
:1056100089100C94C02200919E1010919F1020912F
:10562000A0103091A110400F511F621F731F4093B3
:105630008A1050938B1060938C1070938D100C9483
:10564000E9180091A2101091A3102091A41030919C
:10565000A510400F511F621F731F40938E1050936F
:105660008F1060939010709391100C94101900910A
:105670009E1010919F102091A0103091A110400F0A
:10568000511F621F731F40938A1050938B106093B9
:105690008C1070938D100C94490B0091A2101091F6
:1056A000A3102091A4103091A510400F511F621F2C
:1056B000731F40938E1050938F10609390107093CF
:1056C00091100C94700B00919A1010919B102091E6
:1056D0009C1030919D10400F511F621F731F40930B
:1056E00086105093871060938810709389100C94E3
:1056F000362300919A1010919B1020919C103091AC
:105700009D10400F511F621F731F409386105093CE
:10571000871060938810709389100C946123009116
:105720009E1010919F102091A0103091A110400F59
:10573000511F621F731F40938A1050938B10609308
:105740008C1070938D100C94200F0091A21010916A
:10575000A3102091A4103091A510400F511F621F7B
:10576000731F40938E1050938F106093901070931E
:1057700091100C94470F4091A6105091A710609182
:10578000A8107091A910840F951FA61FB71F8093B2
:10579000921090939310A0939410B09395100C9442
:1057A000BC1C4091A6105091A7106091A810709158
:1057B000A910840F951FA61FB71F80939210909376
:1057C0009310A0939410B09395100C94221AE0912A
:1057D000DD10F091DE10E80FF91FF093EB10E0936D
:1057E000EA10820F931F9093E2108093E1100C94C3
:1057F000331E8FEF9FEF0C94AE0C2091490F309128
:105800004A0F40E050E00C94C115009196101091A1
:1058100097102091981030919910400F511F621FDE
:10582000731F409382105093831060938410709381
:1058300085100C94461C4091A6105091A7106091C1
:10584000A8107091A910840F951FA61FB71F8093F1
:10585000921090939310A0939410B09395100C9481
:10586000810A4091A6105091A7106091A8107091E4
:10587000A910840F951FA61FB71F809392109093B5
:105880009310A0939410B09395100C946E0F4091C8
:10589000A6105091A7106091A8107091A910840FC4
:1058A000951FA61FB71F8093921090939310A093FB
:1058B0009410B09395100C943D074091A610509110
:1058C000A7106091A8107091A910840F951FA61FB2
:1058D000B71F8093921090939310A0939410B0935D
:1058E00095100C94371900919610109197102091F3
:1058F000981030919910400F511F621F731F4093F1
:1059000082105093831060938410709385100C94D0
:10591000AC1980913310882311F40C948A20809163
:10592000341090913510A0913610B09137108093BB
:10593000CD109093CE10A093CF10B093D01021E053
:105940002093D6100C942A1600919610109197105F
:105950002091981030919910400F511F621F731FB2
:10596000409382105093831060938410709385103D
:105970000C940A0A8091D610882311F40C94C20C5E
:105980000C94B20C4091A6105091A7106091A810F1
:105990007091A910840F951FA61FB71F80939210B6
:1059A00090939310A0939410B09395100C94970B30
:1059B000E091DD10F091DE10E80FF91FF093EB108D
:1059C000E093EA10820F931F9093E2108093E1100E
:1059D0000C94310EE091DD10F091DE10EA0FFB1F08
:1059E000F093EB10E093EA10A80FB91FB093E21008
:1059F000A093E1100C94B11D009196101091971096
:105A00002091981030919910400F511F621F731F01
:105A1000409382105093831060938410709385108C
:105A20000C94C606E091DD10F091DE10E80FF91F2E
:105A3000F093EB10E093EA10820F931F9093E21023
:105A40008093E1100C94791F00919610109197109B
:105A50002091981030919910400F511F621F731FB1
:105A6000409382105093831060938410709385103C
:105A70000C94C018009196101091971020919810D6
:105A800030919910400F511F621F731F4093821075
:105A90005093831060938410709385100C94200BA6
:105AA00000919610109197102091981030919910B4
:105AB000400F511F621F731F409382105093831039
:105AC00060938410709385100C94F70E6FEF70E064
:105AD00084E00E94E64DC0934C100E948D4EDC0184
