:10000000CBC50000F3C50000F1C50000EFC500003E
:10001000EDC50000EBC50000E9C50000E7C5000024
:10002000E5C50000E3C50000E1C50000DFC5000034
:10003000DDC50000DBC50000D9C50000D7C5000044
:10004000D5C50000D3C500000C949D60CFC500004D
:100050000C945B5BCBC50000C9C50000C7C50000A0
:10006000C5C50000C3C50000C1C50000BFC5000074
:10007000BDC50000BBC50000B9C50000B7C5000084
:100080000C94A6590C94E356B1C500002812D41163
:10009000070B070B070B5E115111631435141F1466
:1000A0009813070B070B070B070B070B070B070B27
:1000B000070B070B070B070B070B90139812070B87
:1000C000070B070B8D124D127417A616070BD114D0
:1000D0009C14070B2A111F111111DE10C910C00F3B
:1000E0000C0F830EF90F070BCE0F9010800E710EC0
:1000F000070B070B6B0E070B070EF60D9E0D870DFA
:10010000520D4C0D690CA40B140D880B710B8A1148
:100110005A5C5E5C625C685C595C595C6E5C745CE9
:100120007A5C545CB05DB55DA65D9C5D625D625DB0
:10013000945D8C5D825D755D0000200023002600CB
:10014000290002020202020202020404040404045E
:100150000404030303030303030301010101010179
:10016000010101020408102040800102040810204F
:1001700040800102040810204080804020100804C4
:100180000201000000010200090A0000000004034F
:100190000807000000000000000000000000000050
:1001A0000000441F041D671B2A1A2B195718A21799
:1001B00006177B16001692152D15D1147C142E14DB
:1001C000E513A11362132613ED12B812851255120E
:1001D0002712FC11D211AA1184115F113B111911C0
:1001E000F810D910BA109C108010641049102F100C
:1001F0001510FC0FE40FCD0FB60FA00F8A0F750F6F
:10020000610F4C0F390F250F130F000FEE0EDD0E8F
:10021000CB0EBA0EAA0E990E890E7A0E6A0E5B0EDE
:100220004C0E3E0E2F0E210E130E060EF80DEB0D8A
:10023000DE0DD10DC50DB80DAC0DA00D940D880DC2
:100240007D0D710D660D5B0D500D450D3B0D300D97
:10025000260D1B0D110D070DFD0CF30CEA0CE00C27
:10026000D70CCD0CC40CBB0CB20CA90CA00C980C78
:100270008F0C860C7E0C760C6D0C650C5D0C550C91
:100280004D0C450C3D0C350C2E0C260C1F0C170C80
:10029000100C080C010CFA0BF30BEC0BE50BDE0B4E
:1002A000D70BD00BC90BC20BBC0BB50BAE0BA80BFD
:1002B000A10B9B0B950B8E0B880B820B7B0B750B8D
:1002C0006F0B690B630B5D0B570B510B4C0B460B04
:1002D000400B3A0B350B2F0B290B240B1E0B190B64
:1002E000130B0E0B080B030BFE0AF80AF30AEE0AB7
:1002F000E90AE40ADE0AD90AD40ACF0ACA0AC50AF8
:10030000C00ABB0AB60AB10AAD0AA80AA30A9E0A25
:10031000990A950A900A8B0A870A820A7E0A790A44
:10032000740A700A6B0A670A620A5E0A5A0A550A58
:10033000510A4C0A480A440A400A3B0A370A330A5F
:100340002F0A2A0A260A220A1E0A1A0A160A120A5C
:100350000E0A0A0A060A020AFE09FA09F609F20951
:10036000EE09EA09E609E209DE09DA09D709D30943
:10037000CF09CB09C809C409C009BC09B909B50925
:10038000B109AE09AA09A609A3099F099B09980901
:10039000940991098D098A09860983097F097C09D5
:1003A0007809750971096E096B09670964096009A3
:1003B0005D095A095609530950094C09490946096A
:1003C00042093F093C093909350932092F092C092D
:1003D0002909250922091F091C09190916091209E9
:1003E0000F090C090909060903090009FD08FA08A3
:1003F000F708F408F108ED08EA08E708E408E1085E
:10040000DE08DB08D908D608D308D008CD08CA080A
:10041000C708C408C108BE08BB08B808B508B308B7
:10042000B008AD08AA08A708A408A1089F089C085E
:1004300099089608930891088E088B088808860802
:10044000830880087D087B087808750872087008A2
:100450006D086A086808650862085F085D085A0840
:100460005708550852084F084D084A0848084508DB
:10047000420840083D083A08380835083308300873
:100480002E082B0828082608230821081E081C0807
:1004900019081708140811080F080C080A0807089B
:1004A000050802080008FD07FB07F807F607F30731
:1004B000F107EE07EC07EA07E707E507E207E007C1
:1004C000DD07DB07D807D607D407D107CF07CC074E
:1004D000CA07C707C507C307C007BE07BB07B907D9
:1004E000B707B407B207B007AD07AB07A807A60761
:1004F000A407A1079F079D079A07980796079307E8
:1005000091078F078C078A0788078507830781076C
:100510007E077C077A0778077507730771076E07F0
:100520006C076A0767076507630761075E075C0773
:100530005A0758075507530751074F074C074A07F3
:1005400048074607430741073F073D073A07380773
:100550003607340731072F072D072B0729072607F2
:100560002407220720071D071B0719071707150770
:10057000120710070E070C070A07070705070307EE
:100580000107FF06FC06FA06F806F606F406F20670
:10059000EF06ED06EB06E906E706E506E206E006ED
:1005A000DE06DC06DA06D806D506D306D106CF0667
:1005B000CD06CB06C806C606C406C206C006BE06E1
:1005C000BC06B906B706B506B306B106AF06AD065A
:1005D000AA06A806A606A406A206A0069E069C06D3
:1005E000990697069506930691068F068D068B064B
:1005F000880686068406820680067E067C067A06C3
:1006000077067506730671066F066D066B0669063A
:1006100066066406620660065E065C065A065806B2
:100620005606530651064F064D064B064906470629
:100630004506430640063E063C063A0638063606A0
:100640003406320630062D062B0629062706250617
:10065000230621061F061D061A061806160614068E
:10066000120610060E060C060A0607060506030605
:100670000106FF05FD05FB05F905F605F405F20584
:10068000F005EE05EC05EA05E805E505E305E105FD
:10069000DF05DD05DB05D905D705D405D205D00575
:1006A000CE05CC05CA05C805C605C305C105BF05ED
:1006B000BD05BB05B905B705B405B205B005AE0566
:1006C000AC05AA05A705A505A305A1059F059D05E0
:1006D0009B05980596059405920590058E058B055A
:1006E000890587058505830581057E057C057A05D5
:1006F00078057605730571056F056D056B05680551
:1007000066056405620560055D055B0559055705CD
:100710005505520550054E054C054905470545054B
:10072000430541053E053C053A05380535053305C9
:1007300031052F052C052A05280526052305210549
:100740001F051C051A0518051605130511050F05CB
:100750000C050A050805060503050105FF04FC0450
:10076000FA04F804F504F304F104EE04EC04EA04DA
:10077000E704E504E304E004DE04DB04D904D70461
:10078000D404D204D004CD04CB04C804C604C404E9
:10079000C104BF04BC04BA04B804B504B304B00473
:1007A000AE04AB04A904A604A404A1049F049D0400
:1007B0009A0498049504930490048E048B0489048D
:1007C0008604830481047E047C0479047704740421
:1007D00072046F046C046A046704650462045F04B5
:1007E0005D045A0458045504520450044D044A044C
:1007F00048044504420440043D043A0437043504E7
:1008000032042F042D042A042704240421041F0485
:100810001C0419041604130411040E040B04080428
:10082000050402040004FD03FA03F703F403F103D3
:10083000EE03EB03E803E503E203DF03DC03D90384
:10084000D603D303D003CD03CA03C703C403C10334
:10085000BE03BB03B703B403B103AE03AB03A803EA
:10086000A403A1039E039B039703940391038E03A8
:100870008A038703840380037D037903760373036C
:100880006F036C036803650361035E035A03570338
:1008900053034F034C034803440341033D0339030F
:1008A000360332032E032A03260323031F031B03ED
:1008B000170313030F030B0307030303FF02FB02DA
:1008C000F702F302EE02EA02E602E202DD02D902D8
:1008D000D502D002CC02C702C302BE02BA02B502E0
:1008E000B102AC02A702A3029E02990294028F02F7
:1008F0008A02850280027B02760271026C02660225
:1009000061025C02560251024B02460240023A0268
:1009100034022F02290223021D02160210020A02CB
:100920000402FD01F701F001E901E201DC01D5015A
:10093000CD01C601BF01B701B001A801A001980116
:1009400090018801800177016E0165015C0153010E
:100950004A01400136012C01220117010C0101015D
:10096000F500EA00DD00D100C400B600A9009A003D
:100970008B007C006C005B004900370023000F00F7
:10098000F9FF00002110422063308440A550C6606A
:10099000E770088129914AA16BB18CC1ADD1CEE13C
:1009A000EFF13112100273325222B5529442F772B3
:1009B000D662399318837BB35AA3BDD39CC3FFF38C
:1009C000DEE36224433420040114E664C774A444C3
:1009D00085546AA54BB528850995EEE5CFF5ACC5DC
:1009E0008DD55336722611163006D776F666955693
:1009F000B4465BB77AA719973887DFF7FEE79DD72C
:100A0000BCC7C448E5588668A77840086118022822
:100A10002338CCC9EDD98EE9AFF9488969990AA97B
:100A20002BB9F55AD44AB77A966A711A500A333AF2
:100A3000122AFDDBDCCBBFFB9EEB799B588B3BBBCB
:100A40001AABA66C877CE44CC55C222C033C600C82
:100A5000411CAEED8FFDECCDCDDD2AAD0BBD688D1B
:100A6000499D977EB66ED55EF44E133E322E511ED2
:100A7000700E9FFFBEEFDDDFFCCF1BBF3AAF599F6B
:100A8000788F8891A981CAB1EBA10CD12DC14EF10B
:100A90006FE18010A100C230E32004502540467071
:100AA0006760B9839893FBA3DAB33DC31CD37FE39C
:100AB0005EF3B1029012F322D232354214527762C1
:100AC0005672EAB5CBA5A89589856EF54FE52CD56C
:100AD0000DC5E234C324A014810466744764245411
:100AE0000544DBA7FAB79987B8975FE77EF71DC77C
:100AF0003CD7D326F2369106B01657667676154661
:100B000034564CD96DC90EF92FE9C899E9898AB9CB
:100B1000ABA94458654806782768C018E1088238B0
:100B2000A3287DCB5CDB3FEB1EFBF98BD89BBBABDB
:100B30009ABB754A545A376A167AF10AD01AB32A00
:100B4000923A2EFD0FED6CDD4DCDAABD8BADE89D2B
:100B5000C98D267C076C645C454CA23C832CE01C50
:100B6000C10C1FEF3EFF5DCF7CDF9BAFBABFD98FBB
:100B7000F89F176E367E554E745E932EB23ED10EA0
:100B8000F01E00002100240027002A00000022009F
:100B9000250028002B000A8011241FBECFEFD0E4CF
:100BA000DEBFCDBF11E0A0E0B1E0E4E5F6E001E09A
:100BB0000BBF02C007900D92AC34B107D9F721E109
:100BC000ACE4B1E001C01D92A33DB207E1F715E02E
:100BD000CCECD5E004C02197FE010E94DE82CB3C24
:100BE000D107C9F70E943A690C941B8309CA4F9236
:100BF0005F926F927F928F929F92AF92BF92CF92AD
:100C0000DF92EF92FF920F931F93CF93DF93CDB7B5
:100C1000DEB7CC5BD2400FB6F894DEBF0FBECDBFBF
:100C20008091F10F9091F20F863F08E0900709F450
:100C300034C208F446C08E3269E0960709F4E7C171
:100C400008F0A8C08031B9E09B0709F49DC1863245
:100C5000994009F070C280915E0890915F08892BDD
:100C6000B9F482E090E090935F0880935E08109260
:100C70004D0210924C028091F70F8F5F09F481E0D2
:100C80008093F70F8EE299E09093F20F8093F10F2B
:100C900081E0C454DD4F0FB6F894DEBF0FBECDBF68
:100CA000DF91CF911F910F91FF90EF90DF90CF9048
:100CB000BF90AF909F908F907F906F905F904F907C
:100CC0000895843B28E0920709F4E0C008F4D5C0F9
:100CD000803C48E0940709F400C1843E984009F044
:100CE0002AC2E091EE0F4091ED0FE41709F48AC398
:100CF00081E08E0F8093EE0FF0E0E351F14F8081A1
:100D00008093FD0F2091F90F3091FA0F2827022EC2
:100D10002295207F2025032E322F22952F70022628
:100D2000269532272327220F220F220F20253093CA
:100D3000FA0F2093F90F2091FB0F3091FC0F90E0F8
:100D400001972817390708F46AC2782F8093FE0F9D
:100D5000281B31093093FC0F2093FB0F772309F4F4
:100D600060C2672F713108F060E16093FF0F86EF7A
:100D700098E09093F20F8093F10F8091EE0F942FF3
:100D8000981B961708F493C27091FE0F761B709310
:100D9000FE0F96C18833F9E09F0709F4BEC08E3379
:100DA000994009F0C8C16091FB0F7091FC0F8091D0
:100DB000EE0F9091ED0F981B562F23E0260F921700
:100DC00008F445C2662309F47FC490E02091F90F2E
:100DD0003091FA0FDC01A351B14FFD0101964FEFA5
:100DE000460F840F911D8351914F41912427022E6C
:100DF0002295207F2025032E322F22952F70022648
:100E0000269532272327220F220F220F2025E817AD
:100E1000F90759F73093FA0F2093F90F890181E010
:100E2000850FFD01E80FF11D808192E0950F9D0176
:100E3000290F311DF9013081A60FB11D9C9193300E
:100E400009F4FCC3943009F4C1C3923009F4BFC360
:100E500090E0932B8017910709F4BBC36091F70FC3
:100E600085E00E94DC651092EE0F1092ED0F10925B
:100E7000F20F1092F10F81E00CCF892B09F05BC1CA
:100E800084EB98E09093F20F8093F10FE091EE0FD6
:100E90008091ED0F8E1709F4FBCE81E08E0F8093C9
:100EA000EE0FF0E0E351F14F808181112DC00E94DF
:100EB000665F6093F30F7093F40F8093F50F909338
:100EC000F60F8FEF9FEF9093FA0F8093F90F80EC5E
:100ED00098E09093F20F8093F10F4091ED0F942FD3
:100EE000E091EE0F842F8E1B823008F42CC181E03C
:100EF0008E0F8093EE0FAE2FB0E0A351B14F2C9127
:100F00002093F501211111C31092EE0F1092ED0FF5
:100F10001092F20F1092F10FBBCE9091ED0FE09175
:100F2000EE0F9E1709F4FDC181E08E0FF0E0981BD3
:100F30008093EE0FE351F14F60812091F90F3091D2
:100F4000FA0F2627022E2295207F2025032E322FEE
:100F500022952F700226269532272327220F220F53
:100F6000220F20253093FA0F2093F90F70E0615083
:100F700071097093FC0F6093FB0F2EE339E03093FF
:100F8000F20F2093F10F18CF4091ED0FE091EE0F8B
:100F9000842F8E1B833008F405C2AE2FB0E0A3511E
:100FA000B14F9C91A1E0AE0FB0E0A351B14F8C9135
:100FB00023E02E0F2093EE0FEE5FF0E0E351F14FB0
:100FC00030816091F90F7091FA0F933009F437C1B5
:100FD000943009F421C3923009F41FC390E0932B9D
:100FE0006817790709F41BC36091F70F85E00E9429
:100FF000DC651092EE0F1092ED0F10924F041092DC
:101000004E041092F20F1092F10F81E042CE8091C7
:101010005E0890915F08029709F43ACE8FEF9FEF38
:1010200090930E0A80930D0A8091070A9091080A06
:10103000282F291B2F3F09F404C1E1E0E80FA82F56
:10104000B0E0AB5FB64F12961C922E2F291B2F3F9C
:1010500009F4F7C0F0E0EB5FF64F26E0228322E0D0
:10106000280F422F50E05093100A40930F0A291B7B
:101070002F3F09F4E6C08D5F8093070AFA01EB5F0A
:10108000F64F21E02283891B8F3F09F4DAC080915B
:101090000B0A8F5F80930B0A3BCF6091FF0F80910B
:1010A000EE0F4091ED0F942F981B961708F4FFC098
:1010B0007091FE0F761B7093FE0F662309F44ECEDF
:1010C00000914E0410914F042091F90F3091FA0FC6
:1010D000D801A25BBD4F562F580FE82FF0E0E35127
:1010E000F14F90819D932927022E2295207F202564
:1010F000032E322F22952F70022626953227232782
:10110000220F220F220F20258F5F8513E6CF8093B9
:10111000EE0F9093F5010F5F1F4F6150060F111DE9
:1011200010934F0400934E043093FA0F2093F90F5D
:101130001092FF0F13CE8FEF9FEF9093F20F8093DB
:10114000F10F80E0A6CD0E94665F0091F30F109131
:10115000F40F2091F50F3091F60FDC01CB01801BCD
:10116000910BA20BB30B8B3F9105A105B10508F4C0
:101170008FCD8091F70F2FEF3FEF30930E0A209322
:101180000D0A9091070A2091080A392F321B3F3F20
:1011900041F1E1E0E90FE093070AA92FB0E0AB5F6E
:1011A000B64F12961C923E2F321B3F3FD1F032E0D9
:1011B000390F3093070AF0E0EB5FF64F48E04283C7
:1011C000432F50E05093100A40930F0A321B3F3FC9
:1011D00041F09D5F9093070AFA01EB5FF64F91E0B3
:1011E00092830E9420628091070A9091080A891BCD
:1011F0008F3F09F425C280910D0A90910E0A8F3F0E
:101200001FEF910731F09927FC01EB5FF64F8FEF4D
:10121000828380910B0A8F5F80930B0A75CEC90180
:1012200094CD8091FB0F9091FC0F009709F00EC2B6
:1012300080E199E09093F20F8093F10FA7CE8E7F1B
:10124000CDCE80910F0A82508093070A61CE0E9412
:10125000665F0091F30F1091F40F2091F50F30911C
:10126000F60FDC01CB01801B910BA20BB30B8B3F64
:101270009105A105B10508F40BCD1091F70F88E099
:101280000E947662812F0E9420628091070A9091CD
:10129000080A891B8F3F09F4D3C180910D0A9091F0
:1012A0000E0A8F3F2FEF920709F0ADCFB2CF0E9409
:1012B000665F0091F30F1091F40F2091F50F3091BC
:1012C000F60FDC01CB01801B910BA20BB30B8B3F04
:1012D0009105A105B10508F4DBCC1091F70F88E06A
:1012E0000E947662812F0E9420628091070A90916D
:1012F000080A891B8F3F09F4E1C180910D0A909182
:101300000E0A8F3FFFEF9F0731F09927FC01EB5F3B
:10131000F64F8FEF828380910B0A8F5F80930B0AC9
:1013200068CE0E94665F0091F30F1091F40F209138
:10133000F50F3091F60FDC01CB01801B910BA20B56
:10134000B30B8B3F9105A105B10508F4A1CC109119
:10135000F70F88E00E947662812F0E9420628091C0
:10136000070A9091080A891B8F3F11F40C94EA1721
:1013700080910D0A90910E0A8F3F1FEF910731F077
:101380009927FC01EB5FF64F8FEF828380910B0A68
:101390008F5F80930B0A1092ED0F9FEFE0E0F0E07B
:1013A00081E0C6CD0E94665F0091F30F1091F40FAB
:1013B0002091F50F3091F60FDC01CB01801B910BD2
:1013C000A20BB30B8B3F9105A105B10508F460CCCE
:1013D0001091F70F88E00E947662812F0E942062B0
:1013E0008091070A9091080A891B8F3F09F466C112
:1013F00080910D0A90910E0A8F3F0FEF900709F030
:1014000084CF89CF0E94665F0091F30F1091F40F93
:101410002091F50F3091F60FDC01CB01801B910B71
:10142000A20BB30B8B3F9105A105B10508F430CC9D
:101430003091F70F4FEF5FEF8091070A2091080A74
:10144000982F921B9F3F11F40C94C717E1E0E80F0F
:10145000E093070AA82FB0E0AB5FB64F12961C923C
:101460009E2F921B9F3F11F40C94E21792E0980F6D
:101470009093070AF0E0EB5FF64F68E06283692F14
:1014800070E07093100A60930F0AE92FE21BEF3FA0
:1014900011F40C94001B93E0980F9093070AFB0142
:1014A000EB5FF64FDD24D394D282A92FB0E0B09346
:1014B0000E0AA0930D0A921B9F3F11F40C9475180D
:1014C0008C5F8093070A8D010B5F164F7801D8015E
:1014D0001296DC92182F121B92819F5F9283332306
:1014E00011F40C94B517D70112969C9112979F5F37
:1014F00012969C931F3F11F40C94821891E0980F60
:101500009093070A482F50E04B5F564FDA0112962E
:101510003C9382818F5F8283921B9F3F11F40C94D6
:10152000BD178FEFF7018283F6CE6091F90F7091AE
:10153000FA0F6227062E6295607F6025072E762FB0
:1015400062956F700626669576276727660F660F89
:10155000660F60257093FA0F6093F90FEE5FE093CA
:10156000EE0FA82FB0E0A351B14F8C918093F80FEC
:10157000882309F4C9CC6827062E6295607F602510
:10158000072E762F62956F70062666957627672759
:10159000660F660F660F60257093FA0F6093F90F60
:1015A00087FF02C00C946D186091F70F26130C94FE
:1015B000F11780E092E09093FC0F8093FB0F84EE94
:1015C00098E09093F20F8093F10F8FCB8E7F3E7F48
:1015D0003FCC2091F80F233809F458C06091F70FE1
:1015E0008091F501681350C06F5F11F40C94C2171D
:1015F0006093F70F5093EF0F1092F00F822F90E04F
:10160000FC01E058F109E234F10508F466C0622FEC
:1016100081E00E94DC6578CC8E7F3E7FDFCC241792
:1016200031F060E171E082E299E00E94575086E279
:1016300099E09093F20F8093F10F0DCB8E7F08CC41
:1016400080910F0A82508093070A5ECC2091FD0F93
:101650002F3FB9F020914E0430914F04B9016F5FD4
:101660007F4F70934F0460934E04F901E05CFD4F8F
:10167000168601979093FC0F8093FB0F892B09F43A
:10168000D7CDE091EE0F9BCF87E0EBCB81E080934D
:10169000F70F5093EF0F1092F00F0E949B6580910F
:1016A000ED0F9091EE0F891B833008F02DCC60E197
:1016B00071E082EB9AE00E94575026CC80910F0A8D
:1016C00082508093070A95CC0091F90F1091FA0F80
:1016D00090E0DC01A351B14FA2CBEA5BFF4F0C9429
:1016E000DE820E9449826093EB107093EC1080932D
:1016F000ED109093EE1021E0611574408105910585
:1017000011F40C946B1C2093EA100E949B65C7CFC8
:101710000E9449826093091170930A1180930B1102
:1017200090930C110E94665FDC01CB010A96A11D0B
:10173000B11D80930D1190930E11A0930F11B093D2
:1017400010110E949B65ABCF8DEB0E94766207E67D
:1017500018E0D8018C9111963C91119712962C911A
:10176000129713969C91C959DD4F8883C756D24072
:10177000C859DD4F3883C856D240C759DD4F28833A
:10178000C956D240C659DD4F9883CA56D2400E94EE
:101790002062C859DD4F8881C856D2400E9420621D
:1017A000C759DD4F8881C956D2400E942062C65970
:1017B000DD4F8881CA56D2400E942062F8018481A0
:1017C000358126819781C559DD4F8883CB56D2401C
:1017D000C459DD4F3883CC56D240C359DD4F2883DE
:1017E000CD56D240C259DD4F9883CE56D2400E948A
:1017F0002062C459DD4F8881CC56D2400E942062BD
:10180000C359DD4F8881CD56D2400E942062C25913
:10181000DD4F8881CE56D2400E942062D8011896B2
:101820008C91189719963C9119971A962C911A97A2
:101830001B969C91C159DD4F8883CF56D240C05929
:10184000DD4F3883C057D240CF58DD4F2883C15772
:10185000D240CE58DD4F9883C257D2400E942062BA
:10186000C059DD4F8881C057D2400E942062CF58B6
:10187000DD4F8881C157D2400E942062CE58DD4F93
:101880008881C257D2400E942062005F1F4FB8E09B
:10189000073A1B0709F05DCF8091070A9091080A6B
:1018A000891B8F3F11F40C941A1A80910D0A9091A4
:1018B0000E0A8F3FEFEF9E0731F09927FC01EB5F97
:1018C000F64F8FEF828380910B0A8F5F80930B0A14
:1018D000E6CE8CEB0E94766205E511E0D801149605
:1018E0008C91149715963C91159716962C911697F6
:1018F00017969C91CD58DD4F8883C357D240CC5862
:10190000DD4F3883C457D240CB58DD4F2883C557AD
:10191000D240CA58DD4F9883C657D2400E942062F9
:10192000CC58DD4F8881C457D2400E942062CB58EA
:10193000DD4F8881C557D2400E942062CA58DD4FD2
:101940008881C657D2400E942062F8018085318587
:1019500022859385C958DD4F8883C757D240C85820
:10196000DD4F3883C857D240C758DD4F2883C95749
:10197000D240C658DD4F9883CA57D2400E94206299
:10198000C858DD4F8881C857D2400E942062C7588E
:10199000DD4F8881C957D2400E942062C658DD4F72
:1019A0008881CA57D2400E942062D8011C968C912F
:1019B0001C971D963C911D971E962C911E971F9665
:1019C0009C91C558DD4F8883CB57D240C458DD4F1A
:1019D0003883CC57D240C358DD4F2883CD57D240EF
:1019E000C258DD4F9883CE57D2400E942062C4581F
:1019F000DD4F8881CC57D2400E942062C358DD4F12
:101A00008881CD57D2400E942062C258DD4F888124
:101A1000CE57D2400E942062005F1F4FB1E0053ECA
:101A20001B0709F05BCF38CF0E94108280915E08BF
:101A300090915F08892B11F00C943A1D60E171E0E0
:101A40008EE498E00E94575080E492E00E94BA51E0
:101A50008111FACF8EEB0E9476628091070A9091F5
:101A6000080A891B8F3F11F40C94331D80910D0AD5
:101A700090910E0A8F3FFFEF9F0731F09927FC01ED
:101A8000EB5FF64F8FEF828380910B0A8F5F80931D
:101A90000B0A0E949B6503CE81E0809308110E948F
:101AA0009B65FDCD0E9449822B013C010E94498229
:101AB0006B017C010E9449824B015C010E949E6681
:101AC000082F0E949E66182F0E949E664092DB108F
:101AD0005092DC106092DD107092DE10C092DF1028
:101AE000D092E010E092E110F092E2108092E310C8
:101AF0009092E410A092E510B092E6100093E710E7
:101B00001093E8108093E9100E949B65C8CD0E9455
:101B10009A817C010E949A818C010E949A81F092A4
:101B2000D610E092D5101093D8100093D710909350
:101B3000DA108093D9100E949B65B1CD0E949E66F9
:101B4000883038F0883110F40C945E1D9FE1981BAA
:101B5000892F8770806480937C0080917A008064F4
:101B600080937A0080917A0086FDFCCF10917800F6
:101B70000091790088EB0E947662812F90E0902B93
:101B8000092E000CAA0BBB0BC157DD4F888399832C
:101B9000AA83BB83CF58D2400E942062C057DD4F3A
:101BA0008881C059D2400E942062CF56DD4F888183
:101BB000C159D2400E942062CE56DD4F8881C25961
:101BC000D2400E9420628091070A9091080A891BE6
:101BD0008F3F11F40C941A1A80910D0A90910E0AFD
:101BE0008F3F2FEF920709F068CE6DCE0E949E6660
:101BF000182F0E949E66082F61E0812F0E94095DC8
:101C0000602F812F0E94805C0E949B6548CD0E94BE
:101C10009E66182F62E00E94095D212F30E0F901D5
:101C2000EE57FE4F8491F901EE59FE4F1491F901E0
:101C3000EE5BFE4F0491002311F40C94271C8111DC
:101C40000E944A5CE02FF0E0EE0FFF1FE85CFE4FC1
:101C5000A591B491EC91E12391E080E009F490E04A
:101C6000092F182F86EB0E947662C801110FAA0B6C
:101C7000BB0BCD56DD4F88839983AA83BB83C359A1
:101C8000D2400E942062CC56DD4F8881C459D24098
:101C90000E942062CB56DD4F8881C559D2400E94F8
:101CA0002062CA56DD4F8881C659D2400E94206208
:101CB0008091070A9091080A891B8F3F11F40C94B8
:101CC0001A1A80910D0A90910E0A8F3F1FEF91070B
:101CD00009F0F3CDF8CD81E0809381110E949B65DE
:101CE000DECC0E949E66082F0E949E66182F01304F
:101CF00011F40C94571D1093BA0E0E949B65CFCC23
:101D00000E94A881CCCC0E94665F60937308709398
:101D1000740880937508909376088E010F5F1F4FAB
:101D2000780110E30FEF0E94665F60936308709381
:101D30006408809365089093660820E030E0A9016C
:101D400061E180E492E00E94975F882311F40C9493
:101D5000211A1093400280914302882321F080E4ED
:101D600092E00E94B35C80914702815080934702C9
:101D7000882311F40C94C61B0E94665F8090630850
:101D800090906408A0906508B0906608DC01CB01D3
:101D900088199909AA09BB0980906708909068087A
:101DA000A0906908B0906A08EFEF8E1A9E0AAE0AFA
:101DB000BE0A8092670890926808A0926908B09263
:101DC0006A0880906B0890906C08A0906D08B090A5
:101DD0006E08880E991EAA1EBB1E80926B089092F8
:101DE0006C08A0926D08B0926E0880906F08909079
:101DF0007008A0907108B090720888169906AA061B
:101E0000BB0608F090CF80936F0890937008A09362
:101E10007108B093720887CF0E949E66D82E1092E8
:101E2000F501882311F40C946F1D0E949E668E01AB
:101E30000F5F1D4FD8018D935D0181E08093F50107
:101E4000EE24E394ED0C82E0F82E0DC00E949E6615
:101E5000D5018D935D01F092F501F394B1E4FB1689
:101E600011F40C94171CFE10F1CF9E012F5F3F4F11
:101E7000790180E4D9011D928A95E9F74D2D50E052
:101E8000B801C7010E940C830E94665F60939308AB
:101E9000709394088093950890939608EEEF6E2EB9
:101EA000DD24DA9444244394512CA7E57A2E0E9431
:101EB000665F60938308709384088093850890938D
:101EC000860880913E0290913F02892B11F00C947C
:101ED000861880E492E00E94DD5C882311F40C9463
:101EE000261B0E94665F8090830890908408A090D3
:101EF0008508B0908608DC01CB0188199909AA09E8
:101F0000BB094091870850918808609189087091B9
:101F10008A084F5F5F4F6F4F7F4F40938708509302
:101F200088086093890870938A0840918B085091C3
:101F30008C0860918D0870918E08480F591F6A1F98
:101F40007B1F40938B0850938C0860938D0870938F
:101F50008E0880908F0890909008A0909108B09083
:101F6000920888169906AA06BB0608F0A0CF8093AF
:101F70008F0890939008A0939108B093920897CF00
:101F80000E949A818C010E949E661093B80800936B
:101F9000B7088093B9080E949B6581CB0E949E661A
:101FA000182F0E949E66082F0E949E66E82EF12C34
:101FB000FE2CEE24E00EF11C123030F060E171E0F6
:101FC0008FE796E00E945750C7010F964F9730F069
:101FD00060E171E080E896E00E945750E12FF0E068
:101FE000EE0FFF1FE853FF4EF282E1820E949B65D5
:101FF00056CBCE01865A9D4F0E948382CE018B5ACA
:102000009D4F0E9483820E9410824B015C01CE0191
:10201000805B9D4F0E948382CE01855B9D4F0E9415
:102020008382CE018A5B9D4F0E9483820E94108230
:102030006B017C01CE018F5B9D4F0E948382CE019C
:102040008F5F9D4F0E948382CE0101960E94838202
:102050000E949A8125E0FE01E65AFD4FACEBBEE0FE
:1020600001900D922A95E1F725E0FE01EB5AFD4F14
:10207000A1ECBEE001900D922A95E1F78092C60E88
:102080009092C70EA092C80EB092C90E25E0FE0134
:10209000E05BFD4FAAECBEE001900D922A95E1F7BE
:1020A00025E0FE01E55BFD4FAFECBEE001900D9237
:1020B0002A95E1F725E0FE01EA5BFD4FA4EDBEE0C5
:1020C00001900D922A95E1F7C092D90ED092DA0EC6
:1020D000E092DB0EF092DC0E25E0FE01EF5BFD4F9F
:1020E000ADEDBEE001900D922A95E1F725E0FE01ED
:1020F000EF5FFD4FA2EEBEE001900D922A95E1F751
:1021000025E0FE013196A7EEBEE001900D922A95E2
:10211000E1F79093CE108093CD100E949B65BFCACB
:102120008FEA0E9476622091CF113091D011CE01BA
:102130002115310511F00C942B1C825D91419A837D
:10214000898389819A81092E000CAA0BBB0B898394
:102150009A83AB83BC830E9420628A810E942062A2
:102160008B810E9420628C810E9420628091070AEC
:102170009091080A891B8F3F11F40C941A1A8091D0
:102180000D0A90910E0A8F3F0FEF900709F095CB43
:102190009ACB0E949A817C010E949E66182F0E9411
:1021A0009A81F092B808E092B7081093B90890931A
:1021B000BE088093BD080E949B6571CA0E949E66FE
:1021C000182F0E949A8121E030E030931A0E20935C
:1021D000190E1093250E90931C0E80931B0E812FC9
:1021E0000E945D8110FF02C00C946A1D459A11FF88
:1021F00002C00C94671D479A12FF02C00C94641D24
:102200002A9A13FF02C00C94611D289A80917100D4
:1022100084608093710081E08093260E0E949B650C
:102220003ECA0E949A81009711F40C94551C2FB756
:10223000F89490931C0E80931B0E2FBF2ACC0E9403
:102240009E6691E0811101C090E09093AD080E94DC
:102250009B6525CA0E949E66182F0E949E66282FA5
:1022600030E0322F2227C901810F911D9093010187
:10227000809300010E949E66843611F00C94451CE8
:1022800000E010E10E949A81D8018D939D938D0109
:10229000B0E1083C1B07B1F761E084EA0E94DC650D
:1022A000FEC90E949E66182F0E949A8140E0BC01E0
:1022B000812F0E94AC620E949B65F1C90E9410822E
:1022C0002B013C010E9410824B015C010E94108294
:1022D0006B017C010E9410820E94108281E0809339
:1022E000C8104092E5015092E6016092E7017092B9
:1022F000E8018092E9019092EA01A092EB01B0928C
:10230000EC01C092ED01D092EE01E092EF01F0926B
:10231000F001BFCB81EC0E94766281E00E942062D6
:1023200087E00E9420620091080AE090070A8091ED
:102330000D0A90910E0A1E2D20910F0A3091100A5D
:102340003327A8E0B1E05E2D501B2B5F364FFF24F2
:10235000F3941EC0BC0177276B5F764FFB01D280E0
:10236000D394D2825F3F51F011E01E0DEE2DF0E0CC
:10237000EB5FF64F4283E12E512F501BF901428152
:102380004F5F4283F1E0AF30BF0711F40C94F41BB0
:102390004D918F3F6FEF960711F40C94131B411171
:1023A000D9CF8FEF9FEFEECF0E949E66082F10E0EF
:1023B0000115110511F40C949A1C8091FC10909158
:1023C000FD10019731F060E171E086E496E00E9433
:1023D000575083E090E09093FD108093FC10109391
:1023E000FF100093FE108FEF8093F7101092FB10F8
:1023F0001092FA101092F9101092F8108FE00E94CB
:102400005D81109201111092001180E290E0909392
:10241000B6088093B50880E094E09093B00880936C
:10242000AF081092AE081092BB081092BA080130A3
:10243000110511F40C94421D80ED97E090939900E2
:10244000809398008091710082608093710021CB0D
:102450008091FC109091FD10029734F060E171E0E2
:1024600085EE95E00E9457501092CF100E943839A7
:1024700081E090E09093FD108093FC1080E094E068
:10248000A0E0B0E08093EB109093EC10A093ED10DF
:10249000B093EE100E949B6502C98DE90E9476629E
:1024A0008091030990910409C556DD4F8883CB596B
:1024B000D240C456DD4F9883CC59D2400E9420624E
:1024C000C456DD4F8881CC59D2400E942062809151
:1024D000010990910209C356DD4F8883CD59D2403E
:1024E000C256DD4F9883CE59D2400E942062C25618
:1024F000DD4F8881CE59D2400E942062C156DD4F07
:1025000019821882CF59D24080E00E942062C056C2
:10251000DD4F8881C05AD24054CB0E942A5B109272
:10252000C8101092FD101092FC100E949B65B7C855
:1025300088E90E947662E0915301F0915401908104
:1025400080915201982381E009F480E00E9420628A
:102550008091E5013091E6012091E7019091E80139
:10256000CB5ADD4F8883C555D240CA5ADD4F3883D8
:10257000C655D240C95ADD4F2883C755D240C85AE4
:10258000DD4F9883C855D2400E942062CA5ADD4F61
:102590008881C655D2400E942062C95ADD4F888189
:1025A000C755D2400E942062C85ADD4F8881C85565
:1025B000D2400E942062E0915001F091510190813F
:1025C00080914F01982381E009F480E00E9420620D
:1025D0008091E9013091EA012091EB019091EC01A9
:1025E000C65ADD4F8883CA55D240C55ADD4F38835D
:1025F000CB55D240C45ADD4F2883CC55D240C35A64
:10260000DD4F9883CD55D2400E942062C55ADD4FE0
:102610008881CB55D2400E942062C45ADD4F888108
:10262000CC55D2400E942062C35ADD4F8881CD55DF
:10263000D2400E942062E0914D01F0914E019081C4
:1026400080914C01982381E009F480E00E9420628F
:102650008091ED013091EE012091EF019091F00118
:10266000C15ADD4F8883CF55D240C05ADD4F3883E1
:10267000C056D240CF59DD4F2883C156D240CE59E3
:10268000DD4F9883C256D2400E942062C05ADD4F6F
:102690008881C056D2400E942062CF59DD4F888188
:1026A000C156D2400E942062CE59DD4F8881C25669
:1026B000D2400E94206280E00E942062CD59DD4F0E
:1026C000188219821A821B82C356D24080E00E946F
:1026D0002062CC59DD4F8881C456D2400E942062CE
:1026E000CB59DD4F8881C556D2400E942062CA591D
:1026F000DD4F8881C656D2400E9420628091070A31
:102700009091080A891B8F3F09F494C680910D0AA5
:1027100090910E0A8F3FFFEF9F0709F0CEC8D3C8F4
:1027200087E90E9476628091C8100E942062B4C836
:102730001092CE111092CD118091CB119091CC11AD
:10274000892B19F51092AD0E1092AE0E1092AF0EAD
:102750001092B00E80910109909102099195819596
:102760009109092E000CAA0BBB0B8093B10E90931C
:10277000B20EA093B30EB093B40E1092B50E109299
:10278000B60E1092B70E1092B80E1092CC11109295
:10279000CB111092EC0E8091CD119091CE11892B1E
:1027A00019F51092AD0E1092AE0E1092AF0E10925F
:1027B000B00E80910109909102099195819591093E
:1027C000092E000CAA0BBB0B8093B10E9093B20E96
:1027D000A093B30EB093B40E1092B50E1092B60E35
:1027E0001092B70E1092B80E1092CE111092CD1119
:1027F000809171008D7F80937100809171008B7F3B
:102800008093710081E090E09093FD108093FC1024
:102810001092FF101092FE100E943839109203118E
:1028200010920411109205111092061166E470E0E6
:1028300084E00E944A5D0E949B650C944F0B0E94AD
:102840009E661092031110920411109205111092BD
:102850000611863408F486E4682F70E084E00E9454
:102860004A5D0E949B650C944F0B0E9449826B014C
:102870007C018091FC109091FD10019731F060E196
:1028800071E087EB96E00E94575081E090E0A0E075
:10289000B0E08093EF109093F010A093F110B093FC
:1028A000F210C092F310D092F410E092F510F09272
:1028B000F61082E090E09093FD108093FC100E944F
:1028C0009B650C944F0B87E80E947662BE016F5F98
:1028D0007F4F80E492E00E940764882349F0898159
:1028E000807C11F40C94031D803411F40C94D81CDA
:1028F00080E090E0DC010197A109B109C956DD4FE4
:1029000088839983AA83BB83C759D2400E942062DF
:10291000C856DD4F8881C859D2400E942062C756F0
:10292000DD4F8881C959D2400E942062C656DD4FD2
:102930008881CA59D24018CC82EA0E94766280917E
:10294000B1083091B2082091B3089091B408CF5FDC
:10295000DD4F8883C150D240CE5FDD4F3883C250F7
:10296000D240CD5FDD4F2883C350D240CC5FDD4FD6
:102970009883C450D2400E942062CE5FDD4F888190
:10298000C250D2400E942062CD5FDD4F8881C3508B
:10299000D2400E942062CC5FDD4F8881C450D2407B
:1029A000C4CE81EA0E9476628091FC100E9420626F
:1029B0008091030990910409C955DD4F8883C75A56
:1029C000D240C855DD4F9883C85AD2400E94206239
:1029D000C855DD4F8881C85AD2400E94206280913C
:1029E000010990910209C755DD4F8883C95AD24029
:1029F000C655DD4F9883CA5AD2400E942062C65500
:102A0000DD4F8881CA5AD2400E94206280915404CE
:102A100090915504A0915604B091570440915808E4
:102A20005091590860915A0870915B08841B950B6E
:102A3000A60BB70BC158DD4F88839983AA83BB834C
:102A4000CF57D2400E942062C058DD4F8881C058C5
:102A5000D2400E942062CF57DD4F8881C158D240BA
:102A60000E942062CE57DD4F8881C258D2400E941A
:102A70002062809154043091550420915604909125
:102A80005704CD57DD4F8883C358D240CC57DD4F14
:102A90003883C458D240CB57DD4F2883C558D24025
:102AA000CA57DD4F9883C658D2400E942062CC5747
:102AB000DD4F8881C458D2400E942062CB57DD4F41
:102AC0008881C558D2400E942062CA57DD4F888154
:102AD000C658D2400E942062809194119091951125
:102AE0002091961130919711821B930BC555DD4FA4
:102AF00099838883CB5AD2400E942062C455DD4F0F
:102B00008881CC5AD2400E9420628091170E909109
:102B1000180E891B90E0A0E0B0E0C957DD4F888314
:102B20009983AA83BB83C758D2400E942062C857AA
:102B3000DD4F8881C858D2400E942062C757DD4FC0
:102B40008881C958D2400E942062C657DD4F8881D3
:102B5000CA58D2400E9420628091001190910111C8
:102B6000C355DD4F8883CD5AD240C255DD4F98837F
:102B7000CE5AD2400E942062C255DD4F8881CE5A83
:102B8000D2400E9420628091CD119091CE11C1550A
:102B9000DD4F8883CF5AD240C055DD4F9883C05B4C
:102BA000D2400E942062C055DD4F8881C05BD24078
:102BB0000E9420628091CB119091CC11CF54DD4FB7
:102BC0008883C15BD240CE54DD4F9883C25BD24034
:102BD0000E942062CE54DD4F8881C25BD2400E94A9
:102BE00020629091B90E8091BA0E811101C0892F97
:102BF0000E9420628091B5089091B608CD54DD4FB7
:102C00008883C35BD240CC54DD4F9883C45BD240F1
:102C10000E942062CC54DD4F8881C45BD2400E9468
:102C200020628091AE08882309F41CC68091AF0809
:102C30009091B008CB54DD4F8883C55BD240CA5415
:102C4000DD4F9883C65BD2400E942062CA54DD4F9C
:102C50008881C65BD2400E9420628091F101309150
:102C6000F2012091F3019091F401C557DD4F888363
:102C7000CB58D240C457DD4F3883CC58D240C357CD
:102C8000DD4F2883CD58D240C257DD4F9883CE58B0
:102C9000D2400E942062C457DD4F8881CC58D24078
:102CA0000E942062C357DD4F8881CD58D2400E94D8
:102CB0002062C257DD4F8881CE58D2400E942062E8
:102CC0008091F7100E9420628091F8109091F91085
:102CD000C754DD4F8883C95BD240C654DD4F98830B
:102CE000CA5BD2400E942062C654DD4F8881CA5B15
:102CF000D2400E9420628091FA109091FB10C5543E
:102D0000DD4F8883CB5BD240C454DD4F9883CC5BCE
:102D1000D2400E942062C454DD4F8881CC5BD240F7
:102D20000E9420628091070A9091080A891B8F3FB8
:102D300009F480C380910D0A90910E0A8F3F3FEFF6
:102D4000930711F00C945D0C0C94630C8FE90E94B6
:102D500076628091E5013091E6012091E701909142
:102D6000E801CF5BDD4F8883C154D240CE5BDD4F9D
:102D70003883C254D240CD5BDD4F2883C354D24048
:102D8000CC5BDD4F9883C454D2400E942062CE5B5E
:102D9000DD4F8881C254D2400E942062CD5BDD4F5E
:102DA0008881C354D2400E942062CC5BDD4F888171
:102DB000C454D2400E9420628091E9013091EA011E
:102DC0002091EB019091EC01CA5BDD4F8883C654E2
:102DD000D240C95BDD4F3883C754D240C85BDD4F5A
:102DE0002883C854D240C75BDD4F9883C954D24072
:102DF0000E942062C95BDD4F8881C754D2400E9487
:102E00002062C85BDD4F8881C854D2400E94206296
:102E1000C75BDD4F8881C954D2400E9420628091F7
:102E2000ED013091EE012091EF019091F001C55B31
:102E3000DD4F8883CB54D240C45BDD4F3883CC5404
:102E4000D240C35BDD4F2883CD54D240C25BDD4FFF
:102E50009883CE54D2400E942062C45BDD4F8881AB
:102E6000CC54D2400E942062C35BDD4F8881CD5498
:102E7000D2400E942062C25BDD4F8881CE54D24096
:102E80000E9420628091F1013091F2012091F301C2
:102E90009091F401C05BDD4F8883C055D240CF5A7A
:102EA000DD4F3883C155D240CE5ADD4F2883C255FD
:102EB000D240CD5ADD4F9883C355D2400E94206244
:102EC000CF5ADD4F8881C155D2400E942062CE5A30
:102ED000DD4F8881C255D2400E942062CD5ADD4F1D
:102EE0008881C355D24040C98EE90E9476628091A4
:102EF000CD119091CE11CF55DD4F8883C15AD2406C
:102F0000CE55DD4F9883C25AD2400E942062CE55E2
:102F1000DD4F8881C25AD2400E9420628091CB113D
:102F20009091CC11CD55DD4F8883C35AD240CC55FA
:102F3000DD4F9883C45AD2400E942062CC55DD4FA9
:102F40008881C45AD2400E942062CB55DD4F19823D
:102F50001882C55AD24080E00E942062CA55DD4FD7
:102F60008881C65AD2400C94560E50930E0A409354
:102F70000D0A1F3F11F00C948B0962506093070AF1
:102F80000C94F90781E08093F70F0C94FA0AA82FAC
:102F9000B0E060910F0A7091100AB0930E0AA093EE
:102FA0000D0AFB01FF27EB5FF64F92819F5F928333
:102FB000332309F4A4C51FEFAD014B5F564F7A01CF
:102FC0000C94730AAE2FB0E060910F0A7091100A52
:102FD0008E2FE3CF80910F0A82508093070A0C94C2
:102FE000CB098091070A7091080A982F971B9F3F81
:102FF00009F4B2C3E1E0E80FE093070AA82FB0E0BC
:10300000AB5FB64F12961C929E2F971B9F3F09F401
:10301000AEC392E0980F9093070AF0E0EB5FF64F93
:1030200027E02283492F50E09A015093100A4093E1
:103030000F0AE92FE71BEF3F09F4F7C393E0980F5E
:103040009093070AA1E0FA01EB5FF64FA283292FC4
:1030500030E030930E0A20930D0AE92FE71BEF3F73
:1030600009F43BC58C5F8093070AF901EB5FF64FCB
:10307000A283DA01BB27AB5FB64F12969C911297E1
:103080009F5F12969C931297662309F4BCC2890134
:103090000B5F164FF80192819F5F9283982F971BC9
:1030A0009F3F09F46CC391E0980F9093070A282F73
:1030B00030E02B5F364FF901628312968C911297A4
:1030C0008F5F12968C93971B9F3F09F4A7C28FEFD7
:1030D000D80112968C930C94090928E339E03093B7
:1030E000F20F2093F10F0C94910782E08283332337
:1030F00009F4FAC4AB5FB64F12968C9112978F5FAA
:1031000012968C9382818F5F828337CF80E492E026
:103110000E94DD5C81110C94710F20E030E0A90168
:103120006DE080E492E00E94975F811109C08FEF0B
:103130008EBD0DB407FEFDCF8EB5882309F4CCC03B
:10314000609144028091070A9091080A282F291B58
:103150002F3F41F1E1E0E80FE093070AA82FB0E02C
:10316000AB5FB64F12961C922E2F291B2F3FD1F02A
:1031700022E0280F2093070AF0E0EB5FF64F33E0E0
:103180003283422F50E05093100A40930F0A291BBC
:103190002F3F41F08D5F8093070AFA01EB5FF64FF6
:1031A00081E082838091070AA82FB0E0B0930E0AD5
:1031B000A0930D0A282F291B2F3F09F48FC38F5F7F
:1031C0008093070AAB5FB64F81E012968C931297FB
:1031D00020910F0A3091100AF901FF27EB5FF64F9B
:1031E00082818F5F828312968C9112978F5F1296E5
:1031F0008C938091070A482F491B4F3F61F041E0B3
:10320000480F4093070AA82FB0E0AB5FB64F8CE0A1
:1032100012968C93842F42814F5F428340910D0A16
:1032200050910E0ADA01BB27AB5FB64F12967C9124
:1032300012977F5F12967C93782F791B7F3F59F00E
:1032400071E0780F7093070AA82FB0E0AB5FB64F1C
:1032500089E212968C9382818F5F82834F3F5F4F0A
:1032600009F44FC3662309F43CC300910D0A109181
:103270000E0AD801BB27AD014B5F564F7A01DA0128
:1032800012968C9112978F5F12968C938091070AF9
:10329000482F491B4F3F61F071E0780F7093070A88
:1032A000482F50E04B5F564FDA0112966C93872FF0
:1032B00042814F5F4283891B8F3F09F41EC30F3F3A
:1032C0001F4F19F08FEFF701828380910B0A8F5FF8
:1032D00080930B0A0E94F14E80914302882321F0D3
:1032E00080E492E00E94B35C10923F0210923E0292
:1032F00085E0809348020E94665F009183081091E8
:1033000084082091850830918608DC01CB01801B60
:10331000910BA20BB30B00918708109188082091A4
:10332000890830918A080F5F1F4F2F4F3F4F00933E
:103330008708109388082093890830938A080091A1
:103340008B0810918C0820918D0830918E08080F01
:10335000191F2A1F3B1F00938B0810938C08209382
:103360008D0830938E0800918F081091900820915D
:10337000910830919208081719072A073B0740F473
:1033800080938F0890939008A0939108B09392082F
:103390000E94665F0091930810919408209195080F
:1033A00030919608DC01CB01801B910BA20BB30B73
:1033B00000919708109198082091990830919A08E7
:1033C0000F5F1F4F2F4F3F4F0093970810939808A0
:1033D0002093990830939A0800919B0810919C08BB
:1033E00020919D0830919E08080F191F2A1F3B1F2E
:1033F00000939B0810939C0820939D0830939E088F
:1034000000919F081091A0082091A1083091A20876
:10341000081719072A073B0740F480939F089093E9
:10342000A008A093A108B093A2088AEA0E9476623D
:1034300081E062C980910F0A82508093070A0C9440
:103440004F0B40E052E0B70180E492E00E9415602B
:10345000882311F40C94AB0E80914302811130C289
:1034600085E0809347020E94665F00916308109197
:1034700064082091650830916608DC01CB01801B4F
:10348000910BA20BB30B0091670810916808209173
:10349000690830916A080F5F1F4F2F4F3F4F00930D
:1034A0006708109368082093690830936A080091B0
:1034B0006B0810916C0820916D0830916E08080F10
:1034C000191F2A1F3B1F00936B0810936C08209351
:1034D0006D0830936E0800916F081091700820916C
:1034E000710830917208081719072A073B0740F442
:1034F00080936F0890937008A0937108B09372083E
:103500000E94665F009173081091740820917508FD
:1035100030917608DC01CB01801B910BA20BB30B21
:1035200000917708109178082091790830917A08F5
:103530000F5F1F4F2F4F3F4F00937708109378086E
:103540002093790830937A0800917B0810917C08C9
:1035500020917D0830917E08080F191F2A1F3B1FFC
:1035600000937B0810937C0820937D0830937E089D
:1035700000917F0810918008209181083091820885
:10358000081719072A073B0740F480937F08909398
:103590008008A0938108B09382088BEA0E9476622B
:1035A00081E00E9420626FE370E0C7010E941D83EA
:1035B000182F0E942062112379F00FEF010F10E005
:1035C0000F5F1F4F0E0D1F1DD7018D917D010E94B2
:1035D0002062E016F106C1F78091070A9091080A6F
:1035E000891B8F3F09F426CF80910D0A90910E0A16
:1035F0008F3FBFEF9B0711F00C945D0C0C94630C94
:10360000DB01892FCACC2FEF3FEF30930E0A2093B6
:103610000D0A871B8F3F11F00C940909425040930B
:10362000070A0C9484078E2D90E05F3F49F011E06B
:103630001E0DFC01EB5FF64FF282E12E512F501B65
:10364000F90162816F5F62830C94CF1120E030E05A
:10365000A90168E180E492E00E94975F8111DBC0DC
:10366000D70180E090E02D91E92FFF27E227EE0FB0
:10367000FF1FEE57F64F25913491982F8827822708
:103680009327A017B10779F76EBC0DB407FEFDCFE5
:1036900029812EBD2A81FE0133960DB407FEFDCF90
:1036A0002EBD0E171F0711F02191F7CF0DB407FEA5
:1036B000FDCF9EBD0DB407FEFDCF8EBD0DB407FE40
:1036C000FDCFDEBC0DB407FEFDCF8EB58093440266
:1036D0008F71853009F4DFC07092400280914302FF
:1036E000882321F080E492E00E94B35C809148023C
:1036F00081508093480281110C94710FC090440254
:10370000B090400283E00E9476628CE00E942062CA
:103710008B2D0E9420628C2D0E9420628091070ACE
:103720009091080A891B8F3F09F4E3C180910D0A2B
:1037300090910E0A8F3FEFEF9E0729F09927FC0129
:10374000EB5FF64FD28280910B0A8F5F80930B0A5A
:103750000E94F14E0C94710F40910F0A5091100A83
:10376000282F30E030930E0A20930D0A82CC40912E
:103770000F0A5091100A8E2F2E2F30E0F3CF1296A1
:103780008C9112978F5F12968C9348CFD090440201
:10379000C090400283E00E94766289E00E9420622D
:1037A0008C2D0E9420628D2D0E9420628091070A3C
:1037B0009091080A891B8F3F09F487C080910D0AF8
:1037C00090910E0A8F3F2FEF920729F09927FC0165
:1037D000EB5FF64F028380910B0A8F5F80930B0A99
:1037E0000E94F14E0C94BC0E90930E0A80930D0A29
:1037F0001093070A5F3F09F41DCE8F3F0FEF90072C
:1038000011F40C94630CFC01FF27EB5FF64F8FEF74
:1038100082830C94630C2091440242E36CE083E0C9
:103820000E942F640E94F14E1BCF892F9BCFFE0177
:1038300031967F0180E4DF011D928A95E9F7BFE3AD
:10384000BD1510F00C943E0F40E40C943F0F00E0C7
:1038500010E00C94320E0196821B930B9A8389839D
:103860000C94A11080E094E0C954DD4F99838883C3
:10387000C75BD24080E00E942062C854DD4F88813F
:10388000C85BD2400E942062E8C962E084EA0E94DC
:10389000DC650C944F0B80E492E00E94C45C509273
:1038A0003F0240923E020C94710F1092260E0E942D
:1038B0002A5B809171008B7F809371000C94490D7D
:1038C00080E492E00E94B35CCBCD80910F0A8250DD
:1038D0008093070A85CF20E00C94830BAB5FB64F33
:1038E00077CC4FEF5FEF50930E0A40930D0A809113
:1038F000070A891B8F3F09F0E8CC22502093070A62
:10390000E9CC8091070A482F50E050930E0A40936B
:103910000D0A782F791B7F3F49F08F5F8093070A4C
:10392000DA01AB5FB64F81E012968C9382818F5F94
:10393000828398CC60E171E085E496E00E94575064
:103940008091FC109091FD10019711F00C94E311FF
:1039500083E090E09093FD108093FC101092FF1094
:103960001092FE108FEF8093F7101092FB101092C0
:10397000FA101092F9101092F8108FE00E945D81F9
:10398000109201111092001180E290E09093B6081D
:103990008093B50880E094E09093B0088093AF08DE
:1039A0001092AE081092BB081092BA080C941C1228
:1039B0008A8590E0A0E0B0E0AC01BD014F5F5F4FB1
:1039C0006F4F7F4F898590E0A0E0B0E0BA2FA92F1C
:1039D000982F8827840F951FA61FB71F48854F7300
:1039E00050E060E070E0BA0155274427840F951F2E
:1039F000A61FB71F2AE0880F991FAA1FBB1F2A9571
:103A0000D1F70C947B148F81837090E09C01322F4E
:103A10002227330F330F8885F4E08F9FC0011124D4
:103A2000822B932B29852295269526952370822B10
:103A30000196A0E0B0E04A854370440F2B8527FB38
:103A4000222720F9422B2E812F7030E0240F311DC8
:103A50002750310904C0880F991FAA1FBB1F2A9540
:103A6000D2F70C947B1480910F0A82508093070A3E
:103A70000C94490D60E171E08DE498E00E9457508C
:103A80000C941E0D10921A0E1092190E80ED97E0F4
:103A900090939B0080939A00909399008093980054
:103AA000809171008460809371000C94490D682F9F
:103AB00070E08DE00E944A5D0C947B0E8FEF0C94B9
:103AC000A90D28980C9406112A980C940111479876
:103AD0000C94FC1045980C94F710892FCACA8E01DB
:103AE0000F5F1D4F0C94350F50930E0A40930D0A33
:103AF00044CA80910F0A82508093070A29CE8FEF23
:103B00009FEF90930E0A80930D0A37CACF92DF92EF
:103B1000EF92FF920F931F93CF93DF938091111138
:103B200090911211863A23E0920711F40C94632BC2
:103B300088F18439E4E09E0709F419C508F054C0FF
:103B40008D3F23E0920711F40C94582A08F0EFC33C
:103B50008E3CF3E09F0711F40C946E2C10F40C943F
:103B6000A82F873E23E0920711F40C94D129843FBB
:103B7000E3E09E0711F40C94012A8B3D934011F46D
:103B80000C943D2D8FEF9FEF9093121180931111A4
:103B900080E0F2C0843AF2E09F0711F40C94DD2635
:103BA00008F0F3C08138E2E09E0711F40C94F92587
:103BB00008F4DBC78D38F2E09F0711F40C945C2603
:103BC00010F40C946F31853922E0920711F40C94B3
:103BD0009E268939E2E09E0711F40C94B9268139BA
:103BE000924081F60C947D26873DE4E09E0711F417
:103BF0000C946E3008F0FFC5813B24E0920709F475
:103C000076C010F40C949C2F813CE4E09E07D9F020
:103C10008D3CF4E09F0711F40C943A308C3B9440B7
:103C200009F0B0CF0E94D4668111A5C0E0919F1128
:103C3000F091A011808180938D1181EC94E090939C
:103C40001211809311118091801181508093801105
:103C5000882311F40C94023420918E1130918F112D
:103C600080911D0E90911E0EA0911F0EB091200EFE
:103C7000820F931FA11DB11D80931D0E90931E0EE8
:103C8000A0931F0EB093200EE091170E81E08E0FCF
:103C90008093170EF0E0EE0FFF1FEE0FFF1FE95E9F
:103CA000F54F80918C1190918D11A0918E11B09152
:103CB0008F1180839183A283B38380917C11909133
:103CC0007D11019790937D1180937C11892B11F4C4
:103CD0000C947C31109291111092901181E080939C
:103CE000981181EB94E090931211809311110E942E
:103CF000D466811140C0E0919F11F091A0118081A4
:103D0000A0911611B0911711A80FB11D87FDBA959A
:103D1000B0931711A093161180918B11882311F481
:103D20000C94D934209182113091831140918411E7
:103D3000509185110E94F382DC01CB01CAE0B69557
:103D4000A79597958795CA95D1F790938F118093F2
:103D50008E11109291111092901181E08093981120
:103D60008CEB94E090931211809311110E94D46611
:103D7000882309F45BCF81E0DF91CF911F910F91F0
:103D8000FF90EF90DF90CF9008958B3423E092075F
:103D900009F4C1C108F0A7C58830F3E09F0711F40A
:103DA0000C94F02710F40C94902F853323E09207A5
:103DB00009F487C08234E3E09E0709F453C18C30D4
:103DC000934009F0DFCE0E94D4668111D4CFE091F8
:103DD0009F11F091A0112081318130932111209306
:103DE000201100911C11E02FF0E0EE0FFF1FEE0FED
:103DF000FF1FEF5EFE4EC388D488E588F688C09228
:103E00007411D0927511E0927611F0927711C4E29C
:103E1000D1E1ECE4F1E110E00117F1F048815981C2
:103E20006A817B81440F551F661F771FDB01CA0122
:103E30008C199D09AE09BF098C8B9D8BAE8BBF8BF6
:103E400040835183628373838C199D09AE09BF0936
:103E5000848B958BA68BB78B1F5F24963496153079
:103E6000D9F6609118117091191180911A119091E1
:103E70001B11FC01E60FF71F4091221150912311F5
:103E80004E0F5F1F240F351FC21AD30AE108F10835
:103E9000C0927811D0927911E0927A11F0927B1150
:103EA000672B11F40C94772E1092911110929011AF
:103EB00082E08093981185E393E0909312118093B0
:103EC00011110E94D466811156CF80918B11E0911F
:103ED0009F11F091A011882311F40C944E34A0810D
:103EE000B1812091821130918311409184115091C0
:103EF00085110E94F382DC01CB014AE0B695A795BB
:103F0000979587954A95D1F790938F1180938E114D
:103F100090911D1190938D1180911C11882311F4A3
:103F20000C947E32409138115091391160913A11C0
:103F300070913B1177FF02C00C94CB370091601158
:103F4000109161112091621130916311400F511F46
:103F5000621F731F409338115093391160933A11C7
:103F600070933B11916090938D11813011F00C94FE
:103F70007E324091401150914111609142117091F7
:103F8000431177FF02C00C94CD3500916811109158
:103F9000691120916A1130916B11400F511F621FFE
:103FA000731F4093401150934111609342117093DD
:103FB000431190918D11946090938D11833039F15C
:103FC00040914411509145116091461170914711F3
:103FD00077FF02C00C94B73500916C1110916D11F0
:103FE00020916E1130916F11400F511F621F731F8E
:103FF00040934411509345116093461170934711BB
:1040000090918D11986090938D11843029F1809159
:10401000481190914911A0914A11B0914B11B7FFED
:1040200002C00C9411374091701150917111609140
:10403000721170917311840F951FA61FB71F809383
:10404000481190934911A0934A11B0934B1180915C
:104050008D11806180938D1182E493E09093121111
:104060008093111180918011815080938011882359
:1040700011F40C940C3420918E1130918F11809199
:104080001D0E90911E0EA0911F0EB091200E820F5A
:10409000931FA11DB11D80931D0E90931E0EA09322
:1040A0001F0EB093200EE091170E81E08E0F8093CB
:1040B000170EF0E0EE0FFF1FEE0FFF1FE95EF54F4A
:1040C00080918C1190918D11A0918E11B0918F11D2
:1040D00080839183A283B38380918C118F778093A7
:1040E0008C118091181190911911019790931911C9
:1040F00080931811892B11F40C94732E1092911146
:104100001092901182E0809398118BE493E0909349
:104110001211809311110E94D46681112CCE8091CE
:104120008B11E0919F11F091A011882311F40C9450
:104130008F34A081B18120918211309183114091FF
:104140008411509185110E94F382DC01CB012AE099
:10415000B695A795979587952A95D1F790938F1146
:1041600080938E1190911D1190938D1180911C114F
:10417000882311F40C941F33409138115091391158
:1041800060913A1170913B1177FF02C00C94233873
:1041900000916011109161112091621130916311B1
:1041A000400F511F621F731F4093381150933911F4
:1041B00060933A1170933B11916090938D1181300F
:1041C00011F00C941F3340914011509141116091B6
:1041D00042117091431177FF02C00C947A3600911E
:1041E00068111091691120916A1130916B11400F83
:1041F000511F621F731F40934011509341116093F0
:1042000042117093431190918D11946090938D1190
:10421000833039F14091441150914511609146111C
:104220007091471177FF02C00C94903600916C1189
:1042300010916D1120916E1130916F11400F511F2F
:10424000621F731F409344115093451160934611B0
:104250007093471190918D11986090938D118430D7
:1042600029F18091481190914911A0914A11B09182
:104270004B11B7FF02C00C94E1374091701150917F
:1042800071116091721170917311840F951FA61FA7
:10429000B71F8093481190934911A0934A11B0938E
:1042A0004B1180918D11806180938D1188E593E091
:1042B00090931211809311118091801181508093FD
:1042C0008011882311F40C94443420918E11309184
:1042D0008F1180911D0E90911E0EA0911F0EB09116
:1042E000200E820F931FA11DB11D80931D0E909370
:1042F0001E0EA0931F0EB093200EE091170E81E0CA
:104300008E0F8093170EF0E0EE0FFF1FEE0FFF1FD2
:10431000E95EF54F80918C1190918D11A0918E11D5
:10432000B0918F1180839183A283B383DACE8332DD
:1043300024E0920711F40C94AB3010F40C94883004
:104340008234E4E09E0709F440C08634F4E09F071D
:1043500009F45CC08733944009F014CC809190112B
:1043600090919111843AE1E09E0711F40C940F3181
:10437000853BF1E09F0711F40C94B733892B11F4BE
:104380000C94D030E0919F11F091A0118FEF9FEF2E
:1043900090939111809390118081918190937D11E0
:1043A00080937C1110928B118091131185FFD2C0E4
:1043B000109291111092901184E08093981182E4F0
:1043C00094E090931211809311110E94D466811190
:1043D000D2CCE0919F11F091A01180819181A281B6
:1043E000B3818093861190938711A0938811B09325
:1043F0008911109291111092901181E0809398117F
:1044000086E494E090931211809311110E94D46677
:104410008111B1CCE0919F11F091A011C081C093A6
:104420008A1180910109909102099595879595953A
:104430008795959587959595879520910001309161
:104440000101821B930B97FF02C00C94F134843658
:10445000910514F40C94C7342091C6103091C71004
:1044600040E050E060918611709187118091881131
:10447000909189110E9491829B01AC0104C05695D4
:10448000479537952795CA95D2F7213080E13807AF
:104490004105510520F020E030E140E050E020935C
:1044A0008211309383114093841150938511809130
:1044B000AE08213094E039074105510510F40C9401
:1044C0001634882331F1A091AF08B091B0080E9452
:1044D000F382DC01CB011AE0B695A79597958795F5
:1044E0001A95D1F78093821190938311A093841130
:1044F000B09385118091FA109091FB108E3FEFEFF1
:104500009E0711F40C94DC3801969093FB10809375
:10451000FA1081E080938B118091F8109091F9103E
:104520008E3FFFEF9F0711F40C942737019690936D
:10453000F9108093F8108091821190918311A091CD
:104540008411B091851181159240A105B10510F437
:104550000C945335109291111092901182E0809337
:10456000981184E994E090931211809311110E94A4
:10457000D466811100CCE0919F11F091A011A0812F
:10458000B181B0931711A093161180918B118823DC
:1045900011F40C941F3220918211309183114091BB
:1045A0008411509185110E94F382DC01CB01DAE085
:1045B000B695A79597958795DA95D1F790938F1132
:1045C00080938E11109291111092901181E080933E
:1045D00098118FE994E090931211809311118091BA
:1045E0009611909197116091941170919511681B9B
:1045F000790B70939E1160939D11A09198112A2FB1
:1046000030E06217730710F00C94DF346115710508
:1046100011F40C942532E0919211F091931140E045
:1046200050E020E0E80FF91F80E090E0A150EF019A
:10463000C40FD51F3881EC01C057DE4E39878A2F51
:10464000821B809398112F5F822F90E0AC01861718
:10465000970768F384EA91E0909391118093901109
:1046600080916008882309F486CB8091610890913D
:1046700062088855944011F40C94E03888E594E081
:104680009093620880936108DC0180915C089091AE
:104690005D08409158085091590860915A087091EE
:1046A0005B08480F591F611D711D409358085093B6
:1046B000590860935A0870935B08109260089093B1
:1046C000951180939411B0939311A09392119091AE
:1046D00098119923A1F020919D1130919E11F9011B
:1046E000E756FE4E265F3F4F8FEF890F280F311D93
:1046F00020573E4E8D918193E217F307D9F729E9B0
:1047000031E13093A01120939F11892F90E0909375
:10471000971180939611F9018FEF9FEF909391116C
:1047200080939011808180938D1184EA94E090931E
:10473000121180931111809180118150809380110A
:10474000882311F40C94C22B20918E1130918F117B
:1047500080911D0E90911E0EA0911F0EB091200E03
:10476000820F931FA11DB11D80931D0E90931E0EED
:10477000A0931F0EB093200EE091170E81E08E0FD4
:104780008093170EF0E0EE0FFF1FEE0FFF1FE95EA4
:10479000F54F80918C1190918D11A0918E11B09157
:1047A0008F1180839183A283B38380918C118F7743
:1047B00080938C11809113119091141186FD02C089
:1047C0000C946F3220917C1130917D112150310970
:1047D00030937D1120937C11232B09F07BCA91FF2C
:1047E00005C08091811181110E942E4410921211F6
:1047F00010921111C0CA8C3FE4E09E0711F40C9492
:10480000B23110F40C94BF2F8631F5E09F0709F404
:1048100060C08F3125E0920711F40C948F318C30F9
:10482000954009F0AFC90E94D4668111A4CAE091F5
:104830009F11F091A0118081918110928D1120E53E
:1048400033EC30938F1120938E1133C020918E1151
:1048500030918F1180911D0E90911E0EA0911F0E10
:10486000B091200E820F931FA11DB11D80931D0ECC
:1048700090931E0EA0931F0EB093200E81E08E0F1A
:104880008093170EF0E0EE0FFF1FEE0FFF1FE95EA3
:10489000F54F80918C1190918D11A0918E11B09156
:1048A0008F1180839183A283B38380917E11909135
:1048B0007F119C012150310930937F1120937E118B
:1048C000892B09F493CF86E195E0909312118093A0
:1048D0001111E091170E8091180E9E2F981B9F3F8B
:1048E00009F0B4CF48CA813723E0920711F40C9441
:1048F000502F10F40C94B32F8738E3E09E0709F48F
:10490000DBC08B39F3E09F0711F40C94342E8A3707
:10491000934009F037C90E94D46681112CCA809156
:104920008B11E0919F11F091A011882311F40C9448
:104930008734A0812091821130918311409184119C
:1049400050918511B0E00E94F382DC01CB01CAE0F6
:10495000B695A79597958795CA95D1F790938F119E
:1049600080938E1190911D1190938D1180911C1147
:10497000882311F40C94F63240913811509139117A
:1049800060913A1170913B1177FF02C00C94393855
:1049900000916011109161112091621130916311A9
:1049A000400F511F621F731F4093381150933911EC
:1049B00060933A1170933B11916090938D11813007
:1049C00011F00C94F63240914011509141116091D8
:1049D00042117091431177FF02C00C94E6360091AA
:1049E00068111091691120916A1130916B11400F7B
:1049F000511F621F731F40934011509341116093E8
:104A000042117093431190918D11946090938D1188
:104A1000833039F140914411509145116091461114
:104A20007091471177FF02C00C94D03600916C1141
:104A300010916D1120916E1130916F11400F511F27
:104A4000621F731F409344115093451160934611A8
:104A50007093471190918D11986090938D118430CF
:104A600029F18091481190914911A0914A11B0917A
:104A70004B11B7FF02C00C948F37409170115091C9
:104A800071116091721170917311840F951FA61F9F
:104A9000B71F8093481190934911A0934A11B09386
:104AA0004B1180918D11806180938D1187E893E087
:104AB00090931211809311118091801181508093F5
:104AC0008011882311F40C943A3420918E11309186
:104AD0008F1180911D0E90911E0EA0911F0EB0910E
:104AE000200E820F931FA11DB11D80931D0E909368
:104AF0001E0EA0931F0EB093200EE091170E81E0C2
:104B00008E0F8093170EF0E0EE0FFF1FEE0FFF1FCA
:104B1000E95EF54F80918C1190918D11A0918E11CD
:104B2000B0918F1180839183A283B38380911A11F6
:104B300090911B11019790931B1180931A11892B4F
:104B400009F4D5C7109291111092901181E08093D1
:104B500098118AE793E090931211809311110E94AB
:104B6000D466882309F4DBCE06C9823622E0920798
:104B700009F420C308F452C2863622E0920709F4F1
:104B800032C38837924011F00C94C21D809190116D
:104B900090919111843A21E0920709F48EC3853BEC
:104BA000E1E09E0711F40C946433892B09F444C3AB
:104BB000E0919F11F091A0118FEF9FEF90939111D1
:104BC00080939011908190931C1181E001C0880F17
:104BD0009A95EAF780931D111092911110929011FD
:104BE00084E08093981181E892E090931211809371
:104BF00011110E94D4668111BEC8E0919F11F091FD
:104C0000A01180819181A281B3818093241190931E
:104C10002511A0932611B093271110929111109293
:104C2000901184E08093981185E892E0909312119E
:104C3000809311110E94D46681119DC8E0919F114B
:104C4000F091A01180819181A281B381809328117C
:104C500090932911A0932A11B0932B1110929111C6
:104C60001092901184E08093981189E892E09093DB
:104C70001211809311110E94D46681117CC8E091B9
:104C80009F11F091A01180819181A281B3818093C5
:104C90002C1190932D11A0932E11B0932F111092DF
:104CA00091111092901184E0809398118DE892E018
:104CB00090931211809311110E94D46681115BC8E8
:104CC000E0919F11F091A01180819181A281B38127
:104CD0008093301190933111A0933211B09333111E
:104CE000109291111092901184E08093981181E9B3
:104CF00092E090931211809311110E94D466811159
:104D00003AC8E0919F11F091A01180819181A28118
:104D1000B3818093341190933511A0933611B093E1
:104D20003711109291111092901182E08093981196
:104D300085E992E090931211809311110E94D4663C
:104D4000811119C8E0919F11F091A011808191818A
:104D50009093191180931811109291111092901143
:104D600082E08093981189E992E0909312118093E8
:104D700011110E94D46681110C94BB1EE0919F1109
:104D8000F091A0118081918190931B1180931A1151
:104D900010928B11809113119091141190FFDEC02D
:104DA000109291111092901184E08093981184EAEE
:104DB00092E090931211809311110E94D466811198
:104DC0000C94BB1EE0919F11F091A0118081918104
:104DD000A281B3818093861190938711A09388114B
:104DE000B0938911109291111092901181E08093EB
:104DF000981188EA92E090931211809311110E9409
:104E0000D46681110C94BB1EE0919F11F091A0110A
:104E1000C081C0938A116091861170918711809131
:104E2000881190918911611571058105910511F421
:104E30000C9448332091010930910209A90155953C
:104E40004795559547955595479555954795209183
:104E5000000130910101FA01E21BF30B9F01F7FF02
:104E600002C00C942B37E436F10514F40C94AC35E5
:104E70002091C6103091C71040E050E00E9491820E
:104E80009B01AC0104C05695479537952795CA9567
:104E9000D2F72130F0E13F074105510520F020E035
:104EA00030E140E050E02093821130938311409331
:104EB000841150938511213084E038074105510554
:104EC00010F40C94F9348091AE08882331F1A0914C
:104ED000AF08B091B0080E94F382DC01CB01DAE0A8
:104EE000B695A79597958795DA95D1F78093821116
:104EF00090938311A0938411B09385118091FA103F
:104F00009091FB108E3FEFEF9E0711F40C942A391D
:104F100001969093FB108093FA1081E080938B119F
:104F20008091F8109091F9108E3FFFEF9F0711F4D8
:104F30000C94D53801969093F9108093F8108091D5
:104F4000821190918311A0918411B09185118115E6
:104F50009240A105B10510F40C94393510929111CD
:104F60001092901182E0809398118EEF92E09093CE
:104F70001211809311110E94D46681110C94BB1EF2
:104F800080918B11E0919F11F091A011882311F471
:104F90000C94F031A081B181209182113091831164
:104FA00040918411509185110E94F382DC01CB0164
:104FB000CAE0B695A79597958795CA95D1F790932E
:104FC0001F1180931E11109291111092901182E086
:104FD0008093981188E093E09093121180931111BF
:104FE0000E94D46681110C94BB1EE0919F11F09138
:104FF000A0118081918190932311809322111092AE
:1050000091111092901182E0809398118CE093E0BE
:1050100090931211809311110C94E31E009711F4D8
:105020000C94C8318034924011F00C94C21D0E943F
:10503000D46681110C94BB1EE0919F11F091A011D8
:1050400080818C3011F40C94A53710F00C946734E7
:10505000873009F4A9C08B3011F40C94A53183304A
:1050600011F40C94BC379091070A2091080A392F4B
:10507000321B3F3F41F1E1E0E90FE093070AA92F1E
:10508000B0E0AB5FB64F12961C923E2F321B3F3FF3
:10509000D1F032E0390F3093070AF0E0EB5FF64FC2
:1050A00043E04283432F50E05093100A40930F0A8D
:1050B000321B3F3F41F09D5F9093070AFA01EB5F7F
:1050C000F64F91E092839091070A492F50E0509358
:1050D0000E0A40930D0A392F321B3F3F11F40C94F6
:1050E00022399F5F9093070ADA01AB5FB64F91E0D8
:1050F00012969C93129740910F0A5091100AFA0150
:10510000FF27EB5FF64F92819F5F928312969C91EF
:1051100012979F5F12969C93A091070A9A2F921B59
:105120009F3F11F40C94323991E09A0F9093070A43
:10513000B0E0AB5FB64F35E012963C9332813F5FF3
:105140003283882311F40C94123960910D0A709106
:105150000E0AEB01DD27CB5FD64F3A813F5F3A83E2
:10516000392F321B3F3F11F40C942E3931E0390FA7
:105170003093070AA92FB0E0AB5FB64F12968C931D
:1051800082818F5F8283321B3F3F11F40C941D3963
:105190006F3F7F4F11F08FEF8A8380910B0A8F5FF3
:1051A00080930B0A0E94F14E82E692E090931211D6
:1051B000809311118091170E9091180E891B809584
:1051C00080938011882311F40C94BB1E10929111CE
:1051D0001092901182E08093981186E692E090936D
:1051E0001211809311110E94D46681110C94BB1E80
:1051F000E0919F11F091A011808191819093141101
:105200008093131187FF02C00C945B3420918C11A2
:1052100091FD02C00C945634206420938C1110929E
:1052200091111092901181E08093981188E792E09B
:105230009093121180931111809196119091971172
:105240006091941170919511681B790B70939E1168
:1052500060939D11A09198112A2F30E06217730777
:1052600010F00C9441356115710511F40C945E3306
:10527000E0919211F091931140E050E020E0E80FAE
:10528000F91F80E090E0A150EF01C40FD51F3881D5
:10529000EC01C057DE4E39878A2F821B809398110C
:1052A0002F5F822F90E0AC018617970768F384EA9E
:1052B00091E09093911180939011809160088823E0
:1052C00011F40C94BB1E809161089091620888557E
:1052D000944011F40C94093988E594E090936208A5
:1052E00080936108DC0180915C0890915D08409199
:1052F00058085091590860915A0870915B08480FFE
:10530000591F611D711D40935808509359086093AF
:105310005A0870935B0810926008909395118093DF
:105320009411B0939311A09392114091981144233A
:10533000A9F080919D1190919E11FC01E756FE4EBF
:105340009C01265F3F4F8FEF840F280F311D2057A0
:105350003E4E8D918193E217F307D9F789E991E1E8
:105360009093A01180939F11842F90E090939711B8
:1053700080939611E9E9F1E11FCC80912011909181
:105380002111892B09F409C21092911110929011E8
:1053900082E08093981187EE93E0909312118093AE
:1053A00011110E94D46681110C94BB1E80918B1147
:1053B000E0919F11F091A011882311F40C944F33C8
:1053C000A081B1812091821130918311409184118B
:1053D000509185110E94F382DC01CB014AE0B69521
:1053E000A795979587954A95D1F790938F118093BC
:1053F0008E110E94096884EF93E0909312118093BC
:10540000111180918011815080938011882309F4BB
:10541000B9C120918E1130918F1180911D0E909104
:105420001E0EA0911F0EB091200E820F931FA11D82
:10543000B11D80931D0E90931E0EA0931F0EB0936E
:10544000200EE091170E81E08E0F8093170EF0E092
:10545000EE0FFF1FEE0FFF1FE95EF54F80918C11DD
:1054600090918D11A0918E11B0918F1180839183B5
:10547000A283B38380918C118F7780938C1180915C
:105480002011909121110197909321118093201167
:10549000892B09F482C1109291111092901182E02F
:1054A000809398118DEF93E09093121180931111D6
:1054B0000E94D46681110C94BB1E80918B11E091E7
:1054C0009F11F091A011882311F40C945F34A081F6
:1054D000B1812091821130918311409184115091BA
:1054E00085110E94F382DC01CB013AE0B695A795C5
:1054F000979587953A95D1F790938F1180938E1158
:1055000090911D1190938D1180911C11882311F49D
:105510000C94A732409138115091391160913A1191
:1055200070913B1177FF02C00C94F7370091601126
:10553000109161112091621130916311400F511F40
:10554000621F731F409338115093391160933A11C1
:1055500070933B11916090938D11813009F0F7C7E2
:10556000409140115091411160914211709143114D
:1055700077FF02C00C94F835009168111091691101
:1055800020916A1130916B11400F511F621F731FE0
:105590004093401150934111609342117093431115
:1055A00090918D11946090938D11833039F14091D9
:1055B000441150914511609146117091471177FF48
:1055C00002C00C940E3600916C1110916D11209157
:1055D0006E1130916F11400F511F621F731F409366
:1055E0004411509345116093461170934711909167
:1055F0008D11986090938D11843029F1809148111C
:1056000090914911A0914A11B0914B11B7FF02C07E
:105610000C945F374091701150917111609172112B
:1056200070917311840F951FA61FB71F80934811A7
:1056300090934911A0934A11B0934B1180918D1111
:10564000806180938D118AE094E090931211809391
:10565000111180918011815080938011882309F469
:1056600091C020918E1130918F1180911D0E9091DB
:105670001E0EA0911F0EB091200E820F931FA11D30
:10568000B11D80931D0E90931E0EA0931F0EB0931C
:10569000200EE091170E81E08E0F8093170EF0E040
:1056A000EE0FFF1FEE0FFF1FE95EF54F80918C118B
:1056B00090918D11A0918E11B0918F118083918363
:1056C000A283B383DCCE80918011815080938011BE
:1056D000882309F457C020918E1130918F11809149
:1056E0001D0E90911E0EA0911F0EB091200E820FE4
:1056F000931FA11DB11D80931D0E90931E0EA093AC
:105700001F0EB093200EE091170E81E08E0F809354
:10571000170EF0E0EE0FFF1FEE0FFF1FE95EF54FD3
:1057200080918C1190918D11A0918E11B0918F115B
:1057300080839183A283B3838091781190917911B2
:10574000A0917A11B0917B110197A109B1098093C1
:10575000781190937911A0937A11B0937B11892BD2
:105760008A2B8B2B09F10E94096886EA93E09093BB
:1057700012118093111180918011815080938011BA
:105780008111A9CF8091170E9091180E891B8095D9
:105790008093801181E00C94BC1E80911311909134
:1057A000141192FD1EC822C88091221190912311DC
:1057B000892B09F4E2CD109291111092901181E0A1
:1057C0008093981188EB93E09093121180931111BC
:1057D0000E94D46681110C94BB1E80918B11E091C4
:1057E0009F11F091A011882309F461C7A081209135
:1057F0008211309183114091841150918511B0E054
:105800000E94F382DC01CB016AE0B695A7959795DB
:1058100087956A95D1F790938F1180938E110E948E
:10582000096885EC93E09093121180931111809197
:105830008011815080938011882309F4A3CF209197
:105840008E1130918F1180911D0E90911E0EA0919E
:105850001F0EB091200E820F931FA11DB11D8093CA
:105860001D0E90931E0EA0931F0EB093200EE0917C
:10587000170E81E08E0F8093170EF0E0EE0FFF1FE2
:10588000EE0FFF1FE95EF54F80918C1190918D1105
:10589000A0918E11B0918F1180839183A283B383E5
:1058A00080918C118F7780938C118091221190912F
:1058B000231101979093231180932211892B09F4CE
:1058C0005CCD109291111092901181E0809398110B
:1058D0008EEC93E090931211809311110E94D46684
:1058E00081110C94BB1E80918B11E0919F11F0915E
:1058F000A011882309F4FDC7A08120918211309165
:1059000083114091841150918511B0E00E94F3827F
:10591000DC01CB015AE0B695A795979587955A95E6
:10592000D1F790938F1180938E1190911D119093C8
:105930008D1180911C11882309F431C640913811D2
:105940005091391160913A1170913B1177FF02C06B
:105950000C940D3800916011109161112091621129
:1059600030916311400F511F621F731F4093381114
:105970005093391160933A1170933B119160909359
:105980008D11813009F00BC64091401150914111A9
:10599000609142117091431177FF02C00C94393627
:1059A000009168111091691120916A1130916B1169
:1059B000400F511F621F731F4093401150934111BC
:1059C000609342117093431190918D119460909364
:1059D0008D11833039F140914411509145116091FE
:1059E00046117091471177FF02C00C946436009104
:1059F0006C1110916D1120916E1130916F11400F4B
:105A0000511F621F731F40934411509345116093BF
:105A100046117093471190918D11986090938D115C
:105A2000843029F18091481190914911A0914A1137
:105A3000B0914B11B7FF02C00C94493740917011DF
:105A4000509171116091721170917311840F951FB3
:105A5000A61FB71F8093481190934911A0934A1134
:105A6000B0934B1180918D11806180938D118BEDDE
:105A700093E09093121180931111809180118150C5
:105A800080938011882309F47DCE20918E1130916E
:105A90008F1180911D0E90911E0EA0911F0EB0913E
:105AA000200E820F931FA11DB11D80931D0E909398
:105AB0001E0EA0931F0EB093200EE091170E81E0F2
:105AC0008E0F8093170EF0E0EE0FFF1FEE0FFF1FFB
:105AD000E95EF54F80918C1190918D11A0918E11FE
