:10000000CBC50000F3C50000F1C50000EFC500003E
:10001000EDC50000EBC50000E9C50000E7C5000024
:10002000E5C50000E3C50000E1C50000DFC5000034
:10003000DDC50000DBC50000D9C50000D7C5000044
:10004000D5C50000D3C500000C94284ECFC50000D4
:100050000C94A257CBC50000C9C50000C7C500005D
:10006000C5C50000C3C50000C1C50000BFC5000074
:10007000BDC50000BBC50000B9C50000B7C5000084
:100080000C94ED550C94464FB1C50000AE6F0B704B
:100090008D6E8D6E8D6EDA6FCD6F9C705A7087701D
:1000A000C96F8D6E8D6E8D6E8D6E8D6E8D6E8D6E3B
:1000B0008D6E8D6E8D6E8D6E8D6E157313738D6E50
:1000C0008D6E8D6E08730673047302738D6E0073EC
:1000D000FD728D6E2E73F272E572D972C472B672B1
:1000E00096729372F3718D6EDF71A0719D71917133
:1000F0008D6E8D6E8D718D6E8871777172715B7181
:100100001C711671147112710B71EF70B36F08705E
:10011000DB4CDF4CE34CE94CDA4CDA4CEF4CF54C61
:10012000FB4CD54CDB4DE04DD14DC74D8D4D8D4D2C
:10013000BF4DB74DAD4DA04D441F041D671B2A1A7E
:100140002B195718A21706177B16001692152D1596
:10015000D1147C142E14E513A11362132613ED128F
:10016000B812851255122712FC11D211AA1184114E
:100170005F113B111911F810D910BA109C108010A2
:10018000641049102F101510FC0FE40FCD0FB60F9F
:10019000A00F8A0F750F610F4C0F390F250F130F2A
:1001A000000FEE0EDD0ECB0EBA0EAA0E990E890EC2
:1001B0007A0E6A0E5B0E4C0E3E0E2F0E210E130EA3
:1001C000060EF80DEB0DDE0DD10DC50DB80DAC0D05
:1001D000A00D940D880D7D0D710D660D5B0D500DFC
:1001E000450D3B0D300D260D1B0D110D070DFD0CA2
:1001F000F30CEA0CE00CD70CCD0CC40CBB0CB20C0D
:10020000A90CA00C980C8F0C860C7E0C760C6D0C37
:10021000650C5D0C550C4D0C450C3D0C350C2E0C35
:10022000260C1F0C170C100C080C010CFA0BF30B0E
:10023000EC0BE50BDE0BD70BD00BC90BC20BBC0BC9
:10024000B50BAE0BA80BA10B9B0B950B8E0B880B64
:10025000820B7B0B750B6F0B690B630B5D0B570BE5
:10026000510B4C0B460B400B3A0B350B2F0B290B4C
:10027000240B1E0B190B130B0E0B080B030BFE0AA2
:10028000F80AF30AEE0AE90AE40ADE0AD90AD40AED
:10029000CF0ACA0AC50AC00ABB0AB60AB10AAD0A21
:1002A000A80AA30A9E0A990A950A900A8B0A870A45
:1002B000820A7E0A790A740A700A6B0A670A620A5D
:1002C0005E0A5A0A550A510A4C0A480A440A400A68
:1002D0003B0A370A330A2F0A2A0A260A220A1E0A6A
:1002E0001A0A160A120A0E0A0A0A060A020AFE095F
:1002F000FA09F609F209EE09EA09E609E209DE0956
:10030000DA09D709D309CF09CB09C809C409C0093B
:10031000BC09B909B509B109AE09AA09A609A30919
:100320009F099B099809940991098D098A098609F1
:1003300083097F097C097809750971096E096B09C0
:100340006709640960095D095A095609530950098A
:100350004C094909460942093F093C09390935094F
:1003600032092F092C092909250922091F091C090D
:100370001909160912090F090C09090906090309C7
:100380000009FD08FA08F708F408F108ED08EA0882
:10039000E708E408E108DE08DB08D908D608D30836
:1003A000D008CD08CA08C708C408C108BE08BB08E1
:1003B000B808B508B308B008AD08AA08A708A4088B
:1003C000A1089F089C0899089608930891088E0830
:1003D0008B0888088608830880087D087B087808D1
:1003E0007508720870086D086A0868086508620870
:1003F0005F085D085A085708550852084F084D080D
:100400004A0848084508420840083D083A083808A4
:100410003508330830082E082B082808260823083A
:1004200021081E081C0819081708140811080F08CD
:100430000C080A080708050802080008FD07FB0762
:10044000F807F607F307F107EE07EC07EA07E707F7
:10045000E507E207E007DD07DB07D807D607D40783
:10046000D107CF07CC07CA07C707C507C307C0070F
:10047000BE07BB07B907B707B407B207B007AD0798
:10048000AB07A807A607A407A1079F079D079A0720
:1004900098079607930791078F078C078A078807A5
:1004A0008507830781077E077C077A07780775072A
:1004B000730771076E076C076A07670765076307AD
:1004C00061075E075C075A0758075507530751072E
:1004D0004F074C074A0748074607430741073F07AE
:1004E0003D073A0738073607340731072F072D072E
:1004F0002B07290726072407220720071D071B07AC
:10050000190717071507120710070E070C070A0728
:100510000707050703070107FF06FC06FA06F806AA
:10052000F606F406F206EF06ED06EB06E906E70628
:10053000E506E206E006DE06DC06DA06D806D506A3
:10054000D306D106CF06CD06CB06C806C606C4061E
:10055000C206C006BE06BC06B906B706B506B30697
:10056000B106AF06AD06AA06A806A606A406A20610
:10057000A0069E069C069906970695069306910688
:100580008F068D068B068806860684068206800600
:100590007E067C067A0677067506730671066F0678
:1005A0006D066B06690666066406620660065E06F0
:1005B0005C065A0658065606530651064F064D0667
:1005C0004B06490647064506430640063E063C06DE
:1005D0003A06380636063406320630062D062B0655
:1005E000290627062506230621061F061D061A06CC
:1005F000180616061406120610060E060C060A0643
:100600000706050603060106FF05FD05FB05F905BE
:10061000F605F405F205F005EE05EC05EA05E8053A
:10062000E505E305E105DF05DD05DB05D905D705B2
:10063000D405D205D005CE05CC05CA05C805C6052A
:10064000C305C105BF05BD05BB05B905B705B405A3
:10065000B205B005AE05AC05AA05A705A505A3051D
:10066000A1059F059D059B05980596059405920596
:1006700090058E058B058905870585058305810510
:100680007E057C057A0578057605730571056F058D
:100690006D056B05680566056405620560055D0509
:1006A0005B05590557055505520550054E054C0586
:1006B000490547054505430541053E053C053A0505
:1006C00038053505330531052F052C052A05280584
:1006D0002605230521051F051C051A051805160505
:1006E000130511050F050C050A0508050605030588
:1006F0000105FF04FC04FA04F804F504F304F10412
:10070000EE04EC04EA04E704E504E304E004DE0498
:10071000DB04D904D704D404D204D004CD04CB0420
:10072000C804C604C404C104BF04BC04BA04B804A9
:10073000B504B304B004AE04AB04A904A604A40435
:10074000A1049F049D049A049804950493049004C2
:100750008E048B0489048604830481047E047C0453
:1007600079047704740472046F046C046A046704E7
:10077000650462045F045D045A045804550452047D
:1007800050044D044A0448044504420440043D0416
:100790003A043704350432042F042D042A042704B4
:1007A000240421041F041C04190416041304110456
:1007B0000E040B040804050402040004FD03FA03FC
:1007C000F703F403F103EE03EB03E803E503E203AD
:1007D000DF03DC03D903D603D303D003CD03CA035D
:1007E000C703C403C103BE03BB03B703B403B10310
:1007F000AE03AB03A803A403A1039E039B039703CB
:10080000940391038E038A038703840380037D038B
:100810007903760373036F036C0368036503610355
:100820005E035A03570353034F034C034803440327
:1008300041033D033903360332032E032A03260303
:1008400023031F031B03170313030F030B030703E8
:100850000303FF02FB02F702F302EE02EA02E602E2
:10086000E202DD02D902D502D002CC02C702C302E5
:10087000BE02BA02B502B102AC02A702A3029E02F6
:10088000990294028F028A02850280027B0276021C
:1008900071026C02660261025C02560251024B0256
:1008A000460240023A0234022F02290223021D02AC
:1008B000160210020A020402FD01F701F001E9012B
:1008C000E201DC01D501CD01C601BF01B701B001D4
:1008D000A801A001980190018801800177016E01B3
:1008E00065015C0153014A01400136012C012201DE
:1008F00017010C010101F500EA00DD00D100C40080
:10090000B600A9009A008B007C006C005B004900D7
:10091000370023000F00F9FF000021104220633050
:100920008440A550C660E770088129914AA16BB147
:100930008CC1ADD1CEE1EFF13112100273325222EF
:10094000B5529442F772D662399318837BB35AA397
:10095000BDD39CC3FFF3DEE36224433420040114BF
:10096000E664C774A44485546AA54BB528850995E7
:10097000EEE5CFF5ACC58DD553367226111630068F
:10098000D776F6669556B4465BB77AA71997388737
:10099000DFF7FEE79DD7BCC7C448E5588668A7784F
:1009A0004008611802282338CCC9EDD98EE9AFF987
:1009B000488969990AA92BB9F55AD44AB77A966A2F
:1009C000711A500A333A122AFDDBDCCBBFFB9EEBD7
:1009D000799B588B3BBB1AABA66C877CE44CC55CFF
:1009E000222C033C600C411CAEED8FFDECCDCDDD27
:1009F0002AAD0BBD688D499D977EB66ED55EF44ECF
:100A0000133E322E511E700E9FFFBEEFDDDFFCCF76
:100A10001BBF3AAF599F788F8891A981CAB1EBA1CA
:100A20000CD12DC14EF16FE18010A100C230E32046
:100A30000450254046706760B9839893FBA3DAB3EE
:100A40003DC31CD37FE35EF3B1029012F322D23296
:100A50003542145277625672EAB5CBA5A8958985BE
:100A60006EF54FE52CD50DC5E234C324A0148104E6
:100A70006674476424540544DBA7FAB79987B8978E
:100A80005FE77EF71DC73CD7D326F2369106B01636
:100A900057667676154634564CD96DC90EF92FE94E
:100AA000C899E9898AB9ABA9445865480678276886
:100AB000C018E1088238A3287DCB5CDB3FEB1EFB2E
:100AC000F98BD89BBBAB9ABB754A545A376A167AD6
:100AD000F10AD01AB32A923A2EFD0FED6CDD4DCDFE
:100AE000AABD8BADE89DC98D267C076C645C454C26
:100AF000A23C832CE01CC10C1FEF3EFF5DCF7CDFCE
:100B00009BAFBABFD98FF89F176E367E554E745E75
:100B1000932EB23ED10EF01E0000200023002600CE
:100B20002900020202020202020204040404040474
:100B3000040403030303030303030101010101018F
:100B40000101010204081020408001020408102065
:100B500040800102040810204080804020100804DA
:100B60000201000000010200090A00000000040365
:100B70000807000000000000000000000000000066
:100B8000000000002100240027002A0000002200AD
:100B9000250028002B00EC7311241FBECFEFD0E4FA
:100BA000DEBFCDBF11E0A0E0B1E0E4E3F5E001E09D
:100BB0000BBF02C007900D92AC34B107D9F721E109
:100BC000ACE4B1E001C01D92A23DB207E1F715E02F
:100BD000CCECD5E004C02197FE010E944E82CB3CB4
:100BE000D107C9F70E94385A0C948B8209CACF9258
:100BF000DF92EF92FF920F931F93CF93DF93809139
:100C00003710909138108C3A23E0920711F40C942D
:100C1000E51608F464C18A39E4E09E0711F40C94E7
:100C2000BA1208F087C1833024E0920711F40C94C3
:100C3000181408F036C5843DF3E09F0709F467C037
:100C400010F40C9403198D3E23E0920711F40C94D8
:100C500090138A3FE3E09E0711F40C94C013813E89
:100C6000934011F00C946E138091A61081508093E4
:100C7000A610882309F423C12091B4103091B51037
:100C80008091430D9091440DA091450DB091460D7A
:100C9000820F931FA11DB11D8093430D9093440DAE
:100CA000A093450DB093460DE0913D0D81E08E0F70
:100CB00080933D0DF0E0EE0FFF1FEE0FFF1FE35C92
:100CC000F64F8091B2109091B310A091B410B091F2
:100CD000B51080839183A283B38380914810909153
:100CE000491001979093491080934810892B11F473
:100CF0000C9477131092B7101092B61081E0809385
:100D0000BE1084ED93E090933810809337100E94CA
:100D100003598111DAC08091B110E091C510F091B2
:100D2000C610882311F40C94D81CA0812091A8101F
:100D30003091A9104091AA105091AB10B0E00E94E0
:100D40006382DC01CB012AE0B695A795979587953C
:100D50002A95D1F79093B5108093B41090914310D9
:100D60009093B31080914210882311F40C94A21B2D
:100D700040915E1050915F10609160107091611011
:100D800077FF02C00C94DD2100918610109187102E
:100D90002091881030918910400F511F621F731FDE
:100DA00040935E1050935F106093601070936110D9
:100DB00091609093B310813011F00C94A21B40917C
:100DC000661050916710609168107091691077FFFC
:100DD00002C00C94012000918E1010918F10209170
:100DE000901030919110400F511F621F731F40935C
:100DF000661050936710609368107093691090911B
:100E0000B31094609093B310833039F140916A101D
:100E100050916B1060916C1070916D1077FF02C053
:100E20000C9417200091921010919310209194101F
:100E300030919510400F511F621F731F40936A102D
:100E400050936B1060936C1070936D109091B31071
:100E500098609093B310843029F180916E10909136
:100E60006F10A0917010B0917110B7FF02C00C9478
:100E70002821409196105091971060919810709190
:100E80009910840F951FA61FB71F80936E10909323
:100E90006F10A0937010B09371108091B3108061A7
:100EA0008093B31081EE93E09093381080933710C5
:100EB0008091A61081508093A6108111DDCE86EA24
:100EC00090E10E94C8578111D7CE81E0DF91CF9188
:100ED0001F910F91FF90EF90DF90CF900895843A8B
:100EE000F2E09F0711F40C940A1008F0ECC081386E
:100EF000E2E09E0709F4A6C708F47CC68D38F2E04C
:100F00009F0711F40C94860F10F40C94191985396D
:100F100022E0920711F40C94CA0F8939E2E09E078F
:100F200011F40C94E60F8139924011F00C946E1379
:100F30000C94A80F8D3DE4E09E0711F40C94191A4F
:100F400008F088C4873B24E0920709F477C010F4C6
:100F50000C94F918873CE4E09E07E1F0833DF4E04F
:100F60009F0711F40C94E519823C944011F00C9405
:100F70006E130E9403598111A8CFE091C510F09122
:100F8000C61080818093B31087EC94E09093381062
:100F9000809337108091A61081508093A6108823EB
:100FA00011F40C945F1C2091B4103091B510809115
:100FB000430D9091440DA091450DB091460D820FC7
:100FC000931FA11DB11D8093430D9093440DA093D9
:100FD000450DB093460DE0913D0D81E08E0F80935D
:100FE0003D0DF0E0EE0FFF1FEE0FFF1FE35CF64F2D
:100FF0008091B2109091B310A091B410B091B5103F
:1010000080839183A283B3838091A2109091A310D7
:1010100001979093A3108093A210892B11F40C9444
:101020003B1A1092B7101092B61081E08093BE1058
:1010300087EB94E090933810809337100E94035907
:10104000811143CFE091C510F091C6108081A0912D
:101050003C10B0913D10A80FB11D87FDBA95B0931B
:101060003D10A0933C108091B110882311F40C9492
:101070007C1D2091A8103091A9104091AA10509188
:10108000AB100E946382DC01CB014AE0B695A795C4
:10109000979587954A95D1F79093B5108093B410A2
:1010A0001092B7101092B61081E08093BE1082ECBF
:1010B00094E090933810809337100E94035988234E
:1010C00009F45BCF02CF8B3423E0920709F4DDC132
:1010D00008F04EC48830F3E09F0711F40C941D1102
:1010E00010F40C940D19853323E0920709F4A3C082
:1010F0008234E3E09E0709F46FC18C30934011F015
:101100000C946E138091B6109091B710843A21E040
:10111000920711F40C947A11853BE1E09E0711F4DB
:101120000C94CF1A892B11F40C943911E091C5104D
:10113000F091C6108FEF9FEF9093B7108093B61089
:101140002081318130934710209346100091421046
:10115000E02FF0E0EE0FFF1FEE0FFF1FE95CFF4EE8
:10116000C388D488E588F688C0929A10D0929B10E4
:10117000E0929C10F0929D10CAE4D0E1E2E7F0E129
:1011800010E00117F1F0488159816A817B81440F99
:10119000551F661F771FDB01CA018C199D09AE0917
:1011A000BF098C8B9D8BAE8BBF8B40835183628339
:1011B00073838C199D09AE09BF09848B958BA68B0F
:1011C000B78B1F5F249634961530D9F660913E1088
:1011D00070913F108091401090914110FC01E60FFA
:1011E000F71F40914810509149104E0F5F1F240F78
:1011F000351FC21AD30AE108F108C0929E10D0929E
:101200009F10E092A010F092A110672B11F40C94A3
:10121000CE178091B2108F7B8093B2101092B710CE
:101220001092B61082E08093BE1085E393E0909315
:101230003810809337100E940359811146CE809157
:10124000B110E091C510F091C610882311F40C94F0
:10125000B41CA081B1812091A8103091A9104091B7
:10126000AA105091AB100E946382DC01CB012AE0EE
:10127000B695A795979587952A95D1F79093B51030
:101280008093B410909143109093B31080914210CA
:10129000882311F40C94481B40915E1050915F100C
:1012A000609160107091611077FF02C00C94C721AB
:1012B000009186101091871020918810309189102C
:1012C000400F511F621F731F40935E1050935F10B9
:1012D000609360107093611091609093B3108130AF
:1012E00011F00C94481B409166105091671060916A
:1012F00068107091691077FF02C00C94831F0091F1
:101300008E1010918F102091901030919110400FFD
:10131000511F621F731F40936610509367106093B4
:101320006810709369109091B31094609093B3100B
:10133000833039F140916A1050916B1060916C10BC
:1013400070916D1077FF02C00C946D1F0091921088
:10135000109193102091941030919510400F511FCF
:10136000621F731F40936A1050936B1060936C1050
:1013700070936D109091B31098609093B310843077
:1013800029F180916E1090916F10A0917010B09122
:101390007110B7FF02C00C94122140919610509129
:1013A00097106091981070919910840F951FA61F47
:1013B000B71F80936E1090936F10A0937010B0932E
:1013C00071108091B31080618093B31082E493E038
:1013D00090933810809337108091A610815080939D
:1013E000A610882311F40C94691C2091B41030913C
:1013F000B5108091430D9091440DA091450DB09191
:10140000460D820F931FA11DB11D8093430D909334
:10141000440DA093450DB093460DE0913D0D81E044
:101420008E0F80933D0DF0E0EE0FFF1FEE0FFF1FBC
:10143000E35CF64F8091B2109091B310A091B4107C
:10144000B091B51080839183A283B3838091B21051
:101450008F778093B21080913E1090913F1001974A
:1014600090933F1080933E10892B11F40C94CA176F
:101470001092B7101092B61082E08093BE108BE4E9
:1014800093E090933810809337100E940359811194
:101490001CCD8091B110E091C510F091C610882349
:1014A00011F40C94321DA081B1812091A8103091CB
:1014B000A9104091AA105091AB100E946382DC01E8
:1014C000CB011AE0B695A795979587951A95D1F710
:1014D0009093B5108093B410909143109093B310F3
:1014E00080914210882311F40C94F41B40915E10FB
:1014F00050915F10609160107091611077FF02C091
:101500000C94312200918610109187102091881040
:1015100030918910400F511F621F731F40935E105E
:1015200050935F106093601070936110916090937E
:10153000B310813011F00C94F41B4091661050915F
:101540006710609168107091691077FF02C00C9469
:10155000992000918E1010918F1020919010309151
:101560009110400F511F621F731F409366105093DC
:10157000671060936810709369109091B310946035
:101580009093B310833039F140916A1050916B10F1
:1015900060916C1070916D1077FF02C00C94422026
:1015A0000091921010919310209194103091951009
:1015B000400F511F621F731F40936A1050936B10AE
:1015C00060936C1070936D109091B310986090932D
:1015D000B310843029F180916E1090916F10A0911A
:1015E0007010B0917110B7FF02C00C94A22140910D
:1015F0009610509197106091981070919910840FE7
:10160000951FA61FB71F80936E1090936F10A09325
:101610007010B09371108091B31080618093B310FB
:1016200088E593E090933810809337108091A6104E
:1016300081508093A610882311F40C94AA1C209149
:10164000B4103091B5108091430D9091440DA0914C
:10165000450DB091460D820F931FA11DB11D8093C2
:10166000430D9093440DA093450DB093460DE0912A
:101670003D0D81E08E0F80933D0DF0E0EE0FFF1FDA
:10168000EE0FFF1FE35CF64F8091B2109091B31004
:10169000A091B410B091B51080839183A283B383DD
:1016A000DACE893224E0920711F40C94471910F431
:1016B0000C9425198834E4E09E0709F47AC68C342A
:1016C000F4E09F0709F4A4C68D33944011F00C9404
:1016D0006E130E9403598111F8CBE091C510F0916F
:1016E000C610808191819093A3108093A2101092D4
:1016F000B1108091391085FF30C71092B710109249
:10170000B61084E08093BE1088E494E09093381083
:10171000809337108091BC109091BD106091BA10E9
:101720007091BB10681B790B7093C4106093C31049
:10173000A091BE102A2F30E06217730710F00C94AE
:10174000D91F6115710511F40C94E81CE091B810D3
:10175000F091B91040E050E020E0E80FF91F80E080
:1017600090E0A150EF01C40FD51F3881EC01CA549D
:10177000DF4E39878A2F821B8093BE102F5F822F06
:1017800090E0AC018617970768F384EA91E09093A4
:10179000B7108093B6108091FA08882309F495CB8E
:1017A0008091FB089091FC08825F944011F40C94A6
:1017B000F92282EF94E09093FC088093FB08DC010F
:1017C0008091F6089091F7084091F2085091F30843
:1017D0006091F4087091F508480F591F611D711D43
:1017E0004093F2085093F3086093F4087093F5085F
:1017F0001092FA089093BB108093BA10B093B9106E
:10180000A093B8104091BE104423A9F08091C3105A
:101810009091C410FC01E154FF4E9C01265F3F4FA4
:101820008FEF840F280F311D2A543F4E8D918193E5
:10183000E217F307D9F78FEB90E19093C6108093EE
:10184000C510842F90E09093BD108093BC10EFEBF7
:10185000F0E1C5C58230E5E09E0711F40C944D1A05
:1018600010F40C946C198C31F5E09F0709F476C0E4
:10187000853225E0920711F40C94701A823195405C
:1018800009F02CC78091B6109091B710843AF1E01E
:101890009F0711F40C94181E853B21E0920711F468
:1018A0000C94881D892B11F40C94D91DE091C5105E
:1018B000F091C6108FEF9FEF9093B7108093B61002
:1018C000808191811092B31020E533EC3093B510F4
:1018D0002093B41033C02091B4103091B510809192
:1018E000430D9091440DA091450DB091460D820F8E
:1018F000931FA11DB11D8093430D9093440DA093A0
:10190000450DB093460D81E08E0F80933D0DF0E0C4
:10191000EE0FFF1FEE0FFF1FE35CF64F8091B2103A
:101920009091B310A091B410B091B51080839183C1
:10193000A283B3838091A4109091A5109C012150A3
:1019400031093093A5102093A410892B09F4B7C650
:101950008CE195E09093381080933710E0913D0D25
:1019600080913E0D9E2F981B9F3F09F0B4CFADCACA
:10197000813723E0920711F40C94AE1810F40C9404
:10198000EE188738E3E09E0709F4DBC0813AF3E004
:101990009F0711F40C94E6158A37934009F09EC610
:1019A0000E940359811191CA8091B110E091C51034
:1019B000F091C610882311F40C94E01CA0812091B2
:1019C000A8103091A9104091AA105091AB10B0E02E
:1019D0000E946382DC01CB01EAE0B695A79597955A
:1019E0008795EA95D1F79093B5108093B4109091B4
:1019F00043109093B31080914210882311F40C94FB
:101A0000CB1B40915E1050915F10609160107091FF
:101A1000611077FF02C00C941B2200918610109178
:101A200087102091881030918910400F511F621F3C
:101A3000731F40935E1050935F106093601070931B
:101A4000611091609093B310813011F00C94CB1B16
:101A50004091661050916710609168107091691004
:101A600077FF02C00C946D2000918E1010918F10A2
:101A70002091901030919110400F511F621F731FE1
:101A800040936610509367106093681070936910CC
:101A90009091B31094609093B310833039F14091DA
:101AA0006A1050916B1060916C1070916D1077FFFF
:101AB00002C00C94832000919210109193102091F9
:101AC000941030919510400F511F621F731F409367
:101AD0006A1050936B1060936C1070936D1090911E
:101AE000B31098609093B310843029F180916E10F8
:101AF00090916F10A0917010B0917110B7FF02C05B
:101B00000C946E214091961050919710609198100E
:101B100070919910840F951FA61FB71F80936E10A8
:101B200090936F10A0937010B09371108091B310C8
:101B300080618093B31087E893E09093381080938E
:101B400037108091A61081508093A610882311F43D
:101B50000C94A01C2091B4103091B5108091430DCD
:101B60009091440DA091450DB091460D820F931FA9
:101B7000A11DB11D8093430D9093440DA093450D7D
:101B8000B093460DE0913D0D81E08E0F80933D0DA9
:101B9000F0E0EE0FFF1FEE0FFF1FE35CF64F8091AA
:101BA000B2109091B310A091B410B091B510808391
:101BB0009183A283B383809140109091411001974B
:101BC0009093411080934010892B09F43BC71092E9
:101BD000B7101092B61081E08093BE108AE793E0B0
:101BE00090933810809337100E940359882309F48A
:101BF000DBCE6BC9823622E0920709F4CCC008F034
:101C000064C5009711F40C94861A8034924009F050
:101C100065C50E940359811158C9E091C510F09122
:101C2000C61080818C3011F40C94CC1D10F00C94F3
:101C3000BC1C873009F4A9C08B3011F40C94401AF5
:101C4000833011F40C94B8219091CA022091CB02F8
:101C5000392F321B3F3F41F1E1E0E90FE093CA0227
:101C6000A92FB0E0A853BE4F12961C923E2F321BF4
:101C70003F3FD1F032E0390F3093CA02F0E0E85331
:101C8000FE4F43E04283432F50E05093D3024093F2
:101C9000D202321B3F3F41F09D5F9093CA02FA018E
:101CA000E853FE4F91E092839091CA02492F50E091
:101CB0005093D1024093D002392F321B3F3F11F491
:101CC0000C9402239F5F9093CA02DA01A853BE4F7F
:101CD00091E012969C9312974091D2025091D302B8
:101CE000FA01FF27E853FE4F92819F5F928312967D
:101CF0009C9112979F5F12969C93A091CA029A2F73
:101D0000921B9F3F11F40C942A2391E09A0F909319
:101D1000CA02B0E0A853BE4F35E012963C93328120
:101D20003F5F3283882311F40C94E9226091D00242
:101D30007091D102EB01DD27C853DE4F3A813F5F3E
:101D40003A83392F321B3F3F11F40C94262331E0A4
:101D5000390F3093CA02A92FB0E0A853BE4F129694
:101D60008C9382818F5F8283321B3F3F11F40C94EE
:101D7000F4226F3F7F4F11F08FEF8A838091CE0264
:101D80008F5F8093CE020E94474482E692E0909358
:101D900038108093371080913D0D90913E0D891B36
:101DA00080958093A610882309F48FC81092B710ED
:101DB0001092B61082E08093BE1086E692E0909377
:101DC0003810809337100E94035981117EC8E0912A
:101DD000C510F091C6108081918180933910909345
:101DE0003A1087FF03C08F798093B2101092B7101A
:101DF0001092B61081E08093BE1088E792E0909335
:101E00003810809337100E94035981115EC8E09109
:101E1000C510F091C61090819093421081E001C0EE
:101E2000880F9A95EAF7809343101092B71010929A
:101E3000B61084E08093BE1081E892E09093381051
:101E4000809337100E94035981113FC8E091C5105B
:101E5000F091C61080819181A281B38180934A1054
:101E600090934B10A0934C10B0934D101092B7105C
:101E70001092B61084E08093BE1085E892E09093B3
:101E80003810809337100E94035981111EC8E091C9
:101E9000C510F091C61080819181A281B381809399
:101EA0004E1090934F10A0935010B0935110109279
:101EB000B7101092B61084E08093BE1089E892E0CB
:101EC00090933810809337100E94035981110C941D
:101ED0006507E091C510F091C61080819181A281C3
:101EE000B3818093521090935310A0935410B093E9
:101EF00055101092B7101092B61084E08093BE1067
:101F00008DE892E090933810809337100E94035927
:101F100081110C946507E091C510F091C610808185
:101F20009181A281B3818093561090935710A09312
:101F30005810B09359101092B7101092B61084E058
:101F40008093BE1081E992E090933810809337100F
:101F50000E94035981110C946507E091C510F0911E
:101F6000C61080819181A281B38180935A10909391
:101F70005B10A0935C10B0935D101092B71010929C
:101F8000B61082E08093BE1085E992E090933810FD
:101F9000809337100E94035981110C946507E091DA
:101FA000C510F091C6108081918190933F1080936D
:101FB0003E101092B7101092B61082E08093BE10BF
:101FC00089E992E090933810809337100E9403596A
:101FD00081110C946507E091C510F091C6108081C5
:101FE000918190934110809340101092B110809194
:101FF000391090913A1090FFDEC01092B7101092F5
:10200000B61084E08093BE1084EA92E0909338107A
:10201000809337100E94035981110C946507E09159
:10202000C510F091C61080819181A281B381809307
:10203000AC109093AD10A093AE10B093AF1010926F
:10204000B7101092B61081E08093BE1088EA92E03B
:1020500090933810809337100E94035981110C948B
:102060006507E091C510F091C610C081C093B01013
:102070006091AC107091AD108091AE109091AF1046
:10208000611571058105910511F40C941D1C2091B9
:10209000C2013091C301A9015595479555954795C2
:1020A000559547955595479520910001309101012F
:1020B000FA01E21BF30B9F01F7FF02C00C94F02022
:1020C000E436F10514F40C94621F2091EC0F30916A
:1020D000ED0F40E050E00E9401829B01AC0104C082
:1020E0005695479537952795CA95D2F72130F0E157
:1020F0003F074105510520F020E030E140E050E08D
:102100002093A8103093A9104093AA105093AB10BD
:10211000213084E038074105510510F40C94921EDB
:1021200080917001882331F1A0917101B091720109
:102130000E946382DC01CB01DAE0B695A795979502
:102140008795DA95D1F78093A8109093A910A09362
:10215000AA10B093AB1080912010909121108E3F67
:10216000EFEF9E0711F40C94122301969093211027
:102170008093201081E08093B11080911E10909187
:102180001F108E3FFFEF9F0711F40C94CD22019694
:1021900090931F1080931E108091A8109091A91009
:1021A000A091AA10B091AB1081159240A105B10584
:1021B00010F40C94D21E1092B7101092B61082E058
:1021C0008093BE108EEF92E090933810809337107A
:1021D0000E94035981110C9465078091B110E09120
:1021E000C510F091C610882311F40C94951AA081A3
:1021F000B1812091A8103091A9104091AA1050915E
:10220000AB100E946382DC01CB01CAE0B695A795B2
:1022100097958795CA95D1F7909345108093441070
:102220001092B7101092B61082E08093BE1088E032
:1022300093E090933810809337100E9403598111D6
:102240000C946507E091C510F091C61080819181D2
:1022500090934910809348101092B7101092B610C6
:1022600082E08093BE108CE093E0909338108093CE
:1022700037108091BC109091BD106091BA10709190
:10228000BB10681B790B7093C4106093C310A091AE
:10229000BE102A2F30E06217730710F00C94781EDE
:1022A0006115710511F40C94C91AE091B810F09100
:1022B000B91040E050E020E0E80FF91F80E090E026
:1022C000A150EF01C40FD51F3881EC01CA54DF4E75
:1022D00039878A2F821B8093BE102F5F822F90E058
:1022E000AC018617970768F384EA91E09093B710E2
:1022F0008093B6108091FA08882311F40C94650736
:102300008091FB089091FC08825F944011F40C943A
:10231000E02282EF94E09093FC088093FB08DC01BC
:102320008091F6089091F7084091F2085091F308D7
:102330006091F4087091F508480F591F611D711DD7
:102340004093F2085093F3086093F4087093F508F3
:102350001092FA089093BB108093BA10B093B91002
:10236000A093B8109091BE109923A1F02091C310B2
:102370003091C410F901E154FF4E265F3F4F8FEFBB
:10238000890F280F311D2A543F4E8D918193E217FA
:10239000F307D9F72FEB30E13093C6102093C51027
:1023A000892F90E09093BD108093BC10F9010C949C
:1023B0009A088091B6109091B710843AE1E09E0798
:1023C00009F4E9C9853BF1E09F0711F40C94EE1C78
:1023D000892B09F49FC9E091C510F091C610808146
:1023E0009181A281B3818093AC109093AD10A093A2
:1023F000AE10B093AF101092B7101092B61081E0EB
:102400008093BE108CE494E0909338108093371042
:102410000E94035981110C946507E091C510F09159
:10242000C610C081C093B0108091C2019091C301C9
:102430009595879595958795959587959595879584
:102440002091000130910101821B930B97FF02C084
:102450000C948A1E8436910514F40C946A1D209104
:10246000EC0F3091ED0F40E050E06091AC107091B6
:10247000AD108091AE109091AF100E9401829B012F
:10248000AC0104C05695479537952795CA95D2F764
:10249000213080E138074105510520F020E030E18E
:1024A00040E050E02093A8103093A9104093AA1068
:1024B0005093AB1080917001213094E039074105B1
:1024C000510510F40C94731C882331F1A091710113
:1024D000B09172010E946382DC01CB017AE0B69573
:1024E000A795979587957A95D1F78093A8109093A3
:1024F000A910A093AA10B093AB10809120109091D6
:1025000021108E3FEFEF9E0711F40C94D12201961B
:10251000909321108093201081E08093B1108091DE
:102520001E1090911F108E3FFFEF9F0711F40C9427
:102530000E21019690931F1080931E108091A81079
:102540009091A910A091AA10B091AB108115924062
:10255000A105B10510F40C94DA1E1092B710109278
:10256000B61082E08093BE108AE994E09093381010
:10257000809337100E94035981110C946507E091F4
:10258000C510F091C610A081B181B0933D10A09309
:102590003C108091B110882309F4F6C72091A8104F
:1025A0003091A9104091AA105091AB100E94638203
:1025B000DC01CB016AE0B695A795979587956A955A
:1025C000D1F79093B5108093B4101092B710109279
:1025D000B61081E08093BE1085EA94E090933810A5
:1025E000809337100E94035981110C946507E09184
:1025F000C510F091C61080818093B3108AEA94E0F0
:1026000090933810809337108091A610815080935A
:10261000A610882311F40C94711B2091B4103091F2
:10262000B5108091430D9091440DA091450DB0914E
:10263000460D820F931FA11DB11D8093430D9093F2
:10264000440DA093450DB093460DE0913D0D81E002
:102650008E0F80933D0DF0E0EE0FFF1FEE0FFF1F7A
:10266000E35CF64F8091B2109091B310A091B4103A
:10267000B091B51080839183A283B3838091B2100F
:102680008F778093B2108091391090913A1086FD27
:1026900001C0F0C72091A2103091A3102150310940
:1026A0003093A3102093A210232B11F00C94110847
:1026B00091FF05C08091A71081110E941F2F1092D9
:1026C0003810109237100C946507863622E0920776
:1026D00009F479CB8837924009F495CB8FEF9FEFBF
:1026E000909338108093371080E00C9466078091A7
:1026F000461090914710892B09F445C48091B2107F
:102700008F7B8093B2101092B7101092B61082E0B7
:102710008093BE108DEE93E0909338108093371025
:102720000E94035981110C9465078091B110E091CA
:10273000C510F091C610882311F40C942E1CA081B2
:10274000B1812091A8103091A9104091AA10509108
:10275000AB100E946382DC01CB011AE0B695A7950D
:10276000979587951A95D1F79093B5108093B410EB
:102770000E94D2578AEF93E09093381080933710DD
:102780008091A61081508093A610882311F40C9498
:10279000241C2091B4103091B5108091430D90917C
:1027A000440DA091450DB091460D820F931FA11DC0
:1027B000B11D8093430D9093440DA093450DB093AC
:1027C000460DE0913D0D81E08E0F80933D0DF0E0D0
:1027D000EE0FFF1FEE0FFF1FE35CF64F8091B2106C
:1027E0009091B310A091B410B091B51080839183F3
:1027F000A283B3838091B2108F778093B2108091BF
:10280000461090914710019790934710809346107F
:10281000892B09F4B8C31092B7101092B61082E059
:102820008093BE1083E094E090933810809337102B
:102830000E94035981110C9465078091B110E091B9
:10284000C510F091C610882311F40C94CE1CA08101
:10285000B1812091A8103091A9104091AA105091F7
:10286000AB100E946382DC01CB01CAE0B695A7954C
:1028700097958795CA95D1F79093B5108093B4102A
:10288000909143109093B31080914210882309F4E3
:1028900032C740915E1050915F106091601070914E
:1028A000611077FF02C00C94F32100918610109103
:1028B00087102091881030918910400F511F621F9E
:1028C000731F40935E1050935F106093601070937D
:1028D000611091609093B310813009F00CC7409162
:1028E000661050916710609168107091691077FFC1
:1028F00002C00C94C31F00918E1010918F10209174
:10290000901030919110400F511F621F731F409320
:1029100066105093671060936810709369109091DF
:10292000B31094609093B310833039F140916A10E2
:1029300050916B1060916C1070916D1077FF02C018
:102940000C94EB1F00919210109193102091941011
:1029500030919510400F511F621F731F40936A10F2
:1029600050936B1060936C1070936D109091B31036
:1029700098609093B310843029F180916E109091FB
:102980006F10A0917010B0917110B7FF02C00C943D
:102990005821409196105091971060919810709125
:1029A0009910840F951FA61FB71F80936E109093E8
:1029B0006F10A0937010B09371108091B31080616C
:1029C0008093B31080E194E0909338108093371097
:1029D0008091A61081508093A610882309F4A7C780
:1029E0002091B4103091B5108091430D9091440D19
:1029F000A091450DB091460D820F931FA11DB11DF1
:102A00008093430D9093440DA093450DB093460DD4
:102A1000E0913D0D81E08E0F80933D0DF0E0EE0FD3
:102A2000FF1FEE0FFF1FE35CF64F8091B2109091F5
:102A3000B310A091B410B091B51080839183A2839C
:102A4000B383DDCE80919E1090919F10A091A01035
:102A5000B091A110892B8A2B8B2B09F40CC2809189
:102A6000B21083FF03C080648093B2108091441041
:102A7000909145109093B5108093B41090914310AD
:102A80009093B31080914210882309F4CCC54091F3
:102A90005E1050915F10609160107091611077FF2F
:102AA00002C00C948421009186101091871020910F
:102AB000881030918910400F511F621F731F40937F
:102AC0005E1050935F10609360107093611091607E
:102AD0009093B310813009F0A6C5409166105091D3
:102AE0006710609168107091691077FF02C00C94B4
:102AF000211F00918E1010918F1020919010309115
:102B00009110400F511F621F731F40936610509326
:102B1000671060936810709369109091B31094607F
:102B20009093B310833039F140916A1050916B103B
:102B300060916C1070916D1077FF02C00C94371F7C
:102B40000091921010919310209194103091951053
:102B5000400F511F621F731F40936A1050936B10F8
:102B600060936C1070936D109091B3109860909377
:102B7000B310843029F180916E1090916F10A09164
:102B80007010B0917110B7FF02C00C94DA20409120
:102B90009610509197106091981070919910840F31
:102BA000951FA61FB71F80936E1090936F10A09370
:102BB0007010B09371108091B31080618093B31046
:102BC00081EA93E090933810809337108091A6109B
:102BD00081508093A610882309F461C62091B41017
:102BE0003091B5108091430D9091440DA091450D09
:102BF000B091460D820F931FA11DB11D8093430D0F
:102C00009093440DA093450DB093460DE0913D0D7A
:102C100081E08E0F80933D0DF0E0EE0FFF1FEE0F71
:102C2000FF1FE35CF64F8091B2109091B310A0911A
:102C3000B410B091B51080839183A283B383809147
:102C4000B2108F778093B21040919E1050919F10D8
:102C50006091A0107091A110415051096109710952
:102C600040939E1050939F106093A0107093A110FA
:102C7000452B462B472B09F4FBC0909143109093B2
:102C8000B31080914210882309F4FDC640915E1074
:102C900050915F10609160107091611077FF02C0D9
:102CA0000C94B72200918610109187102091881003
:102CB00030918910400F511F621F731F40935E10A7
:102CC00050935F10609360107093611091609093C7
:102CD000B310813009F0D7C640916610509167104B
:102CE000609168107091691077FF02C00C94752292
:102CF00000918E1010918F102091901030919110B2
:102D0000400F511F621F731F40936610509367104E
:102D100060936810709369109091B31094609093D1
:102D2000B310833039F140916A1050916B1060916B
:102D30006C1070916D1077FF02C00C948B22009183
:102D40009210109193102091941030919510400F93
:102D5000511F621F731F40936A1050936B10609352
:102D60006C1070936D109091B31098609093B310A5
:102D7000843029F180916E1090916F10A0917010A5
:102D8000B0917110B7FF02C00C94A122409196102F
:102D9000509197106091981070919910840F951F21
:102DA000A61FB71F80936E1090936F10A0937010A2
:102DB000B09371108091B31080618093B3108CEA4E
:102DC00093E090933810809337108091A610815033
:102DD0008093A610882309F44DC62091B410309139
:102DE000B5108091430D9091440DA091450DB09187
:102DF000460D820F931FA11DB11D8093430D90932B
:102E0000440DA093450DB093460DE0913D0D81E03A
:102E10008E0F80933D0DF0E0EE0FFF1FEE0FFF1FB2
:102E2000E35CF64F8091B2109091B310A091B41072
:102E3000B091B51080839183A283B38380919E105B
:102E400090919F10A091A010B091A1100197A1099D
:102E5000B10980939E1090939F10A093A010B093FF
:102E6000A110892B8A2B8B2B09F007CF8091B210F0
:102E70008F7B8093B2108091481090914910892BDC
:102E800009F435CC8091B2108F7B8093B2101092F0
:102E9000B7101092B61081E08093BE108EEB93E0D5
:102EA00090933810809337100E94035981110C942D
:102EB00065078091B110E091C510F091C61088238C
:102EC00009F4DDC4A0812091A8103091A91040918F
:102ED000AA105091AB10B0E00E946382DC01CB01DC
:102EE0004AE0B695A795979587954A95D1F790931F
:102EF000B5108093B4100E94D2578BEC93E090935E
:102F00003810809337108091A61081508093A610BE
:102F1000882309F4ABC42091B4103091B51080918E
:102F2000430D9091440DA091450DB091460D820F37
:102F3000931FA11DB11D8093430D9093440DA09349
:102F4000450DB093460DE0913D0D81E08E0F8093CD
:102F50003D0DF0E0EE0FFF1FEE0FFF1FE35CF64F9D
:102F60008091B2109091B310A091B410B091B510AF
:102F700080839183A283B3838091B2108F778093F3
:102F8000B2100C946D068091391090913A1092FD18
:102F900091CB95CB8091401090914110892B09F4F1
:102FA00051CD8091B2108F7B8093B2101092B710E8
:102FB0001092B61081E08093BE1084E693E0909367
:102FC0003810809337100E94035981110C946507C3
:102FD0008091B110E091C510F091C610882309F4DA
:102FE00067C4A0812091A8103091A9104091AA1027
:102FF0005091AB10B0E00E946382DC01CB01CAE0CB
:10300000B695A79597958795CA95D1F79093B510E2
:103010008093B410909143109093B310809142101C
:10302000882309F48AC240915E1050915F1060912C
:1030300060107091611077FF02C00C94F82000912D
:103040008610109187102091881030918910400FC0
:10305000511F621F731F40935E1050935F10609367
:1030600060107093611091609093B310813009F0FB
:1030700064C2409166105091671060916810709121
:10308000691077FDB4C600918E1010918F102091B9
:10309000901030919110400F511F621F731F409389
:1030A0006610509367106093681070936910909148
:1030B000B31094609093B310833029F140916A105B
:1030C00050916B1060916C1070916D1077FDA4C6DB
:1030D00000919210109193102091941030919510BE
:1030E000400F511F621F731F40936A1050936B1063
:1030F00060936C1070936D109091B31098609093E2
:10310000B310843029F180916E1090916F10A091CE
:103110007010B0917110B7FF02C00C94C4204091A0
:103120009610509197106091981070919910840F9B
:10313000951FA61FB71F80936E1090936F10A093DA
:103140007010B09371108091B31080618093B310B0
:1031500081E793E090933810809337108091A61008
:1031600081508093A610882309F490C32091B41055
:103170003091B5108091430D9091440DA091450D73
:10318000B091460D820F931FA11DB11D8093430D79
:103190009093440DA093450DB093460DE0913D0DE5
:1031A00081E08E0F80933D0DF0E0EE0FFF1FEE0FDC
:1031B000FF1FE35CF64F8091B2109091B310A09185
:1031C000B410B091B51080839183A283B3838091B2
:1031D000B2108F778093B2100C94DB0D8835F3E03A
:1031E0009F0711F40C94160B8436934009F4EBCE30
:1031F00075CA853AF4E09F0709F4F4C98A3A944005
:1032000009F402CA6BCA8E3BE3E09E0709F44CCE78
:103210008B3C934009F477CE61CA883AE2E09E077E
:1032200011F40C942C108E3F924011F40C94E81081
:1032300055CA8538E2E09E0711F40C94430F893893
:10324000924011F40C94640F49CA8031F4E09F0756
:1032500009F4BECB8532944009F040CA80913D0DFF
:1032600090913E0D891B80958093A610882311F4C0
:103270000C9465071092B7101092B61082E08093FC
:10328000BE1089E294E090933810809337100E942A
:10329000035981110C946507E091C510F091C61097
:1032A000808191818093391090933A1087FD7EC37D
:1032B0008091B2108F7B8093B2101092B710109251
:1032C000B61082E08093BE108DE394E090933810A6
:1032D000809337100C94690B823E24E0920719F119
:1032E000893F944009F0FAC90E94035981110C9456
:1032F0006507E091C510F091C610D181C081D11150
:103300000C9447221092291010922A1010922B1020
:1033100010922C10C63408F4C6E46C2F70E084E0E0
:103320000E94754DCCC98091A61081508093A61043
:10333000882309F497C02091B4103091B510809182
:10334000430D9091440DA091450DB091460D820F13
:10335000931FA11DB11D8093430D9093440DA09325
:10336000450DB093460DE0913D0D81E08E0F8093A9
:103370003D0DF0E0EE0FFF1FEE0FFF1FE35CF64F79
:103380008091B2109091B310A091B410B091B5108B
:1033900080839183A283B3838091A2109091A31024
:1033A00001979093A3108093A210892B09F463C016
:1033B0001092B7101092B61082E08093BE1083ED89
:1033C00094E090933810809337100E940359811134
:1033D0000C9465078091B110E091C510F091C61072
:1033E000882309F482C3A081B1812091A810309173
:1033F000A9104091AA105091AB100E946382DC0189
:10340000CB012AE0B695A795979587952A95D1F790
:103410009093B5108093B4101092B7101092B6101C
:1034200081E08093BE108DED94E0909338108093EE
:1034300037100E94035981110C946507E091C51063
:10344000F091C61080818093B31082EE94E0909347
:103450003810809337108091A61081508093A61069
:10346000811169CF86EA90E10E94C857882311F440
:103470000C94650760CF8091391090913A1018C96B
:103480001092B7101092B61083E08093BE1082E0C5
:1034900095E090933810809337100E940359811162
:1034A0000C946507E091C510F091C610618172819E
:1034B00040E080810E94FA5210923810109237102A
:1034C00081E00C9466071092B7101092B61084E059
:1034D0008093BE1085E295E090933810809337106A
:1034E0000E94035981110C946507E091C510F09179
:1034F000C61061817281438180810E94FA521092CC
:1035000038101092371081E00C9466071092B710B3
:103510001092B61081E08093BE1080E492E0909308
:103520003810809337100C94090E8081918190930C
:103530004510809344100C941011409162105091EA
:103540006310609164107091651077FD3BC4009129
:103550008A1010918B1020918C1030918D10400F9B
:10356000511F621F731F409362105093631060934A
:103570006410709365109091B31092609093B310A3
:10358000823009F076CD9ACDB093B510A093B410E7
:103590001CC885EB91E09093B7108093B610809192
:1035A000FA08882311F40C9465078091FB08909128
:1035B000FC08825F944009F4FBC782EF94E090938B
:1035C000FC088093FB08FC012091F6083091F70875
:1035D0008091F2089091F308A091F408B091F50859
:1035E000820F931FA11DB11D8093F2089093F308E1
:1035F000A093F408B093F5081092FA083093BB102A
:103600002093BA10F093B910E093B810F093C6105D
:10361000E093C5108091BE1090E09093BD10809310
:10362000BC100C949A084091621050916310609104
:1036300064107091651077FD30C400918A1010916C
:103640008B1020918C1030918D10400F511F621FF4
:10365000731F4093621050936310609364107093D3
:1036600065109091B31092609093B310823009F07E
:1036700034CA5ACA2091A2103091A31021503109A6
:103680003093A3102093A210232B09F411C890CEDD
:1036900040916210509163106091641070916510B8
:1036A00077FD47C400918A1010918B1020918C10E7
:1036B00030918D10400F511F621F731F4093621095
:1036C0005093631060936410709365109091B310E1
:1036D00092609093B310823011F00C9473090C94A3
:1036E0009A0986EA90E10E94C857882311F40C9445
:1036F00065070C940D134091621050916310609116
:1037000064107091651077FDA8C400918A10109123
:103710008B1020918C1030918D10400F511F621F23
:10372000731F409362105093631060936410709302
:1037300065109091B31092609093B310823009F0AD
:10374000CEC8F4C84091621050916310609164102B
:103750007091651077FD02C400918A1010918B1052
:1037600020918C1030918D10400F511F621F731FDC
:1037700040936210509363106093641070936510CF
:103780009091B31092609093B310823011F00C942A
:10379000DF060C940607409162105091631060910F
:1037A00064107091651077FD83C400918A101091A8
:1037B0008B1020918C1030918D10400F511F621F83
:1037C000731F409362105093631060936410709362
:1037D00065109091B31092609093B310823011F005
:1037E0000C94280D0C944F0D409162105091631071
:1037F000609164107091651077FDB1C400918A10DA
:1038000010918B1020918C1030918D10400F511F12
:10381000621F731F40936210509363106093641093
:10382000709365109091B31092609093B3108230B2
:1038300011F00C949D0A0C94C40A8091B11081116E
:103840000C94CC100C94DB1086EA90E10E94C857CF
:10385000882311F40C9465070C94C913808191811D
:103860009093B5108093B4100C94B81386EA90E14D
:103870000E94C857882311F40C9465074CCB8081B3
:1038800090E09093B5108093B41035CB86EA90E128
:103890000E94C857882311F40C94650767CC86EA08
:1038A00090E10E94C857882311F40C94650796C9CB
:1038B000808190E09093B5108093B410ABCB86EAF2
:1038C00090E10E94C857882311F40C9465070C946A
:1038D000D30786EA90E10E94C857882311F40C941C
:1038E00065070C94F509882309F442C2809171019F
:1038F00090917201A0E0B0E08093A8109093A9107D
:10390000A093AA10B093AB1081E08093B110809186
:103910002010909121108E3F2FEF920709F445C699
:10392000019690932110809320100C949E1286EAA9
:1039300090E10E94C857882311F40C94650750C881
:1039400086EA90E10E94C857882311F40C94650719
:103950000C94AA0D86EA90E10E94C857882311F4BE
:103960000C9465070C941F0B808191819093B51086
:103970008093B4100C944209813109F4A4CD8737A7
:1039800011F40C945F138D3011F00C94240E85E229
:1039900094E0909338108093371060CC80819181AF
:1039A0009093B5108093B4100C9440148F7982CC0E
:1039B000808190E09093B5108093B4100C94AE0683
:1039C000808190E09093B5108093B4100C94F70C24
:1039D00085EB91E09093B7108093B6108091FA0830
:1039E000882311F40C9465078091FB089091FC08E2
:1039F000825F944009F40EC682EF94E09093FC0835
:103A00008093FB08FC012091F6083091F708809123
:103A1000F2089091F308A091F408B091F508820F94
:103A2000931FA11DB11D8093F2089093F308A093FA
:103A3000F408B093F5081092FA083093BB10209365
:103A4000BA10F093B910E093B810F093C610E09359
:103A5000C5108091BE1090E09093BD108093BC1073
:103A60000C94EF11808191819093B5108093B410E4
:103A70000C946C0A86EA90E10E94C857882311F4DE
:103A80000C946507AAC9409162105091631060912F
:103A900064107091651077FD13C500918A10109124
:103AA0008B1020918C1030918D10400F511F621F90
:103AB000731F40936210509363106093641070936F
:103AC00065109091B31092609093B310823009F01A
:103AD00003C929C9880F991FFC01EA5DF04F2081B5
:103AE000318140E050E00C943512808191819093B7
:103AF000B5108093B41090CCB093B510A093B410CF
:103B00000C94500885EB91E09093B7108093B61019
:103B10008091FA08882311F40C9465078091FB08C2
:103B20009091FC08825F944009F480C582EF94E094
:103B30009093FC088093FB08FC012091F6083091DB
:103B4000F7088091F2089091F308A091F408B091E1
:103B5000F508820F931FA11DB11D8093F208909369
:103B6000F308A093F408B093F5081092FA08309384
:103B7000BB102093BA10F093B910E093B810F093F3
:103B8000C610E093C5108091BE1090E09093BD10D8
:103B90008093BC100C945A0C1092B7101092B6106F
:103BA00082E08093BE1082E195E09093381080937C
:103BB00037108091BC109091BD106091BA10709137
:103BC000BB10681B790B7093C4106093C310A09155
:103BD000BE102A2F30E06217730708F01AC461156F
:103BE000710509F48FCFE091B810F091B91040E061
:103BF00050E020E0E80FF91F80E090E0A150EF01D5
:103C0000C40FD51F3881EC01CA54DF4E39878A2F83
:103C1000821B8093BE102F5F822F90E0AC0186172D
:103C2000970768F384EA91E09093B7108093B610F9
:103C30008091FA08882311F40C9465078091FB08A1
:103C40009091FC08825F944009F4F8C482EF94E0FC
:103C50009093FC088093FB08DC018091F60890911A
:103C6000F7084091F2085091F3086091F4087091C0
:103C7000F508480F591F611D711D4093F2085093BC
:103C8000F3086093F4087093F5081092FA08909383
:103C9000BB108093BA10B093B910A093B8104091A4
:103CA000BE104423A9F08091C3109091C410FC0170
:103CB000E154FF4E9C01265F3F4F8FEF840F280F8A
:103CC000311D2A543F4E8D918193E217F307D9F7A6
:103CD0008FEB90E19093C6108093C510842F90E0F5
:103CE0009093BD108093BC10EFEBF0E10C945A0C54
:103CF000E091B810F091B910E80FF91FF093C610D9
:103D0000E093C510820F931F9093BD108093BC1059
:103D10000C949A082091260F3091270F40E050E034
:103D20000C94351280917001882309F4A7C2809108
:103D3000710190917201A0E0B0E08093A81090937F
:103D4000A910A093AA10B093AB1081E08093B1109A
:103D500080912010909121108E3F2FEF920709F44F
:103D600056C4019690932110809320100C94CC108F
:103D700080911010882309F4DDC280911110909178
:103D80001210A0911310B09114108093A81090936A
:103D9000A910A093AA10B093AB1021E02093B1100A
:103DA0000C94A61263E171E088EF92E00E94AD45A9
:103DB0000C94DB1063E171E083E994E00E94AD456F
:103DC0000C94AD120091761010917710209178101C
:103DD00030917910400F511F621F731F4093621082
:103DE000509363106093641070936510C9CB009179
:103DF0007A1010917B1020917C1030917D10400F33
:103E0000511F621F731F4093661050936710609399
:103E100068107093691050C900917E1010917F1046
:103E20002091801030918110400F511F621F731F2D
:103E300040936A1050936B1060936C1070936D10E8
:103E400060C900917A1010917B1020917C10309104
:103E50007D10400F511F621F731F409366105093D7
:103E6000671060936810709369100C94921500911C
:103E70007E1010917F102091801030918110400FA2
:103E8000511F621F731F40936A1050936B10609311
:103E90006C1070936D100C94B91500917610109100
:103EA00077102091781030917910400F511F621FC8
:103EB000731F40936210509363106093641070936B
:103EC0006510D4CB220F331FF901EA5DF04F20813A
:103ED000318140E050E00C946B1000917E10109105
:103EE0007F102091801030918110400F511F621F70
:103EF000731F40936A1050936B1060936C10709313
:103F00006D100C94BF0900917A1010917B102091D4
:103F10007C1030917D10400F511F621F731F409322
:103F200066105093671060936810709369100C943A
:103F300098090091761010917710209178103091A7
:103F40007910400F511F621F731F409362105093EE
:103F500063106093641070936510BDCB0091761070
:103F6000109177102091781030917910400F511FE7
:103F7000621F731F4093621050936310609364102C
:103F80007093651002CC00917A1010917B102091F3
:103F90007C1030917D10400F511F621F731F4093A2
:103FA00066105093671060936810709369100C94BA
:103FB0009414E091B810F091B910E80FF91FF09344
:103FC000C610E093C510820F931F9093BD1080938D
:103FD000BC100C94EF1100917E1010917F10209175
:103FE000801030918110400F511F621F731F40934A
:103FF0006A1050936B1060936C1070936D100C945A
:10400000BB1400917A1010917B1020917C1030919C
:104010007D10400F511F621F731F40936610509315
:10402000671060936810709369100C9404070091F6
:104030007E1010917F102091801030918110400FE0
:10404000511F621F731F40936A1050936B1060934F
:104050006C1070936D100C942B07009176101091DA
:1040600077102091781030917910400F511F621F06
:10407000731F4093621050936310609364107093A9
:1040800065105CCB00917E1010917F102091801004
:1040900030918110400F511F621F731F40936A10AF
:1040A00050936B1060936C1070936D100C94E90A30
:1040B000009176101091771020917810309179103E
:1040C000400F511F621F731F409362105093631083
:1040D000609364107093651081CB00917A101091F9
:1040E0007B1020917C1030917D10400F511F621F7A
:1040F000731F40936610509367106093681070931D
:1041000069100C944D0D00917E1010917F1020913C
:10411000801030918110400F511F621F731F409318
:104120006A1050936B1060936C1070936D100C9428
:10413000740D00917A1010917B1020917C103091B9
:104140007D10400F511F621F731F409366105093E4
:10415000671060936810709369100C94C20A009104
:104160007610109177102091781030917910400FCF
:10417000511F621F731F409362105093631060932E
:1041800064107093651053CB40918210509183104E
:104190006091841070918510840F951FA61FB71F22
:1041A00080936E1090936F10A0937010B093711065
:1041B0000C94A81840918210509183106091841043
:1041C00070918510840F951FA61FB71F80936E10E6
:1041D00090936F10A0937010B09371100C94E01531
:1041E0002091260F3091270F40E050E00C946B1087
:1041F000009172101091731020917410309175100D
:10420000400F511F621F731F40935E1050935F1049
:1042100060936010709361100C9436188FEF9FEFCD
:104220000C949A12409182105091831060918410E6
:1042300070918510840F951FA61FB71F80936E1075
:1042400090936F10A0937010B09371100C94E609C6
:10425000409182105091831060918410709185106C
:10426000840F951FA61FB71F80936E1090936F1039
:10427000A0937010B09371100C945207809110109D
:10428000882309F4DACA8091111090911210A0913C
:104290001310B09114108093A8109093A910A093BC
:1042A000AA10B093AB1021E02093B1100C94D4105D
:1042B000409182105091831060918410709185100C
:1042C000840F951FA61FB71F80936E1090936F10D9
:1042D000A0937010B09371100C94E214409182106E
:1042E000509183106091841070918510840F951FF8
:1042F000A61FB71F80936E1090936F10A09370103D
:10430000B09371100C949B0D00917210109173106A
:104310002091741030917510400F511F621F731F50
:1043200040935E1050935F10609360107093611023
:104330000C946A158091B110882311F40C94AD127D
:104340000C949E12409182105091831060918410C1
:1043500070918510840F951FA61FB71F80936E1054
:1043600090936F10A0937010B09371100C94100B79
:104370001092B7101092B61082E08093BE1089EFB1
:1043800094E090933810809337100C947419009136
:104390007210109173102091741030917510400FAD
:1043A000511F621F731F40935E1050935F10609304
:1043B0006010709361100C946F090091721010914D
:1043C00073102091741030917510400F511F621FAF
:1043D000731F40935E1050935F1060936010709352
:1043E00061100C94DB0600917210109173102091F3
:1043F000741030917510400F511F621F731F40934E
:104400005E1050935F1060936010709361100C9475
:104410006C14E091B810F091B910E80FF91FF09307
:10442000C610E093C510820F931F9093BD10809328
:10443000BC100C945A0C00917210109173102091C2
:10444000741030917510400F511F621F731F4093FD
:104450005E1050935F1060936010709361100C9425
:10446000240D0091721010917310209174103091EE
:104470007510400F511F621F731F40935E105093C1
:104480005F1060936010709361100C94990A6FEF45
:1044900070E084E00E94754DC09328100E941C4E6D
:1044A000DC01CB018D0F911DA11DB11D8093291041
:1044B00090932A10A0932B10B0932C100C945F13A0
:1044C000009176101091771020917810309179102A
:1044D000400F511F621F731F40936210509363106F
:1044E0006093641070936510F1CA00917A10109176
:1044F0007B1020917C1030917D10400F511F621F66
:10450000731F409366105093671060936810709308
:1045100069100C94911600917E1010917F102091DB
:10452000801030918110400F511F621F731F409304
:104530006A1050936B1060936C1070936D100C9414
:10454000B816409182105091831060918410709140
:104550008510840F951FA61FB71F80936E10909330
:104560006F10A0937010B09371100C94DF1600912F
:104570007210109173102091741030917510400FCB
:10458000511F621F731F40935E1050935F10609322
:104590006010709361100C9469168FEF9FEF0C946C
:1045A000C8108FEF9FEF0C9488128FEF9FEFB9C95F
:1045B00082EF96E09093FC088093FB08FC0104C80E
:1045C00082EF96E09093FC088093FB08DC010C944A
:1045D00090116FEF7FEF7093D1026093D002921B26
:1045E0009F3F11F00C94BE0E42504093CA020C94AF
:1045F000C30E82EF96E09093FC088093FB08DC01E9
:104600000C94E00BDA01A853BE4F0C946C0E8FEFA4
:104610009FEFA8CB82EF96E09093FC088093FB0875
:10462000FC01F1C98FEF9FEF0C94B61082EF96E07A
:104630009093FC088093FB08FC017FCA82EF96E010
:104640009093FC088093FB08DC0107CB82818F5F8D
:104650008283CACF92819F5F92839A2F0C94920E8D
:104660002F923F924F925F926F927F928F929F9282
:10467000AF92BF92CF92DF92EF92FF920F931F9370
:10468000CF93DF9381E090E09093A3108093A210EA
:1046900081E090E0A0E0B0E080939E1090939F10A6
:1046A000A093A010B093A1101092A71010923810F0
:1046B000109237101092BD101092BC101092BB10C7
:1046C0001092BA102091F8083091F9080FEF1FEFFF
:1046D00066246A9477247394E9E05E2EF2E04F2E0C
:1046E000C8EED4E0EE24E394F12CBCEBCB2ED12C1D
:1046F00021153105B1F08091E6029091E7028C3BE3
:10470000910509F467C0893E910509F4E4C1892B3C
:1047100009F453C21093E7020093E6022115310514
:1047200051F71092EE041092EF041092F0041092E0
:10473000F1041092E9041092E8041092F208109229
:10474000F3081092F4081092F5081092FA0881E02C
:1047500090E0A0E0B0E08093EA049093EB04A09393
:10476000EC04B093ED0410923E0D10923D0D1092AA
:10477000470D1092480D1092490D10924A0D10925B
:10478000430D1092440D1092450D1092460D10925B
:104790004C0DDF91CF911F910F91FF90EF90DF9023
:1047A000CF90BF90AF909F908F907F906F905F90D1
:1047B0004F903F902F9008950E941C4E60930D09DA
:1047C00070930E0980930F0990931009D092E7021D
:1047D000C092E6020E941C4E6093FD087093FE0892
:1047E0008093FF08909300098091FB089091FC084A
:1047F000825F944009F407C58091F2089091F30814
:10480000A091F408B091F50829E0B695A795979581
:1048100087952A95D1F79C01AD012F5F3F4F4F4FF0
:104820005F4F8091DF02833039F089E0220F331F20
:10483000441F551F8A95D1F761E18AED92E00E94ED
:104840004B4C882309F4CAC280E38093DA0280913A
:10485000DD02882321F08AED92E00E9405428091DA
:10486000E10281508093E102882309F4D8C50E94B7
:104870001C4E8090FD089090FE08A090FF08B0901C
:104880000009DC01CB0188199909AA09BB094091EB
:1048900001095091020960910309709104094F5F69
:1048A0005F4F6F4F7F4F4093010950930209609310
:1048B000030970930409409105095091060960911C
:1048C000070970910809480F591F6A1F7B1F409301
:1048D00005095093060960930709709308094091F0
:1048E000090950910A0960910B0970910C09481748
:1048F00059076A077B0740F48093090990930A09D6
:10490000A0930B09B0930C098090DE029090DA021C
:104910007091CA026091CB02872F861B8F3F11F4E2
:104920000C94532DE1E0E70FE093CA02A72FB0E00B
:10493000A853BE4F12961C928E2F861B8F3F09F4F0
:10494000FFC682E0870F8093CA02F0E0E853FE4F73
:104950005282282F30E03093D3022093D202982F36
:10496000961B9F3F11F40C947D2E43E0470F40931C
:10497000CA02D901A853BE4F12967C921297842F77
:1049800090E0B42EB61A9093D1028093D002FFEF3C
:10499000BF1611F40C94BF2E44E0470F4093CA0297
:1049A000FC01E853FE4F728212968C9112978F5F32
:1049B00012968C93129782818F5F8283842F861B3D
:1049C0008F3F11F40C94A32E7B5F7093CA02E42FE7
:1049D000F0E0E853FE4F5282B72EB61A12968C9131
:1049E00012978F5F12968C931297992009F4BDC786
:1049F0008091D0029091D102AC01552748535E4F6F
:104A0000FA01A280A394A282FFEFBF1611F40C94C6
:104A1000E82D41E0470F4093CA02E72FF0E0E8534A
:104A2000FE4F9282B42EB61A12965C9112975F5F77
:104A300012965C93019609F497C7882009F48CC7F5
:104A40008091D0029091D102DC01BB27A853BE4FC8
:104A500012962C9112972F5F12962C9312972FEF8C
:104A6000B21611F40C94362D71E0740F7093CA02D3
:104A7000E42FF0E0E853FE4F82824091D202509141
:104A8000D3029A013327F901E853FE4F22812F5FA9
:104A90002283761B7F3F09F405C7019611F0129619
:104AA0006C928091CE028F5F8093CE022091F808A5
:104AB0003091F9081DCE0E941C4E60932D09709311
:104AC0002E0980932F099093300989EE90E09093FE
:104AD000E7028093E6020E941C4E60931D097093CA
:104AE0001E0980931F09909320098090EA049090FA
:104AF000EB04A090EC04B090ED048091C60190917D
:104B0000C701892B09F085C08AED92E00E94E2423C
:104B1000882309F438C20E941C4E80901D09909091
:104B20001E09A0901F09B0902009DC01CB01881953
:104B30009909AA09BB094091210950912209609164
:104B40002309709124094F5F5F4F6F4F7F4F409350
:104B500021095093220960932309709324094091FD
:104B60002509509126096091270970912809480F5D
:104B7000591F6A1F7B1F4093250950932609609394
:104B80002709709328094091290950912A096091B9
:104B90002B0970912C09481759076A077B0740F4C5
:104BA0008093290990932A09A0932B09B0932C098B
:104BB0002091F8083091F9089BCD2130310509F496
:104BC000FBCD2230310509F476CF8091FA088111AE
:104BD0001BC04091EE045091EF046091F00470917D
:104BE000F1048091F2089091F308A091F408B0913B
:104BF000F508481759076A077B0731F0F092F90862
:104C0000E092F80821E030E01092E7021092E6020C
:104C10006FCD8AED92E00E94E24281117CCF20E0CC
:104C200030E0A9016DE08AED92E00E944B4C8823B0
:104C300009F4E1C26091DE023091CA022091CB02F8
:104C4000832F821B8F3F09F436C6E1E0E30FE09328
:104C5000CA02A32FB0E0A853BE4F12961C928E2F0B
:104C6000821B8F3F09F4E1C772E0730F7093CA0291
:104C7000F0E0E853FE4F83E08283872F90E090932B
:104C8000D3028093D202472F421B4F3F11F40C9462
:104C9000A02E43E0942E930E9092CA02DC01A853FA
:104CA000BE4F12967C921297492D50E0792D721BBF
:104CB0005093D1024093D0027F3F11F40C94B22E56
:104CC00074E0730F7093CA02FA01E853FE4F1F019C
:104CD000728212969C901297939412969C921297BD
:104CE000928093949282972E921AFFEF9F1611F45E
:104CF0000C94CB2E3B5F3093CA02472F50E04853B1
:104D00005E4F7CE0FA017283732F721B12964C91F6
:104D100012974F5F12964C931297F10142814F5FA9
:104D200042837F3F09F475C771E0730F7093CA0225
:104D3000E32FF0E0E853FE4F39E23283372F321B86
:104D400012964C9112974F5F12964C93662309F47A
:104D5000E0C6DC01A853BE4F8090D0029090D102F3
:104D6000A401552748535E4FFA01B280B394B28232
:104D70003F3F09F4C5C731E0370F3093CA02E72F30
:104D8000F0E0E853FE4F628312966C9112976F5FCA
:104D900012966C93321B3F3F09F453C789208094CD
:104DA00019F0DA0112966C928091CE028F5F809397
:104DB000CE020E9447448091DD02882321F08AEDD3
:104DC00092E00E9405421092C7011092C60185E050
:104DD0008093E20292E0892E912C3EC140E052E0A5
:104DE00062EF74E08AED92E00E945842882309F451
:104DF0002ECD8091DD02811145C685E08093E102D0
:104E00000E941C4E8090FD089090FE08A090FF0824
:104E1000B0900009DC01CB0188199909AA09BB09E6
:104E200040910109509102096091030970910409B0
:104E30004F5F5F4F6F4F7F4F4093010950930209BF
:104E40006093030970930409409105095091060984
:104E50006091070970910809480F591F6A1F7B1F4D
:104E60004093050950930609609307097093080958
:104E70004091090950910A0960910B0970910C0940
:104E8000481759076A077B0740F4809309099093F4
:104E90000A09A0930B09B0930C090E941C4E809044
:104EA0000D0990900E09A0900F09B0901009DC0137
:104EB000CB0188199909AA09BB09409111095091A0
:104EC000120960911309709114094F5F5F4F6F4F82
:104ED0007F4F409311095093120960931309709307
:104EE00014094091150950911609609117097091A4
:104EF0001809480F591F6A1F7B1F409315095093CB
:104F00001609609317097093180940911909509177
:104F10001A0960911B0970911C09481759076A0703
:104F20007B0740F48093190990931A09A0931B09F9
:104F3000B0931C098091EE049091EF04A091F004CD
:104F4000B091F1044091F2085091F3086091F40897
:104F50007091F508841B950BA60BB70B811552E0D9
:104F60009507A105B10510F080E092E09093F70855
:104F70008093F6081092F9081092F8087092FA08D7
:104F800020E030E041CEA50194010090E00204C091
:104F9000220F331F441F551F0A94D2F768E18AED90
:104FA00092E00E944B4C811104C3A8EEB2E080E075
:104FB00090E02D91E92FFF27E227EE0FFF1FE85E1B
:104FC000F64F25913491982F882782279327F4E074
:104FD000A83EBF0771F72EEF2EBD0DB407FEFDCF23
:104FE0002091E8022EBD2091E902EAEEF2E00DB434
:104FF00007FEFDCF2EBDCE17DF0711F02191F7CFB1
:105000000DB407FEFDCF9EBD0DB407FEFDCF8EBDD6
:105010000DB407FEFDCF6EBC0DB407FEFDCF8EB5FF
:105020008093DE028F71853009F481C387E5809318
:10503000DA028091DD02882321F08AED92E00E945D
:1050400005428091E20281508093E202882309F4B4
:10505000AAC488248394912C0E941C4E20911D097F
:1050600030911E0940911F0950912009DC01CB01AC
:10507000821B930BA40BB50B40912109509122097F
:1050800060912309709124094F5F5F4F6F4F7F4FED
:1050900040932109509322096093230970932409B6
:1050A000409125095091260960912709709128099E
:1050B000480F591F6A1F7B1F4093250950932609EB
:1050C00060932709709328092091290930912A09B2
:1050D00040912B0950912C09281739074A075B0783
:1050E00040F48093290990932A09A0932B09B09347
:1050F0002C098A94892809F4CBC00E941C4E809008
:105100002D0990902E09A0902F09B0903009DC0154
:10511000CB0188199909AA09BB094091310950911D
:10512000320960913309709134094F5F5F4F6F4FBF
:105130007F4F409331095093320960933309709344
:1051400034094091350950913609609137097091C1
:105150003809480F591F6A1F7B1F40933509509328
:105160003609609337097093380940913909509195
:105170003A0960913B0970913C09481759076A0741
:105180007B0740F48093390990933A09A0933B0937
:10519000B0933C098091EE049091EF04A091F0044B
:1051A000B091F1049E5FAF4FBF4F8093EE04909398
:1051B000EF04A093F004B093F1041092E90410926C
:1051C000E8048091EA049091EB04A091EC04B09182
:1051D000ED040196A11DB11D8093EA049093EB04A8
:1051E000A093EC04B093ED041092F9081092F80823
:1051F00020E030E009CD6EBC0DB407FEFDCF8EB5CA
:10520000811118CDD8CD8091F2089091F308A0912A
:10521000F408B091F50879E0B695A795979587952C
:105220007A95D1F79C01AD012F5F3F4F4F4F5F4FF4
:105230008091DF02833039F069E0220F331F441F71
:10524000551F6A95D1F761E18AED92E00E944B4CBF
:10525000882309F41CC480E38093DA028091DD0284
:10526000882321F08AED92E00E9405428091E102BC
:1052700081508093E1028111FACA2091DE024091AF
:10528000DA0269E083E00E9481540E944744EFCA39
:105290003090DE028090DA027091CA026091CB02F7
:1052A000872F861B8F3F09F405C481E0870F809309
:1052B000CA02A72FB0E0A853BE4F12961C92982F97
:1052C000961B9F3F09F46EC292E0970F9093CA021B
:1052D000E82FF0E0E853FE4F5282292F30E0309360
:1052E000D3022093D202892F861B8F3F09F41DC55C
:1052F00043E0470F4093CA02F901E853FE4F728220
:10530000842F90E0942E961A9093D1028093D0022D
:10531000BB24BA949B1409F484C544E0470F40931E
:10532000CA02DC01A853BE4F12967C92129782816A
:105330008F5F828312968C9112978F5F12968C9357
:10534000842F861B8F3F09F478C57B5F7093CA0258
:10535000A42FB0E0A853BE4F8CE012968C93972EEA
:10536000961A82818F5F8283882009F4DAC2809145
:10537000D0029091D102AC015527DA01A853BE4F5B
:1053800012964C9112974F5F12964C934FEF9416D2
:1053900009F4C7C341E0470F4093CA02A72FB0E00A
:1053A000A853BE4F12968C92942E961A52815F5F2C
:1053B0005283019609F4B4C2332009F468C2809183
:1053C000D0029091D102DC01BB27A853BE4F1296A8
:1053D0002C9112972F5F12962C931297EFEF9E1637
:1053E00009F444C371E0740F7093CA02E42FF0E033
:1053F000E853FE4F32824091D2025091D3029A017B
:105400003327F901E853FE4F22812F5F2283761B59
:105410007F3F09F447C2019609F041CB42CB80900F
:10542000DE029090DA02A091CA026091CB028A2F2C
:10543000861B8F3F09F4E6C141E04A0F4093CA0240
:105440008A2F90E0FC01E853FE4F1282842F861BC6
:105450008F3F09F4E2C382E08A0F8093CA02E42FEF
:10546000F0E0E853FE4F93E09283282F30E0309332
:10547000D3022093D202982F961B9F3F09F458C461
:1054800083E08A0F8093CA02A90148535E4F5A01F4
:10549000FA017282482F50E0782F761B5093D10288
:1054A0004093D0027F3F09F478C484E08A0F809350
:1054B000CA0248535E4FFA017282F50192819F5FE2
:1054C0009283FA0192819F5F9283982F961B9F3F50
:1054D00009F496C4AB5FA093CA0290E088539E4F34
:1054E000FC0152827A2F761BF50182818F5F8283C5
:1054F000992009F4E6C28091D0029091D102AC01CA
:10550000552748535E4FFA01B281BF5FB2837F3F98
:1055100009F4B1C341E04A0F4093CA02B0E0A85376
:10552000BE4F12969C92742F761BD50112965C91F9
:1055300012975F5F12965C93019609F451C488201C
:1055400009F4DFC28091D0029091D102DC01BB2727
:10555000A853BE4F12962C9112972F5F12962C9340
:1055600012977F3F09F4B5C371E0740F7093CA02BC
:10557000E42FF0E0E853FE4F82824091D202509136
:10558000D3029A013327F901E853FE4F22812F5F9E
:105590002283761B7F3F09F476C1019611F01296A3
:1055A0006C928091CE028F5F8093CE020E9447441E
:1055B0005EC98090DE024091CA025091CB02842FD6
:1055C000851B8F3F09F45CC3E1E0E40FE093CA025E
:1055D000A42FB0E0A853BE4F12961C928E2F851BAD
:1055E0008F3F09F482C362E0640F6093CA02F0E067
:1055F000E853FE4F83E08283862F90E09093D3029E
:105600008093D202262F251B2F3F09F496C3B3E0C7
:10561000BB2EB40EB092CA02FC01E853FE4F728258
:105620006B2D70E0AB2CA51A7093D1026093D00261
:10563000AFEFAA1609F489C3A4E0BA2EB40EB09253
:10564000CA029B0128533E4FD90112967C92B28127
:10565000BF5FB283D9011296AC901297A3941296B1
:10566000AC92BB2DB51BBF3F09F4AEC34B5F40935B
:10567000CA02AB2DB0E0A853BE4F6CE012966C93FB
:10568000A42EA51A62816F5F6283D90112966C9174
:1056900012976F5F12966C93BFEFAB1609F4DFC2DF
:1056A00099249394940E9092CA02A42FB0E0A85328
:1056B000BE4F22E312962C93492D451B22812F5F6A
:1056C0002283882009F49AC2FC01E853FE4F6091BE
:1056D000D0027091D1029B01332728533E4FD9014C
:1056E0001296BC901297B3941296BC924F3F09F455
:1056F00010C341E0490D4093CA02A92DB0E0A85360
:10570000BE4F12968C92A281AF5FA283451B4F3F82
:1057100009F47BC26F3F7F4F11F0F90162828091E3
:10572000CE028F5F8093CE020E9447443ECC8AED2A
:1057300092E00E945242F092C701E092C601EBC98A
:105740002E2F30E0A091D202B091D3027E2F309361
:10575000D1022093D002BB27A853BE4F12968C9142
:1057600012978F5F12968C931297F901E853FE4FB0
:1057700082818F5F828312968C9112978F5F12962F
:105780008C931297992009F465C28091D002909170
:10579000D1029C013327F901E853FE4F22812F5F8C
:1057A000228319C2282F30E0E091D202F091D30277
:1057B000782F3093D1022093D002FF27E853FE4F79
:1057C00082818F5F8283D901A853BE4F12968C913C
:1057D00012978F5F12968C9382818F5F82838820CD
:1057E00009F435C28091D0029091D1029C013327F7
:1057F000D901A853BE4F12962C9112972F5F129683
:105800002C9392C12A2F30E0E091D202F091D30282
:105810003093D1022093D002FF27AF0148535E4F4F
:105820005A01FA0182818F5F828328533E4FF9012A
:1058300082818F5F8283F50182818F5F82839920CD
:1058400009F40BC28091D0029091D1029C013327C0
:1058500028533E4FF90142814F5F4283F501228177
:105860002F5F22838F3FFFEF9F0709F4B0C24A2FBB
:105870007FEF81106BCE1093D1020093D002409144
:10588000D2025091D30242504093CA028FCE10935D
:10589000D1020093D0029FEF991203C94091D20226
:1058A0005091D30242504093CA022091F80830919F
:1058B000F9080C947823432F50E08091D202909104
:1058C000D3025093D1024093D002DC01BB27A853EE
:1058D000BE4F12967C9112977F5F12967C9312971F
:1058E000FA01E853FE4F72817F5F728312967C91BA
:1058F00012977F5F12967C931297FA01E853FE4F3E
:1059000072817F5F728312964C9112974F5F12964D
:105910004C931297662309F490C1732F3FEF1CCA72
:10592000742FF901E853FE4FA72FB0E0B093D102D6
:10593000A093D0028FEF981609F4EFC141E0470F12
:105940004093CA02A853BE4F12967C92942E961A88
:1059500082818F5F828330CD1093D1020093D00279
:10596000FFEFBF129EC89ACF742FD901A853BE4F24
:10597000872F90E09093D1028093D002EFEFBE1674
:1059800009F4C5C141E0470F4093CA02FC01E85346
:10599000FE4F7282B42EB61A12968C9112978F5FB8
:1059A00012968C934AC89090DE024091DA022091C0
:1059B000CA023091CB02822F831B8F3F09F4C7C0EC
:1059C000E1E0E20FE093CA02A22FB0E0A853BE4F7D
:1059D00012961C928E2F831B8F3F09F4B7C082E072
:1059E000820F8093CA02F0E0E853FE4F93E0928367
:1059F000E82FF0E0F093D302E093D202831B8F3FB5
:105A000009F423C153E0520F5093CA02E853FE4FEA
:105A10007282852F90E09093D1028093D002531B25
:105A20005F3F09F4C6C154E0520F5093CA02DC0133
:105A3000A853BE4F12967C92129782818F5F828309
:105A400012968C9112978F5F12968C93852F831BE1
:105A50008F3F09F494C02B5F2093CA02A52FB0E0BA
:105A6000A853BE4F8CE012968C9389C04091D2020D
:105A70005091D302FA01FF27E853FE4F82818F5FD6
:105A8000828310CF8AED92E00E940542B6C940E0C1
:105A900052E062EF76E08AED92E00E94584288235D
:105AA00009F4DCCBA6C9272F30E0A091D202B09137
:105AB000D3024DCE272F30E0E091D202F091D302F5
:105AC00078CEA90148535E4F5A018A2F90E09093F7
:105AD000D1028093D0027F3F09F42DC141E04A0FEB
