:10000000EBC300001AC4000018C4000016C40000AE
:1000100014C4000012C4000010C400000EC400008C
:100020000CC400000AC4000008C4000006C400009C
:1000300004C4000002C4000000C40000FEC30000AD
:10004000FCC300000C94FA520C94974AF6C30000CB
:10005000F4C30000F2C30000F0C300000C94844914
:10006000ECC300000C94B354E8C30000E6C30000E6
:10007000E4C30000E2C30000E0C30000DEC30000F0
:10008000DCC30000DAC30000D8C30000D6C3000000
:10009000D4C30000D2C30000D0C30000CEC3000010
:1000A000CCC30000CAC30000C8C30000C6C3000020
:1000B000C4C30000C2C30000C0C30000BEC3000030
:1000C000BCC30000BAC30000B8C30000B6C3000040
:1000D000B4C30000B2C30000B0C30000AEC3000050
:1000E000ACC30000366EF96D296C296C296CC86DA3
:1000F000BB6DB86D8B6D796DAD70296C296C296CF9
:10010000296C296C296C296C296C296C296C296C47
:10011000296CAA70A870296C296C296C987096704B
:1001200094709270296C90708D70296C8A707770C1
:100130006B705F704A703C701D701A70856F296C0F
:10014000576F056F036FEF6E296C296CE96E296C90
:10015000E46ED36ECE6EB76E786E726E706E6E6E2B
:10016000676E5D6D476DF66DB447B847BC47C247D3
:10017000C847B347CE47D447DA47E047E647EC479E
:10018000F247F847B347FE470448AE47A748AF4891
:10019000B448BE48C8489648D248DA48E248EC48D5
:1001A000F64800490F491949964823492D493749CE
:1001B00009001B002E0040005300650078008A00F3
:1001C0009D00AF00C200D400E700F9000C011E0141
:1001D00031014301560168017B018E01A001B30189
:1001E000C601D801EB01FE011002230236024802CB
:1001F0005B026E0281029302A602B902CC02DF0208
:10020000F102040317032B033D035003620375033C
:1002100088039B03AE03C103D403E703FA030D0471
:1002200020043304460459046C047F049204A5049A
:10023000B804CB04DE04F104040517052A053E05C5
:100240005105640577058A059D05B105C405D705E7
:10025000EA05FE051106240637064B065E06710602
:1002600085069806AB06BF06D206E506F9060C071A
:100270002007330746075A076D0781079407A80729
:10028000BB07CF07E207F60709081D083108440835
:1002900058086B087F089308A608BA08CD08E1083B
:1002A000F50809091C093009440957096B097F0938
:1002B0009309A609BA09CE09E209F6090A0A1D0A34
:1002C000310A450A590A6D0A810A950AA90ABD0A26
:1002D000D10AE50AF90A0D0B210B350B490B5D0B11
:1002E000710B850B990BAD0BC10BD50BE90BFE0BFD
:1002F000120C260C3A0C4E0C620C770C8B0C9F0CDB
:10030000B30CC80CDC0CF00C040D190D2D0D410DB7
:10031000560D6A0D7E0D930DA70DBC0DD00DE50D8C
:10032000F90D0D0E220E360E4B0E5F0E740E880E5A
:100330009D0EB20EC60EDB0EEF0E040F190F2D0F21
:10034000420F560F6B0F800F940FA90FBE0FD30FE4
:10035000E70FFC0F111026103B104F10641079109E
:100360008E10A310B810CC10E110F6100B11201154
:1003700035114A115F11741189119E11B311C81101
:10038000DD11F21107121D12321247125C127112A6
:1003900086129B12B112C612DB12F01206131B1347
:1003A000301345135B13701385139B13B013C513E0
:1003B000DB13F01306141B14301446145B14711471
:1003C00086149C14B114C714DC14F21408151D15FE
:1003D000331548155E15741589159F15B515CA1581
:1003E000E015F6150C16211637164D1663167916FC
:1003F0008E16A416BA16D016E616FC161217281773
:100400003E1754176A1780179617AC17C217D817DC
:10041000EE1704181A18301846185C187218891844
:100420009F18B518CB18E118F8180E1924193A19A5
:10043000511967197D199419AA19C119D719ED19FC
:10044000041A1A1A311A471A5E1A741A8B1AA11A48
:10045000B81ACE1AE51AFB1A121B291B3F1B561B92
:100460006D1B831B9A1BB11BC71BDE1BF51B0C1CD2
:10047000231C391C501C671C7E1C951CAC1CC31C07
:10048000D91CF01C071D1E1D351D4C1D631D7A1D3A
:10049000911DA91DC01DD71DEE1D051E1C1E331E5E
:1004A0004A1E621E791E901EA71EBF1ED61EED1E7E
:1004B000051F1C1F331F00002110422063308440A1
:1004C000A550C660E770088129914AA16BB18CC123
:1004D000ADD1CEE1EFF13112100273325222B5529A
:1004E0009442F772D662399318837BB35AA3BDD373
:1004F0009CC3FFF3DEE36224433420040114E6646A
:10050000C774A44485546AA54BB528850995EEE5C2
:10051000CFF5ACC58DD55336722611163006D77679
:10052000F6669556B4465BB77AA719973887DFF712
:10053000FEE79DD7BCC7C448E5588668A778400841
:10054000611802282338CCC9EDD98EE9AFF9488962
:1005500069990AA92BB9F55AD44AB77A966A711AD9
:10056000500A333A122AFDDBDCCBBFFB9EEB799BB2
:10057000588B3BBB1AABA66C877CE44CC55C222C29
:10058000033C600C411CAEED8FFDECCDCDDD2AAD02
:100590000BBD688D499D977EB66ED55EF44E133EB9
:1005A000322E511E700E9FFFBEEFDDDFFCCF1BBF52
:1005B0003AAF599F788F8891A981CAB1EBA10CD12C
:1005C0002DC14EF16FE18010A100C230E320045034
:1005D000254046706760B9839893FBA3DAB33DC3A7
:1005E0001CD37FE35EF3B1029012F322D232354284
:1005F000145277625672EAB5CBA5A89589856EF537
:100600004FE52CD50DC5E234C324A01481046674D3
:10061000476424540544DBA7FAB79987B8975FE786
:100620007EF71DC73CD7D326F2369106B016576623
:100630007676154634564CD96DC90EF92FE9C8990E
:10064000E9898AB9ABA94458654806782768C01873
:10065000E1088238A3287DCB5CDB3FEB1EFBF98BE6
:10066000D89BBBAB9ABB754A545A376A167AF10AC3
:10067000D01AB32A923A2EFD0FED6CDD4DCDAABDF6
:100680008BADE89DC98D267C076C645C454CA23C13
:10069000832CE01CC10C1FEF3EFF5DCF7CDF9BAFC6
:1006A000BABFD98FF89F176E367E554E745E932E63
:1006B000B23ED10EF01E00002000230026002900CB
:1006C0002C002F0032000001000003010601090187
:1006D00005050505070508080808020202020A0ABE
:1006E00008080404040401010101010101010303DC
:1006F000030303030303040707070C0C0C0C0C0C87
:100700000C0C0202020206060606060606060B0B83
:100710000B0B0B0B0B0B01021020200808102040C4
:1007200010204080020102010804020101020408B5
:100730001020408080402010080402018004020143
:10074000804020100804020108040201010204088C
:1007500010204080010204081020408000000A0B95
:1007600002090C0D0E080703040100000000000040
:100770000000000000000000000000000000000079
:100780000000000000000000121110000000000036
:100790000000000000000000000000000000000059
:1007A000000000002100240027002A002D00300056
:1007B000330001010000040107010A0100002200CA
:1007C000250028002B002E0031003400020100001B
:1007D000050108010B01027111241FBECFEFD1E208
:1007E000DEBFCDBF00E00CBF12E0A0E0B2E0E2E16E
:1007F000F0E001E00BBF02C007900D92A635B107F3
:10080000D9F723E1A6E5B2E001C01D92AB33B207F0
:10081000E1F713E0CCEED3E000E006C02197010938
:10082000802FFE010E94BE7FCB3ED10780E00807EB
:10083000A9F70E9449570C94FA7FE2CBCF92DF923E
:10084000EF92FF920F931F93CF93DF938091C1118B
:100850009091C211883B23E0920711F40C949213FB
:1008600008F463C18E3AE4E09E0709F435C608F047
:1008700088C1853124E0920711F40C94C61008F069
:1008800021C5823EF3E09F0709F467C010F40C9481
:100890005B168D3F23E0920711F40C943F108C30CF
:1008A000E4E09E0711F40C946F10813F934011F027
:1008B0000C941D1080913012815080933012882347
:1008C00009F423C120913E1230913F1280914F0EC6
:1008D0009091500EA091510EB091520E820F931F25
:1008E000A11DB11D80934F0E9093500EA093510EF9
:1008F000B093520EE091490E81E08E0F8093490E25
:10090000F0E0EE0FFF1FEE0FFF1FE75BF54F80914A
:100910003C1290913D12A0913E12B0913F12808303
:100920009183A283B3838091D2119091D3110197C7
:100930009093D3118093D211892B11F40C9426102B
:10094000109241121092401281E08093481282EE80
:1009500093E09093C2118093C1110E94E3548111DE
:10096000DAC080913B12E0914F12F091501288232F
:1009700011F40C941319A08120913212309133128A
:100980004091341250913512B0E00E94D27FDC01C8
:10099000CB014AE0B695A795979587954A95D1F7EB
:1009A00090933F1280933E129091CD1190933D12FF
:1009B0008091CC11882311F40C94FC174091E8111C
:1009C0005091E9116091EA117091EB1177FF02C02B
:1009D0000C94D71C00911012109111122091121238
:1009E00030911312400F511F621F731F4093E81183
:1009F0005093E9116093EA117093EB119160909319
:100A00003D12813011F00C94FC174091F01150917F
:100A1000F1116091F2117091F31177FF02C00C9403
:100A2000D91A009118121091191220911A123091AE
:100A30001B12400F511F621F731F4093F011509300
:100A4000F1116093F2117093F31190913D12946043
:100A500090933D12833039F14091F4115091F5118A
:100A60006091F6117091F71177FF02C00C94EF1AA4
:100A700000911C1210911D1220911E1230911F1214
:100A8000400F511F621F731F4093F4115093F511D3
:100A90006093F6117093F71190913D1298609093C6
:100AA0003D12843029F18091F8119091F911A091B3
:100AB000FA11B091FB11B7FF02C00C94441C409195
:100AC0002012509121126091221270912312840FF2
:100AD000951FA61FB71F8093F8119093F911A0934B
:100AE000FA11B093FB1180913D12806180933D1209
:100AF00081EF93E09093C2118093C11180913012E5
:100B00008150809330128111DDCE80E392E10E940A
:100B1000D9548111D7CE81E0DF91CF911F910F91F0
:100B2000FF90EF90DF90CF900895863AF2E09F0714
:100B300011F40C94E30E08F0EDC08338E2E09E0758
:100B400011F40C94F90D08F429C78F38F2E09F07CF
:100B500011F40C945F0E10F40C944F16873922E0B8
:100B6000920711F40C94A30E8B39E2E09E0711F466
:100B70000C94BF0E8339924011F00C941D100C940C
:100B8000810E873FE4E09E0711F40C94F61408F000
:100B90004CC58D3C24E0920709F477C010F40C9406
:100BA000AC168F3DE4E09E07E1F08B3EF4E09F073A
:100BB00011F40C94C2148A3D944011F00C941D1051
:100BC0000E94E3548111A7CFE0914F12F09150128F
:100BD000808180933D128FED94E09093C2118093B9
:100BE000C11180913012815080933012882311F40A
:100BF0000C94AF1820913E1230913F1280914F0E0D
:100C00009091500EA091510EB091520E820F931FF1
:100C1000A11DB11D80934F0E9093500EA093510EC5
:100C2000B093520EE091490E81E08E0F8093490EF1
:100C3000F0E0EE0FFF1FEE0FFF1FE75BF54F809117
:100C40003C1290913D12A0913E12B0913F128083D0
:100C50009183A283B38380912C1290912D120197DE
:100C600090932D1280932C12892B11F40C94E7167B
:100C7000109241121092401281E0809348128DEC44
:100C800094E09093C2118093C1110E94E3548111AA
:100C900042CFE0914F12F09150128081A091C61185
:100CA000B091C711A80FB11D87FDBA95B093C711B8
:100CB000A093C61180913B12882311F40C946819FB
:100CC00020913212309133124091341250913512EA
:100CD0000E94D27FDC01CB01EAE0B695A7959795FB
:100CE0008795EA95D1F790933F1280933E12109228
:100CF00041121092401281E0809348128AED94E0F4
:100D00009093C2118093C1110E94E354882309F487
:100D10005BCF01CF8F3423E0920709F4C7C108F0FD
:100D2000FCC48A30F3E09F0711F40C94F60F10F422
:100D30000C94B816873323E0920709F48DC08634EB
:100D4000E3E09E0709F459C18E30934011F00C94F2
:100D50001D100E94E3548111DECEE0914F12F091FC
:100D60005012208131813093D1112093D011009104
:100D7000CC11E02FF0E0EE0FFF1FEE0FFF1FEF533F
:100D8000FE4EC388D488E588F688C0922412D0929B
:100D90002512E0922612F0922712C4EDD1E1ECEF79
:100DA000F1E110E00117F1F0488159816A817B81FE
:100DB000440F551F661F771FDB01CA018C199D095F
:100DC000AE09BF098C8B9D8BAE8BBF8B408351834B
:100DD000628373838C199D09AE09BF09848B958B3F
:100DE000A68BB78B1F5F249634961530D9F6609189
:100DF000C8117091C9118091CA119091CB11FC0159
:100E0000E60FF71F4091D2115091D3114E0F5F1F83
:100E1000240F351FC21AD30AE108F108C092281224
:100E2000D0922912E0922A12F0922B12672B11F421
:100E30000C94281580913C128F7B80933C12109269
:100E400041121092401282E08093481287E393E0AF
:100E50009093C2118093C1110E94E35481115BCE23
:100E600080913B12E0914F12F0915012882311F4BF
:100E70000C94F118A081B18120913212309133127B
:100E800040913412509135120E94D27FDC01CB0187
:100E90003AE0B695A795979587953A95D1F79093AF
:100EA0003F1280933E129091CD1190933D1280910C
:100EB000CC11882311F40C94AC174091E811509197
:100EC000E9116091EA117091EB1177FF02C00C9467
:100ED000701C009110121091111220911212309179
:100EE0001312400F511F621F731F4093E81150935C
:100EF000E9116093EA117093EB11916090933D12A8
:100F0000813011F00C94AC174091F0115091F11117
:100F10006091F2117091F31177FF02C00C94571A8F
:100F2000009118121091191220911A1230911B126F
:100F3000400F511F621F731F4093F0115093F11126
:100F40006093F2117093F31190913D12946090931D
:100F50003D12833039F14091F4115091F5116091B7
:100F6000F6117091F71177FF02C00C946D1A009181
:100F70001C1210911D1220911E1230911F12400F51
:100F8000511F621F731F4093F4115093F51160932A
:100F9000F6117093F71190913D12986090933D1265
:100FA000843029F18091F8119091F911A091FA11F2
:100FB000B091FB11B7FF02C00C94E41B40912012CA
:100FC000509121126091221270912312840F951F6B
:100FD000A61FB71F8093F8119093F911A093FA11EF
:100FE000B093FB1180913D12806180933D1286E4A5
:100FF00093E09093C2118093C1118091301281507F
:1010000080933012882311F40C940F1520913E1216
:1010100030913F1280914F0E9091500EA091510E41
:10102000B091520E820F931FA11DB11D80934F0EE0
:101030009093500EA093510EB093520EE091490E32
:1010400081E08E0F8093490EF0E0EE0FFF1FEE0F50
:10105000FF1FE75BF54F80913C1290913D12A091EC
:101060003E12B0913F1280839183A283B38380911B
:101070003C128F7780933C128091C8119091C911D6
:1010800001979093C9118093C811892B11F40C9486
:101090002415109241121092401282E0809348125F
:1010A0008FE493E09093C2118093C1110E94E354A6
:1010B000811131CD80913B12E0914F12F09150128D
:1010C000882311F40C942519A081B181209132124A
:1010D0003091331240913412509135120E94D27FD8
:1010E000DC01CB012AE0B695A795979587952A95BF
:1010F000D1F790933F1280933E129091CD1190932F
:101100003D128091CC11882311F40C944E1840911B
:10111000E8115091E9116091EA117091EB1177FF9C
:1011200002C00C94031D0091101210911112209115
:10113000121230911312400F511F621F731F409300
:10114000E8115093E9116093EA117093EB119160EB
:1011500090933D12813011F00C944E184091F01193
:101160005091F1116091F2117091F31177FF02C06B
:101170000C942F1B009118121091191220911A1221
:1011800030911B12400F511F621F731F4093F011CB
:101190005093F1116093F2117093F31190913D12FD
:1011A000946090933D12833039F14091F411509145
:1011B000F5116091F6117091F71177FF02C00C9450
:1011C000451B00911C1210911D1220911E1230918E
:1011D0001F12400F511F621F731F4093F411509351
:1011E000F5116093F6117093F71190913D1298608C
:1011F00090933D12843029F18091F8119091F9116A
:10120000A091FA11B091FB11B7FF02C00C94861C9B
:10121000409120125091211260912212709123125C
:10122000840F951FA61FB71F8093F8119093F91193
:10123000A093FA11B093FB1180913D1280618093CD
:101240003D128EE593E09093C2118093C11180917D
:101250003012815080933012882311F40C94E718D7
:1012600020913E1230913F1280914F0E9091500E7E
:10127000A091510EB091520E820F931FA11DB11D6E
:1012800080934F0E9093500EA093510EB093520E38
:10129000E091490E81E08E0F8093490EF0E0EE0F51
:1012A000FF1FEE0FFF1FE75BF54F80913C129091FF
:1012B0003D12A0913E12B0913F1280839183A28390
:1012C000B383DACE8D3324E0920711F40C948716A1
:1012D00010F40C9465168C35E4E09E0751F18036CD
:1012E000F4E09F0709F446C08135944009F0A5C693
:1012F0000E94E35481110FCCE0914F12F0915012F3
:101300008081918190932D1280932C1210923B1228
:101310008091C31185FFD3C01092411210924012E8
:1013200084E0809348128CE594E09093C2118093FE
:10133000C1110E94E3548111EECBE0914F12F09164
:10134000501280819181A281B38180933612909353
:101350003712A0933812B0933912109241121092A2
:10136000401281E08093481280E694E09093C2118D
:101370008093C1110E94E3548111CDCBE0914F12B3
:10138000F0915012C081C0933A128091CE02909198
:10139000CF02959587959595879595958795959580
:1013A00087952091000230910102821B930B97FFD9
:1013B00002C00C9475198436910514F40C945D19CF
:1013C000209176113091771140E050E06091361213
:1013D0007091371280913812909139120E94717F6A
:1013E0009B01AC0104C05695479537952795CA9542
:1013F000D2F7213080E138074105510520F020E087
:1014000030E140E050E020933212309333124093A9
:1014100034125093351280916B0F213094E03907CC
:101420004105510510F40C94B918882331F1A091AD
:101430006C0FB0916D0F0E94D27FDC01CB01CAE02E
:10144000B695A79597958795CA95D1F7809332124F
:1014500090933312A0933412B09335128091AA1155
:101460009091AB118E3FEFEF9E0711F40C94A61DE7
:1014700001969093AB118093AA1181E080933B1267
:101480008091A8119091A9118E3FFFEF9F0711F451
:101490000C94FA1B01969093A9118093A811809146
:1014A000321290913312A0913412B09135128F3FC5
:1014B0009105A105B10509F010F40C94C51910921D
:1014C00041121092401282E0809348128EEA94E01A
:1014D0009093C2118093C1110E94E35481111BCBE0
:1014E000E0914F12F0915012A081B181B093C711D9
:1014F000A093C61180913B12882311F40C947017AD
:1015000020913212309133124091341250913512A1
:101510000E94D27FDC01CB01FAE0B695A7959795A2
:101520008795FA95D1F790933F1280933E121092CF
:1015300041121092401281E0809348128BEB94E0AC
:101540009093C2118093C1110E94E3548111E3CAA8
:10155000E0914F12F0915012808180933D1280EC07
:1015600094E09093C2118093C11180913012815008
:1015700080933012882311F40C940F1520913E12A1
:1015800030913F1280914F0E9091500EA091510ECC
:10159000B091520E820F931FA11DB11D80934F0E6B
:1015A0009093500EA093510EB093520EE091490EBD
:1015B00081E08E0F8093490EF0E0EE0FFF1FEE0FDB
:1015C000FF1FE75BF54F80913C1290913D12A09177
:1015D0003E12B0913F1280839183A283B3838091A6
:1015E0003C128F7780933C128091C3119091C4116B
:1015F00086FD02C00C949D1720912C1230912D1263
:101600002150310930932D1220932C12232B09F0F5
:101610002FCB91FF05C08091311281110E94D230F1
:101620001092C2111092C11176CA8C31E5E09E076A
:1016300011F40C94FA1610F40C94C2168633F5E0EB
:101640009F0709F460C08F3325E0920711F40C94D2
:101650001D178C32954009F0F0C40E94E3548111AB
:101660005ACAE0914F12F0915012808191811092EC
:101670003D1220E533EC30933F1220933E1233C0ED
:1016800020913E1230913F1280914F0E9091500E5A
:10169000A091510EB091520E820F931FA11DB11D4A
:1016A00080934F0E9093500EA093510EB093520E14
:1016B00081E08E0F8093490EF0E0EE0FFF1FEE0FDA
:1016C000FF1FE75BF54F80913C1290913D12A09176
:1016D0003E12B0913F1280839183A283B3838091A5
:1016E0002E1290912F129C012150310930932F120C
:1016F00020932E12892B09F493CF86E395E09093E3
:10170000C2118093C111E091490E80914A0E9E2F23
:10171000981B9F3F09F0B4CFFEC9893723E0920799
:1017200011F40C94041610F40C9444168139E3E07F
:101730009E0709F4DAC08D3AF3E09F0709F4F3C677
:101740008238934009F079C40E94E3548111E3C9BF
:1017500080913B12E0914F12F0915012882311F4C6
:101760000C941D19A08120913212309133124091B6
:10177000341250913512B0E00E94D27FDC01CB01CF
:10178000CAE0B695A79597958795CA95D1F7909396
:101790003F1280933E129091CD1190933D12809113
:1017A000CC11882311F40C9425184091E811509124
:1017B000E9116091EA117091EB1177FF02C00C946E
:1017C000ED1C009110121091111220911212309103
:1017D0001312400F511F621F731F4093E811509363
:1017E000E9116093EA117093EB11916090933D12AF
:1017F000813011F00C9425184091F0115091F111A5
:101800006091F2117091F31177FF02C00C94701B7C
:10181000009118121091191220911A1230911B1276
:10182000400F511F621F731F4093F0115093F1112D
:101830006093F2117093F31190913D129460909324
:101840003D12833039F14091F4115091F5116091BE
:10185000F6117091F71177FF02C00C94861B00916E
:101860001C1210911D1220911E1230911F12400F58
:10187000511F621F731F4093F4115093F511609331
:10188000F6117093F71190913D12986090933D126C
:10189000843029F18091F8119091F911A091FA11F9
:1018A000B091FB11B7FF02C00C94141C40912012A0
:1018B000509121126091221270912312840F951F72
:1018C000A61FB71F8093F8119093F911A093FA11F6
:1018D000B093FB1180913D12806180933D1281E9AC
:1018E00093E09093C2118093C11180913012815086
:1018F00080933012882311F40C94DD1820913E124D
:1019000030913F1280914F0E9091500EA091510E48
:10191000B091520E820F931FA11DB11D80934F0EE7
:101920009093500EA093510EB093520EE091490E39
:1019300081E08E0F8093490EF0E0EE0FFF1FEE0F57
:10194000FF1FE75BF54F80913C1290913D12A091F3
:101950003E12B0913F1280839183A283B383809122
:10196000CA119091CB1101979093CB118093CA111A
:10197000892B09F415C5109241121092401281E092
:101980008093481282E893E09093C2118093C11132
:101990000E94E354882309F4DBCEBDC8843622E0DC
:1019A000920709F4CCC008F03FC3009711F40C94DF
:1019B00033178234924009F040C30E94E3548111EE
:1019C000AAC8E0914F12F091501280818C3011F42E
:1019D0000C949C1C10F00C94F918873009F4A9C0E1
:1019E0008B3011F40C94ED16833011F40C94B31C6D
:1019F0009091D6032091D703392F321B3F3F41F1FD
:101A0000E1E0E90FE093D603A92FB0E0AC52BD4F5F
:101A100012961C923E2F321B3F3FD1F032E0390F1D
:101A20003093D603F0E0EC52FD4F43E04283432F66
:101A300050E05093DF034093DE03321B3F3F41F001
:101A40009D5F9093D603FA01EC52FD4F91E0928393
:101A50009091D603492F50E05093DD034093DC036F
:101A6000392F321B3F3F11F40C94BA1D9F5F9093A6
:101A7000D603DA01AC52BD4F91E012969C931297B7
:101A80004091DE035091DF03FA01FF27EC52FD4F36
:101A900092819F5F928312969C9112979F5F1296FC
:101AA0009C93A091D6039A2F921B9F3F11F40C9404
:101AB000CA1D91E09A0F9093D603B0E0AC52BD4F8F
:101AC00035E012963C9332813F5F3283882311F4D4
:101AD0000C94AA1D6091DC037091DD03EB01DD27FE
:101AE000CC52DD4F3A813F5F3A83392F321B3F3F63
:101AF00011F40C94C61D31E0390F3093D603A92F91
:101B0000B0E0AC52BD4F12968C9382818F5F82837E
:101B1000321B3F3F11F40C94B51D6F3F7F4F11F006
:101B20008FEF8A838091DA038F5F8093DA030E94BC
:101B30005D3E84E692E09093C2118093C111809142
:101B4000490E90914A0E891B80958093301288230C
:101B500011F40C948B05109241121092401282E005
:101B60008093481288E692E09093C2118093C1114D
:101B70000E94E35481110C948B05E0914F12F09177
:101B80005012808191818093C3119093C41187FF7B
:101B900003C08F7980933C12109241121092401230
:101BA00081E0809348128AE792E09093C21180937B
:101BB000C1110E94E35481110C948B05E0914F12E6
:101BC000F091501290819093CC1181E001C0880F68
:101BD0009A95EAF78093CD1110924112109240121B
:101BE00084E08093481283E892E09093C21180933E
:101BF000C1110E94E35481110C948B05E0914F12A6
:101C0000F091501280819181A281B3818093D4118F
:101C10009093D511A093D611B093D7111092411281
:101C20001092401284E08093481287E892E09093EB
:101C3000C2118093C1110E94E35481110C948B0551
:101C4000E0914F12F091501280819181A281B38175
:101C50008093D8119093D911A093DA11B093DB112E
:101C6000109241121092401284E0809348128BE847
:101C700092E09093C2118093C1110E94E3548111AC
:101C80000C948B05E0914F12F0915012808191815C
:101C9000A281B3818093DC119093DD11A093DE11BA
:101CA000B093DF11109241121092401284E08093A1
:101CB00048128FE892E09093C2118093C1110E9464
:101CC000E35481110C948B05E0914F12F091501266
:101CD00080819181A281B3818093E0119093E11181
:101CE000A093E211B093E3111092411210924012AE
:101CF00084E08093481283E992E09093C21180932C
:101D0000C1110E94E35481110C948B05E0914F1294
:101D1000F091501280819181A281B3818093E4116E
:101D20009093E511A093E611B093E7111092411240
:101D30001092401282E08093481287E992E09093DB
:101D4000C2118093C1110E94E35481110C948B0540
:101D5000E0914F12F0915012808191819093C911BE
:101D60008093C811109241121092401282E0809329
:101D700048128BE992E09093C2118093C1110E94A6
:101D8000E35481110C948B05E0914F12F0915012A5
:101D9000808191819093CB118093CA1110923B1254
:101DA0008091C3119091C41190FFDFC01092411235
:101DB0001092401284E08093481286EA92E0909359
:101DC000C2118093C1110E94E35481110C948B05C0
:101DD000E0914F12F091501280819181A281B381E4
:101DE0008093361290933712A0933812B093391221
:101DF000109241121092401281E0809348128AEAB8
:101E000092E09093C2118093C1110E94E35481111A
:101E10000C948B05E0914F12F0915012C081C09349
:101E20003A12609136127091371280913812909167
:101E30003912611571058105910511F40C9477181B
:101E40002091CE023091CF02A90155954795559525
:101E500047955595479555954795209100023091A6
:101E60000102FA01E21BF30B9F01F7FF02C00C9481
:101E7000DC1BE436F10514F40C940C1A2091761155
:101E80003091771140E050E00E94717F9B01AC01DE
:101E900004C05695479537952795CA95D2F72130B6
:101EA000F0E13F074105510520F020E030E140E03E
:101EB00050E02093321230933312409334125093F7
:101EC0003512213084E038074105510510F40C9497
:101ED0007D1980916B0F882331F1A0916C0FB09127
:101EE0006D0F0E94D27FDC01CB01DAE0B695A79599
:101EF00097958795DA95D1F78093321290933312A4
:101F0000A0933412B09335128091AA119091AB1125
:101F10008E3FEFEF9E0711F40C94C21D0196909333
:101F2000AB118093AA1181E080933B128091A8119C
:101F30009091A9118E3FFFEF9F0711F40C949F1D04
:101F400001969093A9118093A811809132129091DB
:101F50003312A0913412B09135128F3F9105A10533
:101F6000B10509F010F40C94BD19109241121092B1
:101F7000401282E08093481280E093E09093C21177
:101F80008093C1110E94E35481110C948B058091C0
:101F90003B12E0914F12F0915012882309F472C75E
:101FA000A081B181209132123091331240913412CC
:101FB000509135120E94D27FDC01CB01CAE0B69568
:101FC000A79597958795CA95D1F79093CF11809350
:101FD000CE11109241121092401282E0809348126A
:101FE0008AE093E09093C2118093C1110E94E35460
:101FF00081110C948B05E0914F12F0915012808169
:1020000091819093D3118093D2111092411210922A
:10201000401282E0809348128EE093E09093C211C8
:102020008093C1110C94A906883622E0920709F426
:102030009FCD8A37924009F4BCCD8FEF9FEF9093EC
:10204000C2118093C11180E00C948C058091D01155
:102050009091D111892B09F4EDC480913C128F7BB2
:1020600080933C12109241121092401282E08093B1
:1020700048128DEF93E09093C2118093C1110E949A
:10208000E35481110C948B0580913B12E0914F1227
:10209000F0915012882311F40C947E18A081B18124
:1020A00020913212309133124091341250913512F6
:1020B0000E94D27FDC01CB012AE0B695A7959795C7
:1020C00087952A95D1F790933F1280933E120E94F4
:1020D00018568CE094E09093C2118093C1118091C6
:1020E0003012815080933012882309F498C42091D3
:1020F0003E1230913F1280914F0E9091500EA09160
:10210000510EB091520E820F931FA11DB11D8093ED
:102110004F0E9093500EA093510EB093520EE0913B
:10212000490E81E08E0F8093490EF0E0EE0FFF1F05
:10213000EE0FFF1FE75BF54F80913C1290913D122F
:10214000A0913E12B0913F1280839183A283B3830A
:1021500080913C128F7780933C128091D0119091A6
:10216000D11101979093D1118093D011892B09F44B
:1021700061C4109241121092401282E08093481282
:1021800085E194E09093C2118093C1110E94E354C1
:1021900081110C948B0580913B12E0914F12F091CC
:1021A0005012882311F40C940B19A081B181209155
:1021B00032123091331240913412509135120E94F4
:1021C000D27FDC01CB010AE0B695A795979587955C
:1021D0000A95D1F790933F1280933E129091CD11C2
:1021E00090933D128091CC11882309F4DEC6409172
:1021F000E8115091E9116091EA117091EB1177FFAC
:1022000002C00C94C11C0091101210911112209167
:10221000121230911312400F511F621F731F40930F
:10222000E8115093E9116093EA117093EB119160FA
:1022300090933D12813009F0B8C64091F011509151
:10224000F1116091F2117091F31177FF02C00C94BB
:10225000AD1A009118121091191220911A12309192
:102260001B12400F511F621F731F4093F0115093B8
:10227000F1116093F2117093F31190913D129460FB
:1022800090933D12833039F14091F4115091F51142
:102290006091F6117091F71177FF02C00C94C31A88
:1022A00000911C1210911D1220911E1230911F12CC
:1022B000400F511F621F731F4093F4115093F5118B
:1022C0006093F6117093F71190913D12986090937E
:1022D0003D12843029F18091F8119091F911A0916B
:1022E000FA11B091FB11B7FF02C00C945A1C409137
:1022F0002012509121126091221270912312840FAA
:10230000951FA61FB71F8093F8119093F911A09302
:10231000FA11B093FB1180913D12806180933D12C0
:1023200084E294E09093C2118093C11180913012A5
:10233000815080933012882309F471C320913E129A
:1023400030913F1280914F0E9091500EA091510EFE
:10235000B091520E820F931FA11DB11D80934F0E9D
:102360009093500EA093510EB093520EE091490EEF
:1023700081E08E0F8093490EF0E0EE0FFF1FEE0F0D
:10238000FF1FE75BF54F80913C1290913D12A091A9
:102390003E12B0913F1280839183A283B383DDCE3E
:1023A0008091281290912912A0912A12B0912B129B
:1023B000892B8A2B8B2B09F40BC280913C1283FF53
:1023C00003C0806480933C128091CE119091CF1114
:1023D00090933F1280933E129091CD1190933D12B5
:1023E0008091CC11882309F481C54091E811509166
:1023F000E9116091EA117091EB1177FF02C00C9422
:10240000FE1B0091101210911112209112123091A6
:102410001312400F511F621F731F4093E811509316
:10242000E9116093EA117093EB11916090933D1262
:10243000813009F05BC54091F0115091F11160912C
:10244000F2117091F31177FF02C00C942C1A0091D5
:1024500018121091191220911A1230911B12400F6C
:10246000511F621F731F4093F0115093F11160933D
:10247000F2117093F31190913D12946090933D127C
:10248000833031F14091F4115091F5116091F611C2
:102490007091F71177FF01C0F5C700911C121091E0
:1024A0001D1220911E1230911F12400F511F621FEA
:1024B000731F4093F4115093F5116093F6117093CC
:1024C000F71190913D12986090933D12843029F15C
:1024D0008091F8119091F911A091FA11B091FB112E
:1024E000B7FF02C00C94B11B4091201250912112F1
:1024F0006091221270912312840F951FA61FB71F9F
:102500008093F8119093F911A093FA11B093FB11F5
:1025100080913D12806180933D128DEA93E090930B
:10252000C2118093C111809130128150809330127A
:10253000882309F404C620913E1230913F12809105
:102540004F0E9091500EA091510EB091520E820FED
:10255000931FA11DB11D80934F0E9093500EA09319
:10256000510EB093520EE091490E81E08E0F809390
:10257000490EF0E0EE0FFF1FEE0FFF1FE75BF54F78
:1025800080913C1290913D12A0913E12B0913F1269
:1025900080839183A283B38380913C128F77809351
:1025A0003C12409128125091291260912A12709188
:1025B0002B1241505109610971094093281250931F
:1025C000291260932A1270932B12452B462B472B0E
:1025D00009F4FBC09091CD1190933D128091CC11E4
:1025E000882309F443C64091E8115091E9116091A4
:1025F000EA117091EB1177FF02C00C94891D0091D4
:102600001012109111122091121230911312400FDA
:10261000511F621F731F4093E8115093E91160939B
:10262000EA117093EB11916090933D12813009F0A3
:102630001DC64091F0115091F1116091F21170910D
:10264000F31177FF02C00C94471D009118121091EE
:10265000191220911A1230911B12400F511F621F44
:10266000731F4093F0115093F1116093F211709326
:10267000F31190913D12946090933D12833039F1A3
:102680004091F4115091F5116091F6117091F7118C
:1026900077FF02C00C945D1D00911C1210911D1259
:1026A00020911E1230911F12400F511F621F731F85
:1026B0004093F4115093F5116093F6117093F71154
:1026C00090913D12986090933D12843029F1809151
:1026D000F8119091F911A091FA11B091FB11B7FF87
:1026E00002C00C94731D40912012509121126091F0
:1026F000221270912312840F951FA61FB71F80937B
:10270000F8119093F911A093FA11B093FB118091F5
:102710003D12806180933D1288EB93E09093C2114B
:102720008093C111809130128150809330128823A0
:1027300009F493C520913E1230913F1280914F0EC3
:102740009091500EA091510EB091520E820F931F96
:10275000A11DB11D80934F0E9093500EA093510E6A
:10276000B093520EE091490E81E08E0F8093490E96
:10277000F0E0EE0FFF1FEE0FFF1FE75BF54F8091BC
:102780003C1290913D12A0913E12B0913F12808375
:102790009183A283B3838091281290912912A091F2
:1027A0002A12B0912B120197A109B1098093281226
:1027B00090932912A0932A12B0932B12892B8A2B63
:1027C0008B2B09F007CF80913C128F7B80933C12BA
:1027D0008091D2119091D311892B09F437CC80913B
:1027E0003C128F7B80933C12109241121092401247
:1027F00081E0809348128AEC93E09093C211809319
:10280000C1110E94E35481110C948B0580913B12FD
:10281000E0914F12F0915012882309F480C4A081F6
:10282000209132123091331240913412509135126E
:10283000B0E00E94D27FDC01CB016AE0B695A7959B
:10284000979587956A95D1F790933F1280933E12A2
:102850000E94185689ED93E09093C2118093C111A4
:1028600080913012815080933012882309F44EC435
:1028700020913E1230913F1280914F0E9091500E58
:10288000A091510EB091520E820F931FA11DB11D48
:1028900080934F0E9093500EA093510EB093520E12
:1028A000E091490E81E08E0F8093490EF0E0EE0F2B
:1028B000FF1FEE0FFF1FE75BF54F80913C129091D9
:1028C0003D12A0913E12B0913F1280839183A2836A
:1028D000B38380913C128F7780933C120C949304C5
:1028E00080913012815080933012882309F497C070
:1028F00020913E1230913F1280914F0E9091500ED8
:10290000A091510EB091520E820F931FA11DB11DC7
:1029100080934F0E9093500EA093510EB093520E91
:10292000E091490E81E08E0F8093490EF0E0EE0FAA
:10293000FF1FEE0FFF1FE75BF54F80913C12909158
:102940003D12A0913E12B0913F1280839183A283E9
:10295000B38380912C1290912D12019790932D1298
:1029600080932C12892B09F432C2109241121092DA
:10297000401282E0809348128BEE94E09093C21153
:102980008093C1110E94E35481110C948B058091B6
:102990003B12E0914F12F0915012882309F49EC42B
:1029A000A081B181209132123091331240913412C2
:1029B000509135120E94D27FDC01CB016AE0B695BE
:1029C000A795979587956A95D1F790933F12809335
:1029D0003E12109241121092401281E080934812F0
:1029E00087EF94E09093C2118093C1110E94E35449
:1029F00081110C948B05E0914F12F091501280815F
:102A000080933D128CEF94E09093C2118093C1119A
:102A100080913012815080933012811169CF809162
:102A2000490E90914A0E891B80958093301281E067
:102A30000C948C058091C3119091C41192FF02C037
:102A40000C940B0B0C94100B8091CA119091CB112C
:102A5000892B09F4A5CC80913C128F7B80933C128A
:102A6000109241121092401281E0809348128AE63F
:102A700093E09093C2118093C1110E94E35481119D
:102A80000C948B0580913B12E0914F12F091501203
:102A9000882309F45DC3A081209132123091331252
:102AA0004091341250913512B0E00E94D27FDC0187
:102AB000CB011AE0B695A795979587951A95D1F70A
:102AC00090933F1280933E129091CD1190933D12BE
:102AD0008091CC11882309F4DCC14091E811509118
:102AE000E9116091EA117091EB1177FD50C60091E8
:102AF0001012109111122091121230911312400FE6
:102B0000511F621F731F4093E8115093E9116093A6
:102B1000EA117093EB11916090933D12813009F0AE
:102B2000B8C14091F0115091F1116091F211709182
:102B3000F31177FD5CC400911812109119122091C5
:102B40001A1230911B12400F511F621F731F4093C6
:102B5000F0115093F1116093F2117093F311909171
:102B60003D12946090933D12833029F14091F4110D
:102B70005091F5116091F6117091F71177FD22C413
:102B800000911C1210911D1220911E1230911F12E3
:102B9000400F511F621F731F4093F4115093F511A2
:102BA0006093F6117093F71190913D129860909395
:102BB0003D12843019F18091F8119091F911A09192
:102BC000FA11B091FB11B7FDB7C540912012509199
:102BD00021126091221270912312840F951FA61F5B
:102BE000B71F8093F8119093F911A093FA11B09345
:102BF000FB1180913D12806180933D1289E793E043
:102C00009093C2118093C1118091301281508093B2
:102C10003012882309F48AC220913E1230913F126B
:102C200080914F0E9091500EA091510EB091520E86
:102C3000820F931FA11DB11D80934F0E9093500ED4
:102C4000A093510EB093520EE091490E81E08E0F89
:102C50008093490EF0E0EE0FFF1FEE0FFF1FE75BC2
:102C6000F54F80913C1290913D12A0913E12B0918F
:102C70003F1280839183A283B38380913C128F772C
:102C800080933C120C94AF0C8E35F3E09F0711F447
:102C90000C9427098A36934009F4EFCECEC98738C1
:102CA000E2E09E0711F40C941B0E8B38924011F455
:102CB0000C943D0EC2C98A3CE3E09E0709F4A1CD05
:102CC000893D934009F4CCCDB8C98432F4E09F0724
:102CD00009F42CCB8933944009F0AFC98091490E97
:102CE00090914A0E891B809580933012882311F4AD
:102CF0000C948B05109241121092401282E0809346
:102D000048128DE394E09093C2118093C1110E9408
:102D1000E35481110C948B05E0914F12F091501205
:102D2000808191818093C3119093C41187FD83C2E8
:102D300080913C128F7B80933C1210924112109232
:102D4000401282E08093481281E594E09093C21192
:102D50008093C1110C9478098B3BF4E09F0711F428
:102D60000C94A40A803C944011F40C94B50A65C9F3
:102D70008A3AE2E09E0709F448C88115934009F4B5
:102D800001C95BC98C3F24E0920709F4A9CD8331C6
:102D9000954009F052C90E94E35481110C948B05AF
:102DA000E0914F12F0915012D181C081D11141C6F2
:102DB0001092B3111092B4111092B5111092B61175
:102DC0006C2F70E087E00E947E480C94100B80917D
:102DD000C3119091C4110C94090B109241121092DE
:102DE000401283E0809348128CE195E09093C211E9
:102DF0008093C1110E94E35481110C948B05E091E2
:102E00004F12F09150126181728140E080810E94E6
:102E1000424F1092C2111092C11181E00C948C05A6
:102E2000109241121092401284E0809348128FE376
:102E300095E09093C2118093C1110E94E3548111D7
:102E40000C948B05E0914F12F091501261817281C8
:102E5000438180810E94424F1092C2111092C11191
:102E600081E00C948C05109241121092401281E086
:102E70008093481282E492E09093C2118093C11132
:102E80000C94DD0C808191819093CF118093CE11B1
:102E9000A0C84091EC115091ED116091EE1170912C
:102EA000EF1177FD7AC20091141210911512209142
:102EB000161230911712400F511F621F731F40935B
:102EC000EC115093ED116093EE117093EF1190910E
:102ED0003D12926090933D12823009F022CE46CE90
:102EE000B0933F12A0933E120C94970A4091EC11BC
:102EF0005091ED116091EE117091EF1177FD97C235
:102F0000009114121091151220911612309117127F
:102F1000400F511F621F731F4093EC115093ED112E
:102F20006093EE117093EF1190913D129260909327
:102F30003D12823009F07FCAA5CA20912C1230912F
:102F40002D122150310930932D1220932C12232B56
:102F500011F40C94090B09CD4091EC115091ED1135
:102F60006091EE117091EF1177FDCDC200911412B6
:102F7000109115122091161230911712400F511F07
:102F8000621F731F4093EC115093ED116093EE118B
:102F90007093EF1190913D12926090933D128230A8
:102FA00011F00C9484070C94AB074091EC115091F4
:102FB000ED116091EE117091EF1177FD26C3009134
:102FC0001412109115122091161230911712400F01
:102FD000511F621F731F4093EC115093ED116093CA
:102FE000EE117093EF1190913D12926090933D120B
:102FF000823009F022C948C94091EC115091ED117D
:103000006091EE117091EF1177FD92C20091141250
:10301000109115122091161230911712400F511F66
:10302000621F731F4093EC115093ED116093EE11EA
:103030007093EF1190913D12926090933D12823007
:1030400011F00C9405050C942C054091EC11509155
:10305000ED116091EE117091EF1177FD2CC300918D
:103060001412109115122091161230911712400F60
:10307000511F621F731F4093EC115093ED11609329
:10308000EE117093EF1190913D12926090933D126A
:10309000823011F00C94FC0B0C94230C4091EC1139
:1030A0005091ED116091EE117091EF1177FDC2C258
:1030B00000911412109115122091161230911712CE
:1030C000400F511F621F731F4093EC115093ED117D
:1030D0006093EE117093EF1190913D129260909376
:1030E0003D12823011F00C94AE080C94D5088091FA
:1030F0003B1281110C94A50F0C94B50F8081918126
:1031000090933F1280933E120C94671080E392E1FB
:103110000E94D954882311F40C948B05A9CB80818B
:1031200090E090933F1280933E1292CB80E392E125
:103130000E94D954882311F40C948B056DCD80E343
:1031400092E10E94D954882311F40C948B05F3C9A1
:10315000808190E090933F1280933E12B5CC80E343
:1031600092E10E94D954882311F40C948B050C949D
:10317000FA05882309F4E7C080916C0F90916D0FD8
:10318000A0E0B0E08093321290933312A0933412F7
:10319000B093351281E080933B128091AA119091F7
:1031A000AB118E3F2FEF920709F4CDC40196909397
:1031B000AB118093AA110C944F0A80E392E10E9414
:1031C000D954882311F40C948B050C947E0C80E365
:1031D00092E10E94D954882311F40C948B050C942D
:1031E00030098081918190933F1280933E120C941C
:1031F0005307813109F414CE873711F40C94100B66
:103200008D3011F00C94F80C89E394E09093C21186
:103210008093C11163CD8081918190933F128093FF
:103220003E120C94EE10808190E090933F128093B8
:103230003E120C94D4048F797DCD808190E09093E0
:103240003F1280933E120C94CB0B8081918190931E
:103250003F1280933E120C947D0880E392E10E941D
:10326000D954882311F40C948B0564CA4091EC1155
:103270005091ED116091EE117091EF1177FDF2C355
:1032800000911412109115122091161230911712FC
:10329000400F511F621F731F4093EC115093ED11AB
:1032A0006093EE117093EF1190913D1292609093A4
:1032B0003D12823009F0BDC9E3C9880F991FFC0196
:1032C000E055FF4E2081318140E050E00C94E6094A
:1032D000B0933F12A0933E120C94770680819181A7
:1032E00090933F1280933E1274CB2091B010309196
:1032F000B11040E050E00C94E60980916B0F8823F8
:1033000009F4A8C280916C0F90916D0FA0E0B0E01D
:103310008093321290933312A0933412B0933512EB
:1033200081E080933B128091AA119091AB118E3F66
:103330002FEF920709F423C401969093AB11809369
:10334000AA110C94A50F80919A11882309F403C344
:1033500080919B1190919C11A0919D11B0919E1113
:103360008093321290933312A0933412B09335129B
:1033700021E020933B120C94570A63E172E08AEF3C
:1033800092E00E94C83F0C94B50F63E172E087EAB7
:1033900094E00E94C83F0C945F0A009100121091C3
:1033A00001122091021230910312400F511F621F2F
:1033B000731F4093EC115093ED116093EE117093D5
:1033C000EF118ACD009108121091091220910A1272
:1033D00030910B12400F511F621F731F4093F41165
:1033E0005093F5116093F6117093F711E2CB0091B1
:1033F0000412109105122091061230910712400F0D
:10340000511F621F731F4093F0115093F11160938D
:10341000F2117093F311A8CB220F331FF901E0557D
:10342000FF4E2081318140E050E00C94440F009128
:103430000012109101122091021230910312400FDC
:10344000511F621F731F4093EC115093ED11609355
:10345000EE117093EF116DCD0091041210910512D1
:103460002091061230910712400F511F621F731FE7
:103470004093F0115093F1116093F2117093F31196
:103480000C944012009108121091091220910A1216
:1034900030910B12400F511F621F731F4093F411A4
:1034A0005093F5116093F6117093F7110FC80091C6
:1034B0000412109105122091061230910712400F4C
:1034C000511F621F731F4093F0115093F1116093CD
:1034D000F2117093F3110C94A90700910812109146
:1034E000091220910A1230910B12400F511F621FD6
:1034F000731F4093F4115093F5116093F61170937C
:10350000F7110C94D0070091001210910112209134
:10351000021230910312400F511F621F731F40931C
:10352000EC115093ED116093EE117093EF1137CDC4
:103530000091001210910112209102123091031299
:10354000400F511F621F731F4093EC115093ED11F8
:103550006093EE117093EF1172CD009104121091EF
:1035600005122091061230910712400F511F621F61
:10357000731F4093F0115093F1116093F211709307
:10358000F3110C944211009108121091091220912C
:103590000A1230910B12400F511F621F731F40938C
:1035A000F4115093F5116093F6117093F7110C9488
:1035B00069110091041210910512209106123091A8
:1035C0000712400F511F621F731F4093F011509359
:1035D000F1116093F2117093F3110C942A0500918C
:1035E00008121091091220910A1230910B12400F0B
:1035F000511F621F731F4093F4115093F511609394
:10360000F6117093F7110C9451050091001210916E
:1036100001122091021230910312400F511F621FBC
:10362000731F4093EC115093ED116093EE11709362
:10363000EF11DECC009100121091011220910212C4
:1036400030910312400F511F621F731F4093EC1102
:103650005093ED116093EE117093EF1142CD0091F4
:103660000412109105122091061230910712400F9A
:10367000511F621F731F4093F0115093F11160931B
:10368000F2117093F3110C94D30800910812109169
:10369000091220910A1230910B12400F511F621F24
:1036A000731F4093F4115093F5116093F6117093CA
:1036B000F7110C94FA080091001210910112209158
:1036C000021230910312400F511F621F731F40936B
:1036D000EC115093ED116093EE117093EF11D8CC73
:1036E00000910412109105122091061230910712D8
:1036F000400F511F621F731F4093F0115093F1113F
:103700006093F2117093F3110C94210C0091081244
:103710001091091220910A1230910B12400F511F83
:10372000621F731F4093F4115093F5116093F611CB
:103730007093F7110C94480C40910C1250910D129B
:1037400060910E1270910F12840F951FA61FB71F64
:103750008093F8119093F911A093FA11B093FB1193
:103760004DCA40910C1250910D1260910E12709141
:103770000F12840F951FA61FB71F8093F811909307
:10378000F911A093FA11B093FB110C948D120091D2
:10379000FC111091FD112091FE113091FF11400F8D
:1037A000511F621F731F4093E8115093E9116093FA
:1037B000EA117093EB11B2C92091B0103091B110A1
:1037C00040E050E00C94440F40910C1250910D12C7
:1037D00060910E1270910F12840F951FA61FB71FD4
:1037E0008093F8119093F911A093FA11B093FB1103
:1037F0000C94F7078FEF9FEF0C944B0A0091FC118C
:103800001091FD112091FE113091FF11400F511FB9
:10381000621F731F4093E8115093E9116093EA11FE
:103820007093EB110C94181240910C1250910D12E0
:1038300060910E1270910F12840F951FA61FB71F73
:103840008093F8119093F911A093FA11B093FB11A2
:103850000C946F0C80919A11882309F448CC8091C4
:103860009B1190919C11A0919D11B0919E118093FC
:10387000321290933312A0933412B093351221E098
:1038800020933B120C94AD0F40910C1250910D12ED
:1038900060910E1270910F12840F951FA61FB71F13
:1038A0008093F8119093F911A093FA11B093FB1142
:1038B0000C94780540910C1250910D1260910E12EB
:1038C00070910F12840F951FA61FB71F8093F811D8
:1038D0009093F911A093FA11B093FB110C949011ED
:1038E0000091FC111091FD112091FE113091FF11FA
:1038F000400F511F621F731F4093E8115093E9114D
:103900006093EA117093EB110C94800740910C12B4
:1039100050910D1260910E1270910F12840F951F2D
:10392000A61FB71F8093F8119093F911A093FA1175
:10393000B093FB110C942109109241121092401285
:1039400082E0809348128CE295E09093C2118093BC
:10395000C1110C942D0B80913B12882311F40C940F
:103960005F0A0C944F0A109241121092401282E0AA
:103970008093481283E195E09093C2118093C11126
:103980000ACA0091FC111091FD112091FE11309195
:10399000FF11400F511F621F731F4093E811509396
:1039A000E9116093EA117093EB110C941A110091D4
:1039B000FC111091FD112091FE113091FF11400F6B
:1039C000511F621F731F4093E8115093E9116093D8
:1039D000EA117093EB110C9401050091FC11109108
:1039E000FD112091FE113091FF11400F511F621FF8
:1039F000731F4093E8115093E9116093EA1170939B
:103A0000EB110C94F80B0091FC111091FD11209119
:103A1000FE113091FF11400F511F621F731F409321
:103A2000E8115093E9116093EA117093EB110C9433
:103A3000AA086FEF70E087E00E947E48C093B21141
:103A40000E947849DC01CB018D0F911DA11DB11D94
:103A50008093B3119093B411A093B511B093B611A4
:103A60000C94100B0091001210910112209102127F
:103A700030910312400F511F621F731F4093EC11CE
:103A80005093ED116093EE117093EF1112CC0091F1
:103A90000412109105122091061230910712400F66
:103AA000511F621F731F4093F0115093F1116093E7
:103AB000F2117093F3110C943E13009108121091BF
:103AC000091220910A1230910B12400F511F621FF0
:103AD000731F4093F4115093F5116093F611709396
:103AE000F7110C94651340910C1250910D126091D6
:103AF0000E1270910F12840F951FA61FB71F80938F
:103B0000F8119093F911A093FA11B093FB110C9452
:103B10008C130091FC111091FD112091FE11309138
:103B2000FF11400F511F621F731F4093E811509304
:103B3000E9116093EA117093EB110C9416138FEF57
:103B40009FEF0C94A10F8FEF9FEF31CB8FEF9FEF83
:103B50000C94390A6FEF7FEF7093DD036093DC0301
:103B6000921B9F3F11F00C94920D42504093D6034C
:103B70000C94970DDA01AC52BD4F0C94400D8FEFB1
:103B80009FEFDBCB8FEF9FEF0C948F0F82818F5FC6
:103B90008283EBCF92819F5F92839A2F0C94660D64
:103BA0002F923F924F925F926F927F928F929F924D
:103BB000AF92BF92DF92EF92FF920F931F93CF933A
:103BC000DF93CDB7DEB760970FB6F894DEBF0FBEB8
:103BD000CDBFF89498E288E10FB6F894A895809349
:103BE00060000FBE90936000809181008F7E809373
:103BF00081008091810088608093810080918000A5
:103C00008D7F80938000809180008E7F80938000E4
:103C1000809180008F7380938000809180008F7CE2
:103C20008093800080918100887F826080938100F2
:103C300080E090E4909389008093880090938B00BB
:103C400080938A001092850010928400E5E1F7E0ED
:103C5000849190E0880F991FFC01EA54F94F259157
:103C600034913093750220937402FC01E454F84FB0
:103C70002591349130935802209357028E55984FD6
:103C8000FC01859194919093730280937202EBE50D
:103C9000F7E0E491E09356029FB7F894E091720246
:103CA000F0917302208180915602822B80839FBF06
:103CB0002FB7F894E0915702F091580280819091CB
:103CC00056029095892380832FBFE8EDF6E084911A
:103CD00090E0880F991FFC01EA54F94F2591349127
:103CE00030937C0220937B02FC01E454F84F259131
:103CF000349130937A02209379028E55984FFC01CB
:103D0000859194919093780280937702EEE1F7E0A9
:103D1000E491E09376029FB7F894E0917702F091F6
:103D20007802208180917602822B80839FBFE7ED0D
:103D3000F6E0849190E0880F991FFC01EA54F94F56
:103D4000259134913093830220938202FC01E45444
:103D5000F84F2591349130938102209380028E5543
:103D6000984FFC018591949190937F0280937E02FD
:103D7000EDE1F7E0E491E0937D029FB7F894E091E4
:103D80007E02F0917F02208180917D02822B8083D0
:103D90009FBF9FB7F894E0918902F0918A02208139
:103DA00080918802822B80839FBFE5E0F7E08491B9
:103DB00090E0880F991FFC01EA54F94F2591349146
:103DC0003093870220938602FC01E454F84F25913A
:103DD000349130938A02209389028E55984FFC01CA
:103DE000859194919093850280938402EBE4F7E0AF
:103DF000E491E09388029FB7F894E0918402F091F7
:103E00008502208180918802822B80839FBF9FB78B
:103E1000F894E0918902F0918A02208180918802D1
:103E2000822B80839FBF9FB7F894E0912513F09178
:103E30002613208180912413822B80839FBFEEEE76
:103E4000F6E0849190E0880F991FFC01EA54F94F45
:103E50002591349130938E0220938D02FC01E4541D
:103E6000F84F2591349130932613209325138E55C6
:103E7000984FFC018591949190938C0280938B02D2
:103E8000E4E3F7E0E491E09324139FB7F894E09122
:103E90008B02F0918C02208180912413822B8083ED
:103EA0009FBF9FB7F894E0912513F09126132081CE
:103EB00080912413822B80839FBFE4E0F7E08491FC
:103EC00090E0880F991FFC01EA54F94F2591349135
:103ED0003093920220939102FC01E454F84F259113
:103EE000349130939502209394028E55984FFC01A3
:103EF000859194919093900280938F02EAE4F7E089
:103F0000E491E09393029FB7F894E0918F02F091CF
:103F10009002208180919302822B80839FBF2FB7D4
:103F2000F894E0919402F09195028081909193022F
:103F30009095892380832FBFE3E0F7E0849190E0A0
:103F4000880F991FFC01EA54F94F25913491309361
:103F5000990220939802FC01E454F84F2591349182
:103F600030939C0220939B028E55984FFC018591C3
:103F700094919093970280939602E9E4F7E0E4919C
:103F8000E0939A029FB7F894E0919602F09197021D
:103F9000208180919A02822B80839FBF2FB7F89453
:103FA000E0919B02F0919C02808190919A02909501
:103FB000892380832FBF62E082E30E943D481092F4
:103FC000C0001092C50081E08093C4008091C100C0
:103FD00080618093C1008091C10088608093C1009E
:103FE0008091C10080688093C100E2EDF6E0849189
:103FF00090E0880F991FFC01EA54F94F2591349104
:104000003093F7122093F612FC01E454F84F2591F7
:1040100034913093F5122093F4128E55984FFC0191
:10402000859194919093F3128093F212E8E1F7E076
:10403000E491E093F1129FB7F894E091F212F091BD
:10404000F31220818091F112822B80839FBFE3EDD8
:10405000F6E0849190E0880F991FFC01EA54F94F33
:10406000259134913093FE122093FD12FC01E4540B
:10407000F84F259134913093FC122093FB128E550A
:10408000984FFC01859194919093FA128093F912C4
:10409000E9E1F7E0E491E093F8129FB7F894E0913A
:1040A000F912F091FA1220818091F812822B80830C
:1040B0009FBFE4EDF6E0849190E0880F991FFC012A
:1040C000EA54F94F259134913093F0122093EF1276
:1040D000FC01E454F84F259134913093EE12209373
:1040E000ED128E55984FFC01859194919093EC12AE
:1040F0008093EB12EAE1F7E0E491E093EA129FB7D4
:10410000F894E091EB12F091EC1220818091EA1288
:10411000822B80839FBF2FB7F894E091ED12F0912E
:10412000EE1280819091EA129095892380832FBFAF
:1041300010927E0010927D0080917D0081608093BE
:104140007D0080917D00846080937D0087EC80936A
:104150007A0080917A0086FDFCCF10926110109257
:1041600062101092631010926410109265101092F9
:1041700066101092671010926810109269101092D9
:104180006A1010926B1010926C1010926D1080E5F6
:1041900090E09093CF028093CE0280E790E19093DD
:1041A000601080935F10ECEFF6E0849190E0880F50
:1041B000991FFC01EA54F94F259134913093A302E1
:1041C0002093A202FC01E454F84F259134913093DE
:1041D000A1022093A0028E55984FFC0185919491E5
:1041E00090939F0280939E02E2E4F7E0E491E093D3
:1041F0009D029FB7F894E0919E02F0919F0220816A
:1042000080919D02822B80839FBFEDEFF6E0849129
:1042100090E0880F991FFC01EA54F94F25913491E1
:104220003093AA022093A902FC01E454F84F25918F
:1042300034913093A8022093A7028E55984FFC0129
:10424000859194919093A6028093A502E3E4F7E010
:10425000E491E093A4029FB7F894E091A502F09155
:10426000A60220818091A402822B80839FBFEEEF63
:10427000F6E0849190E0880F991FFC01EA54F94F11
:10428000259134913093B1022093B002FC01E454A3
:10429000F84F259134913093AF022093AE028E55A2
:1042A000984FFC01859194919093AD028093AC025C
:1042B000E4E4F7E0E491E093AB029FB7F894E09177
:1042C000AC02F091AD0220818091AB02822B808301
:1042D0009FBF65EA70E08CE20E947E4865EA70E06C
:1042E0008DE20E947E4865EA70E08EE20E947E4880
:1042F00080912101887F816080932101099A119A20
:104300003C9A4498399A419A80910A01806480933A
:104310000A0180910B01806480930B019FB7F89490
:10432000E0913513F0913613208180913413822B64
:1043300080839FBFEBEEF6E0849190E0880F991F99
:10434000FC01EA54F94F259134913093B502209342
:10435000B402FC01E454F84F2591349130933613A4
:10436000209335138E55984FFC018591949190932D
:10437000B3028093B202E1E3F7E0E491E0933413F7
:104380009FB7F894E091B202F091B302208180913E
:104390003413822B80839FBF9FB7F894E09135132D
:1043A000F0913613208180913413822B80839FBF3C
:1043B0009FB7F894E0913213F091331320818091EC
:1043C0003113822B80839FBFEFEEF6E0849190E063
:1043D000880F991FFC01EA54F94F259134913093CD
:1043E000B9022093B802FC01E454F84F25913491AE
:1043F00030933313209332138E55984FFC018591DF
:1044000094919093B7028093B602E5E3F7E0E491CC
:10441000E09331139FB7F894E091B602F091B702A0
:10442000208180913113822B80839FBF9FB7F894A6
:10443000E0913213F0913313208180913113822B5C
:1044400080839FBF9FB7F894E0912F13F0913013B2
:10445000208180912E13822B80839FBFE2EFF6E0B4
:10446000849190E0880F991FFC01EA54F94F25913F
:1044700034913093BD022093BC02FC01E454F84F08
:10448000259134913093301320932F138E55984FEC
:10449000FC01859194919093BB028093BA02E8E36A
:1044A000F7E0E491E0932E139FB7F894E091BA02FD
:1044B000F091BB02208180912E13822B80839FBFBD
:1044C0009FB7F894E0912F13F091301320818091E1
:1044D0002E13822B80839FBF9FB7F894E0912C13FB
:1044E000F0912D13208180912B13822B80839FBF0D
:1044F000E5EFF6E0849190E0880F991FFC01EA5403
:10450000F94F259134913093C1022093C002FC01F0
:10451000E454F84F2591349130932D1320932C13AC
:104520008E55984FFC01859194919093BF02809392
:10453000BE02EBE3F7E0E491E0932B139FB7F8940E
:10454000E091BE02F091BF02208180912B13822B5B
:1045500080839FBF9FB7F894E0912C13F0912D13A7
:10456000208180912B13822B80839FBFE6EEF6E0A3
:10457000849190E0880F991FFC01EA54F94F25912E
:1045800034913093E9122093E812FC01E454F84F7F
:10459000259134913093C5022093C4028E55984FD3
:1045A000FC01859194919093C3028093C202ECE246
:1045B000F7E0E491E093E7122FB7F894E091C2029C
:1045C000F091C30280819091E712909589238083B6
:1045D0002FBF9FB7F894E091C402F091C5022081EB
:1045E0008091E712822B80839FBFEAEEF6E08491F0
:1045F00090E0880F991FFC01EA54F94F25913491FE
:104600003093E6122093E512FC01E454F84F259113
:1046100034913093C9022093C8028E55984FFC0103
:10462000859194919093C7028093C602E0E3F7E0EE
:10463000E491E093E4122FB7F894E091C602F09170
:10464000C70280819091E4129095892380832FBFC7
:104650009FB7F894E091C802F091C902208180913F
:10466000E412822B80839FBFEDEEF6E0849190E010
:10467000880F991FFC01EA54F94F2591349130932A
:10468000E3122093E212FC01E454F84F2591349197
:104690003093CD022093CC028E55984FFC0185912A
:1046A00094919093CB028093CA02E3E3F7E0E49104
:1046B000E093E1122FB7F894E091CA02F091CB0297
:1046C00080819091E1129095892380832FBF9FB7BD
:1046D000F894E091CC02F091CD0220818091E1121A
:1046E000822B80839FBF0B9A13983D9A45983A9AE4
:1046F000429880910A01806880930A0180910B01A1
:104700008F7780930B016FE770E088E00E947E480E
:104710007894D12C60EA262E312C1092E903109265
:10472000E6031092EB038FEE93E09093E8038093FF
:10473000E7030E9478494B015C010091E703109167
:10474000E80385E3F801828361E00E943D4861E06F
:10475000F80182810E940A48E091E703F091E803A2
:1047600082E5808311828091E903882309F485C161
:10477000E091E703F091E80361E082810E940A483A
:104780008AE09FEF9EBD0DB407FEFDCF8150D1F7AB
:10479000E091E703F091E80360E082810E940A481B
:1047A0000AE07DEFF72E1FEF20E030E0A90160E086
:1047B00086EE93E00E94DF3D813009F46EC1015026
:1047C00071F0FEBC0DB407FEFDCF88E092E01EBD87
:1047D0000DB407FEFDCF2EB50197C9F7E5CF80E2F6
:1047E0008093E6038091E903882321F086EE93E02D
:1047F0000E94D63C6091E60370E080E090E00E9469
:10480000514F6091DA0383E0682E712C01E010E0D3
:1048100092E0892E912C24E0A22EB12C44244A94BB
:10482000542C42E7E42EF12C662389F18091D402C6
:104830009091D5028B37910509F46AC008F4ECC059
:10484000833A910509F4CBC008F412C1863A910568
:1048500009F4D3C0893A910509F0E6C0615060932C
:10486000DA0361110EC09091D6038091D703981797
:1048700041F068E072E08EEA90E00E94C83F6091EB
:10488000DA031092D5021092D4026111CFCF1092A8
:10489000DA031092D7031092D603A89568EB7BE059
:1048A00080E090E00E944149D394F5E0DF1235CFDB
:1048B00068E083E00E9484460E945D3E0E94385179
:1048C0000E94784960935112709352128093531250
:1048D0009093541260960FB6F894DEBF0FBECDBF12
:1048E000DF91CF911F910F91FF90EF90DF90BF90DC
:1048F000AF909F908F907F906F905F904F903F9080
:104900002F9008958BE790E09093D5028093D40286
:104910008091C00085FF88CF2091DB032093C600E3
:10492000E091D703EF5FE093D7038091D803909194
:10493000D9038227082E8295807F8025092E982F03
:1049400082958F700826869598278927880F880F6B
:10495000880F80259093D9038093D8032091D603A4
:10496000E21761F0F0E0EC52FD4F82818093DB03AF
:104970008111C8CF8091D8039091D903492F552731
:104980005093E3034093E2039C0133273093E50304
:104990002093E403892B09F075C0B092E103A09243
:1049A000E0034F5F5F4F5093E3034093E2032F5FB9
:1049B0003F4F3093E5032093E4033092D5022092D9
:1049C000D4028091C00085FF2FCF8091E0038093B7
:1049D000C600E3EAF0E0F093D502E093D4028091C0
:1049E000C00085FF21CF8091E4038093C60086EA52
:1049F00090E09093D5028093D4028091C00085FF0F
:104A000013CF8091E2038093C600E9EAF0E0F093CF
:104A1000D502E093D40222CF8C36910551F0823733
:104A20009105B9F0892B29F05092D5024092D40219
:104A3000FBCEE091D70381E08E0F8093D703F0E0A7
:104A4000EC52FD4F82818093DB03F092D502E0921D
:104A5000D4028091C00085FFE7CE8091DB03809374
:104A6000C6005092D9034092D803E091D7037ACF81
:104A7000803A910509F4A5CFD7CF86EE93E00E9446
:104A8000E83C76CE452BC9F49092E1038092E00396
:104A90001093E3030093E20390CF21E030E040E085
:104AA00050E06BE386EE93E00E94DF3D182F8130EB
:104AB00059F088E38093E60395CE232B09F11093F8
:104AC000E1030093E00379CF2AEA31E040E050E0CF
:104AD00068E086EE93E00E94DF3D8530D1F084E00F
:104AE0002FEF2EBD0DB407FEFDCF9EB59093EA03C8
:104AF0008150B9F79A3A71F185E28093E60372CE5C
:104B00007092E1036092E0031093E5030093E403E5
:104B100054CF1093EB03412C512C320120E030E0B4
:104B2000A90167E386EE93E00E94DF3DA3019201B5
:104B300069E286EE93E00E94DF3D8823A1F00E94A7
:104B4000784968197909613D774040F383E480939F
:104B5000E60348CE82E08093EB03412C512C612C7C
:104B600060E4762EDBCF8091EB03823049F18091B7
:104B7000E903882321F086EE93E00E94D63CE09181
:104B8000E703F091E80380E5808381E081838091F1
:104B9000EB03833051F189E08093EC03BE016F5F3A
:104BA0007F4F86EE93E00E9462518823B9F08B8597
:104BB00086FF14C085E08093ED038093EE037ECEE4
:104BC00020E030E0A9016AE386EE93E00E94DF3D39
:104BD000882371F087E38093E60304CE6FE172E0EF
:104BE00086E991E00E94C83FE5CF1092EC03D6CF52
:104BF0008FEF8EBD0DB407FEFDCF8EB5807C803C5F
:104C000019F483E08093EB0383E09FEF9EBD0DB426
:104C100007FEFDCF2EB58150C9F7A9CF2F923F9245
:104C20004F925F926F927F928F929F92AF92BF92BC
:104C3000CF92DF92EF92FF920F931F93CF93DF9368
:104C400000D01F92CDB7DEB781E090E090932D1297
:104C500080932C1281E090E0A0E0B0E080932812D5
:104C600090932912A0932A12B0932B121092311212
:104C70001092C2111092C111109247121092461256
:104C800010924512109244122091040A3091050AA4
:104C90000FEF1FEF66246A9477247394E9E05E2E89
:104CA000F2E04F2EEE24E394F12CB9EE2B2E312CB2
:104CB0008CEBC82ED12C21153105B1F08091F20377
:104CC0009091F3038C3B910509F469C0893E9105ED
:104CD00009F4E2C1892B09F451C21093F303009344
:104CE000F2032115310551F71092FA051092FB05D8
:104CF0001092FC051092FD051092F5051092F40536
:104D00001092FE091092FF091092000A1092010AF7
:104D10001092060A81E090E0A0E0B0E08093F605F2
:104D20009093F705A093F805B093F90510924A0EF9
:104D30001092490E1092530E1092540E1092550E6E
:104D40001092560E10924F0E1092500E1092510E5D
:104D50001092520E0F900F900F900F90DF91CF9105
:104D60001F910F91FF90EF90DF90CF90BF90AF9089
:104D70009F908F907F906F905F904F903F902F907B
:104D800008950E9478496093190A70931A0A8093D3
:104D90001B0A90931C0AD092F303C092F2030E9464
:104DA00078496093090A70930A0A80930B0A9093DA
:104DB0000C0A8091070A9091080A8E5F954009F4C9
:104DC00006C58091FE099091FF09A091000AB0915B
:104DD000010A29E0B695A795979587952A95D1F769
:104DE0009C01AD012F5F3F4F4F4F5F4F8091EB0311
:104DF000833039F089E0220F331F441F551F8A95F5
:104E0000D1F761E186EE93E00E94DF3D882309F44B
:104E1000C7C280E38093E6038091E903882321F0F1
:104E200086EE93E00E94D63C8091ED038150809302
:104E3000ED03882309F478C50E9478498090090A17
:104E400090900A0AA0900B0AB0900C0ADC01CB01EA
:104E500088199909AA09BB0940910D0A50910E0AB7
:104E600060910F0A7091100A4F5F5F4F6F4F7F4F35
:104E700040930D0A50930E0A60930F0A7093100A24
:104E80004091110A5091120A6091130A7091140A0C
:104E9000480F591F6A1F7B1F4093110A5093120A33
:104EA0006093130A7093140A4091150A5091160AE0
:104EB0006091170A7091180A481759076A077B070B
:104EC00040F48093150A9093160AA093170AB093A2
:104ED000180A8090EA039090E6037091D6036091DF
:104EE000D703872F861B8F3F11F40C94AC2FE1E082
:104EF000E70FE093D603A72FB0E0AC52BD4F129658
:104F00001C928E2F861B8F3F09F402C782E0870F09
:104F10008093D603F0E0EC52FD4F5282282F30E010
:104F20003093DF032093DE03982F961B9F3F11F4ED
:104F30000C94663043E0470F4093D603D901AC523E
:104F4000BD4F12967C921297842F90E0B42EB61A21
:104F50009093DD038093DC03FFEFBF1611F40C94F4
:104F60009A3044E0470F4093D603FC01EC52FD4FCA
:104F7000728212968C9112978F5F12968C93129771
:104F800082818F5F8283842F861B8F3F11F40C9464
:104F900098307B5F7093D603E42FF0E0EC52FD4F26
:104FA0005282B72EB61A12968C9112978F5F129674
:104FB0008C931297992009F40FC78091DC0390918C
:104FC000DD03AC0155274C525D4FFA01A280A3943A
:104FD000A282FFEFBF1609F49AC741E0470F409342
:104FE000D603E72FF0E0EC52FD4F9282B42EB61AB2
:104FF00012965C9112975F5F12965C93019609F48A
:10500000EAC6882009F4D3C68091DC039091DD03C1
:10501000DC01BB27AC52BD4F12962C9112972F5F2B
:1050200012962C9312972FEFB21609F458C771E01D
:10503000740F7093D603E42FF0E0EC52FD4F8282A0
:105040004091DE035091DF039A013327F901EC52BE
:10505000FD4F22812F5F2283761B7F3F09F4B2C66A
:10506000019611F012966C928091DA038F5F809313
:10507000DA032091040A3091050A1DCE0E94784976
:105080006093390A70933A0A80933B0A90933C0AE2
:105090003092F3032092F2030E9478496093290A28
:1050A00070932A0A80932B0A90932C0A8090F6051D
:1050B0009090F705A090F805B090F9058091D20284
:1050C0009091D302892B09F085C086EE93E00E946F
:1050D000B33D882309F439C20E9478498090290A97
:1050E00090902A0AA0902B0AB0902C0ADC01CB01E8
:1050F00088199909AA09BB0940912D0A50912E0AD5
:1051000060912F0A7091300A4F5F5F4F6F4F7F4F52
:1051100040932D0A50932E0A60932F0A7093300A01
:105120004091310A5091320A6091330A7091340AE9
:10513000480F591F6A1F7B1F4093310A5093320A50
:105140006093330A7093340A4091350A5091360ABD
:105150006091370A7091380A481759076A077B0728
:1051600040F48093350A9093360AA093370AB0939F
:10517000380A2091040A3091050A9DCD213031056D
:1051800009F4FFCD2230310509F478CF8091060A69
:1051900081111BC04091FA055091FB056091FC05FF
:1051A0007091FD058091FE099091FF09A091000A80
:1051B000B091010A481759076A077B0731F0F0924E
:1051C000050AE092040A21E030E01092F303109205
:1051D000F20371CD86EE93E00E94B33D81117CCF46
:1051E00020E030E0A9016DE086EE93E00E94DF3D13
:1051F000882309F4E4C26091EA033091D603209138
:10520000D703832F821B8F3F09F404C6E1E0E30F2D
:10521000E093D603A32FB0E0AC52BD4F12961C9280
:105220008E2F821B8F3F09F4E7C672E0730F7093D5
:10523000D603F0E0EC52FD4F83E08283872F90E0AD
:105240009093DF038093DE03472F421B4F3F09F407
:1052500055C743E0942E930E9092D603DC01AC52D6
:10526000BD4F12967C921297492D50E05C834B8380
:10527000792D721B5093DD034093DC037F3F09F4CB
:1052800040C774E0730F7093D6034C525D4F5A01C0
:10529000FA01728212969C901297939412969C92A5
:1052A00012974B815C81928093949282972E921AEE
:1052B000FFEF9F1609F457C73B5F3093D603472F84
:1052C00050E04C525D4F7CE0FA017283732F721BE9
:1052D00012964C9112974F5F12964C931297F501CC
:1052E00042814F5F42837F3F09F47AC671E0730FBA
:1052F0007093D603E32FF0E0EC52FD4F39E2328396
:10530000372F321B12964C9112974F5F12964C9387
:10531000662309F450C6DC01AC52BD4F8090DC031B
:105320009090DD03A40155274C525D4FFA01B280E5
:10533000B394B2823F3F09F4C2C631E0370F3093D5
:10534000D603E72FF0E0EC52FD4F628312966C918A
:1053500012976F5F12966C93321B3F3F09F45BC646
:105360008920809419F0DA0112966C928091DA0308
:105370008F5F8093DA030E945D3E8091E90388236A
:1053800021F086EE93E00E94D63C1092D302109258
:10539000D20285E08093EE0392E0892E912C40C1E9
:1053A00040E052E06EEF75E086EE93E00E94293D0A
:1053B000882309F431CD8091E9038111C1C585E0CD
:1053C0008093ED030E9478498090090A90900A0A20
:1053D000A0900B0AB0900C0ADC01CB018819990946
:1053E000AA09BB0940910D0A50910E0A60910F0A5B
:1053F0007091100A4F5F5F4F6F4F7F4F40930D0AC0
:1054000050930E0A60930F0A7093100A4091110A8C
:105410005091120A6091130A7091140A480F591F93
:105420006A1F7B1F4093110A5093120A6093130A5C
:105430007093140A4091150A5091160A6091170A48
:105440007091180A481759076A077B0740F4809340
:10545000150A9093160AA093170AB093180A0E948F
:1054600078498090190A90901A0AA0901B0AB0906F
:105470001C0ADC01CB0188199909AA09BB094091D2
:105480001D0A50911E0A60911F0A7091200A4F5FF9
:105490005F4F6F4F7F4F40931D0A50931E0A6093DA
:1054A0001F0A7093200A4091210A5091220A6091AC
:1054B000230A7091240A480F591F6A1F7B1F4093CB
:1054C000210A5093220A6093230A7093240A409180
:1054D000250A5091260A6091270A7091280A4817D8
:1054E00059076A077B0740F48093250A9093260AA0
:1054F000A093270AB093280A8091FA059091FB05A2
:10550000A091FC05B091FD054091FE095091FF0965
:105510006091000A7091010A841B950BA60BB70BD2
:10552000811542E09407A105B10510F080E092E0FA
:105530009093030A8093020A1092050A1092040ABB
:105540007092060A20E030E040CEA5019401009060
:10555000EC0304C0220F331F441F551F0A94D2F7D7
:1055600068E186EE93E00E94DF3D8111B7C2A4EFAF
:10557000B3E080E090E02D91E92FFF27E227EE0FC6
:10558000FF1FEA54FB4F25913491982F88278227DB
:105590009327F5E0A43FBF0771F72EEF2EBD0DB4A2
:1055A00007FEFDCF2091F4032EBD2091F503E6EF19
:1055B000F3E00DB407FEFDCF2EBD24EF35E02E172E
:1055C0003F0711F02191F5CF0DB407FEFDCF9EBD31
:1055D0000DB407FEFDCF8EBD0DB407FEFDCF6EBC32
:1055E0000DB407FEFDCF8EB58093EA038F71853031
:1055F00009F432C387E58093E6038091E9038823A9
:1056000021F086EE93E00E94D63C8091EE0381501B
:105610008093EE03882309F432C488248394912C68
:105620000E9478492091290A30912A0A40912B0A38
:1056300050912C0ADC01CB01821B930BA40BB50B00
:1056400040912D0A50912E0A60912F0A7091300AD4
:105650004F5F5F4F6F4F7F4F40932D0A50932E0A3D
:1056600060932F0A7093300A4091310A5091320AA8
:105670006091330A7091340A480F591F6A1F7B1FCB
:105680004093310A5093320A6093330A7093340A7C
:105690004091350A5091360A6091370A7091380A64
:1056A000481759076A077B0740F48093350A90939F
:1056B000360AA093370AB093380A8A94892809F4E5
:1056C000CBC00E9478498090390A90903A0AA09005
:1056D0003B0AB0903C0ADC01CB0188199909AA0960
:1056E000BB0940913D0A50913E0A60913F0A70917A
:1056F000400A4F5F5F4F6F4F7F4F40933D0A50937B
:105700003E0A60933F0A7093400A4091410A5091CB
:10571000420A6091430A7091440A480F591F6A1F58
:105720007B1F4093410A5093420A6093430A70934F
:10573000440A4091450A5091460A6091470A709187
:10574000480A481759076A077B0740F48093450ABF
:105750009093460AA093470AB093480A8091FA05AD
:105760009091FB05A091FC05B091FD059E5FAF4FA8
:10577000BF4F8093FA059093FB05A093FC05B0936F
:10578000FD051092F5051092F4058091F6059091B3
:10579000F705A091F805B091F9050196A11DB11D7D
:1057A0008093F6059093F705A093F805B093F9055B
:1057B0001092050A1092040A20E030E006CD6EBC7B
:1057C0000DB407FEFDCF8EB5811115CDD6CD8091DC
:1057D000FE099091FF09A091000AB091010A79E0B9
:1057E000B695A795979587957A95D1F79C01AD01C8
:1057F0002F5F3F4F4F4F5F4F8091EB03833039F066
:1058000069E0220F331F441F551F6A95D1F761E1EC
:1058100086EE93E00E94DF3D882309F46CC380E3A9
:105820008093E6038091E903882321F086EE93E0DC
:105830000E94D63C8091ED0381508093ED0381114D
:10584000FBCA2091EA034091E60369E083E00E94ED
:105850008E510E945D3EF0CA8090EA039090E6036C
:105860007091D6036091D703872F861B8F3F09F471
:105870006CC3E1E0E70FE093D603A72FB0E0AC5292
:10588000BD4F12961C928E2F861B8F3F09F472C259
:1058900042E0470F4093D603F0E0EC52FD4F5282B6
:1058A000242F30E03093DF032093DE03842F861B08
:1058B0008F3F09F418C443E0470F4093D603D90142
:1058C000AC52BD4F12967C921297842F90E0B42E6A
:1058D000B61A9093DD038093DC03EFEFBE1609F454
:1058E00029C444E0470F4093D603FC01EC52FD4F1E
:1058F000728212968C9112978F5F12968C931297E8
:1059000082818F5F8283842F861B8F3F09F410C4AE
:105910007B5F7093D603E42FF0E0EC52FD4F8CE0F8
:105920008283B72EB61A3FCB8090EA039090E603AD
:10593000E091D6036091D7038E2F861B8F3F09F429
:1059400094C131E03E0F3093D6038E2F90E08C52FD
:105950009D4FDC0112961C92832F861B8F3F09F40A
:1059600043C322E02E0F2093D603A32FB0E0AC5206
:10597000BD4F83E012968C93422F50E05093DF038B
:105980004093DE03822F861B8F3F09F4AFC383E071
:105990008E0F8093D6039A012C523D4F5901D901A5
:1059A00012967C92282F30E0782F761B3093DD03FF
:1059B0002093DC037F3F09F4B1C384E08E0F809312
:1059C000D6032C523D4FD90112967C92D5011296E6
:1059D0009C9112979F5F12969C93D90112969C916D
:1059E00012979F5F12969C93982F961B9F3F09F4E6
:1059F000C5C3EB5FE093D60390E08C529D4FDC0172
:105A000012965C927E2F761BD50112968C9112977E
:105A10008F5F12968C93992009F4AEC28091DC03BB
:105A20009091DD039C0133272C523D4FD9011296F2
:105A3000FC911297FF5F1296FC937F3F09F426C3F7
:105A400021E02E0F2093D603F0E0EC52FD4F92821E
:105A5000722F761BD50112963C9112973F5F1296DA
:105A60003C93019609F487C2882009F47CC2809196
:105A7000DC039091DD03DC01BB27AC52BD4F1296D5
:105A80003C9112973F5F12963C9312977F3F09F427
:105A900002C371E0720F7093D603E22FF0E0EC5274
:105AA000FD4F82824091DE035091DF039A0133273C
:105AB000F901EC52FD4F22812F5F2283761B7F3F3D
:105AC00009F422C1019611F012966C928091DA03CA
:105AD0008F5F8093DA030E945D3EAEC98090EA0337
