:10000000EBC300001AC4000018C4000016C40000AE
:1000100014C4000012C4000010C400000EC400008C
:100020000CC400000AC4000008C4000006C400009C
:1000300004C4000002C4000000C40000FEC30000AD
:10004000FCC300000C9421520C94724BF6C30000C8
:10005000F4C30000F2C30000F0C300000C945F4A38
:10006000ECC300000C94E653E8C30000E6C30000B4
:10007000E4C30000E2C30000E0C30000DEC30000F0
:10008000DCC30000DAC30000D8C30000D6C3000000
:10009000D4C30000D2C30000D0C30000CEC3000010
:1000A000CCC30000CAC30000C8C30000C6C3000020
:1000B000C4C30000C2C30000C0C30000BEC3000030
:1000C000BCC30000BAC30000B8C30000B6C3000040
:1000D000B4C30000B2C30000B0C30000AEC3000050
:1000E000ACC30000926C1B6D366B366B366BEA6CE2
:1000F000DD6CDA6CAD6C9B6C976C366B366B366B6B
:10010000366B366B366B366B366B366B366B366BE7
:10011000366B596E576E366B366B366B476E456E67
:10012000436E416E366B3F6EFB6D366BEE6DE36D6D
:10013000D76DCB6DB66DA86D8B6D886DEF6E366B20
:10014000DB6E9C6E9A6E8E6E366B366B886E366B7F
:10015000836E726EC26FAB6F796F736F866D846DD5
:10016000C76F686D7C6C186D8F48934897489D48A1
:10017000A3488E48A948AF48B548BB48C148C748BE
:10018000CD48D3488E48D948DF48894882498A49B2
:100190008F499949A3497149AD49B549BD49C749F5
:1001A000D149DB49EA49F4497149FE49084A124AF2
:1001B00009001B002E0040005300650078008A00F3
:1001C0009D00AF00C200D400E700F9000C011E0141
:1001D00031014301560168017B018E01A001B30189
:1001E000C601D801EB01FE011002230236024802CB
:1001F0005B026E0281029302A602B902CC02DF0208
:10020000F102040317032B033D035003620375033C
:1002100088039B03AE03C103D403E703FA030D0471
:1002200020043304460459046C047F049204A5049A
:10023000B804CB04DE04F104040517052A053E05C5
:100240005105640577058A059D05B105C405D705E7
:10025000EA05FE051106240637064B065E06710602
:1002600085069806AB06BF06D206E506F9060C071A
:100270002007330746075A076D0781079407A80729
:10028000BB07CF07E207F60709081D083108440835
:1002900058086B087F089308A608BA08CD08E1083B
:1002A000F50809091C093009440957096B097F0938
:1002B0009309A609BA09CE09E209F6090A0A1D0A34
:1002C000310A450A590A6D0A810A950AA90ABD0A26
:1002D000D10AE50AF90A0D0B210B350B490B5D0B11
:1002E000710B850B990BAD0BC10BD50BE90BFE0BFD
:1002F000120C260C3A0C4E0C620C770C8B0C9F0CDB
:10030000B30CC80CDC0CF00C040D190D2D0D410DB7
:10031000560D6A0D7E0D930DA70DBC0DD00DE50D8C
:10032000F90D0D0E220E360E4B0E5F0E740E880E5A
:100330009D0EB20EC60EDB0EEF0E040F190F2D0F21
:10034000420F560F6B0F800F940FA90FBE0FD30FE4
:10035000E70FFC0F111026103B104F10641079109E
:100360008E10A310B810CC10E110F6100B11201154
:1003700035114A115F11741189119E11B311C81101
:10038000DD11F21107121D12321247125C127112A6
:1003900086129B12B112C612DB12F01206131B1347
:1003A000301345135B13701385139B13B013C513E0
:1003B000DB13F01306141B14301446145B14711471
:1003C00086149C14B114C714DC14F21408151D15FE
:1003D000331548155E15741589159F15B515CA1581
:1003E000E015F6150C16211637164D1663167916FC
:1003F0008E16A416BA16D016E616FC161217281773
:100400003E1754176A1780179617AC17C217D817DC
:10041000EE1704181A18301846185C187218891844
:100420009F18B518CB18E118F8180E1924193A19A5
:10043000511967197D199419AA19C119D719ED19FC
:10044000041A1A1A311A471A5E1A741A8B1AA11A48
:10045000B81ACE1AE51AFB1A121B291B3F1B561B92
:100460006D1B831B9A1BB11BC71BDE1BF51B0C1CD2
:10047000231C391C501C671C7E1C951CAC1CC31C07
:10048000D91CF01C071D1E1D351D4C1D631D7A1D3A
:10049000911DA91DC01DD71DEE1D051E1C1E331E5E
:1004A0004A1E621E791E901EA71EBF1ED61EED1E7E
:1004B000051F1C1F331F00002110422063308440A1
:1004C000A550C660E770088129914AA16BB18CC123
:1004D000ADD1CEE1EFF13112100273325222B5529A
:1004E0009442F772D662399318837BB35AA3BDD373
:1004F0009CC3FFF3DEE36224433420040114E6646A
:10050000C774A44485546AA54BB528850995EEE5C2
:10051000CFF5ACC58DD55336722611163006D77679
:10052000F6669556B4465BB77AA719973887DFF712
:10053000FEE79DD7BCC7C448E5588668A778400841
:10054000611802282338CCC9EDD98EE9AFF9488962
:1005500069990AA92BB9F55AD44AB77A966A711AD9
:10056000500A333A122AFDDBDCCBBFFB9EEB799BB2
:10057000588B3BBB1AABA66C877CE44CC55C222C29
:10058000033C600C411CAEED8FFDECCDCDDD2AAD02
:100590000BBD688D499D977EB66ED55EF44E133EB9
:1005A000322E511E700E9FFFBEEFDDDFFCCF1BBF52
:1005B0003AAF599F788F8891A981CAB1EBA10CD12C
:1005C0002DC14EF16FE18010A100C230E320045034
:1005D000254046706760B9839893FBA3DAB33DC3A7
:1005E0001CD37FE35EF3B1029012F322D232354284
:1005F000145277625672EAB5CBA5A89589856EF537
:100600004FE52CD50DC5E234C324A01481046674D3
:10061000476424540544DBA7FAB79987B8975FE786
:100620007EF71DC73CD7D326F2369106B016576623
:100630007676154634564CD96DC90EF92FE9C8990E
:10064000E9898AB9ABA94458654806782768C01873
:10065000E1088238A3287DCB5CDB3FEB1EFBF98BE6
:10066000D89BBBAB9ABB754A545A376A167AF10AC3
:10067000D01AB32A923A2EFD0FED6CDD4DCDAABDF6
:100680008BADE89DC98D267C076C645C454CA23C13
:10069000832CE01CC10C1FEF3EFF5DCF7CDF9BAFC6
:1006A000BABFD98FF89F176E367E554E745E932E63
:1006B000B23ED10EF01E00002000230026002900CB
:1006C0002C002F0032000001000003010601090187
:1006D00005050505070508080808020202020A0ABE
:1006E00008080404040401010101010101010303DC
:1006F000030303030303040707070C0C0C0C0C0C87
:100700000C0C0202020206060606060606060B0B83
:100710000B0B0B0B0B0B01021020200808102040C4
:1007200010204080020102010804020101020408B5
:100730001020408080402010080402018004020143
:10074000804020100804020108040201010204088C
:1007500010204080010204081020408000000A0B95
:1007600002090C0D0E080703040100000000000040
:100770000000000000000000000000000000000079
:100780000000000000000000121110000000000036
:100790000000000000000000000000000000000059
:1007A000000000002100240027002A002D00300056
:1007B000330001010000040107010A0100002200CA
:1007C000250028002B002E0031003400020100001B
:1007D000050108010B012B7011241FBECFEFD1E2E0
:1007E000DEBFCDBF00E00CBF12E0A0E0B2E0EEE85B
:1007F000FFEF00E00BBF02C007900D92AC34B107D1
:10080000D9F723E1ACE4B2E001C01D92AA30B207EF
:10081000E1F713E0CCEED3E000E006C02197010938
:10082000802FFE010E947C7FCB3ED10780E008072D
:10083000A9F70E947C560C94B87FE2CBCF92DF924E
:10084000EF92FF920F931F93CF93DF9380919611B6
:10085000909197118C3A23E0920711F40C9437177A
:1008600008F45DC18A39E4E09E0709F4AFC608F0D8
:1008700082C1833024E0920711F40C94C01008F078
:100880009CC5843DF3E09F0709F467C010F40C9405
:10089000D2168D3E23E0920711F40C9438108A3F53
:1008A000E3E09E0711F40C946810813E934011F030
:1008B0000C941610809105128150809305128823A4
:1008C00009F423C120911312309114128091A20EC9
:1008D0009091A30EA091A40EB091A50E820F931F2C
:1008E000A11DB11D8093A20E9093A30EA093A40E00
:1008F000B093A50EE0919C0E81E08E0F80939C0E2C
:10090000F0E0EE0FFF1FEE0FFF1FE456F54F809152
:10091000111290911212A0911312B09114128083AF
:100920009183A283B3838091A7119091A81101971D
:100930009093A8118093A711892B11F40C941F1088
:10094000109216121092151281E080931D1284ED00
:1009500093E090939711809396110E9447558111CF
:10096000D2C180911012E0912412F09125128823B7
:1009700011F40C942B19A0812091071230910812C8
:100980004091091250910A12B0E00E94907FDC0160
:10099000CB015AE0B695A795979587955A95D1F7CB
:1009A00090931412809313129091A21190931212AB
:1009B0008091A111882311F40C94FE174091BD1170
:1009C0005091BE116091BF117091C01177FF02C0AC
:1009D0000C94E51C0091E5111091E6112091E711AE
:1009E0003091E811400F511F621F731F4093BD11DA
:1009F0005093BE116093BF117093C011916090939A
:100A00001212813011F00C94FE174091C5115091D3
:100A1000C6116091C7117091C81177FF02C00C9484
:100A2000E61A0091ED111091EE112091EF11309125
:100A3000F011400F511F621F731F4093C511509357
:100A4000C6116093C7117093C811909112129460EF
:100A500090931212833039F14091C9115091CA110B
:100A60006091CB117091CC1177FF02C00C94FC1AED
:100A70000091F1111091F2112091F3113091F411C4
:100A8000400F511F621F731F4093C9115093CA1129
:100A90006093CB117093CC11909112129860909347
:100AA0001212843029F18091CD119091CE11A09134
:100AB000CF11B091D011B7FF02C00C94521C4091DD
:100AC000F5115091F6116091F7117091F811840FA2
:100AD000951FA61FB71F8093CD119093CE11A093A1
:100AE000CF11B093D01180911212806180931212B5
:100AF00081EE93E090939711809396118091051267
:100B00008150809305128111DDCE80919C0E9091D1
:100B10009D0E891B80958093051281E0F5C0843A73
:100B2000F2E09F0711F40C94DD0E08F0F6C0813856
:100B3000E2E09E0711F40C94F80D08F431C78D38EB
:100B4000F2E09F0711F40C945B0E10F40C94B016B5
:100B5000853922E0920711F40C949D0E8939E2E068
:100B60009E0711F40C94B90E8139924011F00C9447
:100B700016100C947C0E8D3DE4E09E0711F40C944D
:100B8000831608F0A2C3873B24E0920709F477C0DC
:100B900010F40C94C616873CE4E09E07E1F0833D18
:100BA000F4E09F0711F40C944F16823C944011F02E
:100BB0000C9416100E9447558111A5C0E091241293
:100BC000F091251280818093121287EC94E090932B
:100BD0009711809396118091051281508093051290
:100BE000882311F40C94B21820911312309114122E
:100BF0008091A20E9091A30EA091A40EB091A50E8B
:100C0000820F931FA11DB11D8093A20E9093A30E7E
:100C1000A093A40EB093A50EE0919C0E81E08E0FE0
:100C200080939C0EF0E0EE0FFF1FEE0FFF1FE456C7
:100C3000F54F8091111290911212A0911312B09160
:100C4000141280839183A283B383809101129091C7
:100C5000021201979093021280930112892B11F4D2
:100C60000C94DC16109216121092151281E08093EB
:100C70001D1287EB94E090939711809396110E9438
:100C80004755811140C0E0912412F09125128081D6
:100C9000A0919B11B0919C11A80FB11D87FDBA9531
:100CA000B0939C11A0939B1180911012882311F492
:100CB0000C947E192091071230910812409109126C
:100CC00050910A120E94907FDC01CB017AE0B69528
:100CD000A795979587957A95D1F79093141280935D
:100CE0001312109216121092151281E080931D12A9
:100CF00082EC94E090939711809396110E9447554F
:100D0000882309F45BCF81E0DF91CF911F910F9190
:100D1000FF90EF90DF90CF9008958B3423E09207FF
:100D200009F4C7C108F0FBC48830F3E09F0711F451
:100D30000C94EF0F10F40C94BC16853323E092074B
:100D400009F48DC08234E3E09E0709F459C18C3068
:100D5000934011F00C9416100E9447558111D3CF87
:100D6000E0912412F0912512208131813093A61157
:100D70002093A5110091A111E02FF0E0EE0FFF1FCD
:100D8000EE0FFF1FEA56FE4EC388D488E588F6882A
:100D9000C092F911D092FA11E092FB11F092FC117D
:100DA000C9EAD1E1E1EDF1E110E00117F1F048818C
:100DB00059816A817B81440F551F661F771FDB01B4
:100DC000CA018C199D09AE09BF098C8B9D8BAE8B16
:100DD000BF8B40835183628373838C199D09AE0955
:100DE000BF09848B958BA68BB78B1F5F2496349697
:100DF0001530D9F660919D1170919E1180919F11CF
:100E00009091A011FC01E60FF71F4091A71150919E
:100E1000A8114E0F5F1F240F351FC21AD30AE10815
:100E2000F108C092FD11D092FE11E092FF11F092F4
:100E30000012672B11F40C947614809111128F7BA1
:100E400080931112109216121092151282E0809364
:100E50001D1285E393E090939711809396110E9461
:100E60004755811150CF80911012E0912412F091DA
:100E70002512882311F40C940919A081B1812091C5
:100E80000712309108124091091250910A120E94E3
:100E9000907FDC01CB014AE0B695A79597958795A1
:100EA0004A95D1F790931412809313129091A21146
:100EB000909312128091A111882311F40C94A4171D
:100EC0004091BD115091BE116091BF117091C01140
:100ED00077FF02C00C949B1C0091E5111091E61164
:100EE0002091E7113091E811400F511F621F731FCD
:100EF0004093BD115093BE116093BF117093C01108
:100F0000916090931212813011F00C94A4174091CB
:100F1000C5115091C6116091C7117091C81177FF2A
:100F200002C00C94651A0091ED111091EE11209100
:100F3000EF113091F011400F511F621F731F40934A
:100F4000C5115093C6116093C7117093C811909149
:100F50001212946090931212833039F14091C911AA
:100F60005091CA116091CB117091CC1177FF02C0E2
:100F70000C947B1A0091F1111091F2112091F31150
:100F80003091F411400F511F621F731F4093C9111C
:100F90005093CA116093CB117093CC11909112129F
:100FA000986090931212843029F18091CD11909124
:100FB000CE11A091CF11B091D011B7FF02C00C9407
:100FC000E11B4091F5115091F6116091F71170916C
:100FD000F811840F951FA61FB71F8093CD11909312
:100FE000CE11A093CF11B093D011809112128061D5
:100FF0008093121282E493E090939711809396115C
:1010000080910512815080930512882311F40C946D
:10101000BC1820911312309114128091A20E90915D
:10102000A30EA091A40EB091A50E820F931FA11D37
:10103000B11D8093A20E9093A30EA093A40EB09323
:10104000A50EE0919C0E81E08E0F80939C0EF0E047
:10105000EE0FFF1FEE0FFF1FE456F54F80911112A8
:1010600090911212A0911312B09114128083918367
:10107000A283B383809111128F7780931112809194
:101080009D1190919E11019790939E1180939D11B7
:10109000892B11F40C9472141092161210921512DE
:1010A00082E080931D128BE493E0909397118093DC
:1010B00096110E944755811126CE80911012E09121
:1010C0002412F0912512882311F40C943D19A0816B
:1010D000B18120910712309108124091091250916C
:1010E0000A120E94907FDC01CB012AE0B695A795F9
:1010F000979587952A95D1F79093141280931312A0
:101100009091A211909312128091A111882311F451
:101110000C9450184091BD115091BE116091BF11B7
:101120007091C01177FF02C00C94111D0091E51160
:101130001091E6112091E7113091E811400F511FF5
:10114000621F731F4093BD115093BE116093BF1176
:101150007093C011916090931212813011F00C9431
:1011600050184091C5115091C6116091C7117091EE
:10117000C81177FF02C00C94281B0091ED1110914B
:10118000EE112091EF113091F011400F511F621FAD
:10119000731F4093C5115093C6116093C71170938C
:1011A000C81190911212946090931212833039F109
:1011B0004091C9115091CA116091CB117091CC111D
:1011C00077FF02C00C943E1B0091F1111091F211B7
:1011D0002091F3113091F411400F511F621F731FC2
:1011E0004093C9115093CA116093CB117093CC11E5
:1011F00090911212986090931212843029F180918C
:10120000CD119091CE11A091CF11B091D011B7FF17
:1012100002C00C94B11C4091F5115091F6116091EF
:10122000F7117091F811840F951FA61FB71F8093B7
:10123000CD119093CE11A093CF11B093D011809186
:10124000121280618093121288E593E090939711B7
:101250008093961180910512815080930512882306
:1012600011F40C94FF1820911312309114128091F4
:10127000A20E9091A30EA091A40EB091A50E820F84
:10128000931FA11DB11D8093A20E9093A30EA09356
:10129000A40EB093A50EE0919C0E81E08E0F80937A
:1012A0009C0EF0E0EE0FFF1FEE0FFF1FE456F54F10
:1012B0008091111290911212A0911312B0911412F8
:1012C00080839183A283B383DACE8230E5E09E07E8
:1012D00011F40C94EF1610F40C94D9158C31F5E040
:1012E0009F0709F460C0853225E0920711F40C9441
:1012F00012178231954009F099C60E944755811115
:1013000002CDE0912412F0912512808191811092FA
:10131000121220E533EC309314122093131233C0D1
:1013200020911312309114128091A20E9091A30E6D
:10133000A091A40EB091A50E820F931FA11DB11D07
:101340008093A20E9093A30EA093A40EB093A50E2B
:1013500081E08E0F80939C0EF0E0EE0FFF1FEE0FEA
:10136000FF1FE456F54F8091111290911212A09137
:101370001312B091141280839183A283B38380915E
:101380000312909104129C012150310930930412F0
:1013900020930312892B09F4BDC18CE195E0909351
:1013A000971180939611E0919C0E80919D0EFE2FD7
:1013B000F81BFF3F09F0B4CFA6CC893224E0920796
:1013C00011F40C94B41510F40C9492158834E4E0E4
:1013D0009E0751F18C34F4E09F0709F446C08D3329
:1013E000944009F023C60E94475581118CCCE091AE
:1013F0002412F091251280819181909302128093A2
:101400000112109210128091981185FFD2C0109293
:1014100016121092151284E080931D1288E494E055
:1014200090939711809396110E94475581116BCC30
:10143000E0912412F091251280819181A281B381E3
:1014400080930B1290930C12A0930D12B0930E1276
:10145000109216121092151281E080931D128CE4E6
:1014600094E090939711809396110E9447558111B3
:101470004ACCE0912412F0912512C081C0930F1242
:101480008091210390912203959587959595879555
:101490009595879595958795209100023091010249
:1014A000821B930B97FF02C00C948419843691051C
:1014B00014F40C946C1920914B1130914C1140E0B4
:1014C00050E060910B1270910C1280910D1290916E
:1014D0000E120E942F7F9B01AC0104C056954795C8
:1014E00037952795CA95D2F72130F0E13F0741059E
:1014F000510520F020E030E140E050E02093071259
:10150000309308124093091250930A12213084E05C
:1015100038074105510510F40C94C6188091CF028C
:10152000882331F1A091D002B091D1020E94907F26
:10153000DC01CB01DAE0B695A79597958795DA950A
:10154000D1F78093071290930812A0930912B093D9
:101550000A1280917F11909180118E3FEFEF9E07CC
:1015600011F40C94B41D01969093801180937F1117
:1015700081E08093101280917D1190917E118E3FB9
:10158000FFEF9F0711F40C94DD1B019690937E11E1
:1015900080937D118091071290910812A0910912F9
:1015A000B0910A1281159240A105B10510F40C9476
:1015B000D419109216121092151282E080931D1207
:1015C0008AE994E090939711809396110E94475571
:1015D000811199CBE0912412F0912512A081B18163
:1015E000B0939C11A0939B1180911012882311F449
:1015F0000C9468172091071230910812409109123B
:1016000050910A120E94907FDC01CB01CAE0B6958E
:10161000A79597958795CA95D1F7909314128093C3
:101620001312109216121092151281E080931D125F
:1016300085EA94E090939711809396110E94475504
:10164000811161CBE0912412F09125128081809369
:1016500012128AEA94E090939711809396118091E8
:101660000512815080930512882311F40C94CD1734
:1016700020911312309114128091A20E9091A30E1A
:10168000A091A40EB091A50E820F931FA11DB11DB4
:101690008093A20E9093A30EA093A40EB093A50ED8
:1016A000E0919C0E81E08E0F80939C0EF0E0EE0F97
:1016B000FF1FEE0FFF1FE456F54F8091111290911E
:1016C0001212A0911312B091141280839183A283FD
:1016D000B383809111128F778093111280919811AA
:1016E0009091991186FD02C00C94951720910112DA
:1016F00030910212215031093093021220930112CD
:10170000232B09F0AFCA91FF05C080910612811109
:101710000E941A261092971110929611F4CA8137DE
:1017200023E0920711F40C94521510F40C94A516B2
:101730008738E3E09E0709F4DAC0813AF3E09F07B7
:1017400009F4F0C68A37934009F070C40E944755E7
:101750008111D9CA80911012E0912412F0912512C2
:10176000882311F40C943519A0812091071230912F
:1017700008124091091250910A12B0E00E94907F25
:10178000DC01CB01CAE0B695A79597958795CA95D8
:10179000D1F790931412809313129091A211909309
:1017A00012128091A111882311F40C9427184091F2
:1017B000BD115091BE116091BF117091C01177FFA2
:1017C00002C00C94FB1C0091E5111091E6112091D0
:1017D000E7113091E811400F511F621F731F4093B2
:1017E000BD115093BE116093BF117093C0119160F1
:1017F00090931212813011F00C9427184091C5116A
:101800005091C6116091C7117091C81177FF02C045
:101810000C946A1B0091ED111091EE112091EF11C3
:101820003091F011400F511F621F731F4093C5117B
:101830005093C6116093C7117093C8119091121202
:10184000946090931212833039F14091C9115091F4
:10185000CA116091CB117091CC1177FF02C00C942A
:10186000541B0091F1111091F2112091F31130915C
:10187000F411400F511F621F731F4093C911509301
:10188000CA116093CB117093CC1190911212986091
:1018900090931212843029F18091CD119091CE1144
:1018A000A091CF11B091D011B7FF02C00C940C1CC5
:1018B0004091F5115091F6116091F7117091F81166
:1018C000840F951FA61FB71F8093CD119093CE1143
:1018D000A093CF11B093D0118091121280618093A8
:1018E000121287E893E0909397118093961180915C
:1018F0000512815080930512882311F40C94F51879
:1019000020911312309114128091A20E9091A30E87
:10191000A091A40EB091A50E820F931FA11DB11D21
:101920008093A20E9093A30EA093A40EB093A50E45
:10193000E0919C0E81E08E0F80939C0EF0E0EE0F04
:10194000FF1FEE0FFF1FE456F54F8091111290918B
:101950001212A0911312B091141280839183A2836A
:10196000B38380919F119091A01101979093A01142
:1019700080939F11892B09F414C5109216121092AE
:10198000151281E080931D128AE793E090939711DE
:10199000809396110E944755882309F4DBCEB3C982
:1019A000823622E0920709F4CCC008F036C30097D3
:1019B00011F40C9428178034924009F037C30E9428
:1019C00047558111A0C9E0912412F0912512808120
:1019D0008C3011F40C947E1C10F00C94111987308B
:1019E00009F4A9C08B3011F40C94E216833011F481
:1019F0000C948D1C9091290420912A04392F321BBC
:101A00003F3F41F1E1E0E90FE0932904A92FB0E065
:101A1000A95DBC4F12961C923E2F321B3F3FD1F066
:101A200032E0390F30932904F0E0E95DFC4F43E0E8
:101A30004283432F50E05093320440933104321BD1
:101A40003F3F41F09D5F90932904FA01E95DFC4F0F
:101A500091E0928390912904492F50E050933004F3
:101A600040932F04392F321B3F3F11F40C94CF1DAC
:101A70009F5F90932904DA01A95DBC4F91E0129613
:101A80009C9312974091310450913204FA01FF2740
:101A9000E95DFC4F92819F5F928312969C91129711
:101AA0009F5F12969C93A09129049A2F921B9F3FAF
:101AB00011F40C94D81D91E09A0F90932904B0E092
:101AC000A95DBC4F35E012963C9332813F5F328373
:101AD000882311F40C94B81D60912F047091300488
:101AE000EB01DD27C95DDC4F3A813F5F3A83392F37
:101AF000321B3F3F11F40C94D41D31E0390F309369
:101B00002904A92FB0E0A95DBC4F12968C93828165
:101B10008F5F8283321B3F3F11F40C94C31D6F3FD4
:101B20007F4F11F08FEF8A8380912D048F5F809318
:101B30002D040E94B63E82E692E090939711809326
:101B4000961180919C0E90919D0E891B809580939B
:101B50000512882309F4D7C8109216121092151294
:101B600082E080931D1286E692E090939711809315
:101B700096110E9447558111C6C8E0912412F09138
:101B8000251280819181809398119093991187FFFC
:101B900003C08F79809311121092161210921512B1
:101BA00081E080931D1288E792E0909397118093D3
:101BB00096110E9447558111A6C8E0912412F09118
:101BC000251290819093A11181E001C0880F9A9510
:101BD000EAF78093A211109216121092151284E067
:101BE00080931D1281E892E0909397118093961153
:101BF0000E944755811187C8E0912412F091251267
:101C000080819181A281B3818093A9119093AA11BF
:101C1000A093AB11B093AC11109216121092151242
:101C200084E080931D1285E892E090939711809351
:101C300096110E944755811166C8E0912412F091D7
:101C4000251280819181A281B3818093AD119093FF
:101C5000AE11A093AF11B093B01110921612109262
:101C6000151284E080931D1289E892E090939711F9
:101C7000809396110E944755811145C8E091241226
:101C8000F091251280819181A281B3818093B1115D
:101C90009093B211A093B311B093B4111092161295
:101CA0001092151284E080931D128DE892E09093BB
:101CB0009711809396110E944755811124C8E09195
:101CC0002412F091251280819181A281B3818093A9
:101CD000B5119093B611A093B711B093B8111092AB
:101CE00016121092151284E080931D1281E992E081
:101CF00090939711809396110E944755811103C8C4
:101D0000E0912412F091251280819181A281B3810A
:101D10008093B9119093BA11A093BB11B093BC11E9
:101D2000109216121092151282E080931D1285E90E
:101D300092E090939711809396110E9447558111DC
:101D40000C948306E0912412F091251280819181F8
:101D500090939E1180939D1110921612109215125D
:101D600082E080931D1289E992E09093971180930D
:101D700096110E94475581110C948306E09124121C
:101D8000F0912512808191819093A01180939F11F1
:101D900010921012809198119091991190FFDEC0CD
:101DA000109216121092151284E080931D1284EA8C
:101DB00092E090939711809396110E94475581115C
:101DC0000C948306E0912412F09125128081918178
:101DD000A281B38180930B1290930C12A0930D12E9
:101DE000B0930E12109216121092151281E0809389
:101DF0001D1288EA92E090939711809396110E94A9
:101E0000475581110C948306E0912412F09125121C
:101E1000C081C0930F1260910B1270910C128091CF
:101E20000D1290910E12611571058105910511F445
:101E30000C9479182091210330912203A901559522
:101E400047955595479555954795559547952091B3
:101E5000000230910102FA01E21BF30B9F01F7FF30
:101E600002C00C94D51BE436F10514F40C945A1AF4
:101E700020914B1130914C1140E050E00E942F7F97
:101E80009B01AC0104C05695479537952795CA9597
:101E9000D2F72130F0E13F074105510520F020E065
:101EA00030E140E050E02093071230930812409355
:101EB000091250930A12213084E038074105510578
:101EC00010F40C948C198091CF02882331F1A091E9
:101ED000D002B091D1020E94907FDC01CB01DAE008
:101EE000B695A79597958795DA95D1F780930712C0
:101EF00090930812A0930912B0930A1280917F1157
:101F0000909180118E3FEFEF9E0711F40C94C81D45
:101F100001969093801180937F1181E0809310123D
:101F200080917D1190917E118E3FFFEF9F0711F4FC
:101F30000C94971D019690937E1180937D11809152
:101F4000071290910812A0910912B0910A128115FE
:101F50009240A105B10510F40C94CC191092161200
:101F60001092151282E080931D128EEF92E09093F2
:101F70009711809396110E94475581110C94830606
:101F800080911012E0912412F0912512882309F417
:101F900071C7A081B1812091071230910812409140
:101FA000091250910A120E94907FDC01CB01CAE015
:101FB000B695A79597958795CA95D1F79093A41153
:101FC0008093A311109216121092151282E0809342
:101FD0001D1288E093E090939711809396110E94D0
:101FE000475581110C948306E0912412F09125123B
:101FF000808191819093A8118093A711109216125D
:102000001092151282E080931D128CE093E0909361
:102010009711809396110C94AC06863622E09207B5
:1020200009F4A7CD8837924009F4C3CD8FEF9FEF15
:10203000909397118093961180E00C948406809180
:10204000A5119091A611892B09F4A4C180911112B8
:102050008F7B80931112109216121092151282E04B
:1020600080931D128DEE93E09093971180939611BB
:102070000E94475581110C94830680911012E091C3
:102080002412F0912512882311F40C948A18A0814F
:10209000B18120910712309108124091091250919C
:1020A0000A120E94907FDC01CB014AE0B695A79509
:1020B000979587954A95D1F79093141280931312B0
:1020C0000E9416548AEF93E0909397118093961193
:1020D00080910512815080930512882311F40C948D
:1020E000801820911312309114128091A20E9091B9
:1020F000A30EA091A40EB091A50E820F931FA11D57
:10210000B11D8093A20E9093A30EA093A40EB09342
:10211000A50EE0919C0E81E08E0F80939C0EF0E066
:10212000EE0FFF1FEE0FFF1FE456F54F80911112C7
:1021300090911212A0911312B09114128083918386
:10214000A283B383809111128F77809311128091B3
:10215000A5119091A61101979093A6118093A511B6
:10216000892B09F417C1109216121092151282E0F1
:1021700080931D1283E094E09093971180939611C1
:102180000E94475581110C94830680911012E091B2
:102190002412F0912512882311F40C942319A081A4
:1021A000B18120910712309108124091091250918B
:1021B0000A120E94907FDC01CB012AE0B695A79518
:1021C000979587952A95D1F79093141280931312BF
:1021D0009091A211909312128091A111882309F479
:1021E000E6C64091BD115091BE116091BF11709132
:1021F000C01177FF02C00C94CF1C0091E511109123
:10220000E6112091E7113091E811400F511F621F34
:10221000731F4093BD115093BE116093BF11709313
:10222000C011916090931212813009F0C0C64091A4
:10223000C5115091C6116091C7117091C81177FFF7
:1022400002C00C94D01A0091ED111091EE11209162
:10225000EF113091F011400F511F621F731F409317
:10226000C5115093C6116093C7117093C811909116
:102270001212946090931212833039F14091C91177
:102280005091CA116091CB117091CC1177FF02C0AF
:102290000C94121B0091F1111091F2112091F31185
:1022A0003091F411400F511F621F731F4093C911E9
:1022B0005093CA116093CB117093CC11909112126C
:1022C000986090931212843029F18091CD119091F1
:1022D000CE11A091CF11B091D011B7FF02C00C94D4
:1022E000221C4091F5115091F6116091F7117091F7
:1022F000F811840F951FA61FB71F8093CD119093DF
:10230000CE11A093CF11B093D011809112128061A1
:102310008093121280E194E090939711809396112C
:1023200080910512815080930512882309F454C7C7
:1023300020911312309114128091A20E9091A30E4D
:10234000A091A40EB091A50E820F931FA11DB11DE7
:102350008093A20E9093A30EA093A40EB093A50E0B
:10236000E0919C0E81E08E0F80939C0EF0E0EE0FCA
:10237000FF1FEE0FFF1FE456F54F80911112909151
:102380001212A0911312B091141280839183A28330
:10239000B383DDCE809198119091991192FDB5C9CA
:1023A000B9C98091FD119091FE11A091FF11B091DA
:1023B0000012892B8A2B8B2B09F40BC280911112EE
:1023C00083FF03C08064809311128091A3119091C8
:1023D000A41190931412809313129091A2119093D0
:1023E00012128091A111882309F478C54091BD1182
:1023F0005091BE116091BF117091C01177FF02C062
:102400000C94681C0091E5111091E6112091E711E0
:102410003091E811400F511F621F731F4093BD118F
:102420005093BE116093BF117093C011916090934F
:102430001212813009F052C54091C5115091C61158
:102440006091C7117091C81177FF01C0F4C7009166
:10245000ED111091EE112091EF113091F011400F1C
:10246000511F621F731F4093C5115093C611609393
:10247000C7117093C8119091121294609093121228
:10248000833029F14091C9115091CA116091CB114B
:102490007091CC1177FDE4C70091F1111091F21108
:1024A0002091F3113091F411400F511F621F731FDF
:1024B0004093C9115093CA116093CB117093CC1102
:1024C00090911212986090931212843029F18091A9
:1024D000CD119091CE11A091CF11B091D011B7FF35
:1024E00002C00C94BF1B4091F5115091F611609100
:1024F000F7117091F811840F951FA61FB71F8093D5
:10250000CD119093CE11A093CF11B093D0118091A3
:10251000121280618093121281EA93E090939711D6
:102520008093961180910512815080930512882323
:1025300009F408C620911312309114128091A20E52
:102540009091A30EA091A40EB091A50E820F931F9F
:10255000A11DB11D8093A20E9093A30EA093A40E73
:10256000B093A50EE0919C0E81E08E0F80939C0E9F
:10257000F0E0EE0FFF1FEE0FFF1FE456F54F8091C6
:10258000111290911212A0911312B0911412808323
:102590009183A283B383809111128F77809311125C
:1025A0004091FD115091FE116091FF117091001248
:1025B00041505109610971094093FD115093FE1179
:1025C0006093FF1170930012452B462B472B09F4A3
:1025D000FDC0809105122091A211209312129091BA
:1025E000A111992309F451C64091BD115091BE111A
:1025F0006091BF117091C01177FF02C00C949B1DB8
:10260000C090E511D090E611E090E711F090E8114C
:102610004C0D5D1D6E1D7F1D4093BD115093BE116D
:102620006093BF117093C0112160209312129130FA
:1026300009F02BC64091C5115091C6116091C71188
:102640007091C81177FF02C00C94401D0091ED11EC
:102650001091EE112091EF113091F011400F511FA8
:10266000621F731F4093C5115093C6116093C71129
:102670007093C8112091121224602093121293308B
:1026800039F14091C9115091CA116091CB117091EB
:10269000CC1177FF02C00C94561D0091F1111091DE
:1026A000F2112091F3113091F411400F511F621F6C
:1026B000731F4093C9115093CA116093CB1170934B
:1026C000CC1120911212286020931212943029F11B
:1026D0004091CD115091CE116091CF117091D011D8
:1026E00077FF02C00C94811D0091F5111091F61135
:1026F0002091F7113091F811400F511F621F731F85
:102700004093CD115093CE116093CF117093D0119F
:10271000909112129061909312122CEA33E0309350
:10272000971120939611815080930512882311F4FC
:102730000C94850520911312309114124091A20E31
:102740005091A30E6091A40E7091A50E420F531FDD
:10275000611D711D4093A20E5093A30E6093A40EB1
:102760007093A50EE0919C0E91E09E0F90939C0EAD
:10277000F0E0EE0FFF1FEE0FFF1FE456F54F409104
:102780001112509112126091131270911412408321
:102790005183628373834091FD115091FE116091CA
:1027A000FF11709100124150510961097109409364
:1027B000FD115093FE116093FF1170930012452B91
:1027C000462B472B09F007CF809111128F7B809306
:1027D00011128091A7119091A811892B09F42FCC87
:1027E000809111128F7B8093111210921612109209
:1027F000151281E080931D128EEB93E09093971158
:10280000809396110E94475581110C948306809104
:102810001012E0912412F0912512882309F482C449
:10282000A081209107123091081240910912509115
:102830000A12B0E00E94907FDC01CB016AE0B695FD
:10284000A795979587956A95D1F7909314128093E1
:1028500013120E9416548BEC93E09093971180937F
:10286000961180910512815080930512882311F4EE
:102870000C94850520911312309114128091A20EB0
:102880009091A30EA091A40EB091A50E820F931F5C
:10289000A11DB11D8093A20E9093A30EA093A40E30
:1028A000B093A50EE0919C0E81E08E0F80939C0E5C
:1028B000F0E0EE0FFF1FEE0FFF1FE456F54F809183
:1028C000111290911212A0911312B09114128083E0
:1028D0009183A283B383809111128F778093111219
:1028E0000C94930480919F119091A011892B09F46D
:1028F00058CD809111128F7B809311121092161275
:102900001092151281E080931D1284E693E090935B
:102910009711809396110E94475581110C9483065C
:1029200080911012E0912412F0912512882309F46D
:1029300012C4A0812091071230910812409109120F
:1029400050910A12B0E00E94907FDC01CB011AE0A6
:10295000B695A795979587951A95D1F790931412E8
:10296000809313129091A211909312128091A11151
:10297000882309F486C24091BD115091BE11609127
:10298000BF117091C01177FD32C70091E511109110
:10299000E6112091E7113091E811400F511F621F9D
:1029A000731F4093BD115093BE116093BF1170937C
:1029B000C011916090931212813009F062C240916F
:1029C000C5115091C6116091C7117091C81177FD62
:1029D00008C50091ED111091EE112091EF11309189
:1029E000F011400F511F621F731F4093C511509388
:1029F000C6116093C7117093C81190911212946020
:102A000090931212833029F14091C9115091CA114B
:102A10006091CB117091CC1177FDF8C40091F11148
:102A20001091F2112091F3113091F411400F511FC8
:102A3000621F731F4093C9115093CA116093CB1149
:102A40007093CC119091121298609093121284306E
:102A500019F18091CD119091CE11A091CF11B0912B
:102A6000D011B7FD77C64091F5115091F6116091E4
:102A7000F7117091F811840F951FA61FB71F80934F
:102A8000CD119093CE11A093CF11B093D01180911E
:102A9000121280618093121281E793E09093971154
:102AA000809396118091051281508093051288239E
:102AB00009F43FC320911312309114128091A20E99
:102AC0009091A30EA091A40EB091A50E820F931F1A
:102AD000A11DB11D8093A20E9093A30EA093A40EEE
:102AE000B093A50EE0919C0E81E08E0F80939C0E1A
:102AF000F0E0EE0FFF1FEE0FFF1FE456F54F809141
:102B0000111290911212A0911312B091141280839D
:102B10009183A283B383809111128F7780931112D6
:102B20000C94B10C8031F4E09F0709F4F9CB8532A5
:102B3000944009F07BCA80919C0E90919D0E891B58
:102B4000809580930512882311F40C9483061092CB
:102B500016121092151282E080931D1289E294E001
:102B600090939711809396110E94475581110C9470
:102B70008306E0912412F091251280819181809347
:102B800098119093991187FD6EC3809111128F7BDC
:102B900080931112109216121092151282E08093F7
:102BA0001D128DE394E090939711809396110C94ED
:102BB000F309823E24E0920701F1893F944009F035
:102BC00035CA0E94475581110C948306E091241266
:102BD000F0912512D181C081D11139C7109288118D
:102BE0001092891110928A1110928B116C2F70E043
:102BF00087E00E9459490C948A0B809105128150FC
:102C000080930512882309F497C020911312309104
:102C100014128091A20E9091A30EA091A40EB091D7
:102C2000A50E820F931FA11DB11D8093A20E90933C
:102C3000A30EA093A40EB093A50EE0919C0E81E08C
:102C40008E0F80939C0EF0E0EE0FFF1FEE0FFF1F24
:102C5000E456F54F8091111290911212A091131227
:102C6000B091141280839183A283B3838091011267
:102C70009091021201979093021280930112892B76
:102C800009F49AC0109216121092151282E08093E5
:102C90001D1283ED94E090939711809396110E94FA
:102CA000475581110C94830680911012E0912412F3
:102CB000F0912512882309F41AC3A081B1812091D3
:102CC0000712309108124091091250910A120E9485
:102CD000907FDC01CB015AE0B695A7959795879533
:102CE0005A95D1F7909314128093131210921612E2
:102CF0001092151281E080931D128DED94E0909357
:102D00009711809396110E94475581110C94830668
:102D1000E0912412F091251280818093121282EEAC
:102D200094E09093971180939611809105128150B1
:102D300080930512811169CF85E092E10E940C54C5
:102D4000882311F40C94830660CF8835F3E09F0745
:102D500011F40C942A098436934009F4DCCD66C939
:102D60008538E2E09E0711F40C94190E89389240E0
:102D700011F40C943A0E5AC9883AE2E09E0709F41D
:102D80003EC88E3F924009F4F6C850C9853AF4E037
:102D90009F0711F40C941E0B8A3A944011F40C9482
:102DA0002F0B44C98E3BE3E09E0709F42BCD8B3CEF
:102DB000934009F456CD3AC9809198119091991198
:102DC0000C94830B109216121092151283E08093CC
:102DD0001D1282E095E090939711809396110E94C6
:102DE000475581110C948306E0912412F09125122D
:102DF0006181728140E080810E942E4F1092971174
:102E00001092961181E00C94840610921612109282
:102E1000151284E080931D1285E295E0909397113E
:102E2000809396110E94475581110C948306E0917E
:102E30002412F091251261817281438180810E9468
:102E40002E4F109297111092961181E00C948406E7
:102E5000109216121092151281E080931D1280E4D8
:102E600092E090939711809396110C94DF0C8091CF
:102E7000051259CC808191819093A4118093A31164
:102E8000A1C84091C1115091C2116091C3117091BC
:102E9000C41177FD91C20091E9111091EA112091BE
:102EA000EB113091EC11400F511F621F731F4093C3
:102EB000C1115093C2116093C3117093C4119091CA
:102EC0001212926090931212823009F078CD9CCD4C
:102ED000B0931412A09313120C94110B4091C111D2
:102EE0005091C2116091C3117091C41177FDCDC290
:102EF0000091E9111091EA112091EB113091EC1140
:102F0000400F511F621F731F4093C1115093C21194
:102F10006093C3117093C4119091121292609093B8
:102F20001212823009F088CAADCA20910112309184
:102F30000212215031093093021220930112232BE7
:102F400011F40C94830B9ECE4091C1115091C2118B
:102F50006091C3117091C41177FDE3C20091E91132
:102F60001091EA112091EB113091EC11400F511F9B
:102F7000621F731F4093C1115093C2116093C3111C
:102F80007093C41190911212926090931212823039
:102F900011F00C9487070C94AE0785E092E10E9433
:102FA0000C54882311F40C9483060C94380B409134
:102FB000C1115091C2116091C3117091C41177FD7C
:102FC000C5C20091E9111091EA112091EB113091E5
:102FD000EC11400F511F621F731F4093C11150939A
:102FE000C2116093C3117093C41190911212926038
:102FF00090931212823009F01AC940C94091C11150
:103000005091C2116091C3117091C41177FDB3C288
:103010000091E9111091EA112091EB113091EC111E
:10302000400F511F621F731F4093C1115093C21173
:103030006093C3117093C411909112129260909397
:103040001212823011F00C9405050C942C0540915D
:10305000C1115091C2116091C3117091C41177FDDB
:1030600064C30091E9111091EA112091EB113091A4
:10307000EC11400F511F621F731F4093C1115093F9
:10308000C2116093C3117093C41190911212926097
:1030900090931212823011F00C94FE0B0C94250CBC
:1030A0004091C1115091C2116091C3117091C4112E
:1030B00077FD26C30091E9111091EA112091EB11DF
:1030C0003091EC11400F511F621F731F4093C111CB
:1030D0005093C2116093C3117093C4119091121256
:1030E000926090931212823011F00C94B1080C94FB
:1030F000D8088091101281110C949F0F0C94AE0F80
:1031000085E092E10E940C54882311F40C9483060C
:103110000C947110808191819093141280931312FA
:103120000C946010808190E090931412809313129D
:1031300090CB85E092E10E940C54882311F40C940A
:103140008306B8CC85E092E10E940C54882311F4E8
:103150000C948306EFC9808190E0909314128093C1
:10316000131200CC85E092E10E940C54882311F4E4
:103170000C9483060C94F40585E092E10E940C54B3
:10318000882311F40C9483060C9409088091CF02D3
:10319000882309F4E7C08091D0029091D102A0E089
:1031A000B0E08093071290930812A0930912B09395
:1031B0000A1281E08093101280917F11909180110A
:1031C0008E3F2FEF920709F4CCC4019690938011A3
:1031D00080937F110C94CA0A85E092E10E940C54FE
:1031E000882311F40C948306A3C885E092E10E9421
:1031F0000C54882311F40C9483060C94800C85E005
:1032000092E10E940C54882311F40C9483060C94D0
:1032100033098081918190931412809313120C943E
:103220005607813109F4F1CD873711F40C948A0BDC
:103230008D3011F00C94FA0C85E294E09093971184
:103240008093961178CC8081918190931412809311
:1032500013120C94E810808190E0909314128093E4
:1032600013120C94D4048F7992CC808190E09093C7
:103270001412809313120C94CD0B80819181909342
:103280001412809313120C9480084091C111509134
:10329000C2116091C3117091C41177FD1DC40091DA
:1032A000E9111091EA112091EB113091EC11400FCE
:1032B000511F621F731F4093C1115093C21160933D
:1032C000C3117093C4112091121222602093121224
:1032D000923009F0AFC9D5C9880F991FFC01EB578F
:1032E000FF4E2081318140E050E00C94610A8081E2
:1032F00091819093141280931312F8CCB09314120E
:10330000A09313120C9471062091851030918610B1
:1033100040E050E00C94610A8091CF02882309F4C8
:10332000A7C28091D0029091D102A0E0B0E080933A
:10333000071290930812A0930912B0930A1281E029
:103340008093101280917F11909180118E3F2FEF0A
:10335000920709F421C401969093801180937F1104
:103360000C949F0F80916F11882309F410C38091F2
:10337000701190917111A0917211B091731180939D
:10338000071290930812A0930912B0930A1221E039
:10339000209310120C94D20A63E172E088EF92E05D
:1033A0000E9421400C94AE0F63E172E083E994E047
:1033B0000E9421400C94D90A0091D5111091D61188
:1033C0002091D7113091D811400F511F621F731FE8
:1033D0004093C1115093C2116093C3117093C411F3
:1033E00073CD0091D9111091DA112091DB11309138
:1033F000DC11400F511F621F731F4093C511509382
:10340000C6116093C7117093C811FCCA0091DD11F9
:103410001091DE112091DF113091E011400F511F0A
:10342000621F731F4093C9115093CA116093CB114F
:103430007093CC110CCB0091D9111091DA1120911D
:10344000DB113091DC11400F511F621F731F40933D
:10345000C5115093C6116093C7117093C81110C85D
:103460000091DD111091DE112091DF113091E011FA
:10347000400F511F621F731F4093C9115093CA110F
:103480006093CB117093CC1120C80091D51110918D
:10349000D6112091D7113091D811400F511F621FC2
:1034A000731F4093C1115093C2116093C311709365
:1034B000C41137CD220F331FF901EB57FF4E208186
:1034C000318140E050E00C943E0F0091D9111091F1
:1034D000DA112091DB113091DC11400F511F621F76
:1034E000731F4093C5115093C6116093C711709319
:1034F000C8110C94AC070091DD111091DE112091E0
:10350000DF113091E011400F511F621F731F409374
:10351000C9115093CA116093CB117093CC110C94C4
:10352000D3070091D5111091D6112091D711309168
:10353000D811400F511F621F731F4093C111509348
:10354000C2116093C3117093C41121CD0091D511A4
:103550001091D6112091D7113091D811400F511FE1
:10356000621F731F4093C1115093C2116093C31126
:103570007093C4113FCD0091D5111091D6112091B7
:10358000D7113091D811400F511F621F731F409304
:10359000C1115093C2116093C3117093C41151CDE6
:1035A0000091D9111091DA112091DB113091DC11C9
:1035B000400F511F621F731F4093C5115093C611D6
:1035C0006093C7117093C8110C943C110091D911EC
:1035D0001091DA112091DB113091DC11400F511F55
:1035E000621F731F4093C5115093C6116093C7119A
:1035F0007093C8110C942A050091DD111091DE1111
:103600002091DF113091E011400F511F621F731F95
:103610004093C9115093CA116093CB117093CC1190
:103620000C9451050091DD111091DE112091DF11F4
:103630003091E011400F511F621F731F4093C91159
:103640005093CA116093CB117093CC110C946311F9
:103650000091D9111091DA112091DB113091DC1118
:10366000400F511F621F731F4093C5115093C61125
:103670006093C7117093C8110C94D6080091DD11A6
:103680001091DE112091DF113091E011400F511F98
:10369000621F731F4093C9115093CA116093CB11DD
:1036A0007093CC110C94FD080091DD111091DE1186
:1036B0002091DF113091E011400F511F621F731FE5
:1036C0004093C9115093CA116093CB117093CC11E0
:1036D0000C944A0C0091D9111091DA112091DB1150
:1036E0003091DC11400F511F621F731F4093C511B1
:1036F0005093C6116093C7117093C8110C94230C9A
:103700000091D5111091D6112091D7113091D81177
:10371000400F511F621F731F4093C1115093C2117C
:103720006093C3117093C411DECC0091D511109138
:10373000D6112091D7113091D811400F511F621F1F
:10374000731F4093C1115093C2116093C3117093C2
:10375000C411A0CC4091E1115091E2116091E311AC
:103760007091E411840F951FA61FB71F8093CD1190
:103770009093CE11A093CF11B093D0118DC94091E9
:10378000E1115091E2116091E3117091E411840F05
:10379000951FA61FB71F8093CD119093CE11A093B4
:1037A000CF11B093D0110C948C12209185103091D0
:1037B000861040E050E00C943E0F8FEF9FEF0C948A
:1037C000C60A4091E1115091E2116091E3117091AC
:1037D000E411840F951FA61FB71F8093CD119093FE
:1037E000CE11A093CF11B093D0110C94FA07009191
:1037F000D1111091D2112091D3113091D411400FD9
:10380000511F621F731F4093BD115093BE116093EF
:10381000BF117093C011D0C84091E1115091E211D5
:103820006091E3117091E411840F951FA61FB71FDB
:103830008093CD119093CE11A093CF11B093D0115E
:103840000C94710C4091E1115091E2116091E311DF
:103850007091E411840F951FA61FB71F8093CD119F
:103860009093CE11A093CF11B093D0110C948A11E4
:1038700080916F11882309F43CCC80917011909154
:103880007111A0917211B0917311809307129093EE
:103890000812A0930912B0930A1221E0209310128B
:1038A0000C94A70F4091E1115091E2116091E31146
:1038B0007091E411840F951FA61FB71F8093CD113F
:1038C0009093CE11A093CF11B093D0110C947805A2
:1038D0000091D1111091D2112091D3113091D411B6
:1038E000400F511F621F731F4093BD115093BE11B3
:1038F0006093BF117093C0110C941912109216129C
:103900001092151282E080931D1282E195E090934F
:103910009711809396110C947D09109216121092B3
:10392000151282E080931D1289EF94E09093971115
:103930008093961146C90091D1111091D211209116
:10394000D3113091D411400F511F621F731F409348
:10395000BD115093BE116093BF117093C0110C94B0
:1039600083074091E1115091E2116091E311709150
:10397000E411840F951FA61FB71F8093CD1190935C
:10398000CE11A093CF11B093D0110C942409809143
:103990001012882311F40C94D90A0C94CA0A0091CD
:1039A000D1111091D2112091D3113091D411400F27
:1039B000511F621F731F4093BD115093BE1160933E
:1039C000BF117093C0110C9414110091D11110917A
:1039D000D2112091D3113091D411400F511F621F89
:1039E000731F4093BD115093BE116093BF1170932C
:1039F000C0110C9401050091D1111091D2112091A8
:103A0000D3113091D411400F511F621F731F409387
:103A1000BD115093BE116093BF117093C0110C94EF
:103A2000FA0B0091D1111091D2112091D311309144
:103A3000D411400F511F621F731F4093BD1150934B
:103A4000BE116093BF117093C0110C94AD086FEF5D
:103A500070E087E00E945949C09387110E94534A41
:103A6000DC01CB018D0F911DA11DB11D809388112B
:103A700090938911A0938A11B0938B110C948A0BA7
:103A80000091D9111091DA112091DB113091DC11E4
:103A9000400F511F621F731F4093C5115093C611F1
:103AA0006093C7117093C8110C943F130091DD11FE
:103AB0001091DE112091DF113091E011400F511F64
:103AC000621F731F4093C9115093CA116093CB11A9
:103AD0007093CC110C9466130091D5111091D611EE
:103AE0002091D7113091D811400F511F621F731FC1
:103AF0004093C1115093C2116093C3117093C411CC
:103B0000E7CB0091E1111091E2112091E311309186
:103B1000E411400F511F621F731F4093CD1150934A
:103B2000CE116093CF117093D0110C948D138FEF41
:103B30009FEF0C949B0F0091D1111091D211209105
:103B4000D3113091D411400F511F621F731F409346
:103B5000BD115093BE116093BF117093C0110C94AE
:103B600017138FEF9FEF32CB8FEF9FEF0C94B40AB8
:103B70006FEF7FEF7093300460932F04921B9F3F91
:103B800011F00C94940D4250409329040C94990D1B
:103B90008FEF9FEF0C94890F8FEF9FEFDDCBDA0152
:103BA000A95DBC4F0C94420D82818F5F8283EBCF65
:103BB00092819F5F92839A2F0C94680D2F923F926F
:103BC0004F925F926F927F928F929F92AF92BF922D
:103BD000DF92EF92FF920F931F93CF93DF93CDB7B6
:103BE000DEB760970FB6F894DEBF0FBECDBFF89476
:103BF00098E288E10FB6F894A895809360000FBE14
:103C000090936000809181008F7E809381008091ED
:103C10008100886080938100809180008D7F8093F7
:103C20008000809180008E7F809380008091800052
:103C30008F7380938000809180008F7C80938000C0
:103C400080918100887F82608093810080E090E491
:103C5000909389008093880090938B0080938A00D2
:103C60001092850010928400E5E1F7E0849190E0E5
:103C7000880F991FFC01EA54F94F25913491309334
:103C80006B0220936A02FC01E454F84F25913491B1
:103C900030934E0220934D028E55984FFC01859132
:103CA00094919093690280936802EBE5F7E0E491C8
:103CB000E0934C029FB7F894E0916802F09169029A
:103CC000208180914C02822B80839FBF2FB7F89474
:103CD000E0914D02F0914E02808190914C029095BE
:103CE000892380832FBFE8EDF6E0849190E0880F70
:103CF000991FFC01EA54F94F2591349130937202D7
:103D000020937102FC01E454F84F259134913093D3
:103D1000700220936F028E55984FFC01859194910B
:103D200090936E0280936D02EEE1F7E0E491E093F0
:103D30006C029FB7F894E0916D02F0916E022081C1
:103D400080916C02822B80839FBFE7EDF6E0849127
:103D500090E0880F991FFC01EA54F94F25913491A6
:103D60003093790220937802FC01E454F84F2591B6
:103D7000349130937702209376028E55984FFC0150
:103D8000859194919093750280937402EDE1F7E030
:103D9000E491E09373029FB7F894E0917402F0917C
:103DA0007502208180917302822B80839FBF9FB711
:103DB000F894E0917F02F0918002208180917E0250
:103DC000822B80839FBFE5E0F7E0849190E0880F2D
:103DD000991FFC01EA54F94F2591349130937D02EB
:103DE00020937C02FC01E454F84F259134913093E8
:103DF000800220937F028E55984FFC01859194910B
:103E000090937B0280937A02EBE4F7E0E491E093F5
:103E10007E029FB7F894E0917A02F0917B022081B4
:103E200080917E02822B80839FBF9FB7F894E091A0
:103E30007F02F0918002208180917E02822B80831C
:103E40009FBF9FB7F894E0912712F091281220812C
:103E500080912612822B80839FBFEEEEF6E0849144
:103E600090E0880F991FFC01EA54F94F2591349195
:103E70003093840220938302FC01E454F84F25918F
:103E8000349130932812209327128E55984FFC01BD
:103E9000859194919093820280938102E4E3F7E00C
:103EA000E491E09326129FB7F894E0918102F0919B
:103EB0008202208180912612822B80839FBF9FB730
:103EC000F894E0912712F091281220818091261217
:103ED000822B80839FBFE4E0F7E0849190E0880F1D
:103EE000991FFC01EA54F94F2591349130938802CF
:103EF00020938702FC01E454F84F259134913093CC
:103F00008B0220938A028E55984FFC0185919491E3
:103F10009093860280938502EAE4F7E0E491E093CF
:103F200089029FB7F894E0918502F0918602208182
:103F300080918902822B80839FBF2FB7F894E091F4
:103F40008A02F0918B028081909189029095892359
:103F500080832FBFE3E0F7E0849190E0880F991F02
:103F6000FC01EA54F94F2591349130938F0220934C
:103F70008E02FC01E454F84F259134913093920263
:103F8000209391028E55984FFC01859194919093C6
:103F90008D0280938C02E9E4F7E0E491E0939002D3
:103FA0009FB7F894E0918C02F0918D02208180916E
:103FB0009002822B80839FBF2FB7F894E0919102EB
:103FC000F091920280819091900290958923808354
:103FD0002FBF62E082E30E9418491092C000109245
:103FE000C50081E08093C4008091C100806180930E
:103FF000C1008091C10088608093C1008091C100A0
:1040000080688093C100E2EDF6E0849190E0880F33
:10401000991FFC01EA54F94F259134913093DF1236
:104020002093DE12FC01E454F84F25913491309333
:10403000DD122093DC128E55984FFC0185919491EE
:104040009093DB128093DA12E8E1F7E0E491E093D9
:10405000D9129FB7F894E091DA12F091DB12208127
:104060008091D912822B80839FBFE3EDF6E084918B
:1040700090E0880F991FFC01EA54F94F2591349183
:104080003093E6122093E512FC01E454F84F259199
:1040900034913093E4122093E3128E55984FFC0133
:1040A000859194919093E2128093E112E9E1F7E017
:1040B000E491E093E0129FB7F894E091E112F0915F
:1040C000E21220818091E012822B80839FBFE4ED79
:1040D000F6E0849190E0880F991FFC01EA54F94FB3
:1040E000259134913093D8122093D712FC01E454D7
:1040F000F84F259134913093D6122093D5128E55D6
:10410000984FFC01859194919093D4128093D3128F
:10411000EAE1F7E0E491E093D2129FB7F894E091DE
:10412000D312F091D41220818091D212822B8083FD
:104130009FBF2FB7F894E091D512F091D6128081ED
:104140009091D2129095892380832FBF10927E0088
:1041500010927D0080917D00816080937D00809130
:104160007D00846080937D0087EC80937A0080914D
:104170007A0086FDFCCF1092320F1092330F10920E
:10418000340F1092350F1092360F1092370F109295
:10419000380F1092390F10923A0F10923B0F109275
:1041A0003C0F10923D0F10923E0F80E590E09093EF
:1041B00022038093210381E49FE09093310F809349
:1041C000300FECEFF6E0849190E0880F991FFC012E
:1041D000EA54F94F25913491309399022093980233
:1041E000FC01E454F84F25913491309397022093C9
:1041F00096028E55984FFC0185919491909395026B
:1042000080939402E2E4F7E0E491E09393029FB795
:10421000F894E0919402F0919502208180919302AC
:10422000822B80839FBFEDEFF6E0849190E0880FB2
:10423000991FFC01EA54F94F259134913093A00263
:1042400020939F02FC01E454F84F25913491309360
:104250009E0220939D028E55984FFC01859194916A
:1042600090939C0280939B02E3E4F7E0E491E09357
:104270009A029FB7F894E0919B02F0919C022081F2
:1042800080919A02822B80839FBFEEEFF6E08491AB
:1042900090E0880F991FFC01EA54F94F2591349161
:1042A0003093A7022093A602FC01E454F84F259115
:1042B00034913093A5022093A4028E55984FFC01AF
:1042C000859194919093A3028093A202E4E4F7E095
:1042D000E491E093A1029FB7F894E091A202F091DB
:1042E000A30220818091A102822B80839FBF65EA77
:1042F00070E08CE20E94594965EA70E08DE20E940C
:10430000594965EA70E08EE20E9459498091210185
:10431000887F816080932101099A119A3C9A449880
:10432000399A419A80910A01806480930A018091B0
:104330000B01806480930B019FB7F894E091041304
:10434000F0910513208180910313822B80839FBFFE
:10435000EBEEF6E0849190E0880F991FFC01EA549F
:10436000F94F259134913093AB022093AA02FC01BE
:10437000E454F84F2591349130930513209304139E
:104380008E55984FFC01859194919093A90280934A
:10439000A802E1E3F7E0E491E09303139FB7F894F8
:1043A000E091A802F091A902208180910313822B51
:1043B00080839FBF9FB7F894E0910413F091051399
:1043C000208180910313822B80839FBF9FB7F89435
:1043D000E0910113F0910213208180910013822B50
:1043E00080839FBFEFEEF6E0849190E0880F991FE5
:1043F000FC01EA54F94F259134913093AF02209398
:10440000AE02FC01E454F84F25913491309302132D
:10441000209301138E55984FFC01859194919093B0
:10442000AD028093AC02E5E3F7E0E491E093001382
:104430009FB7F894E091AC02F091AD022081809199
:104440000013822B80839FBF9FB7F894E0910113E4
:10445000F0910213208180910013822B80839FBFF3
:104460009FB7F894E091FE12F091FF1220818091A5
:10447000FD12822B80839FBFE2EFF6E0849190E0F3
:10448000880F991FFC01EA54F94F2591349130931C
:10449000B3022093B202FC01E454F84F2591349109
:1044A0003093FF122093FE128E55984FFC01859198
:1044B00094919093B1028093B002E8E3F7E0E49125
:1044C000E093FD129FB7F894E091B002F091B10231
:1044D00020818091FD12822B80839FBF9FB7F8942B
:1044E000E091FE12F091FF1220818091FD12822B4B
:1044F00080839FBF9FB7F894E091FB12F091FC126C
:1045000020818091FA12822B80839FBFE5EFF6E035
:10451000849190E0880F991FFC01EA54F94F25918E
:1045200034913093B7022093B602FC01E454F84F63
:10453000259134913093FC122093FB128E55984FA5
:10454000FC01859194919093B5028093B402EBE3C2
:10455000F7E0E491E093FA129FB7F894E091B40287
:10456000F091B50220818091FA12822B80839FBF47
:104570009FB7F894E091FB12F091FC12208180919A
:10458000FA12822B80839FBFE6EEF6E0849190E0E2
:10459000880F991FFC01EA54F94F2591349130930B
:1045A000D1122093D012FC01E454F84F259134919C
:1045B0003093BB022093BA028E55984FFC0185912F
:1045C00094919093B9028093B802ECE2F7E0E49101
:1045D000E093CF122FB7F894E091B802F091B902AE
:1045E00080819091CF129095892380832FBF9FB7B0
:1045F000F894E091BA02F091BB0220818091CF1231
:10460000822B80839FBFEAEEF6E0849190E0880FD2
:10461000991FFC01EA54F94F259134913093BE1251
:104620002093BD12FC01E454F84F2591349130934E
:10463000BF022093BE028E55984FFC018591949144
:104640009093BD028093BC02E0E3F7E0E491E09335
:10465000BC122FB7F894E091BC02F091BD028081AA
:104660009091BC129095892380832FBF9FB7F894B7
:10467000E091BE02F091BF0220818091BC12822B9A
:1046800080839FBFEDEEF6E0849190E0880F991F44
:10469000FC01EA54F94F259134913093BB122093D9
:1046A000BA12FC01E454F84F259134913093C302BF
:1046B0002093C2028E55984FFC018591949190935E
:1046C000C1028093C002E3E3F7E0E491E093B91202
:1046D0002FB7F894E091C002F091C10280819091CF
:1046E000B9129095892380832FBF9FB7F894E091EA
:1046F000C202F091C30220818091B912822B808383
:104700009FBF0B9A13983D9A45983A9A4298809188
:104710000A01806880930A0180910B018F77809352
:104720000B016FE770E088E00E9459497894D12C22
:1047300060EA262E312C10923C041092390410921B
:104740003E0482E494E090933B0480933A040E94F8
:10475000534A4B015C0100913A0410913B0485E3FC
:10476000F801828361E00E94184961E0F8018281CA
:104770000E94E548E0913A04F0913B0482E5808391
:10478000118280913C04882309F483C1E0913A04AA
:10479000F0913B0461E082810E94E5488AE09FEF4E
:1047A0009EBD0DB407FEFDCF8150D1F7E0913A04D4
:1047B000F0913B0460E082810E94E5480AE07DEFD1
:1047C000F72E1FEF20E030E0A90160E089E394E0DC
:1047D0000E94FD47813009F46CC1015071F0FEBCAC
:1047E0000DB407FEFDCF88E092E01EBD0DB407FEBC
:1047F000FDCF2EB50197C9F7E5CF80E2809339044C
:1048000080913C04882321F089E394E00E94AD3D2F
:104810006091390470E080E090E00E943D4F60912B
:104820002D0483E0682E712C01E010E092E0892EC7
:10483000912C24E0A22EB12C44244A94542C42E71B
:10484000E42EF12C662389F18091270390912803AF
:104850008B37910509F468C008F4EAC0833A9105E2
:1048600009F4C9C008F410C1863A910509F4D1C011
:10487000893A910509F0E4C0615060932D046111FB
:104880000EC09091290480912A04981741F068E0A5
:1048900072E08EEA90E00E94214060912D04109217
:1048A0002803109227036111CFCF10922D0410928C
:1048B0002A0410922904A89568EB7BE080E090E040
:1048C0000E941C4AD394F5E0DF1235CF68E083E004
:1048D0000E94DF460E94B63E0E94534A609329120E
:1048E00070932A1280932B1290932C1260960FB61D
:1048F000F894DEBF0FBECDBFDF91CF911F910F9116
:10490000FF90EF90DF90BF90AF909F908F907F903F
:104910006F905F904F903F902F9008958BE790E0BD
:1049200090932803809327038091C00085FF8ACF4E
:1049300020912E042093C600E0912A04EF5FE093BB
:104940002A0480912B0490912C048227082E8295B2
:10495000807F8025092E982F82958F700826869556
:1049600098278927880F880F880F802590932C041B
:1049700080932B0420912904E21761F0F0E0E95DB7
:10498000FC4F828180932E048111C8CF80912B042B
:1049900090912C04492F55275093360440933504A9
:1049A0009C0133273093380420933704892B09F076
:1049B00075C0B0923404A09233044F5F5F4F5093A0
:1049C0003604409335042F5F3F4F309338042093D3
:1049D000370430922803209227038091C00085FF7E
:1049E00031CF809133048093C600E3EAF0E0F09386
:1049F0002803E09327038091C00085FF23CF809197
:104A000037048093C60086EA90E090932803809351
:104A100027038091C00085FF15CF809135048093D6
:104A2000C600E9EAF0E0F0932803E093270324CFDF
:104A30008C36910551F082379105B9F0892B29F018
:104A40005092280340922703FDCEE0912A0481E092
:104A50008E0F80932A04F0E0E95DFC4F8281809301
:104A60002E04F0922803E09227038091C00085FF76
:104A7000E9CE80912E048093C60050922C0440927F
:104A80002B04E0912A047ACF803A910509F4A5CF4E
:104A9000D7CF89E394E00E94BF3D78CE452BC9F47F
:104AA00090923404809233041093360400933504BA
:104AB00090CF21E030E040E050E06BE389E394E008
:104AC0000E94FD47182F813059F088E38093390404
:104AD00097CE232B09F1109334040093330479CF3C
:104AE0002AEA31E040E050E068E089E394E00E9487
:104AF000FD478530D1F084E02FEF2EBD0DB407FEC9
:104B0000FDCF9EB590933D048150B9F79A3A71F16B
:104B100085E28093390474CE709234046092330439
:104B2000109338040093370454CF10933E04412C63
:104B3000512C320120E030E0A90167E389E394E0E1
:104B40000E94FD47A301920169E289E394E00E947B
:104B5000FD478823A1F00E94534A68197909613DF5
:104B6000774040F383E4809339044ACE82E0809317
:104B70003E04412C512C612C60E4762EDBCF8091D9
:104B80003E04823049F180913C04882321F089E37E
:104B900094E00E94AD3DE0913A04F0913B0480E541
:104BA000808381E0818380913E04833051F189E0EC
:104BB00080933F04BE016F5F7F4F89E394E00E94C2
:104BC00089508823B9F08B8586FF14C085E08093D7
:104BD00040048093410480CE20E030E0A9016AE3E4
:104BE00089E394E00E94FD47882371F087E3809376
:104BF000390406CE6FE172E086E991E00E9421401F
:104C0000E5CF10923F04D6CF8FEF8EBD0DB407FED7
:104C1000FDCF8EB5807C803C19F483E080933E0408
:104C200083E09FEF9EBD0DB407FEFDCF2EB58150F2
:104C3000C9F7A9CF2F923F924F925F926F927F92C6
:104C40008F929F92AF92BF92CF92DF92EF92FF929C
:104C50000F931F93CF93DF9300D01F92CDB7DEB792
:104C600010921C1210921B1210921A12109219120A
:104C70002091570A3091580A0FEF1FEF66246A946B
:104C800077247394E9E05E2EF2E04F2EEE24E39455
:104C9000F12CB9EE2B2E312C8CEBC82ED12C2115FA
:104CA0003105B1F080914504909146048C3B91050B
:104CB00009F455C0893E910509F4CEC1892B09F448
:104CC0003DC210934604009345042115310551F768
:104CD00010924D0610924E0610924F0610925006FA
:104CE00010924806109247061092510A1092520AEA
:104CF0001092530A1092540A1092590A81E090E0DF
:104D0000A0E0B0E08093490690934A06A0934B063A
:104D1000B0934C060F900F900F900F90DF91CF91B2
:104D20001F910F91FF90EF90DF90CF90BF90AF90C9
:104D30009F908F907F906F905F904F903F902F90BB
:104D400008950E94534A60936C0A70936D0A809391
:104D50006E0A90936F0AD0924604C09245040E9456
:104D6000534A60935C0A70935D0A80935E0A909345
:104D70005F0A80915A0A90915B0A8155964009F426
:104D800006C58091510A9091520AA091530AB091A0
:104D9000540A29E0B695A795979587952A95D1F756
:104DA0009C01AD012F5F3F4F4F4F5F4F80913E04FD
:104DB000833039F089E0220F331F441F551F8A9535
:104DC000D1F761E189E394E00E94FD47882309F46B
:104DD000C7C280E38093390480913C04882321F08A
:104DE00089E394E00E94AD3D80914004815080931E
:104DF0004004882309F478C50E94534A80905C0AD5
:104E000090905D0AA0905E0AB0905F0ADC01CB0131
:104E100088199909AA09BB094091600A5091610A51
:104E20006091620A7091630A4F5F5F4F6F4F7F4FCF
:104E30004093600A5093610A6093620A7093630A18
:104E40004091640A5091650A6091660A7091670A00
:104E5000480F591F6A1F7B1F4093640A5093650ACD
:104E60006093660A7093670A4091680A5091690AD4
:104E700060916A0A70916B0A481759076A077B07A5
:104E800040F48093680A9093690AA0936A0AB093E9
:104E90006B0A80903D0490903904709129046091D0
:104EA0002A04872F861B8F3F11F40C94BC2FE1E05E
:104EB000E70FE0932904A72FB0E0A95DBC4F12963D
:104EC0001C928E2F861B8F3F09F402C782E0870F4A
:104ED00080932904F0E0E95DFC4F5282282F30E0F6
:104EE0003093320420933104982F961B9F3F11F486
:104EF0000C94763043E0470F40932904D901A95D13
:104F0000BC4F12967C921297842F90E0B42EB61A62
:104F10009093300480932F04FFEFBF1611F40C948C
:104F2000C13044E0470F40932904FC01E95DFC4F88
:104F3000728212968C9112978F5F12968C931297B1
:104F400082818F5F8283842F861B8F3F11F40C94A4
:104F5000B4307B5F70932904E42FF0E0E95DFC4FEF
:104F60005282B72EB61A12968C9112978F5F1296B4
:104F70008C931297992009F40FC780912F04909178
:104F80003004AC015527495D5C4FFA01A280A3941F
:104F9000A282FFEFBF1609F4CAC741E0470F409352
:104FA0002904E72FF0E0E95DFC4F9282B42EB61A97
:104FB00012965C9112975F5F12965C93019609F4CA
:104FC000EAC6882009F4D3C680912F04909130045A
:104FD000DC01BB27A95DBC4F12962C9112972F5F65
:104FE00012962C9312972FEFB21609F488C771E02E
:104FF000740F70932904E42FF0E0E95DFC4F828286
:1050000040913104509132049A013327F901E95D4E
:10501000FC4F22812F5F2283761B7F3F09F4B2C6AB
:10502000019611F012966C9280912D048F5F8093FF
:105030002D042091570A3091580A31CE0E94534ACC
:1050400060938C0A70938D0A80938E0A90938F0AD6
:1050500030924604209245040E94534A60937C0A91
:1050600070937D0A80937E0A90937F0A8090490610
:1050700090904A06A0904B06B0904C068091250374
:1050800090912603892B09F085C089E394E00E9462
:105090008A3E882309F439C20E94534A80907C0AD0
:1050A00090907D0AA0907E0AB0907F0ADC01CB012F
:1050B00088199909AA09BB094091800A5091810A6F
:1050C0006091820A7091830A4F5F5F4F6F4F7F4FED
:1050D0004093800A5093810A6093820A7093830AF6
:1050E0004091840A5091850A6091860A7091870ADE
:1050F000480F591F6A1F7B1F4093840A5093850AEB
:105100006093860A7093870A4091880A5091890AB1
:1051100060918A0A70918B0A481759076A077B07C2
:1051200040F48093880A9093890AA0938A0AB093E6
:105130008B0A2091570A3091580AB1CD21303105A0
:1051400009F4FFCD2230310509F478CF8091590A56
:1051500081111BC040914D0650914E0660914F0643
:10516000709150068091510A9091520AA091530A71
:10517000B091540A481759076A077B0731F0F0923B
:10518000580AE092570A21E030E01092460410924B
:10519000450485CD89E394E00E948A3E81117CCF4D
:1051A00020E030E0A9016DE089E394E00E94FD4732
:1051B000882309F4E4C260913D04309129042091D0
:1051C0002A04832F821B8F3F09F404C6E1E0E30F1A
:1051D000E0932904A32FB0E0A95DBC4F12961C9266
:1051E0008E2F821B8F3F09F417C772E0730F7093E5
:1051F0002904F0E0E95DFC4F83E08283872F90E093
:105200009093320480933104472F421B4F3F09F49F
:1052100085C743E0942E930E90922904DC01A95D8A
:10522000BC4F12967C921297492D50E05C834B83C1
:10523000792D721B5093300440932F047F3F09F463
:1052400070C774E0730F70932904495D5C4F5A0175
:10525000FA01728212969C901297939412969C92E5
:1052600012974B815C81928093949282972E921A2E
:10527000FFEF9F1609F47AC73B5F30932904472F4D
:1052800050E0495D5C4F7CE0FA017283732F721B22
:1052900012964C9112974F5F12964C931297F5010C
:1052A00042814F5F42837F3F09F4AAC671E0730FCA
:1052B00070932904E32FF0E0E95DFC4F39E232837B
:1052C000372F321B12964C9112974F5F12964C93C8
:1052D000662309F480C6DC01A95DBC4F80902F04D1
:1052E00090903004A4015527495D5C4FFA01B280CB
:1052F000B394B2823F3F09F4F2C631E0370F3093E6
:105300002904E72FF0E0E95DFC4F628312966C916F
:1053100012976F5F12966C93321B3F3F09F48BC656
:105320008920809419F0DA0112966C9280912D04F4
:105330008F5F80932D040E94B63E80913C048823A9
:1053400021F089E394E00E94AD3D10922603109273
:10535000250385E08093410492E0892E912C40C181
:1053600040E052E061E576E089E394E00E94003E8F
:10537000882309F431CD80913C048111F1C585E089
:10538000809340040E94534A80905C0A90905D0A8A
:10539000A0905E0AB0905F0ADC01CB0188199909E0
:1053A000AA09BB094091600A5091610A6091620AA2
:1053B0007091630A4F5F5F4F6F4F7F4F4093600A5A
:1053C0005093610A6093620A7093630A4091640A81
:1053D0005091650A6091660A7091670A480F591FDB
:1053E0006A1F7B1F4093640A5093650A6093660AA4
:1053F0007093670A4091680A5091690A60916A0A3D
:1054000070916B0A481759076A077B0740F480932D
:10541000680A9093690AA0936A0AB0936B0A0E9483
:10542000534A80906C0A90906D0AA0906E0AB090DA
:105430006F0ADC01CB0188199909AA09BB094091BF
:10544000700A5091710A6091720A7091730A4F5FED
:105450005F4F6F4F7F4F4093700A5093710A609374
:10546000720A7093730A4091740A5091750A6091A0
:10547000760A7091770A480F591F6A1F7B1F409365
:10548000740A5093750A6093760A7093770A409174
:10549000780A5091790A60917A0A70917B0A4817CC
:1054A00059076A077B0740F48093780A9093790A3A
:1054B000A0937A0AB0937B0A80914D0690914E0694
:1054C000A0914F06B09150064091510A5091520A56
:1054D0006091530A7091540A841B950BA60BB70B6D
:1054E000811542E09407A105B10510F080E092E03B
:1054F0009093560A8093550A1092580A1092570AB0
:105500007092590A20E030E040CEA501940100904D
:105510003F0404C0220F331F441F551F0A94D2F7C3
:1055200068E189E394E00E94FD478111B7C2A7E4D6
:10553000B4E080E090E02D91E92FFF27E227EE0F05
:10554000FF1FEA54FB4F25913491982F882782271B
:105550009327F6E0A734BF0771F72EEF2EBD0DB4E9
:1055600007FEFDCF209147042EBD20914804E9E4B9
:10557000F4E00DB407FEFDCF2EBD27E436E02E1774
:105580003F0711F02191F5CF0DB407FEFDCF9EBD71
:105590000DB407FEFDCF8EBD0DB407FEFDCF6EBC72
:1055A0000DB407FEFDCF8EB580933D048F7185301D
:1055B00009F432C387E58093390480913C04882341
:1055C00021F089E394E00E94AD3D80914104815037
:1055D00080934104882309F432C488248394912C55
:1055E0000E94534A20917C0A30917D0A40917E0AA4
:1055F00050917F0ADC01CB01821B930BA40BB50BEE
:105600004091800A5091810A6091820A7091830AC8
:105610004F5F5F4F6F4F7F4F4093800A5093810AD7
:105620006093820A7093830A4091840A5091850A9C
:105630006091860A7091870A480F591F6A1F7B1F65
:105640004093840A5093850A6093860A7093870A70
:105650004091880A5091890A60918A0A70918B0A58
:10566000481759076A077B0740F48093880A90938C
:10567000890AA0938A0AB0938B0A8A94892809F42C
:10568000CBC00E94534A80908C0A90908D0AA090C3
:105690008E0AB0908F0ADC01CB0188199909AA09FA
:1056A000BB094091900A5091910A6091920A7091C1
:1056B000930A4F5F5F4F6F4F7F4F4093900A509315
:1056C000910A6093920A7093930A4091940A5091C0
:1056D000950A6091960A7091970A480F591F6A1FA0
:1056E0007B1F4093940A5093950A6093960A709397
:1056F000970A4091980A5091990A60919A0A70917C
:105700009B0A481759076A077B0740F48093980A59
:105710009093990AA0939A0AB0939B0A80914D06A0
:1057200090914E06A0914F06B09150069E5FAF4FEC
:10573000BF4F80934D0690934E06A0934F06B093B3
:1057400050061092480610924706809149069091A3
:105750004A06A0914B06B0914C060196A11DB11DC1
:105760008093490690934A06A0934B06B0934C064B
:105770001092580A1092570A20E030E006CD6EBC15
:105780000DB407FEFDCF8EB5811115CDD6CD80911C
:10579000510A9091520AA091530AB091540A79E0AB
:1057A000B695A795979587957A95D1F79C01AD0108
:1057B0002F5F3F4F4F4F5F4F80913E04833039F052
:1057C00069E0220F331F441F551F6A95D1F761E12D
:1057D00089E394E00E94FD47882309F49CC380E399
:1057E0008093390480913C04882321F089E394E07C
:1057F0000E94AD3D8091400481508093400481110E
:10580000FBCA20913D044091390469E083E00E9485
:10581000B5500E94B63EF0CA80903D049090390485
:105820007091290460912A04872F861B8F3F09F409
:105830009CC3E1E0E70FE0932904A72FB0E0A95D46
:10584000BC4F12961C928E2F861B8F3F09F472C29A
:1058500042E0470F40932904F0E0E95DFC4F52829B
:10586000242F30E03093320420933104842F861BA0
:105870008F3F09F43EC443E0470F40932904D90108
:10588000A95DBC4F12967C921297842F90E0B42EA3
:10589000B61A9093300480932F04EFEFBE1609F4EC
:1058A00070C444E0470F40932904FC01E95DFC4FBC
:1058B000728212968C9112978F5F12968C93129728
:1058C00082818F5F8283842F861B8F3F09F44CC4B3
:1058D0007B5F70932904E42FF0E0E95DFC4F8CE0DE
:1058E0008283B72EB61A3FCB80903D049090390446
:1058F000E091290460912A048E2F861B8F3F09F4C2
:1059000094C131E03E0F309329048E2F90E0895DE1
:105910009C4FDC0112961C92832F861B8F3F09F44B
:1059200073C322E02E0F20932904A32FB0E0A95DBA
:10593000BC4F83E012968C93422F50E05093320478
:1059400040933104822F861B8F3F09F4DFC383E02D
:105950008E0F809329049A01295D3C4F5901D9018A
:1059600012967C92282F30E0782F761B30933004EB
:1059700020932F047F3F09F4EDC384E08E0F8093C2
:105980002904295D3C4FD90112967C92D5011296CB
:105990009C9112979F5F12969C93D90112969C91AD
:1059A00012979F5F12969C93982F961B9F3F09F426
:1059B000CFC3EB5FE093290490E0895D9C4FDC014D
:1059C00012965C927E2F761BD50112968C911297BF
:1059D0008F5F12968C93992009F4DEC280912F0478
:1059E000909130049C013327295D3C4FD9011296D8
:1059F000FC911297FF5F1296FC937F3F09F456C308
:105A000021E02E0F20932904F0E0E95DFC4F928203
:105A1000722F761BD50112963C9112973F5F12961A
:105A20003C93019609F4B7C2882009F4ACC2809176
:105A30002F0490913004DC01BB27A95DBC4F129666
:105A40003C9112973F5F12963C9312977F3F09F467
:105A500032C371E0720F70932904E22FF0E0E95D28
:105A6000FC4F828240913104509132049A013327D5
:105A7000F901E95DFC4F22812F5F2283761B7F3F76
:105A800009F422C1019611F012966C9280912D04B6
:105A90008F5F80932D040E94B63EAEC980903D0476
:105AA0004091290450912A04842F851B8F3F09F4CB
:105AB000D4C2E1E0E40FE0932904A42FB0E0A95D93
:105AC000BC4F12961C928E2F851B8F3F09F4FFC28C
:105AD00062E0640F60932904F0E0E95DFC4F83E02D
